:020000040800F2
:10000000D80800209D0100087D290008212500084E
:100010000D270008550A0008BD3300080000000045
:10002000000000000000000000000000852E000815
:10003000B50B000800000000C52D0008C72E000801
:10004000B7010008B7010008B7010008B7010008B0
:10005000B7010008B7010008B7010008B7010008A0
:10006000B7010008B7010008B7010008B701000890
:10007000B7010008B7010008B7010008B701000880
:10008000F90A0008050B0008B7010008B7010008CD
:10009000590A0008B7010008B7010008B7010008B5
:1000A000B7010008B7010008B7010008B701000850
:1000B000B70100086D2F0008B7010008B70100085C
:1000C000B7010008B7010008B7010008B701000830
:1000D000B7010008B70100088D330008B701000818
:1000E000B7010008B7010008B7010008B701000810
:1000F000B7010008B7010008B7010008B701000800
:10010000B7010008B7010008B7010008B7010008EF
:10011000B7010008B7010008B7010008B7010008DF
:10012000B7010008B7010008B7010008B7010008CF
:10013000B70100080000000000000000B70100083F
:100140008D0A0008B7010008B7010008B7010008D0
:10015000B7010008B7010008B7010008B70100089F
:10016000B7010008B7010008B7010008B70100088F
:10017000B7010008B70100080000000000000000FF
:10018000B7010008B7010008DFF80CD000F050FB01
:1001900000480047554A0008D80800200648804714
:1001A00006480047FEE7FEE7FEE7FEE7FEE7FEE75C
:1001B000FEE7FEE7FEE7FEE7512F00088901000891
:1001C0002DE9F05F0546002092469B46884606468C
:1001D000814640241BE0284641464746224600F01F
:1001E000F6F953465A46C01A914110D311461846A3
:1001F000224600F0DDF92D1A67EB01084F46224632
:100200000120002100F0D4F917EB00094E41201E17
:10021000A4F10104DFDC484631462A464346BDE8E6
:10022000F09FD2B201E000F8012B491EFBD27047CB
:100230000022F6E710B513460A4604461946FFF7B2
:10024000F0FF204610BD2DE9FE4F804681EA0300F5
:10025000C00F0C46009021F0004123F00045B8EBA0
:100260000200A94105D24046214690461C460B4655
:10027000024623F00040104347D0270DC7F30A0081
:10028000C3F30A510290401A019040286BDAC3F37D
:10029000130040F4801B0098924620B10023D2EB5B
:1002A000030A63EB0B0B01985946C0F1400250461C
:1002B00000F07EF906460D4650465946019A00F078
:1002C00096F910EB08006141002487EA115284EA94
:1002D000E7731A4340D0009A62B3019A012A4FEAA9
:1002E000075215DC001B61EB02014FF0004202EAED
:1002F0000752CDE90042001C41F5801132462B46E1
:1003000000F0CBF903B0BDE8F08F40462146F9E795
:10031000001B61EB0201001C41F5801300185B41DA
:100320002018A2F5001747EB030140EAD570B61973
:100330006D4111E06D084FEA360645EAC0754FEA97
:100340000752001B61EB0201001C41F580114908B6
:100350004FEA30000019514132462B4603B0BDE848
:10036000F04F00F08DB90098012240000023D0EB3F
:10037000020263EBE073009821464FEAE074B8EBA9
:10038000000061EB0401E9E783F000435BE781F0E3
:10039000004158E72DE9FE4F81EA030404F00044D0
:1003A00021F0004100944FF0000B23F0004350EA8D
:1003B00001045ED052EA03045BD0C3F30A54C1F3D4
:1003C0000A552C44A4F2F3340194A0FB0254C1F367
:1003D000130141F48011C3F3130343F4801301FBB1
:1003E000024400FB034E840A970A44EA815447EA18
:1003F0008357A4FB076802958D0A05FB07854FEA22
:10040000932C04FB0C542705029D4FEA065847EA3B
:100410001637B5EB08056EEB070C870E920E47EA10
:10042000811742EA8312A7FB0201B6EB0B0164EBD2
:1004300000042B0D43EA0C335E1844EB1C50DA46E3
:100440005146E7FB0201C5F313044FEA0B3343EABD
:1004500014534FEA0432019C43EA0603A4F10C044E
:100460000294009CCDE900B400F017F903B0BDE898
:10047000F08F00200146F9E72DE9F04D81EA0304F1
:1004800004F0004B21F0004514464FF0000A23F021
:10049000004150EA050220D054EA01021DD0C5F304
:1004A0000A570246C5F31303C1F31300C1F30A56FA
:1004B00040F4801543F48013A7EB0608101BD646C2
:1004C00008F2FD3873EB050002D308F1010801E0E2
:1004D00092185B41B8F1000F03DA00200146BDE835
:1004E000F08D00204FF48011064684460EE0171B65
:1004F00073EB050705D3121B63EB050306434CEAB8
:10050000010C49084FEA300092185B4150EA01079C
:10051000EDD152EA030012D082EA040083EA050119
:10052000084305D0101BAB4106D20122002306E090
:1005300000224FF0004302E06FF0010253101AEB6B
:1005400006004CEB085110EB0A0041EB0B01BDE833
:10055000F04D00F095B80EB5C10F80EAE070084488
:10056000CA07002140F233438DE80E000A460B46CD
:1005700000F093F803B000BD01F0004330B421F067
:10058000004150EA010206D00A0DA2F56072C1F3E3
:100590001301002A02DC30BC00207047440F44EAFB
:1005A000C104C100E01830BC00EBC25000F031B80B
:1005B000202A04DB203A00FA02F100207047914023
:1005C000C2F1200320FA03F3194390407047202A18
:1005D00004DB203A21FA02F00021704721FA02F3ED
:1005E000D040C2F120029140084319467047202AAA
:1005F00006DBCB17203A41FA02F043EAE07306E04B
:1006000041FA02F3D040C2F120029140084319465A
:1006100070470029A8BF7047401C490008BF20F060
:100620000100704710B4B0FA80FC00FA0CF050EAF8
:10063000010404BF10BC704749B1CCF1200421FA79
:1006400004F411FA0CF118BF012121430843A3EB74
:100650000C01CB1D4FEA00614FEA102042BF002081
:1006600010BC704700EBC35010440029A4BF10BC5D
:100670007047401C490008BF20F0010010BC7047C3
:1006800010B5002B08DA401C41F1000192185B41C3
:100690001A4301D120F0010010BD2DE9F04D924622
:1006A0009B4611B1B1FA81F202E0B0FA80F2203239
:1006B0009046FFF77DFF04460F4640EA0A0041EAF4
:1006C0000B0153465A46084313D0114653EA010022
:1006D00019D0C8F140025046FFF779FF05460E4693
:1006E000504659464246FFF763FF084305D00120B4
:1006F00004E020463946BDE8F08D0020054346EA77
:10070000E0762C4337430A986305E40AA0EB08001F
:100710000022FD0A44EA47540A3002D5002001466F
:10072000E9E7010510196941DDE90845001969414A
:10073000BDE8F04DA4E770B521F0004303430CD0B1
:10074000C1F30A550024D5EB040564EB0403D61766
:10075000AD1AB34102DB0020014670BD201841EB09
:10076000025170BD2DE9F04D00231A461B1A8A4133
:1007700003DB00200146BDE8F08DC1F30A52C1F34E
:10078000130141F480154FF0000BD10702D100187E
:100790006D41521E0027044640F2FF11384601EB1E
:1007A000620A3E468046024600204FF48011FFF761
:1007B0000EFFC2197141BB1846EB0100B4EB030CEC
:1007C00075EB000C04D3E41A65EB000517460E46E2
:1007D000241908F101006D4180463428E3DDF91940
:1007E00046EB0600091BA84103D24FF0FF32134627
:1007F00001E0002213461BEB070046EB0A51BDE85F
:10080000F04DFFF73DBF000030B5002904DB4FF08D
:100810000044404264EB0101002B04DB4FF0004434
:10082000524264EB0303994208BF904230BD00007E
:10083000064C074D06E0E06840F0010394E807002D
:1008400098471034AC42F6D3FFF7A2FCE04C000806
:10085000004D000830B501469FED7A4AB0EE443AAB
:10086000DFED793AF0EE632AB0EE632ADFED774AE6
:10087000B0EE631AF0EE630AF0EE641A9FED740AAC
:10088000143002F07DF8002381F87830B0EE443A5D
:10089000F0EE632AB0EE632AF0EE641AB0EE631A4B
:1008A000F0EE630AB1EE040A01F1440002F068F8C8
:1008B00001F1F802B0EE633AF0EE632AB0EE632A7B
:1008C000F0EE631AB0EE631AF0EE630AB0EE630A5C
:1008D00001F5867002F054F8012482F87840B0EEF9
:1008E000633AF0EE632AB0EE632AF0EE631AB0EEDC
:1008F000631AF0EE630AB0EE630A02F1440002F0FC
:100900003FF801F5BA72B0EE633AF0EE632AB0EE4A
:10091000632AF0EE631AB0EE631AF0EE630AB0EEEB
:10092000630A01F5C47002F02BF8022582F87850B2
:10093000B0EE633AF0EE632AB0EE632AF0EE631A8B
:10094000B0EE631AF0EE630AB0EE630A02F14400FF
:1009500002F016F801F17C02B0EE633AF0EE632A81
:10096000B0EE632AF0EE631AB0EE631AF0EE630A9B
:10097000B0EE630A01F1900002F002F882F87850BC
:10098000B0EE633AF0EE632AB0EE632AF0EE631A3B
:10099000B0EE631AF0EE630AB0EE630A02F14400AF
:1009A00001F0EEFF01F5FC70B0EE443AF0EE632A80
:1009B000B0EE632AF0EE641AB0EE631AF0EE630A4A
:1009C000B1EE040A01F0DCFF02F8783F01F51E7079
:1009D000B0EE633AF0EE632AB0EE632AF0EE631AEB
:1009E000B0EE631AF0EE630AB0EE630A01F0C8FFDE
:1009F000147001F52E70B0EE633AF0EE632AB0EE9B
:100A0000632AF0EE631AB0EE631AF0EE630AB0EEFA
:100A1000630A01F0B5FF157001F50E70B0EE633A90
:100A2000F0EE632AB0EE632AF0EE631AB0EE631ABA
:100A3000F0EE630AB0EE630A01F0A2FF032010702B
:100A400030BD000000C0DA450000000000409C45B9
:100A50009A99993EFEE7000010B588B0084800F06A
:100A60001CFA084B6A461C460021054800F0A1F913
:100A700021460548009A01F0A8FE08B010BD00000C
:100A800018000020D0040020BC01002010B588B060
:100A9000084800F002FA084B6A461C460021054847
:100AA00000F087F921460548009A01F079FE08B068
:100AB00010BD000040000020C8040020BC01002040
:100AC00000B50C4A00218BB0904202D105910991EA
:100AD00002E00E2205920992012201910291CDE9D4
:100AE00006120391009104910892694600F0DAF829
:100AF0000BB000BD18000020014800F025BC00002C
:100B0000FC000020014800F01FBC00005C01002038
:100B100001681823CAB2103AB2FBF3F2054B6FF327
:100B20000901032A9B5CC36500D9091D816508463C
:100B300070470000464B000810B5014600208B6945
:100B40008A6A4FF0C07453B1B3F5005F15D072B12B
:100B5000012A0CD0022A0AD0032A09D104E01AB1D2
:100B6000012A06D0022A03D1C96AC90100D5012091
:100B700010BDC96AA142FAD010BD002AF7D0012ADF
:100B8000F2D0022AF3D0032AF3D010BD30B50468A6
:100B9000256825F480252560046863608368402B00
:100BA000036803D099600068C26030BD9A60006835
:100BB000C16030BD7047704790F82020012A07D0EF
:100BC000022A05D0416A41F4802141620120704728
:100BD000006842690A43426100207047F0B590F80E
:100BE00020500468A468012D05D0022D03D0416A6D
:100BF00041F4802153E014F0406F01D1E5004BD562
:100C0000C4F30164022C03D9416A41F4000146E0B7
:100C10000125A5401D608D684FF4C0739DB1CE685D
:100C200035434E6845EAC605066803EB0417F551DF
:100C30004FF4C275076805EB04150E697E51097DF6
:100C4000012905D009E00E88CD6845EA4655EBE755
:100C500001684E5946F480764E511179D2F805500C
:100C60004FF4C67641EA0525016806EB04168D515E
:100C70001178D2F801204FF4C47541EA02210268CC
:100C800005EB04155151006803EB0411425842F082
:100C9000010242500020F0BD416A41F4001141625E
:100CA0000120F0BD10B590F82020012A07D0022ABB
:100CB00005D0416A41F480214162012010BD3B48CA
:100CC000D0F8002242F00102C0F80022D0F8002241
:100CD00022F47C52C0F80022D0F800224B6A42EA8B
:100CE0000322C0F800220A7D02F01F0301229A406D
:100CF000D0F81C329343C0F81C32CB69B3B9D0F89A
:100D00000C329343C0F80C328C894B6864F31F4358
:100D10004C6900EBC404C4F840320C890B6864F3DE
:100D20001F434C6900EBC404C4F84432CB69012B67
:100D300016D1D0F80C321343C0F80C320C884B6833
:100D400064F31F434C6900EBC404C4F840320C89BF
:100D5000CB6864F31F434C6900EBC404C4F844320D
:100D60008B69002BD0F804320ED01343C0F8043244
:100D70000B69002BD0F8143208D01343C0F814329A
:100D8000096A012904D008E09343EFE79343F5E7AC
:100D9000D0F81C121143C0F81C12D0F8001221F038
:100DA0000101C0F80012002010BD000000640040E6
:100DB000704730B590F82040012C05D0022C03D0AC
:100DC000416A41F480215DE00468002955D024691E
:100DD000A40754D04FF4D874056804EB01142D59BE
:100DE00015F00405956005682D594ED0ED08556045
:100DF00005682C5904F00204D4604FF4DA740568D5
:100E000004EB01142D5905F00F05156105682D59E6
:100E1000C5F30725956105682C59240C54614FF4DE
:100E2000DC72046802EB0112A4581C700468A45818
:100E3000240A5C700468A458240C9C700468A258AE
:100E4000120EDA704FF4DE72046802EB0112A4583D
:100E50001C710468A458240A5C710468A458240C0A
:100E60009C710468A258120EDA71006881B10169A0
:100E700041F020010161002030BDE468A8E7416A2B
:100E800041F400114162012030BD6D0D1560AFE7E6
:100E9000C16841F02001C160EDE72DE9F05F054632
:100EA000006800244669D0F804908768D0F80CB038
:100EB000D0F810A0D0F81880F10748D0F90714D066
:100EC00001218160B80703D5284600F024FA0CE020
:100ED000780702D54FF4006407E0380702D54FF4D5
:100EE000805402E0284600F015FAF80516D5296866
:100EF0004FF480708860B80503D5284600F00DFADD
:100F00000CE0780502D544F4005407E0380502D51A
:100F100044F4804402E0284600F0FEF9F80316D5B8
:100F200029684FF480308860B80303D5284600F064
:100F3000F6F90CE0780302D544F4004407E03803E6
:100F400002D544F4803402E0284600F0E7F9300787
:100F500007D55FEACB6004D52968102044F40074FB
:100F6000C86070074FF0080707D55FEA0B7004D51B
:100F70002868C760284600F09BF9B00706D52868A6
:100F8000C068800702D0284600F093F9700607D5A4
:100F90005FEACA6004D52968102044F480640861BF
:100FA000B00607D55FEA0A7004D5286807612846AD
:100FB00000F080F9F00606D528680069800702D0A5
:100FC000284600F078F9B00308D55FEAC96005D576
:100FD000296810204860284600F06EF9F00307D514
:100FE0005FEA097004D528684760284600F098F940
:100FF000300446D55FEA497040D5F00504D55FEA74
:10100000C87001D044F00104B00504D55FEA8870CF
:1010100001D544F00204700504D55FEA487001D59B
:1010200044F00404300529D518F0700F26D008F0DC
:101030007000402815D006DC102809D020280AD0DE
:10104000302816D10AE050280ED0602811D10EE0C9
:1010500044F008040DE044F010040AE044F02004D9
:1010600007E044F0400404E044F0800401E044F46C
:1010700080742868816921F07001816129680420E9
:101080004860002C05D0686A204368622846FFF754
:101090008FFEBDE8F09F70B5040003D094F82000E7
:1010A00010B104E0012070BD204600F081F82068F6
:1010B000016821F00201016000F0A0FB0546052651
:1010C00004E000F09BFB401B0A2811D82068406810
:1010D0008007F6D42068016841F00101016000F04A
:1010E0008DFB05460BE000F089FB401B0A2806D962
:1010F000606A40F40030606284F82060D2E72068C3
:101100004068C007EFD0207E0128206801683DD0EC
:1011100021F080010160607E01282068016838D0DC
:1011200021F040010160A07E01282068016833D0D1
:1011300021F020010160E07E0128206801682ED0A6
:1011400041F010010160207F01282068016829D04A
:1011500021F008010160607F01282068016824D027
:1011600021F004010160D4E902010843D4E904122A
:10117000114308436168491E08432168C861002083
:101180006062012084F82000002070BD41F08001E1
:10119000C0E741F04001C5E741F02001CAE721F076
:1011A0001001CFE741F00801D4E741F00401D9E78D
:1011B000F0B587B0044614216846FFF739F8374B7D
:1011C0003748DFF8D4E01968D4F800C0344A022563
:1011D0000326092710300024491CF44524D1196046
:1011E000012907D1016841F000710160006800F039
:1011F00000700590106840F001001060106802ABAC
:1012000000F0010005904FF4C050CDE9000583E8DF
:10121000D0006946234800F009FA00221146142044
:1012200000F05AFB142032E0DFF87CE0F44530D1C6
:10123000D0F800C04CF0806CC0F800C0D0F800C0FE
:1012400001290CF0806CCDF814C0196007D1016839
:1012500041F000710160006800F0007005901068B6
:1012600040F002001060106802AB00F00200059030
:101270006020CDE9000583E8D00069460B4800F006
:10128000D5F900221146402000F026FB402000F056
:1012900015FB07B0F0BD0000006400400000002016
:1012A0003038024000000240006800400004024064
:1012B00070477047704770477047000070B504462C
:1012C00090F82000012804D0606A40F40020606299
:1012D00018E0022084F820002068016821F0010154
:1012E000016000F08BFA05460EE000BF00F086FAC0
:1012F000401B0A2808D9606A40F40030606205206B
:1013000084F82000012070BD20684068C007EDD13E
:10131000606270BD70477047704770477047704794
:10132000704790F83510022903D0802141650120D3
:101330007047052180F835100068016821F001012F
:1013400001600020704700002DE9F84304464FF08B
:101350000009CDF8009063484FF41651A56D006860
:10136000B0FBF1F72E6894F85C10082000FA01F148
:1013700031420FD021680A6852070BD50A6822F063
:1013800004020A6094F85C108840A860606D40F028
:101390000100606594F85C104FF0010808FA01F054
:1013A000304208D021684969090604D5A860606DFB
:1013B00040F00200606594F85C10042088403042E0
:1013C00008D021680968890704D5A860606D40F0DD
:1013D0000400606594F85C1010208840304218D0FA
:1013E00021680968090714D5A860206801684903C5
:1013F00004D50068000308D5A16C07E00168C905A1
:1014000003D4016821F008010160216C09B1204674
:10141000884794F85C1020208840304231D0216801
:101420000968C9062DD5A86094F8350005282068FC
:10143000016806D0490347D5006800031DD4616CDC
:101440001CE021F0160101602068416921F0800153
:101450004161206C08B9A06C20B12068016821F0BE
:101460000801016094F85C103F208840A86084F86F
:10147000349084F83580216D1FE0E16B09B120467E
:101480008847606D00282BD0606DC00714D0052000
:1014900084F835002068016821F00101016000989E
:1014A000401C0090B84203D820680068C007F6D1FD
:1014B00084F8349084F83580E16C002910D001B0B4
:1014C0002046BDE8F04308470168C905D5D4016846
:1014D00021F01001016084F8349084F83580CCE765
:1014E000BDE8F883100000202DE9F041044600F02B
:1014F00085F906465CB1002584F83450022084F852
:1015000035002068016821F0010101600DE0012033
:10151000BDE8F08100F072F9801B052805D9202074
:101520006065032084F83500F2E720680068C00792
:10153000F0D12268116820480140D4E90103184322
:10154000D4E903363343184363691843A369184346
:10155000E3691843236A18430843616A042903D1E5
:10156000D4E90B1319430843106020684069666A88
:1015700020F0070130460E43012704280CD1A06A51
:101580000643E06A40B12046FFF7D6FA20B140207A
:10159000606584F83570BAE7206846612046FFF739
:1015A000B7FA94F85C203F2191408160656584F82A
:1015B00035700020ACE700003F8010F02DE9F041CD
:1015C0000446866D90F83400002501280DD00120D6
:1015D00084F8340094F835700020012F07D084F887
:1015E000340002252846BDE8F0810220FBE70227EF
:1015F00084F8357060652046FFF7C8FA94F85C10EF
:101600003F208840B0602068016841F01601016009
:10161000206C20B12068016841F008010160206859
:10162000016841F001010160DCE700002DE9F84F9D
:1016300000224FF0010803254FF00F0E0B6808FA47
:1016400002F42340A3426ED14E68012E05D0022E33
:1016500003D0112E01D0122E12D186684FEA420C0F
:1016600005FA0CF7BE43CF6807FA0CF737438760DB
:101670004668A6430C79C4F3001494403443446094
:10168000C668570005FA07FC8C6826EA0C06BC40C1
:101690003443C4604C68022C01D0122C13D1D408FE
:1016A00000EB8404A346D4F8209054074FEAD46A90
:1016B0000EFA0AF629EA06090E6906FA0AF646EA59
:1016C0000906CBF8206006680C7926EA0C0604F0BF
:1016D0000304BC40344304604C68E40065D5364CD8
:1016E000266846F480462660246822F0030604F447
:1016F00080440094314C3444A446D4F808489607FA
:10170000370F0EFA07F6B4432D4EB04201D1002632
:1017100024E02C4EB04201D101261FE02A4EB042F7
:1017200002D102261AE040E0284EB04201D1032641
:1017300014E0274EB04201D104260FE0254EB042FE
:1017400001D105260AE0244EB04201D1062605E06B
:10175000224EB04201D1072600E00826BE402643B3
:10176000CCF808681E4E34684F689C43FF0300D5D0
:101770001C4334601A4C241D26684F689E43BF03E7
:1017800000D51E432660164E083634684F689C43C9
:10179000FF0200D51C433460114E0C3634684F688C
:1017A0009C43BF0200D51C433460521C102AFFF436
:1017B00045AFBDE8F88F00004438024000300140DA
:1017C000000002400004024000080240000C0240F9
:1017D000001002400014024000180240001C0240A9
:1017E000003C0140426931EA020200D109048161F2
:1017F00070470AB1816170470904FBE701488068BE
:1018000070470000040000200248816802781144FB
:1018100081607047040000200B4810B5016841F456
:1018200000710160016841F480610160016841F468
:1018300080710160032000F06FF8002000F006F8CE
:1018400000F024F8002010BD003C024070B50D4DA2
:1018500004464FF47A712878B1FBF0F00A49096820
:10186000B1FBF0F000F002FB48B9102C07D20022C7
:101870002146501E00F030F800206C6070BD012041
:1018800070BD000004000020100000200A4808B5C8
:10189000016841F480410160006800F480400090DC
:1018A0000548001F016841F080510160006800F0A8
:1018B0008050009008BD000044380240002809DB39
:1018C00000F01F02012191404009800000F1E0205A
:1018D000C0F8001170470000F0B40E4B1B680C46B6
:1018E000C3F30223C3F10705042D00D90425191DF4
:1018F000072901D2002300E0DB1E012606FA05F1CC
:10190000491E214099409E40761E16403143F0BC4E
:1019100001F06DBD0CED00E0064900F0070208681B
:101920004FF6FF03184040EA0220034A10430860C4
:10193000704700000CED00E00000FA052DE9F047CB
:101940000E46050065D0DFF81481D8F80000F7B224
:1019500000F00F00B04207D288F80070D8F80000FD
:1019600000F00F00B04254D128683D4C810712D5D9
:10197000400703D5206840F4E05020602878000735
:1019800003D5206840F4604020602068A96820F0FA
:10199000F000084320602878C0072DD030496868DF
:1019A0000839012812D0022813D0032811D0096861
:1019B000890700292DDA216821F003010143216004
:1019C000FFF71CFF814641F2883A0EE0096889035F
:1019D000EFE709688901ECE7FFF710FFA0EB0901C9
:1019E000514502D90320BDE8F0872068696800F0FE
:1019F0000C00B0EB810FEFD1D8F80010404601F099
:101A00000F01B14207D90770006800F00F00B04223
:101A100001D00120E7E72878400705D52068E9686C
:101A200020F4E050084320602878000706D520689D
:101A3000296920F4604040EAC100206000F038F8D5
:101A40002168084AC1F30311515CC8400649086087
:101A500006480068FFF7FAFE0020C4E7003C024099
:101A6000083802404E4B00081000002008000020FB
:101A70000448054900680968044AC1F38221515CA1
:101A8000C840704710000020083802405E4B000834
:101A90000448054900680968044AC1F34231515CB1
:101AA000C840704710000020083802405E4B000814
:101AB000154810B5006810F00C02144813D04110FE
:101AC000042A0FD0082A0ED10F4C241F2268236845
:101AD00002F03F025B0207D52068C0F38810A0FB2C
:101AE000010106E0084610BD2168C1F38811A1FB81
:101AF00000010023FEF764FB2168C1F30141491C8A
:101B00004900B0FBF1F010BD083802400024F40099
:101B10002DE9F84F04006ED02078DFF83C93C00721
:101B2000A9F104054AD009F104000168C1F381015B
:101B3000012908D00068C0F3810002280AD1D9F831
:101B40000000400206D52868800337D56068002869
:101B5000E1D033E06068B0F5803F10D0B0F5A02F41
:101B6000286810D020F480302860286820F4802075
:101B700028606068A8B1FFF741FE06460DE02868BE
:101B800040F48030F4E740F480202860F7E700BF9D
:101B9000FFF734FE801B642873D828688003F7D5CC
:101BA0000CE0FFF72BFE064605E000BFFFF726FE20
:101BB000801B6428F0D828688003F7D42078DFF8E9
:101BC0009C8280074FF0000A3ED5A348001D0168A3
:101BD00011F00C0F08D00068C0F3810002280BD16F
:101BE000D9F80000400207D42868800716D5E068BD
:101BF000012800D112E02BE1E068B8B10120C8F85B
:101C00000000FFF7FBFD064605E000BFFFF7F6FD0D
:101C1000801B0228C0D828688007F7D5286821696A
:101C200020F0F80040EAC10028600DE0C8F800A0EC
:101C3000FFF7E4FD064604E0FFF7E0FD801B022805
:101C40001FD828688007F7D42078000722D5824E55
:101C500083486169703671B101210160FFF7CEFDE3
:101C6000074604E0FFF7CAFDC01B022809D8306808
:101C70008007F7D50EE0C0F800A0FFF7BFFD0746CC
:101C800005E082E0FFF7BAFDC01B02287DD830686E
:101C90008007F7D42078400768D5DFF8BCB100276B
:101CA0000BF13C0BDBF80000C0000BD4DBF800109C
:101CB00041F08051CBF80010DBF80000012700F064
:101CC00080500090674E3068C00510D4306840F4F2
:101CD00080703060FFF792FD009005E0FFF78EFD09
:101CE0000099401A022850D83068C005F6D55A4EDF
:101CF000A0686C3601280FD00528306810D020F07D
:101D000001003060306820F004003060A068B8B195
:101D1000FFF774FD00900FE0306840F00100F4E739
:101D200040F004003060F7E7FFF768FD0099411AC2
:101D300041F28830814266D830688007F4D50EE0E1
:101D4000FFF75CFD009007E0FFF758FD0099411A8E
:101D500041F28830814256D830688007F4D42FB1E0
:101D6000DBF8001021F08051CBF80010A069C8B357
:101D70003949091D0968C1F3810102294AD00228A5
:101D8000504607D0C8F8600000E03CE0FFF736FDA1
:101D900004463BE04746C8F86000FFF72FFD0646C3
:101DA00005E000BFFFF72AFD801B02282BD828681A
:101DB0008001F7D4D4E907010843A16A2A4A4908F7
:101DC00002EB0141626A41EA8211084394F82C1047
:101DD00040EA0161C9F8001001203866FFF70EFDE6
:101DE000044606E036E000BFFFF708FD001B0228AE
:101DF00009D828688001F7D52CE000BFFFF7FEFC6A
:101E0000001B022802D90320BDE8F88F2868800152
:101E1000F4D41FE00128F7D0D9F80000E26900F4FB
:101E20008001914214D1226A00F03F0191420FD10A
:101E300047F6C071626A0140914209D1A26A00F47A
:101E40004031914204D1E16A00F07060884201D0D3
:101E50000120D9E70020D7E70438024000004742BC
:101E6000800E4742007000400000FFFF10B5401E8A
:101E7000B0F1807F01D3012010BD4FF0E0246061FC
:101E80000F21601701F0B3FA0020A0610720206144
:101E9000002010BD7047704770B590F83C20012AB3
:101EA00032D0012480F83C40022280F83D200368B3
:101EB0005A689D6822F070060A6832435A60134BD4
:101EC00002689A4214D0B2F1804F11D0104B9A425E
:101ED0000ED0104B9A420BD00F4B9A4208D00F4BAA
:101EE0009A4205D00E4B9A4202D00E4B9A4204D130
:101EF000496825F080031943916080F83D40002136
:101F000080F83C10084670BD022070BD0000014002
:101F10000004004000080040000C004000040140A4
:101F2000004001400018004010B5040003D094F8B0
:101F30003D0010B107E0012010BD002084F83C00F6
:101F4000204600F00DF8022084F83D00211D206895
:101F500001F01CF8012084F83D00002010BD0000B5
:101F600008B500680B49884212D10B48016841F05E
:101F7000020101600068002200F00200009011469A
:101F80001D20FFF7A9FCBDE808401D20FFF796BC07
:101F900008BD000000040040403802400168CA68E3
:101FA00042F00102CA600068816801F00701062959
:101FB00003D0016841F0010101600020704770B555
:101FC000044690F83C00012817D0012584F83C50C5
:101FD000022084F83D002068826822F0770222F413
:101FE0007F4282600868502830D00DDC20284DD018
:101FF00005DC98B310283BD148E0022070BD3028A2
:1020000044D0402834D139E0602828D0702806D048
:10201000B0F5805F2CD0B0F5005F29D10AE0CB6825
:10202000D1E90121206801F015F82068816841F0AC
:10203000770109E0CB68D1E90121206801F00AF8B5
:102040002068816841F48041816011E0CA68496874
:10205000206801F011F85021206807E016E0CA68F6
:102060004968206801F019F86021206800F0FCFF41
:1020700084F83D50002084F83C0070BDCA6849686F
:10208000206800F0F9FF40212068EFE72268014650
:102090001046EBE7704770B50446006801694FF0E1
:1020A0000005C943890715D4C168C943890711D4FC
:1020B000E91E0161012020772068806980072046A1
:1020C00002D0FFF7E7FF04E000F098F8204600F0A8
:1020D00096F8257720680169C943490717D4C16874
:1020E000C943490713D46FF004010161022020772E
:1020F0002068806910F4407F204602D0FFF7CAFFB5
:1021000004E000F07BF8204600F079F8257720689D
:102110000169C943090716D4C168C943090712D424
:102120006FF008010161042020772068C0698007F2
:10213000204602D0FFF7AEFF04E000F05FF8204633
:1021400000F05DF8257720680169C943C90617D4F6
:10215000C168C943C90613D46FF01001016108209A
:1021600020772068C06910F4407F204602D0FFF736
:1021700091FF04E000F042F8204600F040F8257797
:1021800020680169C943C90708D1C168C943C907A3
:1021900004D1891E0161204600F032F820680169EF
:1021A000C943090609D4C168C943090605D46FF0BB
:1021B000800101612046FFF76DFE20680169C94377
:1021C000490609D4C168C943490605D46FF04001E6
:1021D0000161204600F015F820680169C9438906AD
:1021E0000BD4C168C943890607D46FF0200101618F
:1021F0002046BDE87040FFF74EBE70BD7047704787
:10220000704770477047000070B502680446106858
:10221000D168536910F00F0F53D003F0010501F49A
:1022200090762E435FD0C20705D0CA0503D5E26B76
:1022300042F00102E263420705D5DA0703D0E26B00
:1022400042F00202E263820705D5DA0703D0E26BAF
:1022500042F00402E263020707D501F020022A439C
:1022600003D0E26B42F00802E263E26B002A34D052
:10227000800604D5880602D5204600F087FF206836
:102280004069E16BC0F3801001F008010143204672
:1022900024D000F064FF2068416949061AD54169DD
:1022A00021F040014161606BA0B11B490165606B89
:1022B000FFF737F8002810D0606B016DBDE8704063
:1022C000084783060FD58B060DD52046BDE8704024
:1022D00000F05CBF2046FFF795FF70BDFFF792FF4F
:1022E0000020E06370BD030606D50B0604D520462A
:1022F000BDE8704001F018B84006F3D54806F1D5A6
:10230000D168204621F04001D160202184F83910A5
:1023100000F005F970BD0000BF30000870B5040082
:1023200004D094F83900002510B106E0012070BDFA
:1023300084F83850204600F023F8242084F839002F
:102340002068C16821F40051C160204600F06AFF96
:102350002068016921F4904101612068416921F000
:102360002A0141612068C16841F40051C160E56300
:10237000202084F8390084F83A00002070BD000065
:102380002DE9F04186B0064614216846FDF750FF5E
:102390002F493068884258D12E480024016841F402
:1023A00000310160006800F40030059029481038C1
:1023B000016841F0010101600068694600F0010018
:1023C00005900C2000900220CDE901040320039029
:1023D000072004902048FFF729F9214D1F484FF0AE
:1023E00000672860C5E901744FF48068C5E90348B7
:1023F0006C61AC61EC612C6228466C62FFF774F88A
:1024000008B1FEF7D8FB7563AE63154D1348603510
:102410001830E5E802074020A5E81101104845F80A
:1024200014496030AC61EC612C626C62FFF75CF8BF
:1024300008B1FEF7C0FB3563002211462620AE63CB
:10244000FFF74AFA2620FFF739FA06B0BDE8F08117
:1024500000440040403802400000024088600240D2
:10246000FC000020F8B5044690F83A0020283CD142
:10247000C1B3BAB394F83800012836D0012084F8EB
:102480003800A162A2850025E563222084F83A0085
:10249000636B1748D863636B16481864636B164800
:1024A000D864606B134605650846666B2168024672
:1024B0003046091DFFF782F82068016841680091E5
:1024C00084F83850C16841F48071C1602068416966
:1024D00041F0010141612068416941F040014161E1
:1024E0000020F8BDFFE70120FBE70220F9E700002C
:1024F0001931000855310008CF3000080068044940
:10250000884204D1142203490348FFF7ABBF704748
:1025100000440040A8000020BC0000207047704725
:10252000FEE70000104810B50E490160032141602C
:1025300000214FF4C0228160C0E903124FF4A002D1
:1025400042610176417681760122C2760177417738
:10255000FEF7A1FD002803D0BDE81040FEF72BBB1D
:1025600010BD00000064004018000020104810B5A5
:102570000E4901600321416000214FF4C0228160B7
:10258000C0E903124FF4A0024261017641768176E0
:102590000122C27601774177FEF77DFD002803D046
:1025A000BDE81040FEF707BB10BD0000006800400A
:1025B000400000200D4808B5016841F40011016099
:1025C0000068002200F40010009011461020FFF770
:1025D00083F91020FFF772F9002211461120FFF74E
:1025E0007BF9BDE808401120FFF768B93038024098
:1025F00030B587B014216846FDF71AFE194800244B
:10260000016841F080010160016801F080010591DD
:10261000016841F004010160016801F004010591C5
:10262000016841F001010160016801F001010591BB
:10263000016841F00201016000680B4D00F00200EA
:102640000590012203212846FFF7D3F803200090CC
:102650000120CDE90104694628460394FEF7E6FF10
:1026600007B030BD303802400008024010B586B0D7
:10267000002417480094019402940394049413498D
:10268000059401605321C0E9011440F2E731C0E92B
:10269000031480218161FFF747FC08B1FEF78BFA34
:1026A0004FF48050009069460948FFF788FC08B154
:1026B000FEF781FA049404A905480594FFF7ECFBA2
:1026C000002801D0FEF777FA06B010BD00040040E4
:1026D000680000200C4810B50A4901604FF4E13150
:1026E0004160002181600C22C160C0E90412816157
:1026F000C161FFF713FE002803D0BDE81040FEF7CC
:102700005ABA10BD00440040BC000020FEE70000A3
:1027100010B51C4B42681A441B4B9A4201D300224D
:10272000426010EE104A194B9FED191ADFED191A8D
:10273000194A9C4213DA10EE104A94420FD200BF9D
:1027400080EE012A90ED011AB8EEC11A22EE210A9C
:1027500031EE000A80ED1D0AC1ED0E0A10BD10EE2B
:10276000104A9FED0E2AF1EE600A9C4202DB30EE29
:10277000420AE5E710EE103A9342EFD330EE020A38
:10278000DEE7000020A1070041420F000000B44234
:102790000000B443000018480000B4C200003443F5
:1027A000A2F50072013A06D0012A08D0022A08D008
:1027B000032A09D17C30002806D000F005BBF83090
:1027C000F9E700F5BA70F6E77047A2F50072013A32
:1027D0000BD0012A0CD0022A0DD0032A0ED100F50D
:1027E0000C7000280AD000F065BB00F5F870F8E71F
:1027F00000F51C70F5E700F52C70F2E7704700005B
:1028000010B504462DED068BD0F8F402FDF7A3FEBB
:1028100041EC100B9FED509BB0EE491AF0EE691A97
:1028200001F006FAB0EE408AF0EE608AD4F8F002C9
:10283000FDF791FE41EC100BB0EE491AF0EE691A6B
:1028400001F0F6F953EC182B51EC100BFDF7FBFCE3
:1028500041EC100B02F008F851EC100BFDF78CFE68
:1028600008EE100A9FED3E0B00F0D2FD53EC192B41
:1028700051EC100BFDF78EFD41EC190BD4F8F4026E
:10288000FDF769FE41EC1A0BD4F8F002FDF763FE88
:1028900041EC100BB0EE4A1AF0EE6A1A01F0D0F8D3
:1028A00053EC192B51EC100BFDF7E6FD9FED2E1BA1
:1028B00053EC112BFDF76EFDFDF75EFE00EE100AE6
:1028C000DFED2B0A84EDBE0AB5EEC00AF1EE10FA78
:1028D00003D230EE200A84EDBE0A94ED021A254997
:1028E00070EE412A12EE900A884202D972EEA02AB6
:1028F00006E012EE900A2049884201DD72EEE02ADD
:10290000F0EE480A04F5F8712046B0EE620AFFF7CF
:10291000FFFEF0EE480AB0EE620A04F51C7104F105
:10292000F800FFF7F5FEF0EE480AB0EE620A04F593
:102930002C7104F5BA70FFF7EBFEF0EE480ABDEC1F
:10294000068B04F50C7104F17C00B0EE620ABDE860
:102950001040FFF7DDBE0000000000000000004056
:102960000000000000000000000000000080664041
:102970000000B443000034C300003443704700003B
:10298000C0ED051A80ED0B3A80ED062AC0ED082A4D
:1029900080EC030A9FED060A80ED030A80ED040A2D
:1029A00080ED070A80ED090A80ED0A0A70470000F1
:1029B0000000000090ED010AD0ED1D0AB8EEC00A3B
:1029C00070EEC00AC0ED080A90ED0A0AF4EEC00AE3
:1029D000F1EE10FA01DD80ED080AD0ED080AB1EE43
:1029E000400AF4EEC00AF1EE10FA01D280ED080AB6
:1029F000D0ED080A9FED830AF5EEC00AF1EE10FA59
:102A000008DD90ED0B1AF4EEC10AF1EE10FA01D2D6
:102A100080ED080AD0ED080AF5EEC00AF1EE10FAD2
:102A200008D290ED0B1AF4EEC10AF1EE10FA01DDB6
:102A300080ED080A90ED0C1AD0ED080A71EE201A0C
:102A4000C0ED0C1A90ED0D1AF4EEC11AF1EE10FA69
:102A500001DD80ED0C1AD0ED0C1AB1EE411AF4EE46
:102A6000C11AF1EE10FA01D280ED0C1A90ED091A9C
:102A700030EEC11A80ED0E1AC0ED090AD0ED051A2C
:102A800090ED0C2A61EEA00AD0ED061A41EE820A02
:102A9000D0ED071A41EE810AC0ED0F0A90ED101A31
:102AA000F4EEC10AF1EE10FA01DD80ED0F1AD0ED5F
:102AB0000F1AF1EE410AF4EEE01AF1EE10FA01D22B
:102AC000C0ED0F0AB0F9002090ED0F1A00EE902A29
:102AD000F8EEE00A31EE601A80ED141AD0ED160A15
:102AE000B4EEE01AF1EE10FA01DDC0ED140A90ED3B
:102AF000141AF1EE600AB4EEE01AF1EE10FA02D305
:102B0000F0EE410A01E0C0ED140AF5EEC00AF1EE64
:102B100010FA08DD90ED171AF4EEC10AF1EE10FA82
:102B200001D280ED140AD0ED140AF5EEC00AF1EEE0
:102B300010FA08D290ED171AF4EEC10AF1EE10FA6D
:102B400001DD80ED140AD0ED180A90ED140A30EE84
:102B5000801A80ED181AD0ED190AB4EEE01AF1EEE1
:102B600010FA01DDC0ED180A90ED181AF1EE600AB6
:102B7000B4EEE01AF1EE10FA01D2C0ED180AD0ED71
:102B8000150A70EE600AC0ED1A0A80ED150A90ED84
:102B9000111AD0ED181A21EE000A90ED121A01EE6A
:102BA000210A90ED131A01EE200A80ED1B0AD0EDE8
:102BB0001C0AB4EEE00AF1EE10FA01DDC0ED1B0ACA
:102BC00090ED1B1AB1EE600AB4EEC01AF1EE10FAE5
:102BD00002D3B0EE410A01E080ED1B0ABDEEC00A4F
:102BE00010F8783F10EE102A121201F8132010EDA1
:102BF000030A0078BDEEC00A01EB400010EE102A77
:102C0000427070470000000070B5044604F53F7143
:102C10007C300D46FFF7CEFE04F5BA702946FFF76B
:102C2000C9FE20462946FFF7C5FE04F1F8002946F3
:102C3000FFF7C0FE29460F4800F025F904F5417161
:102C400004F50C700D4600F019F804F52C702946B7
:102C500000F014F804F5F870294600F00FF804F5B8
:102C60001C70294600F00AF82946BDE87040024869
:102C700000F009B94000002018000020B0F9002041
:102C8000D0ED0E0A00EE102AB8EEC00A70EEC00AAF
:102C9000C0ED050A90ED070AF4EEC00AF1EE10FA55
:102CA00001DD80ED050AD0ED050AB1EE400AF4EE33
:102CB000C00AF1EE10FA01D280ED050AD0ED050A46
:102CC0009FED3F0AF5EEC00AF1EE10FA08DD90ED37
:102CD000081AF4EEC10AF1EE10FA01D280ED050AED
:102CE000D0ED050AF5EEC00AF1EE10FA08D290ED2B
:102CF000081AF4EEC10AF1EE10FA01DD80ED050AC2
:102D0000D0ED090A90ED050A30EE801A80ED091A1F
:102D1000D0ED0A0AB4EEE01AF1EE10FA01DDC0EDD2
:102D2000090A90ED091AF1EE600AB4EEE01AF1EE2C
:102D300010FA01D2C0ED090AD0ED060A70EE600A61
:102D4000C0ED0B0A80ED060A90ED021AD0ED091ACB
:102D500021EE000A90ED031A01EE210A90ED041A0B
:102D600001EE200A80ED0C0AD0ED0D0AB4EEE00A67
:102D7000F1EE10FA01DDC0ED0C0A90ED0C1AB1EE87
:102D8000600AB4EEC01AF1EE10FA02D3B0EE410AB6
:102D900001E080ED0C0ABDEEC00A10F83C3F10EED9
:102DA000102A121201F8132010ED030A0078BDEE6C
:102DB000C00A01EB400010EE102A4270704700007C
:102DC000000000007047000010B504462DED048B94
:102DD000088842BA6280488840BA00B220808B8856
:102DE0005BBAE3818979217388B1208A101A01B214
:102DF000606811F5805F0844606002DA00F50050F9
:102E000004E0B1F5805F02DDA0F500506060228231
:102E100060689FED188B9FED199B4FF418310028C7
:102E20000EDB90FBF1F201FB1200FDF794FB53EC7B
:102E3000182BFDF7AFFA53EC192BFDF71DFB12E031
:102E4000404290FBF1F201FB1200FDF784FB53ECD2
:102E5000182BFDF79FFA53EC192BFDF70DFB53ECE4
:102E6000182BFDF794FAFDF787FBA060BDEC048BEF
:102E700010BD00000000000000807640000000004F
:102E800000000341704700B587B04FF40072009214
:102E9000002308220492039302938DF814300A460B
:102EA00006AB6946FDF79AFE002801D0FDF783FEC8
:102EB00007B000BD4A8852BA02808A8852BA82801E
:102EC000897981707047FEF79FBC000030B593B0E0
:102ED00030216846FDF7ACF914210CA8FDF7A8F9DC
:102EE00019480025016841F080510160006800F038
:102EF000805011901548016841F4804101600068DC
:102F0000022400F480401190012000900004019000
:102F10008001CDE9064008AA0420A82182E8130018
:102F20000B906846FEF7F4FD0CA90F2081E83100F4
:102F30004FF4A0500F90E002109005210CA8FEF76E
:102F4000FDFC13B030BD000040380240007000406E
:102F50000548016841F47001016003494FF00060C9
:102F6000803908607047000088ED00E010B5054822
:102F7000FFF791F80448FFF743FCBDE81040024812
:102F8000FFF742BE68000020BC010020F0B50268D7
:102F9000254C264D264E274F274B4FF0804CA04204
:102FA00009D0604507D0A84205D0B04203D0B8424E
:102FB00001D0984204D122F0700E4A6842EA0E0213
:102FC000A0421BD0604519D0A84217D0B04215D0FE
:102FD000B84213D0984211D0184DA8420ED0184DC7
:102FE000A8420BD0174DA84208D0174DA84205D0D3
:102FF000164DA84202D0164DA84203D122F44075C6
:10300000CA682A434D6922F080022A4302608A6816
:10301000C2620A688262A04201D0984201D1096965
:10302000016301214161F0BD000001400004004046
:1030300000080040000C0040000401400040014036
:10304000004401400048014000180040001C0040BE
:103050000020004010B5846842EA032224F47F4433
:103060000A432243826010BD826822F070020A4344
:1030700042F007018160704710B5036A046A24F0CA
:1030800001040462846924F0F00444EA021423F089
:103090000A020A438461026210BD10B5036A23F07C
:1030A000100303628369046A23F4704343EA023223
:1030B00024F0A00343EA01118261016210BD10B542
:1030C000806B0021C185C184FFF79CF810BD70B5ED
:1030D000846B2068406994F83910C0F3C010002553
:1030E000212904D118B1E584204600F046F8206873
:1030F000406994F83A10C0F38010222904D118B125
:10310000E585204600F02BF8E06B40F01000E0630E
:103110002046FFF777F870BD10B50146806B09684F
:103120000968C90513D40021C1850168CA6822F461
:103130008072CA6001684A6922F001024A6101682E
:103140004A6922F040024A61202180F83A10FFF7D4
:10315000D5F910BD10B5806BFFF7E0F910BD01681F
:10316000CA6822F49072CA6001684A6922F00102BA
:103170004A61202180F83A1070470168CA6822F03D
:10318000C002CA60202180F83910704710B590F84D
:103190003A10222901D0022010BD8168B1F5805F6C
:1031A00011D00169002901681FD0496801F07F032F
:1031B000816A4A1C82620B70C18D491E0904090C88
:1031C000C18518D02BE00269816A002A0268526822
:1031D00005D0D2B20A80816A491C8162ECE7C2F351
:1031E00008020A80816A891CF7E74A68816A4B1CD9
:1031F00083620A70E0E70168CA6822F02002CA60B0
:103200000168CA6822F48072CA6001684A6922F0C3
:1032100001024A61202180F83A10FFF76FF900207F
:1032200010BD00002DE9F041044600680169E26824
:1032300021F44051114301612169A068E26908430A
:103240006169114322680843D16849F20C639943CC
:103250000143D16020684169A26921F440711143A2
:103260004161E269192664253227B2F5004F2C48E6
:103270002C4922684FF000080CD08A4201D08242CB
:1032800030D1FEF705FC01466068830F8200A1FB88
:1032900006012EE08A4201D0824202D1FEF7F8FBFD
:1032A00001E0FEF7E5FB61684A18A0FB060148EB68
:1032B0000803FCF785FFB0FBF5F213016FF018016E
:1032C0004A4300EB820007EBC000B0FBF5F000F0D2
:1032D000F80103EB410100F0070008442168886011
:1032E000BDE8F081FEF7C4FB61688B0F8A00A0FB8C
:1032F0000601FCF765FF0146B0FBF5F06FF0180220
:10330000424301EB820107EB0111B1FBF5F101F042
:10331000F00202EB001001F00F010844DEE70000AC
:10332000001401400010014090F83910212901D00B
:10333000022070478168B1F5805F016A0BD04A1C9A
:103340000262026809785160C18C491E0904090CA7
:10335000C1840ED017E009880268C1F308015160EA
:1033600001690029016A02D0491C0162ECE7891C4D
:10337000FBE70168CA6822F08002CA600068C16881
:1033800041F04001C16000207047000008B50948C5
:10339000FEF73AFF074800680168C943C90608D428
:1033A000016840680090BDE8084003210248FEF72C
:1033B00019BA08BDBC00002000080240FEE703B4B3
:1033C00001984100009850EAC12018BF04204A0D1E
:1033D00018BF40F0010040F2FF72B2EB515F08BF2E
:1033E00040F00200012808BF052002B0704709071D
:1033F000090E002804DB00F1E02080F8001470477B
:1034000000F00F0000F1E02080F8141D704700006C
:1034100010B5B94A2DED020B2DED0C8B82B00F9932
:1034200021F000409FEDB6CB904232DBA0F140533B
:103430000E9AA3F17F631A439FEDB38B14D0B44966
:10344000884202DC1BD10E98C8B19DED0E0B53ECE7
:10345000102B51EC100BFCF7F6FE41EC100B02B0F8
:10346000BDEC0C8B02B010BD0029C7BFB0EE480AFE
:10347000F0EE680AB0EE4C0AF0EE6C0AEFE70120BD
:1034800001F0CEFA53EC182B51EC180BFCF7F4FFBB
:103490005EE0A04A9FEDA09B9FEDA1AB90425ADA5F
:1034A000A1499FEDA3BB8142A4BFB0EE4B0AF0EE51
:1034B0006B0AD4DA9DED0E0B53EC102B51EC100B74
:1034C000FCF768FF41EC180B9B480621B0EE480A58
:1034D000F0EE680A784401F004FA53EC182B51EC32
:1034E000100BFCF757FF41EC1C0B9448B0EE480A58
:1034F000F0EE680A0421784401F0F3F953EC182B3C
:1035000051EC100BFCF746FF53EC192BFCF79BFE1C
:1035100041EC100B51EC1C0B53EC102BFCF7ACFFE7
:1035200041EC100B53EC102B9DED0E0B51EC100BDE
:10353000FCF730FF53EC1A2BFCF729FF9DED0E1B17
:1035400053EC112BFCF723FF53EC1B2BFCF71FFF55
:1035500041EC100B83E79FED7A8B9FED7BBB9DEDDC
:103560000E0B002953EC192B51EC100B52DAFCF71F
:103570006AFE53EC182BFCF70DFF41EC180B744856
:103580000621B0EE480AF0EE680A784401F0A9F985
:1035900053EC182B51EC100BFCF7FCFE41EC1D0B0F
:1035A0006C48B0EE480AF0EE680A0421784401F055
:1035B00098F953EC182B51EC100BFCF7EBFE53EC85
:1035C000192BFCF740FE41EC190B51EC180B01F0E4
:1035D00083FA41EC180B53EC192B51EC1D0BFCF743
:1035E0004BFF53EC182BFCF7D5FE53EC1A2BFCF7D2
:1035F000CBFE41EC100B51EC180B53EC102BFCF7ED
:1036000022FE53EC1B2BFCF7C5FE53EC1C2BFCF7E6
:10361000BEFE9DE7FCF7BBFE53EC182BFCF7BAFE91
:1036200041EC180B01F058FA41EC1A0B00208DED1B
:1036300000AB00909DED000B51EC1A0B53EC102BDE
:10364000FCF701FE9DED000B41EC1C0B53EC102B25
:1036500051EC100BFCF79EFE53EC182BFCF797FE79
:1036600053EC1C2BFCF708FF41EC1C0B3A48B0EE66
:10367000480AF0EE680A0621784401F032F953EC6A
:10368000182B51EC100BFCF785FE41EC1D0B334859
:10369000B0EE480AF0EE680A0421784401F021F9FE
:1036A00053EC182B51EC100BFCF774FE53EC192B58
:1036B000FCF7C9FD41EC100B51EC1D0B53EC102B2A
:1036C000FCF7DAFE53EC1A2BFCF764FE53EC1C2BD0
:1036D000FCF7B9FD41EC100B53EC102B9DED000BEA
:1036E00051EC100BFCF7AFFD53EC1B2BFCF752FE1B
:1036F0002EE70000000000000000F03F0000000086
:10370000182D4454FB210940000000000000000077
:103710000000F07F0000E03F000000000000F03FEC
:10372000075C143326A6913C0000603C00000000BA
:10373000182D4454FB21F93F901600009E160000FE
:10374000000000000000E03F00000000000000401A
:10375000DA150000E8150000EC140000FA1400006F
:1037600070B59D482DED020B2DED068B079D25F0C4
:103770000044A0421DDC9948844202DC0FD1069827
:1037800068B19DED060B53EC102B51EC100BFCF7C0
:103790005AFDBDEC068B02B041EC100B70BD002D44
:1037A000CCBF9FED8F0B9FED900BBDEC068B02B055
:1037B00070BD8F48A04215DD8E48A042D8BF4FF0A3
:1037C000FF3458DD9DED060B51EC100BFFF7F7FDB4
:1037D000042808BF01F004F99DED060BBDEC068B33
:1037E00002B070BD9DED060B51EC100B01F026F9F7
:1037F000CDE9060180489FED828BA0423CDD8248E6
:10380000A0421FDD00249FED82AB9DED060B53EC23
:103810001A2B51EC100BFCF716FD9DED060B41EC3D
:10382000190B53EC1A2B51EC100BFCF7B3FD53ECB6
:10383000182BFCF7A9FD53EC192BFCF71DFECDE965
:10384000060149E09DED060B012453EC182B51ECC9
:10385000100BFCF7F8FC9DED060B41EC190B53EC3B
:10386000182B51EC100BFCF78FFD53EC192BFCF7C8
:1038700003FECDE906012FE06748A0421FDD0224C8
:103880009FED679B9DED060B53EC192B51EC100B34
:10389000FCF780FD53EC182BFCF7D5FC9DED060BD7
:1038A00041EC180B53EC192B51EC100BFCF76CFD91
:1038B00053EC182BFCF7E0FDCDE906010CE09DED83
:1038C000060B032453EC102B9FED570B51EC100B00
:1038D000FCF7D2FDCDE906019DED060B53EC102B54
:1038E00051EC100BFCF756FD41EC180B53EC182B68
:1038F000FCF750FD41EC190B4D480621B0EE490A8A
:10390000F0EE690A784400F0ECFF53EC182B51EC10
:10391000100BFCF73FFD41EC180B4648B0EE490A8E
:10392000F0EE690A0521784400F0DBFF53EC192B17
:1039300051EC100BFCF72EFD41EC100B51EC180B69
:1039400053EC102B002C0EDAFCF77DFC9DED061BD2
:1039500053EC112BFCF71EFD9DED061B53EC112BB8
:10396000FCF715FD35E0FCF76EFC9DED061B53ECF6
:10397000112BFCF70FFD41EC100B2F48784400EBA6
:10398000C40090ED001B51EC100B53EC112BFCF715
:10399000FBFC9DED061B53EC112BFCF7F5FC41ECF9
:1039A000100B2648784400EBC40090ED001B51EC4E
:1039B000100B53EC112BFCF7EAFC41EC100B002D23
:1039C000A2BFBDEC068B02B070BD51EC100B81F0B4
:1039D000004141EC100B01E7000010440000F07FB3
:1039E000182D4454FB21F93F182D4454FB21F9BFF5
:1039F0000000DC3F0000203E0000F33F000000001C
:103A0000000000000000F03F0000E63F0000000062
:103A100000000000000000400080034000000000A3
:103A2000000000000000F83F000000000000F0BFB0
:103A3000A013000056130000E012000098120000CE
:103A400070B56B4E2DED040B2DED028B82B0DDF8C1
:103A50001CC0DDE905235C422CF000411C4341EA17
:103A6000D474049D22F00040B44205D86C422C432B
:103A700040EAD474B44210D99DED060B53EC102BE0
:103A80009DED040B51EC100BFCF7DDFB41EC100B32
:103A900002B0BDEC028B04B070BDACF14054A4F197
:103AA0007F641C430BD0022404EAAC7444EAD27451
:103AB00005439FED518B9FED522B07D010E09DEDFC
:103AC000040B51EC100B00F0B1FF39E0002C14BFD7
:103AD000012C9DED040BDBD0022C34D0032C37D00D
:103AE0000B439FED491B9FED4A0B0AD0B14218D101
:103AF000B04209D121F0804120F08040079105902B
:103B00000FE0002AC4DA10E0434B7B44002C08BFCE
:103B100093ED000BBCD0012C0CD0022C13D0032C45
:103B200016D0B04219D1002AB2DAB0EE410AF0EE56
:103B3000610AADE793ED000B51EC100B81F00041F1
:103B400041EC100BA4E7B0EE480AF0EE680A9FE7DC
:103B5000B0EE420AF0EE620A9AE7401A00153C28DD
:103B6000C8BF8DED000B19DCBCF1000FBEBF10F11A
:103B70003C0F9FED2B0B8DED000B0FDB9DED060B2E
:103B800053EC102B9DED040B51EC100BFCF774FC67
:103B900000F054FF00F04AFFCDE90001002C08BFFF
:103BA0009DED000B3FF474AF012C10D0022C9FED63
:103BB0001E0B53EC102B9DED000B51EC100B0DD098
:103BC000FCF7E2FB53EC182BFCF7DEFBB8E701989F
:103BD00080F0004001909DED000B59E7FCF7D4FB0D
:103BE00053EC182BFCF7D3FBAAE700000000000001
:103BF0000000F07F00000000182D4454FB21094014
:103C0000182D4454FB2109C0182D4454FB21F9BF41
:103C1000182D4454FB21F93FCA1100000000000098
:103C20000000000000000000075C143326A6A13C41
:103C30002DE9F04D2DED040B2DED0E8B94B0DDE94B
:103C40002350259CDDF888A025F0004624F000488C
:103C5000BAF1000F14BF0121002101EB4502FE491A
:103C600053184A1093422AD3002814BF012300237B
:103C700003EB44030B44F9498B4220D358EA00017B
:103C80009FEDF79B6FD0DFF8E0B35D4503D1BAF14C
:103C9000000F05D181E0BAF1000F08BF002100D06C
:103CA000012101EB450111F5001F08D8002814BFC0
:103CB0000121002101EB440111F5001F0AD99DEDFE
:103CC000240B53EC102B9DED220B51EC100BFCF749
:103CD000BAFA40E00027002DBCBFE449884521DA4C
:103CE000E3498845A8BF02271CDAC3451ADCE1492D
:103CF00001EB2851142908DDC1F1340220FA02F148
:103D000001FA02F282420DD108E058B9C1F1140261
:103D100028FA02F101FA02F2424503D101F0010151
:103D2000C1F1020756EA0A019FEDD3AB1CD1002C6A
:103D30001ADA002D18BF022F01D0012F07D0022060
:103D400000F06EFE53EC1A2B51EC190B00E102202F
:103D500000F066FE7AE041EC100B14B0BDEC0E8B67
:103D600004B0BDE8F08D18E09FEDC5BB9FEDC68B9C
:103D7000002874D1BD48804522D105F1804010F55E
:103D8000801008BFBAF1000F07D0B3450ADC002C41
:103D9000A8BF9DED240BE0DA0DE0B0EE490AF0EE8D
:103DA000690ADAE7002C06DA9DED240B51EC100BC2
:103DB00081F00041CFE7B648784490ED000BCCE7A6
:103DC000D84550D1002C4BDA2EB186423DD1BAF104
:103DD000000F45D129E0BAF1000F16D0022000F003
:103DE0001FFE53EC182B51EC180BFCF7D3FACDE95E
:103DF00002019DED220B10EE900A8DED000B61F398
:103E00001E0003909DED020BA7E78DED02BB9DED1B
:103E1000220B1BEE901A10EE900A8DED000B61F351
:103E20001E0003909DED020B97E78DED02AB9DED1B
:103E3000220B1AEE901A10EE900A8DED000B61F332
:103E40001E0003909DED020B87E709DA9DED220B22
:103E500051EC190B53EC102BFCF70EFB7BE71DE02C
:103E60009DED220B79E7864218DAB4F1804F0DD030
:103E7000A4F10050B0F1FF5010D1002D0EDB9DEDEC
:103E8000220B51EC100B00F027FE64E79DED220B96
:103E900053EC102B51EC100B00F0BABC9DED220B33
:103EA00051EC100B00F0CAFDBAF1000FCDE9120180
:103EB00034D19FED790BDEB1A6F1E040B0F17F6027
:103EC0002CD1002D01DD002C0DDA002D01DD002CA0
:103ED0001FDB002D16DA002C14DB012F08BF9FED2D
:103EE000700B3FF43AAFB0EE4B0AF0EE6B0A34E7DA
:103EF000022F18BF002D0CD0012F0AD1002DFFF684
:103F00002CAF06E0002DB8BF002C07DA012F3FF4DC
:103F100024AFB0EE4A0AF0EE6A0A1EE7012000EB79
:103F2000E570049038430CD05F48002580457BDD68
:103F30005E495F48884513DDB0420CDB002C18DB7E
:103F40002CE0012000F06CFD53EC1A2B51EC1A0B05
:103F5000FCF792FAFFE6B34502DC002C09DC1DE019
:103F6000864202DA002C19DA03E05E4529DD002CD6
:103F700014DD022000F054FD53EC182B51EC180B0B
:103F8000FCF708FACDE902011BEE900A8DED00BBAB
:103F900061F31E0003909DED020BDEE6022000F0AF
:103FA0003FFD00F01DFD10EE901A19EE900A8DED08
:103FB000020B8DED009B61F31E0003909DED020B43
:103FC000CBE69DED220B53EC192B51EC100BFCF7BB
:103FD000DBF99FED390BCDE90C0153EC102B9DED76
:103FE0000C0B51EC100BFCF7D5F99FED351B53EC86
:103FF000112BFCF7CCF99DED0C1B53EC112BFCF7AE
:10400000C9F99FED311B53EC112BFCF7C0F99DED65
:104010000C0B41EC1A0B53EC102B51EC100BFCF772
:10402000B9F953EC1A2B00E087E0FCF7B3F99FEDE8
:10403000280B41EC1B0B53EC102B9DED0C0B51ECA2
:10404000100BFCF7A7F99FED240B41EC1A0B53EC76
:10405000102B51EC1B0B43E0FFFF1F00FFFF0F0075
:10406000000000000000F03F0000F03F0000F07F83
:104070000000404301FCFFFF0000000000000000C2
:10408000000000000000F07F000000000000007051
:104090001C0F000000000000000000000000008075
:1040A000000000000000F0FF0000E0410000F043CD
:1040B000FFFFEF3F00000000000000000000D03FC5
:1040C000555555555555D53F000000000000E03FBF
:1040D000000000604715F73FFE822B654715F73F4C
:1040E000FCF758F941EC1B0B9FEDFD0B53EC102B2B
:1040F0009DED0C0B51EC100BFCF74CF953EC1B2B0A
:10410000FCF742F941EC1B0B51EC1A0B53EC1B2B47
:10411000FCF799F80890CDE908519DED080B53EC98
:104120001A2B51EC100BFCF72FF953EC1B2BFCF75F
:104130002EF941EC100B00F0A5B90020B6F5801F58
:104140000EDA9FEDE90B53EC102B9DED120B51ECA9
:10415000100BFCF71FF9CDE912016FF034000E4689
:1041600000EB2650A0F2FF38C6F31300E04940F000
:104170007F6646F040568842D8BF002409DDDD49FD
:104180008142C8BF012404DC0024A6F5801608F192
:104190000108D948784400EBC40A13969AED000B45
:1041A00053EC102B9DED120B51EC100BFCF7ECF8BF
:1041B0009AED000B41EC1B0B53EC102B9DED120BF9
:1041C00051EC100BFCF73FF841EC100B51EC190BC4
:1041D00053EC102BFCF750F941EC1C0B51EC1B0B72
:1041E00053EC1C2BFCF7D6F841EC1A0BC3488DEDB1
:1041F0000AAB78440A9590ED000B4FF0005040EA6E
:10420000660000EB84408DED100B00F5002011904E
:104210009AED000B53EC102B9DED100B51EC100B95
:10422000FCF7B2F89DED121B53EC112BFCF7AFF825
:1042300041EC100B53EC102B9DED0A0B51EC100BC5
:10424000FCF7A8F89DED100B41EC1D0B53EC102B67
:104250009DED0A0B51EC100BFCF79CF853EC1B2B5B
:10426000FCF795F853EC1D2BFCF78EF853EC1C2B48
:10427000FCF790F841EC1C0B53EC1A2B51EC1A0B89
:10428000FCF788F841EC1B0B9D480621B0EE4B0A69
:10429000F0EE6B0A784400F024FBB0EE40DAF0EE6A
:1042A00060DA53EC1B2B51EC1B0BFCF773F853EC4F
:1042B0001D2BFCF76FF89DED0A0B41EC1B0B53EC2B
:1042C0001A2B51EC100BFBF7BEFF53EC1C2BFCF729
:1042D00061F853EC1B2BFBF7B6FF9DED0A0B41EC8D
:1042E0001B0B53EC102B51EC100BFCF753F841EC6B
:1042F0001D0B9FED85EB53EC1E2BFBF7A4FF53EC3E
:104300001B2BFBF7A0FF1090CDE910519DED100B7A
:1043100053EC1E2B51EC100BFCF736F853EC1D2B15
:10432000FCF732F853EC1B2BFCF731F89DED100B2A
:1043300041EC1D0B53EC102B9DED0A0B51EC100BB7
:10434000FCF728F841EC1B0B53EC1A2B51EC1D0B1E
:10435000FCF720F89DED100B41EC1A0B53EC102BE1
:1043600051EC1C0BFCF716F853EC1A2BFBF76BFF08
:1043700041EC1A0B51EC1B0B53EC1A2BFBF763FFB0
:104380000A90CDE90A519DED0A0B53EC1B2B51EC21
:10439000100BFBF7F9FF53EC1A2BFBF7F8FF41EC7E
:1043A0001B0B9FED5B0B53EC102B9DED0A0B51EC9F
:1043B000100BFBF7EFFF41EC1A0B9FED570B51EC85
:1043C0001B0B53EC102BFBF7E5FF41EC1B0B9FED98
:1043D000540B53EC102B9DED0A0B51EC100BFBF71B
:1043E000D9FF53EC1B2BFBF72EFF41EC100B4E4873
:1043F000784400EBC40090ED001B51EC100B53EC23
:10440000112BFBF720FF41EC1B0B4046FCF7A3F8F8
:10441000CDE90C0153EC1B2B51EC1A0BFBF713FFEE
:1044200041EC100B4148784400EBC40451EC100BF4
:1044300094ED001B53EC112BFBF705FF9DED0C1BBE
:1044400053EC112BFBF7FFFE0890CDE908519DEDD1
:104450000C0B53EC102B9DED080B51EC100BFBF7E4
:1044600093FF94ED001B53EC112BFBF78DFF53ECE6
:104470001A2BFBF789FF53EC1B2BFBF788FF41EC52
:10448000100B00BF0498791EB0EE49BAF0EE69BA7D
:10449000084308BF9FED269B9DED241B53EC102B7A
:1044A0008DED001B00959DED240B51EC100BFBF7DF
:1044B00071FF9DED000B41EC1A0B53EC102B9DEDA1
:1044C000240B51EC100BFBF75FFF9DED081B53EC29
:1044D000112BFBF75FFF53EC1A2BFBF7B4FE2BE01D
:1044E00044DF5DF80BAE543E000000000000404386
:1044F0008E9803007AB60B00200A0000E20A000042
:10450000500900000000000000000000000008400A
:10451000000000E009C7EE3FFD033ADC09C7EE3FAB
:10452000F5015B14E02F3EBEE40700009E0700008B
:10453000000000000000F0BF9DED080B41EC1A0BDD
:1045400053EC102B9DED000B51EC100BFBF722FFF1
:10455000CDE90A019DED0A0B51EC1A0B53EC102B1F
:10456000FBF771FECDE902010C46AB498C4231DB11
:10457000611A084318D19DED0A0B53EC102B9DEDE9
:10458000020B51EC100BFBF7FFFE41EC1C0B9FEDF7
:10459000A40B51EC1A0B53EC102BFBF754FE53EC0D
:1045A0001C2BFCF731F92FD2022000F039FA53EC22
:1045B000182B51EC180BFBF7EDFECDE9020119EEBB
:1045C000900A8DED009B61F31E0003909DED020BA0
:1045D000FFF7C3BB944A24F00041914214D393499E
:1045E000214408437FF4DAAC9DED0A0B53EC102B09
:1045F0009DED020B51EC100BFBF7C6FE53EC1A2B92
:10460000FCF702F97FF6CAAC24F000408849894AD9
:10461000002601EB205182422BDA481C4FF4801116
:1046200021FA00F02044844AC0F30A517A44A1F2EE
:10463000FF3192ED000B814A8DED0C0BCA4020EA50
:104640000202C0F3130040F48010C1F1140120FAFB
:1046500001F60D92002CB8BF76429DED0C0B53EC89
:10466000102B9DED0A0B51EC100BFBF78DFECDE9E5
:104670000A019DED0A0B51EC1A0B53EC102BFBF7C2
:10468000E2FD9FED6F0B0C90CDE90C5153EC102B1C
:104690009DED0C0B51EC100BFBF77CFE41EC1C0B61
:1046A0009FED690B53EC102B9DED0C0B51EC100B97
:1046B000FBF770FE9DED0A0B41EC180B53EC102B31
:1046C0009DED0C0B51EC100BFBF75EFE53EC1A2B1F
:1046D000FBF75DFE9FED5E1B53EC112BFBF75AFEC3
:1046E00053EC182BFBF7AFFD41EC180B51EC1C0BF6
:1046F00053EC182BFBF7A7FDCDE902019DED020B52
:1047000053EC1C2B51EC100BFBF73EFE53EC182B1B
:10471000FBF73DFE9DED020B41EC180B53EC102B0B
:1047200051EC100BFBF736FECDE90C014A489DED2C
:104730000C0B0521784400F0D4F89DED0C1B51ECD6
:10474000100B53EC112BFBF725FE9DED021B53ECD8
:10475000112BFBF71CFECDE908019DED020B53EC7C
:10476000182B51EC100BFBF715FE53EC182BFBF735
:104770006AFD9FED3B0B41EC180B53EC102B9DEDAC
:10478000080B51EC100BFBF7FFFD9DED080B41EC06
:104790001A0B53EC102B9DED020B51EC100BFBF799
:1047A000F9FD53EC1A2BFBF767FE53EC182BFBF7C4
:1047B000EBFD9DED021B53EC112BFBF7E5FD53ECDC
:1047C0001B2BFBF7E4FDCDE9020101EB06500115BF
:1047D0000029C8BF039015DC9DED020B324651EC59
:1047E000100BFBF7A8FFFEF7EAFD042808BF00F056
:1047F000F7F832469DED020B51EC100BFBF79BFFD7
:10480000CDE902019DED020B51EC190B53EC102B7D
:10481000FBF7C0FDFFF79FBA0000904000000000CA
:10482000FE822B654715973C00CC904000346F3FCB
:1048300001FCFFFF0000E03FA8060000FFFF0F00A3
:1048400000000000432EE63F396CA80C615C20BEDE
:10485000EF39FAFE422EE63FE004000000000000BF
:10486000000000000000004000B52DED048BB0EE0C
:10487000409AF0EE609A83B051EC190BFBF772FF8F
:1048800041EC180B18EE100A18EE901A8DED008B03
:10489000002818BF0120084320F00040C0F17F60CD
:1048A00000F1E040C00F14D019EE101A19EE900A72
:1048B0008DED009B002918BF0121084320F0004026
:1048C000C0F17F6000F1E040C00F04BF012000F0A4
:1048D000A7F8B0EE480A03B0F0EE680ABDEC048B0E
:1048E00000BD70B504462DED028B4D1E00EBC500DA
:1048F000B0EE408AF0EE608A90ED000B35F00600D5
:1049000017D053EC182B51EC100BFBF743FD41EC87
:10491000100B6D1E04EBC50090ED001B51EC100B4D
:1049200053EC112BFBF78FFC41EC100B35F006001C
:10493000E7D1022D36D0042D1CD0062D1CBFBDECB6
:10494000028B70BD53EC182B51EC100BFBF722FDC2
:1049500094ED0A1B53EC112BFBF775FC53EC182B51
:10496000FBF718FD94ED081B53EC112BFBF76BFCC8
:1049700041EC100B53EC182B51EC100BFBF70AFD1C
:1049800094ED061B53EC112BFBF75DFC53EC182B3D
:10499000FBF700FD94ED040B53EC102BFBF753FCDD
:1049A00041EC100B53EC182B51EC100BFBF7F2FC05
:1049B00094ED021B53EC112BFBF745FC53EC182B29
:1049C000FBF7E8FC94ED001B53EC112BFBF73BFCD1
:1049D000BDEC028B41EC100B70BD0000000000002C
:1049E0009FED050B10B553EC102B51EC100BFBF7A2
:1049F000D1FC41EC100B10BD0000000000000010C5
:104A000002E008C8121F08C1002AFAD17047704797
:104A1000002001E001C1121F002AFBD170470000F5
:104A200001490860704700001400002010B541ECF7
:104A3000100BFEF795FE51EC100B10BD82B0CDE9C6
:104A4000000121F0004001909DED000B02B051ECFF
:104A5000100B7047FCF7E0FEFEF738FAFDF7C8FDD3
:104A6000FDF7A8FDFDF702FEFDF734FEFDF75AFD48
:104A7000FDF77CFD1248FDF791FA12480068C16805
:104A800041F01001C16014220F490E48FDF7EAFC05
:104A90000E48FCF715F80D48FCF710FC02210B48F6
:104AA000FCF78AF80A48FCF70BF80948FCF706FC03
:104AB00002210748FCF780F80648FBF7CBFEFEE72B
:104AC00068000020BC000020A80000201800002082
:104AD00040000020BC01002000B52DED048B83B008
:104AE00041EC190BFBF73EFE41EC180B18EE100AD7
:104AF00018EE901A8DED008B002818BF0120084396
:104B000020F00040C0F17F6000F1E040C00F14D001
:104B100019EE101A19EE900A8DED009B002918BFAE
:104B20000121084320F00040C0F17F6000F1E04027
:104B3000C00F04BF0120FFF773FF51EC180B03B047
:104B4000BDEC048B00BD0006101600061016000018
:104B5000000000000000010203040607080900002D
:104B60000000010203040000555555555555C53F39
:104B70007D6FEB0312D6D4BF5544880E55C1C93F93
:104B80003B8F68B52882A4BF88B20175E0EF493F2A
:104B900009F7FD0DE13D023F4B2D8A1C273A03C06A
:104BA000C88A599CE52A004059018D1B6C06E6BF56
:104BB00082922EB1C5B8B33F000000000000F03F64
:104BC000000000000000F83F0000000000000000AE
:104BD0000000004003B8E23F0000000000000000B9
:104BE00006D0CF43EBFD4C3E033333333333E33F47
:104BF000FFAB6FDBB66DDB3F4D268F515555D53F73
:104C000001411DA96074D13F65DBC9934A86CD3F40
:104C1000EF4E454A287ECA3F3E5555555555C53F2E
:104C200093BDBE166CC166BF2CDE25AF6A56113F20
:104C3000F16BD2C541BDBBBED0A4BE726937663E22
:104C40004FBB610567ACDD3F182D4454FB21E93FA4
:104C50009BF681D20B73EF3F182D4454FB21F93F93
:104C6000E2652F227F2B7A3C075C143326A6813C19
:104C7000BDCBF07A8807703C075C143326A6913CC4
:104C8000C4EB98999999C9BF711623FEC671BCBF30
:104C90006D9A74AFF2B0B3BF9AFDDE522DDEADBF98
:104CA0002F6C6A2C44B4A2BF0D5555555555D53FB0
:104CB000FF8300922449C23F6E204CC5CD45B73FCB
:104CC000513DD0A0660DB13FEB0D76244B7BA93F43
:104CD00011DA22E33AAD903F00000000000000002E
:104CE000004D00080000002018000000004A0008E5
:104CF000184D000818000020C0080000104A0008E5
:104D00000000000001000000100000000000000092
:084D10000024F4000000000083
:040000050800018965
:00000001FF
