:020000040800F2
:10000000980D00209D01000865360008F52F0008B6
:100010001D330008E30B0008994A000800000000A7
:10002000000000000000000000000000B53E0008D5
:10003000F30D000800000000813D0008AD400008FD
:10004000B7010008B7010008B7010008B7010008B0
:10005000B7010008B7010008B7010008B7010008A0
:10006000B7010008B7010008B7010008B701000890
:10007000B7010008B7010008B7010008B701000880
:10008000B90C0008C90C0008B7010008B701000846
:10009000E90B0008B7010008B7010008B701000824
:1000A000B7010008B7010008B7010008B701000850
:1000B000B7010008B9410008B7010008B7010008FE
:1000C000B7010008B7010008B7010008B701000830
:1000D000B7010008AD490008D1490008B701000880
:1000E000B7010008B7010008B7010008B701000810
:1000F000B7010008B7010008B7010008B701000800
:10010000B7010008B7010008B7010008B7010008EF
:10011000B7010008B7010008B7010008B7010008DF
:10012000B7010008B7010008D90C0008B7010008A2
:10013000B70100080000000000000000B70100083F
:10014000190C0008B7010008B7010008B701000842
:10015000B7010008B7010008B7010008B70100089F
:10016000B7010008B7010008B7010008B70100088F
:10017000B7010008B70100080000000000000000FF
:10018000B7010008B7010008DFF80CD000F062FBEF
:1001900000480047D5610008980D002006488047B8
:1001A00006480047FEE7FEE7FEE7FEE7FEE7FEE75C
:1001B000FEE7FEE7FEE7FEE7694100088901000867
:1001C0002DE9F05F0546002092469B46884606468C
:1001D000814640241BE0284641464746224600F01F
:1001E00008FA53465A46C01A914110D31146184690
:1001F000224600F0EFF92D1A67EB01084F46224620
:100200000120002100F0E6F917EB00094E41201E05
:10021000A4F10104DFDC484631462A464346BDE8E6
:10022000F09F40EA01039B0703D009E008C9121FB1
:1002300008C0042AFAD203E011F8013B00F8013BA0
:10024000521EF9D27047D2B201E000F8012B491ECC
:10025000FBD270470022F6E710B513460A46044663
:100260001946FFF7F0FF204610BD2DE9FE4F8046EE
:1002700081EA0300C00F0C46009021F0004123F0FA
:100280000045B8EB0200A94105D240462146904600
:100290001C460B46024623F00040104347D0270D72
:1002A000C7F30A00C3F30A510290401A0190402894
:1002B0006BDAC3F3130040F4801B0098924620B120
:1002C0000023D2EB030A63EB0B0B01985946C0F1F4
:1002D0004002504600F07EF906460D46504659460B
:1002E000019A00F096F910EB08006141002487EABA
:1002F000115284EAE7731A4340D0009A62B3019A1C
:10030000012A4FEA075215DC001B61EB02014FF096
:10031000004202EA0752CDE90042001C41F580117B
:1003200032462B4600F0CBF903B0BDE8F08F4046D3
:100330002146F9E7001B61EB0201001C41F5801327
:1003400000185B412018A2F5001747EB030140EAB3
:10035000D570B6196D4111E06D084FEA360645EAD1
:10036000C0754FEA0752001B61EB0201001C41F50A
:10037000801149084FEA30000019514132462B469E
:1003800003B0BDE8F04F00F08DB9009801224000A5
:100390000023D0EB020263EBE073009821464FEAA2
:1003A000E074B8EB000061EB0401E9E783F000437F
:1003B0005BE781F0004158E72DE9FE4F81EA030435
:1003C00004F0004421F0004100944FF0000B23F0B2
:1003D000004350EA01045ED052EA03045BD0C3F349
:1003E0000A54C1F30A552C44A4F2F3340194A0FB3F
:1003F0000254C1F3130141F48011C3F3130343F416
:10040000801301FB024400FB034E840A970A44EA6E
:10041000815447EA8357A4FB076802958D0A05FBC0
:1004200007854FEA932C04FB0C542705029D4FEAE5
:10043000065847EA1637B5EB08056EEB070C870E32
:10044000920E47EA811742EA8312A7FB0201B6EB3C
:100450000B0164EB00042B0D43EA0C335E1844EBF4
:100460001C50DA465146E7FB0201C5F313044FEA7C
:100470000B3343EA14534FEA0432019C43EA060368
:10048000A4F10C040294009CCDE900B400F017F92B
:1004900003B0BDE8F08F00200146F9E72DE9F04DEB
:1004A00081EA030404F0004B21F0004514464FF0AC
:1004B000000A23F0004150EA050220D054EA01026C
:1004C0001DD0C5F30A570246C5F31303C1F3130049
:1004D000C1F30A5640F4801543F48013A7EB0608D5
:1004E000101BD64608F2FD3873EB050002D308F165
:1004F000010801E092185B41B8F1000F03DA002017
:100500000146BDE8F08D00204FF480110646844678
:100510000EE0171B73EB050705D3121B63EB0503F6
:1005200006434CEA010C49084FEA300092185B413F
:1005300050EA0107EDD152EA030012D082EA04002A
:1005400083EA0501084305D0101BAB4106D2012206
:10055000002306E000224FF0004302E06FF00102AA
:1005600053101AEB06004CEB085110EB0A0041EB5C
:100570000B01BDE8F04D00F095B80EB5C10F80EA53
:10058000E0700844CA07002140F233438DE80E00B2
:100590000A460B4600F093F803B000BD01F000439B
:1005A00030B421F0004150EA010206D00A0DA2F554
:1005B0006072C1F31301002A02DC30BC00207047D6
:1005C000440F44EAC104C100E01830BC00EBC25043
:1005D00000F031B8202A04DB203A00FA02F10020B2
:1005E00070479140C2F1200320FA03F31943904071
:1005F0007047202A04DB203A21FA02F000217047DC
:1006000021FA02F3D040C2F120029140084319467A
:100610007047202A06DBCB17203A41FA02F043EA62
:10062000E07306E041FA02F3D040C2F120029140AB
:100630000843194670470029A8BF7047401C49006D
:1006400008BF20F00100704710B4B0FA80FC00FA37
:100650000CF050EA010404BF10BC704749B1CCF162
:10066000200421FA04F411FA0CF118BF01212143EE
:100670000843A3EB0C01CB1D4FEA00614FEA1020A9
:1006800042BF002010BC704700EBC350104400294B
:10069000A4BF10BC7047401C490008BF20F00100F7
:1006A00010BC704710B5002B08DA401C41F1000166
:1006B00092185B411A4301D120F0010010BD2DE9D1
:1006C000F04D92469B4611B1B1FA81F202E0B0FAC8
:1006D00080F220329046FFF77DFF04460F4640EA45
:1006E0000A0041EA0B0153465A46084313D011460B
:1006F00053EA010019D0C8F140025046FFF779FFD4
:1007000005460E46504659464246FFF763FF0843EA
:1007100005D0012004E020463946BDE8F08D0020D8
:10072000054346EAE0762C4337430A986305E40A1A
:10073000A0EB08000022FD0A44EA47540A3002D523
:1007400000200146E9E7010510196941DDE9084586
:1007500000196941BDE8F04DA4E770B521F00043F0
:1007600003430CD0C1F30A550024D5EB040564EB18
:100770000403D617AD1AB34102DB0020014670BD59
:10078000201841EB025170BD2DE9F04D00231A46AF
:100790001B1A8A4103DB00200146BDE8F08DC1F33E
:1007A0000A52C1F3130141F480154FF0000BD10739
:1007B00002D100186D41521E0027044640F2FF117D
:1007C000384601EB620A3E468046024600204FF45E
:1007D0008011FFF70EFFC2197141BB1846EB0100F3
:1007E000B4EB030C75EB000C04D3E41A65EB0005C5
:1007F00017460E46241908F101006D418046342841
:10080000E3DDF91946EB0600091BA84103D24FF0BE
:10081000FF32134601E0002213461BEB070046EBB4
:100820000A51BDE8F04DFFF73DBF000030B500298B
:1008300004DB4FF00044404264EB0101002B04DB79
:100840004FF00044524264EB0303994208BF9042C8
:1008500030BD0000064C074D06E0E06840F00103A3
:1008600094E8070098471034AC42F6D3FFF790FCA9
:10087000E86400080865000870B5064600243446A0
:100880009FEDA13ADFEDA12A9FEDA02ADFEDA01A8E
:100890009FED9E1ADFED9D0A9FED9E0A04F1140064
:1008A00002F09EFF002084F878009FED973ADFED7C
:1008B000972A9FED962ADFED961A9FED941ADFEDA9
:1008C000930AB1EE040A04F1440002F089FF4FF4E8
:1008D00096717C200153012104F17A0003F052FC4F
:1008E00006F580749FED893ADFED882A9FED872A0F
:1008F000DFED861A9FED851ADFED840A9FED830AEE
:1009000004F1140002F06CFF012084F878009FEDE0
:100910007F3ADFED7E2A9FED7D2ADFED7C1A9FED89
:100920007B1ADFED7A0A9FED790A04F1440002F0A8
:1009300057FF4FF496717C200153012104F17A0096
:1009400003F020FC80349FED713ADFED702A9FEDBB
:100950006F2ADFED6E1A9FED6D1ADFED6C0A9FEDC9
:100960006B0A04F1140002F03BFF022084F87800C7
:100970009FED663ADFED652A9FED642ADFED631A8D
:100980009FED621ADFED610A9FED600A04F14400F9
:1009900002F026FF4FF496717C200153012104F1EF
:1009A0007A0003F0EFFB06F180049FED583ADFED8B
:1009B000572A9FED562ADFED551A9FED541ADFEDA9
:1009C000530A9FED520A04F1140002F009FF0320BC
:1009D00084F878009FED4D3ADFED4C2A9FED4B2ACD
:1009E000DFED4A1A9FED491ADFED480A9FED470AED
:1009F00004F1440002F0F4FE4FF496717C200153A0
:100A0000012104F17A0003F0BDFB002506F5007515
:100A10009FED3D3ADFED3D2A9FED3C2ADFED3C1A8C
:100A20009FED3A1ADFED390AB1EE040A05F108002C
:100A300002F0D6FE002085F83C004FF4967140206D
:100A40004153012105F13E0003F09CFB88359FEDE9
:100A50002F3ADFED2E2A9FED2D2ADFED2C1A9FED88
:100A60002B1ADFED2A0A9FED290A05F1080002F092
:100A7000B7FE012085F83C004FF4967140204153A9
:100A8000012105F13E0003F07DFB44359FED1F3A47
:100A9000DFED1E2A9FED1D2ADFED1C1A9FED1B1AAC
:100AA000DFED1A0A9FED190A05F1080002F098FE21
:100AB000022085F83C004FF49671402041530121FB
:100AC00005F13E0003F05EFB883D9FED103ADFED3F
:100AD0000F2A9FED0E2ADFED0D1A9FED0C1ADFEDA8
:100AE0000B0A9FED0A0A05F1080002F079FE0320C7
:100AF00085F83C004FF4967140204153012105F1E7
:100B00003E0003F03FFB70BD00C0DA45000000006E
:100B100000409C459A99993E2DE9F04104460027F2
:100B20000025254605F17A0003F02EFB18B195F853
:100B30007800401CC7B204F5807505F17A0003F017
:100B400023FB18B195F87800401CC7B204F5C075B6
:100B500005F17A0003F018FB18B195F87800401CF5
:100B6000C7B204F1800505F17A0003F00DFB18B15E
:100B700095F87800401CC7B2002604F5007606F10F
:100B80003E0003F001FB18B196F83C00401DC7B2CF
:100B900004F5227606F13E0003F0F6FA18B196F855
:100BA0003C00401DC7B204F5337606F13E0003F069
:100BB000EBFA18B196F83C00401DC7B204F5117667
:100BC00006F13E0003F0E0FA18B196F83C00401D33
:100BD000C7B284F81C7317B1204602F00DFABDE8C5
:100BE000F08100BFFEE700001CB5002000900190DE
:100BF000074800F013FB6B46064A0021044800F04A
:100C000050FA0449098888B2694602F037FD1CBDD4
:100C1000AC030020F005002010B5084800F0FEFAF3
:100C2000074B084A0021054800F03BFA05480449F3
:100C30000268A1F25F3002F0F7FB10BDD403002080
:100C40009F0300200C06002010B58AB0044611480E
:100C5000844204D1002005900E20099002E00E206D
:100C600005900990012008900020009001900290CA
:100C7000039004900690012007906946204600F0FA
:100C80007DF9204600F063FD0221204600F0B6F811
:100C90000AB010BDAC030020D0F86813491CC0F89E
:100CA0006813044AD0F86813914202D90021C0F8B1
:100CB0006813704720A1070010B5024800F092FDAC
:100CC00010BD00003005002010B5024800F08AFD7C
:100CD00010BD00009005002010B5024800F082FD14
:100CE00010BD0000D00400200146087810381823F9
:100CF000B0FBF3F20848805CC865032A05D9086890
:100D00006FF30900001D886503E008686FF30900B0
:100D10008865886D70470000506300080146002018
:100D20008A6A8B69CBB932B1012A0DD0022A03D06D
:100D3000032A10D10EE000BFCB6A03F08073B3F139
:100D4000807F00D1012007E0CB6AB3F1C07F00D1E2
:100D5000012001E000E000BF34E08B69B3F5005FE3
:100D60001AD132B1012A07D0022A03D0032A11D1A5
:100D70000AE000BF01200EE0CB6A03F08073B3F1FC
:100D8000807F00D1012006E0CB6AB3F1C07F00D1A3
:100D9000012000E000BF15E032B1012A05D0022A8F
:100DA00004D0032A0CD103E000BF00BF012008E0FB
:100DB000CB6A03F08073B3F1807F00D1012000E0A3
:100DC00000BF00BF704730B50468246824F4802455
:100DD00005682C60046863608468402C04D1046852
:100DE000A2600468E16003E00468A1600468E26056
:100DF00030BD7047704700214180704710B50246F2
:100E000092F82030012B01D0022B06D110684069E6
:100E1000084314686061002010BD506A40F48020CF
:100E200050620120F8E7F0B504460D461E4694F8DE
:100E3000207020688368A86800B900E000BF012F17
:100E400001D0022F7CD103F0806030B903F0006044
:100E500018B903F08050002873D0C3F30161022950
:100E600005D9606A40F4000060620120F0BD0120F5
:100E700088403060A86860B9B5F800C0E86840EA0A
:100E80004C5C206800F5C07000EB0110C0F800C099
:100E90000FE0D5E901C040EACC00D5F80CC040EA2B
:100EA0000C00D4F800C00CF5C07C0CEB011CCCF895
:100EB0000000D5F810C0206800F5C07000EB0110EC
:100EC000C0F804C0287D01280ED1206800F5C0704C
:100ED00000EB0110406840F4807C206800F5C07091
:100EE00000EB0110C0F804C0D079000692F806C0EB
:100EF00040EA0C4092F805C040EA0C2C10794CEA0C
:100F0000000C206800F5C07000EB0110C0F80CC0A8
:100F1000D078000692F802C040EA0C4092F801C076
:100F200040EA0C2092F800C040EA0C00D4F800C05F
:100F30000CF5C07C0CEB011CCCF80800206801E02B
:100F400016E00FE000F5C07000EB0110006840F003
:100F5000010C206800F5C07000EB0110C0F800C063
:100F6000002083E7606A40F40010606201207DE7A2
:100F7000606A40F480206062012077E7F0B50446A3
:100F80000A46216894F82050012D01D0022D7ED10F
:100F9000424901F50071086840F0010008600868E6
:100FA00020F47C5008600868566A40EA0620086011
:100FB000107D00F01F06012000FA06F3C86998436F
:100FC000C861A1F50071D069C8B9D1F80C02984385
:100FD000C1F80C02908880B2968940EA064601F575
:100FE0001070576940F83760108880B2168940EA5F
:100FF000064601F51070576900EBC7004660D069DE
:10100000012819D1D1F80C021843C1F80C029088BC
:1010100080B2168840EA064601F51070576940F81C
:101020003760908980B2168940EA064601F5107053
:10103000576900EBC7004660906928B9D1F80402EF
:101040009843C1F8040204E0D1F804021843C1F83F
:101050000402106928B9D1F814029843C1F81402A7
:1010600004E0D1F814021843C1F81402106A0128F0
:1010700004D1D1F81C021843C1F81C02D1F80002B7
:1010800020F00100C1F800020020F0BDFFE7606A17
:1010900040F4802060620120F7E700000064004017
:1010A000704770B5044694F82050012D01D0022DF0
:1010B0007DD151B92068C06800F0030080B9606A32
:1010C00040F400106062012070BD2068006900F0EB
:1010D000030028B9606A40F4001060620120F3E761
:1010E000206800F5D87000EB0110006800F00400E3
:1010F0009060906840B9206800F5D87000EB01104E
:101100000068400D106007E0206800F5D87000EB23
:1011100001100068C0085060206800F5D87000EB2E
:101120000110006800F00200D060206800F5D8705F
:1011300000EB0110406800F00F001061206800F51E
:10114000D87000EB0110406800F47F40000A906105
:10115000206800F5D87000EB01104068000C506169
:10116000206800F5D87000EB0110806818702068C6
:1011700000F5D87000EB0110806800F47F40000A91
:101180005870206800F5D87000EB0110806800F4FA
:101190007F00000C9870206800F5D87000EB0110FB
:1011A0008068000ED870206800F5D87000E02FE04D
:1011B00000EB0110C0681871206800F5D87000EBD2
:1011C0000110C06800F47F40000A5871206800F5E3
:1011D000D87000EB0110C06800F47F00000C98711B
:1011E000206800F5D87000EB0110C068000ED871BF
:1011F00031B92068C06840F020002668F06005E042
:101200002068006940F020002668306100205BE71C
:10121000606A40F480206062012055E72DE9F05FAC
:1012200004460025206846692068D0F804902068AC
:1012300087682068D0F80CA02068D0F810B020682B
:10124000D0F8188006F00100002855D007F0010002
:10125000C0B101202168886007F0020018B1204663
:1012600000F0A5FA0EE007F0040010B145F40065A7
:1012700008E007F0080010B145F4805502E0204670
:1012800000F094FA07F48070C8B14FF480702168C0
:10129000886007F4007018B1204600F08AFA0EE06A
:1012A00007F4806010B145F4005508E007F40060D1
:1012B00010B145F4804502E0204600F079FA07F4C9
:1012C0008030C8B14FF480302168886007F4003066
:1012D00018B1204600F06FFA0EE007F4802010B13C
:1012E00045F4004508E007F4002010B145F48035CE
:1012F00002E0204600F05EFA06F0080038B10AF07D
:10130000100020B145F4007510202168C86006F077
:10131000040040B10AF0080028B108202168C86024
:10132000204600F00FFA06F0020038B12068C068CD
:1013300000F0030010B1204600F005FA06F040006E
:1013400038B10BF0100020B145F480651020216801
:10135000086106F0200040B10BF0080028B1082019
:1013600021680861204600F0EFF906F0100038B15E
:101370002068006900F0030010B1204600F0E5F994
:1013800006F4003040B109F0100028B110202168A7
:101390004860204600F0DAF906F4803040B109F0E8
:1013A000080028B1082021684860204600F004FAAF
:1013B00006F4004088B309F0040078B306F48070A6
:1013C00020B108F0010008B145F0010506F40070F5
:1013D00020B108F0020008B145F0020506F4806073
:1013E00020B108F0040008B145F0040506F40060DF
:1013F000A0B108F0700088B108F07000402817D044
:1014000006DC10280BD020280CD0302819D10CE095
:10141000502810D0602814D110E01DE019E045F0EC
:1014200008050FE045F010050CE045F0200509E047
:1014300045F0400506E045F0800503E045F4807581
:1014400000E000BF00BF2068806920F070002168C4
:1014500088610420216848602DB1606A2843606279
:101460002046FFF71DFEBDE8F09F70B504460CB99D
:10147000012070BD94F8200010B9204600F0B0F8AB
:101480002068006820F002002168086000F09AFCE3
:1014900005460DE000F096FC401B0A2808D9606A5A
:1014A00040F400306062052084F820000120E0E76D
:1014B0002068406800F002000028EBD12068006836
:1014C00040F001002168086000F07CFC05460DE05A
:1014D00000F078FC401B0A2808D9606A40F400300C
:1014E0006062052084F820000120C2E7206840687F
:1014F00000F001000028EBD0207E012806D12068F2
:10150000006840F080002168086005E020680068FD
:1015100020F0800021680860607E012806D12068E4
:10152000006840F040002168086005E0206800681D
:1015300020F0400021680860A07E012806D12068C4
:10154000006840F020002168086005E0206800681D
:1015500020F0200021680860E07E012806D1206884
:10156000006820F010002168086005E0206800682D
:1015700040F0100021680860207F012806D1206813
:10158000006840F008002168086005E020680068F5
:1015900020F0080021680860607F012806D12068DB
:1015A000006840F004002168086005E020680068D9
:1015B00020F0040021680860D4E902010843216991
:1015C0000843616908436168491E08432168C8618E
:1015D00000206062012084F82000002049E700001C
:1015E00010B586B00446142101A8FEF733FE4F491A
:1015F0002068884242D14E480068401C4C4908602F
:101600000846006801280FD100BF0020009049481B
:10161000006840F00070474908600846006800F024
:101620000070009000BF00BF00BF00200090414844
:101630001038006840F001003E4910390860084643
:10164000006800F00100009000BF00BF4FF4C050E0
:1016500001900220029000200390032004900920B2
:10166000059001A9344800F09DFA0022114614208B
:1016700000F032FC142000F01FFC54E02F492068D9
:10168000884250D100BF002000902A48006840F0F6
:101690008060284908600846006800F0806000907B
:1016A00000BF00BF22480068401C2149086008466E
:1016B000006801280FD100BF002000901D4800687D
:1016C00040F000701B4908600846006800F0007098
:1016D000009000BF00BF00BF0020009015481038E8
:1016E000006840F00200134910390860084600689D
:1016F00000F00200009000BF00BF602001900220B7
:10170000029000200390032004900920059001A975
:101710000B4800F047FA00221146402000F0DCFBA5
:10172000402000F0C9FB06B010BD0000006400407E
:1017300008000020403802400000024000680040DD
:10174000000402407047704770477047704770B59B
:10175000044694F82000012822D1022084F82000B9
:101760002068006820F001002168086000F02AFB72
:1017700005460DE000F026FB401B0A2808D9606AE8
:1017800040F400306062052084F82000012070BD24
:101790002068406800F001000028EBD16062F6E7A5
:1017A000606A40F4002060620120F0E770477047F3
:1017B00070477047704770477047014691F8350091
:1017C000022803D08020486501207047052081F859
:1017D00035000868006820F001000A6810600020E9
:1017E000F3E70000F8B50446002000908C4800683C
:1017F0004FF41651B0FBF1F7A56D2E6894F85C100C
:1018000008208840304098B12068006800F004004B
:1018100070B12068006820F004002168086094F826
:101820005C1008208840A860606D40F00100606591
:1018300094F85C1001208840304068B1206840690D
:1018400000F0800040B194F85C1001208840A8604E
:10185000606D40F00200606594F85C1004208840E0
:10186000304068B12068006800F0020040B194F890
:101870005C1004208840A860606D40F00400606542
:1018800094F85C1010208840304078B320680068DD
:1018900000F0080050B394F85C1010208840A86055
:1018A0002068006800F4802080B12068006800F49F
:1018B000002028B9206CC8B12046216C884715E06B
:1018C000A06C98B12046A16C88470FE020680068A2
:1018D00000F4807028B92068006820F008002168B2
:1018E0000860206C10B12046216C884794F85C1089
:1018F000202088403040002865D02068006800F033
:10190000100000285FD094F85C1020208840A86068
:1019100094F83500052828D12068006820F01600CA
:10192000216808602068406920F0800021684861D3
:10193000206C08B9A06C28B12068006820F008006D
:101940002168086094F85C103F208840A86000BFC0
:10195000002084F8340000BF012084F83500206D99
:1019600010B12046216D8847F8BD2068006800F45A
:10197000802080B12068006800F4002028B9606CE5
:1019800010B12046616C88471DE0E06BD8B120465D
:10199000E16B884717E02068006800F4807068B940
:1019A0002068006820F010002168086000BF002057
:1019B00084F8340000BF012084F83500E06B10B1DA
:1019C0002046E16B8847606D38B3606D00F0010020
:1019D000F0B1052084F835002068006820F001008F
:1019E0002168086000BF0098401C0090B84200D9F0
:1019F00005E02068006800F001000028F3D100BF76
:101A000000BF002084F8340000BF012084F83500B6
:101A1000E06C10B12046E16C884700BFA4E70000ED
:101A2000300000202DE9F0410446002500F0CAF9FD
:101A3000074614B90120BDE8F081606A00B100BF1B
:101A400000BF002084F8340000BF022084F8350075
:101A50002068006820F00100216808600AE000F0BA
:101A6000B1F9C01B052805D920206065032084F842
:101A70003500E0E72068006800F001000028EED1A2
:101A80002068056821480540D4E901010843E16860
:101A900008432169084361690843A1690843E16972
:101AA0000843216A08430543606A042803D1D4E946
:101AB0000B0108430543206805602068456925F04F
:101AC0000705606A0543606A04280DD1A06A0543D2
:101AD000E06A48B12046FFF721F928B1402060654F
:101AE000012084F83500A6E7206845612046FFF70D
:101AF000FBF8064694F85C103F208840B060002058
:101B00006065012084F83500002094E73F8010F0E4
:101B10002DE9F04704460D4616461F464FF00008D3
:101B2000D4F8589000BF94F83400012802D1022064
:101B3000BDE8F087012084F8340000BF94F8350038
:101B4000012825D1022084F83500002060653B463D
:101B5000324629462046FFF736F994F85C103F20BC
:101B60008840C9F808002068006840F01600216825
:101B70000860206C28B12068006840F008002168E7
:101B800008602068006840F001002168086006E0F5
:101B900000BF002084F8340000BF4FF00208404628
:101BA000C6E70000F8B502460B46002500240020D9
:101BB0000021DCE0012606FA01F51E6806EA0504AC
:101BC000AC4273D15E68012E08D05E68022E05D04B
:101BD0005E68112E02D05E68122E13D190684F00FD
:101BE0000326BE40B0434F00DE68BE4030439060E5
:101BF000506801268E40B0431E79C6F300168E4011
:101C000030435060D0684F000326BE40B0434F00C1
:101C10009E68BE403043D0605E68022E02D05E688F
:101C2000122E13D1CF0802F1200656F827004E07D6
:101C3000F70E0F26BE40B0434F07FF0E1E69BE4091
:101C40003043CF0802F1200646F8270010684F0005
:101C50000326BE40B0431E7906F003064F00BE4087
:101C6000304310605E6806F08056B6F1805F7DD12B
:101C700000BF00260096404E366846F480463E4F30
:101C80003E603E46366806F48046009600BF00BFC0
:101C90003A4E8F0856F827008E07370F0F26BE40A2
:101CA000B043374EB24202D1002624E05EE0354E0A
:101CB000B24201D101261EE0334EB24201D10226CA
:101CC00019E0324EB24201D1032614E0304EB24246
:101CD00001D104260FE02F4EB24201D105260AE0C1
:101CE0002D4EB24201D1062605E02C4EB24201D162
:101CF000072600E008268F073F0FBE4030431F4EE7
:101D00008F0846F82700264E3068A0435E6806F428
:101D10008036B6F5803F00D12043214E3060361D1D
:101D20003068A0435E6806F40036B6F5003F00D187
:101D300020431B4E361D3060361D3068A0435E6860
:101D400006F48016B6F5801F00D12043144E0836E5
:101D50003060361D3068A0435E6806F40016B6F5A4
:101D6000001F00D120430E4E0C363060491C102954
:101D7000FFF420AFF8BD00004438024008380140AD
:101D8000000002400004024000080240000C024033
:101D9000001002400014024000180240001C0240E3
:101DA000003C014042690A408A4202D10A04826131
:101DB00000E0816170470AB1816101E00B04836139
:101DC00070470000014800687047000024000020B0
:101DD00003480068034909780844014908607047CE
:101DE000240000202C00002010B50D48006840F4AD
:101DF00000700B4908600846006840F48060086085
:101E00000846006840F480700860032000F0A2F8E3
:101E1000002000F007F800F02BF8002010BD0000B3
:101E2000003C024070B504460E4800784FF47A71C9
:101E3000B1FBF0F00C490968B1FBF0F5284600F061
:101E400021FC08B1012070BD102C07D200222146D0
:101E5000501E00F041F80548046001E00120F2E75F
:101E60000020F0E72C000020300000202800002097
:101E700008B500BF002000900E48006840F4804084
:101E80000C4908600846006800F48040009000BFDC
:101E900000BF00BF00200090081F006840F0805085
:101EA000091F08600846006800F08050009000BFDD
:101EB00000BF08BD4438024001460846002809DB3F
:101EC00000F01F0301229A4043099B0003F1E02325
:101ED000C3F8002100BF70472DE9F05F80460D4632
:101EE0001646002702F036FE074639462A46334694
:101EF00001F00700C0F1070ABAF1040F02D94FF050
:101F0000040A01E0C0F1070AD14600F1040ABAF15F
:101F1000070F02D24FF0000A01E0A0F1030AD446F5
:101F20004FF0010A0AFA09FAAAF1010A0AEA020ABA
:101F30000AFA0CFA4FF0010B0BFA0CFBABF1010B98
:101F40000BEA030B4AEA0B042146404602F00AFE64
:101F5000BDE8F09F00BF00F00702064B19684FF67E
:101F6000FF031940044B0B4343EA0221014B196064
:101F700000BF70470CED00E00000FA0570B50446A4
:101F80000D460CB9012070BD5848006800F00F00E4
:101F9000A84209D255490D700846006800F00F00AC
:101FA000A84201D00120EEE7207800F002000228CC
:101FB0001DD1207800F00400042805D14C480068A9
:101FC00040F4E0504A490860207800F008000828F2
:101FD00005D14748006840F46040454908604448DE
:101FE000006820F0F000A1680843414908602078AB
:101FF00000F00100A8B36068012807D13C48083808
:102000000068C0F34040B8B90120BCE7606802280E
:1020100002D06068032807D1354808380068C0F34B
:10202000406048B90120AEE7314808380068C0F385
:10203000400008B90120A6E72D48006820F0030001
:10204000616808432A490860FFF7BCFE064609E0BC
:10205000FFF7B8FE801B41F28831884202D9032085
:1020600091E707E02248006800F00C006168B0EBDF
:10207000810FEDD11D48006800F00F00A84209D97A
:102080001A490D700846006800F00F00A84201D000
:10209000012078E7207800F00400042807D11448D4
:1020A000006820F4E050E168084311490860207896
:1020B00000F00800082808D10D48006820F46040AE
:1020C000216940EAC1000A49086000F03FF8084968
:1020D0000968C1F30311074A515CC840064908600A
:1020E00006480068FFF79EFE00204CE7003C0240D7
:1020F0000838024058630008300000202800002003
:1021000001480068704700003000002000B5FFF76C
:10211000F7FF04490968C1F38221034A515CC840B2
:1021200000BD0000083802406863000800B5FFF7F2
:10213000E7FF04490968C1F34231034A515CC840D2
:1021400000BD000008380240686300082DE9F04730
:10215000002400250026A1462548006800F00C0058
:1021600020B1042805D008283AD105E0DFF8849092
:1021700039E0DFF8849036E01D48001F006800F069
:102180003F041B48001F006800F4800078B11A4823
:102190001749091F0968C1F38811A0FB01700146A6
:1021A000224600233846FEF70BF805460EE011489C
:1021B0000F49091F0968C1F38811A0FB017001468E
:1021C000224600233846FDF7FBFF05460848001F5E
:1021D0000068C0F30140401C4600B5FBF6F902E080
:1021E000DFF8109000BF00BF4846BDE8F087000050
:1021F000083802400024F40000127A00F8B50446C2
:102200000CB90120F8BD207800F00100002874D03E
:10221000F948006800F00C0004280DD0F64800686A
:1022200000F00C00082813D1F348001F006800F4E8
:102230008000B0F5800F0BD1EF4808380068C0F37C
:102240004040002859D06068002856D10120D9E7C5
:1022500000BF6068B0F5803F08D1E74808380068E3
:1022600040F48030E449083908601EE06068B0F549
:10227000A02F0DD1E0480838006840F48020DE49E6
:10228000083908600846006840F4803008600CE0B7
:10229000D9480838006820F48030D74908390860E8
:1022A0000846006820F48020086000BF606890B194
:1022B000FFF788FD054606E0FFF784FD401B642814
:1022C00001D903209EE7CC4808380068C0F340409D
:1022D0000028F1D011E0FFF775FD054606E0FFF795
:1022E00071FD401B642801D903208BE7C2480838E0
:1022F0000068C0F340400028F1D1207800F00200CF
:1023000002285FD1BC48006800F00C0058B1BA4800
:10231000006800F00C0008281CD1B748001F0068B6
:1023200000F48000B0B9B44808380068C0F3400039
:1023300020B1E068012801D0012063E7AE480838E9
:10234000006820F0F800216940EAC100AA49083974
:10235000086037E0E06800B30120A8490860FFF793
:1023600031FD054606E0FFF72DFD401B022801D98F
:10237000032047E7A04808380068C0F34000002861
:10238000F1D09D480838006820F0F800216940EA43
:10239000C10099490839086014E000209749086095
:1023A000FFF710FD054606E0FFF70CFD401B022875
:1023B00001D9032026E7904808380068C0F34000A0
:1023C0000028F1D1207800F0080008282CD160699D
:1023D000A8B101208A490860FFF7F4FC054606E031
:1023E000FFF7F0FC401B022801D903200AE78248CE
:1023F0006C300068C0F340000028F1D014E00020E9
:102400007F490860FFF7DEFC054606E0FFF7DAFCCF
:10241000401B022801D90320F4E677486C3000689D
:10242000C0F340000028F1D1207800F00400042817
:1024300070D1002770483830006800F0805090B9A3
:1024400000BF002000906C483830006840F0805099
:102450006949383108600846006800F080500090F3
:1024600000BF00BF01276748006800F48070B0B962
:102470006448006840F4807062490860FFF7A2FC7D
:10248000054606E0FFF79EFC401B022801D9032009
:10249000B8E65C48006800F480700028F2D000BF05
:1024A000A068012808D154486830006840F0010055
:1024B0005149683108601DE0A06805280DD14E48DB
:1024C0006830006840F004004B49683108600846F5
:1024D000006840F0010008600CE047486830006880
:1024E00020F001004449683108600846006820F087
:1024F0000400086000BFA068A8B1FFF763FC0546B0
:1025000009E0FFF75FFC401B41F28831884202D9A5
:10251000032077E626E0384868300068C0F34000C2
:102520000028EED013E0FFF74DFC054608E0FFF76A
:1025300049FC401B41F28831884201D9032061E601
:102540002D4868300068C0F340000028EFD1012F0B
:1025500007D129483830006820F0805026493831AA
:10256000086000BFA069002845D02348006800F03B
:102570000C0008285DD0A069022845D100201F4921
:102580000866FFF71FFC054606E0FFF71BFC401B33
:10259000022801D9032035E6174808380068C0F33F
:1025A00040600028F1D1D4E907010843616A40EA9C
:1025B00081110122A06AC2EB500041EA00412C20A7
:1025C000005D41EA00600C49091F086001200B49C9
:1025D0000866FFF7F7FB054606E0FFF7F3FB401B35
:1025E000022801D903200DE6034808380068C0F32B
:1025F00040600028F1D03FE0083802400000474228
:10260000800E47420070004000201C490866FFF71A
:10261000D9FB054606E0FFF7D5FB401B022801D990
:102620000320EFE516480068C0F340600028F2D1AF
:1026300022E0A069012800D1E4E51148001D0668E8
:1026400006F48001E069814214D106F03F01206A5E
:1026500081420FD147F6C0703040616A884209D18B
:1026600006F44031A06A814204D106F07061E06A4C
:10267000814201D00120C5E50020C3E500004742AA
:102680000038024070B504462546681EB0F1807FD0
:1026900001D301200FE0681E4FF0E02148610F21B7
:1026A0004FF0FF3002F05EFA00204FF0E021886129
:1026B00007200861002070BD7047704730B50246A2
:1026C0000B4600BF92F83C00012801D1022030BD2A
:1026D000012082F83C0000BF022082F83D00106813
:1026E00044681068816824F0700418680443106816
:1026F0004460184D1068A8421BD01068B0F1804F9C
:1027000017D0154D1068A84213D0144D1068A84278
:102710000FD0134D1068A8420BD0124D1068A8427C
:1027200007D0114D1068A84203D0104D1068A84280
:1027300005D121F0800158680143106881600120B3
:1027400082F83D0000BF002082F83C0000BF00BFBF
:10275000BDE7000000000140000400400008004008
:10276000000C0040000401400040014000180040FF
:1027700010B504460CB9012010BD94F83D0028B9ED
:10278000002084F83C00204600F00CF8022084F879
:102790003D00211D206801F03FFD012084F83D002F
:1027A0000020E9E738B504460E492068884217D171
:1027B00000BF002000900C48006840F002000A4969
:1027C00008600846006800F00200009000BF00BFEB
:1027D000002211461D20FFF77FFB1D20FFF76CFB39
:1027E00038BD00000004004040380240014608683F
:1027F000C06840F001000B68D8600868806800F08D
:102800000702062A05D00868006840F001000B683E
:102810001860002070472DE9F04104460D4600BFC6
:1028200094F83C00012802D10220BDE8F08101208B
:1028300084F83C0000BF022084F83D0020688668D0
:1028400026F0770626F47F462068866028685028A0
:1028500033D00CDC202850D004DC00284BD01028CA
:1028600051D149E0302849D040284CD139E0602886
:102870002DD0702807D0B0F5805F03D0B0F5005F91
:1028800041D10DE040E0D5E902136A68206801F00B
:102890002FFD2068866846F077062068866033E062
:1028A000D5E902136A68206801F022FD206880687B
:1028B00040F480402168886026E0EA686968206802
:1028C00001F02AFD5021206801F01DFD1CE0EA689E
:1028D0006968206801F033FD6021206801F013FD74
:1028E00012E0EA686968206801F016FD402120685E
:1028F00001F009FD08E000BF00BF00BF29682068A3
:1029000001F001FD00E000BF00BF012084F83D00A0
:1029100000BF002084F83C0000BF00BF85E770477F
:1029200010B5044620680069C0F34000D8B12068A3
:10293000C068C0F34000B0B16FF0020021680861C8
:10294000012020772068806900F0030018B120463C
:10295000FFF7E5FF05E0204600F0ADF8204600F067
:10296000ABF80020207720680069C0F38000D8B160
:102970002068C068C0F38000B0B16FF00400216827
:102980000861022020772068806900F4407018B147
:102990002046FFF7C4FF05E0204600F08CF82046F3
:1029A00000F08AF80020207720680069C0F3C0009A
:1029B000D8B12068C068C0F3C000B0B16FF00800A3
:1029C00021680861042020772068C06900F00300B6
:1029D00018B12046FFF7A3FF05E0204600F06BF892
:1029E000204600F069F80020207720680069C0F3D5
:1029F0000010D8B12068C068C0F30010B0B16FF00B
:102A0000100021680861082020772068C06900F460
:102A1000407018B12046FFF782FF05E0204600F025
:102A20004AF8204600F048F8002020772068006926
:102A300000F0010058B12068C06800F0010030B11A
:102A40006FF0010021680861204600F036F8206828
:102A50000069C0F3C01058B12068C068C0F3C0104E
:102A600030B16FF08000216808612046FFF724FE36
:102A700020680069C0F3801058B12068C068C0F3B6
:102A8000801030B16FF0400021680861204600F0EE
:102A900015F820680069C0F3401058B12068C0687C
:102AA000C0F3401030B16FF020002168086120466B
:102AB000FFF703FE10BD70477047704770477047BF
:102AC0002DE9F0470446206805682068C66820683C
:102AD00047694FF00008C14605F00F08B8F1000F34
:102AE0000AD105F0200038B106F0200020B12046C0
:102AF00001F0E1FCBDE8F087B8F1000F72D007F0FB
:102B0000010018B906F4907000286BD005F00100A0
:102B100030B106F4807018B1E06B40F00100E06362
:102B200005F0040030B107F0010018B1E06B40F08F
:102B30000200E06305F0020030B107F0010018B1B7
:102B4000E06B40F00400E06305F0080048B106F0D7
:102B5000200010B907F0010018B1E06B40F0080048
:102B6000E063E06B70B305F0200028B106F02000B0
:102B700010B1204601F09FFC20684069C0F3801925
:102B8000E06B00F0080010B9B9F1000F23D0204627
:102B900001F067FC2068406900F04000402816D131
:102BA0002068406920F0400021684861606B50B1A6
:102BB0001748616B0865606BFEF7FFFD10B1606B35
:102BC000016D88470CE02046FFF779FF08E02046BA
:102BD000FFF775FF04E02046FFF771FF0020E06378
:102BE00088E7FFE705F0800030B106F0800018B1FB
:102BF000204601F0A7FE7DE705F0400030B106F069
:102C0000400018B1204601F03CFC73E700BF71E7BB
:102C10006743000810B504460CB9012010BDA06937
:102C200000B100E000BF94F8390028B9002084F812
:102C30003800204600F028F8242084F83900206865
:102C4000C06820F400502168C860204601F086FC6E
:102C50002068006920F4904021680861206840697C
:102C600020F02A00216848612068C06840F40050C4
:102C70002168C8600020E063202084F8390084F8CF
:102C80003A000020CAE7000010B586B004461421BF
:102C900001A8FDF7DFFA6B492068884256D100BFD2
:102CA000002000906848006840F010006649086005
:102CB0000846006800F01000009000BF00BF00BF91
:102CC0000020009060481438006840F001005E4920
:102CD000143908600846006800F00100009000BF49
:102CE00000BF4FF4C06001900220029000200390CA
:102CF000032004900720059001A95448FEF752FFD5
:102D00005348544908604FF0006048600021514822
:102D10008160C1604FF48061016100214161816186
:102D2000C16101624162FEF77DFE08B1FEF762F803
:102D300000BF48486063846300BF0022114625201D
:102D4000FFF7CAF82520FFF7B7F879E04249206875
:102D5000884275D100BF002000903B48001F0068EA
:102D600040F400303849091F08600846006800F444
:102D70000030009000BF00BF00BF0020009032482C
:102D80001438006840F001002F49143908600846E3
:102D9000006800F00100009000BF00BF0C2001900F
:102DA0000220029000200390032004900720059049
:102DB00001A92648FEF7F6FE2848294908604FF089
:102DC00000604860002126488160C1604FF4806146
:102DD0000161002141618161C16101624162FEF7CF
:102DE00021FE08B1FEF706F800BF1D48606384634A
:102DF00000BF1A4818301B4908604FF00060486057
:102E00004021184881600021C1604FF48061016158
:102E1000002141618161C16101624162FEF702FEF0
:102E200008B1FDF7E7FF00BF0E482063846300BFD1
:102E3000002211462620FFF74FF82620FFF73CF826
:102E400006B010BD001001404438024000000240AE
:102E500040640240D00400200044004088600240EA
:102E6000300500209005002077B581B00446154656
:102E700094F83A00202850D1029800B115B90120E9
:102E800004B070BD00BF94F83800012801D10220C1
:102E9000F6E7012084F8380000BF0298A062A585FB
:102EA0000020E063222084F83A001D48616BC8636B
:102EB0001C48616B08641C48616BC8640020616B2E
:102EC000086502AE32682368191D2B46606BFEF759
:102ED0001FFE00BF0020009020680068009020685E
:102EE0004068009000BF00BF00BF002084F8380099
:102EF00000BF2068C06840F480702168C860206806
:102F0000406940F00100216848612068406940F054
:102F10004000216848610020B2E70220B0E70000CD
:102F2000CB430008114400087B43000810B5044659
:102F300004492068884204D1142203490348FFF75A
:102F400093FF10BD004400403C040020900400208A
:102F500070470000F7B50446154694F8390020285C
:102F60003DD1019800B10DB90120FEBD00BF94F81C
:102F70003800012801D10220F7E7012084F8380049
:102F800000BF01982062A584E5840020E063212031
:102F900084F839001348216BC8631348216B086417
:102FA0001248216BC8640020216B086501AE2368BC
:102FB0001A1D31682B46206BFEF7AAFD6FF040000A
:102FC0002168086000BF002084F8380000BF206836
:102FD000406940F08000216848610020C5E7022078
:102FE000C3E700001F440008554400087B43000865
:102FF0007047704700BFFEE710B5044694F81C0305
:103000001A490978884202D100201849087040F610
:10301000B831D4F86803B0FBF1F201FB1200134998
:103020000978C1EB011101EB8101A0EB810064285B
:1030300005D2012202210E48FEF7BDFE0AE0002261
:1030400002210B48FEF7B7FE0A48007810B90120AC
:10305000084908700748007838B104480078401CD7
:103060000249087000200349087010BD00000020CC
:10307000000802400100002010B50F480F49086009
:103080000320486000210D488160C1604FF4C021D9
:1030900001614FF4A0014161002101764176817602
:1030A0000121C176002101774177FEF7DEF908B1F1
:1030B000FDF7A0FE10BD000000640040AC0300203E
:1030C00010B50F480F4908600320486000210D48E3
:1030D0008160C1604FF4C02101614FF4A0014161E2
:1030E00000210176417681760121C17600210177A8
:1030F0004177FEF7BAF908B1FDF77CFE10BD00007C
:1031000000680040D403002008B500BF00200090F4
:103110001A48006840F40010184908600846006822
:1031200000F40010009000BF00BF00BF002000901E
:103130000846006840F4800008600846006800F413
:103140008000009000BF00BF002211461020FEF753
:10315000C3FE1020FEF7B0FE002211461120FEF73C
:10316000BBFE1120FEF7A8FE002211463A20FEF712
:10317000B3FE3A20FEF7A0FE08BD00003038024042
:1031800000B587B0142102A8FDF764F800BF002045
:1031900001902648006840F08000244908600846F5
:1031A000006800F08000019000BF00BF00BF002059
:1031B00001900846006840F0040008600846006876
:1031C00000F00400019000BF00BF00BF002001908C
:1031D0000846006840F0010008600846006800F0FA
:1031E0000100019000BF00BF00BF00200190084611
:1031F000006840F0020008600846006800F0020025
:10320000019000BF00BF012203210948FEF7D3FD52
:10321000032002900120039000200490059002A951
:103220000348FEF7BFFC07B000BD00003038024085
:103230000008024000B587B000200390049005907C
:103240000690019002901548154908605320486087
:1032500000211348816040F2E731C1600021016123
:1032600080218161FFF784FA08B1FDF7C3FD4FF4B7
:103270008050039003A90A48FFF7CDFA08B1FDF783
:10328000B9FD00200190029001A90548FFF716FA48
:1032900008B1FDF7AFFD07B000BD0000000400401D
:1032A000FC03002010B50C480C4908600C4848602D
:1032B0004FF48051094881600021C1604FF4806162
:1032C00001610421416100218161C161FFF7A2FC1C
:1032D00008B1FDF78FFD10BD001001405004002023
:1032E000A086010010B50B480B4908604FF4E1308F
:1032F0004860002108488160C16001610C21416182
:1033000000218161C161FFF785FC08B1FDF772FD05
:1033100010BD0000004400409004002000BFFEE704
:10332000DFED3A1AB0EE611A394B42689A4203DC7B
:103330005B4242689A4201DA00224260DFED351AB0
:10334000B4EEE10AF1EE10FA1BD2DFED331AB4EE5F
:10335000E10AF1EE10FA14DDDFED301A80EE212AD9
:10336000DFED2F1A62EE211AB0EE611AD0ED011ACC
:10337000F8EEE11A71EE811AC0ED1D1AC1ED0E0AC8
:1033800042E0DFED241AB4EEE10AF1EE10FA1ADBA6
:10339000DFED241A70EE611ADFED202A81EEA22AF9
:1033A000DFED1F1A62EE211AB0EE611AD0ED011A9C
:1033B000F8EEE11A71EE811AC0ED1D1AF1EE601AF5
:1033C000C1ED0E1A20E0DFED141AB4EEE10AF1EEC1
:1033D00010FA19D8DFED131A70EE211ADFED0F2A5B
:1033E00081EEA22ADFED0E1A62EE211AB0EE611A0A
:1033F000D0ED011AF8EEE11A71EE811AC0ED1D1A36
:10340000F1EE601AC1ED0E1A7047000000000000D6
:1034100020A107000000B4420000B4C20000B44381
:1034200000009048000034432DE9F04104460F4667
:1034300016460025A6F2012030B1012806D0022848
:1034400007D003280BD107E0254609E004F5807575
:1034500006E004F5C07503E004F1800500E000BF5C
:1034600000BF0DB9BDE8F0813946284600F08AFC5E
:1034700005F17A00FDF7BFFC00BFF3E710B52DEDB5
:103480000E8B044604F544746068FDF776F841EC51
:103490001D0B9FED6A1BB0EE4D0AF0EE6D0A01F0B8
:1034A00087FFB0EE40BAF0EE60BA2068FDF765F82D
:1034B00041EC1D0B9FED611BB0EE4D0AF0EE6D0A65
:1034C00001F076FFB0EE409AF0EE609A53EC1B2BC1
:1034D00051EC190BFCF7C9FE41EC1A0BB0EE4A0A8D
:1034E000F0EE6A0A02F080FDB0EE40CAF0EE60CA6B
:1034F00051EC1C0BFDF752F808EE900A9FED510AB3
:10350000B0EE408A9FED500B01F042FBB0EE40DA86
:10351000F0EE60DA9FED490B53EC102B51EC1D0BD4
:10352000FCF74AFF41EC1B0B6068FDF726F841EC05
:103530001D0B2068FDF721F841EC1E0BB0EE4D1A73
:10354000F0EE6D1AB0EE4E0AF0EE6E0A01F038FEA3
:10355000B0EE40CAF0EE60CA53EC1B2B51EC1C0BD2
:10356000FCF79CFF41EC1A0B9FED390B53EC102B31
:10357000FCF722FF41EC190BFDF710F8A06094ED69
:10358000020AA4F54474B5EEC00AF1EE10FA07D2AF
:1035900094EDC60ADFED300A30EE200A84EDC60A4B
:1035A00094EDC60AD4ED020A30EE600AB0EE408A0D
:1035B0009FED2A0AB4EEC08AF1EE10FA06D29FED12
:1035C000260A38EE000AB0EE408A0CE09FED240A8D
:1035D000B4EEC08AF1EE10FA05DD9FED1F0A38EE59
:1035E000400AB0EE408AF0EE680AB0EE480A04F5F0
:1035F00000712046FFF794FEF0EE680AB0EE480A2C
:1036000004F5227104F58070FFF78AFEF0EE680A77
:10361000B0EE480A04F5337104F5C070FFF780FE80
:10362000F0EE680AB0EE480A04F5117104F180006A
:10363000FFF776FEBDEC0E8B10BD00000000000011
:10364000000000400000000000000000000000003A
:1036500000000000008066400000B443000034C356
:1036600000003443704700000349884203D1202101
:1036700081614022026670470407002010B50246AF
:10368000002002F4FC632A4CA469A34200D128481C
:1036900002F4FC64264B1B6E9C4201D12448483046
:1036A00000B910BD02F00303092B1ED008DC012B6A
:1036B0000DD0032B10D0042B11D0052B35D111E0E8
:1036C0000A2B1BD0142B1ED0152B2ED124E00B68F7
:1036D00003604B68436028E00B68C36025E00B681B
:1036E000036122E00B6843611FE091ED000A80ED69
:1036F000090A91ED010A80ED0A0A16E00B68C36120
:103700004B68036211E091ED000A80ED0D0A91ED26
:10371000010A80ED0E0A08E091ED000A80ED0F0A23
:1037200091ED010A80ED100A00BF00BF00BFB8E7AD
:103730000407002070B505460E4600242448854243
:1037400002D1008B204384B221484830854204D105
:103750004838B0F86000204384B205B970BD3443E6
:103760000C2E22D006DC062E09D0072E0ED00B2EF2
:1037700029D113E00D2E1DD0162E24D11FE015489F
:1037800002882146284600F0CDFB1DE01248008843
:1037900082B22146284600F0E3FB15E00F4821469F
:1037A0000268284600F0FAFB0EE02146284600F0A9
:1037B00019FC09E02146284600F040FC04E02046C0
:1037C00000F06AFB00BF00BF00BF00BFC6E70000FB
:1037D0000407002010000020140000201800002022
:1037E00080ED000AC0ED010A80ED021AC0ED051A55
:1037F00080ED0B3A80ED062AC0ED082ADFED0A3A8B
:10380000C0ED033ADFED083AC0ED043ADFED063AC9
:10381000C0ED073ADFED043AC0ED093ADFED023AB8
:10382000C0ED0A3A704700000000000010B590F8A3
:103830007A2002B110BDD0ED1D0A90ED010AB8EE5C
:10384000C00A30EEC00A80ED080A90ED080AD0EDFB
:103850000A0AB4EEE00AF1EE10FA03DD90ED0A0A6E
:1038600080ED080A90ED080AD0ED0A0AF1EE600A30
:10387000B4EEE00AF1EE10FA05D290ED0A0AB1EECC
:10388000400A80ED080A90ED080AB5EEC00AF1EE94
:1038900010FA0CDD90ED080AD0ED0B0AB4EEE00A48
:1038A000F1EE10FA03D29FEDA60A80ED080A90ED22
:1038B000080AB5EEC00AF1EE10FA0CD290ED080A33
:1038C000D0ED0B0AB4EEE00AF1EE10FA03DD9FED45
:1038D0009C0A80ED080A90ED0C0AD0ED080A30EE43
:1038E000200A80ED0C0A90ED0C0AD0ED0D0AB4EE22
:1038F000E00AF1EE10FA03DD90ED0D0A80ED0C0AFE
:1039000090ED0C0AD0ED0D0AF1EE600AB4EEE00A7B
:10391000F1EE10FA05D290ED0D0AB1EE400A80EDFD
:103920000C0A90ED080AD0ED090A30EE600A80ED2D
:103930000E0A90ED080A80ED090A90ED050AD0ED17
:10394000080A20EE200AD0ED060A90ED0C1A00EECF
:10395000810AD0ED070A90ED0E1A00EE810A80ED83
:103960000F0A90ED0F0AD0ED100AB4EEE00AF1EE66
:1039700010FA03DD90ED100A80ED0F0A90ED0F0AAA
:10398000D0ED100AF1EE600AB4EEE00AF1EE10FAA2
:1039900005D290ED100AB1EE400A80ED0F0AD0ED8D
:1039A0000F0AB0F9002000EE102AB8EEC00A30EE7F
:1039B000C00A80ED140A90ED140AD0ED160AB4EE98
:1039C000E00AF1EE10FA03DD90ED160A80ED140A1C
:1039D00090ED140AD0ED160AF1EE600AB4EEE00A9A
:1039E000F1EE10FA05D290ED160AB1EE400A80ED24
:1039F000140A90ED140AB5EEC00AF1EE10FA0CDDCF
:103A000090ED140AD0ED170AB4EEE00AF1EE10FAC8
:103A100003D29FED4B0A80ED140A90ED140AB5EE27
:103A2000C00AF1EE10FA0CD290ED140AD0ED170A8C
:103A3000B4EEE00AF1EE10FA03DD9FED410A80EDED
:103A4000140A90ED180AD0ED140A30EE200A80ED29
:103A5000180A90ED180AD0ED190AB4EEE00AF1EE5A
:103A600010FA03DD90ED190A80ED180A90ED180A9E
:103A7000D0ED190AF1EE600AB4EEE00AF1EE10FAA8
:103A800005D290ED190AB1EE400A80ED180A90EDCA
:103A9000140AD0ED150A30EE600A80ED1A0A90ED96
:103AA000140A80ED150A90ED110AD0ED140A20EEEB
:103AB000200AD0ED120A90ED181A00EE810AD0ED1E
:103AC000130A90ED1A1A00EE810A80ED1B0A90EDA0
:103AD0001B0AD0ED1C0AB4EEE00AF1EE10FA03DD89
:103AE00090ED1C0A80ED1B0A90ED1B0AD0ED1C0A1C
:103AF000F1EE600AB4EEE00AF1EE10FA05D290EDB4
:103B00001C0AB1EE400A80ED1B0A90ED1B0ABDEEC7
:103B1000C00A10EE102AC2F3072390F8782001F8AB
:103B2000123090ED1B0ABDEEC00A10EE102AD3B27F
:103B300090F87820012404EB42028B5400BF79E610
:103B40000000000070B504462046FCF7E5FF0025A4
:103B500004F1800504F257312846FFF767FE04F5AB
:103B6000C07504F257312846FFF760FE254604F27F
:103B700057312846FFF75AFE04F5807504F2573195
:103B80002846FFF753FE04F25731114800F093F92D
:103B9000002604F5117604F24731304600F01CF897
:103BA000883604F24731304600F016F8CC3E04F275
:103BB0004731304600F010F8883604F2473130467D
:103BC00000F00AF804F25731024800F074F970BDB1
:103BD000D4030020AC03002010B5D0ED0E0AB0F9DC
:103BE000002000EE102AB8EEC00A30EEC00A80EDC8
:103BF000050A90ED050AD0ED070AB4EEE00AF1EEF1
:103C000010FA03DD90ED070A80ED050A90ED050A34
:103C1000D0ED070AF1EE600AB4EEE00AF1EE10FA18
:103C200005D290ED070AB1EE400A80ED050A90ED4D
:103C3000050AB5EEC00AF1EE10FA0CDD90ED050AAA
:103C4000D0ED080AB4EEE00AF1EE10FA03D29FEDCF
:103C50004B0A80ED050A90ED050AB5EEC00AF1EEBB
:103C600010FA0CD290ED050AD0ED080AB4EEE00A85
:103C7000F1EE10FA03DD9FED410A80ED050A90EDAB
:103C8000090AD0ED050A30EE200A80ED090A90ED10
:103C9000090AD0ED0A0AB4EEE00AF1EE10FA03DDEB
:103CA00090ED0A0A80ED090A90ED090AD0ED0A0AA2
:103CB000F1EE600AB4EEE00AF1EE10FA05D290EDF2
:103CC0000A0AB1EE400A80ED090A90ED050AD0ED2E
:103CD000060A30EE600A80ED0B0A90ED050A80EDD1
:103CE000060A90ED020AD0ED050A20EE200AD0ED7A
:103CF000030A90ED091A00EE810AD0ED040A90ED56
:103D00000B1A00EE810A80ED0C0A90ED0C0AD0ED42
:103D10000D0AB4EEE00AF1EE10FA03DD90ED0D0AA3
:103D200080ED0C0A90ED0C0AD0ED0D0AF1EE600A60
:103D3000B4EEE00AF1EE10FA05D290ED0D0AB1EE04
:103D4000400A80ED0C0A90ED0C0ABDEEC00A10EEA0
:103D5000102AC2F3072390F83C2001F8123090EDAE
:103D60000C0ABDEEC00A10EE102AD3B290F83C2027
:103D7000012404EB42028B5410BD0000000000003F
:103D80007047000070B52DED088B04460D4668782D
:103D9000297840EA01206080E878A97840EA01208B
:103DA00000B220806879297940EA012000B2E081E0
:103DB000A87920732088B0B16188228A891A08B254
:103DC00061680144616010F5805F04DA616801F5A3
:103DD0000051616006E0B0F5805F03DD6168A1F528
:103DE0000051616000BF60882082606800281FDB8E
:103DF0004FF49021606890FBF1F201FB120630460F
:103E0000FCF7BBFB41EC1A0B9FED1F0B53EC102B87
:103E1000FCF7D2FA41EC190B9FED1D0B53EC102B64
:103E2000FCF73CFB41EC180BFCF7B8FBA06027E06B
:103E3000606840424FF4902190FBF1F201FB1206C2
:103E40003046FCF79AFB41EC1B0B9FED0F0B53EC3C
:103E5000102BFCF7B1FA41EC1A0B9FED0D0B53EC54
:103E6000102BFCF71BFB41EC190B9FED070B53ECE0
:103E7000102BFCF79EFA41EC180BFCF78FFBA060AF
:103E8000BDEC088B70BD0000000000000080764093
:103E9000000000000000124138B504460120002354
:103EA0001A4621460090024800F01FF838BD000075
:103EB000AC030020704730B587B005460C460020A3
:103EC000049003904FF40070019000208DF81800CA
:103ED000082005906B46224601A92846FCF7A3FF5F
:103EE00008B1FCF787FF07B030BD2DE9F04188B07D
:103EF00006460C4617461D46DDF83880CDF814807E
:103F00000020049002948DF81C00069501AB3A46FF
:103F100002A93046FCF787FF08B1FCF76BFF08B039
:103F2000BDE8F08137B584B004460D46002002900C
:103F30000390BDF81800A0619DF818008DF80800E6
:103F40009DF819008DF809000020042302AA2946D3
:103F500000900248FFF7C9FF07B030BDAC03002056
:103F600037B582B004460D4600200190BDF8100020
:103F7000A0609DF810008DF804009DF811008DF8E8
:103F800005000020042301AA294600900248FFF7FB
:103F9000ACFF05B030BD0000AC03002037B584B0E5
:103FA00005460C460020029003909DF818008DF8FD
:103FB00008009DF819008DF809009DF81A008DF889
:103FC0000A009DF81B008DF80B000020082302AAB0
:103FD000214600900248FFF788FF07B030BD00007F
:103FE000AC0300207FB504460D466068082800D069
:103FF0007FBD00200290039094ED0C0ABDEEC00A34
:104000008DED010A9DF804008DF808009DF805006B
:104010008DF809009DF806008DF80A009DF807004C
:104020008DF80B000020082302AA294600900248C0
:10403000FFF75BFF00BFDBE7AC0300207FB5044662
:104040000D466068082800D07FBD002002900390D4
:1040500094ED0B0ABDEEC00A10EE100A642148432D
:1040600001909DF804008DF808009DF805008DF87A
:1040700009009DF806008DF80A009DF807008DF8EC
:104080000B0000208DF80C008DF80D008DF80E004F
:104090008DF80F00082302AA294600900248FFF776
:1040A00024FF00BFD0E70000AC03002010B5FDF7EF
:1040B0008FFE10BD00B593B0302107A8FCF7CAF8F9
:1040C000142102A8FCF7C6F800BF00200190244884
:1040D000006840F08050224908600846006800F0FF
:1040E0008050019000BF00BF00BF002001901D481C
:1040F000006840F480401B4908600846006800F4EE
:104100008040019000BF00BF01200790000408908C
:1041100002200D9041050E9104210F91A8211091CC
:10412000022111910421129107A8FEF767F808B146
:10413000FCF760FE0F200290022003900020049004
:104140004FF4A05005904FF480500690052102A82E
:10415000FDF714FF08B1FCF74DFE13B000BD0000E1
:1041600040380240007000400548006840F470008C
:10417000034908604FF000600149803908607047CA
:1041800088ED00E00170704700B50246B2F9020008
:10419000B0F5967F09DA00211046FFF7F3FF50884B
:1041A000401C00B25080002000BD01211046FFF7E6
:1041B000E9FF0120F8E700001CB510A103C9CDE913
:1041C00000011048FEF7ACFB0F48FCF765FD0E48F8
:1041D000FFF754F90C48FFF7B5FC082269460B4875
:1041E00002F09CF80A48008838B10948018809485B
:1041F000FFF7A0FA0020064908801CBD3132333495
:10420000350D0A00FC03002040000020900400202F
:104210000C0000204C07002010B50268294B984282
:104220000ED0B0F1804F0BD0274B984208D0274BCF
:10423000984205D0264B984202D0264B984203D193
:1042400022F070024B681A431E4B984220D0B0F106
:10425000804F1DD01C4B98421AD01C4B984217D04F
:104260001B4B984214D01B4B984211D01A4B9842CA
:104270000ED01A4B98420BD0194B984208D0194BCC
:10428000984205D0184B984202D0184B984203D15F
:1042900022F44072CB681A4322F080034C6943EA4F
:1042A000040202608B68C3620B688362054B98420C
:1042B00002D0084B984201D10B690363012343618B
:1042C00010BD000000000140000400400008004054
:1042D000000C004000040140004001400044014047
:1042E0000048014000180040001C00400020004031
:1042F00030B50C46816821F47F4142EA032525430D
:104300002943816030BD0A46816821F0700142F086
:10431000070319438160704730B50B461446026AA3
:10432000056A25F001050562816921F0F00141EA85
:10433000041122F00A021A438161026230BD30B5D5
:104340000B461446056A25F0100505628169026A6C
:1043500021F4704141EA043122F0A00242EA031242
:104360008161026230BD70B50546AC6B0020E0850E
:10437000E0842046FEF7A3FB70BD70B5064600251D
:10438000B46B20684069C0F3C01594F83900212847
:1043900005D125B10020E084204600F082F8206895
:1043A0004069C0F3801594F83A00222805D125B160
:1043B0000020E085204600F054F8E06B40F010004B
:1043C000E0632046FEF77BFB70BD70B50546AC6B25
:1043D0002868006800F48070B0B90020E08520688B
:1043E000C06820F480702168C8602068406920F0AF
:1043F0000100216848612068406920F04000216880
:104400004861202084F83A002046FEF78FFD70BDF9
:1044100070B50446A56B2846FEF79AFD70BD70B5D1
:104420000546AC6B2868006800F4807070B9002005
:10443000E0842068406920F080002168486120689D
:10444000C06840F040002168C86002E02046FEF7E6
:10445000CFFD70BD70B50446A56B2846FEF7C9FDBB
:1044600070BD0168C96821F490710268D16001686B
:10447000496921F0010102685161202180F83A1058
:10448000704710B504462068C06820F040002168DD
:10449000C860202084F839002046FEF7A9FD0020DE
:1044A00010BD0168C96821F0C0010268D1602021F7
:1044B00080F83910704770B5044694F83A00222805
:1044C0004AD1A068B0F5805F13D1A56A206940B9D0
:1044D00020684068C0F308002880A06A801CA062A1
:1044E00019E020684068C0B22880A06A401CA06221
:1044F00011E0206938B920684068C1B2A26A501C36
:10450000A062117007E02068406800F07F01A26A95
:10451000501CA0621170E08D401E80B2E085C8B9C9
:104520002068C06820F020002168C8602068C0684A
:1045300020F480702168C8602068406920F0010084
:1045400021684861202084F83A002046FEF7EEFCFE
:10455000002070BD0020FCE70220FAE72DE9F84FAB
:1045600004462068006920F44050E168084321684F
:1045700008612169A068084361690843E16908434B
:1045800000902068C06849F20C6188430099084394
:104590002168C8602068406920F44070A169084320
:1045A00021684861E069B0F5004F75D1E3492068A2
:1045B000884203D0E249206888426FD1FDF7B6FDFA
:1045C000814602206168A0FB01510B461920A9FB1E
:1045D00000712A463846FBF7F3FD6421B0FBF1F089
:1045E0004FEA001A02206168A0FB01510B46192016
:1045F000A9FB00712A463846FBF7E2FD0746022078
:104600006168A0FB01510B461920A9FB00B12A46A5
:104610005846FBF7D5FD6421B0FBF1F000EBC0017B
:1046200001EB0010A7EB8000322101EBC0006421F8
:10463000B0FBF1F000F0F8000AEB400A02206168DC
:10464000A0FB01510B461920A9FB00712A463846F0
:10465000FBF7B6FD074602206168A0FB01510B463F
:104660001920A9FB00B12A465846FBF7A9FD642191
:10467000B0FBF1F000EBC00101EB0010A7EB8000F4
:10468000322101EBC0006421B0FBF1F000F0070023
:104690005044216888604FE16EE0FFE7FDF736FD8A
:1046A000814602206168A0FB01510B461920A9FB3D
:1046B00000712A463846FBF783FD6421B0FBF1F018
:1046C0004FEA001A02206168A0FB01510B46192035
:1046D000A9FB00712A463846FBF772FD0746022007
:1046E0006168A0FB01510B461920A9FB00B12A46C5
:1046F0005846FBF765FD6421B0FBF1F000EBC0010B
:1047000001EB0010A7EB8000322101EBC000642117
:10471000B0FBF1F000F0F8000AEB400A02206168FB
:10472000A0FB01510B461920A9FB00712A4638460F
:10473000FBF746FD074602206168A0FB01500346D7
:104740001920A9FB00B12A465846FBF739FD642120
:10475000B0FBF1F000EBC00101EB0010A7EB800013
:10476000322101EBC0006421B0FBF1F000F0070042
:10477000504421688860DFE070492068884203D097
:104780006F49206888426BD1FDF7D0FC8146042038
:104790006168A0FB01510B461920A9FB00712A4654
:1047A0003846FBF70DFD824604206168A0FB0151ED
:1047B0000B461920A9FB00712A463846FBF700FD7D
:1047C0006421B0FBF1F000EBC00101EB0010AAEB9B
:1047D0008000322101EB00106421B0FBF1F000F009
:1047E000F00A04206168A0FB015003461920A9FBD0
:1047F00000712A463846FBF7E3FC6421B0FBF1F078
:104800000AEB001A04206168A0FB01510B46192035
:10481000A9FB00712A463846FBF7D2FC0746042064
:104820006168A0FB015003461920A9FB00B12A468C
:104830005846FBF7C5FC6421B0FBF1F000EBC0016A
:1048400001EB0010A7EB8000322101EB0010642186
:10485000B0FBF1F000F00F005044216888606BE07D
:10486000FDF754FC814604206168A0FB015003461B
:104870001920A9FB00712A463846FBF7A1FC8246A5
:1048800004206168A0FB015003461920A9FB0071B8
:104890002A463846FBF794FC6421B0FBF1F000EBAC
:1048A000C00101EB0010AAEB8000322101EB0010E7
:1048B0006421B0FBF1F000F0F00A04206168A0FB75
:1048C000015003461920A9FB00712A463846FBF720
:1048D00077FC6421B0FBF1F00AEB001A0420616858
:1048E000A0FB017003461920A9FB005001463A467F
:1048F0002846FBF765FC074604206168A0FB0150D1
:1049000003461920A9FB00B12A465846FBF758FC7C
:104910006421B0FBF1F000EBC00101EB0010A7EB4C
:104920008000322101EB00106421B0FBF1F000F0B7
:104930000F00504421688860BDE8F88F00100140E6
:1049400000140140014691F8390021282CD18868D3
:10495000B0F5805F0FD10A6A1088C0F308000B68B9
:104960005860086918B9086A801C086209E0086A7A
:10497000401C086205E00B6A581C086218780B6836
:104980005860C88C401E80B2C88458B90868C06896
:1049900020F080000B68D8600868C06840F04000D4
:1049A0000B68D860002070470220FCE710B5002398
:1049B000044A0549054800F02BF80448FEF780F842
:1049C00010BD000068060020D00400205004002024
:1049D00008B50D48FEF774F80B4800680068C0F38E
:1049E000001080B100BF00200090074800680068F8
:1049F0000090054800684068009000BF00BF032198
:104A00000248FDF7CFF908BD9004002000080240DD
:104A10002DE9F84306460F4614461D464FF00008A0
:104A200030680068C0F30010002833D03868006890
:104A300020F001003968086000BF00200090306855
:104A40000068009030684068009000BF00BFA07A06
:104A500039684968401A00F0FF08207A68B10020E0
:104A60002072628930462168FEF7FEF96089404570
:104A700010D17DB16068A8470CE0012020726289E6
:104A800030466168FEF7F0F96089404502D10DB10A
:104A90002068A847BDE8F88300BFFEE710B51420E2
:104AA00001F0CEFB1B490860142001F0C9FB194935
:104AB000486019480068C06840F01000164909684D
:104AC000C860002013490872142048810846142247
:104AD00001681148FEF7C8F9122001F0B1FB0F4937
:104AE0000860122001F0ACFB0C4948600C480068DB
:104AF000C06840F010000A490968C86000200749F2
:104B00000872122048810846122201680448FEF704
:104B1000ABF910BD28060020900400206806002094
:104B20005004002003B401984100009850EAC120CD
:104B300018BF04204A0D18BF40F0010040F2FF7278
:104B4000B2EB515F08BF40F00200012808BF05200A
:104B500002B0704702480068C0F3022070470000AE
:104B60000CED00E010B5002804DB0A07130E054A1F
:104B7000135406E00A07140E034A00F00F031B1F2C
:104B8000D45410BD00E400E018ED00E00000000087
:104B900010B5B94A2DED020B2DED0C8B82B00F999B
:104BA00021F000409FEDB6CB904232DBA0F14053A4
:104BB0000E9AA3F17F631A439FEDB38B14D0B449CF
:104BC000884202DC1BD10E98C8B19DED0E0B53EC50
:104BD000102B51EC100BFBF748FB41EC100B02B013
:104BE000BDEC0C8B02B010BD0029C7BFB0EE480A67
:104BF000F0EE680AB0EE4C0AF0EE6C0AEFE7012026
:104C000001F0CEFA53EC182B51EC180BFBF746FCD5
:104C10005EE0A04A9FEDA09B9FEDA1AB90425ADAC7
:104C2000A1499FEDA3BB8142A4BFB0EE4B0AF0EEB9
:104C30006B0AD4DA9DED0E0B53EC102B51EC100BDC
:104C4000FBF7BAFB41EC180B9B480621B0EE480A73
:104C5000F0EE680A784401F004FA53EC182B51EC9A
:104C6000100BFBF7A9FB41EC1C0B9448B0EE480A73
:104C7000F0EE680A0421784401F0F3F953EC182BA4
:104C800051EC100BFBF798FB53EC192BFBF7EDFAEB
:104C900041EC100B51EC1C0B53EC102BFBF7FEFB03
:104CA00041EC100B53EC102B9DED0E0B51EC100B47
:104CB000FBF782FB53EC1A2BFBF77BFB9DED0E1BE6
:104CC00053EC112BFBF775FB53EC1B2BFBF771FB24
:104CD00041EC100B83E79FED7A8B9FED7BBB9DED45
:104CE0000E0B002953EC192B51EC100B52DAFBF789
:104CF000BCFA53EC182BFBF75FFB41EC180B744824
:104D00000621B0EE480AF0EE680A784401F0A9F9ED
:104D100053EC182B51EC100BFBF74EFB41EC1D0B29
:104D20006C48B0EE480AF0EE680A0421784401F0BD
:104D300098F953EC182B51EC100BFBF73DFB53EC9F
:104D4000192BFBF792FA41EC190B51EC180B01F0FF
:104D5000ADFA41EC180B53EC192B51EC1D0BFBF782
:104D60009DFB53EC182BFBF727FB53EC1A2BFBF79F
:104D70001DFB41EC100B51EC180B53EC102BFBF707
:104D800074FA53EC1B2BFBF717FB53EC1C2BFBF7B4
:104D900010FB9DE7FBF70DFB53EC182BFBF70CFB0F
:104DA00041EC180B01F082FA41EC1A0B00208DED5A
:104DB00000AB00909DED000B51EC1A0B53EC102B47
:104DC000FBF753FA9DED000B41EC1C0B53EC102B41
:104DD00051EC100BFBF7F0FA53EC182BFBF7E9FA48
:104DE00053EC1C2BFBF75AFB41EC1C0B3A48B0EE82
:104DF000480AF0EE680A0621784401F032F953ECD3
:104E0000182B51EC100BFBF7D7FA41EC1D0B334874
:104E1000B0EE480AF0EE680A0421784401F021F966
:104E200053EC182B51EC100BFBF7C6FA53EC192B73
:104E3000FBF71BFA41EC100B51EC1D0B53EC102B44
:104E4000FBF72CFB53EC1A2BFBF7B6FA53EC1C2B9D
:104E5000FBF70BFA41EC100B53EC102B9DED000B04
:104E600051EC100BFBF701FA53EC1B2BFBF7A4FAE8
:104E70002EE70000000000000000F03F00000000EE
:104E8000182D4454FB2109400000000000000000E0
:104E90000000F07F0000E03F000000000000F03F55
:104EA000075C143326A6913C0000603C0000000023
:104EB000182D4454FB21F93F181700002617000055
:104EC000000000000000E03F000000000000004083
:104ED00062160000701600007415000082150000B4
:104EE00070B59D482DED020B2DED068B079D25F02D
:104EF0000044A0421DDC9948844202DC0FD1069890
:104F000068B19DED060B53EC102B51EC100BFBF729
:104F1000ACF9BDEC068B02B041EC100B70BD002D5E
:104F2000CCBF9FED8F0B9FED900BBDEC068B02B0BD
:104F300070BD8F48A04215DD8E48A042D8BF4FF00B
:104F4000FF3458DD9DED060B51EC100BFFF7EAFD29
:104F5000042808BF01F004F99DED060BBDEC068B9B
:104F600002B070BD9DED060B51EC100B01F026F95F
:104F7000CDE9060180489FED828BA0423CDD82484E
:104F8000A0421FDD00249FED82AB9DED060B53EC8C
:104F90001A2B51EC100BFBF768F99DED060B41EC59
:104FA000190B53EC1A2B51EC100BFBF705FA53ECD1
:104FB000182BFBF7FBF953EC192BFBF76FFACDE934
:104FC000060149E09DED060B012453EC182B51EC32
:104FD000100BFBF74AF99DED060B41EC190B53EC56
:104FE000182B51EC100BFBF7E1F953EC192BFBF7E5
:104FF00055FACDE906012FE06748A0421FDD0224E3
:105000009FED679B9DED060B53EC192B51EC100B9C
:10501000FBF7D2F953EC182BFBF727F99DED060BA4
:1050200041EC180B53EC192B51EC100BFBF7BEF9AC
:1050300053EC182BFBF732FACDE906010CE09DED9D
:10504000060B032453EC102B9FED570B51EC100B68
:10505000FBF724FACDE906019DED060B53EC102B6E
:1050600051EC100BFBF7A8F941EC180B53EC182B83
:10507000FBF7A2F941EC190B4D480621B0EE490AA5
:10508000F0EE690A784400F0ECFF53EC182B51EC79
:10509000100BFBF791F941EC180B4648B0EE490AAA
:1050A000F0EE690A0521784400F0DBFF53EC192B80
:1050B00051EC100BFBF780F941EC100B51EC180B85
:1050C00053EC102B002C0EDAFBF7CFF89DED061BEE
:1050D00053EC112BFBF770F99DED061B53EC112BD4
:1050E000FBF767F935E0FBF7C0F89DED061B53ECC5
:1050F000112BFBF761F941EC100B2F48784400EBC2
:10510000C40090ED001B51EC100B53EC112BFBF77E
:105110004DF99DED061B53EC112BFBF747F941ECC4
:10512000100B2648784400EBC40090ED001B51ECB6
:10513000100B53EC112BFBF73CF941EC100B002D3D
:10514000A2BFBDEC068B02B070BD51EC100B81F01C
:10515000004141EC100B01E7000010440000F07F1B
:10516000182D4454FB21F93F182D4454FB21F9BF5D
:105170000000DC3F0000203E0000F33F0000000084
:10518000000000000000F03F0000E63F00000000CB
:10519000000000000000004000800340000000000C
:1051A000000000000000F83F000000000000F0BF19
:1051B00028140000DE130000681300002013000014
:1051C00070B56B4E2DED040B2DED028B82B0DDF82A
:1051D0001CC0DDE905235C422CF000411C4341EA80
:1051E000D474049D22F00040B44205D86C422C4394
:1051F00040EAD474B44210D99DED060B53EC102B49
:105200009DED040B51EC100BFBF72FF841EC100B4C
:1052100002B0BDEC028B04B070BDACF14054A4F1FF
:105220007F641C430BD0022404EAAC7444EAD274B9
:1052300005439FED518B9FED522B07D010E09DED64
:10524000040B51EC100B00F0B1FF39E0002C14BF3F
:10525000012C9DED040BDBD0022C34D0032C37D075
:105260000B439FED491B9FED4A0B0AD0B14218D169
:10527000B04209D121F0804120F080400791059093
:105280000FE0002AC4DA10E0434B7B44002C08BF37
:1052900093ED000BBCD0012C0CD0022C13D0032CAE
:1052A00016D0B04219D1002AB2DAB0EE410AF0EEBF
:1052B000610AADE793ED000B51EC100B81F000415A
:1052C00041EC100BA4E7B0EE480AF0EE680A9FE745
:1052D000B0EE420AF0EE620A9AE7401A00153C2846
:1052E000C8BF8DED000B19DCBCF1000FBEBF10F183
:1052F0003C0F9FED2B0B8DED000B0FDB9DED060B97
:1053000053EC102B9DED040B51EC100BFBF7C6F882
:1053100000F054FF00F04AFFCDE90001002C08BF67
:105320009DED000B3FF474AF012C10D0022C9FEDCB
:105330001E0B53EC102B9DED000B51EC100B0DD000
:10534000FBF734F853EC182BFBF730F8B8E701986B
:1053500080F0004001909DED000B59E7FBF726F827
:1053600053EC182BFBF725F8AAE70000000000001B
:105370000000F07F00000000182D4454FB2109407C
:10538000182D4454FB2109C0182D4454FB21F9BFAA
:10539000182D4454FB21F93F521200000000000078
:1053A0000000000000000000075C143326A6A13CAA
:1053B0002DE9F04D2DED040B2DED0E8B94B0DDE9B4
:1053C0002350259CDDF888A025F0004624F00048F5
:1053D000BAF1000F14BF0121002101EB4502FE4983
:1053E00053184A1093422AD3002814BF01230023E4
:1053F00003EB44030B44F9498B4220D358EA0001E4
:105400009FEDF79B6FD0DFF8E0B35D4503D1BAF1B4
:10541000000F05D181E0BAF1000F08BF002100D0D4
:10542000012101EB450111F5001F08D8002814BF28
:105430000121002101EB440111F5001F0AD99DED66
:10544000240B53EC102B9DED220B51EC100BFAF7B3
:105450000CFF40E00027002DBCBFE449884521DA5D
:10546000E3498845A8BF02271CDAC3451ADCE14995
:1054700001EB2851142908DDC1F1340220FA02F1B0
:1054800001FA02F282420DD108E058B9C1F11402CA
:1054900028FA02F101FA02F2424503D101F00101BA
:1054A000C1F1020756EA0A019FEDD3AB1CD1002CD3
:1054B0001ADA002D18BF022F01D0012F07D00220C9
:1054C00000F06EFE53EC1A2B51EC190B00E1022098
:1054D00000F066FE7AE041EC100B14B0BDEC0E8BD0
:1054E00004B0BDE8F08D18E09FEDC5BB9FEDC68B05
:1054F000002874D1BD48804522D105F1804010F5C7
:10550000801008BFBAF1000F07D0B3450ADC002CA9
:10551000A8BF9DED240BE0DA0DE0B0EE490AF0EEF5
:10552000690ADAE7002C06DA9DED240B51EC100B2A
:1055300081F00041CFE7B648784490ED000BCCE70E
:10554000D84550D1002C4BDA2EB186423DD1BAF16C
:10555000000F45D129E0BAF1000F16D0022000F06B
:105560001FFE53EC182B51EC180BFAF725FFCDE971
:1055700002019DED220B10EE900A8DED000B61F300
:105580001E0003909DED020BA7E78DED02BB9DED84
:10559000220B1BEE901A10EE900A8DED000B61F3BA
:1055A0001E0003909DED020B97E78DED02AB9DED84
:1055B000220B1AEE901A10EE900A8DED000B61F39B
:1055C0001E0003909DED020B87E709DA9DED220B8B
:1055D00051EC190B53EC102BFAF760FF7BE71DE041
:1055E0009DED220B79E7864218DAB4F1804F0DD099
:1055F000A4F10050B0F1FF5010D1002D0EDB9DED55
:10560000220B51EC100B00F051FE64E79DED220BD4
:1056100053EC102B51EC100B00F0BABC9DED220B9B
:1056200051EC100B00F0CAFDBAF1000FCDE91201E8
:1056300034D19FED790BDEB1A6F1E040B0F17F608F
:105640002CD1002D01DD002C0DDA002D01DD002C08
:105650001FDB002D16DA002C14DB012F08BF9FED95
:10566000700B3FF43AAFB0EE4B0AF0EE6B0A34E742
:10567000022F18BF002D0CD0012F0AD1002DFFF6EC
:105680002CAF06E0002DB8BF002C07DA012F3FF445
:1056900024AFB0EE4A0AF0EE6A0A1EE7012000EBE2
:1056A000E570049038430CD05F48002580457BDDD1
:1056B0005E495F48884513DDB0420CDB002C18DBE7
:1056C0002CE0012000F06CFD53EC1A2B51EC1A0B6E
:1056D000FAF7E4FEFFE6B34502DC002C09DC1DE02E
:1056E000864202DA002C19DA03E05E4529DD002C3F
:1056F00014DD022000F054FD53EC182B51EC180B74
:10570000FAF75AFECDE902011BEE900A8DED00BBBF
:1057100061F31E0003909DED020BDEE6022000F017
:105720003FFD00F01DFD10EE901A19EE900A8DED70
:10573000020B8DED009B61F31E0003909DED020BAB
:10574000CBE69DED220B53EC192B51EC100BFAF725
:105750002DFE9FED390BCDE90C0153EC102B9DED87
:105760000C0B51EC100BFAF727FE9FED351B53EC99
:10577000112BFAF71EFE9DED0C1B53EC112BFAF7C3
:105780001BFE9FED311B53EC112BFAF712FE9DED22
:105790000C0B41EC1A0B53EC102B51EC100BFAF7DD
:1057A0000BFE53EC1A2B00E087E0FAF705FE9FEDA5
:1057B000280B41EC1B0B53EC102B9DED0C0B51EC0B
:1057C000100BFAF7F9FD9FED240B41EC1A0B53EC8B
:1057D000102B51EC1B0B43E0FFFF1F00FFFF0F00DE
:1057E000000000000000F03F0000F03F0000F07FEC
:1057F0000000404301FCFFFF00000000000000002B
:10580000000000000000F07F0000000000000070B9
:10581000A40F000000000000000000000000008055
:10582000000000000000F0FF0000E0410000F04335
:10583000FFFFEF3F00000000000000000000D03F2D
:10584000555555555555D53F000000000000E03F27
:10585000000000604715F73FFE822B654715F73FB4
:10586000FAF7AAFD41EC1B0B9FEDFD0B53EC102B3F
:105870009DED0C0B51EC100BFAF79EFD53EC1B2B1E
:10588000FAF794FD41EC1B0B51EC1A0B53EC1B2B5C
:10589000FAF7EBFC0890CDE908519DED080B53ECAD
:1058A0001A2B51EC100BFAF781FD53EC1B2BFAF776
:1058B00080FD41EC100B00F0A5B90020B6F5801F6B
:1058C0000EDA9FEDE90B53EC102B9DED120B51EC12
:1058D000100BFAF771FDCDE912016FF034000E469E
:1058E00000EB2650A0F2FF38C6F31300E04940F069
:1058F0007F6646F040568842D8BF002409DDDD4966
:105900008142C8BF012404DC0024A6F5801608F1FA
:105910000108D948784400EBC40A13969AED000BAD
:1059200053EC102B9DED120B51EC100BFAF73EFDD2
:105930009AED000B41EC1B0B53EC102B9DED120B61
:1059400051EC100BFAF791FC41EC100B51EC190BD8
:1059500053EC102BFAF7A2FD41EC1C0B51EC1B0B86
:1059600053EC1C2BFAF728FD41EC1A0BC3488DEDC4
:105970000AAB78440A9590ED000B4FF0005040EAD6
:10598000660000EB84408DED100B00F500201190B7
:105990009AED000B53EC102B9DED100B51EC100BFE
:1059A000FAF704FD9DED121B53EC112BFAF701FDE4
:1059B00041EC100B53EC102B9DED0A0B51EC100B2E
:1059C000FAF7FAFC9DED100B41EC1D0B53EC102B7C
:1059D0009DED0A0B51EC100BFAF7EEFC53EC1B2B70
:1059E000FAF7E7FC53EC1D2BFAF7E0FC53EC1C2B09
:1059F000FAF7E2FC41EC1C0B53EC1A2B51EC1A0B9E
:105A0000FAF7DAFC41EC1B0B9D480621B0EE4B0A7D
:105A1000F0EE6B0A784400F024FBB0EE40DAF0EED2
:105A200060DA53EC1B2B51EC1B0BFAF7C5FC53EC63
:105A30001D2BFAF7C1FC9DED0A0B41EC1B0B53EC3F
:105A40001A2B51EC100BFAF710FC53EC1C2BFAF745
:105A5000B3FC53EC1B2BFAF708FC9DED0A0B41EC51
:105A60001B0B53EC102B51EC100BFAF7A5FC41EC7F
:105A70001D0B9FED85EB53EC1E2BFAF7F6FB53EC59
:105A80001B2BFAF7F2FB1090CDE910519DED100B96
:105A900053EC1E2B51EC100BFAF788FC53EC1D2B2A
:105AA000FAF784FC53EC1B2BFAF783FC9DED100BEB
:105AB00041EC1D0B53EC102B9DED0A0B51EC100B20
:105AC000FAF77AFC41EC1B0B53EC1A2B51EC1D0B33
:105AD000FAF772FC9DED100B41EC1A0B53EC102BF6
