:020000040800F2
:10000000280C00209D010008352D0008F12700086C
:10001000A92A0008D50B0008973800080000000046
:100020000000000000000000000000005132000845
:100030006D0D0008000000009131000893320008A7
:10004000B7010008B7010008B7010008B7010008B0
:10005000B7010008B7010008B7010008B7010008A0
:10006000B7010008B7010008B7010008B701000890
:10007000B7010008B7010008B7010008B701000880
:10008000A50C0008B10C0008B7010008B701000872
:10009000D90B0008B7010008B7010008B701000834
:1000A000B7010008B7010008B7010008B701000850
:1000B000B70100085D330008B7010008B701000868
:1000C000B7010008B7010008B7010008B701000830
:1000D000B7010008D9370008FD370008B70100084C
:1000E000B7010008B7010008B7010008B701000810
:1000F000B7010008B7010008B7010008B701000800
:10010000B7010008B7010008B7010008B7010008EF
:10011000B7010008B7010008B7010008B7010008DF
:10012000B7010008B7010008BD0C0008B7010008BE
:10013000B70100080000000000000000B70100083F
:100140000D0C0008B7010008B7010008B70100084E
:10015000B7010008B7010008B7010008B70100089F
:10016000B7010008B7010008B7010008B70100088F
:10017000B7010008B70100080000000000000000FF
:10018000B7010008B7010008DFF80CD000F062FBEF
:10019000004800479D4F0008280C00200648804773
:1001A00006480047FEE7FEE7FEE7FEE7FEE7FEE75C
:1001B000FEE7FEE7FEE7FEE71D33000889010008C1
:1001C0002DE9F05F0546002092469B46884606468C
:1001D000814640241BE0284641464746224600F01F
:1001E00008FA53465A46C01A914110D31146184690
:1001F000224600F0EFF92D1A67EB01084F46224620
:100200000120002100F0E6F917EB00094E41201E05
:10021000A4F10104DFDC484631462A464346BDE8E6
:10022000F09F40EA01039B0703D009E008C9121FB1
:1002300008C0042AFAD203E011F8013B00F8013BA0
:10024000521EF9D27047D2B201E000F8012B491ECC
:10025000FBD270470022F6E710B513460A46044663
:100260001946FFF7F0FF204610BD2DE9FE4F8046EE
:1002700081EA0300C00F0C46009021F0004123F0FA
:100280000045B8EB0200A94105D240462146904600
:100290001C460B46024623F00040104347D0270D72
:1002A000C7F30A00C3F30A510290401A0190402894
:1002B0006BDAC3F3130040F4801B0098924620B120
:1002C0000023D2EB030A63EB0B0B01985946C0F1F4
:1002D0004002504600F07EF906460D46504659460B
:1002E000019A00F096F910EB08006141002487EABA
:1002F000115284EAE7731A4340D0009A62B3019A1C
:10030000012A4FEA075215DC001B61EB02014FF096
:10031000004202EA0752CDE90042001C41F580117B
:1003200032462B4600F0CBF903B0BDE8F08F4046D3
:100330002146F9E7001B61EB0201001C41F5801327
:1003400000185B412018A2F5001747EB030140EAB3
:10035000D570B6196D4111E06D084FEA360645EAD1
:10036000C0754FEA0752001B61EB0201001C41F50A
:10037000801149084FEA30000019514132462B469E
:1003800003B0BDE8F04F00F08DB9009801224000A5
:100390000023D0EB020263EBE073009821464FEAA2
:1003A000E074B8EB000061EB0401E9E783F000437F
:1003B0005BE781F0004158E72DE9FE4F81EA030435
:1003C00004F0004421F0004100944FF0000B23F0B2
:1003D000004350EA01045ED052EA03045BD0C3F349
:1003E0000A54C1F30A552C44A4F2F3340194A0FB3F
:1003F0000254C1F3130141F48011C3F3130343F416
:10040000801301FB024400FB034E840A970A44EA6E
:10041000815447EA8357A4FB076802958D0A05FBC0
:1004200007854FEA932C04FB0C542705029D4FEAE5
:10043000065847EA1637B5EB08056EEB070C870E32
:10044000920E47EA811742EA8312A7FB0201B6EB3C
:100450000B0164EB00042B0D43EA0C335E1844EBF4
:100460001C50DA465146E7FB0201C5F313044FEA7C
:100470000B3343EA14534FEA0432019C43EA060368
:10048000A4F10C040294009CCDE900B400F017F92B
:1004900003B0BDE8F08F00200146F9E72DE9F04DEB
:1004A00081EA030404F0004B21F0004514464FF0AC
:1004B000000A23F0004150EA050220D054EA01026C
:1004C0001DD0C5F30A570246C5F31303C1F3130049
:1004D000C1F30A5640F4801543F48013A7EB0608D5
:1004E000101BD64608F2FD3873EB050002D308F165
:1004F000010801E092185B41B8F1000F03DA002017
:100500000146BDE8F08D00204FF480110646844678
:100510000EE0171B73EB050705D3121B63EB0503F6
:1005200006434CEA010C49084FEA300092185B413F
:1005300050EA0107EDD152EA030012D082EA04002A
:1005400083EA0501084305D0101BAB4106D2012206
:10055000002306E000224FF0004302E06FF00102AA
:1005600053101AEB06004CEB085110EB0A0041EB5C
:100570000B01BDE8F04D00F095B80EB5C10F80EA53
:10058000E0700844CA07002140F233438DE80E00B2
:100590000A460B4600F093F803B000BD01F000439B
:1005A00030B421F0004150EA010206D00A0DA2F554
:1005B0006072C1F31301002A02DC30BC00207047D6
:1005C000440F44EAC104C100E01830BC00EBC25043
:1005D00000F031B8202A04DB203A00FA02F10020B2
:1005E00070479140C2F1200320FA03F31943904071
:1005F0007047202A04DB203A21FA02F000217047DC
:1006000021FA02F3D040C2F120029140084319467A
:100610007047202A06DBCB17203A41FA02F043EA62
:10062000E07306E041FA02F3D040C2F120029140AB
:100630000843194670470029A8BF7047401C49006D
:1006400008BF20F00100704710B4B0FA80FC00FA37
:100650000CF050EA010404BF10BC704749B1CCF162
:10066000200421FA04F411FA0CF118BF01212143EE
:100670000843A3EB0C01CB1D4FEA00614FEA1020A9
:1006800042BF002010BC704700EBC350104400294B
:10069000A4BF10BC7047401C490008BF20F00100F7
:1006A00010BC704710B5002B08DA401C41F1000166
:1006B00092185B411A4301D120F0010010BD2DE9D1
:1006C000F04D92469B4611B1B1FA81F202E0B0FAC8
:1006D00080F220329046FFF77DFF04460F4640EA45
:1006E0000A0041EA0B0153465A46084313D011460B
:1006F00053EA010019D0C8F140025046FFF779FFD4
:1007000005460E46504659464246FFF763FF0843EA
:1007100005D0012004E020463946BDE8F08D0020D8
:10072000054346EAE0762C4337430A986305E40A1A
:10073000A0EB08000022FD0A44EA47540A3002D523
:1007400000200146E9E7010510196941DDE9084586
:1007500000196941BDE8F04DA4E770B521F00043F0
:1007600003430CD0C1F30A550024D5EB040564EB18
:100770000403D617AD1AB34102DB0020014670BD59
:10078000201841EB025170BD2DE9F04D00231A46AF
:100790001B1A8A4103DB00200146BDE8F08DC1F33E
:1007A0000A52C1F3130141F480154FF0000BD10739
:1007B00002D100186D41521E0027044640F2FF117D
:1007C000384601EB620A3E468046024600204FF45E
:1007D0008011FFF70EFFC2197141BB1846EB0100F3
:1007E000B4EB030C75EB000C04D3E41A65EB0005C5
:1007F00017460E46241908F101006D418046342841
:10080000E3DDF91946EB0600091BA84103D24FF0BE
:10081000FF32134601E0002213461BEB070046EBB4
:100820000A51BDE8F04DFFF73DBF000030B500298B
:1008300004DB4FF00044404264EB0101002B04DB79
:100840004FF00044524264EB0303994208BF9042C8
:1008500030BD0000064C074D06E0E06840F00103A3
:1008600094E8070098471034AC42F6D3FFF790FCA9
:10087000A0520008C05200082DE9F04704462DEDB3
:10088000048BDFED9F8AB0EE683A9FED9E8AF0EE12
:10089000482AB0EE482A9FED9C9AB0EE481AF0EE36
:1008A000480AF0EE491A9FED990A143002F044FA12
:1008B0004FF0000A84F878A0B0EE683AF0EE482ACB
:1008C000B0EE482AF0EE491AB0EE481AF0EE480AA7
:1008D000B1EE040A04F1440002F02EFA4FF49675CA
:1008E000A4F87C50012104F17A0002F025FD04F502
:1008F0008077B0EE483AF0EE482AB0EE482AF0EEA3
:10090000481AB0EE481AF0EE480AB0EE480A04F56C
:100910008A7002F011FA012687F87860B0EE483A42
:10092000F0EE482AB0EE482AF0EE481AB0EE481A27
:10093000F0EE480AB0EE480A07F1440002F0FCF974
:10094000A7F87C50012107F17A0002F0F5FC80370E
:10095000B0EE483AF0EE482AB0EE482AF0EE481AD7
:10096000B0EE481AF0EE480AB0EE480A04F5CA7034
:1009700002F0E2F94FF0020987F87890B0EE483AB9
:10098000F0EE482AB0EE482AF0EE481AB0EE481AC7
:10099000F0EE480AB0EE480A07F1440002F0CCF944
:1009A000A7F87C50012107F17A0002F0C5FC04F1A0
:1009B0008007B0EE483AF0EE482AB0EE482AF0EE52
:1009C000481AB0EE481AF0EE480AB0EE480A04F1B0
:1009D000940002F0B1F94FF0030887F87880B0EE88
:1009E000483AF0EE482AB0EE482AF0EE481AB0EE47
:1009F000481AF0EE480AB0EE480A07F1440002F047
:100A00009BF9A7F87C50012107F17A0002F094FCD1
:100A100004F50077B0EE683AF0EE482AB0EE482AC6
:100A2000F0EE491AB0EE481AF0EE480AB1EE040AA8
:100A300004F5027002F080F987F83CA0A7F8405056
:100A4000012107F13E0002F077FC8837B0EE483A0A
:100A5000F0EE482AB0EE482AF0EE481AB0EE481AF6
:100A6000F0EE480AB0EE480A04F5247002F064F98A
:100A700087F83C60A7F84050012107F13E0002F0E2
:100A80005BFC04F53376B0EE483AF0EE482AB0EE5F
:100A9000482AF0EE481AB0EE481AF0EE480AB0EED6
:100AA000480A04F5357002F047F986F83C90A6F83C
:100AB0004050012106F13E0002F03EFC04F51174A5
:100AC000B0EE483AF0EE482AB0EE482AF0EE481A66
:100AD000B0EE481AF0EE480AB0EE480A04F10800F9
:100AE00002F02AF984F83C80A4F8405004F13E005A
:100AF000BDEC048B0121BDE8F04702F01DBC0000F5
:100B000000C0DA450000000000409C459A99993EDB
:100B100070B5044600257A3002F010FC18B194F844
:100B20007800401CC5B204F5807604F5BD7002F073
:100B300005FC18B196F87800401CC5B204F5C076E3
:100B400004F5FD7002F0FAFB18B196F87800401C2D
:100B5000C5B204F1800604F1FA0002F0EFFB18B10F
:100B600096F87800401CC5B204F5007604F23E20E9
:100B700002F0E4FB18B196F83C00401DC5B204F544
:100B8000227604F2C62002F0D9FB18B196F83C0098
:100B9000401DC5B204F5337604F20A3002F0CEFBF4
:100BA00018B196F83C00401DC5B204F5117604F268
:100BB000822002F0C3FB18B196F83C00401DC5B27C
:100BC00084F81C53002D04D02046BDE8704001F08D
:100BD00011BE70BDFEE7000010B588B0084800F0F7
:100BE0003CFA084B6A461C460021054800F0C1F952
:100BF00021460548009A01F0BEFF08B010BD000074
:100C000094030020770300202800002010B588B04E
:100C1000084800F022FA084B6A461C4600210548A5
:100C200000F0A7F921460548009A01F087FF08B0B7
:100C300010BD0000BC030020870300202800002016
:100C400010B504460F480E2200218AB0844201D11B
:100C5000059100E005920120039101910291CDE9F7
:100C60000802CDE90610009104916946204600F083
:100C7000F9F8204600F002FC0221204600F07BF843
:100C80000AB010BD94030020D0F86813044A491C30
:100C9000C0F86813914202D90021C0F86813704768
:100CA00020A10700014800F02FBC0000180500201B
:100CB000014800F029BC000078050020014800F040
:100CC00023BC0000B804002001681823CAB2103AFF
:100CD000B2FBF3F2054B6FF30901032A9B5CC3657A
:100CE00000D9091D816508467047000008510008B9
:100CF00010B5014600208B698A6A4FF0C07453B169
:100D0000B3F5005F15D072B1012A0CD0022A0AD0C7
:100D1000032A09D104E01AB1012A06D0022A03D11C
:100D2000C96AC90100D5012010BDC96AA142FAD023
:100D300010BD002AF7D0012AF2D0022AF3D0032AEC
:100D4000F3D010BD30B50468256825F480252560F2
:100D5000046863608368402B036803D0996000686F
:100D6000C26030BD9A600068C16030BD7047704796
:100D700000214180704790F82020012A07D0022AE4
:100D800005D0416A41F4802141620120704700682A
:100D900042690A43426100207047F0B590F8205044
:100DA0000468A468012D05D0022D03D0416A41F4E6
:100DB000802153E014F0406F01D1E5004BD5C4F31E
:100DC0000164022C03D9416A41F4000146E0012587
:100DD000A5401D608D684FF4C0739DB1CE6835434A
:100DE0004E6845EAC605066803EB0417F5514FF453
:100DF000C275076805EB04150E697E51097D01294E
:100E000005D009E00E88CD6845EA4655EBE7016854
:100E10004E5946F480764E511179D2F805504FF470
:100E2000C67641EA0525016806EB04168D51117856
:100E3000D2F801204FF4C47541EA0221026805EBA3
:100E400004155151006803EB0411425842F00102AD
:100E500042500020F0BD416A41F40011416201207E
:100E6000F0BD000010B590F82020012A07D0022A1A
:100E700005D0416A41F480214162012010BD3B4808
:100E8000D0F8002242F00102C0F80022D0F800227F
:100E900022F47C52C0F80022D0F800224B6A42EAC9
:100EA0000322C0F800220A7D02F01F0301229A40AB
:100EB000D0F81C329343C0F81C32CB69B3B9D0F8D8
:100EC0000C329343C0F80C328C894B6864F31F4397
:100ED0004C6900EBC404C4F840320C890B6864F31D
:100EE0001F434C6900EBC404C4F84432CB69012BA6
:100EF00016D1D0F80C321343C0F80C320C884B6872
:100F000064F31F434C6900EBC404C4F840320C89FD
:100F1000CB6864F31F434C6900EBC404C4F844324B
:100F20008B69002BD0F804320ED01343C0F8043282
:100F30000B69002BD0F8143208D01343C0F81432D8
:100F4000096A012904D008E09343EFE79343F5E7EA
:100F5000D0F81C121143C0F81C12D0F8001221F076
:100F60000101C0F80012002010BD00000064004024
:100F7000704730B590F82040012C05D0022C03D0EA
:100F8000416A41F480215DE00468002955D024695C
:100F9000A40754D04FF4D874056804EB01142D59FC
:100FA00015F00405956005682D594ED0ED08556083
:100FB00005682C5904F00204D4604FF4DA74056813
:100FC00004EB01142D5905F00F05156105682D5925
:100FD000C5F30725956105682C59240C54614FF41D
:100FE000DC72046802EB0112A4581C700468A45857
:100FF000240A5C700468A458240C9C700468A258ED
:10100000120EDA704FF4DE72046802EB0112A4587B
:101010001C710468A458240A5C710468A458240C48
:101020009C710468A258120EDA71006881B10169DE
:1010300041F020010161002030BDE468A8E7416A69
:1010400041F400114162012030BD6D0D1560AFE724
:10105000C16841F02001C160EDE72DE9F05F054670
:10106000006800244669D0F804908768D0F80CB076
:10107000D0F810A0D0F81880F10748D0F90714D0A4
:1010800001218160B80703D5284600F024FA0CE05E
:10109000780702D54FF4006407E0380702D54FF413
:1010A000805402E0284600F015FAF80516D52968A4
:1010B0004FF480708860B80503D5284600F00DFA1B
:1010C0000CE0780502D544F4005407E0380502D559
:1010D00044F4804402E0284600F0FEF9F80316D5F7
:1010E00029684FF480308860B80303D5284600F0A3
:1010F000F6F90CE0780302D544F4004407E0380325
:1011000002D544F4803402E0284600F0E7F93007C5
:1011100007D55FEACB6004D52968102044F4007439
:10112000C86070074FF0080707D55FEA0B7004D559
:101130002868C760284600F09BF9B00706D52868E4
:10114000C068800702D0284600F093F9700607D5E2
:101150005FEACA6004D52968102044F480640861FD
:10116000B00607D55FEA0A7004D5286807612846EB
:1011700000F080F9F00606D528680069800702D0E3
:10118000284600F078F9B00308D55FEAC96005D5B4
:10119000296810204860284600F06EF9F00307D552
:1011A0005FEA097004D528684760284600F098F97E
:1011B000300446D55FEA497040D5F00504D55FEAB2
:1011C000C87001D044F00104B00504D55FEA88700E
:1011D00001D544F00204700504D55FEA487001D5DA
:1011E00044F00404300529D518F0700F26D008F01B
:1011F0007000402815D006DC102809D020280AD01D
:10120000302816D10AE050280ED0602811D10EE007
:1012100044F008040DE044F010040AE044F0200417
:1012200007E044F0400404E044F0800401E044F4AA
:1012300080742868816921F0700181612968042027
:101240004860002C05D0686A204368622846FFF792
:101250008FFEBDE8F09F70B5040003D094F8200025
:1012600010B104E0012070BD204600F081F8206834
:10127000016821F00201016000F0A0FB054605268F
:1012800004E000F09BFB401B0A2811D8206840684E
:101290008007F6D42068016841F00101016000F088
:1012A0008DFB05460BE000F089FB401B0A2806D9A0
:1012B000606A40F40030606284F82060D2E7206801
:1012C0004068C007EFD0207E0128206801683DD02B
:1012D00021F080010160607E01282068016838D01B
:1012E00021F040010160A07E01282068016833D010
:1012F00021F020010160E07E0128206801682ED0E5
:1013000041F010010160207F01282068016829D088
:1013100021F008010160607F01282068016824D065
:1013200021F004010160D4E902010843D4E9041268
:10133000114308436168491E08432168C8610020C1
:101340006062012084F82000002070BD41F080011F
:10135000C0E741F04001C5E741F02001CAE721F0B4
:101360001001CFE741F00801D4E741F00401D9E7CB
:10137000F0B587B0044614216846FEF76BFF374B83
:101380003748DFF8D4E01968D4F800C0344A0225A1
:101390000326092710300024491CF44524D1196084
:1013A000012907D1016841F000710160006800F077
:1013B00000700590106840F001001060106802ABEA
:1013C00000F0010005904FF4C050CDE9000583E81E
:1013D000D0006946234800F009FA00221146142083
:1013E00000F05AFB142032E0DFF87CE0F44530D105
:1013F000D0F800C04CF0806CC0F800C0D0F800C03D
:1014000001290CF0806CCDF814C0196007D1016877
:1014100041F000710160006800F0007005901068F4
:1014200040F002001060106802AB00F0020005906E
:101430006020CDE9000583E8D00069460B4800F044
:10144000D5F900221146402000F026FB402000F094
:1014500015FB07B0F0BD000000640040080000204C
:1014600030380240000002400068004000040240A2
:1014700070477047704770477047000070B504466A
:1014800090F82000012804D0606A40F400206062D7
:1014900018E0022084F820002068016821F0010192
:1014A000016000F08BFA05460EE000BF00F086FAFE
:1014B000401B0A2808D9606A40F4003060620520A9
:1014C00084F82000012070BD20684068C007EDD17D
:1014D000606270BD704770477047704770477047D3
:1014E000704790F83510022903D080214165012012
:1014F0007047052180F835100068016821F001016E
:1015000001600020704700002DE9F84304464FF0C9
:101510000009CDF8009063484FF41651A56D00689E
:10152000B0FBF1F72E6894F85C10082000FA01F186
:1015300031420FD021680A6852070BD50A6822F0A1
:1015400004020A6094F85C108840A860606D40F066
:101550000100606594F85C104FF0010808FA01F092
:10156000304208D021684969090604D5A860606D39
:1015700040F00200606594F85C100420884030421E
:1015800008D021680968890704D5A860606D40F01B
:101590000400606594F85C1010208840304218D038
:1015A00021680968090714D5A86020680168490303
:1015B00004D50068000308D5A16C07E00168C905DF
:1015C00003D4016821F008010160216C09B12046B3
:1015D000884794F85C1020208840304231D0216840
:1015E0000968C9062DD5A86094F83500052820683B
:1015F000016806D0490347D5006800031DD4616C1B
:101600001CE021F0160101602068416921F0800191
:101610004161206C08B9A06C20B12068016821F0FC
:101620000801016094F85C103F208840A86084F8AD
:10163000349084F83580216D1FE0E16B09B12046BC
:101640008847606D00282BD0606DC00714D005203E
:1016500084F835002068016821F0010101600098DC
:10166000401C0090B84203D820680068C007F6D13B
:1016700084F8349084F83580E16C002910D001B0F2
:101680002046BDE8F04308470168C905D5D4016884
:1016900021F01001016084F8349084F83580CCE7A3
:1016A000BDE8F883180000202DE9F041044600F061
:1016B00085F906465CB1002584F83450022084F890
:1016C00035002068016821F0010101600DE0012072
:1016D000BDE8F08100F072F9801B052805D92020B3
:1016E0006065032084F83500F2E720680068C007D1
:1016F000F0D12268116820480140D4E90103184361
:10170000D4E903363343184363691843A369184384
:10171000E3691843236A18430843616A042903D123
:10172000D4E90B1319430843106020684069666AC6
:1017300020F0070130460E43012704280CD1A06A8F
:101740000643E06A40B12046FFF7D2FA20B14020BC
:10175000606584F83570BAE7206846612046FFF777
:10176000B3FA94F85C203F2191408160656584F86C
:1017700035700020ACE700003F8010F02DE9F0410B
:101780000446866D90F83400002501280DD0012014
:1017900084F8340094F835700020012F07D084F8C5
:1017A000340002252846BDE8F0810220FBE702272D
:1017B00084F8357060652046FFF7C4FA94F85C1031
:1017C0003F208840B0602068016841F01601016048
:1017D000206C20B12068016841F008010160206898
:1017E000016841F001010160DCE700002DE9F84FDC
:1017F00000224FF0010803254FF00F0E0B6808FA86
:1018000002F42340A3426ED14E68012E05D0022E71
:1018100003D0112E01D0122E12D186684FEA420C4D
:1018200005FA0CF7BE43CF6807FA0CF73743876019
:101830004668A6430C79C4F30014944034434460D2
:10184000C668570005FA07FC8C6826EA0C06BC40FF
:101850003443C4604C68022C01D0122C13D1D4083C
:1018600000EB8404A346D4F8209054074FEAD46ACE
:101870000EFA0AF629EA06090E6906FA0AF646EA97
:101880000906CBF8206006680C7926EA0C0604F0FD
:101890000304BC40344304604C68E40065D5364C16
:1018A000266846F480462660246822F0030604F485
:1018B00080440094314C3444A446D4F80848960738
:1018C000370F0EFA07F6B4432D4EB04201D1002671
:1018D00024E02C4EB04201D101261FE02A4EB04236
:1018E00002D102261AE040E0284EB04201D1032680
:1018F00014E0274EB04201D104260FE0254EB0423D
:1019000001D105260AE0244EB04201D1062605E0A9
:10191000224EB04201D1072600E00826BE402643F1
:10192000CCF808681E4E34684F689C43FF0300D50E
:101930001C4334601A4C241D26684F689E43BF0325
:1019400000D51E432660164E083634684F689C4307
:10195000FF0200D51C433460114E0C3634684F68CA
:101960009C43BF0200D51C433460521C102AFFF474
:1019700045AFBDE8F88F0000443802400030014018
:10198000000002400004024000080240000C024037
:10199000001002400014024000180240001C0240E7
:1019A000003C0140426931EA020200D10904816130
:1019B00070470AB1816170470904FBE701488068FC
:1019C000704700000C000020024881680278114432
:1019D000816070470C0000200B4810B5016841F48D
:1019E00000710160016841F480610160016841F4A7
:1019F00080710160032000F06FF8002000F006F80D
:101A000000F024F8002010BD003C024070B50D4DE0
:101A100004464FF47A712878B1FBF0F00A4909685E
:101A2000B1FBF0F000F002FB48B9102C07D2002205
:101A30002146501E00F030F800206C6070BD01207F
:101A400070BD00000C000020180000200A4808B5F6
:101A5000016841F480410160006800F4804000901A
:101A60000548001F016841F080510160006800F0E6
:101A70008050009008BD000044380240002809DB77
:101A800000F01F02012191404009800000F1E02098
:101A9000C0F8001170470000F0B40E4B1B680C46F4
:101AA000C3F30223C3F10705042D00D90425191D32
:101AB000072901D2002300E0DB1E012606FA05F10A
:101AC000491E214099409E40761E16403143F0BC8D
:101AD00001F032BF0CED00E0064900F00702086893
:101AE0004FF6FF03184040EA0220034A1043086003
:101AF000704700000CED00E00000FA052DE9F0470A
:101B00000E46050065D0DFF81481D8F80000F7B262
:101B100000F00F00B04207D288F80070D8F800003B
:101B200000F00F00B04254D128683D4C810712D517
:101B3000400703D5206840F4E05020602878000773
:101B400003D5206840F4604020602068A96820F038
:101B5000F000084320602878C0072DD0304968681D
:101B60000839012812D0022813D0032811D009689F
:101B7000890700292DDA216821F003010143216042
:101B8000FFF71CFF814641F2883A0EE0096889039D
:101B9000EFE709688901ECE7FFF710FFA0EB090107
:101BA000514502D90320BDE8F0872068696800F03C
:101BB0000C00B0EB810FEFD1D8F80010404601F0D7
:101BC0000F01B14207D90770006800F00F00B04262
:101BD00001D00120E7E72878400705D52068E968AB
:101BE00020F4E050084320602878000706D52068DC
:101BF000296920F4604040EAC100206000F038F814
:101C00002168084AC1F30311515CC84006490860C5
:101C100006480068FFF7FAFE0020C4E7003C0240D7
:101C20000838024010510008180000201000002061
:101C30000448054900680968044AC1F38221515CDF
:101C4000C8407047180000200838024020510008A2
:101C50000448054900680968044AC1F34231515CEF
:101C6000C840704718000020083802402051000882
:101C7000154810B5006810F00C02144813D041103C
:101C8000042A0FD0082A0ED10F4C241F2268236883
:101C900002F03F025B0207D52068C0F38810A0FB6A
:101CA000010106E0084610BD2168C1F38811A1FBBF
:101CB00000010023FEF784FA2168C1F30141491CA9
:101CC0004900B0FBF1F010BD083802400024F400D8
:101CD0002DE9F84F04006ED02078DFF83C93C00760
:101CE000A9F104054AD009F104000168C1F381019A
:101CF000012908D00068C0F3810002280AD1D9F870
:101D00000000400206D52868800337D560680028A7
:101D1000E1D033E06068B0F5803F10D0B0F5A02F7F
:101D2000286810D020F480302860286820F48020B3
:101D300028606068A8B1FFF741FE06460DE02868FC
:101D400040F48030F4E740F480202860F7E700BFDB
:101D5000FFF734FE801B642873D828688003F7D50A
:101D60000CE0FFF72BFE064605E000BFFFF726FE5E
:101D7000801B6428F0D828688003F7D42078DFF827
:101D80009C8280074FF0000A3ED5A348001D0168E1
:101D900011F00C0F08D00068C0F3810002280BD1AD
:101DA000D9F80000400207D42868800716D5E068FB
:101DB000012800D112E02BE1E068B8B10120C8F899
:101DC0000000FFF7FBFD064605E000BFFFF7F6FD4C
:101DD000801B0228C0D828688007F7D528682169A9
:101DE00020F0F80040EAC10028600DE0C8F800A02B
:101DF000FFF7E4FD064604E0FFF7E0FD801B022844
:101E00001FD828688007F7D42078000722D5824E93
:101E100083486169703671B101210160FFF7CEFD21
:101E2000074604E0FFF7CAFDC01B022809D8306846
:101E30008007F7D50EE0C0F800A0FFF7BFFD07460A
:101E400005E082E0FFF7BAFDC01B02287DD83068AC
:101E50008007F7D42078400768D5DFF8BCB10027A9
:101E60000BF13C0BDBF80000C0000BD4DBF80010DA
:101E700041F08051CBF80010DBF80000012700F0A2
:101E800080500090674E3068C00510D4306840F430
:101E900080703060FFF792FD009005E0FFF78EFD47
:101EA0000099401A022850D83068C005F6D55A4E1D
:101EB000A0686C3601280FD00528306810D020F0BB
:101EC00001003060306820F004003060A068B8B1D4
:101ED000FFF774FD00900FE0306840F00100F4E778
:101EE00040F004003060F7E7FFF768FD0099411A01
:101EF00041F28830814266D830688007F4D50EE020
:101F0000FFF75CFD009007E0FFF758FD0099411ACC
:101F100041F28830814256D830688007F4D42FB11E
:101F2000DBF8001021F08051CBF80010A069C8B395
:101F30003949091D0968C1F3810102294AD00228E3
:101F4000504607D0C8F8600000E03CE0FFF736FDDF
:101F500004463BE04746C8F86000FFF72FFD064601
:101F600005E000BFFFF72AFD801B02282BD8286858
:101F70008001F7D4D4E907010843A16A2A4A490835
:101F800002EB0141626A41EA8211084394F82C1085
:101F900040EA0161C9F8001001203866FFF70EFD24
:101FA000044606E036E000BFFFF708FD001B0228EC
:101FB00009D828688001F7D52CE000BFFFF7FEFCA8
:101FC000001B022802D90320BDE8F88F2868800191
:101FD000F4D41FE00128F7D0D9F80000E26900F43A
:101FE0008001914214D1226A00F03F0191420FD149
:101FF00047F6C071626A0140914209D1A26A00F4B9
:102000004031914204D1E16A00F07060884201D011
:102010000120D9E70020D7E70438024000004742FA
:10202000800E4742007000400000FFFF10B5401EC8
:10203000B0F1807F01D3012010BD4FF0E02460613A
:102040000F21601701F078FC0020A06107202061BB
:10205000002010BD7047704770B590F83C20012AF1
:1020600032D0012480F83C40022280F83D200368F1
:102070005A689D6822F070060A6832435A60134B12
:1020800002689A4214D0B2F1804F11D0104B9A429C
:102090000ED0104B9A420BD00F4B9A4208D00F4BE8
:1020A0009A4205D00E4B9A4202D00E4B9A4204D16E
:1020B000496825F080031943916080F83D40002174
:1020C00080F83C10084670BD022070BD0000014041
:1020D0000004004000080040000C004000040140E3
:1020E000004001400018004010B5040003D094F8EF
:1020F0003D0010B107E0012010BD002084F83C0035
:10210000204600F00DF8022084F83D00211D2068D3
:1021100001F046F9012084F83D00002010BD0000C8
:1021200008B500680B49884212D10B48016841F09C
:10213000020101600068002200F0020000901146D8
:102140001D20FFF7A9FCBDE808401D20FFF796BC45
:1021500008BD000000040040403802400168CA6821
:1021600042F00102CA600068816801F00701062997
:1021700003D0016841F0010101600020704770B593
:10218000044690F83C00012817D0012584F83C5003
:10219000022084F83D002068826822F0770222F451
:1021A0007F4282600868502830D00DDC20284DD056
:1021B00005DC98B310283BD148E0022070BD3028E0
:1021C00044D0402834D139E0602828D0702806D087
:1021D000B0F5805F2CD0B0F5005F29D10AE0CB6864
:1021E000D1E90121206801F03FF92068816841F0C0
:1021F000770109E0CB68D1E90121206801F034F9C9
:102200002068816841F48041816011E0CA684968B2
:10221000206801F03BF95021206807E016E0CA6809
:102220004968206801F043F96021206801F026F92F
:1022300084F83D50002084F83C0070BDCA684968AD
:10224000206801F023F940212068EFE72268014669
:102250001046EBE7704770B50446006801694FF01F
:102260000005C943890715D4C168C943890711D43A
:10227000E91E0161012020772068806980072046DF
:1022800002D0FFF7E7FF04E000F098F8204600F0E6
:1022900096F8257720680169C943490717D4C168B2
:1022A000C943490713D46FF004010161022020776C
:1022B0002068806910F4407F204602D0FFF7CAFFF3
:1022C00004E000F07BF8204600F079F825772068DC
:1022D0000169C943090716D4C168C943090712D463
:1022E0006FF008010161042020772068C069800731
:1022F000204602D0FFF7AEFF04E000F05FF8204672
:1023000000F05DF8257720680169C943C90617D434
:10231000C168C943C90613D46FF0100101610820D8
:1023200020772068C06910F4407F204602D0FFF774
:1023300091FF04E000F042F8204600F040F82577D5
:1023400020680169C943C90708D1C168C943C907E1
:1023500004D1891E0161204600F032F8206801692D
:10236000C943090609D4C168C943090605D46FF0F9
:10237000800101612046FFF76DFE20680169C943B5
:10238000490609D4C168C943490605D46FF0400124
:102390000161204600F015F820680169C9438906EB
:1023A0000BD4C168C943890607D46FF020010161CD
:1023B0002046BDE87040FFF74EBE70BD70477047C5
:1023C000704770477047000070B502680446106897
:1023D000D168536910F00F0F53D003F0010501F4D9
:1023E00090762E435FD0C20705D0CA0503D5E26BB5
:1023F00042F00102E263420705D5DA0703D0E26B3F
:1024000042F00202E263820705D5DA0703D0E26BED
:1024100042F00402E263020707D501F020022A43DA
:1024200003D0E26B42F00802E263E26B002A34D090
:10243000800604D5880602D5204601F0CDF8206834
:102440004069E16BC0F3801001F0080101432046B0
:1024500024D001F0AAF82068416949061AD54169DB
:1024600021F040014161606BA0B11B490165606BC7
:10247000FFF737F8002810D0606B016DBDE87040A1
:10248000084783060FD58B060DD52046BDE8704062
:1024900001F0A2B82046FFF795FF70BDFFF792FF4D
:1024A0000020E06370BD030606D50B0604D5204668
:1024B000BDE8704001F05EB94006F3D54806F1D59D
:1024C000D168204621F04001D160202184F83910E4
:1024D00000F08CF970BD0000D334000870B5040022
:1024E00004D094F83900002510B106E0012070BD39
:1024F00084F83850204600F023F8242084F839006E
:102500002068C16821F40051C160204601F0B0F894
:102510002068016921F4904101612068416921F03E
:102520002A0141612068C16841F40051C160E5633E
:10253000202084F8390084F83A00002070BD0000A3
:102540002DE9F04387B0064614216846FDF782FE68
:10255000DFF840C1022231684F4803230725DFF826
:102560003C81002497064FF48069614537D14A4980
:102570001431D1F800C04CF0100CC1F800C009684B
:1025800001F010010591016841F00101016000684E
:10259000694600F00100059058028DE81500CDE96C
:1025A00003354046FFF722F93E4D3D482860C5E916
:1025B0000174C5E903496C61AC61EC612C62284689
:1025C0006C62FFF771F808B1FEF7D1FB756300226A
:1025D00011462520AE63FFF75FFA252054E0DFF8AF
:1025E000C8C0614552D12C491031D1F800C04CF41B
:1025F000003CC1F800C0096801F400310591016890
:1026000041F0010101600068694600F00100059099
:102610000C208DE81500CDE903354046FFF7E6F8BC
:10262000204D22486035B8462860C5E90174C5E9E7
:1026300003496C61AC61EC612C624F4628466C62C8
:10264000FFF732F808B1FEF792FB7563AE63154DE4
:102650001648C0351830E5E80208402091C51148F9
:1026600045F81449C030AC61EC612C626C62FFF734
:102670001BF808B1FEF77BFB3563002211462620CC
:10268000AE63FFF709FA2620FFF7F8F907B0BDE8B7
:10269000F08300000010014030380240000002408A
:1026A00040640240B80400200044004088600240BA
:1026B000F8B5044690F83A0020283CD1C1B3BAB32B
:1026C00094F83800012836D0012084F83800A1623F
:1026D000A2850025E563222084F83A00636B174841
:1026E000D863636B16481864636B1648D864606BD4
:1026F000134605650846666B216802463046091D8B
:10270000FFF73CF8206801684168009184F8385070
:10271000C16841F48071C1602068416941F00101E4
:1027200041612068416941F0400141610020F8BDEC
:10273000FFE70120FBE70220F9E700002D35000844
:1027400069350008E334000800680449884204D170
:10275000142203490348FFF7ABBF70470044004011
:1027600024040020780400207047000070B504465F
:1027700090F83900202830D169B362B394F838005A
:1027800001282AD0012084F838002162A284E28442
:102790000025E563212084F83900236B1048D863B5
:1027A000236B10481864236B0F48D864206B1346C2
:1027B00005652668206B321DFEF7E0FF21686FF08B
:1027C0004000086084F838502068416941F0800179
:1027D0004161002070BD012070BD022070BD00006D
:1027E00073350008A1350008E334000870477047CE
:1027F000FEE7000070B5174C90F81C1300252278F6
:10280000914200D12570D0F8680340F6B831B0FB92
:10281000F1F201FB12002178A1EB011101EB810122
:1028200000EB81010C48642906D201220221FFF746
:10283000C0F8607840B970BD00220221FFF7B9F8F6
:10284000607808B9012060702078401C20706570A5
:1028500070BD00000000002000080240104810B5C4
:102860000E4901600321416000214FF4C0228160C4
:10287000C0E903124FF4A0024261017641768176ED
:102880000122C27601774177FEF7E5FC002803D0EC
:10289000BDE81040FEF76BBA10BD000000640040B8
:1028A00094030020104810B50E49016003214160D7
:1028B00000214FF4C0228160C0E903124FF4A0024E
:1028C00042610176417681760122C27601774177B5
:1028D000FEF7C1FC002803D0BDE81040FEF747BA60
:1028E00010BD000000680040BC030020154808B57A
:1028F000016841F400110160016801F400110091C8
:10290000016841F4800101600068002200F4800049
:10291000009011461020FFF7BFF81020FFF7AEF827
:10292000002211461120FFF7B7F81120FFF7A6F893
:10293000002211463A20FFF7AFF8BDE808403A20E0
:10294000FFF79CB83038024030B587B01421684694
:10295000FDF780FC19480024016841F08001016006
:10296000016801F080010591016841F004010160F6
:10297000016801F004010591016841F00101016065
:10298000016801F001010591016841F00201016057
:1029900000680B4D00F0020005900122032128463B
:1029A000FFF707F8032000900120CDE901046946F4
:1029B00028460394FEF71AFF07B030BD30380240B6
:1029C0000008024010B586B0002417480094019416
:1029D0000294039404941349059401605321C0E9BF
:1029E000011440F2E731C0E9031480218161FFF74F
:1029F0007BFB08B1FEF7BBF94FF4805000906946AD
:102A00000948FFF7BCFB08B1FEF7B1F9049404A92B
:102A100005480594FFF720FB002801D0FEF7A7F931
:102A200006B010BD00040040E40300200E4810B5BD
:102A30000C4901600D4941604FF4805181600021D3
:102A40004FF48062C0E903120422C0E90521C1618C
:102A5000FFF744FD002803D0BDE81040FEF787B91A
:102A600010BD00000010014038040020A0860100C5
:102A70000C4810B50A4901604FF4E1314160002172
:102A800081600C22C160C0E904128161C161FFF75D
:102A900025FD002803D0BDE81040FEF768B910BD41
:102AA0000044004078040020FEE7000010B51C4BF5
:102AB00042681A441B4B9A4201D30022426010EE36
:102AC000104A194B9FED191ADFED191A194A9C4249
:102AD00013DA10EE104A94420FD200BF80EE012AA2
:102AE00090ED011AB8EEC11A22EE210A31EE000A69
:102AF00080ED1D0AC1ED0E0A10BD10EE104A9FEDCB
:102B00000E2AF1EE600A9C4202DB30EE420AE5E753
:102B100010EE103A9342EFD330EE020ADEE70000E7
:102B200020A1070041420F000000B4420000B4435E
:102B3000000090480000B4C20000344310B5A2F574
:102B40000072013A06D0012A0ED0022A0FD0032AC1
:102B500010D1803004000DD000F01CFB04F17A008D
:102B6000BDE81040FEF704B900F58070F2E700F50B
:102B7000C070EFE710BD10B5A2F50072013A08D0A1
:102B8000012A09D0022A13D0032A14D100F51170AA
:102B900004E000F5007001E000F5227004000AD0A6
:102BA00000F06EFB04F13E00BDE81040FEF7E0B817
:102BB00000F53370F2E710BD10B504462DED068B1D
:102BC000D0F81403FDF7D9FC41EC100B9FED509B9E
:102BD000B0EE491AF0EE691A01F0CEFAB0EE408A72
:102BE000F0EE608AD4F81003FDF7C7FC41EC100B3F
:102BF000B0EE491AF0EE691A01F0BEFA53EC182B48
:102C000051EC100BFDF731FB41EC100B02F0D0F84A
:102C100051EC100BFDF7C2FC08EE100A9FED3E0BC5
:102C200000F09AFE53EC192B51EC100BFDF7C4FB8E
:102C300041EC190BD4F81403FDF79FFC41EC1A0B7F
:102C4000D4F81003FDF799FC41EC100BB0EE4A1AD2
:102C5000F0EE6A1A01F098F953EC192B51EC100BB5
:102C6000FDF71CFC9FED2E1B53EC112BFDF7A4FB75
:102C7000FDF794FC00EE100ADFED2B0A84EDC60A86
:102C8000B5EEC00AF1EE10FA03D230EE200A84ED60
:102C9000C60A94ED021A254970EE412A12EE900AF6
:102CA000884202D972EEA02A06E012EE900A20496C
:102CB000884201DD72EEE02AF0EE480A04F5007168
:102CC0002046B0EE620AFFF7F1FEF0EE480AB0EEE1
:102CD000620A04F5227104F58070FFF7E7FEF0EE5A
:102CE000480AB0EE620A04F5337104F5C070FFF7CC
:102CF000DDFEF0EE480ABDEC068B04F5117104F11F
:102D00008000B0EE620ABDE81040FFF7CFBE0000C1
:102D10000000000000000040000000000000000073
:102D200000000000008066400000B443000034C38F
:102D30000000344370470000C0ED051A80ED0B3AE7
:102D400080ED062AC0ED082A80EC030A9FED060AF2
:102D500080ED030A80ED040A80ED070A80ED090A80
:102D600080ED0A0A704700000000000090F87A2009
:102D7000002A7DD190ED010AD0ED1D0AB8EEC00AFF
:102D800070EEC00AC0ED080A90ED0A0AF4EEC00A1F
:102D9000F1EE10FA01DD80ED080AD0ED080AB1EE7F
:102DA000400AF4EEC00AF1EE10FA01D280ED080AF2
:102DB000D0ED080A9FED840AF5EEC00AF1EE10FA94
:102DC00008DD90ED0B1AF4EEC10AF1EE10FA01D213
:102DD00080ED080AD0ED080AF5EEC00AF1EE10FA0F
:102DE00008D290ED0B1AF4EEC10AF1EE10FA01DDF3
:102DF00080ED080A90ED0C1AD0ED080A71EE201A49
:102E0000C0ED0C1A90ED0D1AF4EEC11AF1EE10FAA5
:102E100001DD80ED0C1AD0ED0C1AB1EE411AF4EE82
:102E2000C11AF1EE10FA01D280ED0C1A90ED091AD8
:102E300030EEC11A80ED0E1AC0ED090AD0ED051A68
:102E400090ED0C2A61EEA00AD0ED061A41EE820A3E
:102E5000D0ED071A41EE810AC0ED0F0A90ED101A6D
:102E6000F4EEC10AF1EE10FA01DD80ED0F1A00E078
:102E7000A9E0D0ED0F1AF1EE410AF4EEE01AF1EEFE
:102E800010FA01D2C0ED0F0AB0F9002090ED0F1A30
:102E900000EE902AF8EEE00A31EE601A80ED141A86
:102EA000D0ED160AB4EEE01AF1EE10FA01DDC0ED35
:102EB000140A90ED141AF1EE600AB4EEE01AF1EE85
:102EC00010FA02D3F0EE410A01E0C0ED140AF5EE6B
:102ED000C00AF1EE10FA08DD90ED171AF4EEC10AFF
:102EE000F1EE10FA01D280ED140AD0ED140AF5EEDD
:102EF000C00AF1EE10FA08D290ED171AF4EEC10AEA
:102F0000F1EE10FA01DD80ED140AD0ED180A90ED13
:102F1000140A30EE801A80ED181AD0ED190AB4EEBA
:102F2000E01AF1EE10FA01DDC0ED180A90ED181A62
:102F3000F1EE600AB4EEE01AF1EE10FA01D2C0ED43
:102F4000180AD0ED150A70EE600AC0ED1A0A80ED7D
:102F5000150A90ED111AD0ED181A21EE000A90ED25
:102F6000121A01EE210A90ED131A01EE200A80EDEB
:102F70001B0AD0ED1C0AB4EEE00AF1EE10FA01DDF6
:102F8000C0ED1B0A90ED1B1AB1EE600AB4EEC01A38
:102F9000F1EE10FA02D3B0EE410A01E080ED1B0A17
:102FA000BDEEC00A10F8783F10EE102A121201F898
:102FB000132010ED030A0078BDEEC00A01EB4000BB
:102FC00010EE102A427070470000000070B50446F1
:102FD000FDF79EFD04F2573104F180000E46FFF725
:102FE000C5FE04F5C0703146FFF7C0FE20463146ED
:102FF000FFF7BCFE04F580703146FFF7B7FE31469F
:103000000F4800F026F904F2473104F511700D461F
:1030100000F01AF804F53370294600F015F804F5AD
:103020000070294600F010F804F52270294600F0DF
:103030000BF83146BDE87040024800F00AB90000C4
:10304000BC03002094030020B0F90020D0ED0E0A4C
:1030500000EE102AB8EEC00A70EEC00AC0ED050AF4
:1030600090ED070AF4EEC00AF1EE10FA01DD80EDF2
:10307000050AD0ED050AB1EE400AF4EEC00AF1EE01
:1030800010FA01D280ED050AD0ED050A9FED3F0A46
:10309000F5EEC00AF1EE10FA08DD90ED081AF4EE34
:1030A000C10AF1EE10FA01D280ED050AD0ED050A51
:1030B000F5EEC00AF1EE10FA08D290ED081AF4EE1F
:1030C000C10AF1EE10FA01DD80ED050AD0ED090A22
:1030D00090ED050A30EE801A80ED091AD0ED0A0A4B
:1030E000B4EEE01AF1EE10FA01DDC0ED090A90ED40
:1030F000091AF1EE600AB4EEE01AF1EE10FA01D20C
:10310000C0ED090AD0ED060A70EE600AC0ED0B0AA8
:1031100080ED060A90ED021AD0ED091A21EE000AA0
:1031200090ED031A01EE210A90ED041A01EE200A37
:1031300080ED0C0AD0ED0D0AB4EEE00AF1EE10FAC3
:1031400001DDC0ED0C0A90ED0C1AB1EE600AB4EE90
:10315000C01AF1EE10FA02D3B0EE410A01E080EDA0
:103160000C0ABDEEC00A10F83C3F10EE102A1212F5
:1031700001F8132010ED030A0078BDEEC00A01EB40
:10318000400010EE102A427070470000000000005E
:103190007047000010B504462DED048B088842BA34
:1031A0006280488840BA00B220808B885BBAE38195
:1031B0008979217388B1208A101A01B2606811F5EB
:1031C000805F0844606002DA00F5005004E0B1F569
:1031D000805F02DDA0F500506060228260689FED94
:1031E000188B9FED199B4FF4902100280EDB90FB6C
:1031F000F1F201FB1200FDF7C0F953EC182BFDF7BB
:10320000DBF853EC192BFDF749F912E0404290FB33
:10321000F1F201FB1200FDF7B0F953EC182BFDF7AA
:10322000CBF853EC192BFDF739F953EC182BFDF7BC
:10323000C0F8FDF7B3F9A060BDEC048B10BD000031
:1032400000000000008076400000000000001241F5
:10325000704700B587B04FF4007200920023082237
:103260000492039302938DF814300A4606AB694624
:10327000FDF793FD002801D0FDF779FD07B000BDF3
:103280004A8852BA02808A8852BA828089798170CB
:103290007047FEF799BB000030B593B03021684607
:1032A000FCF7D8FF14210CA8FCF7D4FF194800251F
:1032B000016841F080510160006800F08050119079
:1032C0001548016841F4804101600068022400F45F
:1032D0008040119001200090000401908001CDE910
:1032E000064008AA0420A82182E813000B90684633
:1032F000FEF7EEFC0CA90F2081E831004FF4A0503E
:103300000F90E002109005210CA8FEF7F7FB13B018
:1033100030BD0000403802400070004005480168A0
:1033200041F47001016003494FF00060803908608A
:103330007047000088ED00E001707047B0F902109E
:10334000B1F5967F06DA002101704188491C418061
:103350000020704701210170084670471CB50BA181
:10336000D1E90001CDE900010A48FEF774FF0A48DF
:10337000FDF78AFC0848FFF71FFC0748FFF726FE09
:1033800008226946054801F0A7FE1CBD31323334DE
:10339000350D0A00E40300202800002078040020F6
:1033A000F0B50268254C264D264E274F274B4FF08F
:1033B000804CA04209D0604507D0A84205D0B04259
:1033C00003D0B84201D0984204D122F0700E4A686E
:1033D00042EA0E02A0421BD0604519D0A84217D085
:1033E000B04215D0B84213D0984211D0184DA8421F
:1033F0000ED0184DA8420BD0174DA84208D0174D3B
:10340000A84205D0164DA84202D0164DA84203D1BD
:1034100022F44075CA682A434D6922F080022A438B
:1034200002608A68C2620A688262A04201D0984241
:1034300001D10969016301214161F0BD0000014032
:103440000004004000080040000C0040000401405F
:103450000040014000440140004801400018004085
:10346000001C00400020004010B5846842EA03229E
:1034700024F47F440A432243826010BD826822F014
:1034800070020A4342F007018160704710B5036A79
:10349000046A24F001040462846924F0F00444EA1C
:1034A000021423F00A020A438461026210BD10B5BF
:1034B000036A23F0100303628369046A23F47043F0
:1034C00043EA023224F0A00343EA0111826101625F
:1034D00010BD10B5806B0021C185C184FEF772FF5D
:1034E00010BD70B5846B2068406994F83910C0F342
:1034F000C0100025212904D118B1E584204600F030
:1035000062F82068406994F83A10C0F380102229CC
:1035100004D118B1E585204600F047F8E06B40F093
:103520001000E0632046FEF74DFF70BD10B5014668
:10353000806B09680968C90513D40021C185016839
:10354000CA6822F48072CA6001684A6922F00102E6
:103550004A6101684A6922F040024A61202180F8EC
:103560003A10FFF7F1F810BD10B5806BFFF7FCF8CB
:1035700010BD10B50146806B09680968C9050CD4F7
:103580000021C18401684A6922F080024A61006812
:10359000C16841F04001C16010BDFFF727F910BDBF
:1035A00010B5806BFFF723F910BD0168CA6822F4DB
:1035B0009072CA6001684A6922F001024A612021C2
:1035C00080F83A1070470168CA6822F0C002CA60E9
:1035D000202180F83910704710B590F83A10222950
:1035E00001D0022010BD8168B1F5805F11D0016962
:1035F000002901681FD0496801F07F03816A4A1CD5
:1036000082620B70C18D491E0904090CC18518D056
:103610002BE00269816A002A0268526805D0D2B2A2
:103620000A80816A491C8162ECE7C2F308020A80C1
:10363000816A891CF7E74A68816A4B1C83620A70B9
:10364000E0E70168CA6822F02002CA600168CA681F
:1036500022F48072CA6001684A6922F001024A615C
:10366000202180F83A10FFF76FF8002010BD00000D
:103670002DE9F041044600680169E26821F44051F7
:10368000114301612169A068E2690843616911433E
:1036900022680843D16849F20C6399430143D16021
:1036A00020684169A26921F4407111434161E269D6
:1036B000192664253227B2F5004F2C482C49226880
:1036C0004FF000080CD08A4201D0824230D1FEF780
:1036D000BFFA01466068830F8200A1FB06012EE05D
:1036E0008A4201D0824202D1FEF7B2FA01E0FEF72F
:1036F0009FFA61684A18A0FB060148EB0803FCF733
:103700005FFDB0FBF5F213016FF018014A4300EBC7
:10371000820007EBC000B0FBF5F000F0F80103EB0E
:10372000410100F00700084421688860BDE8F0818D
:10373000FEF77EFA61688B0F8A00A0FB0601FCF79A
:103740003FFD0146B0FBF5F06FF01802424301EB7C
:10375000820107EB0111B1FBF5F101F0F00202EB80
:10376000001001F00F010844DEE7000000140140E2
:103770000010014090F83910212901D00220704733
:103780008168B1F5805F016A0BD04A1C0262026851
:1037900009785160C18C491E0904090CC1840ED0FE
:1037A00017E009880268C1F3080151600169002926
:1037B000016A02D0491C0162ECE7891CFBE7016841
:1037C000CA6822F08002CA600068C16841F0400106
:1037D000C16000207047000010B50023044A05496D
:1037E000054800F023F8BDE810400348FEF7ECBDA3
:1037F00018060020B80400203804002008B5094845
:10380000FEF7E2FD074800680168C943C90608D40D
:10381000016840680090BDE8084003210248FEF7B7
:10382000C1B808BD7804002000080240F8B514466D
:1038300002681D461268D243D2062BD40A68136868
:1038400023F0010313600268002316685268009297
:10385000096862894968511ACEB2217A51B123723E
:103860002168FEF725FF6089B04213D1002D11D0E9
:1038700060680AE0012121726168FEF719FF608922
:10388000B04207D1002D05D0206801B0AC46BDE89C
:10389000F0406047F8BDFEE770B5142001F0AEFBC4
:1038A000164C2060142001F0A9FB606014480068E9
:1038B000C16841F01001C1600025142025726081AB
:1038C00002460F482168FEF7F3FE122001F096FB36
:1038D0000C342060122001F091FB60600948006800
:1038E000C16841F01001C160122025726081216819
:1038F000BDE8704002460348FEF7DABE0C06002021
:10390000780400203804002003B401984100009896
:1039100050EAC12018BF04204A0D18BF40F0010032
:1039200040F2FF72B2EB515F08BF40F00200012885
:1039300008BF052002B070470907090E002804DB04
:1039400000F1E02080F80014704700F00F0000F153
:10395000E02080F8141D704710B5B94A2DED020B18
:103960002DED0C8B82B00F9921F000409FEDB6CB6E
:10397000904232DBA0F140530E9AA3F17F631A43C9
:103980009FEDB38B14D0B449884202DC1BD10E9852
:10399000C8B19DED0E0B53EC102B51EC100BFCF746
:1039A00064FC41EC100B02B0BDEC0C8B02B010BDFE
:1039B0000029C7BFB0EE480AF0EE680AB0EE4C0A24
:1039C000F0EE6C0AEFE7012001F0CEFA53EC182B71
:1039D00051EC180BFCF762FD5EE0A04A9FEDA09B46
:1039E0009FEDA1AB90425ADAA1499FEDA3BB814262
:1039F000A4BFB0EE4B0AF0EE6B0AD4DA9DED0E0BCD
:103A000053EC102B51EC100BFCF7D6FC41EC180BCF
:103A10009B480621B0EE480AF0EE680A784401F0AF
:103A200004FA53EC182B51EC100BFCF7C5FC41ECDD
:103A30001C0B9448B0EE480AF0EE680A0421784462
:103A400001F0F3F953EC182B51EC100BFCF7B4FC1C
:103A500053EC192BFCF709FC41EC100B51EC1C0B3F
:103A600053EC102BFCF71AFD41EC100B53EC102B10
:103A70009DED0E0B51EC100BFCF79EFC53EC1A2B3A
:103A8000FCF797FC9DED0E1B53EC112BFCF791FC02
:103A900053EC1B2BFCF78DFC41EC100B83E79FEDE7
:103AA0007A8B9FED7BBB9DED0E0B002953EC192B00
:103AB00051EC100B52DAFCF7D8FB53EC182BFCF747
:103AC0007BFC41EC180B74480621B0EE480AF0EE7E
:103AD000680A784401F0A9F953EC182B51EC100B4B
:103AE000FCF76AFC41EC1D0B6C48B0EE480AF0EEA6
:103AF000680A0421784401F098F953EC182B51EC32
:103B0000100BFCF759FC53EC192BFCF7AEFB41EC06
:103B1000190B51EC180B01F0A7FA41EC180B53EC00
:103B2000192B51EC1D0BFCF7B9FC53EC182BFCF7CF
:103B300043FC53EC1A2BFCF739FC41EC100B51EC15
:103B4000180B53EC102BFCF790FB53EC1B2BFCF7E2
:103B500033FC53EC1C2BFCF72CFC9DE7FCF729FCF9
:103B600053EC182BFCF728FC41EC180B01F07CFA05
:103B700041EC1A0B00208DED00AB00909DED000B89
:103B800051EC1A0B53EC102BFCF76FFB9DED000B67
:103B900041EC1C0B53EC102B51EC100BFCF70CFC04
:103BA00053EC182BFCF705FC53EC1C2BFCF776FCB4
:103BB00041EC1C0B3A48B0EE480AF0EE680A0621C8
:103BC000784401F032F953EC182B51EC100BFCF750
:103BD000F3FB41EC1D0B3348B0EE480AF0EE680AE7
:103BE0000421784401F021F953EC182B51EC100B0F
:103BF000FCF7E2FB53EC192BFCF737FB41EC100B05
:103C000051EC1D0B53EC102BFCF748FC53EC1A2B1A
:103C1000FCF7D2FB53EC1C2BFCF727FB41EC100B01
:103C200053EC102B9DED000B51EC100BFCF71DFB22
:103C300053EC1B2BFCF7C0FB2EE70000000000003C
:103C40000000F03F00000000182D4454FB21094003
:103C500000000000000000000000F07F0000E03FD6
:103C6000000000000000F03F075C143326A6913CE2
:103C70000000603C00000000182D4454FB21F93F77
:103C80000817000016170000000000000000E03FC9
:103C90000000000000000040521600006016000006
:103CA000641500007215000070B59D482DED020BE3
:103CB0002DED068B079D25F00044A0421DDC9948A0
:103CC000844202DC0FD1069868B19DED060B53ECDF
:103CD000102B51EC100BFCF7C8FABDEC068B02B0B0
:103CE00041EC100B70BD002DCCBF9FED8F0B9FEDF5
:103CF000900BBDEC068B02B070BD8F48A04215DD65
:103D00008E48A042D8BF4FF0FF3458DD9DED060B22
:103D100051EC100BFFF7F8FD042808BF01F004F97F
:103D20009DED060BBDEC068B02B070BD9DED060B44
:103D300051EC100B01F026F9CDE9060180489FED0A
:103D4000828BA0423CDD8248A0421FDD00249FED13
:103D500082AB9DED060B53EC1A2B51EC100BFCF7CC
:103D600084FA9DED060B41EC190B53EC1A2B51EC28
:103D7000100BFCF721FB53EC182BFCF717FB53EC53
:103D8000192BFCF78BFBCDE9060149E09DED060BF5
:103D9000012453EC182B51EC100BFCF766FA9DED47
:103DA000060B41EC190B53EC182B51EC100BFCF7E4
:103DB000FDFA53EC192BFCF771FBCDE906012FE05E
:103DC0006748A0421FDD02249FED679B9DED060B17
:103DD00053EC192B51EC100BFCF7EEFA53EC182BAB
:103DE000FCF743FA9DED060B41EC180B53EC192B35
:103DF00051EC100BFCF7DAFA53EC182BFCF74EFBE6
:103E0000CDE906010CE09DED060B032453EC102BCD
:103E10009FED570B51EC100BFCF740FBCDE9060171
:103E20009DED060B53EC102B51EC100BFCF7C4FA74
:103E300041EC180B53EC182BFCF7BEFA41EC190BB4
:103E40004D480621B0EE490AF0EE690A784400F0C8
:103E5000ECFF53EC182B51EC100BFCF7ADFA41ECD6
:103E6000180B4648B0EE490AF0EE690A052178447D
:103E700000F0DBFF53EC192B51EC100BFCF79CFA14
:103E800041EC100B51EC180B53EC102B002C0EDAFC
:103E9000FCF7EBF99DED061B53EC112BFCF78CFAAC
:103EA0009DED061B53EC112BFCF783FA35E0FCF774
:103EB000DCF99DED061B53EC112BFCF77DFA41EC70
:103EC000100B2F48784400EBC40090ED001B51EC20
:103ED000100B53EC112BFCF769FA9DED061B53EC0C
:103EE000112BFCF763FA41EC100B2648784400EBE9
:103EF000C40090ED001B51EC100B53EC112BFCF7A0
:103F000058FA41EC100B002DA2BFBDEC068B02B09D
:103F100070BD51EC100B81F0004141EC100B01E73A
:103F2000000010440000F07F182D4454FB21F93F9D
:103F3000182D4454FB21F9BF0000DC3F0000203E57
:103F40000000F33F00000000000000000000F03F10
:103F50000000E63F000000000000000000000040FC
:103F60000080034000000000000000000000F83F57
:103F7000000000000000F0BF18140000CE13000085
:103F8000581300001013000070B56B4E2DED040B9C
:103F90002DED028B82B0DDF81CC0DDE905235C420B
:103FA0002CF000411C4341EAD474049D22F00040EF
:103FB000B44205D86C422C4340EAD474B44210D9C0
:103FC0009DED060B53EC102B9DED040B51EC100BEB
:103FD000FCF74BF941EC100B02B0BDEC028B04B0C6
:103FE00070BDACF14054A4F17F641C430BD002249B
:103FF00004EAAC7444EAD27405439FED518B9FED03
:10400000522B07D010E09DED040B51EC100B00F08B
:10401000B1FF39E0002C14BF012C9DED040BDBD067
:10402000022C34D0032C37D00B439FED491B9FED5E
:104030004A0B0AD0B14218D1B04209D121F08041D7
:1040400020F08040079105900FE0002AC4DA10E0CC
:10405000434B7B44002C08BF93ED000BBCD0012CDC
:104060000CD0022C13D0032C16D0B04219D1002A48
:10407000B2DAB0EE410AF0EE610AADE793ED000B63
:1040800051EC100B81F0004141EC100BA4E7B0EEB5
:10409000480AF0EE680A9FE7B0EE420AF0EE620AC4
:1040A0009AE7401A00153C28C8BF8DED000B19DCBB
:1040B000BCF1000FBEBF10F13C0F9FED2B0B8DED3F
:1040C000000B0FDB9DED060B53EC102B9DED040B4D
:1040D00051EC100BFCF7E2F900F054FF00F04AFF3E
:1040E000CDE90001002C08BF9DED000B3FF474AF3B
:1040F000012C10D0022C9FED1E0B53EC102B9DEDCC
:10410000000B51EC100B0DD0FCF750F953EC182BB1
:10411000FCF74CF9B8E7019880F0004001909DED64
:10412000000B59E7FCF742F953EC182BFCF741F967
:10413000AAE70000000000000000F07F000000007F
:10414000182D4454FB210940182D4454FB2109C06B
:10415000182D4454FB21F9BF182D4454FB21F93F7D
:1041600042120000000000000000000000000000FB
:10417000075C143326A6A13C2DE9F04D2DED040B70
:104180002DED0E8B94B0DDE92350259CDDF888A041
:1041900025F0004624F00048BAF1000F14BF0121B9
:1041A000002101EB4502FE4953184A1093422AD3DD
:1041B000002814BF0123002303EB44030B44F949F7
:1041C0008B4220D358EA00019FEDF79B6FD0DFF8B8
:1041D000E0B35D4503D1BAF1000F05D181E0BAF13A
:1041E000000F08BF002100D0012101EB450111F5AE
:1041F000001F08D8002814BF0121002101EB440151
:1042000011F5001F0AD99DED240B53EC102B9DEDE9
:10421000220B51EC100BFCF728F840E00027002D92
:10422000BCBFE449884521DAE3498845A8BF022795
:104230001CDAC3451ADCE14901EB2851142908DDD9
:10424000C1F1340220FA02F101FA02F282420DD1E8
:1042500008E058B9C1F1140228FA02F101FA02F299
:10426000424503D101F00101C1F1020756EA0A01FA
:104270009FEDD3AB1CD1002C1ADA002D18BF022FF2
:1042800001D0012F07D0022000F06EFE53EC1A2B54
:1042900051EC190B00E1022000F066FE7AE041ECDF
:1042A000100B14B0BDEC0E8B04B0BDE8F08D18E01F
:1042B0009FEDC5BB9FEDC68B002874D1BD488045DE
:1042C00022D105F1804010F5801008BFBAF1000F2F
:1042D00007D0B3450ADC002CA8BF9DED240BE0DA23
:1042E0000DE0B0EE490AF0EE690ADAE7002C06DAD2
:1042F0009DED240B51EC100B81F00041CFE7B64847
:10430000784490ED000BCCE7D84550D1002C4BDA27
:104310002EB186423DD1BAF1000F45D129E0BAF164
:10432000000F16D0022000F01FFE53EC182B51ECAA
:10433000180BFCF741F8CDE902019DED220B10EEC0
:10434000900A8DED000B61F31E0003909DED020BB2
:10435000A7E78DED02BB9DED220B1BEE901A10EE30
:10436000900A8DED000B61F31E0003909DED020B92
:1043700097E78DED02AB9DED220B1AEE901A10EE31
:10438000900A8DED000B61F31E0003909DED020B72
:1043900087E709DA9DED220B51EC190B53EC102B3A
:1043A000FCF77CF87BE71DE09DED220B79E7864268
:1043B00018DAB4F1804F0DD0A4F10050B0F1FF50E5
:1043C00010D1002D0EDB9DED220B51EC100B00F0F7
:1043D0004BFE64E79DED220B53EC102B51EC100BC0
:1043E00000F0BABC9DED220B51EC100B00F0CAFDA1
:1043F000BAF1000FCDE9120134D19FED790BDEB196
:10440000A6F1E040B0F17F602CD1002D01DD002C41
:104410000DDA002D01DD002C1FDB002D16DA002C3B
:1044200014DB012F08BF9FED700B3FF43AAFB0EEE5
:104430004B0AF0EE6B0A34E7022F18BF002D0CD0A8
:10444000012F0AD1002DFFF62CAF06E0002DB8BFDA
:10445000002C07DA012F3FF424AFB0EE4A0AF0EE49
:104460006A0A1EE7012000EBE570049038430CD087
:104470005F48002580457BDD5E495F48884513DD48
:10448000B0420CDB002C18DB2CE0012000F06CFDAE
:1044900053EC1A2B51EC1A0BFCF700F8FFE6B3456E
:1044A00002DC002C09DC1DE0864202DA002C19DA5D
:1044B00003E05E4529DD002C14DD022000F054FDF0
:1044C00053EC182B51EC180BFBF776FFCDE90201EA
:1044D0001BEE900A8DED00BB61F31E0003909DED75
:1044E000020BDEE6022000F03FFD00F01DFD10EEA5
:1044F000901A19EE900A8DED020B8DED009B61F381
:104500001E0003909DED020BCBE69DED220B53ECBC
:10451000192B51EC100BFBF749FF9FED390BCDE93F
:104520000C0153EC102B9DED0C0B51EC100BFBF719
:1045300043FF9FED351B53EC112BFBF73AFF9DED2D
:104540000C1B53EC112BFBF737FF9FED311B53EC8A
:10455000112BFBF72EFF9DED0C0B41EC1A0B53ECCE
:10456000102B51EC100BFBF727FF53EC1A2B00E03C
:1045700087E0FBF721FF9FED280B41EC1B0B53EC71
:10458000102B9DED0C0B51EC100BFBF715FF9FED65
:10459000240B41EC1A0B53EC102B51EC1B0B43E09A
:1045A000FFFF1F00FFFF0F00000000000000F03FB2
:1045B0000000F03F0000F07F0000404301FCFFFFDF
:1045C0000000000000000000000000000000F07F7C
:1045D0000000000000000070940F000000000000C8
:1045E0000000000000000080000000000000F0FF5C
:1045F0000000E0410000F043FFFFEF3F000000003B
:10460000000000000000D03F555555555555D53F89
:10461000000000000000E03F000000604715F73F89
:10462000FE822B654715F73FFBF7C6FE41EC1B0BDF
:104630009FEDFD0B53EC102B9DED0C0B51EC100B73
:10464000FBF7BAFE53EC1B2BFBF7B0FE41EC1B0B48
:1046500051EC1A0B53EC1B2BFBF707FE0890CDE92E
:1046600008519DED080B53EC1A2B51EC100BFBF786
:104670009DFE53EC1B2BFBF79CFE41EC100B00F056
:10468000A5B90020B6F5801F0EDA9FEDE90B53ECBB
:10469000102B9DED120B51EC100BFBF78DFECDE9AD
:1046A00012016FF034000E4600EB2650A0F2FF38E6
:1046B000C6F31300E04940F07F6646F0405688425A
:1046C000D8BF002409DDDD498142C8BF012404DCD4
:1046D0000024A6F5801608F10108D948784400EBBB
:1046E000C40A13969AED000B53EC102B9DED120BA0
:1046F00051EC100BFBF75AFE9AED000B41EC1B0B33
:1047000053EC102B9DED120B51EC100BFBF7ADFD94
:1047100041EC100B51EC190B53EC102BFBF7BEFEC8
:1047200041EC1C0B51EC1B0B53EC1C2BFBF744FE18
:1047300041EC1A0BC3488DED0AAB78440A9590ED15
:10474000000B4FF0005040EA660000EB84408DED16
:10475000100B00F5002011909AED000B53EC102B7C
:104760009DED100B51EC100BFBF720FE9DED121B85
:1047700053EC112BFBF71DFE41EC100B53EC102BEF
:104780009DED0A0B51EC100BFBF716FE9DED100B87
:1047900041EC1D0B53EC102B9DED0A0B51EC100B53
:1047A000FBF70AFE53EC1B2BFBF703FE53EC1D2B10
:1047B000FBF7FCFD53EC1C2BFBF7FEFD41EC1C0B47
:1047C00053EC1A2B51EC1A0BFBF7F6FD41EC1B0BCB
:1047D0009D480621B0EE4B0AF0EE6B0A784400F0DB
:1047E00024FBB0EE40DAF0EE60DA53EC1B2B51EC18
:1047F0001B0BFBF7E1FD53EC1D2BFBF7DDFD9DEDE6
:104800000A0B41EC1B0B53EC1A2B51EC100BFBF772
:104810002CFD53EC1C2BFBF7CFFD53EC1B2BFBF7B4
:1048200024FD9DED0A0B41EC1B0B53EC102B51ECBE
:10483000100BFBF7C1FD41EC1D0B9FED85EB53EC1D
:104840001E2BFBF712FD53EC1B2BFBF70EFD1090FC
:10485000CDE910519DED100B53EC1E2B51EC100BBC
:10486000FBF7A4FD53EC1D2BFBF7A0FD53EC1B2B1A
:10487000FBF79FFD9DED100B41EC1D0B53EC102B36
:104880009DED0A0B51EC100BFBF796FD41EC1B0B59
:1048900053EC1A2B51EC1D0BFBF78EFD9DED100B0D
:1048A00041EC1A0B53EC102B51EC1C0BFBF784FD65
:1048B00053EC1A2BFBF7D9FC41EC1A0B51EC1B0BF8
:1048C00053EC1A2BFBF7D1FC0A90CDE90A519DED70
:1048D0000A0B53EC1B2B51EC100BFBF767FD53EC51
:1048E0001A2BFBF766FD41EC1B0B9FED5B0B53ECAA
:1048F000102B9DED0A0B51EC100BFBF75DFD41EC0D
:104900001A0B9FED570B51EC1B0B53EC102BFBF7C5
:1049100053FD41EC1B0B9FED540B53EC102B9DED05
:104920000A0B51EC100BFBF747FD53EC1B2BFBF76D
:104930009CFC41EC100B4E48784400EBC40090ED19
:10494000001B51EC100B53EC112BFBF78EFC41ECD0
:104950001B0B4046FBF711FECDE90C0153EC1B2B62
:1049600051EC1A0BFBF781FC41EC100B41487844E9
:1049700000EBC40451EC100B94ED001B53EC112B15
:10498000FBF773FC9DED0C1B53EC112BFBF76DFC3F
:104990000890CDE908519DED0C0B53EC102B9DEDCB
:1049A000080B51EC100BFBF701FD94ED001B53ECD1
:1049B000112BFBF7FBFC53EC1A2BFBF7F7FC53EC2A
:1049C0001B2BFBF7F6FC41EC100B00BF0498791E83
:1049D000B0EE49BAF0EE69BA084308BF9FED269BD6
:1049E0009DED241B53EC102B8DED001B00959DEDD0
:1049F000240B51EC100BFBF7DFFC9DED000B41ECA1
:104A00001A0B53EC102B9DED240B51EC100BFBF704
:104A1000CDFC9DED081B53EC112BFBF7CDFC53ECAB
:104A20001A2BFBF722FC2BE044DF5DF80BAE543E63
:104A300000000000000040438E9803007AB60B008F
:104A4000980A00005A0B0000C8090000000000008E
:104A50000000000000000840000000E009C7EE3F31
:104A6000FD033ADC09C7EE3FF5015B14E02F3EBEC3
:104A70005C08000016080000000000000000F0BF05
:104A80009DED080B41EC1A0B53EC102B9DED000B28
:104A900051EC100BFBF790FCCDE90A019DED0A0BE0
:104AA00051EC1A0B53EC102BFBF7DFFBCDE90201A5
:104AB0000C46AB498C4231DB611A084318D19DED9D
:104AC0000A0B53EC102B9DED020B51EC100BFBF776
:104AD0006DFC41EC1C0B9FEDA40B51EC1A0B53EC3D
:104AE000102BFBF7C2FB53EC1C2BFBF79FFE2FD2C6
:104AF000022000F039FA53EC182B51EC180BFBF79D
:104B00005BFCCDE9020119EE900A8DED009B61F38B
:104B10001E0003909DED020BFFF7C3BB944A24F0E7
:104B20000041914214D39349214408437FF4DAAC05
:104B30009DED0A0B53EC102B9DED020B51EC100B6D
:104B4000FBF734FC53EC1A2BFBF770FE7FF6CAAC74
:104B500024F000408849894A002601EB2051824216
:104B60002BDA481C4FF4801121FA00F02044844ACB
:104B7000C0F30A517A44A1F2FF3192ED000B814A51
:104B80008DED0C0BCA4020EA0202C0F3130040F482
:104B90008010C1F1140120FA01F60D92002CB8BF6B
:104BA00076429DED0C0B53EC102B9DED0A0B51EC56
:104BB000100BFBF7FBFBCDE90A019DED0A0B51EC55
:104BC0001A0B53EC102BFBF750FB9FED6F0B0C9067
:104BD000CDE90C5153EC102B9DED0C0B51EC100B4F
:104BE000FBF7EAFB41EC1C0B9FED690B53EC102B20
:104BF0009DED0C0B51EC100BFBF7DEFB9DED0A0B52
:104C000041EC180B53EC102B9DED0C0B51EC100BE1
:104C1000FBF7CCFB53EC1A2BFBF7CBFB9FED5E1B9A
:104C200053EC112BFBF7C8FB53EC182BFBF71DFBC8
:104C300041EC180B51EC1C0B53EC182BFBF715FB3C
:104C4000CDE902019DED020B53EC1C2B51EC100B36
:104C5000FBF7ACFB53EC182BFBF7ABFB9DED020B0A
:104C600041EC180B53EC102B51EC100BFBF7A4FB91
:104C7000CDE90C014A489DED0C0B0521784400F06C
:104C8000D4F89DED0C1B51EC100B53EC112BFBF7E2
:104C900093FB9DED021B53EC112BFBF78AFBCDE937
:104CA00008019DED020B53EC182B51EC100BFBF798
:104CB00083FB53EC182BFBF7D8FA9FED3B0B41EC31
:104CC000180B53EC102B9DED080B51EC100BFBF760
:104CD0006DFB9DED080B41EC1A0B53EC102B9DED79
:104CE000020B51EC100BFBF767FB53EC1A2BFBF795
:104CF000D5FB53EC182BFBF759FB9DED021B53EC36
:104D0000112BFBF753FB53EC1B2BFBF752FBCDE9AD
:104D1000020101EB065001150029C8BF039015DC04
:104D20009DED020B324651EC100BFBF716FDFEF722
:104D3000EBFD042808BF00F0F7F832469DED020BAA
:104D400051EC100BFBF709FDCDE902019DED020BC3
:104D500051EC190B53EC102BFBF72EFBFFF79FBA0E
:104D60000000904000000000FE822B654715973C34
:104D700000CC904000346F3F01FCFFFF0000E03F9B
:104D800020070000FFFF0F0000000000432EE63F59
:104D9000396CA80C615C20BEEF39FAFE422EE63F6A
:104DA0005805000000000000000000000000004066
:104DB00000B52DED048BB0EE409AF0EE609A83B012
:104DC00051EC190BFBF7E0FC41EC180B18EE100A44
:104DD00018EE901A8DED008B002818BF01200843B3
:104DE00020F00040C0F17F6000F1E040C00F14D01F
:104DF00019EE101A19EE900A8DED009B002918BFCC
:104E00000121084320F00040C0F17F6000F1E04044
:104E1000C00F04BF012000F0A7F8B0EE480A03B0AD
:104E2000F0EE680ABDEC048B00BD70B504462DEDB4
:104E3000028B4D1E00EBC500B0EE408AF0EE608A9A
:104E400090ED000B35F0060017D053EC182B51EC09
:104E5000100BFBF7B1FA41EC100B6D1E04EBC50013
:104E600090ED001B51EC100B53EC112BFBF7FDF9EF
:104E700041EC100B35F00600E7D1022D36D0042DA1
:104E80001CD0062D1CBFBDEC028B70BD53EC182B43
:104E900051EC100BFBF790FA94ED0A1B53EC112B1D
:104EA000FBF7E3F953EC182BFBF786FA94ED081B9C
:104EB00053EC112BFBF7D9F941EC100B53EC182BE9
:104EC00051EC100BFBF778FA94ED061B53EC112B09
:104ED000FBF7CBF953EC182BFBF76EFA94ED040BB0
:104EE00053EC102BFBF7C1F941EC100B53EC182BD2
:104EF00051EC100BFBF760FA94ED021B53EC112BF5
:104F0000FBF7B3F953EC182BFBF756FA94ED001BA3
:104F100053EC112BFBF7A9F9BDEC028B41EC100B04
:104F200070BD0000000000009FED050B10B553ECB4
:104F3000102B51EC100BFBF73FFA41EC100B10BD9E
:104F4000000000000000001002E008C8121F08C1A5
:104F5000002AFAD170477047002001E001C1121FFA
:104F6000002AFBD17047000001490860704700002B
:104F70002400002010B541EC100BFEF795FE51EC1B
:104F8000100B10BD82B0CDE9000121F0004001906E
:104F90009DED000B02B051EC100B7047FCF71CFDAF
:104FA000FEF77AF9FCF764FE0F490860FDF7CCFCC8
:104FB000FDF79CFCFDF706FDFDF75AFDFDF74EFCE5
:104FC000FDF770FCFDF732FD0848FDF7C7F8FEF766
:104FD00063FC0748FBF734FE0648FBF731FE064842
:104FE000FBF74AFCFEE7000004000020E403002079
:104FF00094030020BC03002028000020F0B50B30F3
:10500000154D20F007010024144A0FE003688B427D
:105010000BD38B4205D95E1A43184768C3E9006772
:1050200000E04368136002C004E0021D106800281D
:10503000ECD12046002802D1286808B10020F0BD3C
:10504000064A07481060074A121A22F00702C0E910
:10505000002401202860D7E7200000201C00002049
:105060002C0600202808002000B52DED048B83B00D
:1050700041EC190BFBF788FB41EC180B18EE100AFA
:1050800018EE901A8DED008B002818BF0120084300
:1050900020F00040C0F17F6000F1E040C00F14D06C
:1050A00019EE101A19EE900A8DED009B002918BF19
:1050B0000121084320F00040C0F17F6000F1E04092
:1050C000C00F04BF0120FFF74FFF51EC180B03B0D6
:1050D000BDEC048B00BD000010B514460068074A03
:1050E00090420AD122460648FBF79BF82246BDE8CB
:1050F000104003490348FDF739BB10BD0044004090
:10510000D8050020780400200006101600061016AE
:105110000000000000000000010203040607080967
:105120000000000001020304555555555555C53F73
:105130007D6FEB0312D6D4BF5544880E55C1C93FCD
:105140003B8F68B52882A4BF88B20175E0EF493F64
:1051500009F7FD0DE13D023F4B2D8A1C273A03C0A4
:10516000C88A599CE52A004059018D1B6C06E6BF90
:1051700082922EB1C5B8B33F000000000000F03F9E
:10518000000000000000F83F0000000000000000E8
:105190000000004003B8E23F0000000000000000F3
:1051A00006D0CF43EBFD4C3E033333333333E33F81
:1051B000FFAB6FDBB66DDB3F4D268F515555D53FAD
:1051C00001411DA96074D13F65DBC9934A86CD3F7B
:1051D000EF4E454A287ECA3F3E5555555555C53F69
:1051E00093BDBE166CC166BF2CDE25AF6A56113F5B
:1051F000F16BD2C541BDBBBED0A4BE726937663E5D
:105200004FBB610567ACDD3F182D4454FB21E93FDE
:105210009BF681D20B73EF3F182D4454FB21F93FCD
:10522000E2652F227F2B7A3C075C143326A6813C53
:10523000BDCBF07A8807703C075C143326A6913CFE
:10524000C4EB98999999C9BF711623FEC671BCBF6A
:105250006D9A74AFF2B0B3BF9AFDDE522DDEADBFD2
:105260002F6C6A2C44B4A2BF0D5555555555D53FEA
:10527000FF8300922449C23F6E204CC5CD45B73F05
:10528000513DD0A0660DB13FEB0D76244B7BA93F7D
:1052900011DA22E33AAD903F000000000000000068
:1052A000C05200080000002028000000484F0008FD
:1052B000E852000828000020000C0000584F0008A9
:1052C00001000000000000000000000001000000DC
:1052D00010000000000000000024F40000000000A6
:0852E0000000000000000000C6
:040000050800018965
:00000001FF
