:020000040800F2
:10000000800F00209D010008653E000813330008A2
:100010001D3700082B0C00081951000800000000D3
:10002000000000000000000000000000AD460008D5
:100030003B0F0008000000006D4500089D470008C8
:10004000B7010008B7010008B7010008B7010008B0
:10005000B7010008B70100083D0F0008B70100080C
:10006000B7010008B7010008B7010008B701000890
:10007000C10D0008B7010008D10D0008B701000844
:10008000E10D0008F10D0008B7010008B7010008F4
:10009000310C0008B7010008B7010008B7010008DB
:1000A000B7010008B7010008B7010008B701000850
:1000B000A9480008B7010008B7010008B701000807
:1000C000B7010008B7010008B7010008B701000830
:1000D000B70100080D5000083550000845500008D1
:1000E000B7010008B7010008B7010008B701000810
:1000F000B7010008B7010008B7010008B701000800
:10010000B7010008B7010008B7010008B7010008EF
:10011000B7010008B7010008B7010008B7010008DF
:10012000B7010008010E0008110E0008B701000811
:10013000B70100080000000000000000B70100083F
:10014000610C0008B7010008B7010008B7010008FA
:10015000B7010008210E0008B70100086D50000823
:10016000B7010008B7010008B7010008B70100088F
:10017000B7010008B70100080000000000000000FF
:10018000B7010008B7010008DFF80CD000F060FBF1
:1001900000480047A55C0008800F00200648804703
:1001A00006480047FEE7FEE7FEE7FEE7FEE7FEE75C
:1001B000FEE7FEE7FEE7FEE7594800088901000870
:1001C0002DE9F05F0546002092469B46884606468C
:1001D000814640241BE0284641464746224600F01F
:1001E00032FA53465A46C01A914110D31146184666
:1001F000224600F019FA2D1A67EB01084F462246F5
:100200000120002100F010FA17EB00094E41201EDA
:10021000A4F10104DFDC484631462A464346BDE8E6
:10022000F09FD2B201E000F8012B491EFBD27047CB
:100230000022F6E710B513460A4604461946FFF7B2
:10024000F0FF204610BD2DE9FE4F804681EA0300F5
:10025000C00F0C46009021F0004123F00045B8EBA0
:100260000200A94105D24046214690461C460B4655
:10027000024623F00040104347D0270DC7F30A0081
:10028000C3F30A510290401A019040286BDAC3F37D
:10029000130040F4801B0098924620B10023D2EB5B
:1002A000030A63EB0B0B01985946C0F1400250461C
:1002B00000F0BAF906460D4650465946019A00F03C
:1002C000D2F910EB08006141002487EA115284EA58
:1002D000E7731A4340D0009A62B3019A012A4FEAA9
:1002E000075215DC001B61EB02014FF0004202EAED
:1002F0000752CDE90042001C41F5801132462B46E1
:1003000000F007FA03B0BDE8F08F40462146F9E758
:10031000001B61EB0201001C41F5801300185B41DA
:100320002018A2F5001747EB030140EAD570B61973
:100330006D4111E06D084FEA360645EAC0754FEA97
:100340000752001B61EB0201001C41F580114908B6
:100350004FEA30000019514132462B4603B0BDE848
:10036000F04F00F0C9B90098012240000023D0EB03
:10037000020263EBE073009821464FEAE074B8EBA9
:10038000000061EB0401E9E783F000435BE781F0E3
:10039000004158E72DE9FE4F81EA030404F00044D0
:1003A00021F0004100944FF0000B23F0004350EA8D
:1003B00001045ED052EA03045BD0C3F30A54C1F3D4
:1003C0000A552C44A4F2F3340194A0FB0254C1F367
:1003D000130141F48011C3F3130343F4801301FBB1
:1003E000024400FB034E840A970A44EA815447EA18
:1003F0008357A4FB076802958D0A05FB07854FEA22
:10040000932C04FB0C542705029D4FEA065847EA3B
:100410001637B5EB08056EEB070C870E920E47EA10
:10042000811742EA8312A7FB0201B6EB0B0164EBD2
:1004300000042B0D43EA0C335E1844EB1C50DA46E3
:100440005146E7FB0201C5F313044FEA0B3343EABD
:1004500014534FEA0432019C43EA0603A4F10C044E
:100460000294009CCDE900B400F053F903B0BDE85C
:10047000F08F00200146F9E72DE9F04D81EA0304F1
:1004800004F0004B21F0004514464FF0000A23F021
:10049000004150EA050220D054EA01021DD0C5F304
:1004A0000A570246C5F31303C1F31300C1F30A56FA
:1004B00040F4801543F48013A7EB0608101BD646C2
:1004C00008F2FD3873EB050002D308F1010801E0E2
:1004D00092185B41B8F1000F03DA00200146BDE835
:1004E000F08D00204FF48011064684460EE0171B65
:1004F00073EB050705D3121B63EB050306434CEAB8
:10050000010C49084FEA300092185B4150EA01079C
:10051000EDD152EA030012D082EA040083EA050119
:10052000084305D0101BAB4106D20122002306E090
:1005300000224FF0004302E06FF0010253101AEB6B
:1005400006004CEB085110EB0A0041EB0B01BDE833
:10055000F04D00F0D1B80EB5C10F80EAE07008444C
:10056000CA07002140F233438DE80E000A460B46CD
:1005700000F0CFF803B000BD00F0004230F00040C2
:100580000AD0C10D01F56071C0F3160042EA0151B5
:10059000C208400711437047002001467047000021
:1005A00030B5002904DB4FF00044404264EB010108
:1005B000002B04DB4FF00044524264EB03038B42F8
:1005C00008BF824230BD000030B5002904DB4FF087
:1005D0000044404264EB0101002B04DB4FF0004477
:1005E000524264EB0303994208BF904230BD0000C1
:1005F00001F0004330B421F0004150EA010206D07E
:100600000A0DA2F56072C1F31301002A02DC30BCAE
:1006100000207047440F44EAC104C100E01830BC18
:1006200000EBC25000F031B8202A04DB203A00FA77
:1006300002F1002070479140C2F1200320FA03F339
:10064000194390407047202A04DB203A21FA02F037
:100650000021704721FA02F3D040C2F120029140FC
:10066000084319467047202A06DBCB17203A41FA87
:1006700002F043EAE07306E041FA02F3D040C2F12F
:10068000200291400843194670470029A8BF7047CF
:10069000401C490008BF20F00100704710B4B0FAB8
:1006A00080FC00FA0CF050EA010404BF10BC704753
:1006B00049B1CCF1200421FA04F411FA0CF118BF6D
:1006C000012121430843A3EB0C01CB1D4FEA00613C
:1006D0004FEA102042BF002010BC704700EBC3500F
:1006E00010440029A4BF10BC7047401C490008BF3B
:1006F00020F0010010BC704710B5002B08DA401C38
:1007000041F1000192185B411A4301D120F0010030
:1007100010BD2DE9F04D92469B4611B1B1FA81F220
:1007200002E0B0FA80F220329046FFF77DFF0446E7
:100730000F4640EA0A0041EA0B0153465A46084375
:1007400013D0114653EA010019D0C8F140025046B7
:10075000FFF779FF05460E46504659464246FFF7D9
:1007600063FF084305D0012004E020463946BDE878
:10077000F08D0020054346EAE0762C4337430A9883
:100780006305E40AA0EB08000022FD0A44EA47548E
:100790000A3002D500200146E9E701051019694138
:1007A000DDE9084500196941BDE8F04DA4E72DE9F0
:1007B000F04D00231A461B1A8A4103DB0020014634
:1007C000BDE8F08DC1F30A52C1F3130141F4801565
:1007D0004FF0000BD10702D100186D41521E0027C7
:1007E000044640F2FF11384601EB620A3E4680465D
:1007F000024600204FF48011FFF725FFC219714116
:10080000BB1846EB0100B4EB030C75EB000C04D3F2
:10081000E41A65EB000517460E46241908F101009D
:100820006D4180463428E3DDF91946EB0600091BCB
:10083000A84103D24FF0FF32134601E000221346D5
:100840001BEB070046EB0A51BDE8F04DFFF754BF24
:10085000064C074D06E0E06840F0010394E807000D
:1008600098471034AC42F6D3FFF792FCF85E0008CC
:10087000185F0008002280F83420426002620261A2
:100880009FED0D0A80ED090AC2619FED0B0A80ED14
:100890000A0A02609FED080A80ED0B0AC2608161BE
:1008A000826042614A07120E80F835209FED020AED
:1008B00080ED0C0A704700000000000070B50024B5
:1008C000A24C9FEDA33ADFEDA32A9FEDA22ADFED14
:1008D000A21A9FEDA01ADFED9F0A9FEDA00A04F176
:1008E000180003F073FB002084F87C009FED983A19
:1008F000DFED982A9FED972ADFED971A9FED951A65
:10090000DFED940AB1EE040A04F1480003F05EFB47
:100910004FF4967180200153012104F17E0003F011
:10092000A9FF04F584749FED8B3ADFED8A2A9FEDD1
:10093000892ADFED881A9FED871ADFED860A9FED81
:10094000850A04F1180003F041FB012084F87C00C3
:100950009FED803ADFED7F2A9FED7E2ADFED7D1A45
:100960009FED7C1ADFED7B0A9FED7A0A04F14800C7
:1009700003F02CFB4FF4967180200153012104F108
:100980007E0003F077FF84349FED723ADFED712A29
:100990009FED702ADFED6F1A9FED6E1ADFED6D0A85
:1009A0009FED6C0A04F1180003F010FB022084F89C
:1009B0007C009FED683ADFED672A9FED662ADFED48
:1009C000651A9FED641ADFED630A9FED620A04F178
:1009D000480003F0FBFA4FF4967180200153012187
:1009E00004F17E0003F046FFA4F584749FED593AAC
:1009F000DFED582A9FED572ADFED561A9FED551A65
:100A0000DFED540A9FED530A04F1180003F0DEFAFB
:100A1000032084F87C009FED4F3ADFED4E2A9FEDD6
:100A20004D2ADFED4C1A9FED4B1ADFED4A0A9FED80
:100A3000490A04F1480003F0C9FA4FF49671802086
:100A40000153012104F17E0003F014FF002504F599
:100A5000C6759FED3F3ADFED3F2A9FED3E2ADFED61
:100A60003E1A9FED3C1ADFED3B0AB1EE040A05F198
:100A7000080003F0ABFA002085F83C004FF49671B3
:100A800040204153012105F13E0003F0F3FE88357B
:100A90009FED303ADFED2F2A9FED2E2ADFED2D1A44
:100AA0009FED2C1ADFED2B0A9FED2A0A05F10800B5
:100AB00003F08CFA012085F83C004FF49671402039
:100AC0004153012105F13E0003F0D4FE44359FED72
:100AD000213ADFED202A9FED1F2ADFED1E1A9FED40
:100AE0001D1ADFED1C0A9FED1B0A05F1080003F03B
:100AF0006DFA022085F83C004FF496714020415376
:100B0000012105F13E0003F0B5FE883D9FED113A4D
:100B1000DFED102A9FED0F2ADFED0E1A9FED0D1A63
:100B2000DFED0C0A9FED0B0A05F1080003F04EFA09
:100B3000032085F83C004FF4967140204153012179
:100B400005F13E0003F096FE70BD0000A0050020F8
:100B500000C0DA450000000000409C459A99993E8B
:100B60002DE9F041044600270025254605F17E00C9
:100B700003F082FE18B195F87C00401CC7B204F562
:100B8000847505F17E0003F077FE18B195F87C00BE
:100B9000401CC7B204F5C67505F17E0003F06CFE7B
:100BA00018B195F87C00401CC7B204F1840505F12A
:100BB0007E0003F061FE18B195F87C00401CC7B2BE
:100BC000002604F5047606F13E0003F055FE18B148
:100BD00096F83C00401DC7B204F5267606F13E00AB
:100BE00003F04AFE18B196F83C00401DC7B204F568
:100BF000377606F13E0003F03FFE18B196F83C0050
:100C0000401DC7B204F5157606F13E0003F034FE30
:100C100018B196F83C00401DC7B284F82C7317B188
:100C2000204602F079FBBDE8F08100BFFEE700003E
:100C300010B5084800F0DAFB074B084A00210548C8
:100C400000F017FB0549098888B2034903F024F92D
:100C500010BD00005800002008000020880400207B
:100C600010B5084800F0C2FB074B084A00210548B0
:100C700000F0FFFA054804490268A1F26F3002F063
:100C800067FF10BD800000200F090020A404002091
:100C900010B58AB004461148844204D10020059062
:100CA0000E20099002E00E20059009900120089086
:100CB0000020009001900290039004900690012083
:100CC00007906946204600F041FA204600F027FED2
:100CD0000221204600F07AF90AB010BD5800002029
:100CE00010B5314890F90000032803DD00202E499B
:100CF000087005E02C480078401C40B22A49087072
:100D00002A49A1F2673003F087F9294803F010FB64
:100D10002848007810B1012843D11EE0224800780D
:100D200010B9254802F0DCFE1F480078022802D1E5
:100D3000224802F0D5FE2148406808280CD11F48FF
:100D4000006848B91C484068082805D11A4800685E
:100D500010B901201749087024E002F023FF12485F
:100D6000007820B90D211448383003F0EDF80E4812
:100D70000078012803D10D210F4803F0E5F80A4857
:100D80000078022803D10D210C4803F0DDF8064855
:100D90000078032804D10D210848383003F0D4F836
:100DA00000E000BF00BF10BD1100002007090020B7
:100DB000A005002010000020C00400203005002005
:100DC00010B5024800F0F6FD10BD00000803002039
:100DD00010B5024800F0EEFD10BD000068030020D1
:100DE00010B5024800F0E6FD10BD000048020020EA
:100DF00010B5024800F0DEFD10BD0000A802002082
:100E000010B5024800F0D6FD10BD0000C803002058
:100E100010B5024800F0CEFD10BD0000E801002032
:100E200010B5024800F0C6FD10BD000028040020E7
:100E30000146087810381823B0FBF3F20848805CAC
:100E4000C865032A05D908686FF30900001D886585
:100E500003E008686FF309008865886D704700003B
:100E6000E65D0008014600208A6A8B69CBB932B181
:100E7000012A0DD0022A03D0032A10D10EE000BFB0
:100E8000CB6A03F08073B3F1807F00D1012007E0CB
:100E9000CB6AB3F1C07F00D1012001E000E000BFC8
:100EA00034E08B69B3F5005F1AD132B1012A07D063
:100EB000022A03D0032A11D10AE000BF01200EE06C
:100EC000CB6A03F08073B3F1807F00D1012006E08C
:100ED000CB6AB3F1C07F00D1012000E000BF15E074
:100EE00032B1012A05D0022A04D0032A0CD103E032
:100EF00000BF00BF012008E0CB6A03F08073B3F1AC
:100F0000807F00D1012000E000BF00BF704730B5F6
:100F10000468246824F4802405682C6004686360F5
:100F20008468402C04D10468A2600468E16003E096
:100F30000468A1600468E26030BD704710B501200C
:100F400000F018FF1621024802F0FEFF10BD00005D
:100F500030050020704700214180704738B50446B5
:100F60000120009094F8351000231A46014803F040
:100F7000B8FB38BD5800002038B504460120009069
:100F800094F8351000231A46014803F0AAFB38BD37
:100F90005800002038B504460120009094F8351020
:100FA00000231A46014803F09CFB38BD580000207E
:100FB00038B504460120009094F8351000231A46F5
:100FC000014803F08EFB38BD5800002010B50246E2
:100FD00092F82030012B01D0022B06D11068406915
:100FE000084314686061002010BD506A40F48020FE
:100FF00050620120F8E7F0B504460D461E4694F80D
:10100000207020688368A86800B900E000BF012F45
:1010100001D0022F7CD103F0806030B903F0006072
:1010200018B903F08050002873D0C3F3016102297E
:1010300005D9606A40F4000060620120F0BD012023
:1010400088403060A86860B9B5F800C0E86840EA38
:101050004C5C206800F5C07000EB0110C0F800C0C7
:101060000FE0D5E901C040EACC00D5F80CC040EA59
:101070000C00D4F800C00CF5C07C0CEB011CCCF8C3
:101080000000D5F810C0206800F5C07000EB01101A
:10109000C0F804C0287D01280ED1206800F5C0707A
:1010A00000EB0110406840F4807C206800F5C070BF
:1010B00000EB0110C0F804C0D079000692F806C019
:1010C00040EA0C4092F805C040EA0C2C10794CEA3A
:1010D000000C206800F5C07000EB0110C0F80CC0D7
:1010E000D078000692F802C040EA0C4092F801C0A5
:1010F00040EA0C2092F800C040EA0C00D4F800C08E
:101100000CF5C07C0CEB011CCCF80800206801E059
:1011100016E00FE000F5C07000EB0110006840F031
:10112000010C206800F5C07000EB0110C0F800C091
:10113000002083E7606A40F40010606201207DE7D0
:10114000606A40F480206062012077E7F0B50446D1
:101150000A46216894F82050012D01D0022D7ED13D
:10116000424901F50071086840F001000860086814
:1011700020F47C5008600868566A40EA062008603F
:10118000107D00F01F06012000FA06F3C86998439D
:10119000C861A1F50071D069C8B9D1F80C029843B3
:1011A000C1F80C02908880B2968940EA064601F5A3
:1011B0001070576940F83760108880B2168940EA8D
:1011C000064601F51070576900EBC7004660D0690C
:1011D000012819D1D1F80C021843C1F80C029088EB
:1011E00080B2168840EA064601F51070576940F84B
:1011F0003760908980B2168940EA064601F5107082
:10120000576900EBC7004660906928B9D1F804021D
:101210009843C1F8040204E0D1F804021843C1F86D
:101220000402106928B9D1F814029843C1F81402D5
:1012300004E0D1F814021843C1F81402106A01281E
:1012400004D1D1F81C021843C1F81C02D1F80002E5
:1012500020F00100C1F800020020F0BDFFE7606A45
:1012600040F4802060620120F7E700000064004045
:10127000704770B5044694F82050012D01D0022D1E
:101280007DD151B92068C06800F0030080B9606A60
:1012900040F400106062012070BD2068006900F019
:1012A000030028B9606A40F4001060620120F3E78F
:1012B000206800F5D87000EB0110006800F0040011
:1012C0009060906840B9206800F5D87000EB01107C
:1012D0000068400D106007E0206800F5D87000EB52
:1012E00001100068C0085060206800F5D87000EB5D
:1012F0000110006800F00200D060206800F5D8708E
:1013000000EB0110406800F00F001061206800F54C
:10131000D87000EB0110406800F47F40000A906133
:10132000206800F5D87000EB01104068000C506197
:10133000206800F5D87000EB0110806818702068F4
:1013400000F5D87000EB0110806800F47F40000ABF
:101350005870206800F5D87000EB0110806800F428
:101360007F00000C9870206800F5D87000EB011029
:101370008068000ED870206800F5D87000E02FE07B
:1013800000EB0110C0681871206800F5D87000EB00
:101390000110C06800F47F40000A5871206800F511
:1013A000D87000EB0110C06800F47F00000C987149
:1013B000206800F5D87000EB0110C068000ED871ED
:1013C00031B92068C06840F020002668F06005E070
:1013D0002068006940F020002668306100205BE74B
:1013E000606A40F480206062012055E72DE9F05FDB
:1013F00004460025206846692068D0F804902068DB
:1014000087682068D0F80CA02068D0F810B0206859
:10141000D0F8188006F00100002855D007F0010030
:10142000C0B101202168886007F0020018B1204691
:1014300000F0A5FA0EE007F0040010B145F40065D5
:1014400008E007F0080010B145F4805502E020469E
:1014500000F094FA07F48070C8B14FF480702168EE
:10146000886007F4007018B1204600F08AFA0EE098
:1014700007F4806010B145F4005508E007F40060FF
:1014800010B145F4804502E0204600F079FA07F4F7
:101490008030C8B14FF480302168886007F4003094
:1014A00018B1204600F06FFA0EE007F4802010B16A
:1014B00045F4004508E007F4002010B145F48035FC
:1014C00002E0204600F05EFA06F0080038B10AF0AB
:1014D000100020B145F4007510202168C86006F0A6
:1014E000040040B10AF0080028B108202168C86053
:1014F000204600F00FFA06F0020038B12068C068FC
:1015000000F0030010B1204600F005FA06F040009C
:1015100038B10BF0100020B145F48065102021682F
:10152000086106F0200040B10BF0080028B1082047
:1015300021680861204600F0EFF906F0100038B18C
:101540002068006900F0030010B1204600F0E5F9C2
:1015500006F4003040B109F0100028B110202168D5
:101560004860204600F0DAF906F4803040B109F016
:10157000080028B1082021684860204600F004FADD
:1015800006F4004088B309F0040078B306F48070D4
:1015900020B108F0010008B145F0010506F4007023
:1015A00020B108F0020008B145F0020506F48060A1
:1015B00020B108F0040008B145F0040506F400600D
:1015C000A0B108F0700088B108F07000402817D072
:1015D00006DC10280BD020280CD0302819D10CE0C4
:1015E000502810D0602814D110E01DE019E045F01B
:1015F00008050FE045F010050CE045F0200509E076
:1016000045F0400506E045F0800503E045F48075AF
:1016100000E000BF00BF2068806920F070002168F2
:1016200088610420216848602DB1606A28436062A7
:101630002046FFF71DFEBDE8F09F70B504460CB9CB
:10164000012070BD94F8200010B9204600F0B0F8D9
:101650002068006820F002002168086000F09EFC0D
:1016600005460DE000F09AFC401B0A2808D9606A84
:1016700040F400306062052084F820000120E0E79B
:101680002068406800F002000028EBD12068006864
:1016900040F001002168086000F080FC05460DE084
:1016A00000F07CFC401B0A2808D9606A40F4003036
:1016B0006062052084F820000120C2E720684068AD
:1016C00000F001000028EBD0207E012806D1206820
:1016D000006840F080002168086005E0206800682C
:1016E00020F0800021680860607E012806D1206813
:1016F000006840F040002168086005E0206800684C
:1017000020F0400021680860A07E012806D12068F2
:10171000006840F020002168086005E0206800684B
:1017200020F0200021680860E07E012806D12068B2
:10173000006820F010002168086005E0206800685B
:1017400040F0100021680860207F012806D1206841
:10175000006840F008002168086005E02068006823
:1017600020F0080021680860607F012806D1206809
:10177000006840F004002168086005E02068006807
:1017800020F0040021680860D4E9020108432169BF
:101790000843616908436168491E08432168C861BC
:1017A00000206062012084F82000002049E700004A
:1017B00010B586B00446142101A8FEF739FD4F4943
:1017C0002068884242D14E480068401C4C4908605D
:1017D0000846006801280FD100BF0020009049484A
:1017E000006840F00070474908600846006800F053
:1017F0000070009000BF00BF00BF00200090414873
:101800001038006840F001003E4910390860084671
:10181000006800F00100009000BF00BF4FF4C0500E
:1018200001900220029000200390032004900920E0
:10183000059001A9344800F0ABFA002211461420AB
:1018400000F036FC142000F023FC54E02F492068FF
:10185000884250D100BF002000902A48006840F024
:101860008060284908600846006800F080600090A9
:1018700000BF00BF22480068401C2149086008469C
:10188000006801280FD100BF002000901D480068AB
:1018900040F000701B4908600846006800F00070C6
:1018A000009000BF00BF00BF002000901548103816
:1018B000006840F0020013491039086008460068CB
:1018C00000F00200009000BF00BF602001900220E5
:1018D000029000200390032004900920059001A9A4
:1018E0000B4800F055FA00221146402000F0E0FBC2
:1018F000402000F0CDFB06B010BD000000640040A9
:10190000040000204038024000000240006800400F
:10191000000402407047704770477047704770B5C9
:10192000044694F82000012822D1022084F82000E7
:101930002068006820F001002168086000F02EFB9C
:1019400005460DE000F02AFB401B0A2808D9606A12
:1019500040F400306062052084F82000012070BD52
:101960002068406800F001000028EBD16062F6E7D3
:10197000606A40F4002060620120F0E77047704721
:1019800070477047704770477047014691F83500BF
:10199000022803D08020486501207047052081F887
:1019A00035000868006820F001000A681060002017
:1019B000F3E70000F8B50446002000908C4800686A
:1019C0004FF41651B0FBF1F7A56D2E6894F85C103A
:1019D00008208840304098B12068006800F004007A
:1019E00070B12068006820F004002168086094F855
:1019F0005C1008208840A860606D40F001006065C0
:101A000094F85C1001208840304068B1206840693B
:101A100000F0800040B194F85C1001208840A8607C
:101A2000606D40F00200606594F85C10042088400E
:101A3000304068B12068006800F0020040B194F8BE
:101A40005C1004208840A860606D40F00400606570
:101A500094F85C1010208840304078B3206800680B
:101A600000F0080050B394F85C1010208840A86083
:101A70002068006800F4802080B12068006800F4CD
:101A8000002028B9206CC8B12046216C884715E099
:101A9000A06C98B12046A16C88470FE020680068D0
:101AA00000F4807028B92068006820F008002168E0
:101AB0000860206C10B12046216C884794F85C10B7
:101AC000202088403040002865D02068006800F061
:101AD000100000285FD094F85C1020208840A86097
:101AE00094F83500052828D12068006820F01600F9
:101AF000216808602068406920F080002168486102
:101B0000206C08B9A06C28B12068006820F008009B
:101B10002168086094F85C103F208840A86000BFEE
:101B2000002084F8340000BF012084F83500206DC7
:101B300010B12046216D8847F8BD2068006800F488
:101B4000802080B12068006800F4002028B9606C13
:101B500010B12046616C88471DE0E06BD8B120468B
:101B6000E16B884717E02068006800F4807068B96E
:101B70002068006820F010002168086000BF002085
:101B800084F8340000BF012084F83500E06B10B108
:101B90002046E16B8847606D38B3606D00F001004E
:101BA000F0B1052084F835002068006820F00100BD
:101BB0002168086000BF0098401C0090B84200D91E
:101BC00005E02068006800F001000028F3D100BFA4
:101BD00000BF002084F8340000BF012084F83500E5
:101BE000E06C10B12046E16C884700BFA4E700001C
:101BF000480000202DE9F0410446002500F0CEF910
:101C0000074614B90120BDE8F081606A00B100BF49
:101C100000BF002084F8340000BF022084F83500A3
:101C20002068006820F00100216808600AE000F0E8
:101C3000B5F9C01B052805D920206065032084F86C
:101C40003500E0E72068006800F001000028EED1D0
:101C50002068056821480540D4E901010843E1688E
:101C600008432169084361690843A1690843E169A0
:101C70000843216A08430543606A042803D1D4E974
:101C80000B0108430543206805602068456925F07D
:101C90000705606A0543606A04280DD1A06A054300
:101CA000E06A48B12046FFF7DDF828B140206065C2
:101CB000012084F83500A6E7206845612046FFF73B
:101CC000B7F8064694F85C103F208840B0600020CA
:101CD0006065012084F83500002094E73F8010F013
:101CE0002DE9F04704460D4616461F464FF0000802
:101CF000D4F8589000BF94F83400012802D1022093
:101D0000BDE8F087012084F8340000BF94F8350066
:101D1000012825D1022084F83500002060653B466B
:101D2000324629462046FFF7F2F894F85C103F202F
:101D30008840C9F808002068006840F01600216853
:101D40000860206C28B12068006840F00800216815
:101D500008602068006840F001002168086006E023
:101D600000BF002084F8340000BF4FF00208404656
:101D7000C6E7704710B5044604480068204020B10B
:101D8000024804602046FFF7F4FF10BD143C0140F8
:101D9000F8B502460B460025002400200021DCE0B7
:101DA000012606FA01F51E6806EA0504AC4273D165
:101DB0005E68012E08D05E68022E05D05E68112E86
:101DC00002D05E68122E13D190684F000326BE40E9
:101DD000B0434F00DE68BE4030439060506801263B
:101DE0008E40B0431E79C6F300168E4030435060DB
:101DF000D0684F000326BE40B0434F009E68BE40EF
:101E00003043D0605E68022E02D05E68122E13D17D
:101E1000CF0802F1200656F827004E07F70E0F26CE
:101E2000BE40B0434F07FF0E1E69BE403043CF088F
:101E300002F1200646F8270010684F000326BE4036
:101E4000B0431E7906F003064F00BE4030431060D9
:101E50005E6806F08056B6F1805F7DD100BF002637
:101E60000096404E366846F480463E4F3E603E4601
:101E7000366806F48046009600BF00BF3A4E8F08D1
:101E800056F827008E07370F0F26BE40B043374E57
:101E9000B24202D1002624E05EE0354EB24201D1CA
:101EA00001261EE0334EB24201D1022619E0324E25
:101EB000B24201D1032614E0304EB24201D10426D1
:101EC0000FE02F4EB24201D105260AE02D4EB2425C
:101ED00001D1062605E02C4EB24201D1072600E0D2
:101EE00008268F073F0FBE4030431F4E8F0846F82D
:101EF0002700264E3068A0435E6806F48036B6F5AB
:101F0000803F00D12043214E3060361D3068A04311
:101F10005E6806F40036B6F5003F00D120431B4E44
:101F2000361D3060361D3068A0435E6806F48016AA
:101F3000B6F5801F00D12043144E08363060361DA0
:101F40003068A0435E6806F40016B6F5001F00D1A5
:101F500020430E4E0C363060491C1029FFF420AF90
:101F6000F8BD00004438024008380140000002403B
:101F70000004024000080240000C02400010024031
:101F80000014024000180240001C0240003C0140C6
:101F90000AB1816101E00B04836170470148006868
:101FA000704700003C00002003480068034909789E
:101FB00008440149086070473C00002044000020AC
:101FC00010B50D48006840F400700B4908600846E1
:101FD000006840F4806008600846006840F4807043
:101FE0000860032000F0A2F8002000F007F800F0DD
:101FF0002BF8002010BD0000003C024070B50446E4
:102000000E4800784FF47A71B1FBF0F00C49096882
:10201000B1FBF0F5284600F021FC08B1012070BDAD
:10202000102C07D200222146501E00F041F805482E
:10203000046001E00120F2E70020F0E74400002006
:10204000480000204000002008B500BF002000909C
:102050000E48006840F480400C490860084600685B
:1020600000F48040009000BF00BF00BF002000903F
:10207000081F006840F08050091F0860084600688B
:1020800000F08050009000BF00BF08BD44380240FF
:1020900001460846002809DB00F01F0301229A4090
:1020A00043099B0003F1E023C3F8002100BF704700
:1020B0002DE9F05F80460D461646002703F0CEF866
:1020C000074639462A46334601F00700C0F1070AA1
:1020D000BAF1040F02D94FF0040A01E0C0F1070A77
:1020E000D14600F1040ABAF1070F02D24FF0000AFC
:1020F00001E0A0F1030AD4464FF0010A0AFA09FAF6
:10210000AAF1010A0AEA020A0AFA0CFA4FF0010BD4
:102110000BFA0CFBABF1010B0BEA030B4AEA0B04C5
:102120002146404603F0A2F8BDE8F09F00BF00F052
:102130000702064B19684FF6FF031940044B0B4387
:1021400043EA0221014B196000BF70470CED00E02B
:102150000000FA0570B504460D460CB9012070BDAB
:102160005848006800F00F00A84209D255490D7088
:102170000846006800F00F00A84201D00120EEE7F9
:10218000207800F0020002281DD1207800F0040021
:10219000042805D14C48006840F4E0504A490860E2
:1021A000207800F00800082805D14748006840F46E
:1021B0006040454908604448006820F0F000A1688C
:1021C000084341490860207800F00100A8B3606826
:1021D000012807D13C4808380068C0F34040B8B92E
:1021E0000120BCE76068022802D06068032807D19C
:1021F000354808380068C0F3406048B90120AEE7B0
:10220000314808380068C0F3400008B90120A6E74B
:102210002D48006820F00300616808432A490860DF
:10222000FFF7BCFE064609E0FFF7B8FE801B41F24F
:102230008831884202D9032091E707E022480068EC
:1022400000F00C006168B0EB810FEDD11D48006813
:1022500000F00F00A84209D91A490D70084600681D
:1022600000F00F00A84201D0012078E7207800F0AC
:102270000400042807D11448006820F4E050E16805
:10228000084311490860207800F00800082808D1A8
:102290000D48006820F46040216940EAC1000A4905
:1022A000086000F03FF808490968C1F30311074AC4
:1022B000515CC8400649086006480068FFF79EFE6A
:1022C00000204CE7003C024008380240EE5D000868
:1022D00048000020400000200148006870470000CE
:1022E0004800002000B5FFF7F7FF04490968C1F373
:1022F0008221034A515CC84000BD000008380240FA
:10230000FE5D000800B5FFF7E7FF04490968C1F367
:102310004231034A515CC84000BD00000838024009
:10232000FE5D00082DE9F047002400250026A146A7
:102330002548006800F00C0020B1042805D00828CA
:102340003AD105E0DFF8849039E0DFF8849036E098
:102350001D48001F006800F03F041B48001F006874
:1023600000F4800078B11A481749091F0968C1F3C1
:102370008811A0FB01700146224600233846FDF774
:102380001FFF05460EE011480F49091F0968C1F3F8
:102390008811A0FB01700146224600233846FDF754
:1023A0000FFF05460848001F0068C0F30140401CAD
:1023B0004600B5FBF6F902E0DFF8109000BF00BF61
:1023C0004846BDE8F0870000083802400024F400C9
:1023D00000127A00F8B504460CB90120F8BD207847
:1023E00000F00100002874D0F948006800F00C00EB
:1023F00004280DD0F648006800F00C00082813D11E
:10240000F348001F006800F48000B0F5800F0BD186
:10241000EF4808380068C0F34040002859D0606891
:10242000002856D10120D9E700BF6068B0F5803F91
:1024300008D1E7480838006840F48030E44908399A
:1024400008601EE06068B0F5A02F0DD1E0480838A4
:10245000006840F48020DE490839086008460068BA
:1024600040F4803008600CE0D9480838006820F457
:102470008030D749083908600846006820F4802079
:10248000086000BF606890B1FFF788FD054606E070
:10249000FFF784FD401B642801D903209EE7CC4848
:1024A00008380068C0F340400028F1D011E0FFF781
:1024B00075FD054606E0FFF771FD401B642801D954
:1024C00003208BE7C24808380068C0F3404000286A
:1024D000F1D1207800F0020002285FD1BC480068EA
:1024E00000F00C0058B1BA48006800F00C00082851
:1024F0001CD1B748001F006800F48000B0B9B44890
:1025000008380068C0F3400020B1E068012801D01D
:10251000012063E7AE480838006820F0F800216920
:1025200040EAC100AA490839086037E0E06800B312
:102530000120A8490860FFF731FD054606E0FFF7D6
:102540002DFD401B022801D9032047E7A048083889
:102550000068C0F340000028F1D09D4808380068AA
:1025600020F0F800216940EAC10099490839086063
:1025700014E0002097490860FFF710FD054606E0CB
:10258000FFF70CFD401B022801D9032026E79048E5
:1025900008380068C0F340000028F1D1207800F02E
:1025A000080008282CD16069A8B101208A49086078
:1025B000FFF7F4FC054606E0FFF7F0FC401B02289D
:1025C00001D903200AE782486C300068C0F340005C
:1025D0000028F1D014E000207F490860FFF7DEFCFE
:1025E000054606E0FFF7DAFC401B022801D903206C
:1025F000F4E677486C300068C0F340000028F1D161
:10260000207800F00400042870D10027704838308A
:10261000006800F0805090B900BF002000906C4826
:102620003830006840F08050694938310860084609
:10263000006800F08050009000BF00BF012767488D
:10264000006800F48070B0B96448006840F480709D
:1026500062490860FFF7A2FC054606E0FFF79EFC12
:10266000401B022801D90320B8E65C48006800F44A
:1026700080700028F2D000BFA068012808D154481B
:102680006830006840F001005149683108601DE081
:10269000A06805280DD14E486830006840F004005D
:1026A0004B49683108600846006840F00100086046
:1026B0000CE047486830006820F001004449683168
:1026C00008600846006820F00400086000BFA068A9
:1026D000A8B1FFF763FC054609E0FFF75FFC401B6C
:1026E00041F28831884202D9032077E626E0384853
:1026F00068300068C0F340000028EED013E0FFF718
:102700004DFC054608E0FFF749FC401B41F28831CB
:10271000884201D9032061E62D4868300068C0F383
:1027200040000028EFD1012F07D129483830006838
:1027300020F0805026493831086000BFA069002889
:1027400045D02348006800F00C0008285DD0A0693F
:10275000022845D100201F490866FFF71FFC0546E7
:1027600006E0FFF71BFC401B022801D9032035E6D9
:10277000174808380068C0F340600028F1D1D4E958
:1027800007010843616A40EA81110122A06AC2EB95
:10279000500041EA00412C20005D41EA00600C49F4
:1027A000091F086001200B490866FFF7F7FB054683
:1027B00006E0FFF7F3FB401B022801D903200DE6DA
:1027C000034808380068C0F340600028F1D03FE0BB
:1027D0000838024000004742800E47420070004027
:1027E00000201C490866FFF7D9FB054606E0FFF705
:1027F000D5FB401B022801D90320EFE516480068ED
:10280000C0F340600028F2D122E0A069012800D185
:10281000E4E51148001D066806F48001E069814284
:1028200014D106F03F01206A81420FD147F6C070F3
:102830003040616A884209D106F44031A06A814281
:1028400004D106F07061E06A814201D00120C5E543
:102850000020C3E5000047420038024070B504463E
:102860002546681EB0F1807F01D301200FE0681E6D
:102870004FF0E02148610F214FF0FF3002F0F6FCED
:1028800000204FF0E021886107200861002070BD22
:102890007047704730B502460B4600BF92F83C00C7
:1028A000012801D1022030BD012082F83C0000BF88
:1028B000022082F83D00106844681068816824F0A6
:1028C00070041868044310684460184D1068A842EA
:1028D0001BD01068B0F1804F17D0154D1068A8427A
:1028E00013D0144D1068A8420FD0134D1068A842A1
:1028F0000BD0124D1068A84207D0114D1068A842A5
:1029000003D0104D1068A84205D121F0800158680D
:10291000014310688160012082F83D0000BF002063
:1029200082F83C0000BF00BFBDE70000000001408E
:102930000004004000080040000C0040000401407A
:10294000004001400018004010B504460CB90120B9
:1029500010BD94F83D0028B9002084F83C002046C2
:1029600000F00CF8022084F83D00211D206801F0E1
:10297000A5FF012084F83D000020E9E738B50446B2
:102980002068B0F1804F17D100BF002000900B48A5
:10299000006840F00100094908600846006800F03E
:1029A0000100009000BF00BF002211461C20FFF76D
:1029B0007FFB1C20FFF76CFB38BD00004038024055
:1029C00001460868C06840F001000B68D8600868DC
:1029D000806800F00702062A05D00868006840F009
:1029E00001000B681860002070472DE9F041044693
:1029F0000D4600BF94F83C00012802D10220BDE83A
:102A0000F081012084F83C0000BF022084F83D00E2
:102A10002068866826F0770626F47F462068866060
:102A20002868502833D00CDC202850D004DC002843
:102A30004BD0102851D149E0302849D040284CD102
:102A400039E060282DD0702807D0B0F5805F03D022
:102A5000B0F5005F41D10DE040E0D5E902136A68AE
:102A6000206801F097FF2068866846F077062068A6
:102A7000866033E0D5E902136A68206801F08AFFB6
:102A80002068806840F480402168886026E0EA6819
:102A90006968206801F092FF5021206801F085FFED
:102AA0001CE0EA686968206801F09BFF60212068EB
:102AB00001F07BFF12E0EA686968206801F07EFFA0
:102AC0004021206801F071FF08E000BF00BF00BF97
:102AD0002968206801F069FF00E000BF00BF012005
:102AE00084F83D0000BF002084F83C0000BF00BF18
:102AF00085E7704710B5044620680069C0F34000C0
:102B0000D8B12068C068C0F34000B0B16FF00200D7
:102B100021680861012020772068806900F00300A7
:102B200018B12046FFF7E5FF05E0204600F0ADF8BC
:102B3000204600F0ABF80020207720680069C0F341
:102B40008000D8B12068C068C0F38000B0B16FF0D9
:102B5000040021680861022020772068806900F461
:102B6000407018B12046FFF7C4FF05E0204600F092
:102B70008CF8204600F08AF8002020772068006951
:102B8000C0F3C000D8B12068C068C0F3C000B0B1C5
:102B90006FF0080021680861042020772068C06970
:102BA00000F0030018B12046FFF7A3FF05E0204620
:102BB00000F06BF8204600F069F8002020772068CC
:102BC0000069C0F30010D8B12068C068C0F30010DD
:102BD000B0B16FF0100021680861082020772068EC
:102BE000C06900F4407018B12046FFF782FF05E08D
:102BF000204600F04AF8204600F048F800202077F0
:102C00002068006900F0010058B12068C06800F039
:102C1000010030B16FF0010021680861204600F02A
:102C200036F820680069C0F3C01058B12068C06849
:102C3000C0F3C01030B16FF08000216808612046F9
:102C4000FFF726FE20680069C0F3801058B12068A5
:102C5000C068C0F3801030B16FF040002168086197
:102C6000204600F015F820680069C0F3401058B104
:102C70002068C068C0F3401030B16FF020002168B8
:102C800008612046FFF705FE10BD7047704770478A
:102C9000704770472DE9F0470446206805682068B2
:102CA000C668206847694FF00008C14605F00F0864
:102CB000B8F1000F0AD105F0200038B106F020006D
:102CC00020B1204601F027FFBDE8F087B8F1000FE2
:102CD00072D007F0010018B906F4907000286BD08C
:102CE00005F0010030B106F4807018B1E06B40F0DF
:102CF0000100E06305F0040030B107F0010018B1F5
:102D0000E06B40F00200E06305F0020030B107F034
:102D1000010018B1E06B40F00400E06305F008002A
:102D200048B106F0200010B907F0010018B1E06BBF
:102D300040F00800E063E06B70B305F0200028B1BC
:102D400006F0200010B1204601F0E5FE2068406941
:102D5000C0F38019E06B00F0080010B9B9F1000F62
:102D600023D0204601F0ADFE2068406900F040000D
:102D7000402816D12068406920F040002168486151
:102D8000606B50B11748616B0865606BFEF7FDFD25
:102D900010B1606B016D88470CE02046FFF779FFAA
:102DA00008E02046FFF775FF04E02046FFF771FFBB
:102DB0000020E06388E7FFE705F0800030B106F00F
:102DC000800018B1204602F0EDF87DE705F04000E4
:102DD00030B106F0400018B1204601F082FE73E7E2
:102DE00000BF71E70B4A000810B504460CB901207A
:102DF00010BDA06900B100E000BF94F8390028B907
:102E0000002084F83800204600F028F8242084F8B8
:102E100039002068C06820F400502168C86020464E
:102E200001F0CCFE2068006920F490402168086120
:102E30002068406920F02A00216848612068C06845
:102E400040F400502168C8600020E063202084F82E
:102E5000390084F83A000020CAE7000010B586B0B7
:102E60000446142101A8FDF7E3F9E74920688842E8
:102E700056D100BF00200090E448006840F01000E8
:102E8000E24908600846006800F01000009000BFAA
:102E900000BF00BF00200090DC481438006840F0FC
:102EA0000100DA49143908600846006800F00100A2
:102EB000009000BF00BF4FF4C0600190022002905C
:102EC00000200390032004900720059001A9D0481A
:102ED000FEF75EFFCF48D04908604FF000604860C1
:102EE0000021CD488160C1604FF480610161002103
:102EF00041618161C16101624162FEF77BFE08B1FF
:102F0000FEF728F800BFC4486063846300BF002256
:102F100011462520FFF7CCF82520FFF7B9F871E11D
:102F2000BE492068884277D100BF00200090B74892
:102F3000001F006840F40030B449091F08600846CB
:102F4000006800F40030009000BF00BF00BF002008
:102F50000090AE481438006840F00100AB491439C5
:102F600008600846006800F00100009000BF00BF44
:102F70000C20019002200290002003900320049076
:102F80000720059001A9A248FEF702FFA448A54921
:102F900008604FF0006048600021A2488160C16075
:102FA0004FF480610161002141618161C161016271
:102FB0004162FEF71FFE08B1FDF7CCFF00BF994844
:102FC0006063846300BF96481830974908604FF0EB
:102FD000006048604021944881600021C1604FF446
:102FE00080610161002141618161C16101624162D1
:102FF000FEF700FE08B1FDF7ADFF00BF8A48206371
:10300000846300BF002211462620FFF751F82620D6
:10301000FFF73EF8F6E0FFE784492068884279D15F
:1030200000BF002000907948001F006840F4802015
:103030007649091F08600846006800F48020009067
:1030400000BF00BF00BF0020009070481438006827
:1030500040F004006D49143908600846006800F02B
:103060000400009000BF00BF4FF4406001900220B8
:10307000029000200390032004900720059001A9EE
:103080006B48FEF785FE664860386A4908604FF075
:1030900000604860002167488160C1604FF4806132
:1030A0000161002141618161C16101624162FEF7FC
:1030B000A1FD08B1FDF74EFF00BF5E486063846369
:1030C00000BF574830385C4908604FF000604860E6
:1030D0004021594881600021C1604FF48061016145
:1030E000002141618161C16101624162FEF782FD9F
:1030F00008B1FDF72FFF00BF4F482063846300BF76
:10310000002211462720FEF7D3FF2720FEF7C0FF3D
:1031100078E0FFE749492068884273D100BF00206A
:1031200000903A48006840F020003849086008469E
:10313000006800F02000009000BF00BF00BF00202A
:10314000009032481438006840F004002F491439C8
:1031500008600846006800F00400009000BF00BF4F
:10316000C0200190022002900020039003200490D0
:103170000820059001A92E48FEF70AFE25481838B8
:103180002F4908608005486000212D488160C1609A
:103190004FF480610161002141618161C16101627F
:1031A0004162FEF727FD08B1FDF7D4FE00BF2448B9
:1031B0006063846300BF17486030224908604FF0A5
:1031C0002060486040211F4881600021C1604FF4A9
:1031D00080610161002141618161C16101624162DF
:1031E000FEF708FD08B1FDF7B5FE00BF15482063E6
:1031F000846300BF002211464720FEF759FF472095
:10320000FEF746FF06B010BD0010014044380240F2
:103210000000024040640240E801002000440040F9
:103220008860024048020020A802002000480040B8
:103230000008024008030020680300200014014039
:10324000C80300202804002077B581B00446154645
:1032500094F83A00202850D1029800B115B9012005
:1032600004B070BD00BF94F83800012801D10220DD
:10327000F6E7012084F8380000BF0298A062A58517
:103280000020E063222084F83A001D48616BC86387
:103290001C48616B08641C48616BC8640020616B4A
:1032A000086502AE32682368191D2B46606BFEF775
:1032B00017FD00BF00200090206800680090206883
:1032C0004068009000BF00BF00BF002084F83800B5
:1032D00000BF2068C06840F480702168C860206822
:1032E000406940F00100216848612068406940F071
:1032F0004000216848610020B2E70220B0E70000EA
:103300006F4A0008B54A00081F4A00087047704716
:10331000704700BFFEE7000010B5044694F82C0388
:103320001A490978884202D100201849087040F6ED
:10333000B831D4F87803B0FBF1F201FB1200134965
:103340000978C1EB011101EB8101A0EB8100642838
:1033500005D2012202210E48FEF71AFE0AE00022E1
:1033600002210B48FEF714FE0A48007810B901202C
:10337000084908700748007838B104480078401CB4
:103380000249087000200349087010BD3800002071
:10339000000802403900002010B50F480F490860AE
:1033A0000320486000210D488160C1604FF4C021B6
:1033B00001614FF4A00141610021017641768176DF
:1033C0000121C176002101774177FEF736F908B176
:1033D000FDF7C0FD10BD0000006400405800002053
:1033E00010B50F480F4908600320486000210D48C0
:1033F0008160C1604FF4C02101614FF4A0014161BF
:1034000000210176417681760121C1760021017784
:103410004177FEF712F908B1FDF79CFD10BD0000E1
:10342000006800408000002008B500BF0020009028
:103430002A48006840F400102849086008460068DF
:1034400000F40010009000BF00BF00BF00200090FB
:103450000846006840F4800008600846006800F4F0
:103460008000009000BF00BF002211460C20FEF734
:103470001FFE0C20FEF70CFE002211460E20FEF768
:1034800017FE0E20FEF704FE002211461020FEF764
:103490000FFE1020FEF7FCFD002211461120FEF762
:1034A00007FE1120FEF7F4FD002211463920FEF739
:1034B000FFFD3920FEF7ECFD002211463A20FEF711
:1034C000F7FD3A20FEF7E4FD002211464520FEF705
:1034D000EFFD4520FEF7DCFD08BD0000303802405E
:1034E00000B587B0142102A8FCF7A2FE00BF00209F
:1034F00001902F48006840F080002D490860084680
:10350000006800F08000019000BF00BF00BF0020F5
:1035100001900846006840F0040008600846006812
:1035200000F00400019000BF00BF00BF0020019028
:103530000846006840F0010008600846006800F096
:103540000100019000BF00BF00BF002001900846AD
:10355000006840F0020008600846006800F00200C1
:10356000019000BF00BF012203211248FEF710FDA9
:10357000032002900120039000200490059002A9EE
:103580000C48FEF705FC012002900B480390002038
:10359000049002A90948FEF7FBFB00221146062011
:1035A000FEF786FD0620FEF773FD07B000BD0000A4
:1035B00030380240000802400000111000040240B0
:1035C00000B587B00020039004900590069001900C
:1035D00002904FF080401449086053204860002159
:1035E0001148816040F2F311C16000210161802126
:1035F0008161FFF7A9F908B1FDF7ACFC4FF48050E9
:10360000039003A90848FFF7F0F908B1FDF7A2FC01
:1036100000200190029001A90348FFF73BF908B18F
:10362000FDF798FC07B000BDA800002010B50C48BD
:103630000C4908600C4848604FF48051094881608B
:103640000021C1604FF480610161042141610021CA
:103650008161C161FFF7C8FB08B1FDF77BFC10BDBC
:1036600000100140E8000020A086010010B50B48C2
:103670000B4908604FF4E130486000210848816040
:10368000C16001610C21416100218161C161FFF7CD
:10369000ABFB08B1FDF75EFC10BD0000004400402C
:1036A0002801002010B50C480C4908604FF4E130A7
:1036B0004860002109488160C1604FF48061016168
:1036C0000C21416100218161C161FFF78DFB08B1CF
:1036D000FDF740FC10BD00000048004068010020DC
:1036E00010B50C480C4908604FF4E13048600021E7
:1036F00009488160C1604FF4806101610C21416122
:1037000000218161C161FFF76FFB08B1FDF722FC69
:1037100010BD000000140140A801002000BFFEE71A
:103720002DE9F0412DED0C8B04460D46B0EE408A9C
:10373000F0EE608AA668002E01DB314600E071429F
:103740000846FCF708FF88460746A068002803DA09
:10375000A06800F59020A060A068B0F5903F7CDDE7
:10376000A068B0F5583F78DAA168A1F59030FCF771
:10377000F2FE41EC190B53EC182BFCF711FF25D28C
:10378000616801F59030FCF7E6FE41EC190B53EC53
:10379000182BFCF719FF19D26068FCF7DCFE41EC2E
:1037A0001A0BA068FCF7D7FE41EC1C0B53EC182B4E
:1037B000FCF7EDFD41EC1B0B53EC1A2BFCF743FD22
:1037C00041EC190BFCF714FFA0677CE1A068FCF743
:1037D000C2FE41EC190B53EC182BFCF7F5FE29D275
:1037E0006068FCF7B8FE41EC1B0BA068FCF7B3FE69
:1037F00041EC1D0B53EC182BFCF7C9FD41EC1C0BE5
:1038000053EC1B2BFCF71FFD41EC1A0B9FEDB00B8B
:1038100053EC102BFCF717FD41EC190BFCF7E8FEFD
:10382000A06795ED000AFFEE000A20EE200A85ED64
:10383000000A48E16068FCF78EFE41EC1B0BA068B3
:10384000FCF789FE41EC1D0B53EC182BFCF79FFD98
:1038500041EC1C0B53EC1B2B00E017E0FCF7F3FCD6
:1038600041EC1A0B9FED9A0B53EC102BFCF78CFDDF
:1038700041EC190BFCF7BCFEA06795ED000AFFEECA
:10388000000A20EE200A85ED000A1CE1A068B0F5D0
:10389000903F7CDAA16801F59030FCF75CFE41ECCA
:1038A000190B53EC182BFCF77BFE35D2A16801F500
:1038B0005830FCF750FE41EC190B53EC182BFCF779
:1038C00083FE29D26068FCF746FE41EC1B0BA06822
:1038D000FCF741FE41EC1D0B53EC182BFCF757FD98
:1038E00041EC1C0B53EC1B2BFCF7ADFC41EC1A0B11
:1038F0009FED770B53EC102BFCF746FD41EC190BB9
:10390000FCF776FEA06795ED000AFFEE000A20EEB8
:10391000200A85ED000AD6E0A16801F59030FCF799
:103920001AFE41EC190B53EC182BFCF74DFE19D283
:103930006068FCF710FE41EC1A0BA068FCF70BFE68
:1039400041EC1C0B53EC182BFCF721FD41EC1B0B3D
:1039500053EC1A2BFCF777FC41EC190BFCF748FEF3
:10396000A067B0E06068FCF7F6FD41EC1A0BA068B8
:10397000FCF7F1FD41EC1C0B9FED570B53EC102BAA
:1039800051EC180BFCF700FD41EC1D0B00E00FE0C3
:1039900053EC1C2BFCF7F8FC41EC1B0B53EC1A2BE3
:1039A000FCF751FC41EC190BFCF722FEA0678AE002
:1039B000A168A1F59030FCF7CEFD41EC190B53EC5A
:1039C000182BFCF701FE35D2A168A1F55830FCF7A1
:1039D000C2FD41EC190B53EC182BFCF7E1FD29D289
:1039E0006068FCF7B8FD41EC1B0BA068FCF7B3FD69
:1039F00041EC1D0B53EC182BFCF7C9FC41EC1C0BE4
:103A000053EC1B2BFCF71FFC41EC1A0B9FED300B0A
:103A100053EC102BFCF717FC41EC190BFCF7E8FDFD
:103A2000A06795ED000AFFEE000A20EE200A85ED62
:103A3000000A48E0A168A1F59030FCF78CFD41EC4C
:103A4000190B53EC182BFCF7ABFD19D26068FCF78F
:103A500082FD41EC1A0BA068FCF77DFD41EC1C0BCC
:103A600053EC182BFCF793FC41EC1B0B53EC1A2B7B
:103A7000FCF7E9FB41EC190BFCF7BAFDA06722E06B
:103A80006068FCF768FD41EC1A0BA068FCF763FD69
:103A900041EC1C0B53EC182B9FED0F0B51EC100B52
:103AA000FCF7D1FB41EC1D0B53EC1C2BFCF76CFC21
:103AB00041EC1B0B53EC1A2BFCF7C5FB41EC190B2B
:103AC000FCF796FDA067BDEC0C8BBDE8F081000013
:103AD0000000000000000241000000000000124150
:103AE00070B505461949A8694418686800B970BDE1
:103AF000207840B90320A8600721284600F024FA66
:103B00002078401C20702078012804D1686804289F
:103B100001D1022020702078022804D1686807288B
:103B200001D1032020702078032804D1686801287F
:103B300001D1042020702078042805D10820A86035
:103B40000721284600F000FA00BFD0E7340000202B
:103B50002DE9F04104460F4616460025A6F2012045
:103B600030B1012806D0022807D003280BD107E086
:103B7000254609E004F5847506E004F5C67503E002
:103B800004F1840500E000BF00BF0DB9BDE8F0817D
:103B90003946284600F0EBFC05F17E00FDF7DBF925
:103BA00000BFF3E700B52DED108B85B09FED9A0BAC
:103BB000B0EE40AAF0EE60AA9FED970BB0EE408AFF
:103BC000F0EE608A96490988A1F58060FCF7C3FC95
:103BD00041EC1D0B9FED930B53EC102BFCF7DAFB24
:103BE00041EC1C0B9FED910B53EC102BFCF744FCAC
:103BF00041EC1B0BFCF7FCFC09EE900A8849498854
:103C0000A1F58060FCF7A7FC41EC1D0B9FED850B37
:103C100053EC102BFCF7BEFB41EC1C0B9FED830B10
:103C200053EC102BFCF728FC41EC1B0BFCF7E0FCE1
:103C300009EE100A19EE100AFCF79EFC41EC1B0B72
:103C400019EE900AFCF798FC41EC1C0BB0EE4B1AF5
:103C5000F0EE6B1AB0EE4C0AF0EE6C0A01F034FE96
:103C6000B0EE40AAF0EE60AA29EEA90A09EE090A10
:103C700010EE101A0846FCF77FFC41EC1C0BB0EE6E
:103C80004C0AF0EE6C0A01F017FFB0EE40BAF0EE0D
:103C900060BA9FED680B53EC102B51EC1B0BFCF73B
:103CA00079FB41EC180B9FED5C0B53EC102B51ECA6
:103CB0001A0BFCF789FC32D89FED570B01F0ECFA98
:103CC000B0EE40FAF0EE60FA9FED5C0B53EC102B77
:103CD00051EC1F0BFCF75EFB41EC1E0B9FED570BED
:103CE00053EC102BFCF756FB41EC1D0B53EC1D2B3A
:103CF00051EC1A0BFCF7C0FB41EC1C0B9FED510B78
:103D000053EC102BFCF746FB41EC1B0B9FED4F0BCC
:103D100053EC102BFCF73EFB4E4A03C257E09FEDDD
:103D20003E0B01F0B9FAB0EE40DAF0EE60DA9FED4A
:103D3000430B53EC102B51EC1D0BFCF72BFB41EC10
:103D40001C0B9FED3E0B53EC102BFCF723FB41ECBF
:103D50001B0B9FED310B01F09FFAB0EE40EAF0EE45
:103D600060EA9FED360B53EC102B51EC1E0BFCF769
:103D700011FB41EC1D0B9FED310B53EC102BFCF7AD
:103D800009FB41EC1C0B53EC1A2BFCF75CFA41ECE1
:103D90001F0B53EC1B2BFCF76FFB9FED2A0B53EC17
:103DA000102BCDE900019DED000B51EC100BFCF741
:103DB000F1FA9FED260B53EC102BCDE902019DED9E
:103DC000020B51EC100BFCF7E5FA224A03C251EC4E
:103DD000180BFCF70DFC2049C86251EC180BFCF7DE
:103DE00007FC1D49486651EC180BFCF701FC1B4908
:103DF000C86251EC180BFCF7FBFB184948661548E4
:103E000090ED000B14492C311548FFF789FC05B0E3
:103E1000BDEC108B00BD00000000000000000000A1
:103E200012000020000000000000F03F0000000031
:103E300000A08440000000000000244000000000BA
:103E400000000040000000000000C0400000000032
:103E50000000424028000020C0040020300500205F
:103E6000A00500207047000000B500210848FCF7BD
:103E700001FD012106483830FCF7FCFC0221054811
:103E8000FCF7F8FC032103483830FCF7F3FC00BDD5
:103E9000C0040020300500202DE9F04107460C4603
:103EA0000025C7F3451607F01F0825488069B04272
:103EB00001D1234D15E02248006DB04202D1204DC2
:103EC00038350EE01F488069B04201D11D4D08E031
:103ED0001C48006DB04202D11A4D383501E0BDE8F2
:103EE000F081B8F10B0F23D2DFE808F02206220B95
:103EF0000E11222222141D0020682860606868606C
:103F000017E02068E86014E02068286111E020686C
:103F100068610EE094ED000A85ED090A94ED010A4E
:103F200085ED0A0A05E02068E8616068286200E023
:103F300000BF00BF286808B1FDF70CF800BFCEE74E
:103F4000C00400203005002070B504460D4604B9B9
:103F500070BD94F8350005F01F01084384F8350062
:103F6000092D1AD006DC032D0BD0042D0DD0072D02
:103F700023D10EE00A2D14D00D2D16D0162D1CD1F4
:103F800017E02046FDF714F818E02046FCF7F4FF90
:103F900014E0204600F0C2FB10E02046FCF7FAFFD8
:103FA0000CE02046FCF7DAFF08E0204600F0CCFBEE
:103FB00004E0204600F018FB00E000BF00BF207EB8
:103FC0004007000E84F8350000BFC1E780ED000A0D
:103FD000C0ED010A80ED021AC0ED051A80ED0B3A22
:103FE00080ED062AC0ED082ADFED0A3AC0ED033A5B
:103FF000DFED083AC0ED043ADFED063AC0ED073ACE
:10400000DFED043AC0ED093ADFED023AC0ED0A3ABD
:10401000704700000000000010B590F87E2002B14B
:1040200010BDD0ED1E0A90ED010AB8EEC00A30EEC8
:10403000C00A80ED090A90ED090AD0ED0B0AB4EE32
:10404000E00AF1EE10FA03DD90ED0B0A80ED090AAB
:1040500090ED090AD0ED0B0AF1EE600AB4EEE00A29
:10406000F1EE10FA05D290ED0B0AB1EE400A80EDA8
:10407000090A90ED090AB5EEC00AF1EE10FA0CDD5E
:1040800090ED090AD0ED0C0AB4EEE00AF1EE10FA58
:1040900003D29FEDA60A80ED090A90ED090AB5EE5C
:1040A000C00AF1EE10FA0CD290ED090AD0ED0C0A1C
:1040B000B4EEE00AF1EE10FA03DD9FED9C0A80ED0C
:1040C000090A90ED0D0AD0ED090A30EE200A80EDC4
:1040D0000D0A90ED0D0AD0ED0E0AB4EEE00AF1EEF5
:1040E00010FA03DD90ED0E0A80ED0D0A90ED0D0A39
:1040F000D0ED0E0AF1EE600AB4EEE00AF1EE10FA2D
:1041000005D290ED0E0AB1EE400A80ED0D0A90ED59
:10411000090AD0ED0A0A30EE600A80ED0F0A90ED30
:10412000090A80ED0A0A90ED060AD0ED090A20EE90
:10413000200AD0ED070A90ED0D1A00EE810AD0EDAD
:10414000080A90ED0F1A00EE810A80ED100A90ED3A
:10415000100AD0ED110AB4EEE00AF1EE10FA03DD18
:1041600090ED110A80ED100A90ED100AD0ED110AC1
:10417000F1EE600AB4EEE00AF1EE10FA05D290ED2D
:10418000110AB1EE400A80ED100AD0ED100AB0F924
:10419000002000EE102AB8EEC00A30EEC00A80ED12
:1041A000150A90ED150AD0ED170AB4EEE00AF1EE0B
:1041B00010FA03DD90ED170A80ED150A90ED150A4F
:1041C000D0ED170AF1EE600AB4EEE00AF1EE10FA53
:1041D00005D290ED170AB1EE400A80ED150A90ED78
:1041E000150AB5EEC00AF1EE10FA0CDD90ED150AD5
:1041F000D0ED180AB4EEE00AF1EE10FA03D29FED0A
:104200004B0A80ED150A90ED150AB5EEC00AF1EEE5
:1042100010FA0CD290ED150AD0ED180AB4EEE00AAF
:10422000F1EE10FA03DD9FED410A80ED150A90EDE5
:10423000190AD0ED150A30EE200A80ED190A90ED2A
:10424000190AD0ED1A0AB4EEE00AF1EE10FA03DD15
:1042500090ED1A0A80ED190A90ED190AD0ED1A0AAC
:10426000F1EE600AB4EEE00AF1EE10FA05D290ED3C
:104270001A0AB1EE400A80ED190A90ED150AD0ED48
:10428000160A30EE600A80ED1B0A90ED150A80EDEB
:10429000160A90ED120AD0ED150A20EE200AD0ED94
:1042A000130A90ED191A00EE810AD0ED140A90ED70
:1042B0001B1A00EE810A80ED1C0A90ED1C0AD0ED5D
:1042C0001D0AB4EEE00AF1EE10FA03DD90ED1D0ACE
:1042D00080ED1C0A90ED1C0AD0ED1D0AF1EE600A7B
:1042E000B4EEE00AF1EE10FA05D290ED1D0AB1EE3F
:1042F000400A80ED1C0A90ED1C0ABDEEC00A10EECB
:10430000102AC2F3072390F87C2001F8123090EDB8
:104310001C0ABDEEC00A10EE102AD3B290F87C2021
:10432000012404EB42028B5400BF79E60000000038
:1043300070B504462046FCF713FC002504F1840503
:1043400004F267312846FFF767FE04F5C67504F2EC
:1043500067312846FFF760FE254604F2673128469C
:10436000FFF75AFE04F5847504F267312846FFF71B
:1043700053FE04F26731114800F099F9002604F564
:10438000157604F25731304600F01CF8883604F2F6
:104390005731304600F016F8CC3E04F25731304623
:1043A00000F010F8883604F25731304600F00AF871
:1043B00004F26731024800F07AF970BD80000020F5
:1043C0005800002010B5D0ED0E0AB0F9002000EE24
:1043D000102AB8EEC00A30EEC00A80ED050A90ED52
:1043E000050AD0ED070AB4EEE00AF1EE10FA03DD9B
:1043F00090ED070A80ED050A90ED050AD0ED070A59
:10440000F1EE600AB4EEE00AF1EE10FA05D290ED9A
:10441000070AB1EE400A80ED050A90ED050AB5EEF7
:10442000C00AF1EE10FA0CDD90ED050AD0ED080A95
:10443000B4EEE00AF1EE10FA03D29FED4B0A80EDE4
:10444000050A90ED050AB5EEC00AF1EE10FA0CD29D
:1044500090ED050AD0ED080AB4EEE00AF1EE10FA8C
:1044600003DD9FED410A80ED050A90ED090AD0EDCC
:10447000050A30EE200A80ED090A90ED090AD0ED18
:104480000A0AB4EEE00AF1EE10FA03DD90ED0A0A32
:1044900080ED090A90ED090AD0ED0A0AF1EE600AF2
:1044A000B4EEE00AF1EE10FA05D290ED0A0AB1EE90
:1044B000400A80ED090A90ED050AD0ED060A30EEBB
:1044C000600A80ED0B0A90ED050A80ED060A90ED7A
:1044D000020AD0ED050A20EE200AD0ED030A90ED85
:1044E000091A00EE810AD0ED040A90ED0B1A00EED5
:1044F000810A80ED0C0A90ED0C0AD0ED0D0AB4EEA5
:10450000E00AF1EE10FA03DD90ED0D0A80ED0C0AE1
:1045100090ED0C0AD0ED0D0AF1EE600AB4EEE00A5F
:10452000F1EE10FA05D290ED0D0AB1EE400A80EDE1
:104530000C0A90ED0C0ABDEEC00A10EE102AC2F370
:10454000072390F83C2001F8123090ED0C0ABDEEE4
:10455000C00A10EE102AD3B290F83C20012404EBDC
:1045600042028B5410BD000000000000704710B5DF
:104570004A780B7842EA03224280CA788B7842EA72
:10458000032212B202804A790B7942EA032212B264
:1045900042828A7902740288B2B14388848A1B1BE2
:1045A0001AB243681344436012F5805F04DA43682B
:1045B00003F50053436006E0B2F5805F03DD436816
:1045C000A3F50053436000BF428882824FF49023DA
:1045D000426892FBF3F2C260C26802EBC202436817
:1045E000A3EBC232826010BD38B5044600200090B3
:1045F00094F8351003460246014800F072F838BDC1
:104600005800002000B970470178427841EA022141
:10461000C1F30A01244A91804178C910827841EAA5
:104620004211C1F30A01204AD18081788911C278F0
:1046300041EA8201027941EA8221C1F30A011A4A60
:10464000118001794910427941EAC211C1F30A018E
:10465000154A518041790911890811724179C1F3D4
:10466000011151728179C27941EA022109B20E4ADF
:104670005181017A427A41EA02210AB20A498A81C9
:10468000817AC27A41EA02210AB20749CA81027BD1
:104690000A74427B4A74817B034A9174C27B02494B
:1046A000CA7400BFAFE7000012000020704730B5A9
:1046B00087B005460C460020049003904FF400702C
:1046C000019000208DF81800082005906B462246C6
:1046D00001A92846FCF78FFC08B1FCF73BFC07B0AA
:1046E00030BD2DE9F04188B006460C4617461D4600
:1046F000DDF83880CDF814800020049002948DF805
:104700001C00069501AB3A4602A93046FCF773FC43
:1047100008B1FCF71FFC08B0BDE8F08138B50446CD
:10472000207A07490870607A48700020009094F859
:1047300035100423024A0348FFF7D3FF38BD0000B9
:1047400030000020580000201FB50446206800B14A
:104750001FBD00200290039094ED0B0A8DED010A1D
:104760009DF804008DF808009DF805008DF80900FB
:104770009DF806008DF80A009DF807008DF80B00E3
:104780000020009094F83510082302AA0248FFF791
:10479000A8FF00BFDCE700005800002010B5FDF7BF
:1047A00003FC10BD00B593B0302107A8FBF740FD16
:1047B000142102A8FBF73CFD00BF00200190244813
:1047C000006840F08050224908600846006800F008
:1047D0008050019000BF00BF00BF002001901D4825
:1047E000006840F480401B4908600846006800F4F7
:1047F0008040019000BF00BF012007900004089096
:1048000002200D9041050E9104210F91A8211091D5
:10481000022111910421129107A8FDF7DBFD08B1D7
:10482000FCF798FB0F2002900220039000200490D8
:104830004FF4A05005904FF480500690052102A837
:10484000FDF788FC08B1FCF785FB13B000BD000044
:1048500040380240007000400548006840F4700095
:10486000034908604FF000600149803908607047D3
:1048700088ED00E00170704700B50246B2F9020011
:10488000B0F5967F09DA00211046FFF7F3FF508854
:10489000401C00B25080002000BD01211046FFF7EF
:1048A000E9FF0120F8E7000010B50348FEF722F900
:1048B000FCF716FA10BD0000A800002010B5026831
:1048C000294B98420ED0B0F1804F0BD0274B984225
:1048D00008D0274B984205D0264B984202D0264B51
:1048E000984203D122F070024B681A431E4B984243
:1048F00020D0B0F1804F1DD01C4B98421AD01C4BD9
:10490000984217D01B4B984214D01B4B984211D0A1
:104910001A4B98420ED01A4B98420BD0194B984222
:1049200008D0194B984205D0184B984202D0184B2A
:10493000984203D122F44072CB681A4322F08003DC
:104940004C6943EA040202608B68C3620B688362AD
:10495000054B984202D0084B984201D10B69036382
:104960000123436110BD000000000140000400402D
:1049700000080040000C00400004014000400140DD
:10498000004401400048014000180040001C004065
:104990000020004030B50C46816821F47F4142EA96
:1049A000032525432943816030BD0A46816821F0F3
:1049B000700142F0070319438160704730B50B4620
:1049C0001446026A056A25F001050562816921F035
:1049D000F00141EA041122F00A021A4381610262E5
:1049E00030BD30B50B461446056A25F0100505624A
:1049F0008169026A21F4704141EA043122F0A00287
:104A000042EA03128161026230BD70B50546AC6BAB
:104A10000020E085E0842046FEF73BF970BD70B5CC
:104A200006460025B46B20684069C0F3C01594F8B1
:104A30003900212805D125B10020E084204600F06E
:104A400060F820684069C0F3801594F83A00222885
:104A500005D125B10020E085204600F032F8E06B5A
:104A600040F01000E0632046FEF713F970BD70B50A
:104A70000546AC6B2868006800F48070B0B900206F
:104A8000E0852068C06820F480702168C8602068D4
:104A9000406920F00100216848612068406920F0E9
:104AA000400021684861202084F83A002046FEF743
:104AB0002DFC70BD70B50446A56B2846FEF727FC9B
:104AC00070BD0168C96821F490710268D160016805
:104AD000496921F0010102685161202180F83A10F2
:104AE000704710B504462068C06820F04000216877
:104AF000C860202084F839002046FEF709FC002019
:104B000010BD0168C96821F0C0010268D160202190
:104B100080F83910704770B5044694F83A0022289E
:104B20004AD1A068B0F5805F13D1A56A206940B969
:104B300020684068C0F308002880A06A801CA0623A
:104B400019E020684068C0B22880A06A401CA062BA
:104B500011E0206938B920684068C1B2A26A501CCF
:104B6000A062117007E02068406800F07F01A26A2F
:104B7000501CA0621170E08D401E80B2E085C8B963
:104B80002068C06820F020002168C8602068C068E4
:104B900020F480702168C8602068406920F001001E
:104BA00021684861202084F83A002046FEF7AEFBD9
:104BB000002070BD0020FCE70220FAE72DE9F84F45
:104BC00004462068006920F44050E16808432168E9
:104BD00008612169A068084361690843E1690843E5
:104BE00000902068C06849F20C618843009908432E
:104BF0002168C8602068406920F44070A1690843BA
:104C000021684861E069B0F5004F75D1E34920683B
:104C1000884203D0E249206888426FD1FDF772FBD9
:104C2000814602206168A0FB01510B461920A9FBB7
:104C300000712A463846FBF7C3FA6421B0FBF1F055
:104C40004FEA001A02206168A0FB01510B461920AF
:104C5000A9FB00712A463846FBF7B2FA0746022044
:104C60006168A0FB01510B461920A9FB00B12A463F
:104C70005846FBF7A5FA6421B0FBF1F000EBC00148
:104C800001EB0010A7EB8000322101EBC000642192
:104C9000B0FBF1F000F0F8000AEB400A0220616876
:104CA000A0FB01510B461920A9FB00712A4638468A
:104CB000FBF786FA074602206168A0FB01510B460C
:104CC0001920A9FB00B12A465846FBF779FA64215E
:104CD000B0FBF1F000EBC00101EB0010A7EB80008E
:104CE000322101EBC0006421B0FBF1F000F00700BD
:104CF0005044216888604FE16EE0FFE7FDF7F2FA6B
:104D0000814602206168A0FB01510B461920A9FBD6
:104D100000712A463846FBF753FA6421B0FBF1F0E4
:104D20004FEA001A02206168A0FB01510B461920CE
:104D3000A9FB00712A463846FBF742FA07460220D3
:104D40006168A0FB01510B461920A9FB00B12A465E
:104D50005846FBF735FA6421B0FBF1F000EBC001D7
:104D600001EB0010A7EB8000322101EBC0006421B1
:104D7000B0FBF1F000F0F8000AEB400A0220616895
:104D8000A0FB01510B461920A9FB00712A463846A9
:104D9000FBF716FA074602206168A0FB01500346A4
:104DA0001920A9FB00B12A465846FBF709FA6421ED
:104DB000B0FBF1F000EBC00101EB0010A7EB8000AD
:104DC000322101EBC0006421B0FBF1F000F00700DC
:104DD000504421688860DFE070492068884203D031
:104DE0006F49206888426BD1FDF78CFA8146042018
:104DF0006168A0FB01510B461920A9FB00712A46EE
:104E00003846FBF7DDF9824604206168A0FB0151BA
:104E10000B461920A9FB00712A463846FBF7D0F94A
:104E20006421B0FBF1F000EBC00101EB0010AAEB34
:104E30008000322101EB00106421B0FBF1F000F0A2
:104E4000F00A04206168A0FB015003461920A9FB69
:104E500000712A463846FBF7B3F96421B0FBF1F044
:104E60000AEB001A04206168A0FB01510B461920CF
:104E7000A9FB00712A463846FBF7A2F90746042031
:104E80006168A0FB015003461920A9FB00B12A4626
:104E90005846FBF795F96421B0FBF1F000EBC00137
:104EA00001EB0010A7EB8000322101EB0010642120
:104EB000B0FBF1F000F00F005044216888606BE017
:104EC000FDF710FA814604206168A0FB01500346FB
:104ED0001920A9FB00712A463846FBF771F9824672
:104EE00004206168A0FB015003461920A9FB007152
:104EF0002A463846FBF764F96421B0FBF1F000EB79
:104F0000C00101EB0010AAEB8000322101EB001080
:104F10006421B0FBF1F000F0F00A04206168A0FB0E
:104F2000015003461920A9FB00712A463846FBF7B9
:104F300047F96421B0FBF1F00AEB001A0420616824
:104F4000A0FB017003461920A9FB005001463A4618
:104F50002846FBF735F9074604206168A0FB01509D
:104F600003461920A9FB00B12A465846FBF728F949
:104F70006421B0FBF1F000EBC00101EB0010A7EBE6
:104F80008000322101EB00106421B0FBF1F000F051
:104F90000F00504421688860BDE8F88F0010014080
:104FA00000140140014691F8390021282CD188686D
:104FB000B0F5805F0FD10A6A1088C0F308000B6853
:104FC0005860086918B9086A801C086209E0086A14
:104FD000401C086205E00B6A581C086218780B68D0
:104FE0005860C88C401E80B2C88458B90868C06830
:104FF00020F080000B68D8600868C06840F040006E
:105000000B68D860002070470220FCE710B5054807
:10501000FDF740FE044B054A0549024800F038F808
:1050200010BD0000E8000020054600085C090020D3
:10503000E801002010B50248FDF72CFE10BD00006D
:105040002801002010B50548FDF724FE044B054A51
:105050000549024800F01CF810BD0000680100205E
:1050600029520008680900200803002010B50548EF
:10507000FDF710FE0023044A0449024800F008F836
:1050800010BD0000A80100207409002028040020A1
:105090002DE9F84306460F4614461D464FF000081A
:1050A00030680068C0F30010002833D0386800680A
:1050B00020F001003968086000BF002000903068CF
:1050C0000068009030684068009000BF00BFA07A80
:1050D00039684968401A00F0FF08207A68B100205A
:1050E0002072628930462168FEF7AEF8608940453B
:1050F00010D17DB16068A8470CE001202072628960
:1051000030466168FEF7A0F86089404502D10DB1D4
:105110002068A847BDE8F88300BFFEE710B50A2065
:1051200000F0F4FD384908600A2000F0EFFD364930
:10513000486036480068C06840F01000334909688C
:10514000C8600020304908720A20488108460A22B7
:1051500001682E48FEF778F80A2000F0D7FD2C49A8
:1051600008600A2000F0D2FD2949486029480068FB
:10517000C06840F0100027490968C8600020244931
:1051800008720A20488108460A2201682148FEF771
:105190005BF8142000F0BAFD1F490860142000F0ED
:1051A000B5FD1D4948601D480068C06840F010000A
:1051B0001A490968C86000201749087214204881FC
:1051C0000846142201681548FEF73EF8122000F048
:1051D0009DFD13490860122000F098FD10494860B9
:1051E00010480068C06840F010000E490968C860A7
:1051F00000200B49087212204881084612220168DB
:105200000848FEF721F810BD74090020A80100200D
:1052100068090020680100201C09002028010020E6
:105220005C090020E8000020704703B401984100A9
:10523000009850EAC12018BF04204A0D18BF40F062
:10524000010040F2FF72B2EB515F08BF40F0020074
:10525000012808BF052002B070470000024800681E
:10526000C0F30220704700000CED00E010B50028EC
:1052700004DB0A07130E054A135406E00A07140E4E
:10528000034A00F00F031B1FD45410BD00E400E0DC
:1052900018ED00E00000000010B5B94A2DED020B3A
:1052A0002DED0C8B82B00F9921F000409FEDB6CB15
:1052B000904232DBA0F140530E9AA3F17F631A4370
:1052C0009FEDB38B14D0B449884202DC1BD10E98F9
:1052D000C8B19DED0E0B53EC102B51EC100BFAF7EF
:1052E000B2FF41EC100B02B0BDEC0C8B02B010BD54
:1052F0000029C7BFB0EE480AF0EE680AB0EE4C0ACB
:10530000F0EE6C0AEFE7012000F0B2FC53EC182B32
:1053100051EC180BFBF7B0F85EE0A04A9FEDA09BA4
:105320009FEDA1AB90425ADAA1499FEDA3BB814208
:10533000A4BFB0EE4B0AF0EE6B0AD4DA9DED0E0B73
:1053400053EC102B51EC100BFBF724F841EC180B2D
:105350009B480621B0EE480AF0EE680A784400F057
:10536000E8FB53EC182B51EC100BFBF713F841EC56
:105370001C0B9448B0EE480AF0EE680A0421784409
:1053800000F0D7FB53EC182B51EC100BFBF702F895
:1053900053EC192BFAF757FF41EC100B51EC1C0B97
:1053A00053EC102BFBF768F841EC100B53EC102B6F
:1053B0009DED0E0B51EC100BFAF7ECFF53EC1A2B92
:1053C000FAF7E5FF9DED0E1B53EC112BFAF7DFFF0B
:1053D00053EC1B2BFAF7DBFF41EC100B83E79FED3F
:1053E0007A8B9FED7BBB9DED0E0B002953EC192BA7
:1053F00051EC100B52DAFAF726FF53EC182BFAF7A0
:10540000C9FF41EC180B74480621B0EE480AF0EED3
:10541000680A784400F08DFB53EC182B51EC100B0C
:10542000FAF7B8FF41EC1D0B6C48B0EE480AF0EEFD
:10543000680A0421784400F07CFB53EC182B51ECF3
:10544000100BFAF7A7FF53EC192BFAF7FCFE41EC0F
:10545000190B51EC180B00F08FFC41EC180B53ECBE
:10546000192B51EC1D0BFBF707F853EC182BFAF72F
:1054700091FF53EC1A2BFAF787FF41EC100B51EC1C
:10548000180B53EC102BFAF7DEFE53EC1B2BFAF73C
:1054900081FF53EC1C2BFAF77AFF9DE7FAF777FFB1
:1054A00053EC182BFAF776FF41EC180B00F064FC74
:1054B00041EC1A0B00208DED00AB00909DED000B30
:1054C00051EC1A0B53EC102BFAF7BDFE9DED000BBF
:1054D00041EC1C0B53EC102B51EC100BFAF75AFF5C
:1054E00053EC182BFAF753FF53EC1C2BFAF7C4FFBD
:1054F00041EC1C0B3A48B0EE480AF0EE680A06216F
:10550000784400F016FB53EC182B51EC100BFAF713
:1055100041FF41EC1D0B3348B0EE480AF0EE680A3B
:105520000421784400F005FB53EC182B51EC100BD0
:10553000FAF730FF53EC192BFAF785FE41EC100B0C
:1055400051EC1D0B53EC102BFAF796FF53EC1A2B72
:10555000FAF720FF53EC1C2BFAF775FE41EC100B09
:1055600053EC102B9DED000B51EC100BFAF76BFE7A
:1055700053EC1B2BFAF70EFF2EE700000000000093
:105580000000F03F00000000182D4454FB210940AA
:1055900000000000000000000000F07F0000E03F7D
:1055A000000000000000F03F075C143326A6913C89
:1055B0000000603C00000000182D4454FB21F93F1E
:1055C000A80A0000B60A0000000000000000E03F4A
:1055D0000000000000000040F2090000000A000086
:1055E000040900001209000070B59D482DED020B62
:1055F0002DED068B079D25F00044A0421DDC994847
:10560000844202DC0FD1069868B19DED060B53EC85
:10561000102B51EC100BFAF716FEBDEC068B02B006
:1056200041EC100B70BD002DCCBF9FED8F0B9FED9B
:10563000900BBDEC068B02B070BD8F48A04215DD0B
:105640008E48A042D8BF4FF0FF3458DD9DED060BC9
:1056500051EC100BFFF7E9FD042808BF00F0E8FA51
:105660009DED060BBDEC068B02B070BD9DED060BEB
:1056700051EC100B00F00AFBCDE9060180489FEDCC
:10568000828BA0423CDD8248A0421FDD00249FEDBA
:1056900082AB9DED060B53EC1A2B51EC100BFAF775
:1056A000D2FD9DED060B41EC190B53EC1A2B51EC7E
:1056B000100BFAF76FFE53EC182BFAF765FE53EC5C
:1056C000192BFAF7D9FECDE9060149E09DED060B4D
:1056D000012453EC182B51EC100BFAF7B4FD9DED9F
:1056E000060B41EC190B53EC182B51EC100BFAF78D
:1056F0004BFE53EC192BFAF7BFFECDE906012FE064
:105700006748A0421FDD02249FED679B9DED060BBD
:1057100053EC192B51EC100BFAF73CFE53EC182B01
:10572000FAF791FD9DED060B41EC180B53EC192B8C
:1057300051EC100BFAF728FE53EC182BFAF79CFEED
:10574000CDE906010CE09DED060B032453EC102B74
:105750009FED570B51EC100BFAF78EFECDE90601C9
:105760009DED060B53EC102B51EC100BFAF712FECB
:1057700041EC180B53EC182BFAF70CFE41EC190B0B
:105780004D480621B0EE490AF0EE690A784400F06F
:10579000D0F953EC182B51EC100BFAF7FBFD41EC50
:1057A000180B4648B0EE490AF0EE690A0521784424
:1057B00000F0BFF953EC192B51EC100BFAF7EAFD8E
:1057C00041EC100B51EC180B53EC102B002C0EDAA3
:1057D000FAF739FD9DED061B53EC112BFAF7DAFDB4
:1057E0009DED061B53EC112BFAF7D1FD35E0FAF7CE
:1057F0002AFD9DED061B53EC112BFAF7CBFD41EC76
:10580000100B2F48784400EBC40090ED001B51ECC6
:10581000100B53EC112BFAF7B7FD9DED061B53EC63
:10582000112BFAF7B1FD41EC100B2648784400EB40
:10583000C40090ED001B51EC100B53EC112BFAF748
:10584000A6FD41EC100B002DA2BFBDEC068B02B0F3
:1058500070BD51EC100B81F0004141EC100B01E7E1
:10586000000010440000F07F182D4454FB21F93F44
:10587000182D4454FB21F9BF0000DC3F0000203EFE
:105880000000F33F00000000000000000000F03FB7
:105890000000E63F000000000000000000000040A3
:1058A0000080034000000000000000000000F83FFE
:1058B000000000000000F0BF30070000E606000016
:1058C000700600002806000070B56B4E2DED040B2D
:1058D0002DED028B82B0DDF81CC0DDE905235C42B2
:1058E0002CF000411C4341EAD474049D22F0004096
:1058F000B44205D86C422C4340EAD474B44210D967
:105900009DED060B53EC102B9DED040B51EC100B91
:10591000FAF799FC41EC100B02B0BDEC028B04B01D
:1059200070BDACF14054A4F17F641C430BD0022441
:1059300004EAAC7444EAD27405439FED518B9FEDA9
:10594000522B07D010E09DED040B51EC100B00F032
:1059500095F939E0002C14BF012C9DED040BDBD030
:10596000022C34D0032C37D00B439FED491B9FED05
:105970004A0B0AD0B14218D1B04209D121F080417E
:1059800020F08040079105900FE0002AC4DA10E073
:10599000434B7B44002C08BF93ED000BBCD0012C83
:1059A0000CD0022C13D0032C16D0B04219D1002AEF
:1059B000B2DAB0EE410AF0EE610AADE793ED000B0A
:1059C00051EC100B81F0004141EC100BA4E7B0EE5C
:1059D000480AF0EE680A9FE7B0EE420AF0EE620A6B
:1059E0009AE7401A00153C28C8BF8DED000B19DC62
:1059F000BCF1000FBEBF10F13C0F9FED2B0B8DEDE6
:105A0000000B0FDB9DED060B53EC102B9DED040BF3
:105A100051EC100BFAF730FD00F038F900F02EF9D8
:105A2000CDE90001002C08BF9DED000B3FF474AFE1
:105A3000012C10D0022C9FED1E0B53EC102B9DED72
:105A4000000B51EC100B0DD0FAF79EFC53EC182B09
:105A5000FAF79AFCB8E7019880F0004001909DEDBC
:105A6000000B59E7FAF790FC53EC182BFAF78FFC70
:105A7000AAE70000000000000000F07F0000000026
:105A8000182D4454FB210940182D4454FB2109C012
:105A9000182D4454FB21F9BF182D4454FB21F93F24
:105AA0005A05000000000000000000000000000097
:105AB000075C143326A6A13C00B52DED048BB0EE97
:105AC000409AF0EE609A83B051EC190BFAF76FFE32
:105AD00041EC180B18EE100A18EE901A8DED008BA1
