:020000040800F2
:10000000800E00209D010008253F0008573200089F
:1000100079370008E10A0008A14F0008000000003D
:100020000000000000000000000000008145000802
:10003000A70D0008000000003D44000849460008E4
:10004000B7010008B7010008B7010008B7010008B0
:10005000B7010008B7010008B7010008B7010008A0
:10006000B7010008A90D0008C50D0008B701000878
:100070002D0C0008B70100083D0C0008B70100086E
:100080004D0C00085D0C0008B7010008B70100081E
:10009000E50A0008B7010008B7010008B701000829
:1000A000B7010008B7010008B7010008B701000850
:1000B0002547000839470008B7010008B7010008C4
:1000C000B7010008B7010008B7010008B701000830
:1000D000B7010008994E0008C14E0008E54E00081F
:1000E000B7010008B7010008B7010008B701000810
:1000F000B7010008B7010008B7010008B701000800
:10010000B7010008B7010008B7010008B7010008EF
:10011000B7010008B7010008B7010008B7010008DF
:10012000B70100086D0C00087D0C0008B70100083D
:10013000B70100080000000000000000B70100083F
:10014000150B0008B7010008B7010008B701000847
:10015000B70100088D0C0008B7010008F54E000833
:10016000B7010008B7010008B7010008B70100088F
:10017000B7010008B70100080000000000000000FF
:10018000B7010008B7010008DFF80CD000F060FBF1
:1001900000480047255B0008800E00200648804785
:1001A00006480047FEE7FEE7FEE7FEE7FEE7FEE75C
:1001B000FEE7FEE7FEE7FEE70547000889010008C5
:1001C0002DE9F05F0546002092469B46884606468C
:1001D000814640241BE0284641464746224600F01F
:1001E00032FA53465A46C01A914110D31146184666
:1001F000224600F019FA2D1A67EB01084F462246F5
:100200000120002100F010FA17EB00094E41201EDA
:10021000A4F10104DFDC484631462A464346BDE8E6
:10022000F09FD2B201E000F8012B491EFBD27047CB
:100230000022F6E710B513460A4604461946FFF7B2
:10024000F0FF204610BD2DE9FE4F804681EA0300F5
:10025000C00F0C46009021F0004123F00045B8EBA0
:100260000200A94105D24046214690461C460B4655
:10027000024623F00040104347D0270DC7F30A0081
:10028000C3F30A510290401A019040286BDAC3F37D
:10029000130040F4801B0098924620B10023D2EB5B
:1002A000030A63EB0B0B01985946C0F1400250461C
:1002B00000F0BAF906460D4650465946019A00F03C
:1002C000D2F910EB08006141002487EA115284EA58
:1002D000E7731A4340D0009A62B3019A012A4FEAA9
:1002E000075215DC001B61EB02014FF0004202EAED
:1002F0000752CDE90042001C41F5801132462B46E1
:1003000000F007FA03B0BDE8F08F40462146F9E758
:10031000001B61EB0201001C41F5801300185B41DA
:100320002018A2F5001747EB030140EAD570B61973
:100330006D4111E06D084FEA360645EAC0754FEA97
:100340000752001B61EB0201001C41F580114908B6
:100350004FEA30000019514132462B4603B0BDE848
:10036000F04F00F0C9B90098012240000023D0EB03
:10037000020263EBE073009821464FEAE074B8EBA9
:10038000000061EB0401E9E783F000435BE781F0E3
:10039000004158E72DE9FE4F81EA030404F00044D0
:1003A00021F0004100944FF0000B23F0004350EA8D
:1003B00001045ED052EA03045BD0C3F30A54C1F3D4
:1003C0000A552C44A4F2F3340194A0FB0254C1F367
:1003D000130141F48011C3F3130343F4801301FBB1
:1003E000024400FB034E840A970A44EA815447EA18
:1003F0008357A4FB076802958D0A05FB07854FEA22
:10040000932C04FB0C542705029D4FEA065847EA3B
:100410001637B5EB08056EEB070C870E920E47EA10
:10042000811742EA8312A7FB0201B6EB0B0164EBD2
:1004300000042B0D43EA0C335E1844EB1C50DA46E3
:100440005146E7FB0201C5F313044FEA0B3343EABD
:1004500014534FEA0432019C43EA0603A4F10C044E
:100460000294009CCDE900B400F053F903B0BDE85C
:10047000F08F00200146F9E72DE9F04D81EA0304F1
:1004800004F0004B21F0004514464FF0000A23F021
:10049000004150EA050220D054EA01021DD0C5F304
:1004A0000A570246C5F31303C1F31300C1F30A56FA
:1004B00040F4801543F48013A7EB0608101BD646C2
:1004C00008F2FD3873EB050002D308F1010801E0E2
:1004D00092185B41B8F1000F03DA00200146BDE835
:1004E000F08D00204FF48011064684460EE0171B65
:1004F00073EB050705D3121B63EB050306434CEAB8
:10050000010C49084FEA300092185B4150EA01079C
:10051000EDD152EA030012D082EA040083EA050119
:10052000084305D0101BAB4106D20122002306E090
:1005300000224FF0004302E06FF0010253101AEB6B
:1005400006004CEB085110EB0A0041EB0B01BDE833
:10055000F04D00F0D1B80EB5C10F80EAE07008444C
:10056000CA07002140F233438DE80E000A460B46CD
:1005700000F0CFF803B000BD00F0004230F00040C2
:100580000AD0C10D01F56071C0F3160042EA0151B5
:10059000C208400711437047002001467047000021
:1005A00030B5002904DB4FF00044404264EB010108
:1005B000002B04DB4FF00044524264EB03038B42F8
:1005C00008BF824230BD000030B5002904DB4FF087
:1005D0000044404264EB0101002B04DB4FF0004477
:1005E000524264EB0303994208BF904230BD0000C1
:1005F00001F0004330B421F0004150EA010206D07E
:100600000A0DA2F56072C1F31301002A02DC30BCAE
:1006100000207047440F44EAC104C100E01830BC18
:1006200000EBC25000F031B8202A04DB203A00FA77
:1006300002F1002070479140C2F1200320FA03F339
:10064000194390407047202A04DB203A21FA02F037
:100650000021704721FA02F3D040C2F120029140FC
:10066000084319467047202A06DBCB17203A41FA87
:1006700002F043EAE07306E041FA02F3D040C2F12F
:10068000200291400843194670470029A8BF7047CF
:10069000401C490008BF20F00100704710B4B0FAB8
:1006A00080FC00FA0CF050EA010404BF10BC704753
:1006B00049B1CCF1200421FA04F411FA0CF118BF6D
:1006C000012121430843A3EB0C01CB1D4FEA00613C
:1006D0004FEA102042BF002010BC704700EBC3500F
:1006E00010440029A4BF10BC7047401C490008BF3B
:1006F00020F0010010BC704710B5002B08DA401C38
:1007000041F1000192185B411A4301D120F0010030
:1007100010BD2DE9F04D92469B4611B1B1FA81F220
:1007200002E0B0FA80F220329046FFF77DFF0446E7
:100730000F4640EA0A0041EA0B0153465A46084375
:1007400013D0114653EA010019D0C8F140025046B7
:10075000FFF779FF05460E46504659464246FFF7D9
:1007600063FF084305D0012004E020463946BDE878
:10077000F08D0020054346EAE0762C4337430A9883
:100780006305E40AA0EB08000022FD0A44EA47548E
:100790000A3002D500200146E9E701051019694138
:1007A000DDE9084500196941BDE8F04DA4E72DE9F0
:1007B000F04D00231A461B1A8A4103DB0020014634
:1007C000BDE8F08DC1F30A52C1F3130141F4801565
:1007D0004FF0000BD10702D100186D41521E0027C7
:1007E000044640F2FF11384601EB620A3E4680465D
:1007F000024600204FF48011FFF725FFC219714116
:10080000BB1846EB0100B4EB030C75EB000C04D3F2
:10081000E41A65EB000517460E46241908F101009D
:100820006D4180463428E3DDF91946EB0600091BCB
:10083000A84103D24FF0FF32134601E000221346D5
:100840001BEB070046EB0A51BDE8F04DFFF754BF24
:10085000064C074D06E0E06840F0010394E807000D
:1008600098471034AC42F6D3FFF792FC785D00084D
:10087000985D0008002280F82820426002619FED08
:10088000090A80ED070A02609FED060A80ED080A5A
:10089000C260416182604A0142859FED020A80ED9B
:1008A000090A70470000000070B50024854C9FEDD8
:1008B000863ADFED862A9FED852ADFED831A9FEDCC
:1008C000831ADFED820A9FED820A04F1180003F01B
:1008D000CDFB002084F87C009FED7E3ADFED7B2A83
:1008E0009FED7A2ADFED781A9FED781ADFED770A0F
:1008F000B1EE040A04F1480003F0B8FB4FF496711E
:1009000080200153012104F17E0003F009FF8834A7
:100910009FED6E3ADFED6D2A9FED6C2ADFED6B1ACD
:100920009FED6A1ADFED690A9FED680A04F118006D
:1009300003F09CFB012084F87C009FED643ADFED1E
:10094000632A9FED622ADFED611A9FED601ADFEDE9
:100950005F0A9FED5E0A04F1480003F087FB4FF445
:10096000967180200153012104F17E0003F0D8FE2E
:1009700088349FED563ADFED552A9FED542ADFED7E
:10098000531A9FED521ADFED510A9FED500A04F100
:10099000180003F06BFB022084F87C009FED4B3ABB
:1009A000DFED4A2A9FED492ADFED481A9FED471AED
:1009B000DFED460A9FED450A04F1480003F056FBBF
:1009C0004FF4967180200153012104F17E0003F061
:1009D000A7FE88349FED3D3ADFED3C2A9FED3B2A90
:1009E000DFED3A1A9FED391ADFED380A9FED370A2D
:1009F00004F1180003F03AFB032084F87C009FED1B
:100A0000333ADFED322A9FED312ADFED301A9FEDC8
:100A10002F1ADFED2E0A9FED2D0A04F1480003F096
:100A200025FB4FF4967180200153012104F17E00D3
:100A300003F076FE0025284822490546C1F88400C7
:100A400000212846FFF716FF4FF49671E985012132
:100A500005F12C0003F064FE1F48303019490546AB
:100A6000C1F80C0101212846FFF704FF4FF49671ED
:100A7000E985012105F12C0003F052FE17491148C8
:100A80000D46C0F8941102212846FFF7F3FE4FF4FB
:100A90009671E985012105F12C0003F041FE0F4814
:100AA000303008490546C1F81C0203212846FFF7EB
:100AB000E1FE4FF49671E985012105F12C0003F068
:100AC0002FFE70BDC805002000401C46000000003D
:100AD0009A99993E0000FA45080500206805002013
:100AE00000BFFEE710B5084800F004FC074B084AB9
:100AF0000021054800F041FB0549098888B20349F7
:100B000003F012FA10BD000060000020FD07002075
:100B1000D004002010B5074800F0ECFB064B074A54
:100B20000021044800F029FB04480168024803F052
:100B300047F810BD880000200D080020EC040020BC
:100B400010B58AB004461148844204D100200590B3
:100B50000E20099002E00E200590099001200890D7
:100B600000200090019002900390049006900120D4
:100B700007906946204600F06DFA204600F053FECB
:100B80000221204600F0A6F90AB010BD6000002046
:100B900010B52348D0F85002401C2149C1F850023A
:100BA000204890F90000042803DD00201D4908704A
:100BB00005E01C480078401C40B21A49087002F059
:100BC0004DFB1948007820B1012805D0022823D117
:100BD0001BE000F006F920E01148D0F81C02406844
:100BE000082808D10E48D0F81C02006818B9022065
:100BF0000D49087008E00B480078032804D1084923
:100C0000D1F81C0202F0A0FF07E003F003F8054949
:100C1000087803F0DDFB00E000BF00BF10BD00005E
:100C2000C8050020090000200800002010B5024877
:100C300000F044FE10BD00005003002010B5024833
:100C400000F03CFE10BD0000B003002010B50248CB
:100C500000F034FE10BD00009002002010B50248E4
:100C600000F02CFE10BD0000F002002010B502487C
:100C700000F024FE10BD00001004002010B5024852
:100C800000F01CFE10BD00003002002010B502482C
:100C900000F014FE10BD000070040020014608782A
:100CA00010381823B0FBF3F20848805CC865032AAB
:100CB00005D908686FF30900001D886503E008681E
:100CC0006FF309008865886D70470000665C000856
:100CD000014600208A6A8B69CBB932B1012A0DD056
:100CE000022A03D0032A10D10EE000BFCB6A03F022
:100CF0008073B3F1807F00D1012007E0CB6AB3F1AC
:100D0000C07F00D1012001E000E000BF34E08B692A
:100D1000B3F5005F1AD132B1012A07D0022A03D0FD
:100D2000032A11D10AE000BF01200EE0CB6A03F0D4
:100D30008073B3F1807F00D1012006E0CB6AB3F16C
:100D4000C07F00D1012000E000BF15E032B1012AD0
:100D500005D0022A04D0032A0CD103E000BF00BF53
:100D6000012008E0CB6A03F08073B3F1807F00D1EB
:100D7000012000E000BF00BF704730B50468246860
:100D800024F4802405682C60046863608468402C27
:100D900004D10468A2600468E16003E00468A16013
:100DA0000468E26030BD704710B5082000F066FFAF
:100DB0000349D1F88400162103F016F910BD000094
:100DC000C805002010B5102000F058FF0349D1F8E5
:100DD0009401162103F008F910BD0000C805002099
:100DE0007047704700B50246002050800021104631
:100DF00003F096FC00BD000018B5044602200090E8
:100E0000618D0823024A034803F0D5FB18BD00009A
:100E1000340000206000002018B504460220009035
:100E2000618D0423024A034803F0C5FB18BD00008E
:100E3000340000206000002018B504460220009015
:100E4000618D08230022024803F0B5FB18BD0000A5
:100E50006000002018B5044602200090618D042334
:100E60000022024803F0A7FB18BD0000600000202C
:100E700010B501220221044801F00EF800220121E0
:100E8000014801F009F810BD0008024010B5044601
:100E90004FF4FA70B4FBF0F100FB1140B0F5C87FDD
:100EA0000AD9002202210A4800F0F6FF002201219F
:100EB000074800F0F1FF09E001220221044800F098
:100EC000EBFF00220121024800F0E6FF10BD000008
:100ED0000008024010B5024692F82030012B01D0E4
:100EE000022B06D110684069084314686061002035
:100EF00010BD506A40F4802050620120F8E7F0B540
:100F000004460D461E4694F8207020688368A86841
:100F100000B900E000BF012F01D0022F7CD103F007
:100F2000806030B903F0006018B903F080500028E9
:100F300073D0C3F30161022905D9606A40F400004F
:100F400060620120F0BD012088403060A86860B96F
:100F5000B5F800C0E86840EA4C5C206800F5C07055
:100F600000EB0110C0F800C00FE0D5E901C040EA75
:100F7000CC00D5F80CC040EA0C00D4F800C00CF549
:100F8000C07C0CEB011CCCF80000D5F810C0206828
:100F900000F5C07000EB0110C0F804C0287D0128E6
:100FA0000ED1206800F5C07000EB0110406840F4DD
:100FB000807C206800F5C07000EB0110C0F804C010
:100FC000D079000692F806C040EA0C4092F805C0BD
:100FD00040EA0C2C10794CEA000C206800F5C07037
:100FE00000EB0110C0F80CC0D078000692F802C0E7
:100FF00040EA0C4092F801C040EA0C2092F800C090
:1010000040EA0C00D4F800C00CF5C07C0CEB011CCD
:10101000CCF80800206801E016E00FE000F5C07091
:1010200000EB0110006840F0010C206800F5C07072
:1010300000EB0110C0F800C0002083E7606A40F4B4
:101040000010606201207DE7606A40F480206062E9
:10105000012077E7F0B504460A46216894F820504D
:10106000012D01D0022D7ED1424901F500710868A1
:1010700040F001000860086820F47C5008600868AF
:10108000566A40EA06200860107D00F01F06012025
:1010900000FA06F3C8699843C861A1F50071D069E8
:1010A000C8B9D1F80C029843C1F80C02908880B2FC
:1010B000968940EA064601F51070576940F8376096
:1010C000108880B2168940EA064601F5107057690B
:1010D00000EBC7004660D069012819D1D1F80C0295
:1010E0001843C1F80C02908880B2168840EA064680
:1010F00001F51070576940F83760908980B2168901
:1011000040EA064601F51070576900EBC7004660DB
:10111000906928B9D1F804029843C1F8040204E0A8
:10112000D1F804021843C1F80402106928B9D1F8B3
:1011300014029843C1F8140204E0D1F814021843D1
:10114000C1F81402106A012804D1D1F81C02184316
:10115000C1F81C02D1F8000220F00100C1F8000221
:101160000020F0BDFFE7606A40F48020606201204B
:10117000F7E7000000640040704770B5044694F83B
:101180002050012D01D0022D7DD151B92068C068B9
:1011900000F0030080B9606A40F400106062012032
:1011A00070BD2068006900F0030028B9606A40F44F
:1011B000001060620120F3E7206800F5D87000EBB2
:1011C0000110006800F004009060906840B9206849
:1011D00000F5D87000EB01100068400D106007E0CA
:1011E000206800F5D87000EB01100068C00850605E
:1011F000206800F5D87000EB0110006800F00200D4
:10120000D060206800F5D87000EB0110406800F055
:101210000F001061206800F5D87000EB01104068E5
:1012200000F47F40000A9061206800F5D87000EB60
:1012300001104068000C5061206800F5D87000EB88
:10124000011080681870206800F5D87000EB01105C
:10125000806800F47F40000A5870206800F5D8705C
:1012600000EB0110806800F47F00000C987020688B
:1012700000F5D87000EB01108068000ED87020686F
:1012800000F5D87000E02FE000EB0110C068187185
:10129000206800F5D87000EB0110C06800F47F40B2
:1012A000000A5871206800F5D87000EB0110C06882
:1012B00000F47F00000C9871206800F5D87000EBF6
:1012C0000110C068000ED87131B92068C06840F0C4
:1012D00020002668F06005E02068006940F02000EA
:1012E0002668306100205BE7606A40F4802060621D
:1012F000012055E72DE9F05F044600252068466986
:101300002068D0F80490206887682068D0F80CA086
:101310002068D0F810B02068D0F8188006F00100DE
:10132000002855D007F00100C0B101202168886075
:1013300007F0020018B1204600F0A5FA0EE007F011
:10134000040010B145F4006508E007F0080010B192
:1013500045F4805502E0204600F094FA07F48070CE
:10136000C8B14FF480702168886007F4007018B12C
:10137000204600F08AFA0EE007F4806010B145F4D0
:10138000005508E007F4006010B145F4804502E024
:10139000204600F079FA07F48030C8B14FF480306D
:1013A0002168886007F4003018B1204600F06FFA19
:1013B0000EE007F4802010B145F4004508E007F482
:1013C000002010B145F4803502E0204600F05EFABE
:1013D00006F0080038B10AF0100020B145F400759D
:1013E00010202168C86006F0040040B10AF008002F
:1013F00028B108202168C860204600F00FFA06F0E6
:10140000020038B12068C06800F0030010B1204627
:1014100000F005FA06F0400038B10BF0100020B1E2
:1014200045F4806510202168086106F0200040B175
:101430000BF0080028B1082021680861204600F060
:10144000EFF906F0100038B12068006900F00300E1
:1014500010B1204600F0E5F906F4003040B109F083
:10146000100028B1102021684860204600F0DAF909
:1014700006F4803040B109F0080028B10820216846
:101480004860204600F004FA06F4004088B309F0F2
:10149000040078B306F4807020B108F0010008B1B0
:1014A00045F0010506F4007020B108F0020008B113
:1014B00045F0020506F4806020B108F0040008B190
:1014C00045F0040506F40060A0B108F0700088B192
:1014D00008F07000402817D006DC10280BD0202818
:1014E0000CD0302819D10CE0502810D0602814D12D
:1014F00010E01DE019E045F008050FE045F010058B
:101500000CE045F0200509E045F0400506E045F017
:10151000800503E045F4807500E000BF00BF20684F
:10152000806920F07000216888610420216848608B
:101530002DB1606A284360622046FFF71DFEBDE8BA
:10154000F09F70B504460CB9012070BD94F82000DE
:1015500010B9204600F0B0F82068006820F00200C2
:101560002168086000F09EFC05460DE000F09AFC42
:10157000401B0A2808D9606A40F4003060620520E8
:1015800084F820000120E0E72068406800F00200B5
:101590000028EBD12068006840F001002168086055
:1015A00000F080FC05460DE000F07CFC401B0A28A2
:1015B00008D9606A40F400306062052084F8200099
:1015C0000120C2E72068406800F001000028EBD04D
:1015D000207E012806D12068006840F08000216844
:1015E000086005E02068006820F08000216808603D
:1015F000607E012806D12068006840F04000216824
:10160000086005E02068006820F04000216808605C
:10161000A07E012806D12068006840F020002168E3
:10162000086005E02068006820F02000216808605C
:10163000E07E012806D12068006820F010002168B3
:10164000086005E02068006840F01000216808602C
:10165000207F012806D12068006840F0080021683A
:10166000086005E02068006820F008002168086034
:10167000607F012806D12068006840F004002168DE
:10168000086005E02068006820F004002168086018
:10169000D4E902010843216908436169084361688C
:1016A000491E08432168C86100206062012084F857
:1016B0002000002049E7000010B586B00446142140
:1016C00001A8FEF7B5FD4F492068884242D14E4837
:1016D0000068401C4C4908600846006801280FD18A
:1016E00000BF002000904948006840F00070474962
:1016F00008600846006800F00070009000BF00BF5E
:1017000000BF0020009041481038006840F0010000
:101710003E49103908600846006800F0010000905A
:1017200000BF00BF4FF4C050019002200290002083
:101730000390032004900920059001A9344800F08B
:10174000ABFA00221146142000F036FC142000F001
:1017500023FC54E02F492068884250D100BF00206C
:1017600000902A48006840F08060284908600846D8
:10177000006800F08060009000BF00BF2248006851
:10178000401C214908600846006801280FD100BFAD
:10179000002000901D48006840F000701B49086060
:1017A0000846006800F00070009000BF00BF00BF56
:1017B0000020009015481038006840F002001349DE
:1017C000103908600846006800F00200009000BF71
:1017D00000BF6020019002200290002003900320AF
:1017E00004900920059001A90B4800F055FA002249
:1017F0001146402000F0E0FB402000F0CDFB06B099
:1018000010BD000000640040040000204038024089
:10181000000002400068004000040240704770472A
:1018200070477047704770B5044694F8200001284F
:1018300022D1022084F820002068006820F00100F6
:101840002168086000F02EFB05460DE000F02AFB41
:10185000401B0A2808D9606A40F400306062052005
:1018600084F82000012070BD2068406800F001006D
:101870000028EBD16062F6E7606A40F40020606205
:101880000120F0E770477047704770477047704716
:101890007047014691F83500022803D08020486542
:1018A00001207047052081F835000868006820F0A5
:1018B00001000A6810600020F3E70000F8B5044654
:1018C000002000908C4800684FF41651B0FBF1F7EF
:1018D000A56D2E6894F85C1008208840304098B1BF
:1018E0002068006800F0040070B12068006820F0F3
:1018F00004002168086094F85C1008208840A86003
:10190000606D40F00100606594F85C100120884033
:10191000304068B12068406900F0800040B194F820
:101920005C1001208840A860606D40F00200606596
:1019300094F85C1004208840304068B1206800684A
:1019400000F0020040B194F85C1004208840A860C8
:10195000606D40F00400606594F85C1010208840D1
:10196000304078B32068006800F0080050B394F865
:101970005C1010208840A8602068006800F4802077
:1019800080B12068006800F4002028B9206CC8B13C
:101990002046216C884715E0A06C98B12046A16CC8
:1019A00088470FE02068006800F4807028B920683C
:1019B000006820F0080021680860206C10B1204603
:1019C000216C884794F85C10202088403040002823
:1019D00065D02068006800F0100000285FD094F8FF
:1019E0005C1020208840A86094F83500052828D194
:1019F0002068006820F016002168086020684069AF
:101A000020F0800021684861206C08B9A06C28B1E2
:101A10002068006820F008002168086094F85C10D5
:101A20003F208840A86000BF002084F8340000BF39
:101A3000012084F83500206D10B12046216D8847C3
:101A4000F8BD2068006800F4802080B1206800683C
:101A500000F4002028B9606C10B12046616C884702
:101A60001DE0E06BD8B12046E16B884717E02068A5
:101A7000006800F4807068B92068006820F01000E9
:101A80002168086000BF002084F8340000BF0120F6
:101A900084F83500E06B10B12046E16B8847606D3B
:101AA00038B3606D00F00100F0B1052084F8350016
:101AB0002068006820F001002168086000BF0098DD
:101AC000401C0090B84200D905E02068006800F092
:101AD00001000028F3D100BF00BF002084F83400CB
:101AE00000BF012084F83500E06C10B12046E16CA5
:101AF000884700BFA4E70000500000202DE9F04116
:101B00000446002500F0CEF9074614B90120BDE8CF
:101B1000F081606A00B100BF00BF002084F834008B
:101B200000BF022084F835002068006820F0010022
:101B3000216808600AE000F0B5F9C01B052805D946
:101B400020206065032084F83500E0E72068006805
:101B500000F001000028EED120680568214805400A
:101B6000D4E901010843E168084321690843616938
:101B70000843A1690843E1690843216A0843054312
:101B8000606A042803D1D4E90B01084305432068A7
:101B900005602068456925F00705606A0543606AAD
:101BA00004280DD1A06A0543E06A48B12046FFF73A
:101BB0008FF828B140206065012084F83500A6E741
:101BC000206845612046FFF769F8064694F85C10E6
:101BD0003F208840B06000206065012084F8350017
:101BE000002094E73F8010F02DE9F04704460D46B1
:101BF00016461F464FF00008D4F8589000BF94F8DE
:101C00003400012802D10220BDE8F087012084F8C9
:101C1000340000BF94F83500012825D1022084F853
:101C20003500002060653B46324629462046FFF7D6
:101C3000A4F894F85C103F208840C9F80800206898
:101C4000006840F0160021680860206C28B1206808
:101C5000006840F00800216808602068006840F0D3
:101C600001002168086006E000BF002084F834000D
:101C700000BF4FF002084046C6E7704710B5044663
:101C800004480068204020B1024804602046FFF765
:101C9000F4FF10BD143C0140F8B502460B46002588
:101CA000002400200021DCE0012606FA01F51E6870
:101CB00006EA0504AC4273D15E68012E08D05E6866
:101CC000022E05D05E68112E02D05E68122E13D14E
:101CD00090684F000326BE40B0434F00DE68BE4010
:101CE00030439060506801268E40B0431E79C6F3A1
:101CF00000168E4030435060D0684F000326BE402F
:101D0000B0434F009E68BE403043D0605E68022EF4
:101D100002D05E68122E13D1CF0802F1200656F8C9
:101D200027004E07F70E0F26BE40B0434F07FF0EA9
:101D30001E69BE403043CF0802F1200646F8270056
:101D400010684F000326BE40B0431E7906F003061C
:101D50004F00BE40304310605E6806F08056B6F11A
:101D6000805F7DD100BF00260096404E366846F465
:101D700080463E4F3E603E46366806F480460096FA
:101D800000BF00BF3A4E8F0856F827008E07370F66
:101D90000F26BE40B043374EB24202D1002624E0A7
:101DA0005EE0354EB24201D101261EE0334EB24212
:101DB00001D1022619E0324EB24201D1032614E0CD
:101DC000304EB24201D104260FE02F4EB24201D173
:101DD00005260AE02D4EB24201D1062605E02C4E22
:101DE000B24201D1072600E008268F073F0FBE4010
:101DF00030431F4E8F0846F82700264E3068A04318
:101E00005E6806F48036B6F5803F00D12043214E4F
:101E10003060361D3068A0435E6806F40036B6F5C3
:101E2000003F00D120431B4E361D3060361D306808
:101E3000A0435E6806F48016B6F5801F00D12043EB
:101E4000144E08363060361D3068A0435E6806F4D4
:101E50000016B6F5001F00D120430E4E0C36306040
:101E6000491C1029FFF420AFF8BD0000443802409F
:101E7000083801400000024000040240000802400F
:101E8000000C024000100240001402400018024002
:101E9000001C0240003C01400AB1816101E00B04DA
:101EA00083617047014800687047000044000020CB
:101EB00003480068034909780844014908607047ED
:101EC000440000204C00002010B50D48006840F48C
:101ED00000700B4908600846006840F480600860A4
:101EE0000846006840F480700860032000F0A2F803
:101EF000002000F007F800F02BF8002010BD0000D3
:101F0000003C024070B504460E4800784FF47A71E8
:101F1000B1FBF0F00C490968B1FBF0F5284600F080
:101F200021FC08B1012070BD102C07D200222146EF
:101F3000501E00F041F80548046001E00120F2E77E
:101F40000020F0E74C000020500000204800002056
:101F500008B500BF002000900E48006840F48040A3
:101F60000C4908600846006800F48040009000BFFB
:101F700000BF00BF00200090081F006840F08050A4
:101F8000091F08600846006800F08050009000BFFC
:101F900000BF08BD4438024001460846002809DB5E
:101FA00000F01F0301229A4043099B0003F1E02344
:101FB000C3F8002100BF70472DE9F05F80460D4651
:101FC0001646002703F08CF8074639462A46334662
:101FD00001F00700C0F1070ABAF1040F02D94FF06F
:101FE000040A01E0C0F1070AD14600F1040ABAF17F
:101FF000070F02D24FF0000A01E0A0F1030AD44615
:102000004FF0010A0AFA09FAAAF1010A0AEA020AD9
:102010000AFA0CFA4FF0010B0BFA0CFBABF1010BB7
:102020000BEA030B4AEA0B042146404603F060F832
:10203000BDE8F09F00BF00F00702064B19684FF69D
:10204000FF031940044B0B4343EA0221014B196083
:1020500000BF70470CED00E00000FA0570B50446C3
:102060000D460CB9012070BD5848006800F00F0003
:10207000A84209D255490D700846006800F00F00CB
:10208000A84201D00120EEE7207800F002000228EB
:102090001DD1207800F00400042805D14C480068C8
:1020A00040F4E0504A490860207800F00800082811
:1020B00005D14748006840F46040454908604448FD
:1020C000006820F0F000A1680843414908602078CA
:1020D00000F00100A8B36068012807D13C48083827
:1020E0000068C0F34040B8B90120BCE7606802282E
:1020F00002D06068032807D1354808380068C0F36B
:10210000406048B90120AEE7314808380068C0F3A4
:10211000400008B90120A6E72D48006820F0030020
:10212000616808432A490860FFF7BCFE064609E0DB
:10213000FFF7B8FE801B41F28831884202D90320A4
:1021400091E707E02248006800F00C006168B0EBFE
:10215000810FEDD11D48006800F00F00A84209D999
:102160001A490D700846006800F00F00A84201D01F
:10217000012078E7207800F00400042807D11448F3
:10218000006820F4E050E1680843114908602078B5
:1021900000F00800082808D10D48006820F46040CD
:1021A000216940EAC1000A49086000F03FF8084987
:1021B0000968C1F30311074A515CC8400649086029
:1021C00006480068FFF79EFE00204CE7003C0240F6
:1021D000083802406E5C00085000002048000020D3
:1021E00001480068704700005000002000B5FFF76C
:1021F000F7FF04490968C1F38221034A515CC840D2
:1022000000BD0000083802407E5C000800B5FFF702
:10221000E7FF04490968C1F34231034A515CC840F1
:1022200000BD0000083802407E5C00082DE9F04740
:10223000002400250026A1462548006800F00C0077
:1022400020B1042805D008283AD105E0DFF88490B1
:1022500039E0DFF8849036E01D48001F006800F088
:102260003F041B48001F006800F4800078B11A4842
:102270001749091F0968C1F38811A0FB01700146C5
:10228000224600233846FDF79BFF05460EE0114825
:102290000F49091F0968C1F38811A0FB01700146AD
:1022A000224600233846FDF78BFF05460848001FED
:1022B0000068C0F30140401C4600B5FBF6F902E09F
:1022C000DFF8109000BF00BF4846BDE8F08700006F
:1022D000083802400024F40000127A00F8B50446E1
:1022E0000CB90120F8BD207800F00100002874D05E
:1022F000F948006800F00C0004280DD0F64800688A
:1023000000F00C00082813D1F348001F006800F407
:102310008000B0F5800F0BD1EF4808380068C0F39B
:102320004040002859D06068002856D10120D9E7E4
:1023300000BF6068B0F5803F08D1E7480838006802
:1023400040F48030E449083908601EE06068B0F568
:10235000A02F0DD1E0480838006840F48020DE4905
:10236000083908600846006840F4803008600CE0D6
:10237000D9480838006820F48030D7490839086007
:102380000846006820F48020086000BF606890B1B3
:10239000FFF788FD054606E0FFF784FD401B642833
:1023A00001D903209EE7CC4808380068C0F34040BC
:1023B0000028F1D011E0FFF775FD054606E0FFF7B4
:1023C00071FD401B642801D903208BE7C2480838FF
:1023D0000068C0F340400028F1D1207800F00200EE
:1023E00002285FD1BC48006800F00C0058B1BA4820
:1023F000006800F00C0008281CD1B748001F0068D6
:1024000000F48000B0B9B44808380068C0F3400058
:1024100020B1E068012801D0012063E7AE48083808
:10242000006820F0F800216940EAC100AA49083993
:10243000086037E0E06800B30120A8490860FFF7B2
:1024400031FD054606E0FFF72DFD401B022801D9AE
:10245000032047E7A04808380068C0F34000002880
:10246000F1D09D480838006820F0F800216940EA62
:10247000C10099490839086014E0002097490860B4
:10248000FFF710FD054606E0FFF70CFD401B022894
:1024900001D9032026E7904808380068C0F34000BF
:1024A0000028F1D1207800F0080008282CD16069BC
:1024B000A8B101208A490860FFF7F4FC054606E050
:1024C000FFF7F0FC401B022801D903200AE78248ED
:1024D0006C300068C0F340000028F1D014E0002008
:1024E0007F490860FFF7DEFC054606E0FFF7DAFCEF
:1024F000401B022801D90320F4E677486C300068BD
:10250000C0F340000028F1D1207800F00400042836
:1025100070D1002770483830006800F0805090B9C2
:1025200000BF002000906C483830006840F08050B8
:102530006949383108600846006800F08050009012
:1025400000BF00BF01276748006800F48070B0B981
:102550006448006840F4807062490860FFF7A2FC9C
:10256000054606E0FFF79EFC401B022801D9032028
:10257000B8E65C48006800F480700028F2D000BF24
:10258000A068012808D154486830006840F0010074
:102590005149683108601DE0A06805280DD14E48FA
:1025A0006830006840F004004B4968310860084614
:1025B000006840F0010008600CE04748683000689F
:1025C00020F001004449683108600846006820F0A6
:1025D0000400086000BFA068A8B1FFF763FC0546CF
:1025E00009E0FFF75FFC401B41F28831884202D9C5
:1025F000032077E626E0384868300068C0F34000E2
:102600000028EED013E0FFF74DFC054608E0FFF789
:1026100049FC401B41F28831884201D9032061E620
:102620002D4868300068C0F340000028EFD1012F2A
:1026300007D129483830006820F0805026493831C9
:10264000086000BFA069002845D02348006800F05A
:102650000C0008285DD0A069022845D100201F4940
:102660000866FFF71FFC054606E0FFF71BFC401B52
:10267000022801D9032035E6174808380068C0F35E
:1026800040600028F1D1D4E907010843616A40EABB
:1026900081110122A06AC2EB500041EA00412C20C6
:1026A000005D41EA00600C49091F086001200B49E8
:1026B0000866FFF7F7FB054606E0FFF7F3FB401B54
:1026C000022801D903200DE6034808380068C0F34A
:1026D00040600028F1D03FE0083802400000474247
:1026E000800E47420070004000201C490866FFF73A
:1026F000D9FB054606E0FFF7D5FB401B022801D9B0
:102700000320EFE516480068C0F340600028F2D1CE
:1027100022E0A069012800D1E4E51148001D066807
:1027200006F48001E069814214D106F03F01206A7D
:1027300081420FD147F6C0703040616A884209D1AA
:1027400006F44031A06A814204D106F07061E06A6B
:10275000814201D00120C5E50020C3E500004742C9
:102760000038024070B504462546681EB0F1807FEF
:1027700001D301200FE0681E4FF0E02148610F21D6
:102780004FF0FF3002F0B4FC00204FF0E0218861F0
:1027900007200861002070BD7047704730B50246C1
:1027A0000B4600BF92F83C00012801D1022030BD49
:1027B000012082F83C0000BF022082F83D00106832
:1027C00044681068816824F0700418680443106835
:1027D0004460184D1068A8421BD01068B0F1804FBB
:1027E00017D0154D1068A84213D0144D1068A84298
:1027F0000FD0134D1068A8420BD0124D1068A8429C
:1028000007D0114D1068A84203D0104D1068A8429F
:1028100005D121F0800158680143106881600120D2
:1028200082F83D0000BF002082F83C0000BF00BFDE
:10283000BDE7000000000140000400400008004027
:10284000000C00400004014000400140001800401E
:1028500010B504460CB9012010BD94F83D0028B90C
:10286000002084F83C00204600F00CF8022084F898
:102870003D00211D206801F067FF012084F83D0024
:102880000020E9E738B504462068B0F1804F18D140
:1028900000BF002000901948006840F0010017496F
:1028A00008600846006800F00100009000BF00BF0B
:1028B000002211461C20FFF77FFB1C20FFF76CFB5A
:1028C0001BE00F492068884217D100BF002000900C
:1028D0000A48006840F0020008490860084600689D
:1028E00000F00200009000BF00BF002211461D2032
:1028F000FFF762FB1D20FFF74FFB38BD4038024059
:102900000004004001460868C06840F001000B6800
:10291000D8600868806800F00702062A05D00868B9
:10292000006840F001000B681860002070472DE936
:10293000F04104460D4600BF94F83C00012802D146
:102940000220BDE8F081012084F83C0000BF022095
:1029500084F83D002068866826F0770626F47F46D6
:10296000206886602868502833D00CDC202850D09E
:1029700004DC00284BD0102851D149E0302849D040
:1029800040284CD139E060282DD0702807D0B0F510
:10299000805F03D0B0F5005F41D10DE040E0D5E9A4
:1029A00002136A68206801F03BFF2068866846F0E1
:1029B00077062068866033E0D5E902136A682068EC
:1029C00001F02EFF2068806840F480402168886014
:1029D00026E0EA686968206801F036FF5021206827
:1029E00001F029FF1CE0EA686968206801F03FFFF8
:1029F0006021206801F01FFF12E0EA686968206822
:102A000001F022FF4021206801F015FF08E000BF1F
:102A100000BF00BF2968206801F00DFF00E000BF83
:102A200000BF012084F83D0000BF002084F83C0076
:102A300000BF00BF85E7704710B5044620680069F5
:102A4000C0F34000D8B12068C068C0F34000B0B106
:102A50006FF00200216808610120207720688069FA
:102A600000F0030018B12046FFF7E5FF05E020461F
:102A700000F0ADF8204600F0ABF800202077206889
:102A80000069C0F38000D8B12068C068C0F380003E
:102A9000B0B16FF00400216808610220207720683F
:102AA000806900F4407018B12046FFF7C4FF05E0CC
:102AB000204600F08CF8204600F08AF800202077AD
:102AC00020680069C0F3C000D8B12068C068C0F3B6
:102AD000C000B0B16FF008002168086104202077C1
:102AE0002068C06900F0030018B12046FFF7A3FF7B
:102AF00005E0204600F06BF8204600F069F8002061
:102B0000207720680069C0F30010D8B12068C06841
:102B1000C0F30010B0B16FF0100021680861082008
:102B200020772068C06900F4407018B12046FFF794
:102B300082FF05E0204600F04AF8204600F048F801
:102B4000002020772068006900F0010058B120685B
:102B5000C06800F0010030B16FF001002168086129
:102B6000204600F036F820680069C0F3C01058B164
:102B70002068C068C0F3C01030B16FF080002168D9
:102B800008612046FFF708FE20680069C0F3801046
:102B900058B12068C068C0F3801030B16FF04000B9
:102BA00021680861204600F015F820680069C0F32C
:102BB000401058B12068C068C0F3401030B16FF0C9
:102BC0002000216808612046FFF7E7FD10BD70472F
:102BD00070477047704770472DE9F04704462068FA
:102BE00005682068C668206847694FF00008C1463C
:102BF00005F00F08B8F1000F0AD105F0200038B138
:102C000006F0200020B1204601F0CBFEBDE8F087A1
:102C1000B8F1000F72D007F0010018B906F49070F7
:102C200000286BD005F0010030B106F4807018B1B7
:102C3000E06B40F00100E06305F0040030B107F004
:102C4000010018B1E06B40F00200E06305F0020003
:102C500030B107F0010018B1E06B40F00400E06310
:102C600005F0080048B106F0200010B907F0010097
:102C700018B1E06B40F00800E063E06B70B305F062
:102C8000200028B106F0200010B1204601F089FE96
:102C900020684069C0F38019E06B00F0080010B9AB
:102CA000B9F1000F23D0204601F051FE20684069A1
:102CB00000F04000402816D12068406920F0400014
:102CC00021684861606B50B11748616B0865606BA3
:102CD000FEF7DFFD10B1606B016D88470CE0204608
:102CE000FFF779FF08E02046FFF775FF04E0204674
:102CF000FFF771FF0020E06388E7FFE705F0800041
:102D000030B106F0800018B1204602F091F87DE75E
:102D100005F0400030B106F0400018B1204601F047
:102D200026FE73E700BF71E79748000810B5044618
:102D30000CB9012010BDA06900B100E000BF94F8FB
:102D4000390028B9002084F83800204600F028F81F
:102D5000242084F839002068C06820F400502168DD
:102D6000C860204601F070FE2068006920F49040A1
:102D7000216808612068406920F02A0021684861C4
:102D80002068C06840F400502168C8600020E063FB
:102D9000202084F8390084F83A000020CAE70000B7
:102DA00010B586B00446142101A8FDF741FAE749A1
:102DB0002068884256D100BF00200090E448006897
:102DC00040F01000E24908600846006800F010007A
:102DD000009000BF00BF00BF00200090DC48143806
:102DE000006840F00100DA491439086008460068BC
:102DF00000F00100009000BF00BF4FF4C0600190E0
:102E000002200290002003900320049007200590E8
:102E100001A9D048FEF740FFCF48D04908604FF0E5
:102E2000006048600021CD488160C1604FF480613E
:102E30000161002141618161C16101624162FEF76E
:102E40005DFE08B1FDF7CCFF00BFC448606384633A
:102E500000BF002211462520FFF7AEF82520FFF71E
:102E60009BF871E1BE492068884277D100BF0020FD
:102E70000090B748001F006840F40030B449091FB3
:102E800008600846006800F40030009000BF00BFF2
:102E900000BF00200090AE481438006840F00100E8
:102EA000AB49143908600846006800F00100009042
:102EB00000BF00BF0C200190022002900020039070
:102EC000032004900720059001A9A248FEF7E4FE24
:102ED000A448A54908604FF0006048600021A2485E
:102EE0008160C1604FF480610161002141618161B5
:102EF000C16101624162FEF701FE08B1FDF770FF9A
:102F000000BF99486063846300BF964818309749B2
:102F100008604FF0006048604021944881600021C3
:102F2000C1604FF480610161002141618161C16133
:102F300001624162FEF7E2FD08B1FDF751FF00BFFB
:102F40008A482063846300BF002211462620FFF7D1
:102F500033F82620FFF720F8F6E0FFE784492068E1
:102F6000884279D100BF002000907948001F006896
:102F700040F480207649091F08600846006800F484
:102F80008020009000BF00BF00BF0020009070486C
:102F90001438006840F004006D4914390860084690
:102FA000006800F00400009000BF00BF4FF44060D4
:102FB000019002200290002003900320049007203B
:102FC000059001A96B48FEF767FE664860386A49BC
:102FD00008604FF000604860002167488160C16070
:102FE0004FF480610161002141618161C161016231
:102FF0004162FEF783FD08B1FDF7F2FE00BF5E48B7
:103000006063846300BF574830385C4908604FF004
:10301000006048604021594881600021C1604FF440
:1030200080610161002141618161C1610162416290
:10303000FEF764FD08B1FDF7D3FE00BF4F482063E3
:10304000846300BF002211462720FEF7B5FF27202A
:10305000FEF7A2FF78E0FFE749492068884273D174
:1030600000BF002000903A48006840F02000384936
:1030700008600846006800F02000009000BF00BF14
:1030800000BF0020009032481438006840F004006F
:103090002F49143908600846006800F004000090C9
:1030A00000BF00BFC02001900220029000200390CA
:1030B000032004900820059001A92E48FEF7ECFD9E
:1030C000254818382F4908608005486000212D48A0
:1030D0008160C1604FF480610161002141618161C3
:1030E000C16101624162FEF709FD08B1FDF778FE9A
:1030F00000BF24486063846300BF174860302249E2
:1031000008604FF02060486040211F488160002126
:10311000C1604FF480610161002141618161C16141
:1031200001624162FEF7EAFC08B1FDF759FE00BFFB
:1031300015482063846300BF002211464720FEF734
:103140003BFF4720FEF728FF06B010BD00100140EE
:103150004438024000000240406402403002002037
:10316000004400408860024090020020F0020020ED
:10317000004800400008024050030020B003002037
:1031800000140140100400207004002077B581B0C5
:103190000446154694F83A00202850D1029800B110
:1031A00015B9012004B070BD00BF94F838000128A3
:1031B00001D10220F6E7012084F8380000BF029810
:1031C000A062A5850020E063222084F83A001D4813
:1031D000616BC8631C48616B08641C48616BC86400
:1031E0000020616B086502AE32682368191D2B460A
:1031F000606BFEF7F9FC00BF0020009020680068BB
:10320000009020684068009000BF00BF00BF002011
:1032100084F8380000BF2068C06840F480702168DE
:10322000C8602068406940F001002168486120685A
:10323000406940F04000216848610020B2E7022068
:10324000B0E70000FB48000841490008AB4800080F
:1032500070477047704700BFFEE7000010B50C488C
:10326000007820B1012806D002280DD109E00948D4
:1032700000F012F809E00749D1F85002FDF706FE08
:1032800003E0FDF7F5FD00E000BF00BF10BD00004A
:1032900008000020C805002010B504463748D4F8BF
:1032A0005012006800F54870814209D33349D4F8C0
:1032B0005002086032480078401E40B23049087021
:1032C0002F4890F90000801C18B907202C4908707D
:1032D00052E02B4890F90000401C50B90022022116
:1032E0002848FEF7D9FD002201212648FEF7D4FD2B
:1032F00042E094F82C0222490A78012191400840CA
:10330000E8B11E48D4F85012006800F516708142EA
:103310000AD3002202211B48FEF7BEFD0022012134
:103320001848FEF7B9FD27E0002202211548FEF7F4
:10333000B3FD012211461348FEF7AEFD1CE00F4815
:10334000D4F85012006800F5167081420AD30022AA
:1033500002210C48FEF7A0FD002201210948FEF7DA
:103360009BFD09E0012202210648FEF795FD00229F
:1033700001210448FEF790FD10BD00004000002030
:103380003C0000200008024010B50E480E490860BD
:103390000320486000210C488160C1604FF4C021C7
:1033A00001614FF4A00141610021017641768176EF
:1033B000C17601774177FEF7C4F808B1FDF710FD3B
:1033C00010BD0000006400406000002010B50E48F1
:1033D0000E4908600320486000210C488160C160EC
:1033E0004FF4C02101614FF4A00141610021017639
:1033F00041768176C17601774177FEF7A2F808B170
:10340000FDF7EEFC10BD00000068004088000020C1
:1034100008B500BF002000902A48006840F4001062
:10342000284908600846006800F40010009000BFBA
:1034300000BF00BF002000900846006840F48000F4
:1034400008600846006800F48000009000BF00BFDC
:10345000002211460C20FEF7AFFD0C20FEF79CFD6C
:10346000002211460E20FEF7A7FD0E20FEF794FD68
:10347000002211461020FEF79FFD1020FEF78CFD64
:10348000002211461120FEF797FD1120FEF784FD62
:10349000002211463920FEF78FFD3920FEF77CFD12
:1034A000002211463A20FEF787FD3A20FEF774FD10
:1034B000002211464520FEF77FFD4520FEF76CFDFA
:1034C00008BD00003038024000B587B0142102A8C2
:1034D000FCF7AEFE00BF002001903348006840F0CA
:1034E0008000314908600846006800F080000190C3
:1034F00000BF00BF00BF002001900846006840F0F8
:10350000040008600846006800F00400019000BF55
:1035100000BF00BF002001900846006840F0010095
:1035200008600846006800F00100019000BF00BF7D
:1035300000BF002001900846006840F002000860CB
:103540000846006800F00200019000BF00BF0122A1
:1035500003211648FEF7A0FC0320029001200390EF
:1035600000200490059002A91048FEF795FB182052
:1035700002900F4803900020049002A90B48FEF728
:103580008BFB002211460920FEF716FD0920FEF7ED
:1035900003FD002211460A20FEF70EFD0A20FEF769
:1035A000FBFC07B000BD00003038024000080240BC
:1035B0000000211000B587B0002003900490059012
:1035C0000690019002904FF080401449086053200B
:1035D000486000211148816040F2F311C160002170
:1035E000016180218161FFF733F908B1FDF7F8FB34
:1035F0004FF48050039003A90848FFF798F908B1E9
:10360000FDF7EEFB00200190029001A90348FFF7AF
:10361000C5F808B1FDF7E4FB07B000BDB00000201D
:1036200000B587B0002003900490059006900190AB
:10363000029015481549086053204860002113483E
:10364000816040F2E731C160002101618021816128
:10365000FFF7FEF808B1FDF7C3FB4FF4805003906D
:1036600003A90A48FFF763F908B1FDF7B9FB002089
:103670000190029001A90548FFF790F808B1FDF705
:10368000AFFB07B000BD000000040040F0000020C8
:1036900010B50B480B4908604FF4E1304860002139
:1036A00008488160C160016104214161002181619C
:1036B000C161FFF73BFB08B1FDF792FB10BD0000B5
:1036C000001001403001002010B50B480B49086084
:1036D0004FF4E1304860002108488160C160016119
:1036E0000C21416100218161C161FFF71FFB08B11D
:1036F000FDF776FB10BD0000004400407001002083
:1037000010B50C480C4908604FF4E13048600021C6
:1037100009488160C1604FF4806101610C21416101
:1037200000218161C161FFF701FB08B1FDF758FB82
:1037300010BD000000480040B001002010B50C484A
:103740000C4908604FF4E13048600021094881606D
:10375000C1604FF4806101610C21416100218161F0
:10376000C161FFF7E3FA08B1FDF73AFB10BD0000B5
:1037700000140140F001002000BFFEE72DE9F047F2
:103780002DED0C8B0646B0EE408AF0EE608A344692
:10379000D6F8840000F12005D4F80890B9F1000FA4
:1037A00001DB494601E0C9F100010846FCF7D3FE00
:1037B00088460746A068002803DAA06800F5D810FC
:1037C000A060A068B0F5D82F7EDDA068B0F5A21F7C
:1037D0007ADAA168A1F5D820FCF7BDFE41EC190BFF
:1037E00053EC182BFCF7DCFE25D2616801F5D820DC
:1037F000FCF7B1FE41EC190B53EC182BFCF7E4FE7F
:1038000019D26068FCF7A7FE41EC1A0BA068FCF720
:10381000A2FE41EC1C0B53EC182BFCF7B8FD41EC5D
:103820001B0B53EC1A2BFCF70EFD41EC190BFCF7AC
:10383000DFFEA0677CE1A068FCF78DFE41EC190B70
:1038400053EC182BFCF7C0FE29D26068FCF783FE0E
:1038500041EC1B0BA068FCF77EFE41EC1D0B53EC0A
:10386000182BFCF794FD41EC1C0B53EC1B2BFCF7C5
:10387000EAFC41EC1A0B9FEDB00B53EC102BFCF75C
:10388000E2FC41EC190BFCF7B3FEA06795ED000AD2
:10389000FFEE000A20EE200A85ED000A48E160688C
:1038A000FCF759FE41EC1B0BA068FCF754FE41EC01
:1038B0001D0B53EC182BFCF76AFD41EC1C0B53EC71
:1038C0001B2BFCF7C0FC00E015E041EC1A0B9FED50
:1038D0009A0B53EC102BFCF757FD41EC190BFCF73E
:1038E00087FEA06795ED000AFFEE000A20EE200A91
:1038F00085ED000A1CE1A068B0F5D82F7EDAA1683A
:1039000001F5D820FCF727FE41EC190B53EC182BDE
:10391000FCF746FE35D2A16801F5A210FCF71BFEAC
:1039200041EC190B53EC182BFCF74EFE29D26068C2
:10393000FCF711FE41EC1B0BA068FCF70CFE41EC00
:103940001D0B53EC182BFCF722FD41EC1C0B53EC28
:103950001B2BFCF778FC41EC1A0B9FED770B53EC1B
:10396000102BFCF711FD41EC190BFCF741FEA06791
:1039700095ED000AFFEE000A20EE200A85ED000A10
:10398000D6E0A16801F5D820FCF7E5FD41EC190B64
:1039900053EC182BFCF718FE19D26068FCF7DBFD1E
:1039A00041EC1A0BA068FCF7D6FD41EC1C0B53EC64
:1039B000182BFCF7ECFC41EC1B0B53EC1A2BFCF71F
:1039C00042FC41EC190BFCF713FEA067B0E0606805
:1039D000FCF7C1FD41EC1A0BA068FCF7BCFD41EC03
:1039E0001C0B9FED570B53EC102B51EC180BFCF7F5
:1039F000CBFC41EC1D0B53EC1C2B00E00DE0FCF765
:103A0000C3FC41EC1B0B53EC1A2BFCF71CFC41ECE8
:103A1000190BFCF7EDFDA0678AE0A168A1F5D8209D
:103A2000FCF799FD41EC190B53EC182BFCF7CCFD7E
:103A300035D2A168A1F5A210FCF78DFD41EC190B60
:103A400053EC182BFCF7ACFD29D26068FCF783FD22
:103A500041EC1B0BA068FCF77EFD41EC1D0B53EC09
:103A6000182BFCF794FC41EC1C0B53EC1B2BFCF7C4
:103A7000EAFB41EC1A0B9FED300B53EC102BFCF7DB
:103A8000E2FB41EC190BFCF7B3FDA06795ED000AD2
:103A9000FFEE000A20EE200A85ED000A48E0A1684A
:103AA000A1F5D820FCF757FD41EC190B53EC182B6E
:103AB000FCF776FD19D26068FCF74DFD41EC1A0B5E
:103AC000A068FCF748FD41EC1C0B53EC182BFCF7ED
:103AD0005EFC41EC1B0B53EC1A2BFCF7B4FB41ECE6
:103AE000190BFCF785FDA06722E06068FCF733FD49
:103AF00041EC1A0BA068FCF72EFD41EC1C0B53ECBB
:103B0000182B9FED0F0B51EC100BFCF79CFB41ECBD
:103B10001D0B53EC1C2BFCF737FC41EC1B0B53EC3F
:103B20001A2BFCF790FB41EC190BFCF761FDA06729
:103B3000BDEC0C8BBDE8F0870000000000002B41BD
:103B40000000000000003B4130B505461B49686994
:103B50004418686800B930BD207840B90320A860D7
:103B60000721284600F040FA2078401C2070207879
:103B7000012804D16868042801D10220207020782F
:103B8000022804D16868072801D10320207020781A
:103B9000032804D16868012801D10420207020780E
:103BA000042808D10820A8600721284600F01CFA44
:103BB0000020A860641C00BFCDE700003600002094
:103BC00070B505460E460024A6F2012030B101284A
:103BD00006D0022807D003280AD106E00B4C08E0E3
:103BE0000A4C883405E00A4C03E0094C883400E0B4
:103BF00000BF00BF04B970BD2946204600F01FFC7D
:103C000004F17E00FDF7EEF800BFF4E7C8050020E0
:103C1000D806002000B52DED108B83B0AD49098882
:103C2000A1F58060FCF797FC41EC1B0B9FEDAA0B04
:103C300053EC102BFCF7AEFB41EC1A0B9FEDA80BDD
:103C400053EC102BFCF718FC41EC190BFCF7D0FCE3
:103C500008EE900A9F494988A1F58060FCF77BFC3B
:103C600041EC1B0B9FED9C0B53EC102BFCF792FBD4
:103C700041EC1A0B9FED9A0B53EC102BFCF7FCFB5D
:103C800041EC190BFCF7B4FC08EE100AF5EEC08A03
:103C9000F1EE10FA04D1B5EEC08AF1EE10FA1FD0A1
:103CA00018EE100AFCF768FC41EC1A0B18EE900AAB
:103CB000FCF762FC41EC1B0BB0EE4A1AF0EE6A1AFC
:103CC000B0EE4B0AF0EE6B0A01F03EFDB0EE409A0A
:103CD000F0EE609A51EC190BFCF78AFC82490860FF
:103CE00028EEA80A08EE080A10EE101A0846FCF79B
:103CF00043FC41EC1B0BB0EE4B0AF0EE6B0A01F0FB
:103D00001BFEB0EE40AAF0EE60AA9FED780B53ECDC
:103D1000102B51EC1A0BFCF73DFB41EC190BFCF797
:103D200067FC74490860704890ED000AB5EEC00A5F
:103D3000F1EE10FA36DB9FED700B01F0EDF9B0EE0D
:103D400040EAF0EE60EA9FED6E0B53EC102B51EC65
:103D50001E0BFCF71FFB41EC1D0B9FED690B53EC99
:103D6000102BFCF717FB41EC1B0B5F480068FCF7BE
:103D700003FC41EC1C0B53EC1B2BFCF77DFB41ECD3
:103D80001A0B9FED610B53EC102BFCF703FB41EC7E
:103D9000190B9FED5F0B53EC102BFCF7FBFA5E4AFF
:103DA00003C259E09FED540B01F0B6F9B0EE40DAD2
:103DB000F0EE60DA9FED520B53EC102B51EC1D0B23
:103DC000FCF7E8FA41EC1C0B9FED4D0B53EC102B6C
:103DD000FCF7E0FA41EC1A0B9FED470B01F09CF960
:103DE000B0EE40FAF0EE60FA9FED450B53EC102B6D
:103DF00051EC1F0BFCF7CEFA41EC1E0B9FED400B74
:103E000053EC102BFCF7C6FA41EC1C0B364800684B
:103E1000FCF7B2FB41EC1D0B53EC1C2BFCF713FA27
:103E200041EC1B0B53EC1A2BFCF726FB41EC190B56
:103E30009FED350B53EC102BFCF7ACFA9FED340BD8
:103E400053EC102BCDE900019DED000B51EC100B54
:103E5000FCF7A0FA304A03C2264890ED000A2F482A
:103E6000D0F8840080ED080A224890ED000A2B4823
:103E7000D0F80C0180ED080A1E4890ED000A274892
:103E8000D0F8940180ED080A1A4890ED000A234802
:103E9000D0F81C0280ED080A1F4890ED000B1F4867
:103EA000FFF76CFC1C4890ED000B1C488830FFF7B6
:103EB00065FC194890ED000B1948FFF75FFC1648A8
:103EC00090ED000B16488830FFF758FC03B0BDECAE
:103ED000108B00BD0A000020000000000000F03F31
:103EE0000000000000A08440280000200000000026
:103EF000000024402C000020000000000000000012
:103F00000000000000000040000000000000C04071
:103F10000000000000006B4020000020C8050020C9
:103F2000D8060020704700002DE9F04780460C4677
:103F300000250026C8F3451708F01F0928484069E6
:103F4000B84201D1264D15E02548406CB84202D157
:103F5000234D30350EE023484069B84201D1214D50
:103F600008E02048406CB84202D11E4D303501E0D7
:103F7000BDE8F087B9F1010F09D0B9F1030F0BD0FB
:103F8000B9F1040F0BD0B9F1090F1DD10AE0206877
:103F900028606068686018E02068E86015E02068C4
:103FA000286112E020790643607946EA0026A0796C
:103FB00046EA0046E07946EA006600EE106AB8EE8E
:103FC000400A85ED070A00E000BF00BF286808B17D
:103FD000FCF706FF05F12C00FCF704FF00BFC7E764
:103FE000080500206805002030B504460D4604B9D8
:103FF00030BD608D05F01F0108436085092D1AD082
:1040000006DC032D0BD0042D0DD0072D23D10EE09F
:104010000A2D14D00D2D16D0162D1CD117E02046D8
:10402000FCF718FF18E02046FCF7F6FE14E02046E7
:1040300000F0CEFA10E02046FCF7FEFE0CE0204631
:10404000FCF7DAFE08E0204600F0D6FA04E020464D
:1040500000F032FA00E000BF00BF4FF6FF71606968
:1040600001EA4010608500BFC2E7000080ED000A51
:10407000C0ED010A80ED021AC0ED051A80ED0B3A81
:1040800080ED062AC0ED082ADFED0A3AC0ED033ABA
:10409000DFED083AC0ED043ADFED063AC0ED073A2D
:1040A000DFED043AC0ED093ADFED023AC0ED0A3A1D
:1040B000704700000000000010B590F87E2002B1AB
:1040C00010BDD0ED1E0A90ED010AB8EEC00A30EE28
:1040D000C00A80ED090A90ED090AD0ED0B0AB4EE92
:1040E000E00AF1EE10FA03DD90ED0B0A80ED090A0B
:1040F00090ED090AD0ED0B0AF1EE600AB4EEE00A89
:10410000F1EE10FA05D290ED0B0AB1EE400A80ED07
:10411000090A90ED090AB5EEC00AF1EE10FA0CDDBD
:1041200090ED090AD0ED0C0AB4EEE00AF1EE10FAB7
:1041300003D29FEDA60A80ED090A90ED090AB5EEBB
:10414000C00AF1EE10FA0CD290ED090AD0ED0C0A7B
:10415000B4EEE00AF1EE10FA03DD9FED9C0A80ED6B
:10416000090A90ED0D0AD0ED090A30EE200A80ED23
:104170000D0A90ED0D0AD0ED0E0AB4EEE00AF1EE54
:1041800010FA03DD90ED0E0A80ED0D0A90ED0D0A98
:10419000D0ED0E0AF1EE600AB4EEE00AF1EE10FA8C
:1041A00005D290ED0E0AB1EE400A80ED0D0A90EDB9
:1041B000090AD0ED0A0A30EE600A80ED0F0A90ED90
:1041C000090A80ED0A0A90ED060AD0ED090A20EEF0
:1041D000200AD0ED070A90ED0D1A00EE810AD0ED0D
:1041E000080A90ED0F1A00EE810A80ED100A90ED9A
:1041F000100AD0ED110AB4EEE00AF1EE10FA03DD78
:1042000090ED110A80ED100A90ED100AD0ED110A20
:10421000F1EE600AB4EEE00AF1EE10FA05D290ED8C
:10422000110AB1EE400A80ED100AD0ED100AB0F983
:10423000002000EE102AB8EEC00A30EEC00A80ED71
:10424000150A90ED150AD0ED170AB4EEE00AF1EE6A
:1042500010FA03DD90ED170A80ED150A90ED150AAE
:10426000D0ED170AF1EE600AB4EEE00AF1EE10FAB2
:1042700005D290ED170AB1EE400A80ED150A90EDD7
:10428000150AB5EEC00AF1EE10FA0CDD90ED150A34
:10429000D0ED180AB4EEE00AF1EE10FA03D29FED69
:1042A0004B0A80ED150A90ED150AB5EEC00AF1EE45
:1042B00010FA0CD290ED150AD0ED180AB4EEE00A0F
:1042C000F1EE10FA03DD9FED410A80ED150A90ED45
:1042D000190AD0ED150A30EE200A80ED190A90ED8A
:1042E000190AD0ED1A0AB4EEE00AF1EE10FA03DD75
:1042F00090ED1A0A80ED190A90ED190AD0ED1A0A0C
:10430000F1EE600AB4EEE00AF1EE10FA05D290ED9B
:104310001A0AB1EE400A80ED190A90ED150AD0EDA7
:10432000160A30EE600A80ED1B0A90ED150A80ED4A
:10433000160A90ED120AD0ED150A20EE200AD0EDF3
:10434000130A90ED191A00EE810AD0ED140A90EDCF
:104350001B1A00EE810A80ED1C0A90ED1C0AD0EDBC
:104360001D0AB4EEE00AF1EE10FA03DD90ED1D0A2D
:1043700080ED1C0A90ED1C0AD0ED1D0AF1EE600ADA
:10438000B4EEE00AF1EE10FA05D290ED1D0AB1EE9E
:10439000400A80ED1C0A90ED1C0ABDEEC00A10EE2A
:1043A000102AC2F3072390F87C2001F8123090ED18
:1043B0001C0ABDEEC00A10EE102AD3B290F87C2081
:1043C000012404EB42028B5400BF79E60000000098
:1043D00070B504460025174D05F23D212846FFF72C
:1043E0006BFE883505F2B5112846FFF765FE883566
:1043F00005F22D112846FFF75FFE883505F1A5016E
:104400002846FFF759FE05F1A5010B4800F0B9F861
:10441000032C05D10749D1F81C020D21FFF7E4FD5B
:10442000042C05D10349D1F81C020921FFF7DCFD5A
:1044300070BD0000C805002088000020704710B53E
:104440004A780B7842EA03224280CA788B7842EAA3
:10445000032212B202804A790B7942EA032212B295
:1044600042828A7902740288B2B14388848A1B1B13
:104470001AB243681344436012F5805F04DA43685C
:1044800003F50053436006E0B2F5805F03DD436847
:10449000A3F50053436000BF428882824FF4D813D3
:1044A000426892FBF3F2C260D824C2686243436858
:1044B000A3EB4232826010BD18B504460020009084
:1044C000618D0346024A034800F075F818BD0000EC
:1044D000340000206000002000B970470178427865
:1044E00041EA0221C1F30A01244A91804178C910AE
:1044F000827841EA4211C1F30A01204AD1808178D1
:104500008911C27841EA8201027941EA8221C1F32C
:104510000A011A4A118001794910427941EAC2110F
:10452000C1F30A01154A51804179091189081172B4
:104530004179C1F3011151728179C27941EA0221B5
:1045400009B20E4A5181017A427A41EA02210AB245
:104550000A498A81817AC27A41EA02210AB207496C
:10456000CA81027B0A74427B4A74817B034A91743C
:10457000C27B0249CA7400BFAFE700000A000020F6
:10458000704730B587B005460C4600200490039074
:104590004FF40070019000208DF81800082005905D
:1045A0006B46224601A92846FCF7A9FC08B1FCF796
:1045B00017FC07B030BD30B586B0099C03940025C8
:1045C000029500918DF81450049306B030BD0000A0
:1045D00018B50446207A06490870607A48700020B1
:1045E0000090618D0423024A0248FFF7E4FF18BDE2
:1045F00030000020600000201FB50446206800B194
:104600001FBD00200290039094ED080A8DED010A71
:104610009DF804008DF808009DF805008DF809004C
:104620009DF806008DF80A009DF807008DF80B0034
:1046300000200090618D082302AA0248FFF7BBFF0B
:1046400000BFDDE76000002010B5FDF731FC10BDB4
:1046500000B593B0302107A8FBF7EAFD142102A8AA
:10466000FBF7E6FD00BF002001902448006840F001
:104670008050224908600846006800F08050019090
:1046800000BF00BF00BF002001901D48006840F43B
:1046900080401B4908600846006800F48040019093
:1046A00000BF00BF012007900004089002200D9079
:1046B00041050E9104210F91A82110910221119121
:1046C0000421129107A8FDF709FE08B1FCF788FB49
:1046D0000F20029002200390002004904FF4A0507D
:1046E00005904FF480500690052102A8FDF7B6FC16
:1046F00008B1FCF775FB13B000BD00004038024064
:10470000007000400548006840F4700003490860EC
:104710004FF00060014980390860704788ED00E083
:104720000170704710B50348FEF786F9FCF730FAC0
:1047300010BD0000B000002010B50248FEF77CF963
:1047400010BD0000F000002010B50268294B98420F
:104750000ED0B0F1804F0BD0274B984208D0274B9A
:10476000984205D0264B984202D0264B984203D15E
:1047700022F070024B681A431E4B984220D0B0F1D1
:10478000804F1DD01C4B98421AD01C4B984217D01A
:104790001B4B984214D01B4B984211D01A4B984295
:1047A0000ED01A4B98420BD0194B984208D0194B97
:1047B000984205D0184B984202D0184B984203D12A
:1047C00022F44072CB681A4322F080034C6943EA1A
:1047D000040202608B68C3620B688362054B9842D7
:1047E00002D0084B984201D10B6903630123436156
:1047F00010BD00000000014000040040000800401F
:10480000000C004000040140004001400044014011
:104810000048014000180040001C004000200040FB
:1048200030B50C46816821F47F4142EA03252543D7
:104830002943816030BD0A46816821F0700142F051
:10484000070319438160704730B50B461446026A6E
:10485000056A25F001050562816921F0F00141EA50
:10486000041122F00A021A438161026230BD30B5A0
:104870000B461446056A25F0100505628169026A37
:1048800021F4704141EA043122F0A00242EA03120D
:104890008161026230BD70B50546AC6B0020E085D9
:1048A000E0842046FEF797F970BD70B506460025F6
:1048B000B46B20684069C0F3C01594F83900212812
:1048C00005D125B10020E084204600F060F8206882
:1048D0004069C0F3801594F83A00222805D125B12B
:1048E0000020E085204600F032F8E06B40F0100038
:1048F000E0632046FEF76FF970BD70B50546AC6BFE
:104900002868006800F48070B0B90020E085206855
:10491000C06820F480702168C8602068406920F079
:104920000100216848612068406920F0400021684A
:104930004861202084F83A002046FEF789FC70BDCB
:1049400070B50446A56B2846FEF783FC70BD016870
:10495000C96821F490710268D1600168496921F049
:10496000010102685161202180F83A10704710B5AA
:1049700004462068C06820F040002168C8602020FC
:1049800084F839002046FEF765FC002010BD016860
:10499000C96821F0C0010268D160202180F8391077
:1049A000704770B5044694F83A0022284AD1A068AE
:1049B000B0F5805F13D1A56A206940B920684068CE
:1049C000C0F308002880A06A801CA06219E020685B
:1049D0004068C0B22880A06A401CA06211E0206933
:1049E00038B920684068C1B2A26A501CA062117038
:1049F00007E02068406800F07F01A26A501CA062B6
:104A00001170E08D401E80B2E085C8B92068C06892
:104A100020F020002168C8602068C06820F4807001
:104A20002168C8602068406920F001002168486161
:104A3000202084F83A002046FEF70AFC002070BDD2
:104A40000020FCE70220FAE72DE9F84F0446206831
:104A5000006920F44050E168084321680861216939
:104A6000A068084361690843E16908430090206831
:104A7000C06849F20C618843009908432168C86006
:104A80002068406920F44070A169084321684861AA
:104A9000E069B0F5004F75D1E3492068884203D042
:104AA000E249206888426FD1FDF7B0FB81460220C1
:104AB0006168A0FB01510B461920A9FB00712A4631
:104AC0003846FBF77DFB6421B0FBF1F04FEA001A9A
:104AD00002206168A0FB01510B461920A9FB00715F
:104AE0002A463846FBF76CFB074602206168A0FBAC
:104AF00001510B461920A9FB00B12A465846FBF785
:104B00005FFB6421B0FBF1F000EBC00101EB001092
:104B1000A7EB8000322101EBC0006421B0FBF1F073
:104B200000F0F8000AEB400A02206168A0FB015186
:104B30000B461920A9FB00712A463846FBF740FBBB
:104B4000074602206168A0FB01510B461920A9FB12
:104B500000B12A465846FBF733FB6421B0FBF1F065
:104B600000EBC00101EB0010A7EB8000322101EB4C
:104B7000C0006421B0FBF1F000F007005044216850
:104B800088604FE16EE0FFE7FDF730FB81460220D1
:104B90006168A0FB01510B461920A9FB00712A4650
:104BA0003846FBF70DFB6421B0FBF1F04FEA001A29
:104BB00002206168A0FB01510B461920A9FB00717E
:104BC0002A463846FBF7FCFA074602206168A0FB3C
:104BD00001510B461920A9FB00B12A465846FBF7A4
:104BE000EFFA6421B0FBF1F000EBC00101EB001023
:104BF000A7EB8000322101EBC0006421B0FBF1F093
:104C000000F0F8000AEB400A02206168A0FB0151A5
:104C10000B461920A9FB00712A463846FBF7D0FA4B
:104C2000074602206168A0FB015003461920A9FB3A
:104C300000B12A465846FBF7C3FA6421B0FBF1F0F5
:104C400000EBC00101EB0010A7EB8000322101EB6B
:104C5000C0006421B0FBF1F000F00700504421686F
:104C60008860DFE070492068884203D06F4920687F
:104C700088426BD1FDF7CAFA814604206168A0FB27
:104C800001510B461920A9FB00712A463846FBF753
:104C900097FA824604206168A0FB01510B46192057
:104CA000A9FB00712A463846FBF78AFA6421B0FB5B
:104CB000F1F000EBC00101EB0010AAEB8000322103
:104CC00001EB00106421B0FBF1F000F0F00A0420C9
:104CD0006168A0FB015003461920A9FB00712A4618
:104CE0003846FBF76DFA6421B0FBF1F00AEB001ACD
:104CF00004206168A0FB01510B461920A9FB00713B
:104D00002A463846FBF75CFA074604206168A0FB98
:104D1000015003461920A9FB00B12A465846FBF76B
:104D20004FFA6421B0FBF1F000EBC00101EB001081
:104D3000A7EB8000322101EB00106421B0FBF1F001
:104D400000F00F005044216888606BE0FDF74EFAD8
:104D5000814604206168A0FB015003461920A9FB8D
:104D600000712A463846FBF72BFA82460420616818
:104D7000A0FB015003461920A9FB00712A463846C2
:104D8000FBF71EFA6421B0FBF1F000EBC00101EB70
:104D90000010AAEB8000322101EB00106421B0FB6F
:104DA000F1F000F0F00A04206168A0FB0150034616
:104DB0001920A9FB00712A463846FBF701FA642145
:104DC000B0FBF1F00AEB001A04206168A0FB01704F
:104DD00003461920A9FB005001463A462846FBF736
:104DE000EFF9074604206168A0FB01500346192033
:104DF000A9FB00B12A465846FBF7E2F96421B0FB53
:104E0000F1F000EBC00101EB0010A7EB80003221B4
:104E100001EB00106421B0FBF1F000F00F005044F2
:104E200021688860BDE8F88F00100140001401403F
:104E3000014691F8390021282CD18868B0F5805FAF
:104E40000FD10A6A1088C0F308000B68586008691F
:104E500018B9086A801C086209E0086A401C0862E8
:104E600005E00B6A581C086218780B685860C88CFB
:104E7000401E80B2C88458B90868C06820F080001D
:104E80000B68D8600868C06840F040000B68D860C4
:104E9000002070470220FCE710B50548FDF79CFE96
:104EA000044B054A0549024800F036F810BD0000E1
:104EB00030010020D94400085C08002030020020A6
:104EC00010B50548FDF788FE0023044A044902484E
:104ED00000F022F810BD0000700100201C08002026
:104EE0009002002010B50248FDF776FE10BD0000CC
:104EF000B001002010B50548FDF76EFE0023044AFE
:104F00000449024800F008F810BD0000F00100203C
:104F100074080020700400202DE9F84306460F466F
:104F200014461D464FF0000830680068C0F30010BA
:104F3000002833D03868006820F001003968086024
:104F400000BF002000903068006800903068406822
:104F5000009000BF00BFA07A39684968401A00F08D
:104F6000FF08207A68B100202072628930462168EB
:104F7000FEF70CF96089404510D17DB16068A84703
:104F80000CE001202072628930466168FEF7FEF86D
:104F90006089404502D10DB12068A847BDE8F8837B
:104FA00000BFFEE710B50A2000F0F0FD38490860A8
:104FB0000A2000F0EBFD3649486036480068C068BA
:104FC00040F0100033490968C86000203049087279
:104FD0000A20488108460A2201682E48FEF7D6F8C2
:104FE0000A2000F0D3FD2C4908600A2000F0CEFD15
:104FF0002949486029480068C06840F010002749E6
:105000000968C8600020244908720A2048810846BF
:105010000A2201682148FEF7B9F8142000F0B6FD15
:105020001F490860142000F0B1FD1D4948601D486B
:105030000068C06840F010001A490968C860002084
:10504000174908721420488108461422016815483F
:10505000FEF79CF8122000F099FD13490860122019
:1050600000F094FD1049486010480068C06840F0A6
:1050700010000E490968C86000200B490872122010
:1050800048810846122201680848FEF77FF810BDE3
:1050900074080020F001002068080020B001002002
:1050A0001C080020700100205C0800203001002056
:1050B00003B401984100009850EAC12018BF0420B1
:1050C0004A0D18BF40F0010040F2FF72B2EB515F91
:1050D00008BF40F00200012808BF052002B0704759
:1050E00002480068C0F30220704700000CED00E0A9
:1050F00010B5002804DB0A07130E054A135406E016
:105100000A07140E034A00F00F031B1FD45410BDEE
:1051100000E400E018ED00E010B5B94A2DED020BF7
:105120002DED0C8B82B00F9921F000409FEDB6CB96
:10513000904232DBA0F140530E9AA3F17F631A43F1
:105140009FEDB38B14D0B449884202DC1BD10E987A
:10515000C8B19DED0E0B53EC102B51EC100BFBF76F
:1051600072F841EC100B02B0BDEC0C8B02B010BD1C
:105170000029C7BFB0EE480AF0EE680AB0EE4C0A4C
:10518000F0EE6C0AEFE7012000F0B2FC53EC182BB4
:1051900051EC180BFBF770F95EE0A04A9FEDA09B65
:1051A0009FEDA1AB90425ADAA1499FEDA3BB81428A
:1051B000A4BFB0EE4B0AF0EE6B0AD4DA9DED0E0BF5
:1051C00053EC102B51EC100BFBF7E4F841EC180BEF
:1051D0009B480621B0EE480AF0EE680A784400F0D9
:1051E000E8FB53EC182B51EC100BFBF7D3F841EC18
:1051F0001C0B9448B0EE480AF0EE680A042178448B
:1052000000F0D7FB53EC182B51EC100BFBF7C2F856
:1052100053EC192BFBF717F841EC100B51EC1C0B5E
:1052200053EC102BFBF728F941EC100B53EC102B2F
:105230009DED0E0B51EC100BFBF7ACF853EC1A2B59
:10524000FBF7A5F89DED0E1B53EC112BFBF79FF818
:1052500053EC1B2BFBF79BF841EC100B83E79FED06
:105260007A8B9FED7BBB9DED0E0B002953EC192B28
:1052700051EC100B52DAFAF7E6FF53EC182BFBF760
:1052800089F841EC180B74480621B0EE480AF0EE9C
:10529000680A784400F08DFB53EC182B51EC100B8E
:1052A000FBF778F841EC1D0B6C48B0EE480AF0EEC5
:1052B000680A0421784400F07CFB53EC182B51EC75
:1052C000100BFBF767F853EC192BFAF7BCFF41EC16
:1052D000190B51EC180B00F08FFC41EC180B53EC40
:1052E000192B51EC1D0BFBF7C7F853EC182BFBF7F0
:1052F00051F853EC1A2BFBF747F841EC100B51EC2B
:10530000180B53EC102BFAF79EFF53EC1B2BFBF7FB
:1053100041F853EC1C2BFBF73AF89DE7FBF737F805
:1053200053EC182BFBF736F841EC180B00F064FC3B
:1053300041EC1A0B00208DED00AB00909DED000BB1
:1053400051EC1A0B53EC102BFAF77DFF9DED000B7F
:1053500041EC1C0B53EC102B51EC100BFBF71AF823
:1053600053EC182BFBF713F853EC1C2BFBF784F8CA
:1053700041EC1C0B3A48B0EE480AF0EE680A0621F0
:10538000784400F016FB53EC182B51EC100BFBF794
:1053900001F841EC1D0B3348B0EE480AF0EE680A04
:1053A0000421784400F005FB53EC182B51EC100B52
:1053B000FAF7F0FF53EC192BFAF745FF41EC100B0D
:1053C00051EC1D0B53EC102BFBF756F853EC1A2B3A
:1053D000FAF7E0FF53EC1C2BFAF735FF41EC100B0A
:1053E00053EC102B9DED000B51EC100BFAF72BFF3B
:1053F00053EC1B2BFAF7CEFF2EE700000000000055
:105400000000F03F00000000182D4454FB2109402B
:1054100000000000000000000000F07F0000E03FFE
:10542000000000000000F03F075C143326A6913C0A
:105430000000603C00000000182D4454FB21F93F9F
:10544000A80A0000B60A0000000000000000E03FCB
:105450000000000000000040F2090000000A000007
:10546000040900001209000070B59D482DED020BE3
:105470002DED068B079D25F00044A0421DDC9948C8
:10548000844202DC0FD1069868B19DED060B53EC07
:10549000102B51EC100BFAF7D6FEBDEC068B02B0C8
:1054A00041EC100B70BD002DCCBF9FED8F0B9FED1D
:1054B000900BBDEC068B02B070BD8F48A04215DD8D
:1054C0008E48A042D8BF4FF0FF3458DD9DED060B4B
:1054D00051EC100BFFF7ECFD042808BF00F0E8FAD0
:1054E0009DED060BBDEC068B02B070BD9DED060B6D
:1054F00051EC100B00F00AFBCDE9060180489FED4E
:10550000828BA0423CDD8248A0421FDD00249FED3B
:1055100082AB9DED060B53EC1A2B51EC100BFAF7F6
:1055200092FE9DED060B41EC190B53EC1A2B51EC3E
:10553000100BFAF72FFF53EC182BFAF725FF53EC5B
:10554000192BFAF799FFCDE9060149E09DED060B0D
:10555000012453EC182B51EC100BFAF774FE9DED5F
:10556000060B41EC190B53EC182B51EC100BFAF70E
:105570000BFF53EC192BFAF77FFFCDE906012FE063
:105580006748A0421FDD02249FED679B9DED060B3F
:1055900053EC192B51EC100BFAF7FCFE53EC182BC3
:1055A000FAF751FE9DED060B41EC180B53EC192B4D
:1055B00051EC100BFAF7E8FE53EC182BFAF75CFFEE
:1055C000CDE906010CE09DED060B032453EC102BF6
:1055D0009FED570B51EC100BFAF74EFFCDE906018A
:1055E0009DED060B53EC102B51EC100BFAF7D2FE8D
:1055F00041EC180B53EC182BFAF7CCFE41EC190BCD
:105600004D480621B0EE490AF0EE690A784400F0F0
:10561000D0F953EC182B51EC100BFAF7BBFE41EC10
:10562000180B4648B0EE490AF0EE690A05217844A5
:1056300000F0BFF953EC192B51EC100BFAF7AAFE4E
:1056400041EC100B51EC180B53EC102B002C0EDA24
:10565000FAF7F9FD9DED061B53EC112BFAF79AFEB4
:105660009DED061B53EC112BFAF791FE35E0FAF78E
:10567000EAFD9DED061B53EC112BFAF78BFE41EC76
:10568000100B2F48784400EBC40090ED001B51EC48
:10569000100B53EC112BFAF777FE9DED061B53EC24
:1056A000112BFAF771FE41EC100B2648784400EB01
:1056B000C40090ED001B51EC100B53EC112BFAF7CA
:1056C00066FE41EC100B002DA2BFBDEC068B02B0B4
:1056D00070BD51EC100B81F0004141EC100B01E763
:1056E000000010440000F07F182D4454FB21F93FC6
:1056F000182D4454FB21F9BF0000DC3F0000203E80
:105700000000F33F00000000000000000000F03F38
:105710000000E63F00000000000000000000004024
:105720000080034000000000000000000000F83F7F
:10573000000000000000F0BF30070000E606000097
:10574000700600002806000070B56B4E2DED040BAE
:105750002DED028B82B0DDF81CC0DDE905235C4233
:105760002CF000411C4341EAD474049D22F0004017
:10577000B44205D86C422C4340EAD474B44210D9E8
:105780009DED060B53EC102B9DED040B51EC100B13
:10579000FAF759FD41EC100B02B0BDEC028B04B0DE
:1057A00070BDACF14054A4F17F641C430BD00224C3
:1057B00004EAAC7444EAD27405439FED518B9FED2B
:1057C000522B07D010E09DED040B51EC100B00F0B4
:1057D00095F939E0002C14BF012C9DED040BDBD0B2
:1057E000022C34D0032C37D00B439FED491B9FED87
:1057F0004A0B0AD0B14218D1B04209D121F0804100
:1058000020F08040079105900FE0002AC4DA10E0F4
:10581000434B7B44002C08BF93ED000BBCD0012C04
:105820000CD0022C13D0032C16D0B04219D1002A70
:10583000B2DAB0EE410AF0EE610AADE793ED000B8B
:1058400051EC100B81F0004141EC100BA4E7B0EEDD
:10585000480AF0EE680A9FE7B0EE420AF0EE620AEC
:105860009AE7401A00153C28C8BF8DED000B19DCE3
:10587000BCF1000FBEBF10F13C0F9FED2B0B8DED67
:10588000000B0FDB9DED060B53EC102B9DED040B75
:1058900051EC100BFAF7F0FD00F038F900F02EF99A
:1058A000CDE90001002C08BF9DED000B3FF474AF63
:1058B000012C10D0022C9FED1E0B53EC102B9DEDF4
:1058C000000B51EC100B0DD0FAF75EFD53EC182BCA
:1058D000FAF75AFDB8E7019880F0004001909DED7D
:1058E000000B59E7FAF750FD53EC182BFAF74FFD70
:1058F000AAE70000000000000000F07F00000000A8
:10590000182D4454FB210940182D4454FB2109C093
:10591000182D4454FB21F9BF182D4454FB21F93FA5
:105920005A05000000000000000000000000000018
:10593000075C143326A6A13C00B52DED048BB0EE18
:10594000409AF0EE609A83B051EC190BFAF72FFFF2
:1059500041EC180B18EE100A18EE901A8DED008B22
:10596000002818BF0120084320F00040C0F17F60EC
:1059700000F1E040C00F14D019EE101A19EE900A91
:105980008DED009B002918BF0121084320F0004045
:10599000C0F17F6000F1E040C00F04BF012000F0C3
:1059A000A7F8B0EE480A03B0F0EE680ABDEC048B2D
:1059B00000BD70B504462DED028B4D1E00EBC500F9
:1059C000B0EE408AF0EE608A90ED000B35F00600F4
:1059D00017D053EC182B51EC100BFAF7DBFC41EC11
:1059E000100B6D1E04EBC50090ED001B51EC100B6D
:1059F00053EC112BFAF727FC41EC100B35F00600A5
:105A0000E7D1022D36D0042D1CD0062D1CBFBDECD5
:105A1000028B70BD53EC182B51EC100BFAF7BAFC4B
:105A200094ED0A1B53EC112BFAF70DFC53EC182BD9
:105A3000FAF7B0FC94ED081B53EC112BFAF703FCBA
:105A400041EC100B53EC182B51EC100BFAF7A2FCA5
:105A500094ED061B53EC112BFAF7F5FB53EC182BC6
:105A6000FAF798FC94ED040B53EC102BFAF7EBFBD0
:105A700041EC100B53EC182B51EC100BFAF78AFC8D
:105A800094ED021B53EC112BFAF7DDFB53EC182BB2
:105A9000FAF780FC94ED001B53EC112BFAF7D3FBC3
:105AA000BDEC028B41EC100B70BD0000000000004B
:105AB0009FED050B10B553EC102B51EC100BFAF7C2
:105AC00069FC41EC100B10BD00000000000000104C
:105AD00002E008C8121F08C1002AFAD170477047B7
