:020000040800F2
:10000000404F00205D020008A93400088F2B000833
:100010009D300008390C0008E7430008000000008C
:100020000000000000000000000000009D0100082A
:10003000950E000800000000F9010008F53C0008DA
:1000400077020008770200087702000877020008AC
:10005000770200087702000877020008770200089C
:10006000770200087702000877020008770200088C
:100070009D0D000877020008A90D0008770200080E
:10008000B50D0008C10D00087702000877020008CE
:100090003D0C00087702000877020008770200088C
:1000A00077020008C53D00087702000877020008C3
:1000B000D13D0008DD3D0008770200087702000806
:1000C000770200087702000877020008770200082C
:1000D0007702000801430008294300084D43000847
:1000E000770200087702000877020008770200080C
:1000F00077020008770200087702000877020008FC
:1001000077020008770200087702000877020008EB
:1001100077020008770200087702000877020008DB
:1001200077020008CD0D0008D90D000877020008FD
:1001300077020008000000000000000077020008BD
:10014000890C00087702000877020008770200088F
:1001500077020008E50D00087702000859430008FF
:10016000770200087702000877020008770200088B
:10017000770200087702000800000000000000007D
:100180007702000877020008DFF80CD000F0D2FBFD
:1001900000480047ED4E0008404F00202C4B1968E6
:1001A0000868B0E8F04F80F30988BFF36F8F4FF015
:1001B000000080F3118870470000000008480068C4
:1001C000006880F308884FF0000080F3148862B65E
:1001D00061B6BFF34F8FBFF36F8F00DF00BF00BF6B
:1001E00008ED00E0DFF80C00016841F470010160E7
:1001F000704700BF88ED00E0EFF30980BFF36F8F19
:10020000134B1A681EF0100F08BF20ED108A20E96A
:10021000F04F106009B44FF0500080F31188BFF325
:100220004F8FBFF36F8F05F03FFB4FF0000080F35F
:10023000118809BC19680868B0E8F04F1EF0100F6B
:1002400008BFB0EC108A80F30988BFF36F8F704746
:1002500050010020EFF305807047000006488047FA
:1002600006480047FEE7FEE7FEE7FEE7FEE7FEE79B
:10027000FEE7FEE7FEE7FEE7A53D0008890100086E
:100280002DE9F05F0546002092469B4688460646CB
:10029000814640241BE0284641464746224600F05E
:1002A00044FA53465A46C01A914110D31146184693
:1002B000224600F02BFA2D1A67EB01084F46224622
:1002C0000120002100F022FA17EB00094E41201E08
:1002D000A4F10104DFDC484631462A464346BDE826
:1002E000F09F40EA01039B0703D009E008C9121FF1
:1002F00008C0042AFAD203E011F8013B00F8013BE0
:10030000521EF9D27047D2B201E000F8012B491E0B
:10031000FBD270470022F6E710B513460A460446A2
:100320001946FFF7F0FF204610BD2DE9FE4F80462D
:1003300081EA0300C00F0C46009021F0004123F039
:100340000045B8EB0200A94105D24046214690463F
:100350001C460B46024623F00040104347D0270DB1
:10036000C7F30A00C3F30A510290401A01904028D3
:100370006BDAC3F3130040F4801B0098924620B15F
:100380000023D2EB030A63EB0B0B01985946C0F133
:100390004002504600F0BAF906460D46504659460E
:1003A000019A00F0D2F910EB08006141002487EABD
:1003B000115284EAE7731A4340D0009A62B3019A5B
:1003C000012A4FEA075215DC001B61EB02014FF0D6
:1003D000004202EA0752CDE90042001C41F58011BB
:1003E00032462B4600F007FA03B0BDE8F08F4046D6
:1003F0002146F9E7001B61EB0201001C41F5801367
:1004000000185B412018A2F5001747EB030140EAF2
:10041000D570B6196D4111E06D084FEA360645EA10
:10042000C0754FEA0752001B61EB0201001C41F549
:10043000801149084FEA30000019514132462B46DD
:1004400003B0BDE8F04F00F0C9B9009801224000A8
:100450000023D0EB020263EBE073009821464FEAE1
:10046000E074B8EB000061EB0401E9E783F00043BE
:100470005BE781F0004158E72DE9FE4F81EA030474
:1004800004F0004421F0004100944FF0000B23F0F1
:10049000004350EA01045ED052EA03045BD0C3F388
:1004A0000A54C1F30A552C44A4F2F3340194A0FB7E
:1004B0000254C1F3130141F48011C3F3130343F455
:1004C000801301FB024400FB034E840A970A44EAAE
:1004D000815447EA8357A4FB076802958D0A05FB00
:1004E00007854FEA932C04FB0C542705029D4FEA25
:1004F000065847EA1637B5EB08056EEB070C870E72
:10050000920E47EA811742EA8312A7FB0201B6EB7B
:100510000B0164EB00042B0D43EA0C335E1844EB33
:100520001C50DA465146E7FB0201C5F313044FEABB
:100530000B3343EA14534FEA0432019C43EA0603A7
:10054000A4F10C040294009CCDE900B400F053F92E
:1005500003B0BDE8F08F00200146F9E72DE9F04D2A
:1005600081EA030404F0004B21F0004514464FF0EB
:10057000000A23F0004150EA050220D054EA0102AB
:100580001DD0C5F30A570246C5F31303C1F3130088
:10059000C1F30A5640F4801543F48013A7EB060814
:1005A000101BD64608F2FD3873EB050002D308F1A4
:1005B000010801E092185B41B8F1000F03DA002056
:1005C0000146BDE8F08D00204FF4801106468446B8
:1005D0000EE0171B73EB050705D3121B63EB050336
:1005E00006434CEA010C49084FEA300092185B417F
:1005F00050EA0107EDD152EA030012D082EA04006A
:1006000083EA0501084305D0101BAB4106D2012245
:10061000002306E000224FF0004302E06FF00102E9
:1006200053101AEB06004CEB085110EB0A0041EB9B
:100630000B01BDE8F04D00F0D1B80EB5C10F80EA56
:10064000E0700844CA07002140F233438DE80E00F1
:100650000A460B4600F0CFF803B000BD00F00042A0
:1006600030F000400AD0C10D01F56071C0F31600F2
:1006700042EA0151C2084007114370470020014679
:100680007047000030B5002904DB4FF000444042C1
:1006900064EB0101002B04DB4FF00044524264EB99
:1006A00003038B4208BF824230BD000030B50029F1
:1006B00004DB4FF00044404264EB0101002B04DBFB
:1006C0004FF00044524264EB0303994208BF90424A
:1006D00030BD000001F0004330B421F0004150EA89
:1006E000010206D00A0DA2F56072C1F31301002ABF
:1006F00002DC30BC00207047440F44EAC104C10052
:10070000E01830BC00EBC25000F031B8202A04DB06
:10071000203A00FA02F1002070479140C2F1200314
:1007200020FA03F3194390407047202A04DB203A53
:1007300021FA02F00021704721FA02F3D040C2F101
:1007400020029140084319467047202A06DBCB1748
:10075000203A41FA02F043EAE07306E041FA02F37C
:10076000D040C2F120029140084319467047002949
:10077000A8BF7047401C490008BF20F00100704727
:1007800010B4B0FA80FC00FA0CF050EA010404BF87
:1007900010BC704749B1CCF1200421FA04F411FADD
:1007A0000CF118BF012121430843A3EB0C01CB1D21
:1007B0004FEA00614FEA102042BF002010BC704792
:1007C00000EBC35010440029A4BF10BC7047401C6C
:1007D000490008BF20F0010010BC704710B5002B85
:1007E00008DA401C41F1000192185B411A4301D123
:1007F00020F0010010BD2DE9F04D92469B4611B14D
:10080000B1FA81F202E0B0FA80F220329046FFF7AE
:100810007DFF04460F4640EA0A0041EA0B015346B9
:100820005A46084313D0114653EA010019D0C8F1C3
:1008300040025046FFF779FF05460E46504659469E
:100840004246FFF763FF084305D0012004E020463D
:100850003946BDE8F08D0020054346EAE0762C439A
:1008600037430A986305E40AA0EB08000022FD0A5A
:1008700044EA47540A3002D500200146E9E7010561
:1008800010196941DDE9084500196941BDE8F04DDD
:10089000A4E72DE9F04D00231A461B1A8A4103DB19
:1008A00000200146BDE8F08DC1F30A52C1F31301E7
:1008B00041F480154FF0000BD10702D100186D41B3
:1008C000521E0027044640F2FF11384601EB620A2F
:1008D0003E468046024600204FF48011FFF725FF78
:1008E000C2197141BB1846EB0100B4EB030C75EB68
:1008F000000C04D3E41A65EB000517460E462419D4
:1009000008F101006D4180463428E3DDF91946EB1A
:100910000600091BA84103D24FF0FF32134601E045
:10092000002213461BEB070046EB0A51BDE8F04DD1
:10093000FFF754BF064C074D06E0E06840F00103A6
:1009400094E8070098471034AC42F6D3FFF720FC38
:10095000185E0008385E000870B58C1810F8015B4E
:1009600015F0070301D110F8013B2A1106D110F848
:10097000012B03E010F8016B01F8016B5B1EF9D14C
:100980002B0705D40023521E0DD401F8013BFAE7D2
:1009900010F8013BCB1A921C03E013F8015B01F83D
:1009A000015B521EF9D5A142D8D3002070BD0000D2
:1009B00070B5044640691E4945182068002826D1B4
:1009C0006068002823D06068082820D02878032693
:1009D00050B9606801281AD107212046A66002F0AC
:1009E000B3FD2878401C2870C0B2012810D002281E
:1009F00013D0032815D0042809D10820A0600721AE
:100A0000204602F0A1FD0020A0600520287070BDE6
:100A100060680428FBD10220287060680728F6D19E
:100A20002E7060680128F2D104202870E5E70000EC
:100A300035010020002280F82820012343609FED2B
:100A40000D0A026180ED070A026080ED080AC260AB
:100A500082604B0141614385074B01EBC10103EB10
:100A6000810180ED090A24310163C28500212C3007
:100A700003F0A6B9000000002000002010B5674C6C
:100A80002DED028BDFED668AB0EE683A9FED658A48
:100A9000F0EE681AF0EE482AB0EE482AB0EE481A96
:100AA000F0EE480A9FED600A04F1180002F08CFD98
:100AB0000021204602F0F0FB9FED5C3AF0EE482A60
:100AC000B0EE482AF0EE681AB0EE481AF0EE480A86
:100AD000B1EE040A04F1480002F076FD04F1A4002E
:100AE000B0EE483AF0EE482AB0EE482AF0EE481A46
:100AF000B0EE481AF0EE480AB0EE480A8C3402F024
:100B000063FD0121204602F0C7FBB0EE483AF0EE4B
:100B1000482AB0EE482AF0EE481AB0EE481AF0EE35
:100B2000480AB0EE480A04F1480002F04DFD8C3C42
:100B300004F59870B0EE483AF0EE482AB0EE482A34
:100B4000F0EE481AB0EE481AF0EE480AB0EE480A45
:100B500004F58C7402F038FD0221204602F09CFB63
:100B6000B0EE483AF0EE482AB0EE482AF0EE481AC5
:100B7000B0EE481AF0EE480AB0EE480A04F1480018
:100B800002F022FD254CB0EE483A04F5DE70F0EE9E
:100B9000482AB0EE482AF0EE481AB0EE481AF0EEB5
:100BA000480AB0EE480A04F5D27402F00DFD0321A4
:100BB000204602F071FBB0EE483AF0EE482AB0EE63
:100BC000482AF0EE481AB0EE481AF0EE480AB0EEA5
:100BD000480A04F1480002F0F7FC104C14480021C8
:100BE000C4F88800FFF726FF114801213430C4F80B
:100BF0001401FFF71FFF0F480221C4F8A001FFF7FF
:100C000019FF0C4803213430C4F82C02FFF712FFFF
:100C10000120C4F83C02BDEC028B10BD90090020FD
:100C200000401C46000000009A99993E0000FA45D9
:100C3000C008002028090020FEE7000010B588B099
:100C40000F4800F010FB0F4B6A461C4600210C4871
:100C500000F07FFA0098401EB0F5FF7F04D800989E
:100C6000214680B202F022FC0098A0F20120082860
:100C700003D22046009902F019FB08B010BD000015
:100C8000BC010020D80B0020014800F0ECBA0000A5
:100C9000E401002010B504460F4A0E2000218AB05E
:100CA000944201D1059100E0059009900120019145
:100CB0000291CDE9061003910091049108906946D4
:100CC000204600F0BFF9204600F0DBFC0221204660
:100CD00000F042F90AB010BDBC010020094D00240B
:100CE00004EBC40005EB800191F8200010B1064828
:100CF00000F013F8641C052CF2DB012004F064F909
:100D0000EDE7000020000020BC0100200021C160B0
:100D10008160017508210161704738B50C460546B0
:100D2000284600F08AFA0028FAD06B4604F118022F
:100D30002146284600F022F908B100F0B0F8002062
:100D400084F8200038BD000010B5124802F056FCAF
:100D500010488C3002F052FC0F4802F04FFC0E4855
:100D60008C3002F04BFC0B4C0D21D4F8880002F0C3
:100D7000EBFB0D21D4F8140102F0E6FB0D21D4F8B1
:100D8000A00102F0E1FBD4F82C02BDE810400D21D7
:100D900002F0DABB90090020A80A0020014800F008
:100DA000B5BC000000070020014800F0AFBC000007
:100DB00060070020014800F0A9BC000040060020A8
:100DC000014800F0A3BC0000A0060020014800F08C
:100DD0009DBC0000C0070020014800F097BC000047
:100DE000E0050020014800F091BC00002008002030
:100DF00001681823CAB2103AB2FBF3F2054B6FF345
:100E00000901032A9B5CC36500D9091D8165084659
:100E100070470000C45C000810B5014600208B69D3
:100E20008A6A4FF0C07453B1B3F5005F15D072B148
:100E3000012A0CD0022A0AD0032A09D104E01AB1EF
:100E4000012A06D0022A03D1C96AC90100D50120AE
:100E500010BDC96AA142FAD010BD002AF7D0012AFC
:100E6000F2D0022AF3D0032AF3D010BD30B50468C3
:100E7000256825F480252560046863608368402B1D
:100E8000036803D099600068C26030BD9A60006852
:100E9000C16030BD7047012004F096F8FBE7704751
:100EA000002141800170704708B502210091418DF9
:100EB000006B0823014A02F0A1FE08BD30010020AA
:100EC00008B502210091418D006B0423014A02F014
:100ED00095FE08BD3001002008B502210091418D2A
:100EE000006B0823002202F089FE08BD08B502212C
:100EF0000091418D006B0423002202F07FFE08BDAB
:100F000010B5064C01220221204600F050FE20467A
:100F10000022BDE81040012100F049BE0008024057
:100F20004FF4FA71B0FBF1F210B501FB1201094C5C
:100F3000B1F5C87F01D9002200E00122022120463C
:100F400000F035FE20460022BDE81040012100F0EF
:100F50002EBE00000008024090F82020012A07D091
:100F6000022A05D0416A41F4802141620120704784
:100F7000006842690A43426100207047F0B590F86A
:100F800020500468A468012D05D0022D03D0416AC9
:100F900041F4802153E014F0406F01D1E5004BD5BE
:100FA000C4F30164022C03D9416A41F4000146E014
:100FB0000125A5401D608B684FF4C0759BB1CE68BC
:100FC00033434E6843EAC603066805EB0417F35142
:100FD0004FF4C273076803EB04130E69FE50097DDA
:100FE000012905D009E00E88CB6843EA4653EBE7B8
:100FF0000168CE5846F48076CE501179D2F805308B
:101000004FF4C67641EA0323016806EB04168B51C0
:101010001178D2F801204FF4C47341EA022102682A
:1010200003EB0413D150006805EB0411425842F061
:10103000010242500020F0BD416A41F400114162BA
:101040000120F0BD10B590F82020012A07D0022A17
:1010500005D0416A41F480214162012010BD3B4826
:10106000D0F8002242F00102C0F80022D0F800229D
:1010700022F47C52C0F80022D0F800224B6A42EAE7
:101080000322C0F800220A7D02F01F0301229A40C9
:10109000D0F81C329343C0F81C32CB69B3B9D0F8F6
:1010A0000C329343C0F80C328C894B6864F31F43B5
:1010B0004C6900EBC404C4F840320C890B6864F33B
:1010C0001F434C6900EBC404C4F84432CB69012BC4
:1010D00016D1D0F80C321343C0F80C320C884B6890
:1010E00064F31F434C6900EBC404C4F840320C891C
:1010F000CB6864F31F434C6900EBC404C4F844326A
:101100008B69002BD0F804320ED01343C0F80432A0
:101110000B69002BD0F8143208D01343C0F81432F6
:10112000096A012904D008E09343EFE79343F5E708
:10113000D0F81C121143C0F81C12D0F8001221F094
:101140000101C0F80012002010BD00000064004042
:10115000704730B590F82040012C05D0022C03D008
:10116000416A41F480215DE00468002955D024697A
:10117000A40754D04FF4D874056804EB01142D591A
:1011800015F00405956005682D594ED0ED085560A1
:1011900005682C5904F00204D4604FF4DA74056831
:1011A00004EB01142D5905F00F05156105682D5943
:1011B000C5F30725956105682C59240C54614FF43B
:1011C000DC72046802EB0112A4581C700468A45875
:1011D000240A5C700468A458240C9C700468A2580B
:1011E000120EDA704FF4DE72046802EB0112A4589A
:1011F0001C710468A458240A5C710468A458240C67
:101200009C710468A258120EDA71006881B10169FC
:1012100041F020010161002030BDE468A8E7416A87
:1012200041F400114162012030BD6D0D1560AFE742
:10123000C16841F02001C160EDE70246002092F84C
:101240002010012901D002290CD111688A685201AD
:1012500000D501208A68120100D5401C8968C900A8
:1012600000D5401C70472DE9F05F0546006800245A
:101270004669D0F804908768D0F80CB0D0F810A078
:10128000D0F81880F10748D0F90714D00121816007
:10129000B80703D5284600F020FA0CE0780702D5FD
:1012A0004FF4006407E0380702D54FF4805402E0A1
:1012B000284600F011FAF80516D529684FF4807019
:1012C0008860B80503D5284600F009FA0CE07805D7
:1012D00002D544F4005407E0380502D544F48044B4
:1012E00002E0284600F0FAF9F80316D529684FF411
:1012F00080308860B80303D5284600F0F2F90CE08E
:10130000780302D544F4004407E0380302D544F4DE
:10131000803402E0284600F0E3F9300707D55FEAA1
:10132000CB6004D52968102044F40074C8607007AD
:101330004FF0080707D55FEA0B7004D52868C7602F
:10134000284600F099F9B00706D52868C0688007DC
:1013500002D0284600F091F9700607D55FEACA600E
:1013600004D52968102044F480640861B00607D5CC
:101370005FEA0A7004D528680761284600F07EF904
:10138000F00606D528680069800702D0284600F0DC
:1013900076F9B00308D55FEAC96005D52968102041
:1013A0004860284600F06CF9F00307D55FEA097041
:1013B00004D528684760284600F094F9300446D5E3
:1013C0005FEA497040D5F00504D55FEAC87001D0E6
:1013D00044F00104B00504D55FEA887001D544F0FB
:1013E0000204700504D55FEA487001D544F0040496
:1013F000300529D518F0700F26D008F0700040286D
:1014000015D006DC102809D020280AD0302816D1A3
:101410000AE050280ED0602811D10EE044F00804F4
:101420000DE044F010040AE044F0200407E044F02A
:10143000400404E044F0800401E044F4807428682F
:10144000816921F070018161296804204860002CC5
:1014500005D0686A204368622846FFF779FEBDE838
:10146000F09F70B5040003D094F8200010B104E0A0
:10147000012070BD204600F081F82068016821F04D
:101480000201016000F098FB0546052604E000F02B
:1014900093FB401B0A2811D8206840688007F6D4C7
:1014A0002068016841F00101016000F085FB0546FC
:1014B0000BE000F081FB401B0A2806D9606A40F46B
:1014C0000030606284F82060D2E720684068C0077E
:1014D000EFD0207E0128206801683DD021F08001F6
:1014E0000160607E01282068016838D021F0400149
:1014F0000160A07E01282068016833D021F020011E
:101500000160E07E0128206801682ED041F01001C2
:101510000160207F01282068016829D021F008019E
:101520000160607F01282068016824D021F0040157
:101530000160D4E902010843D4E9041211430843CD
:101540006168491E08432168C8610020606201206B
:1015500084F82000002070BD41F08001C0E741F018
:101560004001C5E741F02001CAE721F01001CFE7B3
:1015700041F00801D4E741F00401D9E7F0B587B0A4
:10158000044614216846FEF7C5FE3649364ADFF8A0
:10159000D0E00868D4F800C0334B022403250926A4
:1015A00010320027401CF44523D10860012807D1E0
:1015B000106840F000701060106800F00070059036
:1015C000186840F0010018601868694600F00100D2
:1015D00005904FF4C0508DE89100CDE903562348A3
:1015E00000F006FA00220521142000F071FB1420FF
:1015F00031E0DFF87CE0F4452FD1D2F800C04CF0A8
:10160000806CC2F800C0D2F800C001280CF0806CD9
:10161000CDF814C0086007D1106840F00070106069
:10162000106800F000700590186840F00200186023
:101630001868694600F00200059060208DE891006E
:10164000CDE903560B4800F0D3F9002205214020D4
:1016500000F03EFB402000F02DFB07B0F0BD000085
:1016600000640040040000203038024000000240C6
:1016700000680040000402407047704770477047A0
:10168000704770B5044690F82000012804D0606AC5
:1016900040F40020606217E0022084F820002068F7
:1016A000016821F00101016000F086FA05460DE0B5
:1016B00000F082FA401B0A2808D9606A40F4003022
:1016C0006062052084F82000012070BD2068406819
:1016D000C007EDD1606270BD7047704770477047BA
:1016E00070477047704790F83510022903D0802169
:1016F000416501207047052180F8351000680168B8
:1017000021F0010101600020704700002DE9F8433D
:1017100004464FF00009CDF8009063484FF416518D
:10172000A56D0068B0FBF1F72E6894F85C200821E5
:1017300001FA02F030420FD02068026852070BD540
:10174000026822F00402026094F85C008140A96003
:10175000606D40F00100606594F85C104FF0010886
:1017600008FA01F0304208D021684969090604D519
:10177000A860606D40F00200606594F85C10042081
:101780008840304208D021680968890704D5A860DC
:10179000606D40F00400606594F85C101020884093
:1017A000304218D021680968090714D5A86020685C
:1017B0000168490304D50068000308D5A16C07E05F
:1017C0000168C90503D4016821F008010160216C9A
:1017D00009B12046884794F85C10202088403042A8
:1017E00031D021680968C9062DD5A86094F8350064
:1017F00005282068016806D0490347D50068000322
:101800001DD4616C1CE021F0160101602068416963
:1018100021F080014161206C08B9A06C20B12068E2
:10182000016821F00801016094F85C103F208840B5
:10183000A86084F8349084F83580216D1FE0E16B56
:1018400009B120468847606D00282BD0606DC00725
:1018500014D0052084F835002068016821F00101CA
:1018600001600098401C0090B84203D820680068CE
:10187000C007F6D184F8349084F83580E16C0029F3
:1018800010D001B02046BDE8F04308470168C90503
:10189000D5D4016821F01001016084F8349084F8F7
:1018A0003580CCE7BDE8F8834C0100202DE9F041FC
:1018B000044600F081F905465CB1002684F83460E6
:1018C000022084F835002068016821F001010160E0
:1018D0000DE00120BDE8F08100F06EF9401B052805
:1018E00005D920206065032084F83500F2E72068E0
:1018F0000068C007F0D121680A6820480240D4E996
:1019000001031843D4E903352B4318436369184393
:10191000A3691843E3691843236A18431043626AB2
:10192000042A03D1D4E90B231A431043086020682A
:101930004069656A20F0070128460D430127042805
:101940000CD1A06A0543E06A40B12046FFF764FA73
:1019500020B14020606584F83570BAE720684561A1
:101960002046FFF745FA94F85C203F2191408160C2
:10197000666584F835700020ACE700003F8010F009
:101980002DE9F0410446866D90F8340000250128C9
:101990000DD0012084F8340094F835700020012F18
:1019A00007D084F8340002252846BDE8F0810220E3
:1019B000FBE7022784F8357060652046FFF756FA8A
:1019C00094F85C103F208840B0602068016841F0C6
:1019D00016010160206C20B12068016841F0080107
:1019E00001602068016841F001010160DCE700004E
:1019F0002DE9F84FDFF880B100224FF003094FF0D6
:101A00000F0A0BF1040E01250B6895402B40AB42E9
:101A100072D14C68012C05D0022C03D0112C01D0BE
:101A2000122C10D18668540009FA04F7BE43CF681F
:101A3000A7403743876046680C79AE43C4F300146F
:101A4000944034434460C468570009FA07F58E682F
:101A5000AC43BE402643C6604C68022C01D0122C19
:101A600012D1D40800EB840CDCF820605407E40E9B
:101A70000AFA04F826EA0806D1F8108008FA04F8F1
:101A800048EA0608CCF820800468AC430D7905F0DC
:101A90000305BD40254305604C68E40065D5374C1F
:101AA000256845F480452560246822F0030504F488
:101AB00080440094324C2E19D6F808789407250FEC
:101AC0000AFA05F4A7432F4CA04201D1002424E0D8
:101AD0002D4CA04201D101241FE02C4CA04201D189
:101AE00002241AE02A4CA04201D1032415E0294C1B
:101AF000A04202D1042410E037E0274CA04201D1DB
:101B000005240AE0254CA04201D1062405E0244C1E
:101B1000A04201D1072400E00824AC403C43C6F8B1
:101B20000848DBF800405D464E689C43F60300D54C
:101B30001C432C60DEF8004075464E689C43B6039B
:101B400000D51C432C600C4D08352C684E689C4316
:101B5000F60200D51C432C60074D0C352C684E68EE
:101B60009C43B60200D51C432C60521C102AFFF483
:101B70004AAFBDE8F88F0000003C01404438024005
:101B80000030014000000240000402400008024012
:101B9000000C0240001002400014024000180240F5
:101BA000001C02400069084000D0012070470AB1C3
:101BB000816170470904FBE70148806870470000B5
:101BC000400100200248816802781144816070471A
:101BD000400100200B4810B5016841F4007101601C
:101BE000016841F480610160016841F48071016025
:101BF000032000F08DF8002000F006F800F03EF819
:101C0000002010BD003C024010B5014688B0002203
:101C1000192000F05DF8192000F04CF8134800245A
:101C2000016841F001010160006805A900F00100B0
:101C30000690684600F018F900F046F90C4940009B
:101C4000B0FBF1F10C480B4A491E026040F2E7324A
:101C5000C0E90324C0E9011400F064FB10B10120C5
:101C600008B010BD044800F0A9FBF9E74438024071
:101C700040420F0000000140800800200C4882B064
:101C8000016841F480410160006800F480400090E8
:101C90000748001F016841F0805101600068002280
:101CA00000F0805000900F21901E02B000F010B89C
:101CB00044380240002809DB00F01F020121914056
:101CC0004009800000F1E020C0F8001170470000DA
:101CD000F0B40E4B1B68C3F30223C3F10704042CBA
:101CE00000D904241D1D072D01D2002300E0DB1EB6
:101CF000012606FA04F56D1E0D409D409E40761E9D
:101D0000164045EA0601F0BC02F0D8BB0CED00E03D
:101D1000064A00F0070110684FF6FF03184040EA3A
:101D20000120034908431060704700000CED00E0FB
:101D30000000FA052DE9F0470D46040065D0DFF8F4
:101D40001491D9F80000EFB200F00F00A84207D2BA
:101D500089F80070D9F8000000F00F00A84254D1B3
:101D600020683D4E810712D5400703D5306840F406
:101D7000E05030602078000703D5306840F46040C0
:101D800030603068A16820F0F000084330602078AF
:101D9000C0072DD0304960680839012812D00228C8
:101DA00013D0032811D00968890700292DDA31687A
:101DB00021F0030101433160FFF7FEFE804641F24E
:101DC000883A0EE009688903EFE709688901ECE7C2
:101DD000FFF7F2FEA0EB0801514502D90320BDE850
:101DE000F0873068616800F00C00B0EB810FEFD134
:101DF000D9F80010484601F00F01A94207D9077031
:101E0000006800F00F00A84201D00120E7E7207829
:101E1000400705D53068E16820F4E05008433060A1
:101E20002078000706D53068216920F4604040EA38
:101E3000C100306000F058F83168084AC1F303115E
:101E4000515CC8400649086006480068FFF7DCFEA0
:101E50000020C4E7003C024008380240CC5C000887
:101E60004C010020440100200F2202600C4A13683C
:101E700003F003034360136803F0F0038360136807
:101E800003F4E053C36012684FF4E05303EAD20254
:101E900002610448006800F00F000860704700000D
:101EA00008380240003C02400448054900680968BF
:101EB000044AC1F38221515CC84070474C010020A4
:101EC00008380240DC5C00080448054900680968DD
:101ED000044AC1F34231515CC84070474C010020B4
:101EE00008380240DC5C0008154810B5006810F0A6
:101EF0000C01144813D0431004290FD008290ED127
:101F00000F4C241F216801F03F022168490207D5C8
:101F10002068C0F38810A0FB030106E0184610BD3E
:101F20002168C1F38811A1FB00010023FEF7A8F985
:101F30002168C1F30141491C4900B0FBF1F010BD1B
:101F4000083802400024F4002DE9F84F040075D051
:101F50002078DFF828A3C007AAF1040548D00AF1C9
:101F600004000168C1F38101012908D00068C0F3B1
:101F7000810002280AD1DAF80000400206D528685C
:101F8000800335D560680028E1D031E06068B0F5A5
:101F9000803F10D0B0F5A02F286810D020F48030FA
:101FA0002860286820F4802028606068A0B1FFF7CE
:101FB00003FE06460CE0286840F48030F4E740F465
:101FC00080202860F7E7FFF7F7FD801B642871D8B1
:101FD00028688003F7D50BE0FFF7EEFD064604E026
:101FE000FFF7EAFD801B6428F1D828688003F7D446
:101FF0002078DFF88C9280074FF0000B3DD59F488A
:10200000001D016811F00C0F08D00068C0F38100BA
:1020100002280AD1DAF80000400206D428688007B6
:1020200015D5E068012809D111E0E068B8B10121B7
:10203000C9F80010FFF7C0FD064605E01AE1FFF7FA
:10204000BBFD801B0228C2D828688007F7D5286806
:10205000216920F0F80040EAC10028600DE0C9F8CD
:1020600000B0FFF7A9FD064604E0FFF7A5FD801BC1
:1020700002281FD828688007F7D42078000722D5C7
:102080007E4F80486169703771B101210160FFF7AF
:1020900093FD064604E0FFF78FFD801B022809D858
:1020A00038688007F7D50EE0C0F800B0FFF784FD70
:1020B000064605E082E0FFF77FFD801B02287DD801
:1020C00038688007F7D42078400765D56B484FF013
:1020D00000083C300068C0000BD468483C30016800
:1020E00041F08051016000684FF0010800F080501D
:1020F0000090654F3868C0050FD4386840F4807090
:102100003860FFF759FD064604E0FFF755FD801BD8
:10211000022853D83868C005F7D5584FA0686C37E7
:1021200001280FD00528386810D020F00100386051
:10213000386820F004003860A068B0B1FFF73CFDBB
:1021400006460EE0386840F00100F4E740F0040075
:102150003860F7E7FFF730FD811B41F2883081429C
:1021600063D838688007F5D50DE0FFF725FD0646F2
:1021700006E0FFF721FD811B41F28830814254D8EF
:1021800038688007F5D4B8F1000F05D03B483C30E3
:10219000016821F080510160A069B8B33749091D79
:1021A0000968C1F38101022946D00228584606D0A9
:1021B000C9F86000FFF700FD044639E035E04F46FE
:1021C000C9F86000FFF7F8FC064604E0FFF7F4FCEE
:1021D000801B022829D828688001F7D4D4E9070198
:1021E0000843A16A294A490802EB0141626A41EAAF
:1021F0008211084394F82C1040EA0161CAF80010DB
:1022000001203866FFF7D8FC044605E034E0FFF70C
:10221000D3FC001B022808D828688001F7D52BE0E2
:10222000FFF7CAFC001B022802D90320BDE8F88F83
:1022300028688001F4D41FE00128F7D0DAF8000004
:10224000E26900F48001914214D1226A00F03F015A
:1022500091420FD147F6C071626A0140914209D1A3
:10226000A26A00F44031914204D1E16A00F070604A
:10227000884201D00120D9E70020D7E70438024086
:1022800000004742800E4742007000400000FFFF00
:102290007047704770B590F83C20012A32D0012574
:1022A00080F83C50022280F83D2002685368946810
:1022B00023F070060B6833435360134B02689A4255
:1022C00014D0B2F1804F11D0104B9A420ED0104B67
:1022D0009A420BD00F4B9A4208D00F4B9A4205D02E
:1022E0000E4B9A4202D00E4B9A4204D1496824F018
:1022F00080031943916080F83D50002180F83C1024
:10230000084670BD022070BD00000140000400407E
:1023100000080040000C0040000401400040014063
:102320000018004010B5040003D094F83D0010B12F
:1023300007E0012010BD002084F83C00204600F09A
:102340000DF8022084F83D00211D206801F0DEFD1B
:10235000012084F83D00002010BD000008B5006891
:102360001449B0F1804F14D0134A904220D108682C
:1023700040F0020008600868002200F002000090AF
:1023800005211D20FFF7A4FC1D20BDE80840FFF734
:1023900091BC086840F0010008600868002200F065
:1023A0000100009005211C20FFF792FC1C20ECE7A7
:1023B00008BD000040380240000400400168CA68BF
:1023C00042F00102CA600068816801F00701062935
:1023D00003D0016841F0010101600020704770B531
:1023E000044690F83C00012817D0012584F83C50A1
:1023F000022084F83D002068826822F0770222F4EF
:102400007F4282600868502830D00DDC20284DD0F3
:1024100005DC98B310283BD148E0022070BD30287D
:1024200044D0402834D139E0602828D0702806D024
:10243000B0F5805F2CD0B0F5005F29D10AE0CB6801
:10244000D1E90121206801F0C5FD2068816841F0D3
:10245000770109E0CB68D1E90121206801F0BAFDDC
:102460002068816841F48041816011E0CA68496850
:10247000206801F0C1FD5021206807E016E0CA681D
:102480004968206801F0C9FD6021206801F0ACFDB9
:1024900084F83D50002084F83C0070BDCA6849684B
:1024A000206801F0A9FD40212068EFE7226801467D
:1024B0001046EBE7704770B50446006801694FF0BD
:1024C0000005C943890715D4C168C943890711D4D8
:1024D000E91E01610120207720688069800720467D
:1024E00002D0FFF7E7FF04E000F098F8204600F084
:1024F00096F8257720680169C943490717D4C16850
:10250000C943490713D46FF0040101610220207709
:102510002068806910F4407F204602D0FFF7CAFF90
:1025200004E000F07BF8204600F079F82577206879
:102530000169C943090716D4C168C943090712D400
:102540006FF008010161042020772068C0698007CE
:10255000204602D0FFF7AEFF04E000F05FF820460F
:1025600000F05DF8257720680169C943C90617D4D2
:10257000C168C943C90613D46FF010010161082076
:1025800020772068C06910F4407F204602D0FFF712
:1025900091FF04E000F042F8204600F040F8257773
:1025A00020680169C943C90708D1C168C943C9077F
:1025B00004D1891E0161204600F032F820680169CB
:1025C000C943090609D4C168C943090605D46FF097
:1025D000800101612046FFF75BFE20680169C94365
:1025E000490609D4C168C943490605D46FF04001C2
:1025F0000161204600F01EF820680169C943890680
:102600000BD4C168C943890607D46FF0200101616A
:102610002046BDE87040FFF73CBE70BD7047704774
:1026200000680349884201D1FFF7CCBA7047000027
:10263000000001407047704770B50268044610689A
:10264000D168536910F00F0F53D003F0010501F466
:1026500090762E435FD0C20705D0CA0503D5E26B42
:1026600042F00102E263420705D5DA0703D0E26BCC
:1026700042F00202E263820705D5DA0703D0E26B7B
:1026800042F00402E263020707D501F020022A4368
:1026900003D0E26B42F00802E263E26B002A34D01E
:1026A000800604D5880602D5204601F02FFD20685B
:1026B0004069E16BC0F3801001F00801014320463E
:1026C00024D001F00CFD2068416949061AD5416902
:1026D00021F040014161606BA0B11B490165606B55
:1026E000FFF701F8002810D0606B016DBDE8704065
:1026F000084783060FD58B060DD52046BDE87040F0
:1027000001F004BD2046FFF796FF70BDFFF793FF71
:102710000020E06370BD030606D50B0604D52046F5
:10272000BDE8704001F0BABD4006F3D54806F1D5CA
:10273000D168204621F04001D160202184F8391071
:1027400000F024FA70BD00003F40000870B504009E
:1027500004D094F83900002510B106E0012070BDC6
:1027600084F83850204600F023F8242084F83900FB
:102770002068C16821F40051C160204601F012FDBB
:102780002068016921F4904101612068416921F0CC
:102790002A0141612068C16841F40051C160E563CC
:1027A000202084F8390084F83A00002070BD000031
:1027B0002DE9F04F87B0044614216846FDF7AAFDC5
:1027C000C048DFF8FC8214380221D4F800C0DFF8DA
:1027D000F4A203220723DFF8F0E28F060025061596
:1027E000C44542D1DAF8008048F01008CAF80080E9
:1027F000DAF800C00CF0100CCDF814C0D0F800C00E
:102800004CF0010CC0F800C0006800F00100059019
:1028100050028DE8230069467046CDE90323FFF797
:10282000E7F8DFF8AC82A9494046C8F80010C0E9D3
:102830000175C0E90356C8F81450C8F81850C8F814
:102840001C50C8F82050C8F82450FFF72FF808B1E2
:10285000FEF725FBC4F83480002205212520C8F8A6
:102860003840FFF735FA25206BE0DFF86882DFF8A3
:1028700054B24FF04009ABF1040BC44566D1DBF80C
:10288000008048F40038CBF80080DBF800C00CF47E
:10289000003CCDF814C0D0F800C04CF0010CC0F8DA
:1028A00000C0006800F0010005900C208DE82300B6
:1028B00069467046CDE90323FFF79AF8DFF81082E6
:1028C000854908F160084046C8F80010C0E9017564
:1028D000C0E90356C8F81450C8F81850C8F81C507E
:1028E000C8F82050C8F82450FEF7E0FF08B1FEF702
:1028F000D6FAC4F83480C8F83840DFF8D481764975
:1029000008F1C00840461831C0E90356C8F8145011
:10291000C8F81850C8F81C50C8F8205088E882023F
:10292000C8F82450FEF7C2FF08B1FEF7B8FAC4F8A1
:102930003080002205212620C8F83840FFF7C8F96A
:102940002620FFF7B7F907B0BDE8F08FDFF88C81DC
:10295000DFF88CE1C4455FD1DBF80080AA4648F47B
:102960008028CBF80080DBF800C00CF4802CCDF878
:1029700014C0D0F800C04CF0040CC0F800C00068CF
:1029800000F0040005904FF440608DE82300694694
:102990007046CDE90323FFF72BF84F49DFF8448158
:1029A00060394046C8F80010C0E90175C0E9035617
:1029B000C8F81450C8F81850C8F81C50C8F820506F
:1029C000C8F82450FEF772FF08B1FEF768FA454DCB
:1029D0004148C4F8348060353038C8F8384085E85C
:1029E0008102C5E903A6C5F814A0C5F818A0C5F86A
:1029F0001CA0C5F820A02846C5F824A0FEF756FF65
:102A000008B1FEF74CFA2563002205212720AC63AC
:102A1000FFF75EF9272094E7334B9C4593D1DAF812
:102A2000007047F02007CAF80070DAF8003003F0B1
:102A300020030593036843F004030360006800F07B
:102A400004000590C0208DE823000820CDE9032074
:102A500069467046FEF7CCFF224F1C48C037183835
:102A600038604FF02068C7E90185C7E903567D61EA
:102A7000BD61FD613D6238467D62FEF717FF08B11A
:102A8000FEF70DFA6763BC63184F1048C7E9035699
:102A90007D61BD61FD613D6260307D6287E801035B
:102AA0003846FEF703FF08B1FEF7F9F92763002265
:102AB00005214720BC63FFF70BF9472041E70000E1
:102AC00000100140443802400000024040640240CF
:102AD000E0050020004400408860024000480040BB
:102AE00000080240000700200014014020080020D8
:102AF00037B5044690F83A0082B0134620283AD100
:102B0000039AAAB3A3B394F83800012833D0012064
:102B100084F83800A262A3850025E563222084F8AA
:102B20003A00616B1548C863616B15480864616BB6
:102B30001448C864606B05652168606B091DFEF769
:102B40001FFF206801684168009184F83850C1680F
:102B500041F48071C1602068416941F00101416127
:102B60002068416941F040014161002005B030BD5D
:102B7000FFE70120FAE70220F8E70000994000088B
:102B8000D54000084F400008704770477047FEE787
:102B90000F4C03200F4DC4F83C02D4F88800416864
:102BA000082903D1006808B9606850B1084800F0EE
:102BB0000FFFD4F88800FDF7FBFE012002F004FAB5
:102BC000EBE7A86802F096FD686902F007FEF4E7FB
:102BD000900900200800002070B51C4A0346D0F878
:102BE0006012506800F54870814203D3516010783C
:102BF000401E107092F90000441C0DD0144C70B1AE
:102C000001258540D3F83C3250682B4200F5167000
:102C10000ED0814203D204E00820107070BD002263
:102C200009E0002202212046FEF7C1FF012207E051
:102C30008142F4D2012202212046FEF7B8FF002291
:102C40002046BDE870400121FEF7B1BF040100201D
:102C5000000802400F4810B50D4901600321416092
:102C600000214FF4C0228160C0E903124FF4A0029A
:102C70004261017641768176C17601774177FEF730
:102C8000F0FB002803D0BDE81040FEF708B910BDE6
:102C900000640040BC0100200F4810B50D490160E0
:102CA0000321416000214FF4C0228160C0E903127A
:102CB0004FF4A0024261017641768176C1760177B8
:102CC0004177FEF7CEFB002803D0BDE81040FEF7A9
:102CD000E6B810BD00680040E4010020254808B5B2
:102CE000016841F400110160016801F400110091D4
:102CF000016841F4800101600068002200F4800056
:102D0000009005210C20FEF7E3FF0C20FEF7D2FF18
:102D1000002205210E20FEF7DBFF0E20FEF7CAFF82
:102D2000002205211020FEF7D3FF1020FEF7C2FF7E
:102D3000002205211120FEF7CBFF1120FEF7BAFF7C
:102D4000002205213920FEF7C3FF3920FEF7B2FF2C
:102D5000002205213A20FEF7BBFF3A20FEF7AAFF2A
:102D6000002205214520FEF7B3FFBDE808404520BD
:102D7000FEF7A0BF3038024010B5A4B01C221F4996
:102D80006846FDF7AEFA0021684602F029F91C4CAE
:102D90001A491C2260601C3107A8FDF7A2FA002125
:102DA00007A802F01DF91549A0601C2238310EA8B1
:102DB000FDF797FA00210EA802F012F90F49E06022
:102DC0001C22543115A8FDF78CFA002115A802F039
:102DD00007F90A4920611C2270311CA8FDF781FA0D
:102DE00000211CA802F0FCF86061A06802F0F6FC6B
:102DF000206902F0F3FC24B010BD0000385C00082C
:102E000008000020F0B587B014216846FDF782FA6B
:102E100030480024016841F080010160016801F040
:102E200080010591016841F004010160016801F031
:102E300004010591016841F001010160016801F0A0
:102E400001010591016841F0020101600068224F13
:102E500000F002000590012203213846FEF7A7FE8C
:102E6000BE14002231463846FEF7A1FE0320009032
:102E70000125CDE90154694638460394FEF7B8FDB3
:102E800018208DE8310069463846FEF7B1FD8020F4
:102E9000CDE90004694611480294FEF7A9FDE80255
:102EA000CDE9000469460E480294FEF7A1FD6802D0
:102EB000CDE90004694638460294FEF799FD0220E8
:102EC000CDE90204CDE9006569463846FEF790FD7C
:102ED00007B0F0BD30380240000802400000024058
:102EE0000004024010B586B00024174800940194F5
:102EF0000294039404944FF080410594016053219F
:102F0000C0E9011440F2F311C0E90314802181618A
:102F1000FFF708FA08B1FDF7C2FF4FF480500090A8
:102F200069460948FFF75BFA08B1FDF7B8FF04945A
:102F300004A905480594FFF7ADF9002801D0FDF775
:102F4000AEFF06B010BD00006004002010B586B0D2
:102F500000241748009401940294039404941349A4
:102F6000059401605321C0E9011440F2E731C0E942
:102F7000031480218161FFF7D5F908B1FDF78FFFB8
:102F80004FF48050009069460948FFF728FA08B1CD
:102F9000FDF785FF049404A905480594FFF77AF925
:102FA000002801D0FDF77BFF06B010BD00040040F3
:102FB000A00400200C4810B50A4901604FF4E1312B
:102FC0004160002181600422C160C0E90412816176
:102FD000C161FFF7BBFB002803D0BDE81040FDF73F
:102FE0005EBF10BD00100140E00400200C4810B589
:102FF0000A4901604FF4E1314160002181600C22F7
:10300000C160C0E904128161C161FFF79FFB002824
:1030100003D0BDE81040FDF742BF10BD00440040A2
:10302000200500200D4810B50B4901604FF4E13137
:10303000416000214FF480628160C0E903120C22DC
:10304000C0E90521C161FFF781FB002803D0BDE87D
:103050001040FDF724BF10BD00480040600500206F
:103060000D4810B50B4901604FF4E131416000217A
:103070004FF480628160C0E903120C22C0E905218F
:10308000C161FFF763FB002803D0BDE81040FDF7E6
:1030900006BF10BD00140140A0050020FEE700009F
:1030A00070B504462DED088BB0EE408AF0EE608AD4
:1030B000D0F8885080682035002801DBA06802E045
:1030C00000F5D810A0606FF4D8216E4A01449FED3E
:1030D0006E9B914227D2A0F5D820FDF7AEFA53ECB3
:1030E000182BFDF7CFFA09D2606800F5D820FDF75C
:1030F000A4FA53EC182BFDF7D9FA7DD3A068FDF79D
:103100009CFA53EC182BFDF7D1FA24D26EE0FDF7B0
:10311000E1FAA06795ED000AB1EE400A85ED000ADC
:10312000BDEC088B70BD9FED5ABBB0F5D82F4ADAC5
:1031300000F5D820FDF781FA53EC182BFDF7A2FA21
:103140001ED2A06800F5A210FDF777FA53EC182BF9
:10315000FDF7ACFA14D26068FDF76FFA41EC1A0B78
:10316000A068FDF76AFA53EC182BFDF782F953ECCF
:103170001A2BFDF7DAF853EC192BFDF777F9C6E7B0
:10318000A06800F5D820FDF758FA53EC182BFDF78E
:103190008DFA4CD36068FDF750FA41EC1A0BA06829
:1031A000FDF74BFA41EC190B53EC1B2B51EC180BB0
:1031B000FDF75CF95CE051EC100BFDF7B6F8FDF79C
:1031C00089FAA067ACE7A0F5D820FDF736FA53ECF2
:1031D000182BFDF76BFA20D2A068A0F5A210FDF71E
:1031E0002CFA53EC182BFDF74DFA16D26068FDF758
:1031F00024FA41EC1A0B00E019E0A068FDF71DFA73
:1032000053EC182BFDF735F953EC1A2BFDF78DF81D
:1032100053EC192BFDF789F879E7A068A0F5D820C1
:10322000FDF70BFA53EC182BFDF72CFA10D260685F
:10323000FDF703FA41EC190BA068FDF7FEF953EC1A
:10324000182BFDF716F941EC100B53EC192BB2E7D4
:103250006068FDF7F2F941EC1A0BA068FDF7EDF993
:1032600041EC190B53EC1B2B51EC180BFDF75DF8DF
:1032700053EC192BFDF7FAF841EC100B53EC1A2B19
:1032800099E70000FF7F0D000000000000002B41C7
:103290000000000000003B4100F87C1F02498160F3
:1032A00000218180817070472000002010B5A1F5B9
:1032B0000071013912D0012912D0022913D003293B
:1032C00014D10B4C002C11D00146204600F0D4FB49
:1032D00004F17E00BDE81040FDF7E2BD054CF1E7CA
:1032E000044C8C34EEE7024C8C3CEBE710BD000044
:1032F000340B00209009002005490520C1F83C024C
:1033000000F008F8FDF720FD012001F05DFEF7E771
:103310009009002070B5574C2DED0A8B94ED8C0A66
:1033200060EE000A94ED8D0A40EE000A10EE900A5D
:10333000FDF794F941EC100B01F0E2FC9FED4E1B00
:1033400051EC100B53EC112BFDF796F84C4DC5E9E1
:10335000020194ED8E1A9FED4B0B9FED4C8B9FED70
:103360004DAB9FED4EBBB5EEC01AF1EE10FA16DB79
:1033700001F0B6F853EC182B51EC100BFDF77CF86C
:1033800053EC182BFDF778F841EC180BD4F8380201
:10339000FDF764F941EC100B53EC182B2FE0B0EE65
:1033A00040CAF0EE60CA01F09BF853EC182B51ECC8
:1033B000100BFDF761F853EC182BFDF75DF841ECAD
:1033C000190BB0EE4C0AF0EE6C0A01F089F853ECE0
:1033D000182B51EC100BFDF74FF853EC182BFDF7A1
:1033E0004BF841EC180BD4F83802FDF737F953ECE1
:1033F000182BFCF79AFF53EC192B41EC100B51ECF6
:10340000100BFDF7ABF853EC1A2BFDF735F853EC26
:103410001B2BFDF731F8C5E9000195ED020B51ECCE
:10342000100BFDF757F9D4F888100862D4F814117E
:103430000862D4F8A0110862D4F82C12086295ED45
:10344000000B0C48FFF72CFE0A4895ED000B8C3062
:10345000FFF726FE95ED000B1248FFF721FE95EDD4
:10346000000B1048BDEC0A8B8C30BDE87040FFF7B4
:1034700017BE00009009002000000000000024405A
:1034800020010020000000000000000000000000FB
:1034900000000040000000000000C04000000000EC
:1034A00000006B40A80A002070470000254B10B5B3
:1034B000C0F345125C6900F01F00944201D11C4624
:1034C00011E09B6C934201D11E4C0BE01D4B683305
:1034D0005C69944201D11C4605E09B6C934230D15B
:1034E000184C68343434012806D0032809D0042845
:1034F0000AD009281BD10AE008682060486860608B
:1035000015E00868E06012E0086820610FE00879C3
:103510004A7940EA02208A79C97940EA024040EAC1
:10352000016000EE100AB8EE400A84ED070A206838
:1035300008B1FDF7B4FC04F12C00BDE81040FDF724
:10354000AFBC10BDC008002010B504003AD0608D9B
:1035500001F01F021043608509291AD006DC0329F7
:103560000BD004290DD0072922D10EE00A2914D04E
:103570000D2916D016291BD117E02046FDF7B6FC01
:1035800016E02046FDF79CFC12E0204600F03EFBD2
:103590000EE02046FDF7A0FC0AE02046FDF784FC83
:1035A00006E0204600F050FB02E0204600F092FAD0
:1035B000216B012081F82000A08A4FF6FF7101EAFB
:1035C0004010608510BD0000C0ED051A80ED0B3A7B
:1035D00080ED062AC0ED082A80EC030A9FED060A5A
:1035E00080ED030A80ED040A80ED070A80ED090AE8
:1035F00080ED0A0A704700000000000010B590ED51
:10360000010AD0ED1E0AB8EEC00A70EEC00AC0ED85
:10361000090A90ED0B0AF4EEC00AF1EE10FA01DD92
:1036200080ED090AD0ED090AB1EE400AF4EEC00AB5
:10363000F1EE10FA02D3B0EE600A01E080ED090A63
:10364000DFED8A1AB5EEC00AF1EE10FA08DDD0ED12
:103650000C0AB4EEE00AF1EE10FA01D2C0ED091A3C
:1036600090ED090AB5EEC00AF1EE10FA08D2D0EDDD
:103670000C0AB4EEE00AF1EE10FA01DDC0ED091A11
:10368000D0ED0D0A90ED090A30EE801A80ED0D1A8A
:10369000D0ED0E0AB4EEE01AF1EE10FA01DDC0ED45
:1036A0000D0A90ED0D1AF1EE600AB4EEE01AF1EE9B
:1036B00010FA01D2C0ED0D0AD0ED0A0A30EE601A00
:1036C00080ED0F1A80ED0A0AD0ED060A90ED0D2A62
:1036D00060EE800A90ED070A40EE020A90ED080ABB
:1036E00040EE010AC0ED100A90ED110AF4EEC00A96
:1036F000F1EE10FA01DD80ED100AD0ED100AB1EE06
:10370000400AF4EEC00AF1EE10FA01D280ED100A80
:10371000B0F90010D0ED100A00EE101AB8EEC00A91
:1037200070EEC00AC0ED150A90ED170AF4EEC00A5B
:10373000F1EE10FA01DD80ED150AD0ED150AB1EEBB
:10374000400AF4EEC00AF1EE10FA02D3B0EE600ABD
:1037500001E080ED150AB5EEC00AF1EE10FA08DDC1
:10376000D0ED180AB4EEE00AF1EE10FA01D2C0ED85
:10377000151A90ED150AB5EEC00AF1EE10FA08D24E
:10378000D0ED180AB4EEE00AF1EE10FA01DDC0ED5A
:10379000151AD0ED190A90ED150A30EE801A80ED59
:1037A000191AD0ED1A0AB4EEE01AF1EE10FA01DDA2
:1037B000C0ED190A90ED191AF1EE600AB4EEE01AA4
:1037C000F1EE10FA01D2C0ED190AD0ED160A30EE72
:1037D000601A80ED1B1A80ED160AD0ED120AD0EDAA
:1037E000191A60EE800A90ED130A40EE210A90ED5E
:1037F000140A40EE010AC0ED1C0A90ED1D0AF4EE19
:10380000C00AF1EE10FA01DD80ED1C0AD0ED1C0AB1
:10381000B1EE400AF4EEC00AF1EE10FA02D3B0EEB7
:10382000600A01E080ED1C0ABDEEC00A90F87C3011
:10383000182410EE101AD0F8842004EB4303091268
:10384000D15490ED1C0A90F87C301924BDEEC00ACA
:10385000D0F8842004EB430310EE101AD154D0F8B2
:103860008400012180F8201010BD0000000000003D
:1038700010B5B0F90020891A00EE101AF8EE400ACF
:10388000C0ED150A90ED170AF4EEC00AF1EE10FA39
:1038900001DD80ED150AD0ED150AB1EE400AF4EE17
:1038A000C00AF1EE10FA02D3B0EE600A01E080ED3A
:1038B000150ADFED460AB5EEC00AF1EE10FA08DD92
:1038C00090ED181AB4EEC10AF1EE10FA01D2C0ED73
:1038D000150A90ED150AB5EEC00AF1EE10FA08D2FD
:1038E00090ED181AB4EEC10AF1EE10FA01DDC0ED48
:1038F000150AD0ED190A90ED150A30EE801A80ED08
:10390000191AD0ED1A0AB4EEE01AF1EE10FA01DD40
:10391000C0ED190A90ED191AF1EE600AB4EEE01A42
:10392000F1EE10FA01D2C0ED190AD0ED160A30EE10
:10393000601A80ED1B1A80ED160AD0ED120AD0ED48
:10394000191A60EE800A90ED130A40EE210A90EDFC
:10395000140A40EE010AC0ED1C0A90ED1D0AF4EEB7
:10396000C00AF1EE10FA01DD80ED1C0AD0ED1C0A50
:10397000B1EE400AF4EEC00AF1EE10FA02D3B0EE56
:10398000600A01E080ED1C0ABDEEC00A90F87C30B0
:10399000182410EE101AD0F8842004EB4303091207
:1039A000D15490ED1C0A90F87C301924BDEEC00A69
:1039B000D0F8842004EB430310EE101AD154D0F851
:1039C0008400012180F8201010BD000000000000DC
:1039D00070B5054690F87C0023494418207858B10A
:1039E000642838D22148224E85420FD180213046AA
:1039F000FEF7D8F838B109E04FF496712846FFF782
:103A000037FF012025E02078401C207017488C30BB
:103A1000854207D180213046FEF7C4F810B92078DE
:103A2000401C20701348854207D180213046FEF7A4
:103A3000B9F810B92078401C20700E488C308542AF
:103A400008D180213046FEF7ADF8002802D1207859
:103A5000401C207070BDFDD10020014668602846E2
:103A6000BDE87040FFF704BF390100209009002035
:103A700000000240A80A002010B50A8853BA43800B
:103A80004A8852BA12B202808C8864BA4482897918
:103A900001748AB1818A4268591A09B20A444260A3
:103AA00011F5805F02DA02F5005204E0B1F5805FA3
:103AB00002DDA2F500524260838242684FF4D811C1
:103AC00092FBF1F16FF01A03C160594302EB01411F
:103AD000816010BD08B500210091418D006B00236D
:103AE000014A00F08BF808BD3001002070B50028B5
:103AF0002DED048B76D00188C1F30A023B498A8000
:103B000042788378D20842EA4312C2F30A02CA809A
:103B10008278C378920942EA8302037942EA8322D7
:103B2000C2F30A020A80037944795B0843EAC413AA
:103B3000C3F30A034B801C4643799B090B724379FC
:103B4000C3F301134B72C3884B8103898B81438973
:103B5000CB81037B0B74437B4B74837B8B74C07B67
:103B6000C874A2F58060FCF768FD9FED218B53ECD3
:103B7000182BFCF7F3FCFCF7ADFD1F4D09EE100A06
:103B8000A4F5806085ED8C9AFCF757FD53EC182B5B
:103B9000FCF7E4FCFCF79EFD00EE100AB5EEC09ABF
:103BA00085ED8D0AF1EE10FA04D1B5EEC00AF1EE02
:103BB00010FA17D010EE100AFCF750FD41EC180B6C
:103BC00019EE100AFCF74AFD41EC100BB0EE481A52
:103BD000F0EE681A00F09CFF51EC100BFCF77AFD38
:103BE000C5F83802BDEC048B70BD00000C0100204C
:103BF0000000000000A0844090090020009AC260EC
:103C000000228260016002750361704708B50246B8
:103C1000007A116B0876116B507A4876116B508DD3
:103C20000860116B012081F82000106BFDF76EF821
:103C300000200090518D106B0423024AFFF7DEFF35
:103C400008BD0000310100200168002915D1026B78
:103C5000016A1176036B0A0A5A76036B0A0C090E85
:103C60009A76026BD176026B418D1160026B012155
:103C700082F82010006BFDF749B870471B4C1C4DB3
:103C8000D5F83C02C10708D02178B9B1012828D065
:103C900003281FD0052824D121E0207850B1E06806
:103CA00001F09CFDA06801F099FD606901F096FDAE
:103CB000002020700E48FEF78FFF12E0E06801F050
:103CC00019FDA06801F016FD606901F013FD0120E7
:103CD000207006E0D5F86002FDF722F901E0FDF75B
:103CE0000FF9012001F070F9CAE700000800002078
:103CF0009009002010B5502080F31188BFF34F8F3A
:103D0000BFF36F8F01F0D2FE18B104494FF080501D
:103D10000860002080F3118810BD000004ED00E071
:103D200030B593B030216846FCF7F4FA14210CA8A2
:103D3000FCF7F0FA19480025016841F08051016054
:103D4000006800F0805011901548016841F48041EE
:103D500001600068022400F480401190012000906E
:103D6000000401908001CDE9064008AA0420A821A2
:103D700082E813000B906846FEF7E6F80CA90F20C6
:103D800081E831004FF4A0500F90E002109005211F
:103D90000CA8FDF7CFFF13B030BD00004038024043
:103DA000007000400548016841F47001016003495A
:103DB0004FF00060803908607047000088ED00E037
:103DC000017070470148FEF776BB000080080020B4
:103DD0000148FEF770BB0000600400202DE9F047A9
:103DE0004648FEF768FB464CDFF818811021D4F8EE
:103DF0006002401CC4F860024046FDF7D3FE012774
:103E0000414D00264FF4805910B12E706E602FE0A6
:103E1000686810B9D4F860026860D4F86002696814
:103E2000401AC82829D92878D0B954F8880F162103
:103E3000FFF78AFB2F70206803212C30FFF7C0FFAB
:103E4000D4F88C0003212C30FFF7BAFF0021206842
:103E5000FCF7F0FDD4F88C000121883CFCF7EAFD6A
:103E6000D4F860026968401AE62801D2012200E015
:103E7000002249464046FDF79AFE08214046FDF7DC
:103E800091FE18B16E70AE60BDE8F087A86810B9F9
:103E9000D4F86002A860D4F86002A968401AC82863
:103EA000F2D96878D8B91621D4F8A001FFF74CFBF5
:103EB0006F70D4F8A00103212C30FFF781FFD4F8F4
:103EC0002C0203212C30FFF77BFF0221D4F8A00144
:103ED000FCF7B0FD0321D4F82C02FCF7ABFDD4F8BD
:103EE0006002A968401AE62801D2012200E00022FF
:103EF00049464046BDE8F047FDF759BEA004002002
:103F00009009002000080240F8000020F0B5026887
:103F1000254D264E264FDFF89CC0274B4FF0804E94
:103F2000A84209D0704507D0B04205D0B84203D0AE
:103F3000604501D0984203D122F070044A682243C0
:103F4000A8421BD0704519D0B04217D0B84215D046
:103F5000604513D0984211D0184CA0420ED0184C96
:103F6000A0420BD0174CA04208D0174CA04205D05D
:103F7000164CA04202D0164CA04203D122F4407449
:103F8000CA6822434C6922F08002224302608A6898
:103F9000C2620A688262A84201D0984201D10969CE
:103FA000016301214161F0BD0000014000040040B7
:103FB00000080040000C00400004014000400140A7
:103FC000004401400048014000180040001C00402F
:103FD0000020004010B5846842EA032224F47F44A4
:103FE0000A432243826010BD826822F070020A43B5
:103FF00042F007018160704710B5046A036A23F03C
:1040000001030362836923F0F00343EA021324F0FF
:104010000A020A438361026210BD10B5036A23F0ED
:10402000100303628469036A24F4704444EA023290
:1040300023F0A00343EA01118261016210BD10B5B3
:10404000806B0021C185C184FEF7F5FA10BD70B503
:10405000846B2068406994F83910C0F3C0100025C3
:10406000212904D118B1E584204600F046F82068E3
:10407000406994F83A10C0F38010222904D118B195
:10408000E585204600F02BF8E06B40F01000E0637F
:104090002046FEF7D0FA70BD10B50146806B096866
:1040A0000968C90513D40021C1850168CA6822F4D2
:1040B0008072CA6001684A6922F001024A6101689F
:1040C0004A6922F040024A61202180F83A10FEF746
:1040D0005BFD10BD10B5806BFEF757FD10BD01688C
:1040E000CA6822F49072CA6001684A6922F001022B
:1040F0004A61202180F83A1070470168CA6822F0AE
:10410000C002CA60202180F83910704710B590F8BD
:104110003A10222901D0022010BD8168B1F5805FDC
:1041200011D00169002901681FD0496801F07F039F
:10413000816A4A1C82620B70C18D491E0904090CF8
:10414000C18518D02BE00269816A002A0268526892
:1041500005D0D2B20A80816A491C8162ECE7C2F3C1
:1041600008020A80816A891CF7E74A68816A4B1C49
:1041700083620A70E0E70168CA6822F02002CA6020
:104180000168CA6822F48072CA6001684A6922F034
:1041900001024A61202180F83A10FEF7F5FC002068
:1041A00010BD00002DE9F041044600680169E26895
:1041B00021F4405111430161A1682069E269014382
:1041C0006069104301432068C26849F20C639A4356
:1041D0000A43C26020684169A26921F44071114319
:1041E0004161E069192664253227B0F5004F294A5C
:1041F000294920684FF0000806D0884201D090423B
:104200002AD1FDF761FE29E0884201D0904202D117
:10421000FDF75AFE01E0FDF747FE61684A18A0FB72
:10422000060148EB0803FCF72BF8B0FBF5F10B0196
:104230006FF01802514300EB810007EBC000B0FBA8
:10424000F5F000F0F80103EB410100F0070008442D
:1042500021688860BDE8F081FDF726FE01466068B0
:10426000830F8200A1FB0601FCF70AF80146B0FBB0
:10427000F5F06FF01802424301EB820107EB0111E8
:10428000B1FBF5F101F0F00202EB001001F00F01BB
:104290000844DDE7001401400010014090F8391097
:1042A000212901D0022070478168B1F5805F016A41
:1042B0000BD04A1C0262026809785160C18C491E09
:1042C0000904090CC1840ED017E009880268C1F303
:1042D0000801516001690029016A02D0491C01628C
:1042E000ECE7891CFBE70168CA6822F08002CA601B
:1042F0000068C16841F04001C160002070470000C3
:1043000010B50548FEF798F9BDE81040034B044A84
:104310000449014800F032B8E0040020ED3A0008FA
:10432000340C0020E005002010B50548FEF784F9A4
:10433000BDE810400023034A0349014800F01EB8BD
:1043400020050020280C0020400600200148FEF730
:1043500073B900006005002010B50548FEF76CF940
:10436000BDE810400023034A0349014800F006B8A5
:10437000A0050020400C002020080020F8B51446BD
:1043800002681D461268D243D2062BD40A6813680D
:1043900023F001031360026800231668526800923C
:1043A000096862894968511ACEB2217A51B12372E3
:1043B0002168FEF79DFB6089B04213D1002D11D01A
:1043C00060680AE0012121726168FEF791FB608953
:1043D000B04207D1002D05D0206801B0AC46BDE841
:1043E000F0406047F8BDFEE770B50A2000F0B6FD6A
:1043F000224C20600A2000F0B1FD60602048006877
:10440000C16841F01001C16000250A202572608159
:1044100002461B482168FEF76BFB142000F09EFD4E
:10442000183C2060142000F099FD60601548006879
:10443000C16841F01001C1601420257260810246FC
:1044400010482168FEF754FB122000F087FD0C3461
:104450002060122000F082FD60600B480068C16897
:1044600041F01001C1601220257260812168BDE811
:10447000704002460448FEF73BBB0000400C0020A1
:10448000A005002020050020E004002003B40198CE
:104490004100009850EAC12018BF04204A0D18BFFF
:1044A00040F0010040F2FF72B2EB515F08BF40F0F4
:1044B0000200012808BF052002B070470907090E55
:1044C000002804DB00F1E02080F80014704700F0C1
:1044D0000F0000F1E02080F8141D7047000000007C
:1044E00010B5B94A2DED020B2DED0C8B82B00F9952
:1044F00021F000409FEDB6CB904232DBA0F140535B
:104500000E9AA3F17F631A439FEDB38B14D0B44985
:10451000884202DC1BD10E98C8B19DED0E0B53EC06
:10452000102B51EC100BFBF700FF41EC100B02B00D
:10453000BDEC0C8B02B010BD0029C7BFB0EE480A1D
:10454000F0EE680AB0EE4C0AF0EE6C0AEFE70120DC
:1045500000F0B2FC53EC182B51EC180BFBF7FEFFEC
:104560005EE0A04A9FEDA09B9FEDA1AB90425ADA7E
:10457000A1499FEDA3BB8142A4BFB0EE4B0AF0EE70
:104580006B0AD4DA9DED0E0B53EC102B51EC100B93
:10459000FBF772FF41EC180B9B480621B0EE480A6E
:1045A000F0EE680A784400F0E8FB53EC182B51EC6D
:1045B000100BFBF761FF41EC1C0B9448B0EE480A6E
:1045C000F0EE680A0421784400F0D7FB53EC182B76
:1045D00051EC100BFBF750FF53EC192BFBF7A5FE2A
:1045E00041EC100B51EC1C0B53EC102BFBF7B6FFFE
:1045F00041EC100B53EC102B9DED0E0B51EC100BFE
:10460000FBF73AFF53EC1A2BFBF733FF9DED0E1B24
:1046100053EC112BFBF72DFF53EC1B2BFBF729FF62
:1046200041EC100B83E79FED7A8B9FED7BBB9DEDFB
:104630000E0B002953EC192B51EC100B52DAFBF73F
:1046400074FE53EC182BFBF717FF41EC180B744862
:104650000621B0EE480AF0EE680A784400F08DFBBF
:1046600053EC182B51EC100BFBF706FF41EC1D0B24
:104670006C48B0EE480AF0EE680A0421784400F075
:104680007CFB53EC182B51EC100BFBF7F5FE53ECB5
:10469000192BFBF74AFE41EC190B51EC180B00F0FB
:1046A00009FF41EC180B53EC192B51EC1D0BFBF7D8
:1046B00055FF53EC182BFBF7DFFE53EC1A2BFBF7DF
:1046C000D5FE41EC100B51EC180B53EC102BFBF703
:1046D0002CFE53EC1B2BFBF7CFFE53EC1C2BFBF7F4
:1046E000C8FE9DE7FBF7C5FE53EC182BFBF7C4FE95
:1046F00041EC180B00F0DEFE41EC1A0B00208DEDB2
:1047000000AB00909DED000B51EC1A0B53EC102BFD
:10471000FBF70BFE9DED000B41EC1C0B53EC102B3B
:1047200051EC100BFBF7A8FE53EC182BFBF7A1FE86
:1047300053EC1C2BFBF712FF41EC1C0B3A48B0EE7C
:10474000480AF0EE680A0621784400F016FB53ECA4
:10475000182B51EC100BFBF78FFE41EC1D0B33486F
:10476000B0EE480AF0EE680A0421784400F005FB38
:1047700053EC182B51EC100BFBF77EFE53EC192B6E
:10478000FBF7D3FD41EC100B51EC1D0B53EC102B40
:10479000FBF7E4FE53EC1A2BFBF76EFE53EC1C2BDD
:1047A000FBF7C3FD41EC100B53EC102B9DED000B00
:1047B00051EC100BFBF7B9FD53EC1B2BFBF75CFE28
:1047C0002EE70000000000000000F03F00000000A5
:1047D000182D4454FB210940000000000000000097
:1047E0000000F07F0000E03F000000000000F03F0C
:1047F000075C143326A6913C0000603C00000000DA
:10480000182D4454FB21F93F401700004E170000BB
:10481000000000000000E03F000000000000004039
:104820008A160000981600009C150000AA150000CA
:1048300070B59D482DED020B2DED068B079D25F0E3
:104840000044A0421DDC9948844202DC0FD1069846
:1048500068B19DED060B53EC102B51EC100BFBF7E0
:1048600064FDBDEC068B02B041EC100B70BD002D59
:10487000CCBF9FED8F0B9FED900BBDEC068B02B074
:1048800070BD8F48A04215DD8E48A042D8BF4FF0C2
:10489000FF3458DD9DED060B51EC100BFFF7F6FDD4
:1048A000042808BF00F0E8FA9DED060BBDEC068B6E
:1048B00002B070BD9DED060B51EC100B00F00AFB31
:1048C000CDE9060180489FED828BA0423CDD824805
:1048D000A0421FDD00249FED82AB9DED060B53EC43
:1048E0001A2B51EC100BFBF720FD9DED060B41EC54
:1048F000190B53EC1A2B51EC100BFBF7BDFD53ECCD
:10490000182BFBF7B3FD53EC192BFBF727FECDE972
:10491000060149E09DED060B012453EC182B51ECE8
:10492000100BFBF702FD9DED060B41EC190B53EC50
:10493000182B51EC100BFBF799FD53EC192BFBF7DF
:104940000DFECDE906012FE06748A0421FDD0224DD
:104950009FED679B9DED060B53EC192B51EC100B53
:10496000FBF78AFD53EC182BFBF7DFFC9DED060BE4
:1049700041EC180B53EC192B51EC100BFBF776FDA7
:1049800053EC182BFBF7EAFDCDE906010CE09DED99
:10499000060B032453EC102B9FED570B51EC100B1F
:1049A000FBF7DCFDCDE906019DED060B53EC102B6A
:1049B00051EC100BFBF760FD41EC180B53EC182B7E
:1049C000FBF75AFD41EC190B4D480621B0EE490AA0
:1049D000F0EE690A784400F0D0F953EC182B51EC52
:1049E000100BFBF749FD41EC180B4648B0EE490AA5
:1049F000F0EE690A0521784400F0BFF953EC192B59
:104A000051EC100BFBF738FD41EC100B51EC180B7F
:104A100053EC102B002C0EDAFBF787FC9DED061BE8
:104A200053EC112BFBF728FD9DED061B53EC112BCE
:104A3000FBF71FFD35E0FBF778FC9DED061B53EC03
:104A4000112BFBF719FD41EC100B2F48784400EBBC
:104A5000C40090ED001B51EC100B53EC112BFBF735
:104A600005FD9DED061B53EC112BFBF7FFFC41EC04
:104A7000100B2648784400EBC40090ED001B51EC6D
:104A8000100B53EC112BFBF7F4FC41EC100B002D39
:104A9000A2BFBDEC068B02B070BD51EC100B81F0D3
:104AA000004141EC100B01E7000010440000F07FD2
:104AB000182D4454FB21F93F182D4454FB21F9BF14
:104AC0000000DC3F0000203E0000F33F000000003B
:104AD000000000000000F03F0000E63F0000000082
:104AE00000000000000000400080034000000000C3
:104AF000000000000000F83F000000000000F0BFD0
:104B0000C81300007E13000008130000C01200004C
:104B100070B56B4E2DED040B2DED028B82B0DDF8E0
:104B20001CC0DDE905235C422CF000411C4341EA36
:104B3000D474049D22F00040B44205D86C422C434A
:104B400040EAD474B44210D99DED060B53EC102BFF
:104B50009DED040B51EC100BFBF7E7FB41EC100B48
:104B600002B0BDEC028B04B070BDACF14054A4F1B6
:104B70007F641C430BD0022404EAAC7444EAD27470
:104B800005439FED518B9FED522B07D010E09DED1B
:104B9000040B51EC100B00F095F939E0002C14BF18
:104BA000012C9DED040BDBD0022C34D0032C37D02C
:104BB0000B439FED491B9FED4A0B0AD0B14218D120
:104BC000B04209D121F0804120F08040079105904A
:104BD0000FE0002AC4DA10E0434B7B44002C08BFEE
:104BE00093ED000BBCD0012C0CD0022C13D0032C65
:104BF00016D0B04219D1002AB2DAB0EE410AF0EE76
:104C0000610AADE793ED000B51EC100B81F0004110
:104C100041EC100BA4E7B0EE480AF0EE680A9FE7FB
:104C2000B0EE420AF0EE620A9AE7401A00153C28FC
:104C3000C8BF8DED000B19DCBCF1000FBEBF10F139
:104C40003C0F9FED2B0B8DED000B0FDB9DED060B4D
:104C500053EC102B9DED040B51EC100BFBF77EFC7D
:104C600000F038F900F02EF9CDE90001002C08BF62
:104C70009DED000B3FF474AF012C10D0022C9FED82
:104C80001E0B53EC102B9DED000B51EC100B0DD0B7
:104C9000FBF7ECFB53EC182BFBF7E8FBB8E70198AC
:104CA00080F0004001909DED000B59E7FBF7DEFB23
:104CB00053EC182BFBF7DDFBAAE700000000000017
:104CC0000000F07F00000000182D4454FB21094033
:104CD000182D4454FB2109C0182D4454FB21F9BF61
:104CE000182D4454FB21F93FF21100000000000090
:104CF0000000000000000000075C143326A6A13C61
:104D000000B52DED048BB0EE409AF0EE609A83B0C2
:104D100051EC190BFBF7BDFD41EC180B18EE100A16
:104D200018EE901A8DED008B002818BF0120084363
:104D300020F00040C0F17F6000F1E040C00F14D0CF
:104D400019EE101A19EE900A8DED009B002918BF7C
:104D50000121084320F00040C0F17F6000F1E040F5
:104D6000C00F04BF012000F0A7F8B0EE480A03B05E
:104D7000F0EE680ABDEC048B00BD70B504462DED65
:104D8000028B4D1E00EBC500B0EE408AF0EE608A4B
:104D900090ED000B35F0060017D053EC182B51ECBA
:104DA000100BFBF769FB41EC100B6D1E04EBC5000B
:104DB00090ED001B51EC100B53EC112BFBF7B5FAE7
:104DC00041EC100B35F00600E7D1022D36D0042D52
:104DD0001CD0062D1CBFBDEC028B70BD53EC182BF4
:104DE00051EC100BFBF748FB94ED0A1B53EC112B15
:104DF000FBF79BFA53EC182BFBF73EFB94ED081BDB
:104E000053EC112BFBF791FA41EC100B53EC182BE0
:104E100051EC100BFBF730FB94ED061B53EC112B00
:104E2000FBF783FA53EC182BFBF726FB94ED040BEE
:104E300053EC102BFBF779FA41EC100B53EC182BC9
:104E400051EC100BFBF718FB94ED021B53EC112BEC
:104E5000FBF76BFA53EC182BFBF70EFB94ED001BE2
:104E600053EC112BFBF761FABDEC028B41EC100BFC
:104E700070BD0000000000009FED050B10B553EC65
:104E8000102B51EC100BFBF7F7FA41EC100B10BD97
:104E9000000000000000001002E008C8121F08C156
:104EA000002AFAD170477047002001E001C1121FAB
:104EB000002AFBD1704700000149086070470000DC
:104EC000B801002010B541EC100BFFF7B1FC51EC1C
:104ED000100B10BD82B0CDE9000121F0004001901F
:104EE0009DED000B02B051EC100B7047FCF772FE09
:104EF000FEF716FFFCF7F8FF12490860FDF782FF86
:104F0000FDF7ECFEFDF7A6FEFDF7C6FEFDF7EAFF96
:104F1000FEF750F8FEF76AF8FEF784F8FEF7A0F8FF
:104F2000FEF714F80848FBF7B5FE0848FDF746FA07
:104F3000FFF75AFAFBF7A2FDFDF71EFF00F04BF852
:104F4000FEE7000000000020BC010020A0040020BB
:104F500001460020842900D0C81C7047F0B50B30F2
:104F6000154D20F007010024144A0FE003688B421E
:104F70000BD38B4205D95E1A43184768C3E9006713
:104F800000E04368136002C004E0021D10680028BE
:104F9000ECD12046002802D1286808B10020F0BDDD
:104FA000064A07481060074A121A22F00702C0E9B1
:104FB000002401202860D7E7B4010020B0010020C0
:104FC00044490020404B002010B500B9012000F0FA
:104FD0006BFB002010BD10B500F0CAFB002010BD17
:104FE0007FB50D4604464169B0F9080081B1A16959
:104FF00071B1FFF7ADFFD4E905128DE80700D4E9E0
:1050000000102B46226900F024FD039004B070BD0F
:10501000FFF79EFF03A9CDE90001208A2B4682B24B
:10502000D4E9001000F0E8FC012801D00020EDE7F1
:105030000398EBE72DE9F041184E0F4604467569D9
:105040003068001D00F06DFA38B9306890F82C1007
:1050500001208840B1698143B161601C07D137B13B
:105060003168BDE8F0410E48091D00F09DBA306876
:105070002C44AC424460316805D2B068BDE8F041D0
:10508000091D00F079BA7068091D00F075FA306BDF
:10509000844200D23463BDE8F0810000500100205A
:1050A000280D00202DE9F041054600F089FA2E4E2A
:1050B0003069401C306130682C4F10B1F06940B34A
:1050C0002DE035603069012829D1002404EB8400EB
:1050D00007EB800000F042FA641C072CF6D323484B
:1050E0008C3000F03BFA2148A03000F037FA1F481E
:1050F000B43000F033FA1D48C83000F02FFA1B48D6
:10510000DC3000F02BFA19488C3070601430B0603D
:1051100005E03068E96AC06A884200D83560F06A04
:105120000121401CF062E86AB26981401143B1611B
:1051300000EB800007EB8000291D00F035FA00F03D
:105140005FFAF06900280CD03068E96AC06A8842CA
:1051500007D207494FF080500860BFF34F8FBFF36D
:105160006F8FBDE8F0810000500100204C0C002042
:1051700004ED00E010B5044690F8510058B1012844
:105180000CD002280FD0502080F31188BFF34F8F2E
:10519000BFF36F8FFEE7206B00F046FA2046BDE8B4
:1051A000104000F041BA10BD10484FF47051420752
:1051B00006D0C01D0D4920F00700411AC1F57051FD
:1051C0000B4A00230144C2E900030839103A21F0D8
:1051D000070111604B600B600B1AC0E9001393606C
:1051E0004FF000405360D060704700003C0D00203D
:1051F0009C010020134E144DA6F1C8074FF08058B3
:10520000DFF8489011E000F0DBF9F068C468201D79
:1052100000F087F92869401E2861E868401EE860B0
:1052200000F0EEF92046FFF7A5FFE8680028EAD174
:1052300038680128F9D9C9F80080BFF34F8FBFF350
:105240006F8FF2E7140D00205001002004ED00E004
:105250002DE9F0479A46DDE9098481466FF00303A2
:10526000206B03EB82021044089D20F007067007B4
:1052700007D0502080F31188BFF34F8FBFF36F8F9B
:10528000FEE7002761B1002023180A5C83F8342070
:105290000A5C12B1401C1028F6D384F8437001E078
:1052A00084F83470072D00D30625E562C4E9115750
:1052B000201D00F05EF904F1180000F05AF9246195
:1052C000C5F107006462A061E76484F8507052463B
:1052D0004946304600F0D8F82060B8F1000F01D000
:1052E000C8F80040BDE8F08730B5114900E011462C
:1052F0000A688242FBD34B685C18844203D1406841
:1053000018444860084643681C18944209D1084C68
:10531000103C2468A24209D052681A4442600A68CC
:1053200012680260814200D0086030BD0460F9E775
:105330009C01002006484168096829B14168C96894
:10534000C9684968016370474FF0FF31FAE7000010
:105350005001002008484068401C4FF0500080F386
:10536000118804D0BFF34F8FBFF36F8FFEE7BFF3F9
:105370004F8FBFF36F8FFEE7A4010020002150B1D3
:105380000A4B42699A420FD1806AA3F128029042E7
:105390000AD040B108E0502080F31188BFF34F8F4E
:1053A000BFF36F8FFEE7012108467047280D0020EC
:1053B0002DE9F0410546002600F06EFA314F3868BD
:1053C00008B9FFF7F1FEF86805424BD1C5B30835BF
:1053D00068070ED005F00700C0F108000544680713
:1053E00007D0502080F31188BFF34F8FBFF36F8F2A
:1053F000FEE72DB37868854234D82249103108463B
:10540000046801E0214604466068A84202D2206890
:105410000028F7D13868844224D00E6820680860DC
:1054200060680836411B10290FD96019420708D05F
:10543000502080F31188BFF34F8FBFF36F8FFEE7CB
:1054400010E041606560FFF74FFF61687868401ABF
:105450007860BA68904200D2B860F86801430020D2
:10546000C4E9000100F086FB700707D0502080F3EC
:105470001188BFF34F8FBFF36F8FFEE73046BDE853
:10548000F08100008C01002010B5031F4FF08074E4
:105490001C601B1F21F001011960191F044B0B60D8
:1054A00014390A60091F6FF0020244380A6010BD07
:1054B0005553000800B52DED048B83B041EC190B5A
:1054C000FBF7E7F941EC180B18EE100A18EE901AEA
:1054D0008DED008B002818BF0120084320F000400C
:1054E000C0F17F6000F1E040C00F14D019EE101A37
:1054F00019EE900A8DED009B002918BF0121084389
:1055000020F00040C0F17F6000F1E040C00F04BF18
:105510000120FFF7D1FC51EC180B03B0BDEC048B5C
:1055200000BDD0E9013201699A60D0E901235A60D7
:105530004A68824201D182684A600022026108689A
:10554000401E086008687047034B036003F1540075
:1055500008608020106070470C02002000F10801F4
:105560004FF0FF32C0E90112C1600161002101600A
:10557000704700210161704730B50C68621C02D091
:1055800000F1080202E0026904E01A4653681D684F
:10559000A542FAD953684B6099608A6051600861EE
:1055A0000168491C016030BD42684A6093688B60A5
:1055B00093685960916008610168491C01607047F7
:1055C000502080F31188BFF34F8FBFF36F8F0A49CC
:1055D0004868401C486001280CD10848006810F059
:1055E000FF0F07D0502080F31188BFF34F8FBFF318
:1055F0006F8FFEE770470000A401002004ED00E07B
:105600000849486828B1401E486001D180F31188DC
:105610007047502080F31188BFF34F8FBFF36F8F17
:10562000FEE70000A401002070B5002827D0144D2B
:10563000A0F108046068E968084207D1502080F3AF
:105640001188BFF34F8FBFF36F8FFEE722683AB127
:10565000502080F31188BFF34F8FBFF36F8FFEE7A9
:105660008843606000F018F9606869680844686001
:105670002046FFF739FEBDE8704000F07BBA70BDF0
:105680008C0100204FF0E02000210161816105497B
:105690004FF47A720968B1FBF2F1491E41610721AA
:1056A000016170474C01002010B5020014D00F4872
:1056B000806B38B1502080F31188BFF34F8FBFF358
:1056C0006F8FFEE700F0E8F800211046FFF7B2FC0C
:1056D00000F050FA002807D105494FF080500860CB
:1056E000BFF34F8FBFF36F8F10BD0000500100203C
:1056F00004ED00E070B504002BD01A4D28688442F8
:105700002FD0FFF75DFF2046FFF738FEE8B1201DE0
:10571000FFF707FFE06A0121AA6981401143A961EF
:10572000114900EB800001EB8000211DFFF73CFFD9
:10573000E06A2968C96A884207D30C494FF0805053
:105740000860BFF34F8FBFF36F8FBDE87040FFF766
:1057500057BF502080F31188BFF34F8FBFF36F8F77
:10576000FEE770BD500100204C0C002004ED00E06D
:1057700010B586B00024039405AA04A903A80494D4
:10578000FFF7E2FEDDE903010094CDE901100023FB
:105790000EA11048059A00F05CF90F4900284863F3
:1057A00011D0502080F31188BFF34F8FBFF36F8F5C
:1057B0004FF0FF3008630120C8614C6106B0BDE8BE
:1057C000104000F09FB806B010BD000049444C45A1
:1057D00000000000F55100085001002070B504469B
:1057E000FFF7EEFE294D04B92C68201DFFF799FE46
:1057F00058B9E06A264A00EB800152F8211021B91D
:1058000001218140A8698843A861A06A18B104F108
:105810001800FFF786FE1E48211DDC30FFF7C4FE8E
:1058200094F850000026012801D184F85060FFF759
:10583000E7FEE86928B1FFF7C3FEFFF77BFDFFF73E
:10584000DFFE2868844213D1E86990B1A86B38B1B3
:10585000502080F31188BFF34F8FBFF36F8FFEE7A7
:105860000C494FF080500860BFF34F8FBFF36F8F2C
:1058700070BD0748DC3000682969884201D12E607C
:1058800070BDBDE8704000F00FB80000500100206E
:105890004C0C002004ED00E00248816B491C816340
:1058A0007047000050010020144A906B10B1012095
:1058B000506270470020506290691149B0FA80F040
:1058C000C0F11F0000EB800051F820306BB101EBFC
:1058D000800000F10803416849684160994201D1A4
:1058E00049684160C86810607047502080F3118893
:1058F000BFF34F8FBFF36F8FFEE700005001002012
:105900004C0C00201CB537480168374A914207D13A
:10591000502080F31188BFF34F8FBFF36F8FFEE7E6
:1059200000683149491E884207D1502080F3118810
:10593000BFF34F8FBFF36F8FFEE72C4908780190BC
:10594000FF20087008788DF800009DF800009DF891
:10595000002000F0F000904207D0502080F3118822
:10596000BFF34F8FBFF36F8FFEE79DF80000204B12
:1059700000F0500018700720986006E0401E986004
:105980009DF8000040008DF800009DF80000000622
:105990009868F3D4032807D0502080F31188BFF310
:1059A0004F8FBFF36F8FFEE74FF440709860019800
:1059B00008700C482030016841F4700101600168F2
:1059C00041F070410160FFF75DFE00205860FAF77A
:1059D00009FC0848016841F040410160FAF7EEFB1C
:1059E00000201CBD00ED00E071C20F4100E400E0AA
:1059F000A401002034EF00E02DE9FF5F8346DDE9DC
:105A00000E87994616468A469000FFF7D1FC05009E
:105A10001CD05420FFF7CCFC040014D000202563D8
:105A200084F85100CDE90240CDE900874B4632466B
:105A300051465846FFF70CFC2046FFF733FB012088
:105A400004B0BDE8F09F2846FFF7EEFD4FF0FF30B1
:105A5000F6E7F0B585B00546DDE90B040A9EA8B16E
:105A6000E4B1542700972063022084F851000020FD
:105A7000CDE9024004AF2846CDE90067FFF7E8FB17
:105A80002046FFF70FFB049805B0F0BD502080F3CF
:105A90001188BFF34F8FBFF36F8FFEE7502080F365
:105AA0001188BFF34F8FBFF36F8FFEE72DE9F041F1
:105AB0002E4F0026B86B40B1386A401C3862786AB5
:105AC00000B101263046BDE8F0817D696D1C7D6125
:105AD00013D17868006838B1502080F31188BFF383
