:020000040800F2
:10000000484F00205D02000869350008132C0008E5
:100010005D310008590C00088F4400080000000002
:100020000000000000000000000000009D0100082A
:10003000B50E000800000000F9010008993D000815
:1000400077020008770200087702000877020008AC
:10005000770200087702000877020008770200089C
:10006000770200087702000877020008770200088C
:10007000BD0D000877020008C90D000877020008CE
:10008000D50D0008E10D000877020008770200088E
:100090005D0C00087702000877020008770200086C
:1000A000770200086D3E000877020008770200081A
:1000B000793E0008853E00087702000877020008B4
:1000C000770200087702000877020008770200082C
:1000D00077020008A9430008D1430008F54300084F
:1000E000770200087702000877020008770200080C
:1000F00077020008770200087702000877020008FC
:1001000077020008770200087702000877020008EB
:1001100077020008770200087702000877020008DB
:1001200077020008ED0D0008F90D000877020008BD
:1001300077020008000000000000000077020008BD
:10014000A90C00087702000877020008770200086F
:1001500077020008050E0008770200080144000835
:10016000770200087702000877020008770200088B
:10017000770200087702000800000000000000007D
:100180007702000877020008DFF80CD000F0D2FBFD
:1001900000480047954F0008484F00202C4B196835
:1001A0000868B0E8F04F80F30988BFF36F8F4FF015
:1001B000000080F3118870470000000008480068C4
:1001C000006880F308884FF0000080F3148862B65E
:1001D00061B6BFF34F8FBFF36F8F00DF00BF00BF6B
:1001E00008ED00E0DFF80C00016841F470010160E7
:1001F000704700BF88ED00E0EFF30980BFF36F8F19
:10020000134B1A681EF0100F08BF20ED108A20E96A
:10021000F04F106009B44FF0500080F31188BFF325
:100220004F8FBFF36F8F05F095FB4FF0000080F309
:10023000118809BC19680868B0E8F04F1EF0100F6B
:1002400008BFB0EC108A80F30988BFF36F8F704746
:1002500050010020EFF305807047000006488047FA
:1002600006480047FEE7FEE7FEE7FEE7FEE7FEE79B
:10027000FEE7FEE7FEE7FEE74D3E000889010008C5
:100280002DE9F05F0546002092469B4688460646CB
:10029000814640241BE0284641464746224600F05E
:1002A00044FA53465A46C01A914110D31146184693
:1002B000224600F02BFA2D1A67EB01084F46224622
:1002C0000120002100F022FA17EB00094E41201E08
:1002D000A4F10104DFDC484631462A464346BDE826
:1002E000F09F40EA01039B0703D009E008C9121FF1
:1002F00008C0042AFAD203E011F8013B00F8013BE0
:10030000521EF9D27047D2B201E000F8012B491E0B
:10031000FBD270470022F6E710B513460A460446A2
:100320001946FFF7F0FF204610BD2DE9FE4F80462D
:1003300081EA0300C00F0C46009021F0004123F039
:100340000045B8EB0200A94105D24046214690463F
:100350001C460B46024623F00040104347D0270DB1
:10036000C7F30A00C3F30A510290401A01904028D3
:100370006BDAC3F3130040F4801B0098924620B15F
:100380000023D2EB030A63EB0B0B01985946C0F133
:100390004002504600F0BAF906460D46504659460E
:1003A000019A00F0D2F910EB08006141002487EABD
:1003B000115284EAE7731A4340D0009A62B3019A5B
:1003C000012A4FEA075215DC001B61EB02014FF0D6
:1003D000004202EA0752CDE90042001C41F58011BB
:1003E00032462B4600F007FA03B0BDE8F08F4046D6
:1003F0002146F9E7001B61EB0201001C41F5801367
:1004000000185B412018A2F5001747EB030140EAF2
:10041000D570B6196D4111E06D084FEA360645EA10
:10042000C0754FEA0752001B61EB0201001C41F549
:10043000801149084FEA30000019514132462B46DD
:1004400003B0BDE8F04F00F0C9B9009801224000A8
:100450000023D0EB020263EBE073009821464FEAE1
:10046000E074B8EB000061EB0401E9E783F00043BE
:100470005BE781F0004158E72DE9FE4F81EA030474
:1004800004F0004421F0004100944FF0000B23F0F1
:10049000004350EA01045ED052EA03045BD0C3F388
:1004A0000A54C1F30A552C44A4F2F3340194A0FB7E
:1004B0000254C1F3130141F48011C3F3130343F455
:1004C000801301FB024400FB034E840A970A44EAAE
:1004D000815447EA8357A4FB076802958D0A05FB00
:1004E00007854FEA932C04FB0C542705029D4FEA25
:1004F000065847EA1637B5EB08056EEB070C870E72
:10050000920E47EA811742EA8312A7FB0201B6EB7B
:100510000B0164EB00042B0D43EA0C335E1844EB33
:100520001C50DA465146E7FB0201C5F313044FEABB
:100530000B3343EA14534FEA0432019C43EA0603A7
:10054000A4F10C040294009CCDE900B400F053F92E
:1005500003B0BDE8F08F00200146F9E72DE9F04D2A
:1005600081EA030404F0004B21F0004514464FF0EB
:10057000000A23F0004150EA050220D054EA0102AB
:100580001DD0C5F30A570246C5F31303C1F3130088
:10059000C1F30A5640F4801543F48013A7EB060814
:1005A000101BD64608F2FD3873EB050002D308F1A4
:1005B000010801E092185B41B8F1000F03DA002056
:1005C0000146BDE8F08D00204FF4801106468446B8
:1005D0000EE0171B73EB050705D3121B63EB050336
:1005E00006434CEA010C49084FEA300092185B417F
:1005F00050EA0107EDD152EA030012D082EA04006A
:1006000083EA0501084305D0101BAB4106D2012245
:10061000002306E000224FF0004302E06FF00102E9
:1006200053101AEB06004CEB085110EB0A0041EB9B
:100630000B01BDE8F04D00F0D1B80EB5C10F80EA56
:10064000E0700844CA07002140F233438DE80E00F1
:100650000A460B4600F0CFF803B000BD00F00042A0
:1006600030F000400AD0C10D01F56071C0F31600F2
:1006700042EA0151C2084007114370470020014679
:100680007047000030B5002904DB4FF000444042C1
:1006900064EB0101002B04DB4FF00044524264EB99
:1006A00003038B4208BF824230BD000030B50029F1
:1006B00004DB4FF00044404264EB0101002B04DBFB
:1006C0004FF00044524264EB0303994208BF90424A
:1006D00030BD000001F0004330B421F0004150EA89
:1006E000010206D00A0DA2F56072C1F31301002ABF
:1006F00002DC30BC00207047440F44EAC104C10052
:10070000E01830BC00EBC25000F031B8202A04DB06
:10071000203A00FA02F1002070479140C2F1200314
:1007200020FA03F3194390407047202A04DB203A53
:1007300021FA02F00021704721FA02F3D040C2F101
:1007400020029140084319467047202A06DBCB1748
:10075000203A41FA02F043EAE07306E041FA02F37C
:10076000D040C2F120029140084319467047002949
:10077000A8BF7047401C490008BF20F00100704727
:1007800010B4B0FA80FC00FA0CF050EA010404BF87
:1007900010BC704749B1CCF1200421FA04F411FADD
:1007A0000CF118BF012121430843A3EB0C01CB1D21
:1007B0004FEA00614FEA102042BF002010BC704792
:1007C00000EBC35010440029A4BF10BC7047401C6C
:1007D000490008BF20F0010010BC704710B5002B85
:1007E00008DA401C41F1000192185B411A4301D123
:1007F00020F0010010BD2DE9F04D92469B4611B14D
:10080000B1FA81F202E0B0FA80F220329046FFF7AE
:100810007DFF04460F4640EA0A0041EA0B015346B9
:100820005A46084313D0114653EA010019D0C8F1C3
:1008300040025046FFF779FF05460E46504659469E
:100840004246FFF763FF084305D0012004E020463D
:100850003946BDE8F08D0020054346EAE0762C439A
:1008600037430A986305E40AA0EB08000022FD0A5A
:1008700044EA47540A3002D500200146E9E7010561
:1008800010196941DDE9084500196941BDE8F04DDD
:10089000A4E72DE9F04D00231A461B1A8A4103DB19
:1008A00000200146BDE8F08DC1F30A52C1F31301E7
:1008B00041F480154FF0000BD10702D100186D41B3
:1008C000521E0027044640F2FF11384601EB620A2F
:1008D0003E468046024600204FF48011FFF725FF78
:1008E000C2197141BB1846EB0100B4EB030C75EB68
:1008F000000C04D3E41A65EB000517460E462419D4
:1009000008F101006D4180463428E3DDF91946EB1A
:100910000600091BA84103D24FF0FF32134601E045
:10092000002213461BEB070046EB0A51BDE8F04DD1
:10093000FFF754BF064C074D06E0E06840F00103A6
:1009400094E8070098471034AC42F6D3FFF720FC38
:10095000985E0008B85E000870B58C1810F8015B4E
:1009600015F0070301D110F8013B2A1106D110F848
:10097000012B03E010F8016B01F8016B5B1EF9D14C
:100980002B0705D40023521E0DD401F8013BFAE7D2
:1009900010F8013BCB1A921C03E013F8015B01F83D
:1009A000015B521EF9D5A142D8D3002070BD0000D2
:1009B00010B5064C01221146204601F00CF92046E4
:1009C0000122BDE81040022101F005B900080240F3
:1009D00070B5044640691E4945182068002826D194
:1009E0006068002823D06068082820D02878032673
:1009F00050B9606801281AD107212046A66002F08C
:100A000003FE2878401C2870C0B2012810D00228AC
:100A100013D0032815D0042809D10820A06007218D
:100A2000204602F0F1FD0020A0600520287070BD76
:100A300060680428FBD10220287060680728F6D17E
:100A40002E7060680128F2D104202870E5E70000CC
:100A500035010020002280F82820012343609FED0B
:100A60000D0A026180ED070A026080ED080AC2608B
:100A700082604B0141614385074B01EBC10103EBF0
:100A8000810180ED090A24310163C28500212C30E7
:100A900003F0EAB9000000001C00002010B5664C0D
:100AA0002DED028BDFED651AB0EE613A9FED648AA1
:100AB000F0EE482AB0EE482AB0EE481AF0EE480AA6
:100AC0009FED600A04F1180002F0DEFD00212046CF
:100AD00002F042FC9FED5C3AF0EE482AB0EE482A64
:100AE000DFED5A1AB0EE481AF0EE480AB1EE040AE9
:100AF00004F1480002F0C8FD04F1A400B0EE483A49
:100B0000F0EE482AB0EE482AF0EE481AB0EE481A45
:100B1000F0EE480AB0EE480A8C3402F0B5FD01212F
:100B2000204602F019FCB0EE483AF0EE482AB0EE4A
:100B3000482AF0EE481AB0EE481AF0EE480AB0EE35
:100B4000480A04F1480002F09FFD8C3C04F59870BF
:100B5000B0EE483AF0EE482AB0EE482AF0EE481AD5
:100B6000B0EE481AF0EE480AB0EE480A04F58C746C
:100B700002F08AFD0221204602F0EEFBB0EE483A78
:100B8000F0EE482AB0EE482AF0EE481AB0EE481AC5
:100B9000F0EE480AB0EE480A04F1480002F074FD95
:100BA000254CB0EE483A04F5DE70F0EE482AB0EE7F
:100BB000482AF0EE481AB0EE481AF0EE480AB0EEB5
:100BC000480A04F5D27402F05FFD0321204602F0CA
:100BD000C3FBB0EE483AF0EE482AB0EE482AF0EEF9
:100BE000481AB0EE481AF0EE480AB0EE480A04F18E
:100BF000480002F049FD104C15480021C4F8880057
:100C0000FFF728FF124801213430C4F81401FFF720
:100C100021FF10480221C4F8A001FFF71BFF0D4877
:100C200003213430C4F82C02FFF714FF0120C4F86C
:100C30003C02BDEC028B10BD9009002000401C4618
:100C4000000000009A99993E00007A4500409C45BA
:100C5000C008002028090020FEE7000010B588B079
:100C60000F4800F014FB0F4B6A461C4600210C484D
:100C700000F083FA0098401EB0F5FF7F04D800987A
:100C8000214680B202F072FC0098A0F201200828F0
:100C900003D22046009902F069FB08B010BD0000A5
:100CA000BC010020D80B0020014800F0F0BA000081
:100CB000E401002010B504460F4A0E2000218AB03E
:100CC000944201D1059100E0059009900120019125
:100CD0000291CDE9061003910091049108906946B4
:100CE000204600F0C3F9204600F0DFFC0221204638
:100CF00000F046F90AB010BDBC010020094D0024E7
:100D000004EBC40005EB800191F8200010B1064807
:100D100000F013F8641C052CF2DB012004F0AAF9A2
:100D2000EDE700001C000020BC0100200021C16094
:100D30008160017508210161704738B50C46054690
:100D4000284600F08EFA0028FAD06B4604F118020B
:100D50002146284600F026F908B100F0ACF8002042
:100D600084F8200038BD000010B5124802F0A6FC3F
:100D700010488C3002F0A2FC0F4802F09FFC0E4895
:100D80008C3002F09BFC0B4C0D21D4F8880002F053
:100D90003BFC0D21D4F8140102F036FC0D21D4F8EF
:100DA000A00102F031FCD4F82C02BDE810400D2166
:100DB00002F02ABC90090020A80A0020014800F097
:100DC000B9BC000000070020014800F0B3BC0000DF
:100DD00060070020014800F0ADBC00004006002084
:100DE000014800F0A7BC0000A0060020014800F068
:100DF000A1BC0000C0070020014800F09BBC00001F
:100E0000E0050020014800F095BC0000200800200B
:100E100001681823CAB2103AB2FBF3F2054B6FF324
:100E20000901032A9B5CC36500D9091D8165084639
:100E300070470000545D000810B5014600208B6922
:100E40008A6A4FF0C07453B1B3F5005F15D072B128
:100E5000012A0CD0022A0AD0032A09D104E01AB1CF
:100E6000012A06D0022A03D1C96AC90100D501208E
:100E700010BDC96AA142FAD010BD002AF7D0012ADC
:100E8000F2D0022AF3D0032AF3D010BD30B50468A3
:100E9000256825F480252560046863608368402BFD
:100EA000036803D099600068C26030BD9A60006832
:100EB000C16030BD704770470021418001707047AC
:100EC00008B502210091418D006B0823014A02F010
:100ED000EFFE08BD3001002008B502210091418DD0
:100EE000006B0423014A02F0E3FE08BD300100203C
:100EF00008B502210091418D006B0823002202F009
:100F0000D7FE08BD08B502210091418D006B042376
:100F1000002202F0CDFE08BD10B5064C00220121D2
:100F2000204600F058FE20460122BDE81040022174
:100F300000F051BE0008024010B50F484FF4FA719E
:100F40000E4CD0F86002B0FBF1F201FB1201B1F5DA
:100F5000C87F4FF000024FF00101204603D900F096
:100F60003AFE002202E000F036FE01222046BDE8F3
:100F70001040022100F02FBE90090020000802401E
:100F800090F82020012A07D0022A05D0416A41F4B6
:100F90008021416201207047006842690A43426132
:100FA00000207047F0B590F820500468A468012D27
:100FB00005D0022D03D0416A41F4802153E014F0A2
:100FC000406F01D1E5004BD5C4F30164022C03D975
:100FD000416A41F4000146E00125A5401D608B688F
:100FE0004FF4C0759BB1CE6833434E6843EAC603E5
:100FF000066805EB0417F3514FF4C273076803EB5F
:1010000004130E69FE50097D012905D009E00E8800
:10101000CB6843EA4653EBE70168CE5846F4807646
:10102000CE501179D2F805304FF4C67641EA032349
:10103000016806EB04168B511178D2F801204FF4A9
:10104000C47341EA0221026803EB0413D150006823
:1010500005EB0411425842F0010242500020F0BD5D
:10106000416A41F4001141620120F0BD10B590F8D1
:101070002020012A07D0022A05D0416A41F48021AC
:101080004162012010BD3B48D0F8002242F001022D
:10109000C0F80022D0F8002222F47C52C0F80022CE
:1010A000D0F800224B6A42EA0322C0F800220A7DEF
:1010B00002F01F0301229A40D0F81C329343C0F87B
:1010C0001C32CB69B3B9D0F80C329343C0F80C3260
:1010D0008C894B6864F31F434C6900EBC404C4F86B
:1010E00040320C890B6864F31F434C6900EBC40465
:1010F000C4F84432CB69012B16D1D0F80C3213431B
:10110000C0F80C320C884B6864F31F434C6900EB49
:10111000C404C4F840320C89CB6864F31F434C69A3
:1011200000EBC404C4F844328B69002BD0F80432BD
:101130000ED01343C0F804320B69002BD0F81432E0
:1011400008D01343C0F81432096A012904D008E01A
:101150009343EFE79343F5E7D0F81C121143C0F82F
:101160001C12D0F8001221F00101C0F8001200207A
:1011700010BD000000640040704730B590F820407A
:10118000012C05D0022C03D0416A41F480215DE09E
:101190000468002955D02469A40754D04FF4D874AA
:1011A000056804EB01142D5915F0040595600568D8
:1011B0002D594ED0ED08556005682C5904F00204F5
:1011C000D4604FF4DA74056804EB01142D5905F06E
:1011D0000F05156105682D59C5F30725956105684B
:1011E0002C59240C54614FF4DC72046802EB011298
:1011F000A4581C700468A458240A5C700468A4589D
:10120000240C9C700468A258120EDA704FF4DE723F
:10121000046802EB0112A4581C710468A458240A43
:101220005C710468A458240C9C710468A258120EC6
:10123000DA71006881B1016941F02001016100208B
:1012400030BDE468A8E7416A41F400114162012021
:1012500030BD6D0D1560AFE7C16841F02001C16080
:10126000EDE70246002092F82010012901D0022962
:101270000CD111688A68520100D501208A681201D8
:1012800000D5401C8968C90000D5401C70472DE975
:10129000F05F0546006800244669D0F8049087682E
:1012A000D0F80CB0D0F810A0D0F81880F10748D0D2
:1012B000F90714D001218160B80703D5284600F052
:1012C00020FA0CE0780702D54FF4006407E03807F5
:1012D00002D54FF4805402E0284600F011FAF805D8
:1012E00016D529684FF480708860B80503D5284664
:1012F00000F009FA0CE0780502D544F4005407E048
:10130000380502D544F4804402E0284600F0FAF99A
:10131000F80316D529684FF480308860B80303D5E8
:10132000284600F0F2F90CE0780302D544F40044BA
:1013300007E0380302D544F4803402E0284600F088
:10134000E3F9300707D55FEACB6004D529681020A0
:1013500044F40074C86070074FF0080707D55FEACF
:101360000B7004D52868C760284600F099F9B007CB
:1013700006D52868C068800702D0284600F091F999
:10138000700607D55FEACA6004D52968102044F4C6
:1013900080640861B00607D55FEA0A7004D5286842
:1013A0000761284600F07EF9F00606D52868006936
:1013B000800702D0284600F076F9B00308D55FEA2E
:1013C000C96005D5296810204860284600F06CF9EE
:1013D000F00307D55FEA097004D5286847602846FE
:1013E00000F094F9300446D55FEA497040D5F00525
:1013F00004D55FEAC87001D044F00104B00504D5FB
:101400005FEA887001D544F00204700504D55FEAF4
:10141000487001D544F00404300529D518F0700F48
:1014200026D008F07000402815D006DC102809D01E
:1014300020280AD0302816D10AE050280ED0602883
:1014400011D10EE044F008040DE044F010040AE06D
:1014500044F0200407E044F0400404E044F0800439
:1014600001E044F480742868816921F07001816191
:10147000296804204860002C05D0686A204368620F
:101480002846FFF779FEBDE8F09F70B5040003D051
:1014900094F8200010B104E0012070BD204600F057
:1014A00081F82068016821F00201016000F098FBDA
:1014B0000546052604E000F093FB401B0A2811D8DE
:1014C000206840688007F6D42068016841F0010177
:1014D000016000F085FB05460BE000F081FB401B3E
:1014E0000A2806D9606A40F40030606284F82060FF
:1014F000D2E720684068C007EFD0207E012820682E
:1015000001683DD021F080010160607E01282068E3
:10151000016838D021F040010160A07E01282068D8
:10152000016833D021F020010160E07E01282068AD
:1015300001682ED041F010010160207F0128206851
:10154000016829D021F008010160607F012820682E
:10155000016824D021F004010160D4E902010843AC
:10156000D4E90412114308436168491E0843216805
:10157000C86100206062012084F82000002070BD56
:1015800041F08001C0E741F04001C5E741F0200192
:10159000CAE721F01001CFE741F00801D4E741F09C
:1015A0000401D9E7F0B587B0044614216846FEF778
:1015B000B1FE3649364ADFF8D0E00868D4F800C0FA
:1015C000334B02240325092610320027401CF44522
:1015D00023D10860012807D1106840F00070106026
:1015E000106800F000700590186840F00100186065
:1015F0001868694600F0010005904FF4C0508DE86E
:101600009100CDE90356234800F006FA0022052197
:10161000142000F09FFB142031E0DFF87CE0F4455B
:101620002FD1D2F800C04CF0806CC2F800C0D2F8C4
:1016300000C001280CF0806CCDF814C0086007D100
:10164000106840F000701060106800F000700590A5
:10165000186840F0020018601868694600F002003F
:10166000059060208DE89100CDE903560B4800F00D
:10167000D3F900220521402000F06CFB402000F04F
:101680005BFB07B0F0BD00000064004004000020D8
:101690003038024000000240006800400004024070
:1016A0007047704770477047704770B5044690F8B0
:1016B0002000012804D0606A40F40020606217E036
:1016C000022084F820002068016821F001010160F7
:1016D00000F086FA05460DE000F082FA401B0A2869
:1016E00008D9606A40F400306062052084F8200068
:1016F000012070BD20684068C007EDD1606270BDF8
:10170000704770477047704770477047704790F850
:101710003510022903D08021416501207047052141
:1017200080F835100068016821F001010160002097
:10173000704700002DE9F84304464FF00009CDF84A
:10174000009063484FF41651A56D0068B0FBF1F7A7
:101750002E6894F85C20082101FA02F030420FD084
:101760002068026852070BD5026822F0040202606A
:1017700094F85C008140A960606D40F001006065F4
:1017800094F85C104FF0010808FA01F0304208D0DC
:1017900021684969090604D5A860606D40F002001F
:1017A000606594F85C1004208840304208D02168BD
:1017B0000968890704D5A860606D40F00400606581
:1017C00094F85C1010208840304218D021680968D5
:1017D000090714D5A86020680168490304D500688A
:1017E000000308D5A16C07E00168C90503D40168AE
:1017F00021F008010160216C09B12046884794F866
:101800005C1020208840304231D021680968C90628
:101810002DD5A86094F8350005282068016806D009
:10182000490347D5006800031DD4616C1CE021F01A
:10183000160101602068416921F080014161206C3E
:1018400008B9A06C20B12068016821F0080101608E
:1018500094F85C103F208840A86084F8349084F8A5
:101860003580216D1FE0E16B09B120468847606D2E
:1018700000282BD0606DC00714D0052084F83500F7
:101880002068016821F0010101600098401C00906F
:10189000B84203D820680068C007F6D184F83490B5
:1018A00084F83580E16C002910D001B02046BDE8F5
:1018B000F04308470168C905D5D4016821F010013B
:1018C000016084F8349084F83580CCE7BDE8F88373
:1018D0004C0100202DE9F041044600F081F9054655
:1018E0005CB1002684F83460022084F8350020685A
:1018F000016821F0010101600DE00120BDE8F081E7
:1019000000F06EF9401B052805D9202060650320F2
:1019100084F83500F2E720680068C007F0D121683C
:101920000A6820480240D4E901031843D4E903358A
:101930002B43184363691843A3691843E3691843A9
:10194000236A18431043626A042A03D1D4E90B23A3
:101950001A431043086020684069656A20F0070157
:1019600028460D43012704280CD1A06A0543E06AEC
:1019700040B12046FFF760FA20B14020606584F84E
:101980003570BAE7206845612046FFF741FA94F8C0
:101990005C203F2191408160666584F835700020AD
:1019A000ACE700003F8010F02DE9F0410446866D61
:1019B00090F83400002501280DD0012084F834006F
:1019C00094F835700020012F07D084F834000225E8
:1019D0002846BDE8F0810220FBE7022784F8357035
:1019E00060652046FFF752FA94F85C103F2088406B
:1019F000B0602068016841F016010160206C20B1E0
:101A00002068016841F0080101602068016841F028
:101A100001010160DCE700002DE9F84FDFF880B13B
:101A200000224FF003094FF00F0A0BF1040E0125BD
:101A30000B6895402B40AB4272D14C68012C05D00D
:101A4000022C03D0112C01D0122C10D18668540026
:101A500009FA04F7BE43CF68A7403743876046685A
:101A60000C79AE43C4F30014944034434460C4681A
:101A7000570009FA07F58E68AC43BE402643C6609E
:101A80004C68022C01D0122C12D1D40800EB840C2B
:101A9000DCF820605407E40E0AFA04F826EA080687
:101AA000D1F8108008FA04F848EA0608CCF820803B
:101AB0000468AC430D7905F00305BD40254305607E
:101AC0004C68E40065D5374C256845F480452560B1
:101AD000246822F0030504F480440094324C2E194B
:101AE000D6F808789407250F0AFA05F4A7432F4C77
:101AF000A04201D1002424E02D4CA04201D10124B8
:101B00001FE02C4CA04201D102241AE02A4CA04232
:101B100001D1032415E0294CA04202D1042410E095
:101B200037E0274CA04201D105240AE0254CA04211
:101B300001D1062405E0244CA04201D1072400E095
:101B40000824AC403C43C6F80848DBF800405D463A
:101B50004E689C43F60300D51C432C60DEF8004021
:101B600075464E689C43B60300D51C432C600C4D53
:101B700008352C684E689C43F60200D51C432C6047
:101B8000074D0C352C684E689C43B60200D51C43AB
:101B90002C60521C102AFFF44AAFBDE8F88F0000F9
:101BA000003C014044380240003001400000024047
:101BB0000004024000080240000C024000100240F5
:101BC0000014024000180240001C02400069084056
:101BD00000D0012070470AB1816170470904FBE71A
:101BE00001488068704700004001002070B5040083
:101BF00011D021684CF6CC400860216845F2555060
:101C00000860D4E9000141602168A0688860FFF79E
:101C1000E7FF054608E0012070BDFFF7E1FF401B2C
:101C2000302801D9032070BD2068C0680028F4D195
:101C300021684AF6AA200860002070BD00684AF6B4
:101C4000AA2101600020704702488168027811448F
:101C500081607047400100200B4810B5016841F4D5
:101C600000710160016841F480610160016841F424
:101C700080710160032000F08DF8002000F006F86C
:101C800000F03EF8002010BD003C024010B50146B7
:101C900088B00022192000F05DF8192000F04CF8FF
:101CA00013480024016841F001010160006805A9A2
:101CB00000F001000690684600F018F900F046F9BF
:101CC0000C494000B0FBF1F10C480B4A491E026080
:101CD00040F2E732C0E90324C0E9011400F064FBDC
:101CE00010B1012008B010BD044800F0A9FBF9E7CD
:101CF0004438024040420F000000014080080020AC
:101D00000C4882B0016841F480410160006800F431
:101D1000804000900748001F016841F08051016039
:101D20000068002200F0805000900F21901E02B049
:101D300000F010B844380240002809DB00F01F0210
:101D4000012191404009800000F1E020C0F800111D
:101D500070470000F0B40E4B1B68C3F30223C3F1BD
:101D60000704042C00D904241D1D072D01D20023D3
:101D700000E0DB1E012606FA04F56D1E0D409D40B5
:101D80009E40761E164045EA0601F0BC02F0EABB12
:101D90000CED00E0064A00F0070110684FF6FF0363
:101DA000184040EA012003490843106070470000D2
:101DB0000CED00E00000FA052DE9F0470D460400A7
:101DC00065D0DFF81491D9F80000EFB200F00F00F1
:101DD000A84207D289F80070D9F8000000F00F007F
:101DE000A84254D120683D4E810712D5400703D543
:101DF000306840F4E05030602078000703D5306848
:101E000040F4604030603068A16820F0F000084382
:101E100030602078C0072DD030496068083901282B
:101E200012D0022813D0032811D00968890700298D
:101E30002DDA316821F0030101433160FFF7D0FE54
:101E4000804641F2883A0EE009688903EFE70968A5
:101E50008901ECE7FFF7C4FEA0EB0801514502D968
:101E60000320BDE8F0873068616800F00C00B0EB3B
:101E7000810FEFD1D9F80010484601F00F01A942B7
:101E800007D90770006800F00F00A84201D00120B8
:101E9000E7E72078400705D53068E16820F4E05096
:101EA000084330602078000706D53068216920F4A7
:101EB000604040EAC100306000F058F83168084ADC
:101EC000C1F30311515CC840064908600648006828
:101ED000FFF7DCFE0020C4E7003C02400838024067
:101EE0005C5D00084C010020440100200F220260CC
:101EF0000C4A136803F003034360136803F0F00314
:101F00008360136803F4E053C36012684FF4E05336
:101F100003EAD20202610448006800F00F00086082
:101F20007047000008380240003C02400448054960
:101F300000680968044AC1F38221515CC8407047B7
:101F40004C010020083802406C5D00080448054937
:101F500000680968044AC1F34231515CC8407047C7
:101F60004C010020083802406C5D0008154810B58F
:101F7000006810F00C01144813D0431004290FD04E
:101F800008290ED10F4C241F216801F03F0221685F
:101F9000490207D52068C0F38810A0FB030106E0C2
:101FA000184610BD2168C1F38811A1FB0001002370
:101FB000FEF766F92168C1F30141491C4900B0FBF5
:101FC000F1F010BD083802400024F4002DE9F84F6C
:101FD000040075D02078DFF828A3C007AAF1040513
:101FE00048D00AF104000168C1F38101012908D039
:101FF0000068C0F3810002280AD1DAF8000040022C
:1020000006D52868800335D560680028E1D031E026
:102010006068B0F5803F10D0B0F5A02F286810D0D0
:1020200020F480302860286820F4802028606068D0
:10203000A0B1FFF7D5FD06460CE0286840F48030DB
:10204000F4E740F480202860F7E7FFF7C9FD801B24
:10205000642871D828688003F7D50BE0FFF7C0FD2E
:10206000064604E0FFF7BCFD801B6428F1D8286811
:102070008003F7D42078DFF88C9280074FF0000BB4
:102080003DD59F48001D016811F00C0F08D0006875
:10209000C0F3810002280AD1DAF80000400206D419
:1020A0002868800715D5E068012809D111E0E068AB
:1020B000B8B10121C9F80010FFF792FD064605E00E
:1020C0001AE1FFF78DFD801B0228C2D8286880071F
:1020D000F7D52868216920F0F80040EAC10028609F
:1020E0000DE0C9F800B0FFF77BFD064604E0FFF7FE
:1020F00077FD801B02281FD828688007F7D4207836
:10210000000722D57E4F80486169703771B1012187
:102110000160FFF765FD064604E0FFF761FD801BE7
:10212000022809D838688007F7D50EE0C0F800B05B
:10213000FFF756FD064605E082E0FFF751FD801BE4
:1021400002287DD838688007F7D42078400765D505
:102150006B484FF000083C300068C0000BD4684862
:102160003C30016841F08051016000684FF0010887
:1021700000F080500090654F3868C0050FD4386873
:1021800040F480703860FFF72BFD064604E0FFF74F
:1021900027FD801B022853D83868C005F7D5584F53
:1021A000A0686C3701280FD00528386810D020F0BF
:1021B00001003860386820F004003860A068B0B1D1
:1021C000FFF70EFD06460EE0386840F00100F4E728
:1021D00040F004003860F7E7FFF702FD811B41F291
:1021E0008830814263D838688007F5D50DE0FFF765
:1021F000F7FC064606E0FFF7F3FC811B41F288304E
:10220000814254D838688007F5D4B8F1000F05D062
:102210003B483C30016821F080510160A069B8B3AF
:102220003749091D0968C1F38101022946D00228F6
:10223000584606D0C9F86000FFF7D2FC044639E0E2
:1022400035E04F46C9F86000FFF7CAFC064604E0D7
:10225000FFF7C6FC801B022829D828688001F7D424
:10226000D4E907010843A16A294A490802EB014160
:10227000626A41EA8211084394F82C1040EA016135
:10228000CAF8001001203866FFF7AAFC044605E0F2
:1022900034E0FFF7A5FC001B022808D8286880015D
:1022A000F7D52BE0FFF79CFC001B022802D9032086
:1022B000BDE8F88F28688001F4D41FE00128F7D02A
:1022C000DAF80000E26900F48001914214D1226A38
:1022D00000F03F0191420FD147F6C071626A0140A0
:1022E000914209D1A26A00F44031914204D1E16ADD
:1022F00000F07060884201D00120D9E70020D7E7C4
:102300000438024000004742800E474200700040FF
:102310000000FFFF7047704770B590F83C20012A1D
:1023200032D0012580F83C50022280F83D2002681E
:102330005368946823F070060B6833435360134B63
:1023400002689A4214D0B2F1804F11D0104B9A42D9
:102350000ED0104B9A420BD00F4B9A4208D00F4B25
:102360009A4205D00E4B9A4202D00E4B9A4204D1AB
:10237000496824F080031943916080F83D500021A2
:1023800080F83C10084670BD022070BD000001407E
:102390000004004000080040000C00400004014020
:1023A000004001400018004010B5040003D094F82C
:1023B0003D0010B107E0012010BD002084F83C0072
:1023C000204600F00DF8022084F83D00211D206811
:1023D00001F0F0FD012084F83D00002010BD000058
:1023E00008B500681449B0F1804F14D0134A9042E8
:1023F00020D1086840F0020008600868002200F060
:102400000200009005211D20FFF7A4FC1D20BDE85F
:102410000840FFF791BC086840F0010008600868B8
:10242000002200F00100009005211C20FFF792FC23
:102430001C20ECE708BD00004038024000040040CA
:102440000168CA6842F00102CA600068816801F050
:102450000701062903D0016841F001010160002055
:10246000704770B5044690F83C00012817D001254C
:1024700084F83C50022084F83D002068826822F0F5
:10248000770222F47F4282600868502830D00DDC49
:1024900020284DD005DC98B310283BD148E002201D
:1024A00070BD302844D0402834D139E0602828D08D
:1024B000702806D0B0F5805F2CD0B0F5005F29D130
:1024C0000AE0CB68D1E90121206801F0D7FD20683E
:1024D000816841F0770109E0CB68D1E901212068EA
:1024E00001F0CCFD2068816841F48041816011E0F9
:1024F000CA684968206801F0D3FD5021206807E0D0
:1025000016E0CA684968206801F0DBFD6021206898
:1025100001F0BEFD84F83D50002084F83C0070BD01
:10252000CA684968206801F0BBFD40212068EFE7D8
:10253000226801461046EBE7704770B50446006814
:1025400001694FF00005C943890715D4C168C94323
:10255000890711D4E91E0161012020772068806974
:102560008007204602D0FFF7E7FF04E000F098F86C
:10257000204600F096F8257720680169C94349078D
:1025800017D4C168C943490713D46FF0040101612E
:10259000022020772068806910F4407F204602D016
:1025A000FFF7CAFF04E000F07BF8204600F079F85E
:1025B000257720680169C943090716D4C168C94352
:1025C000090712D46FF00801016104202077206808
:1025D000C0698007204602D0FFF7AEFF04E000F09C
:1025E0005FF8204600F05DF8257720680169C9434F
:1025F000C90617D4C168C943C90613D46FF01001C6
:102600000161082020772068C06910F4407F2046CF
:1026100002D0FFF791FF04E000F042F8204600F0FE
:1026200040F8257720680169C943C90708D1C16806
:10263000C943C90704D1891E0161204600F032F860
:1026400020680169C943090609D4C168C94309065C
:1026500005D46FF0800101612046FFF75BFE206822
:102660000169C943490609D4C168C943490605D46B
:102670006FF040010161204600F01EF820680169FA
:10268000C94389060BD4C168C943890607D46FF0D2
:10269000200101612046BDE87040FFF73CBE70BDDF
:1026A0007047704700680349884201D1FFF7CCBAF0
:1026B00070470000000001407047704770B5026825
:1026C00004461068D168536910F00F0F53D003F01F
:1026D000010501F490762E435FD0C20705D0CA05EC
:1026E00003D5E26B42F00102E263420705D5DA0747
:1026F00003D0E26B42F00202E263820705D5DA07FB
:1027000003D0E26B42F00402E263020707D501F056
:1027100020022A4303D0E26B42F00802E263E26B3C
:10272000002A34D0800604D5880602D5204601F060
:1027300041FD20684069E16BC0F3801001F00801A1
:102740000143204624D001F01EFD2068416949065E
:102750001AD5416921F040014161606BA0B11B496C
:102760000165606BFEF7D3FF002810D0606B016D30
:10277000BDE87040084783060FD58B060DD520466F
:10278000BDE8704001F016BD2046FFF796FF70BD12
:10279000FFF793FF0020E06370BD030606D50B062C
:1027A00004D52046BDE8704001F0CCBD4006F3D50D
:1027B0004806F1D5D168204621F04001D1602021A2
:1027C00084F8391000F024FA70BD0000E7400008DA
:1027D00070B5040004D094F83900002510B106E06B
:1027E000012070BD84F83850204600F023F82420E2
:1027F00084F839002068C16821F40051C160204686
:1028000001F024FD2068016921F4904101612068F4
:10281000416921F02A0141612068C16841F40051F9
:10282000C160E563202084F8390084F83A00002074
:1028300070BD00002DE9F04F87B0044614216846B2
:10284000FDF768FDC048DFF8FC8214380221D4F897
:1028500000C0DFF8F4A203220723DFF8F0E28F06BE
:1028600000250615C44542D1DAF8008048F010086A
:10287000CAF80080DAF800C00CF0100CCDF814C0D3
:10288000D0F800C04CF0010CC0F800C0006800F0A7
:102890000100059050028DE8230069467046CDE99D
:1028A0000323FFF7B9F8DFF8AC82A9494046C8F81E
:1028B0000010C0E90175C0E90356C8F81450C8F803
:1028C0001850C8F81C50C8F82050C8F82450FFF71A
:1028D00001F808B1FEF7EFFAC4F8348000220521B0
:1028E0002520C8F83840FFF735FA25206BE0DFF8DF
:1028F0006882DFF854B24FF04009ABF1040BC445D5
:1029000066D1DBF8008048F40038CBF80080DBF8B3
:1029100000C00CF4003CCDF814C0D0F800C04CF05E
:10292000010CC0F800C0006800F0010005900C2008
:102930008DE8230069467046CDE90323FFF76CF864
:10294000DFF81082854908F160084046C8F8001099
:10295000C0E90175C0E90356C8F81450C8F818500A
:10296000C8F81C50C8F82050C8F82450FEF7B2FF31
:1029700008B1FEF7A0FAC4F83480C8F83840DFF890
:10298000D481764908F1C00840461831C0E90356A1
:10299000C8F81450C8F81850C8F81C50C8F820508F
:1029A00088E88202C8F82450FEF794FF08B1FEF7C9
:1029B00082FAC4F83080002205212620C8F8384069
:1029C000FFF7C8F92620FFF7B7F907B0BDE8F08F89
:1029D000DFF88C81DFF88CE1C4455FD1DBF8008043
:1029E000AA4648F48028CBF80080DBF800C00CF43D
:1029F000802CCDF814C0D0F800C04CF0040CC0F806
:102A000000C0006800F0040005904FF440608DE8BD
:102A1000230069467046CDE90323FEF7FDFF4F49C9
:102A2000DFF8448160394046C8F80010C0E90175FC
:102A3000C0E90356C8F81450C8F81850C8F81C501C
:102A4000C8F82050C8F82450FEF744FF08B1FEF73C
:102A500032FA454D4148C4F8348060353038C8F802
:102A6000384085E88102C5E903A6C5F814A0C5F879
:102A700018A0C5F81CA0C5F820A02846C5F824A0B9
:102A8000FEF728FF08B1FEF716FA2563002205219C
:102A90002720AC63FFF75EF9272094E7334B9C4572
:102AA00093D1DAF8007047F02007CAF80070DAF81E
:102AB000003003F020030593036843F00403036030
:102AC000006800F004000590C0208DE82300082075
:102AD000CDE9032069467046FEF79EFF224F1C4851
:102AE000C037183838604FF02068C7E90185C7E95A
:102AF00003567D61BD61FD613D6238467D62FEF732
:102B0000E9FE08B1FEF7D7F96763BC63184F1048B8
:102B1000C7E903567D61BD61FD613D6260307D6244
:102B200087E801033846FEF7D5FE08B1FEF7C3F982
:102B30002763002205214720BC63FFF70BF94720DC
:102B400041E700000010014044380240000002400C
:102B500040640240E00500200044004088600240DC
:102B60000048004000080240000700200014014017
:102B70002008002037B5044690F83A0082B013468A
:102B800020283AD1039AAAB3A3B394F838000128B5
:102B900033D0012084F83800A262A3850025E563C4
:102BA000222084F83A00616B1548C863616B1548B0
:102BB0000864616B1448C864606B05652168606BCC
:102BC000091DFEF7F1FE206801684168009184F854
:102BD0003850C16841F48071C1602068416941F09A
:102BE000010141612068416941F0400141610020DB
:102BF00005B030BDFFE70120FAE70220F8E700004A
:102C0000414100087D410008F740000870477047C7
:102C10007047FEE70F4C03200F4DC4F83C02D4F878
:102C200088004168082903D1006808B9606850B17C
:102C3000084800F02DFFD4F88800FDF7C9FE0120F8
:102C400002F018FAEBE7A86802F0AAFD286902F082
:102C50001BFEF4E7900900200800002070B51D4A13
:102C60001B4B5068D3F8601200F54870814203D3C3
:102C700051601078401E107092F90000441C13D06F
:102C8000154CB0B101258540D3F83C3250682B4239
:102C900000F516700BD081420BD201220121204693
:102CA000FEF799FF00220CE00820107070BD8142F1
:102CB00001D30022F2E7002201212046FEF78BFF1C
:102CC00001222046BDE870400221FEF784BF0000CB
:102CD0009009002000010020000802400948D0F8B7
:102CE0003C02C10707D0012807D0032807D00528D8
:102CF00007D1FEF711B9FFF7B1BFFDF759BEFEF7D7
:102D00001BB97047900900200F4810B50D490160AC
:102D10000321416000214FF4C0228160C0E9031209
:102D20004FF4A0024261017641768176C176017747
:102D30004177FEF7AAFB002803D0BDE81040FEF75C
:102D4000BAB810BD00640040BC0100200F4810B5A7
:102D50000D4901600321416000214FF4C0228160D0
:102D6000C0E903124FF4A0024261017641768176F8
:102D7000C17601774177FEF788FB002803D0BDE8D4
:102D80001040FEF798B810BD00680040E401002034
:102D9000254808B5016841F400110160016801F49B
:102DA00000110091016841F4800101600068002277
:102DB00000F48000009005210C20FEF7CBFF0C20D2
:102DC000FEF7BAFF002205210E20FEF7C3FF0E20FA
:102DD000FEF7B2FF002205211020FEF7BBFF1020F6
:102DE000FEF7AAFF002205211120FEF7B3FF1120F4
:102DF000FEF7A2FF002205213920FEF7ABFF3920A4
:102E0000FEF79AFF002205213A20FEF7A3FF3A20A1
:102E1000FEF792FF002205214520FEF79BFFBDE84B
:102E200008404520FEF788BF3038024010B59CB0FE
:102E30001C2218496846FDF754FA0021684602F042
:102E400025F9154C13491C2260601C3107A8FDF7B9
:102E500048FA002107A802F019F90E49A0601C22C7
:102E600038310EA8FDF73DFA00210EA802F00EF948
:102E70000849E0601C22543115A8FDF732FA002100
:102E800015A802F003F92061A06802F0FDFC1CB057
:102E900010BD0000E45C00080800002070B586B09A
:102EA00014216846FDF736FA2F480024016841F0E6
:102EB00080010160016801F080010591016841F025
:102EC00004010160016801F004010591016841F00D
:102ED00001010160016801F001010591016841F003
:102EE000020101600068214E00F0020005900022FE
:102EF00041F203013046FEF76EFE032000900125EB
:102F0000CDE90154694630460394FEF785FD18204B
:102F10008DE8310069463046FEF77EFDC020CDE9E0
:102F20000004694612480294FEF776FDE802CDE9F6
:102F3000000469460F480294FEF76EFD4FF440709E
:102F4000CDE90004694630460294FEF765FD28038A
:102F5000CDE900050220CDE9020469463046FEF7BE
:102F60005BFD06B070BD0000303802400008024032
:102F70000000024000040240094810B50749016002
:102F80000021416040F6FF718160FEF72FFE0028AE
:102F900003D0BDE81040FDF78EBF10BD00300040EB
:102FA0004C0C002010B586B0002417480094019402
:102FB0000294039404944FF08041059401605321DE
:102FC000C0E9011440F2F311C0E9031480218161CA
:102FD000FFF7EAF908B1FDF76EFF4FF4805000905B
:102FE00069460948FFF73DFA08B1FDF764FF04940C
:102FF00004A905480594FFF78FF9002801D0FDF7D3
:103000005AFF06B010BD00006004002010B586B065
:1030100000241748009401940294039404941349E3
:10302000059401605321C0E9011440F2E731C0E981
:10303000031480218161FFF7B7F908B1FDF73BFF69
:103040004FF48050009069460948FFF70AFA08B12A
:10305000FDF731FF049404A905480594FFF75CF9D6
:10306000002801D0FDF727FF06B010BD0004004086
:10307000A00400200C4810B50A4901604FF4E1316A
:103080004160002181600422C160C0E904128161B5
:10309000C161FFF79DFB002803D0BDE81040FDF79C
:1030A0000ABF10BD00100140E00400200C4810B51C
:1030B0000A4901604FF4E1314160002181600C2236
:1030C000C160C0E904128161C161FFF781FB002882
:1030D00003D0BDE81040FDF7EEBE10BD0044004037
:1030E000200500200D4810B50B4901604FF4E13177
:1030F000416000214FF480628160C0E903120C221C
:10310000C0E90521C161FFF763FB002803D0BDE8DA
:103110001040FDF7D0BE10BD004800406005002003
:103120000D4810B50B4901604FF4E13141600021B9
:103130004FF480628160C0E903120C22C0E90521CE
:10314000C161FFF745FB002803D0BDE81040FDF743
:10315000B2BE10BD00140140A0050020FEE7000033
:1031600070B504462DED088BB0EE408AF0EE608A13
:10317000D0F8885080682035002801DBA06802E084
:1031800000F5D810A0606FF4D8216E4A01449FED7D
:103190006E9B914227D2A0F5D820FDF74EFA53EC52
:1031A000182BFDF76FFA09D2606800F5D820FDF7FB
:1031B00044FA53EC182BFDF779FA7DD3A068FDF79C
:1031C0003CFA53EC182BFDF771FA24D26EE0FDF7B0
:1031D00081FAA06795ED000AB1EE400A85ED000A7C
:1031E000BDEC088B70BD9FED5ABBB0F5D82F4ADA05
:1031F00000F5D820FDF721FA53EC182BFDF742FA21
:103200001ED2A06800F5A210FDF717FA53EC182B98
:10321000FDF74CFA14D26068FDF70FFA41EC1A0B77
:10322000A068FDF70AFA53EC182BFDF722F953ECCE
:103230001A2BFDF77AF853EC192BFDF717F9C6E7AF
:10324000A06800F5D820FDF7F8F953EC182BFDF72E
:103250002DFA4CD36068FDF7F0F941EC1A0BA06829
:10326000FDF7EBF941EC190B53EC1B2B51EC180B50
:10327000FDF7FCF85CE051EC100BFDF756F8FDF79C
:1032800029FAA067ACE7A0F5D820FDF7D6F953ECF2
:10329000182BFDF70BFA20D2A068A0F5A210FDF7BD
:1032A000CCF953EC182BFDF7EDF916D26068FDF759
:1032B000C4F941EC1A0B00E019E0A068FDF7BDF974
:1032C00053EC182BFDF7D5F853EC1A2BFDF72DF81E
:1032D00053EC192BFDF729F879E7A068A0F5D82061
:1032E000FDF7ABF953EC182BFDF7CCF910D2606861
:1032F000FDF7A3F941EC190BA068FDF79EF953EC1B
:10330000182BFDF7B6F841EC100B53EC192BB2E774
:103310006068FDF792F941EC1A0BA068FDF78DF992
:1033200041EC190B53EC1B2B51EC180BFCF7FDFF78
:1033300053EC192BFDF79AF841EC100B53EC1A2BB8
:1033400099E70000FF7F0D000000000000002B4106
:103350000000000000003B4100F87C1F0249816032
:1033600000218180817070471C00002010B5A1F5FC
:103370000071013912D0012912D0022913D003297A
:1033800014D10B4C002C11D00146204600F0CEFB8E
:1033900004F17E00BDE81040FDF78EBD054CF1E75D
:1033A000044C8C34EEE7024C8C3CEBE710BD000083
:1033B000340B00209009002005490520C1F83C028B
:1033C00000F008F8FDF7D0FC012001F053FEF7E70C
:1033D0009009002070B5574C2DED0A8B94ED8C0AA6
:1033E00060EE000A94ED8D0A40EE000A10EE900A9D
:1033F000FDF734F941EC100B01F0D6FC9FED4E1BAC
:1034000051EC100B53EC112BFDF736F84C4DC5E980
:10341000020194ED8E1A9FED4B0B9FED4C8B9FEDAF
:103420004DAB9FED4EBBB5EEC01AF1EE10FA16DBB8
:1034300001F0AAF853EC182B51EC100BFDF71CF817
:1034400053EC182BFDF718F841EC180BD4F83802A0
:10345000FDF704F941EC100B53EC182B2FE0B0EE04
:1034600040CAF0EE60CA01F08FF853EC182B51EC13
:10347000100BFDF701F853EC182BFCF7FDFF41ECA6
:10348000190BB0EE4C0AF0EE6C0A01F07DF853EC2B
:10349000182B51EC100BFCF7EFFF53EC182BFCF73B
:1034A000EBFF41EC180BD4F83802FDF7D7F853ECDA
:1034B000182BFCF73AFF53EC192B41EC100B51EC95
:1034C000100BFDF74BF853EC1A2BFCF7D5FF53EC20
:1034D0001B2BFCF7D1FFC5E9000195ED020B51EC68
:1034E000100BFDF7F7F8D4F888100862D4F814111F
:1034F0000862D4F8A0110862D4F82C12086295ED85
:10350000000B0C48FFF72CFE0A4895ED000B8C30A1
:10351000FFF726FE95ED000B1248FFF721FE95ED13
:10352000000B1048BDEC0A8B8C30BDE87040FFF7F3
:1035300017BE000090090020000000000000244099
:10354000200100200000000000000000000000003A
:1035500000000040000000000000C040000000002B
:1035600000006B40A80A002070470000254B10B5F2
:10357000C0F345125C6900F01F00944201D11C4663
:1035800011E09B6C934201D11E4C0BE01D4B683344
:103590005C69944201D11C4605E09B6C934230D19A
:1035A000184C68343434012806D0032809D0042884
:1035B0000AD009281BD10AE00868206048686060CA
:1035C00015E00868E06012E0086820610FE0087903
:1035D0004A7940EA02208A79C97940EA024040EA01
:1035E000016000EE100AB8EE400A84ED070A206878
:1035F00008B1FDF760FC04F12C00BDE81040FDF7B8
:103600005BBC10BDC008002010B504003AD0608D2E
:1036100001F01F021043608509291AD006DC032936
:103620000BD004290DD0072922D10EE00A2914D08D
:103630000D2916D016291BD117E02046FDF762FC94
:1036400016E02046FDF748FC12E0204600F038FB6B
:103650000EE02046FDF74CFC0AE02046FDF730FC6A
:1036600006E0204600F04AFB02E0204600F08CFA1B
:10367000216B012081F82000A08A4FF6FF7101EA3A
:103680004010608510BD0000C0ED051A80ED0B3ABA
:1036900080ED062AC0ED082A80EC030A9FED060A99
:1036A00080ED030A80ED040A80ED070A80ED090A27
:1036B00080ED0A0A704700000000000010B590ED90
:1036C000010AD0ED1E0AB8EEC00A70EEC00AC0EDC5
:1036D000090A90ED0B0AF4EEC00AF1EE10FA01DDD2
:1036E00080ED090AD0ED090AB1EE400AF4EEC00AF5
:1036F000F1EE10FA02D3B0EE600A01E080ED090AA3
:10370000DFED8A1AB5EEC00AF1EE10FA08DDD0ED51
:103710000C0AB4EEE00AF1EE10FA01D2C0ED091A7B
:1037200090ED090AB5EEC00AF1EE10FA08D2D0ED1C
:103730000C0AB4EEE00AF1EE10FA01DDC0ED091A50
:10374000D0ED0D0A90ED090A30EE801A80ED0D1AC9
:10375000D0ED0E0AB4EEE01AF1EE10FA01DDC0ED84
:103760000D0A90ED0D1AF1EE600AB4EEE01AF1EEDA
:1037700010FA01D2C0ED0D0AD0ED0A0A30EE601A3F
:1037800080ED0F1A80ED0A0AD0ED060A90ED0D2AA1
:1037900060EE800A90ED070A40EE020A90ED080AFA
:1037A00040EE010AC0ED100A90ED110AF4EEC00AD5
:1037B000F1EE10FA01DD80ED100AD0ED100AB1EE45
:1037C000400AF4EEC00AF1EE10FA01D280ED100AC0
:1037D000B0F90010D0ED100A00EE101AB8EEC00AD1
:1037E00070EEC00AC0ED150A90ED170AF4EEC00A9B
:1037F000F1EE10FA01DD80ED150AD0ED150AB1EEFB
:10380000400AF4EEC00AF1EE10FA02D3B0EE600AFC
:1038100001E080ED150AB5EEC00AF1EE10FA08DD00
:10382000D0ED180AB4EEE00AF1EE10FA01D2C0EDC4
:10383000151A90ED150AB5EEC00AF1EE10FA08D28D
:10384000D0ED180AB4EEE00AF1EE10FA01DDC0ED99
:10385000151AD0ED190A90ED150A30EE801A80ED98
:10386000191AD0ED1A0AB4EEE01AF1EE10FA01DDE1
:10387000C0ED190A90ED191AF1EE600AB4EEE01AE3
:10388000F1EE10FA01D2C0ED190AD0ED160A30EEB1
:10389000601A80ED1B1A80ED160AD0ED120AD0EDE9
:1038A000191A60EE800A90ED130A40EE210A90ED9D
:1038B000140A40EE010AC0ED1C0A90ED1D0AF4EE58
:1038C000C00AF1EE10FA01DD80ED1C0AD0ED1C0AF1
:1038D000B1EE400AF4EEC00AF1EE10FA02D3B0EEF7
:1038E000600A01E080ED1C0ABDEEC00A90F87C3051
:1038F000182410EE101AD0F8842004EB43030912A8
:10390000D15490ED1C0A90F87C301924BDEEC00A09
:10391000D0F8842004EB430310EE101AD154D0F8F1
:103920008400012180F8201010BD0000000000007C
:1039300010B5B0F90020891A00EE101AF8EEC00A8E
:10394000C0ED150A90ED170AF4EEC00AF1EE10FA78
:1039500001DD80ED150AD0ED150AB1EE400AF4EE56
:10396000C00AF1EE10FA02D3B0EE600A01E080ED79
:10397000150ADFED460AB5EEC00AF1EE10FA08DDD1
:1039800090ED181AB4EEC10AF1EE10FA01D2C0EDB2
:10399000150A90ED150AB5EEC00AF1EE10FA08D23C
:1039A00090ED181AB4EEC10AF1EE10FA01DDC0ED87
:1039B000150AD0ED190A90ED150A30EE801A80ED47
:1039C000191AD0ED1A0AB4EEE01AF1EE10FA01DD80
:1039D000C0ED190A90ED191AF1EE600AB4EEE01A82
:1039E000F1EE10FA01D2C0ED190AD0ED160A30EE50
:1039F000601A80ED1B1A80ED160AD0ED120AD0ED88
:103A0000191A60EE800A90ED130A40EE210A90ED3B
:103A1000140A40EE010AC0ED1C0A90ED1D0AF4EEF6
:103A2000C00AF1EE10FA01DD80ED1C0AD0ED1C0A8F
:103A3000B1EE400AF4EEC00AF1EE10FA02D3B0EE95
:103A4000600A01E080ED1C0ABDEEC00A90F87C30EF
:103A5000182410EE101AD0F8842004EB4303091246
:103A6000D15490ED1C0A90F87C301924BDEEC00AA8
:103A7000D0F8842004EB430310EE101AD154D0F890
:103A80008400012180F8201010BD0000000000001B
:103A900070B5054690F87C001F494418287C002822
:103AA00039D02078962836D24FF496712846FFF701
:103AB0003FFF1A481A4E854207D140213046FEF793
:103AC00085F810B92078401C207014488C3085424D
:103AD00007D180213046FEF779F810B92078401CD4
:103AE00020701048104E854207D1B1153046FEF7C0
:103AF0006DF810B92078401C20700A488C3085423F
:103B000009D14FF400713046FEF760F8002802D169
:103B10002078401C207070BD3901002090090020E1
:103B200000000240A80A00200008024010B50A88E0
:103B300053BA43804A8852BA12B202808C8864BA5F
:103B40004482897901748AB1818A4268591A09B21A
:103B50000A44426011F5805F02DA02F5005204E087
:103B6000B1F5805F02DDA2F50052426083824268B7
:103B70004FF4D81192FBF1F16FF01A03C160594371
:103B800002EB0141816010BD08B500210091418D1B
:103B9000006B0023014A00F08BF808BD30010020C3
:103BA00070B500282DED048B76D00188C1F30A0290
:103BB0003B498A8042788378D20842EA4312C2F3B2
:103BC0000A02CA808278C378920942EA83020379A2
:103BD00042EA8322C2F30A020A80037944795B082D
:103BE00043EAC413C3F30A034B801C4643799B0981
:103BF0000B724379C3F301134B72C3884B81038962
:103C00008B814389CB81037B0B74437B4B74837B18
:103C10008B74C07BC874A2F58060FCF70EFD9FED2D
:103C2000218B53EC182BFCF799FCFCF753FD1F4D2F
:103C300009EE100AA4F5806085ED8C9AFCF7FDFC76
:103C400053EC182BFCF78AFCFCF744FD00EE100A3D
:103C5000B5EEC09A85ED8D0AF1EE10FA04D1B5EEFD
:103C6000C00AF1EE10FA17D010EE100AFCF7F6FCBD
:103C700041EC180B19EE100AFCF7F0FC41EC100BAC
:103C8000B0EE481AF0EE681A00F096FF51EC100BF7
:103C9000FCF720FDC5F83802BDEC048B70BD0000B8
:103CA000080100200000000000A0844090090020CE
:103CB000009AC26000228260016002750361704751
:103CC00008B50246007A116B0876116B507A487677
:103CD000116B508D0860116B012081F82000106B72
:103CE000FDF724F800200090518D106B0423024A48
:103CF000FFF7DEFF08BD0000310100200168002948
:103D000015D1026B016A1176036B0A0A5A76036BAE
:103D10000A0C090E9A76026BD176026B418D116006
:103D2000026B012182F82010006BFCF7FFBF704787
:103D30000026164D164C01271648FDF77FFFFEF7AB
:103D4000CDFF95F83C02C0070FD12078C8B1E068DC
:103D500001F09AFDA06801F097FD206901F094FD43
:103D6000267095F83C02C0070BD0207848B9E0686F
:103D700001F016FDA06801F013FD206901F010FDAF
:103D80002770012001F076F9D6E7000090090020A5
:103D9000080000204C0C002010B5502080F3118842
:103DA000BFF34F8FBFF36F8F01F0D6FE18B10449F8
:103DB0004FF080500860002080F3118810BD000093
:103DC00004ED00E030B593B030216846FCF7A2FA6C
:103DD00014210CA8FCF79EFA1A480025016841F04E
:103DE00080510160006800F0805011901648016811
:103DF00041F4804101600068022400F48040119089
:103E0000092000904FF4803001900120CDE9050495
:103E10008005079008AA0420A82182E813000B90CF
:103E20006846FEF7D3F80CA90F2081E831004FF463
:103E3000A0500F90E002109005210CA8FDF7BCFFE8
:103E400013B030BD403802400070004005480168A2
:103E500041F47001016003494FF00060803908604F
:103E60007047000088ED00E0017070470148FEF7E0
:103E700064BB0000800800200148FEF75EBB000024
:103E8000600400202DE9F0474648FEF756FB464CFB
:103E9000DFF818810821D4F86002401CC4F86002E1
:103EA0004046FDF793FE0127414D00264FF480590F
:103EB00010B12E706E602FE0686810B9D4F86002FF
:103EC0006860D4F860026968401AC82829D928783F
:103ED000D0B954F8880F1621FFF796FB2F70206891
:103EE00003212C30FFF7C0FFD4F88C0003212C30C5
:103EF000FFF7BAFF00212068FCF7ACFDD4F88C0076
:103F00000121883CFCF7A6FDD4F860026968401ADC
:103F1000E62801D2012200E0002249464046FDF792
:103F20005AFE10214046FDF751FE18B16E70AE608A
:103F3000BDE8F087A86810B9D4F86002A860D4F88A
:103F40006002A968401AC828F2D96878D8B9162141
:103F5000D4F8A001FFF758FB6F70D4F8A00103213B
:103F60002C30FFF781FFD4F82C0203212C30FFF70F
:103F70007BFF0221D4F8A001FCF76CFD0321D4F8EB
:103F80002C02FCF767FDD4F86002A968401AE62805
:103F900001D2012200E0002249464046BDE8F04738
:103FA000FDF719BEA004002090090020000802407F
:103FB000F4000020F0B50268254D264E264FDFF8AC
:103FC0009CC0274B4FF0804EA84209D0704507D0C7
:103FD000B04205D0B84203D0604501D0984203D129
:103FE00022F070044A682243A8421BD0704519D0C1
:103FF000B04217D0B84215D0604513D0984211D0C6
:10400000184CA0420ED0184CA0420BD0174CA04226
:1040100008D0174CA04205D0164CA04202D0164C36
:10402000A04203D122F44074CA6822434C6922F0B2
:104030008002224302608A68C2620A688262A842E1
:1040400001D0984201D10969016301214161F0BDAC
:10405000000001400004004000080040000C004047
:10406000000401400040014000440140004801407C
:1040700000180040001C00400020004010B584687B
:1040800042EA032224F47F440A432243826010BDA3
:10409000826822F070020A4342F007018160704793
:1040A00010B5046A036A23F001030362836923F0F5
:1040B000F00343EA021324F00A020A438361026216
:1040C00010BD10B5036A23F0100303628469036A0C
:1040D00024F4704444EA023223F0A00343EA0111BD
:1040E0008261016210BD10B5806B0021C185C18461
:1040F000FEF7E3FA10BD70B5846B2068406994F850
:104100003910C0F3C0100025212904D118B1E5846D
:10411000204600F046F82068406994F83A10C0F351
:104120008010222904D118B1E585204600F02BF833
:10413000E06B40F01000E0632046FEF7BEFA70BD71
:1041400010B50146806B09680968C90513D40021C0
:10415000C1850168CA6822F48072CA6001684A6930
:1041600022F001024A6101684A6922F040024A6174
:10417000202180F83A10FEF749FD10BD10B5806B84
:10418000FEF745FD10BD0168CA6822F49072CA604E
:1041900001684A6922F001024A61202180F83A1040
:1041A00070470168CA6822F0C002CA60202180F806
:1041B0003910704710B590F83A10222901D002202A
:1041C00010BD8168B1F5805F11D0016900290168D7
:1041D0001FD0496801F07F03816A4A1C82620B701C
:1041E000C18D491E0904090CC18518D02BE0026954
:1041F000816A002A0268526805D0D2B20A80816AB8
:10420000491C8162ECE7C2F308020A80816A891CBA
:10421000F7E74A68816A4B1C83620A70E0E701682D
:10422000CA6822F02002CA600168CA6822F480725B
:10423000CA6001684A6922F001024A61202180F8BF
:104240003A10FEF7E3FC002010BD00002DE9F0411C
:10425000044600680169E26821F44051114301619C
:10426000A1682069E2690143606910430143206845
:10427000C26849F20C639A430A43C26020684169EC
:10428000A26921F4407111434161E0691926642556
:104290003227B0F5004F294A294920684FF000081D
:1042A00006D0884201D090422AD1FDF74FFE29E086
:1042B000884201D0904202D1FDF748FE01E0FDF7AF
:1042C00035FE61684A18A0FB060148EB0803FBF7BE
:1042D000D7FFB0FBF5F10B016FF01802514300EB73
:1042E000810007EBC000B0FBF5F000F0F80103EB34
:1042F000410100F00700084421688860BDE8F081B2
:10430000FDF714FE01466068830F8200A1FB0601E1
:10431000FBF7B6FF0146B0FBF5F06FF01802424321
:1043200001EB820107EB0111B1FBF5F101F0F002A5
:1043300002EB001001F00F010844DDE7001401401A
:104340000010014090F83910212901D00220704757
:104350008168B1F5805F016A0BD04A1C0262026875
:1043600009785160C18C491E0904090CC1840ED022
:1043700017E009880268C1F308015160016900294A
:10438000016A02D0491C0162ECE7891CFBE7016865
:10439000CA6822F08002CA600068C16841F040012A
:1043A000C16000207047000010B50548FEF786F98F
:1043B000BDE81040034B044A0449014800F032B8FC
:1043C000E0040020A13B0008340C0020E0050020A0
:1043D00010B50548FEF772F9BDE810400023034A06
:1043E0000349014800F01EB820050020280C0020D9
:1043F000400600200148FEF761B90000600500207A
:1044000010B50548FEF75AF9BDE810400023034AED
:104410000349014800F006B8A0050020400C002028
:1044200020080020F8B5144602681D461268D243E1
:10443000D2062BD40A68136823F0010313600268C4
:104440000023166852680092096862894968511A07
:10445000CEB2217A51B123722168FEF78BFB6089BD
:10446000B04213D1002D11D060680AE00121217201
:104470006168FEF77FFB6089B04207D1002D05D04F
:10448000206801B0AC46BDE8F0406047F8BDFEE7EB
:1044900070B50A2000F0B8FD224C20600A2000F020
:1044A000B3FD606020480068C16841F01001C16040
:1044B00000250A202572608102461B482168FEF70C
:1044C00059FB142000F0A0FD183C2060142000F0DF
:1044D0009BFD606015480068C16841F01001C16033
:1044E000142025726081024610482168FEF742FBC5
:1044F000122000F089FD0C342060122000F084FDB1
:1045000060600B480068C16841F01001C160122072
:10451000257260812168BDE8704002460448FEF7BC
:1045200029BB0000400C0020A00500202005002031
:10453000E004002003B401984100009850EAC12033
:1045400018BF04204A0D18BF40F0010040F2FF726E
:10455000B2EB515F08BF40F00200012808BF052000
:1045600002B070470907090E002804DB00F1E020C3
:1045700080F80014704700F00F0000F1E02080F890
:10458000141D70470000000010B5B94A2DED020B54
:104590002DED0C8B82B00F9921F000409FEDB6CB32
:1045A000904232DBA0F140530E9AA3F17F631A438D
:1045B0009FEDB38B14D0B449884202DC1BD10E9816
:1045C000C8B19DED0E0B53EC102B51EC100BFBF70B
:1045D000ACFE41EC100B02B0BDEC0C8B02B010BD78
:1045E0000029C7BFB0EE480AF0EE680AB0EE4C0AE8
:1045F000F0EE6C0AEFE7012000F0B2FC53EC182B50
:1046000051EC180BFBF7AAFF5EE0A04A9FEDA09BC0
:104610009FEDA1AB90425ADAA1499FEDA3BB814225
:10462000A4BFB0EE4B0AF0EE6B0AD4DA9DED0E0B90
:1046300053EC102B51EC100BFBF71EFF41EC180B49
:104640009B480621B0EE480AF0EE680A784400F074
:10465000E8FB53EC182B51EC100BFBF70DFF41EC72
:104660001C0B9448B0EE480AF0EE680A0421784426
:1046700000F0D7FB53EC182B51EC100BFBF7FCFEB2
:1046800053EC192BFBF751FE41EC100B51EC1C0BBA
:1046900053EC102BFBF762FF41EC100B53EC102B8B
:1046A0009DED0E0B51EC100BFBF7E6FE53EC1A2BB5
:1046B000FBF7DFFE9DED0E1B53EC112BFBF7D9FE34
:1046C00053EC1B2BFBF7D5FE41EC100B83E79FED62
:1046D0007A8B9FED7BBB9DED0E0B002953EC192BC4
:1046E00051EC100B52DAFBF720FE53EC182BFBF7C2
:1046F000C3FE41EC180B74480621B0EE480AF0EEF8
:10470000680A784400F08DFB53EC182B51EC100B29
:10471000FBF7B2FE41EC1D0B6C48B0EE480AF0EE20
:10472000680A0421784400F07CFB53EC182B51EC10
:10473000100BFBF7A1FE53EC192BFBF7F6FD41EC38
:10474000190B51EC180B00F00BFF41EC180B53EC5C
:10475000192B51EC1D0BFBF701FF53EC182BFBF74A
:104760008BFE53EC1A2BFBF781FE41EC100B51EC46
:10477000180B53EC102BFBF7D8FD53EC1B2BFBF75E
:104780007BFE53EC1C2BFBF774FE9DE7FBF771FEE1
:1047900053EC182BFBF770FE41EC180B00F0E0FE19
:1047A00041EC1A0B00208DED00AB00909DED000B4D
:1047B00051EC1A0B53EC102BFBF7B7FD9DED000BE2
:1047C00041EC1C0B53EC102B51EC100BFBF754FE7F
:1047D00053EC182BFBF74DFE53EC1C2BFBF7BEFEE6
:1047E00041EC1C0B3A48B0EE480AF0EE680A06218C
:1047F000784400F016FB53EC182B51EC100BFBF730
:104800003BFE41EC1D0B3348B0EE480AF0EE680A5F
:104810000421784400F005FB53EC182B51EC100BED
:10482000FBF72AFE53EC192BFBF77FFD41EC100B35
:1048300051EC1D0B53EC102BFBF790FE53EC1A2B95
:10484000FBF71AFE53EC1C2BFBF76FFD41EC100B32
:1048500053EC102B9DED000B51EC100BFBF765FD9D
:1048600053EC1B2BFBF708FE2EE7000000000000B6
:104870000000F03F00000000182D4454FB210940C7
:1048800000000000000000000000F07F0000E03F9A
:10489000000000000000F03F075C143326A6913CA6
:1048A0000000603C00000000182D4454FB21F93F3B
:1048B0002817000036170000000000000000E03F4D
:1048C000000000000000004072160000801600008A
:1048D000841500009215000070B59D482DED020B67
:1048E0002DED068B079D25F00044A0421DDC994864
:1048F000844202DC0FD1069868B19DED060B53ECA3
:10490000102B51EC100BFBF710FDBDEC068B02B029
:1049100041EC100B70BD002DCCBF9FED8F0B9FEDB8
:10492000900BBDEC068B02B070BD8F48A04215DD28
:104930008E48A042D8BF4FF0FF3458DD9DED060BE6
:1049400051EC100BFFF7F6FD042808BF00F0E8FA61
:104950009DED060BBDEC068B02B070BD9DED060B08
:1049600051EC100B00F00AFBCDE9060180489FEDE9
:10497000828BA0423CDD8248A0421FDD00249FEDD7
:1049800082AB9DED060B53EC1A2B51EC100BFBF791
:10499000CCFC9DED060B41EC190B53EC1A2B51ECA2
:1049A000100BFBF769FD53EC182BFBF75FFD53EC85
:1049B000192BFBF7D3FDCDE9060149E09DED060B70
:1049C000012453EC182B51EC100BFBF7AEFC9DEDC2
:1049D000060B41EC190B53EC182B51EC100BFBF7A9
:1049E00045FD53EC192BFBF7B9FDCDE906012FE08E
:1049F0006748A0421FDD02249FED679B9DED060BDB
:104A000053EC192B51EC100BFBF736FD53EC182B24
:104A1000FBF78BFC9DED060B41EC180B53EC192BAF
:104A200051EC100BFBF722FD53EC182BFBF796FD16
:104A3000CDE906010CE09DED060B032453EC102B91
:104A40009FED570B51EC100BFBF788FDCDE90601EC
:104A50009DED060B53EC102B51EC100BFBF70CFDEE
:104A600041EC180B53EC182BFBF706FD41EC190B2E
:104A70004D480621B0EE490AF0EE690A784400F08C
:104A8000D0F953EC182B51EC100BFBF7F5FC41EC73
:104A9000180B4648B0EE490AF0EE690A0521784441
:104AA00000F0BFF953EC192B51EC100BFBF7E4FCB1
:104AB00041EC100B51EC180B53EC102B002C0EDAC0
:104AC000FBF733FC9DED061B53EC112BFBF7D4FCDD
:104AD0009DED061B53EC112BFBF7CBFC35E0FBF7F0
:104AE00024FC9DED061B53EC112BFBF7C5FC41ECA0
:104AF000100B2F48784400EBC40090ED001B51ECE4
:104B0000100B53EC112BFBF7B1FC9DED061B53EC86
:104B1000112BFBF7ABFC41EC100B2648784400EB63
:104B2000C40090ED001B51EC100B53EC112BFBF764
:104B3000A0FC41EC100B002DA2BFBDEC068B02B017
:104B400070BD51EC100B81F0004141EC100B01E7FE
:104B5000000010440000F07F182D4454FB21F93F61
:104B6000182D4454FB21F9BF0000DC3F0000203E1B
:104B70000000F33F00000000000000000000F03FD4
:104B80000000E63F000000000000000000000040C0
:104B90000080034000000000000000000000F83F1B
:104BA000000000000000F0BFB0130000661300001A
:104BB000F0120000A812000070B56B4E2DED040B32
:104BC0002DED028B82B0DDF81CC0DDE905235C42CF
:104BD0002CF000411C4341EAD474049D22F00040B3
:104BE000B44205D86C422C4340EAD474B44210D984
:104BF0009DED060B53EC102B9DED040B51EC100BAF
:104C0000FBF793FB41EC100B02B0BDEC028B04B040
:104C100070BDACF14054A4F17F641C430BD002245E
:104C200004EAAC7444EAD27405439FED518B9FEDC6
:104C3000522B07D010E09DED040B51EC100B00F04F
:104C400095F939E0002C14BF012C9DED040BDBD04D
:104C5000022C34D0032C37D00B439FED491B9FED22
:104C60004A0B0AD0B14218D1B04209D121F080419B
:104C700020F08040079105900FE0002AC4DA10E090
:104C8000434B7B44002C08BF93ED000BBCD0012CA0
:104C90000CD0022C13D0032C16D0B04219D1002A0C
:104CA000B2DAB0EE410AF0EE610AADE793ED000B27
:104CB00051EC100B81F0004141EC100BA4E7B0EE79
:104CC000480AF0EE680A9FE7B0EE420AF0EE620A88
:104CD0009AE7401A00153C28C8BF8DED000B19DC7F
:104CE000BCF1000FBEBF10F13C0F9FED2B0B8DED03
:104CF000000B0FDB9DED060B53EC102B9DED040B11
:104D000051EC100BFBF72AFC00F038F900F02EF9FB
:104D1000CDE90001002C08BF9DED000B3FF474AFFE
:104D2000012C10D0022C9FED1E0B53EC102B9DED8F
:104D3000000B51EC100B0DD0FBF798FB53EC182B2C
:104D4000FBF794FBB8E7019880F0004001909DEDDF
:104D5000000B59E7FBF78AFB53EC182BFBF789FB99
:104D6000AAE70000000000000000F07F0000000043
:104D7000182D4454FB210940182D4454FB2109C02F
:104D8000182D4454FB21F9BF182D4454FB21F93F41
:104D9000DA11000000000000000000000000000028
:104DA000075C143326A6A13C00B52DED048BB0EEB4
:104DB000409AF0EE609A83B051EC190BFBF769FD55
:104DC00041EC180B18EE100A18EE901A8DED008BBE
:104DD000002818BF0120084320F00040C0F17F6088
:104DE00000F1E040C00F14D019EE101A19EE900A2D
:104DF0008DED009B002918BF0121084320F00040E1
:104E0000C0F17F6000F1E040C00F04BF012000F05E
:104E1000A7F8B0EE480A03B0F0EE680ABDEC048BC8
:104E200000BD70B504462DED028B4D1E00EBC50094
:104E3000B0EE408AF0EE608A90ED000B35F006008F
:104E400017D053EC182B51EC100BFBF715FB41EC72
:104E5000100B6D1E04EBC50090ED001B51EC100B08
:104E600053EC112BFBF761FA41EC100B35F0060007
:104E7000E7D1022D36D0042D1CD0062D1CBFBDEC71
:104E8000028B70BD53EC182B51EC100BFBF7F4FAAE
:104E900094ED0A1B53EC112BFBF747FA53EC182B3C
:104EA000FBF7EAFA94ED081B53EC112BFBF73DFAE4
:104EB00041EC100B53EC182B51EC100BFBF7DCFA08
:104EC00094ED061B53EC112BFBF72FFA53EC182B28
:104ED000FBF7D2FA94ED040B53EC102BFBF725FAF9
:104EE00041EC100B53EC182B51EC100BFBF7C4FAF0
:104EF00094ED021B53EC112BFBF717FA53EC182B14
:104F0000FBF7BAFA94ED001B53EC112BFBF70DFAEB
:104F1000BDEC028B41EC100B70BD000000000000E6
:104F20009FED050B10B553EC102B51EC100BFBF75C
:104F3000A3FA41EC100B10BD0000000000000010AF
:104F400002E008C8121F08C1002AFAD17047704752
:104F5000002001E001C1121F002AFBD170470000B0
:104F60000149086070470000B801002010B541EC0D
:104F7000100BFFF7B1FC51EC100B10BD82B0CDE966
:104F8000000121F0004001909DED000B02B051ECBA
:104F9000100B7047FCF760FEFEF714FFFCF7E6FF0E
:104FA00013490860FDF77AFFFDF7F2FEFDF7ACFE4E
:104FB000FDF7CCFEFDF7F6FFFEF75CF8FEF776F89E
:104FC000FEF790F8FEF7ACF8FEF720F8FDF7D4FFF7
:104FD0000848FBF76FFE0848FDF732FAFFF758FA6A
:104FE000FBF75CFDFDF722FF00F04BF8FEE7000049
:104FF00000000020BC010020A00400200146002089
:10500000842900D0C81C7047F0B50B30154D20F036
:1050100007010024144A0FE003688B420BD38B4234
:1050200005D95E1A43184768C3E9006700E0436882
:10503000136002C004E0021D10680028ECD1204675
:10504000002802D1286808B10020F0BD064A0748B0
:105050001060074A121A22F00702C0E9002401205A
:105060002860D7E7B4010020B00100204C4900209F
:10507000484B002010B500B9012000F06BFB002068
:1050800010BD10B500F0CAFB002010BD7FB50D4665
:1050900004464169B0F9080081B1A16971B1FFF717
:1050A000ADFFD4E905128DE80700D4E900102B46C6
:1050B000226900F024FD039004B070BDFFF79EFF4D
:1050C00003A9CDE90001208A2B4682B2D4E9001061
:1050D00000F0E8FC012801D00020EDE70398EBE7A1
:1050E0002DE9F041184E0F46044675693068001DE1
:1050F00000F06DFA38B9306890F82C100120884023
:10510000B1698143B161601C07D137B13168BDE835
:10511000F0410E48091D00F09DBA30682C44AC42A5
:105120004460316805D2B068BDE8F041091D00F067
:1051300079BA7068091D00F075FA306B844200D2AC
:105140003463BDE8F081000050010020340D0020E0
:105150002DE9F041054600F089FA2E4E3069401CD9
:10516000306130682C4F10B1F06940B32DE03560EC
:105170003069012829D1002404EB840007EB80006A
:1051800000F042FA641C072CF6D323488C3000F060
:105190003BFA2148A03000F037FA1F48B43000F045
:1051A00033FA1D48C83000F02FFA1B48DC3000F0FD
:1051B0002BFA19488C3070601430B06005E030680C
:1051C000E96AC06A884200D83560F06A0121401C53
:1051D000F062E86AB26981401143B16100EB80007E
:1051E00007EB8000291D00F035FA00F05FFAF06946
:1051F00000280CD03068E96AC06A884207D20749A3
:105200004FF080500860BFF34F8FBFF36F8FBDE842
:10521000F081000050010020580C002004ED00E057
:1052200010B5044690F8510058B101280CD002285E
:105230000FD0502080F31188BFF34F8FBFF36F8FD3
:10524000FEE7206B00F046FA2046BDE8104000F073
:1052500041BA10BD10484FF47051420706D0C01D2E
:105260000D4920F00700411AC1F570510B4A002387
:105270000144C2E900030839103A21F00701116026
:105280004B600B600B1AC0E9001393604FF00040B5
:105290005360D06070470000480D00209C01002042
:1052A000134E144DA6F1C8074FF08058DFF8489010
:1052B00011E000F0DBF9F068C468201D00F087F908
:1052C0002869401E2861E868401EE86000F0EEF999
:1052D0002046FFF7A5FFE8680028EAD138680128D2
:1052E000F9D9C9F80080BFF34F8FBFF36F8FF2E792
:1052F000200D00205001002004ED00E02DE9F047D2
:105300009A46DDE9098481466FF00303206B03EBC5
:1053100082021044089D20F00706700707D0502035
:1053200080F31188BFF34F8FBFF36F8FFEE7002725
:1053300061B1002023180A5C83F834200A5C12B1A2
:10534000401C1028F6D384F8437001E084F83470D0
:10535000072D00D30625E562C4E91157201D00F092
:105360005EF904F1180000F05AF92461C5F1070054
:105370006462A061E76484F8507052464946304642
:1053800000F0D8F82060B8F1000F01D0C8F8004054
:10539000BDE8F08730B5114900E011460A68824245
:1053A000FBD34B685C18844203D1406818444860C2
:1053B000084643681C18944209D1084C103C2468E4
:1053C000A24209D052681A4442600A681268026018
:1053D000814200D0086030BD0460F9E79C010020E4
:1053E00006484168096829B14168C968C9684968BF
:1053F000016370474FF0FF31FAE7000050010020D1
:1054000008484068401C4FF0500080F3118804D0D9
:10541000BFF34F8FBFF36F8FFEE7BFF34F8FBFF325
:105420006F8FFEE7A4010020002150B10A4B4269B2
:105430009A420FD1806AA3F1280290420AD040B16B
:1054400008E0502080F31188BFF34F8FBFF36F8FB8
:10545000FEE7012108467047340D00202DE9F04198
:105460000546002600F06EFA314F386808B9FFF79C
:10547000F1FEF86805424BD1C5B3083568070ED078
:1054800005F00700C0F108000544680707D0502068
:1054900080F31188BFF34F8FBFF36F8FFEE72DB3FB
:1054A0007868854234D8224910310846046801E002
:1054B000214604466068A84202D220680028F7D13D
:1054C0003868844224D00E68206808606068083616
:1054D000411B10290FD96019420708D0502080F3D2
:1054E0001188BFF34F8FBFF36F8FFEE710E041606D
:1054F0006560FFF74FFF61687868401A7860BA68A6
:10550000904200D2B860F86801430020C4E900016D
:1055100000F086FB700707D0502080F31188BFF39E
:105520004F8FBFF36F8FFEE73046BDE8F08100007C
:105530008C01002010B5031F4FF080741C601B1FEE
:1055400021F001011960191F044B0B6014390A6026
:10555000091F6FF0020244380A6010BD01540008B0
:1055600000B52DED048B83B041EC190BFBF791F9DD
:1055700041EC180B18EE100A18EE901A8DED008B06
:10558000002818BF0120084320F00040C0F17F60D0
:1055900000F1E040C00F14D019EE101A19EE900A75
:1055A0008DED009B002918BF0121084320F0004029
:1055B000C0F17F6000F1E040C00F04BF0120FFF7A1
:1055C000CFFC51EC180B03B0BDEC048B00BDD0E94F
:1055D000013201699A60D0E901235A604A68824227
:1055E00001D182684A60002202610868401E08609A
:1055F00008687047034B036003F154000860802083
:10560000106070470C02002000F108014FF0FF32DB
:10561000C0E90112C16001610021016070470021F1
:105620000161704730B50C68621C02D000F10802BD
:1056300002E0026904E01A4653681D68A542FAD9DF
:1056400053684B6099608A60516008610168491C29
:10565000016030BD42684A6093688B60936859600E
:10566000916008610168491C01607047502080F317
:105670001188BFF34F8FBFF36F8F0A494868401CF2
:10568000486001280CD10848006810F0FF0F07D0CF
:10569000502080F31188BFF34F8FBFF36F8FFEE769
:1056A00070470000A401002004ED00E008494868AC
:1056B00028B1401E486001D180F311887047502006
:1056C00080F31188BFF34F8FBFF36F8FFEE70000A9
:1056D000A401002070B5002827D0144DA0F10804C3
:1056E0006068E968084207D1502080F31188BFF351
:1056F0004F8FBFF36F8FFEE722683AB1502080F3DF
:105700001188BFF34F8FBFF36F8FFEE78843606050
:1057100000F018F960686968084468602046FFF77F
:1057200039FEBDE8704000F07BBA70BD8C010020EE
:105730004FF0E02000210161816105494FF47A7248
:105740000968B1FBF2F1491E41610721016170470F
:105750004C01002010B5020014D00F48806B38B106
:10576000502080F31188BFF34F8FBFF36F8FFEE798
:1057700000F0E8F800211046FFF7B2FC00F050FA04
:10578000002807D105494FF080500860BFF34F8FC4
:10579000BFF36F8F10BD00005001002004ED00E04A
:1057A00070B504002BD01A4D286884422FD0FFF723
:1057B0005DFF2046FFF738FEE8B1201DFFF707FF29
:1057C000E06A0121AA6981401143A961114900EBF6
:1057D000800001EB8000211DFFF73CFFE06A296893
:1057E000C96A884207D30C494FF080500860BFF364
:1057F0004F8FBFF36F8FBDE87040FFF757BF50204A
:1058000080F31188BFF34F8FBFF36F8FFEE770BD3A
:1058100050010020580C002004ED00E010B586B0C7
:105820000024039405AA04A903A80494FFF7E2FE48
:10583000DDE903010094CDE9011000230EA1104819
:10584000059A00F05CF90F490028486311D05020F8
:1058500080F31188BFF34F8FBFF36F8F4FF0FF308E
:1058600008630120C8614C6106B0BDE8104000F03B
:105870009FB806B010BD000049444C450000000030
:10588000A15200085001002070B50446FFF7EEFE5B
:10589000294D04B92C68201DFFF799FE58B9E06A1C
:1058A000264A00EB800152F8211021B901218140E4
:1058B000A8698843A861A06A18B104F11800FFF72D
:1058C00086FE1E48211DDC30FFF7C4FE94F8500010
:1058D0000026012801D184F85060FFF7E7FEE8694F
:1058E00028B1FFF7C3FEFFF77BFDFFF7DFFE286857
:1058F000844213D1E86990B1A86B38B1502080F38D
:105900001188BFF34F8FBFF36F8FFEE70C494FF045
:1059100080500860BFF34F8FBFF36F8F70BD074893
:10592000DC3000682969884201D12E6070BDBDE875
:10593000704000F00FB8000050010020580C00200B
:1059400004ED00E00248816B491C81637047000050
:1059500050010020144A906B10B101205062704732
:105960000020506290691149B0FA80F0C0F11F0028
:1059700000EB800051F820306BB101EB800000F1AA
:105980000803416849684160994201D14968416012
:10599000C86810607047502080F31188BFF34F8FA4
:1059A000BFF36F8FFEE7000050010020580C00206D
:1059B0001CB537480168374A914207D1502080F31F
:1059C0001188BFF34F8FBFF36F8FFEE70068314937
:1059D000491E884207D1502080F31188BFF34F8FB2
:1059E000BFF36F8FFEE72C4908780190FF20087005
:1059F00008788DF800009DF800009DF8002000F068
:105A0000F000904207D0502080F31188BFF34F8FF1
:105A1000BFF36F8FFEE79DF80000204B00F05000B1
:105A200018700720986006E0401E98609DF80000FE
:105A300040008DF800009DF8000000069868F3D43F
:105A4000032807D0502080F31188BFF34F8FBFF396
:105A50006F8FFEE74FF440709860019808700C4813
:105A60002030016841F470010160016841F070412B
:105A70000160FFF75DFE00205860FAF7B3FB0848AD
:105A8000016841F040410160FAF798FB00201CBD1D
:105A900000ED00E071C20F4100E400E0A40100202D
:105AA00034EF00E02DE9FF5F8346DDE90E8799467C
:105AB00016468A469000FFF7D1FC05001CD0542002
:105AC000FFF7CCFC040014D00020256384F85100BB
:105AD000CDE90240CDE900874B4632465146584653
