:020000040800F2
:10000000B85000205D020008B9470008972F00088B
:1000100061350008850D0008F95600080000000051
:100020000000000000000000000000009D0100082A
:100030000911000800000000F9010008055100083E
:1000400077020008770200087702000877020008AC
:10005000770200087702000877020008770200089C
:10006000770200087702000877020008770200088C
:1000700011100008770200081D1000087702000820
:1000800029100008351000087702000877020008E0
:10009000890D00087702000877020008770200083F
:1000A00077020008E551000877020008770200088F
:1000B000F1510008FD51000877020008770200089E
:1000C000770200087702000877020008770200082C
:1000D00077020008AD560008D5560008E156000822
:1000E000770200087702000877020008770200080C
:1000F00077020008770200087702000877020008FC
:1001000077020008770200087702000877020008EB
:1001100077020008770200087702000877020008DB
:1001200077020008411000084D100008770200080F
:1001300077020008000000000000000077020008BD
:10014000C50D000877020008770200087702000852
:10015000770200085910000877020008ED560008E1
:10016000770200087702000877020008770200088B
:10017000770200087702000800000000000000007D
:100180007702000877020008DFF80CD000F0FAFBD5
:10019000004800471D6B0008B85000202C4B196820
:1001A0000868B0E8F04F80F30988BFF36F8F4FF015
:1001B000000080F3118870470000000008480068C4
:1001C000006880F308884FF0000080F3148862B65E
:1001D00061B6BFF34F8FBFF36F8F00DF00BF00BF6B
:1001E00008ED00E0DFF80C00016841F470010160E7
:1001F000704700BF88ED00E0EFF30980BFF36F8F19
:10020000134B1A681EF0100F08BF20ED108A20E96A
:10021000F04F106009B44FF0500080F31188BFF325
:100220004F8FBFF36F8F07F077F94FF0000080F327
:10023000118809BC19680868B0E8F04F1EF0100F6B
:1002400008BFB0EC108A80F30988BFF36F8F704746
:1002500040020020EFF30580704700000648804709
:1002600006480047FEE7FEE7FEE7FEE7FEE7FEE79B
:10027000FEE7FEE7FEE7FEE7C95100088901000836
:100280002DE9F05F0546002092469B4688460646CB
:10029000814640241BE0284641464746224600F05E
:1002A0006AFA53465A46C01A914110D3114618466D
:1002B000224600F051FA2D1A67EB01084F462246FC
:1002C0000120002100F048FA17EB00094E41201EE2
:1002D000A4F10104DFDC484631462A464346BDE826
:1002E000F09F40EA01039B0703D009E008C9121FF1
:1002F00008C0042AFAD203E011F8013B00F8013BE0
:10030000521EF9D27047D2B201E000F8012B491E0B
:10031000FBD270470022F6E710B513460A460446A2
:100320001946FFF7F0FF204610BD2DE9FE4F80462D
:1003300081EA0300C00F0C46009021F0004123F039
:100340000045B8EB0200A94105D24046214690463F
:100350001C460B46024623F00040104347D0270DB1
:10036000C7F30A00C3F30A510290401A01904028D3
:100370006BDAC3F3130040F4801B0098924620B15F
:100380000023D2EB030A63EB0B0B01985946C0F133
:100390004002504600F0E0F906460D4650465946E8
:1003A000019A00F0F8F910EB08006141002487EA97
:1003B000115284EAE7731A4340D0009A62B3019A5B
:1003C000012A4FEA075215DC001B61EB02014FF0D6
:1003D000004202EA0752CDE90042001C41F58011BB
:1003E00032462B4600F02FFA03B0BDE8F08F4046AE
:1003F0002146F9E7001B61EB0201001C41F5801367
:1004000000185B412018A2F5001747EB030140EAF2
:10041000D570B6196D4111E06D084FEA360645EA10
:10042000C0754FEA0752001B61EB0201001C41F549
:10043000801149084FEA30000019514132462B46DD
:1004400003B0BDE8F04F00F0EFB900980122400082
:100450000023D0EB020263EBE073009821464FEAE1
:10046000E074B8EB000061EB0401E9E783F00043BE
:100470005BE781F0004158E72DE9FE4F81EA030474
:1004800004F0004421F0004100944FF0000B23F0F1
:10049000004350EA01045ED052EA03045BD0C3F388
:1004A0000A54C1F30A552C44A4F2F3340194A0FB7E
:1004B0000254C1F3130141F48011C3F3130343F455
:1004C000801301FB024400FB034E840A970A44EAAE
:1004D000815447EA8357A4FB076802958D0A05FB00
:1004E00007854FEA932C04FB0C542705029D4FEA25
:1004F000065847EA1637B5EB08056EEB070C870E72
:10050000920E47EA811742EA8312A7FB0201B6EB7B
:100510000B0164EB00042B0D43EA0C335E1844EB33
:100520001C50DA465146E7FB0201C5F313044FEABB
:100530000B3343EA14534FEA0432019C43EA0603A7
:10054000A4F10C040294009CCDE900B400F07BF906
:1005500003B0BDE8F08F00200146F9E72DE9F04D2A
:1005600081EA030404F0004B21F0004514464FF0EB
:10057000000A23F0004150EA050220D054EA0102AB
:100580001DD0C5F30A570246C5F31303C1F3130088
:10059000C1F30A5640F4801543F48013A7EB060814
:1005A000101BD64608F2FD3873EB050002D308F1A4
:1005B000010801E092185B41B8F1000F03DA002056
:1005C0000146BDE8F08D00204FF4801106468446B8
:1005D0000EE0171B73EB050705D3121B63EB050336
:1005E00006434CEA010C49084FEA300092185B417F
:1005F00050EA0107EDD152EA030012D082EA04006A
:1006000083EA0501084305D0101BAB4106D2012245
:10061000002306E000224FF0004302E06FF00102E9
:1006200053101AEB06004CEB085110EB0A0041EB9B
:100630000B01BDE8F04D00F0F7B80EB5C10F80EA30
:10064000E0700844CA07002140F233438DE80E00F1
:100650000A460B4600F0F7F803B000BD70B5C1F3D1
:100660000A5201F000450024C1F3130140F2FF33A8
:1006700041F480119A4201DA002070BD40F2334308
:100680009A42A2F2334203DC524200F074F800E0D6
:1006900090402C43F1D0404270BD00F0004230F059
:1006A00000400AD0C10D01F56071C0F3160042EAA6
:1006B0000151C208400711437047002001467047AE
:1006C00030B5041E71F1000404DB4FF000444042D9
:1006D00064EB0101141E73F1000405DB1C464FF0AE
:1006E0000043524263EB04038B4208BF824230BD99
:1006F00030B5041E71F1000404DB4FF000444042A9
:1007000064EB0101141E73F1000405DB1C464FF07D
:100710000043524263EB0403994208BF904230BD4C
:1007200001F0004330B421F0004150EA010206D04C
:100730000A0DA2F56072C1F31301002A02DC30BC7D
:1007400000207047440F44EAC104C100E01830BCE7
:1007500000EBC25000F031B8202A04DB203A00FA46
:1007600002F1002070479140C2F1200320FA03F308
:10077000194390407047202A04DB203A21FA02F006
:100780000021704721FA02F3D040C2F120029140CB
:10079000084319467047202A06DBCB17203A41FA56
:1007A00002F043EAE07306E041FA02F3D040C2F1FE
:1007B000200291400843194670470029A8BF70479E
:1007C000401C490008BF20F00100704710B4B0FA87
:1007D00080FC00FA0CF050EA010404BF10BC704722
:1007E00049B1CCF1200421FA04F411FA0CF118BF3C
:1007F000012121430843A3EB0C01CB1D4FEA00610B
:100800004FEA102042BF002010BC704700EBC350DD
:1008100010440029A4BF10BC7047401C490008BF09
:1008200020F0010010BC704710B5141E73F10004D5
:1008300008DA401C41F1000192185B411A4301D1D2
:1008400020F0010010BD2DE9F04D92469B4611B1FC
:10085000B1FA81F202E0B0FA80F220329046FFF75E
:100860007BFF04460F4640EA0A0041EA0B0153466B
:100870005A46084313D0114653EA010019D0C8F173
:1008800040025046FFF777FF05460E465046594650
:100890004246FFF761FF084305D0012004E02046EF
:1008A0003946BDE8F08D0020054346EAE0762C434A
:1008B00037430A986305E40AA0EB08000022FD0A0A
:1008C00044EA47540A3002D500200146E9E7010511
:1008D00010196941DDE9084500196941BDE8F04D8D
:1008E000A2E72DE9F04D00231A461B1A8A4103DBCB
:1008F00000200146BDE8F08DC1F30A52C1F3130197
:1009000041F480154FF0000BD10702D100186D4162
:10091000521E0027044640F2FF11384601EB620ADE
:100920003E468046024600204FF48011FFF723FF29
:10093000C2197141BB1846EB0100B4EB030C75EB17
:10094000000C04D3E41A65EB000517460E46241983
:1009500008F101006D4180463428E3DDF91946EBCA
:100960000600091BA84103D24FF0FF32134601E0F5
:10097000002213461BEB070046EB0A51BDE8F04D81
:10098000FFF752BF064C074D06E0E06840F0010358
:1009900094E8070098471034AC42F6D3FFF7F8FB11
:1009A000387D0008587D00080EB540F233410291B1
:1009B0000021CDE900110A460B46FFF744FF03B0C2
:1009C00000BD70B58C1810F8015B15F0070301D15C
:1009D00010F8013B2A1106D110F8012B03E010F8A2
:1009E000016B01F8016B5B1EF9D12B0705D40023C5
:1009F000521E0DD401F8013BFAE710F8013BCB1A67
:100A0000921C03E013F8015B01F8015B521EF9D55B
:100A1000A142D8D3002070BD10B5064C012211466A
:100A2000204601F09AFA20460122BDE8104002213A
:100A300001F093BA000802400A49087958B1012828
:100A40000BD002280BD0032804D1002008710649DE
:100A5000C1F854027047012002E0022000E00320A8
:100A60000871704704000020AC0A00200849C878CB
:100A700048B1012809D0022804D10020C8700549D6
:100A8000C1F854027047012000E00220C87070478E
:100A900004000020AC0A002070B50446006800285D
:100AA00014D16068002811D0606808280FD0184D54
:100AB0006169685C90B1012815D0022819D003281B
:100AC00004D16068082801D10020A06070BD04F145
:100AD0002C00BDE87040002104F097BE606801283A
:100AE000F4D1032009E060680728EFD102206854A0
:100AF00070BD60680128FBD10820A0600721204656
:100B000003F0A6FE6069295C491C295470BD0000F1
:100B100022000020002280F8282042609FED0E0A6B
:100B2000026180ED070A026080ED080AC2608260FF
:100B30004B014161438501EBC103084980ED090A7E
:100B400001EB830101F12403B431C0E90D310286C8
:100B500001212C3004F059BE0000000038000020B4
:100B600010B56D4C2DED068BDFED6C8AB0EE683A5A
:100B70009FED6B8AF0EE482AB0EE482A9FED699A05
:100B8000B0EE481AF0EE480AF0EE491ADFED669A28
:100B900004F11800B0EE690A03F096FE0321204626
:100BA00002F0C0FE9FED61AAF0EE482AB0EE482A9E
:100BB000B0EE4A3ADFED5EAAB0EE481AF0EE480A0F
:100BC000F0EE6A1AB1EE040A04F1480003F07CFE6C
:100BD000B0EE683ADFED572A04F1A800B0EE482ADB
:100BE000F0EE491AB0EE481AF0EE480AB0EE690A83
:100BF000903403F069FE0221204602F093FEB0EE2D
:100C00004A3AF0EE482AB0EE482AF0EE6A1AB0EE00
:100C1000481AF0EE480AB1EE040A04F1480003F065
:100C200053FE903C04F59C70B0EE683AF0EE482A12
:100C3000B0EE482AF0EE491AB0EE481AF0EE480A33
:100C4000B0EE690A04F5907403F03EFE00212046E0
:100C500002F068FEB0EE4A3AF0EE482AB0EE482ABA
:100C6000F0EE6A1AB0EE481AF0EE480AB1EE040A45
:100C700004F1480003F028FE274CB0EE683A04F572
:100C8000E470F0EE482AB0EE482AF0EE491AB0EED1
:100C9000481AF0EE480AB0EE690A04F5D87403F079
:100CA00013FE0121204602F03DFEB0EE4A3AF0EE7E
:100CB000482AB0EE482AF0EE6A1AB0EE481AF0EE72
:100CC000480AB1EE040A04F1480003F0FDFD124C9D
:100CD00019480021C4F8AC01FFF71CFF1648012198
:100CE0003C30C4F83C02FFF715FF14480221C4F859
:100CF0001C01FFF70FFF114803213C30C4F88C00A2
:100D0000FFF708FF0120C4F854020020C4F858027D
:100D1000BDEC068B10BD0000AC0A00200000FA45B7
:100D20000000000000401C46CDCC4C3F00C0DA451E
:100D300000409C450000FA44BC090020340A002011
:100D400010B50E4A0E4B00249078197838B101285E
:100D500009D002280DD0032800D1947010BD0A29B3
:100D6000FCD1012002E00B29F8D1022090701C7008
:100D700010BD0C29FCD10320F8E70000040000207E
:100D800000020020FEE7000010B588B00B4800F01C
:100D900000FC0B4B6A461C460021084800F06FFB24
:100DA0000098B0F5007F05D280B2214603F006FD21
:100DB00008B010BD214602F01FFDF9E7AC0200208B
:100DC000100D002010B588B0074800F0E2FB074B7B
:100DD0006A461C460021044800F051FB2146009859
:100DE00000F0D4F808B010BDD4020020200D00207F
:100DF00010B50446406A002810D00721204600F0B4
:100E00001DFA204600F0CEFD204600F00CFE2046E4
:100E100000F008F802480188491C018010BD00005C
:100E2000E801002010B504460F4A0E2000218AB0C8
:100E3000944201D1059100E00590099001200191B3
:100E40000291CDE906100391009104910890694642
:100E5000204600F08DFA204600F0BAFD022120461F
:100E600000F00FFA0AB010BDAC020020164F0125A9
:100E700007F1240A07F148090026144C07F16C0811
:100E8000903700221049124800F024F820784FF0E3
:100E9000000268B141460E4800F01CF800223946B5
:100EA0000B4800F017F82670012005F0A5FEE8E7D2
:100EB0005146074800F00EF800224946044800F069
:100EC00009F82570F0E70000380000200400002039
:100ED000AC02002038B505460E480C46D0F87C021E
:100EE00091F8200001280FD1284600F03CFB002893
:100EF0000AD06B4604F118022146284600F0D3F9C7
:100F000018B12846FFF774FF38BD002084F8200090
:100F100038BD0000AC0A002010B51A4803F0EEFC02
:100F2000184802F01EFB17489030044603F0E6FC18
:100F3000204602F016FB1448044603F0DFFC20466E
:100F400002F00FFB10489030044603F0D7FC204617
:100F500002F007FB0B4C0D21D4F88C0003F078FC59
:100F60000D21D4F81C0103F073FC0D21D4F8AC0161
:100F700003F06EFCD4F83C02BDE810400D2103F0F4
:100F800067BC0000AC0A0020CC0B0020202805D054
:100F9000212803D0222801D0302802D10878014925
:100FA0000870704700020020164A10B5107D012815
:100FB00003D104F0D1F9002010751348D0F8540281
:100FC00006281ED2DFE800F003070D111519BDE851
:100FD000104004F07FB80D484069BDE8104006F0AD
:100FE000C1B9BDE8104003F07DBFBDE81040FFF778
:100FF000A7BEBDE81040FFF739BDBDE81040FFF7C0
:101000001BBD10BD02020020AC0A0020040000201D
:10101000014800F051BD0000FC070020014800F02D
:101020004BBD00005C080020014800F045BD0000F9
:101030003C070020014800F03FBD00009C07002055
:10104000014800F039BD0000BC080020014800F054
:1010500033BD0000DC060020014800F02DBD00007B
:101060001C09002001681823CAB2103AB2FBF3F23F
:10107000054B6FF30901032A9B5CC36500D9091D69
:101080008165084670470000D47A000810B5014613
:1010900000208B698A6A4FF0C07453B1B3F5005FCA
:1010A00015D072B1012A0CD0022A0AD0032A09D124
:1010B00004E01AB1012A06D0022A03D1C96AC90183
:1010C00000D5012010BDC96AA142FAD010BD002A86
:1010D000F7D0012AF2D0022AF3D0032AF3D010BDB0
:1010E00030B50468256825F48025256004686360B0
:1010F0008368402B036803D099600068C26030BDEC
:101100009A600068C16030BD704741807047000040
:1011100001221103014800F020BF00000008024036
:1011200000218180704700001CB50446806B0123BC
:101130000022074904F022F994F82A000221CDE99F
:10114000001000231A460821A06B04F029F91CBDE9
:10115000300000201CB50446806B012300220749A3
:1011600004F00CF994F82A000221CDE900100023C4
:101170001A460821A06B04F013F91CBD30000020B2
:101180001CB50446806B01230022074904F0F6F8E1
:1011900094F82A000221CDE9001000231A46082104
:1011A000A06B04F0FDF81CBD300000201CB5044607
:1011B000806B01230022074904F0E0F894F82A002C
:1011C0000221CDE9001000231A460421A06B04F08F
:1011D000E7F81CBD3000002010B5064C00220121AC
:1011E000204600F0BAFE20460122BDE81040022150
:1011F00000F0B3BE0008024010B50E484FF49671DF
:101200000D4C4068B0FBF1F201FB1201C8294FF010
:1012100000024FF00101204603D900F09EFE00229B
:1012200002E000F09AFE01222046BDE810400221B3
:1012300000F093BEF40100200008024090F8202046
:10124000012A07D0022A05D0416A41F48021416277
:1012500001207047CA0704D00268936843F08003F6
:1012600093608A0704D50268936843F4004393604F
:10127000490704D50068816841F4000181600020BD
:10128000704790F82020012A07D0022A05D0416A31
:1012900041F48021416201207047006842690A439D
:1012A000426100207047F0B590F820500468A468AF
:1012B000012D05D0022D03D0416A41F4802153E075
:1012C00014F0406F01D1E5004BD5C4F30164022C4A
:1012D00003D9416A41F4000146E00125A5401D60A3
:1012E0008B684FF4C0759BB1CE6833434E6843EAB8
:1012F000C603066805EB0417F3514FF4C273076881
:1013000003EB04130E69FE50097D012905D009E0A5
:101310000E88CB6843EA4653EBE70168CE5846F4A3
:101320008076CE501179D2F805304FF4C67641EA76
:101330000323016806EB04168B511178D2F80120C3
:101340004FF4C47341EA0221026803EB0413D15045
:10135000006805EB0411425842F00102425000209F
:10136000F0BD416A41F4001141620120F0BD00006E
:1013700010B590F82020012A07D0022A05D0416A32
:1013800041F480214162012010BD3B48D0F8002289
:1013900042F00102C0F80022D0F8002222F47C5270
:1013A000C0F80022D0F800224B6A42EA0322C0F8BB
:1013B00000220A7D02F01F0301229A40D0F81C325D
:1013C0009343C0F81C32CB69B3B9D0F80C329343C5
:1013D000C0F80C328C894B6864F31F434C6900EBF6
:1013E000C404C4F840320C890B6864F31F434C6991
:1013F00000EBC404C4F84432CB69012B16D1D0F8F9
:101400000C321343C0F80C320C884B6864F31F4352
:101410004C6900EBC404C4F840320C89CB6864F317
:101420001F434C6900EBC404C4F844328B69002BA1
:10143000D0F804320ED01343C0F804320B69002BED
:10144000D0F8143208D01343C0F81432096A0129C5
:1014500004D008E09343EFE79343F5E7D0F81C127C
:101460001143C0F81C12D0F8001221F00101C0F89D
:101470000012002010BD000000640040704730B52D
:1014800090F82040012C05D0022C03D0416A41F491
:1014900080215DE00468002955D02469A40754D058
:1014A0004FF4D874056804EB01142D5915F00405A8
:1014B000956005682D594ED0ED08556005682C598A
:1014C00004F00204D4604FF4DA74056804EB0114EC
:1014D0002D5905F00F05156105682D59C5F3072530
:1014E000956105682C59240C54614FF4DC72046832
:1014F00002EB0112A4581C700468A458240A5C7002
:101500000468A458240C9C700468A258120EDA7067
:101510004FF4DE72046802EB0112A4581C710468D7
:10152000A458240A5C710468A458240C9C710468B3
:10153000A258120EDA71006881B1016941F02001F0
:101540000161002030BDE468A8E7416A41F4001160
:101550004162012030BD6D0D1560AFE7C16841F0FB
:101560002001C160EDE70246002092F82010012919
:1015700001D002290CD111688A68520100D50120DE
:101580008A68120100D5401C8968C90000D5401C3A
:1015900070472DE9F05F0546006800244669D0F8E1
:1015A00004908768D0F80CB0D0F810A0D0F818805C
:1015B000F10748D0F90714D001218160B80703D59D
:1015C000284600F061FA0CE0780702D54FF4006479
:1015D00007E0380702D54FF4805402E0284600F0B7
:1015E00052FAF80516D529684FF480708860B8055E
:1015F00003D5284600F04AFA0CE0780502D544F4F9
:10160000005407E0380502D544F4804402E028463F
:1016100000F03BFAF80316D529684FF48030886053
:10162000B80303D5284600F033FA0CE0780302D55E
:1016300044F4004407E0380302D544F4803402E067
:10164000284600F024FA300707D55FEACB6004D5BE
:101650002968102044F40074C86070074FF0080730
:1016600007D55FEA0B7004D52868C760284600F0EC
:10167000AAF9B00706D52868C068800702D02846B6
:1016800000F0A2F9700607D55FEACA6004D52968A0
:10169000102044F480640861B00607D55FEA0A7040
:1016A00004D528680761284600F08FF9F00606D5B2
:1016B00028680069800702D0284600F087F9B00347
:1016C00008D55FEAC96005D529681020486028461A
:1016D00000F07DF9F00307D55FEA097004D52868AA
:1016E0004760284600F0D5F9300446D55FEA4970D6
:1016F00040D5F00504D55FEAC87001D044F001047C
:10170000B00504D55FEA887001D544F00204700585
:1017100004D55FEA487001D544F00404300529D5AA
:1017200018F0700F26D008F07000402815D006DCA5
:10173000102809D020280AD0302816D10AE05028D5
:101740000ED0602811D10EE044F008040DE044F002
:1017500010040AE044F0200407E044F0400404E0F0
:1017600044F0800401E044F480742868816921F029
:1017700070018161296804204860002C05D0686AE6
:10178000204368622846FFF779FEBDE8F09F70B5F8
:10179000040003D094F8200010B104E0012070BDD3
:1017A000204600F081F82068016821F00201016004
:1017B00000F0D8FB0546052604E000F0D3FB401BF3
:1017C0000A2811D8206840688007F6D4206801688C
:1017D00041F00101016000F0C5FB05460BE000F09F
:1017E000C1FB401B0A2806D9606A40F400306062E1
:1017F00084F82060D2E720684068C007EFD0207EE0
:101800000128206801683DD021F080010160607EE0
:1018100001282068016838D021F040010160A07ED5
:1018200001282068016833D021F020010160E07EAA
:101830000128206801682ED041F010010160207F4E
:1018400001282068016829D021F008010160607F2B
:1018500001282068016824D021F004010160D4E946
:1018600002010843D4E90412114308436168491E88
:1018700008432168C86100206062012084F82000CC
:10188000002070BD41F08001C0E741F04001C5E794
:1018900041F02001CAE721F01001CFE741F0080133
:1018A000D4E741F00401D9E7F0B587B0044614212C
:1018B0006846FEF72FFD3649364ADFF8D0E0086863
:1018C000D4F800C0334B0224032509261032002728
:1018D000401CF44523D10860012807D1106840F06E
:1018E00000701060106800F000700590186840F0FB
:1018F000010018601868694600F0010005904FF477
:10190000C0508DE89100CDE90356234800F046FA17
:1019100000220521142000F0DFFB142031E0DFF865
:101920007CE0F4452FD1D2F800C04CF0806CC2F8B6
:1019300000C0D2F800C001280CF0806CCDF814C0B3
:10194000086007D1106840F000701060106800F067
:1019500000700590186840F0020018601868694629
:1019600000F00200059060208DE89100CDE903565B
:101970000B4800F013FA00220521402000F0ACFBD8
:10198000402000F09BFB07B0F0BD00000064004069
:101990000000002030380240000002400068004093
:1019A0000004024090F820200021012A08D0022AD9
:1019B00006D0416A41F48021416201210846704706
:1019C00000224262FAE770477047704770477047DD
:1019D00070B5044690F82000012804D0606A40F4F5
:1019E0000020606217E0022084F82000206801686F
:1019F00021F00101016000F0B5FA05460DE000F0AC
:101A0000B1FA401B0A2808D9606A40F400306062CD
:101A1000052084F82000012070BD20684068C007C0
:101A2000EDD1606270BD70B5044690F820000228C8
:101A300004D0606A40F48010606214E0206801689D
:101A400041F00101016000F08DFA05460DE000F063
:101A500089FA401B0A2808D9606A40F400306062A5
:101A6000052084F82000012070BD20684068C00770
:101A7000EDD02068016821F002010160012084F8A6
:101A80002000002070BD7047704770477047704756
:101A90007047704790F83510022903D080214165C6
:101AA00001207047052180F835100068016821F099
:101AB00001010160002070472DE9F84304464FF012
:101AC0000009CDF8009063484FF41651A56D0068E9
:101AD000B0FBF1F72E6894F85C20082101FA02F0BF
:101AE00030420FD02068026852070BD5026822F0FE
:101AF0000402026094F85C008140A960606D40F0CF
:101B00000100606594F85C104FF0010808FA01F0DC
:101B1000304208D021684969090604D5A860606D83
:101B200040F00200606594F85C1004208840304268
:101B300008D021680968890704D5A860606D40F065
:101B40000400606594F85C1010208840304218D082
:101B500021680968090714D5A8602068016849034D
:101B600004D50068000308D5A16C07E00168C90529
:101B700003D4016821F008010160216C09B12046FD
:101B8000884794F85C1020208840304231D021688A
:101B90000968C9062DD5A86094F835000528206885
:101BA000016806D0490347D5006800031DD4616C65
:101BB0001CE021F0160101602068416921F08001DC
:101BC0004161206C08B9A06C20B12068016821F047
:101BD0000801016094F85C103F208840A86084F8F8
:101BE000349084F83580216D1FE0E16B09B1204607
:101BF0008847606D00282BD0606DC00714D0052089
:101C000084F835002068016821F001010160009826
:101C1000401C0090B84203D820680068C007F6D185
:101C200084F8349084F83580E16C002910D001B03C
:101C30002046BDE8F04308470168C905D5D40168CE
:101C400021F01001016084F8349084F83580CCE7ED
:101C5000BDE8F8833C0200202DE9F041044600F085
:101C600081F905465CB1002684F83460022084F8CE
:101C700035002068016821F0010101600DE00120BC
:101C8000BDE8F08100F06EF9401B052805D9202041
:101C90006065032084F83500F2E720680068C0071B
:101CA000F0D121680A6820480240D4E901031843B2
:101CB000D4E903352B43184363691843A3691843D8
:101CC000E3691843236A18431043626A042A03D164
:101CD000D4E90B231A431043086020684069656A01
:101CE00020F0070128460D43012704280CD1A06AE3
:101CF0000543E06A40B12046FFF7C8F920B1402013
:101D0000606584F83570BAE7206845612046FFF7C2
:101D1000A9F994F85C203F2191408160666584F8C0
:101D200035700020ACE700003F8010F02DE9F04155
:101D30000446866D90F83400002501280DD001205E
:101D400084F8340094F835700020012F07D084F80F
:101D5000340002252846BDE8F0810220FBE7022777
:101D600084F8357060652046FFF7BAF994F85C1086
:101D70003F208840B0602068016841F01601016092
:101D8000206C20B12068016841F0080101602068E2
:101D9000016841F001010160DCE700002DE9F84F26
:101DA000DFF880B100224FF003094FF00F0A0BF16A
:101DB000040E01250B6895402B40AB4272D14C6854
:101DC000012C05D0022C03D0112C01D0122C10D1E3
:101DD0008668540009FA04F7BE43CF68A74037432A
:101DE000876046680C79AE43C4F3001494403443D2
:101DF0004460C468570009FA07F58E68AC43BE40DA
:101E00002643C6604C68022C01D0122C12D1D40893
:101E100000EB840CDCF820605407E40E0AFA04F8A6
:101E200026EA0806D1F8108008FA04F848EA0608FD
:101E3000CCF820800468AC430D7905F00305BD4063
:101E4000254305604C68E40065D5374C256845F4AA
:101E500080452560246822F0030504F48044009442
:101E6000324C2E19D6F808789407250F0AFA05F493
:101E7000A7432F4CA04201D1002424E02D4CA042C6
:101E800001D101241FE02C4CA04201D102241AE010
:101E90002A4CA04201D1032415E0294CA04202D1D2
:101EA000042410E037E0274CA04201D105240AE0C9
:101EB000254CA04201D1062405E0244CA04201D1CA
:101EC000072400E00824AC403C43C6F80848DBF88F
:101ED00000405D464E689C43F60300D51C432C60D1
:101EE000DEF8004075464E689C43B60300D51C439F
:101EF0002C600C4D08352C684E689C43F60200D5CA
:101F00001C432C60074D0C352C684E689C43B60270
:101F100000D51C432C60521C102AFFF44AAFBDE8C8
:101F2000F88F0000003C014044380240003001407E
:101F3000000002400004024000080240000C024081
:101F4000001002400014024000180240001C024031
:101F50000069084000D0012070470AB181617047D4
:101F60000904FBE701488068704700003002002048
:101F700070B5040011D021684CF6CC40086021688F
:101F800045F255500860D4E9000141602168A0681D
:101F90008860FFF7E7FF054608E0012070BDFFF706
:101FA000E1FF401B302801D9032070BD2068C068C4
:101FB0000028F4D121684AF6AA200860002070BDEC
:101FC00000684AF6AA210160002070470248816833
:101FD0000278114481607047300200200B4810B530
:101FE000016841F400710160016841F480610160A1
:101FF000016841F480710160032000F08DF8002039
:1020000000F006F800F03EF8002010BD003C024051
:1020100010B5014688B00022192000F05DF81920A3
:1020200000F04CF813480024016841F00101016000
:10203000006805A900F001000690684600F018F954
:1020400000F046F90C494000B0FBF1F10C480B4A96
:10205000491E026040F2E732C0E90324C0E90114DE
:1020600000F064FB10B1012008B010BD044800F07E
:10207000A9FBF9E74438024040420F00000001404C
:102080007C0900200C4882B0016841F48041016065
:10209000006800F4804000900748001F016841F08C
:1020A000805101600068002200F0805000900F21F4
:1020B000901E02B000F010B844380240002809DB3E
:1020C00000F01F02012191404009800000F1E02052
:1020D000C0F8001170470000F0B40E4B1B68C3F34A
:1020E0000223C3F10704042C00D904241D1D072D6D
:1020F00001D2002300E0DB1E012606FA04F56D1E66
:102100000D409D409E40761E164045EA0601F0BCFB
:1021100003F095BB0CED00E0064A00F007011068E3
:102120004FF6FF03184040EA0120034908431060BE
:10213000704700000CED00E00000FA052DE9F047C3
:102140000D46040065D0DFF81491D9F80000EFB215
:1021500000F00F00A84207D289F80070D9F80000FB
:1021600000F00F00A84254D120683D4E810712D5DF
:10217000400703D5306840F4E05030602078000715
:1021800003D5306840F4604030603068A16820F0CA
:10219000F000084330602078C0072DD030496068D7
:1021A0000839012812D0022813D0032811D0096859
:1021B000890700292DDA316821F0030101433160DC
:1021C000FFF7D0FE804641F2883A0EE009688903A5
:1021D000EFE709688901ECE7FFF7C4FEA0EB08010F
:1021E000514502D90320BDE8F0873068616800F0EE
:1021F0000C00B0EB810FEFD1D9F80010484601F088
:102200000F01A94207D90770006800F00F00A8422B
:1022100001D00120E7E72078400705D53068E16864
:1022200020F4E050084330602078000706D530687D
:10223000216920F4604040EAC100306000F058F8A5
:102240003168084AC1F30311515CC840064908606F
:1022500006480068FFF7DCFE0020C4E7003C0240AF
:1022600008380240DC7A00083C02002034020020DA
:102270000F2202600C4A136803F0030343601368E3
:1022800003F0F0038360136803F4E053C360126843
:102290004FF4E05303EAD20202610448006800F000
:1022A0000F0008607047000008380240003C024000
:1022B0000448054900680968044AC1F38221515C59
:1022C000C84070473C02002008380240EC7A000801
:1022D0000448054900680968044AC1F34231515C69
:1022E000C84070473C02002008380240EC7A0008E1
:1022F000154810B5006810F00C01144813D04310B5
:1023000004290FD008290ED10F4C241F216801F099
:102310003F022168490207D52068C0F38810A0FB5E
:10232000030106E0184610BD2168C1F38811A1FB26
:1023300000010023FDF7A4FF2168C1F30141491CFE
:102340004900B0FBF1F010BD083802400024F40051
:102350002DE9F84F040075D02078DFF828A3C007D6
:10236000AAF1040548D00AF104000168C1F3810113
:10237000012908D00068C0F3810002280AD1DAF8E8
:102380000000400206D52868800335D56068002823
:10239000E1D031E06068B0F5803F10D0B0F5A02FFB
:1023A000286810D020F480302860286820F480202D
:1023B00028606068A0B1FFF7D5FD06460CE02868EC
:1023C00040F48030F4E740F480202860F7E7FFF71E
:1023D000C9FD801B642871D828688003F7D50BE0FD
:1023E000FFF7C0FD064604E0FFF7BCFD801B642834
:1023F000F1D828688003F7D42078DFF88C92800722
:102400004FF0000B3DD59F48001D016811F00C0FE7
:1024100008D00068C0F3810002280AD1DAF8000071
:10242000400206D42868800715D5E068012809D144
:1024300011E0E068B8B10121C9F80010FFF792FD82
:10244000064605E01AE1FFF78DFD801B0228C2D881
:1024500028688007F7D52868216920F0F80040EA4D
:10246000C10028600DE0C9F800B0FFF77BFD06460B
:1024700004E0FFF777FD801B02281FD8286880073B
:10248000F7D42078000722D57E4F804861697037E5
:1024900071B101210160FFF765FD064604E0FFF719
:1024A00061FD801B022809D838688007F7D50EE047
:1024B000C0F800B0FFF756FD064605E082E0FFF7E2
:1024C00051FD801B02287DD838688007F7D420781A
:1024D000400765D56B484FF000083C300068C000ED
:1024E0000BD468483C30016841F0805101600068BD
:1024F0004FF0010800F080500090654F3868C0052B
:102500000FD4386840F480703860FFF72BFD064622
:1025100004E0FFF727FD801B022853D83868C00568
:10252000F7D5584FA0686C3701280FD005283868B8
:1025300010D020F001003860386820F004003860C6
:10254000A068B0B1FFF70EFD06460EE0386840F017
:102550000100F4E740F004003860F7E7FFF702FD00
:10256000811B41F28830814263D838688007F5D5F5
:102570000DE0FFF7F7FC064606E0FFF7F3FC811BD2
:1025800041F28830814254D838688007F5D4B8F1D8
:10259000000F05D03B483C30016821F080510160BC
:1025A000A069B8B33749091D0968C1F3810102293F
:1025B00046D00228584606D0C9F86000FFF7D2FC82
:1025C000044639E035E04F46C9F86000FFF7CAFC21
:1025D000064604E0FFF7C6FC801B022829D82868BD
:1025E0008001F7D4D4E907010843A16A294A4908C0
:1025F00002EB0141626A41EA8211084394F82C100F
:1026000040EA0161CAF8001001203866FFF7AAFC11
:10261000044605E034E0FFF7A5FC001B022808D8BB
:1026200028688001F7D52BE0FFF79CFC001B0228EF
:1026300002D90320BDE8F88F28688001F4D41FE098
:102640000128F7D0DAF80000E26900F48001914235
:1026500014D1226A00F03F0191420FD147F6C071B8
:10266000626A0140914209D1A26A00F4403191426C
:1026700004D1E16A00F07060884201D00120D9E7FE
:102680000020D7E70438024000004742800E47424E
:10269000007000400000FFFF7047704770B590F871
:1026A0003C20012A32D0012580F83C50022280F8DB
:1026B0003D2002685368946823F070060B6833432A
:1026C0005360134B02689A4214D0B2F1804F11D07C
:1026D000104B9A420ED0104B9A420BD00F4B9A429D
:1026E00008D00F4B9A4205D00E4B9A4202D00E4BA7
:1026F0009A4204D1496824F080031943916080F81C
:102700003D50002180F83C10084670BD022070BD8D
:10271000000001400004004000080040000C0040A0
:1027200000040140004001400018004010B50400C2
:1027300003D094F83D0010B107E0012010BD002047
:1027400084F83C00204600F00DF8022084F83D009B
:10275000211D206802F066FD012084F83D00002064
:1027600010BD000008B500681449B0F1804F14D0C6
:10277000134A904220D1086840F0020008600868BF
:10278000002200F00200009005211D20FFF7A4FCAC
:102790001D20BDE80840FFF791BC086840F001002B
:1027A00008600868002200F00100009005211C204C
:1027B000FFF792FC1C20ECE708BD00004038024007
:1027C000000400400168CA6842F00102CA60006863
:1027D000816801F00701062903D0016841F0010179
:1027E00001600020704770B5044690F83C00012855
:1027F00017D0012584F83C50022084F83D00206861
:10280000826822F0770222F47F42826008685028B2
:1028100030D00DDC20284DD005DC98B310283BD1FA
:1028200048E0022070BD302844D0402834D139E03F
:10283000602828D0702806D0B0F5805F2CD0B0F585
:10284000005F29D10AE0CB68D1E90121206802F0BC
:102850004DFD2068816841F0770109E0CB68D1E93E
:102860000121206802F042FD2068816841F4804126
:10287000816011E0CA684968206802F049FD502172
:10288000206807E016E0CA684968206802F051FD38
:102890006021206802F034FD84F83D50002084F867
:1028A0003C0070BDCA684968206802F031FD4021D3
:1028B0002068EFE7226801461046EBE7704770B5E5
:1028C0000446006801694FF00005C943890715D423
:1028D000C168C943890711D4E91E0161012020772D
:1028E000206880698007204602D0FFF7E7FF04E0F8
:1028F00000F098F8204600F096F8257720680169E6
:10290000C943490717D4C168C943490713D46FF0B5
:1029100004010161022020772068806910F4407F63
:10292000204602D0FFF7CAFF04E000F07BF8204603
:1029300000F079F8257720680169C943090716D4A2
:10294000C168C943090712D46FF00801016104206E
:1029500020772068C0698007204602D0FFF7AEFFCD
:1029600004E000F05FF8204600F05DF8257720686D
:102970000169C943C90617D4C168C943C90613D43C
:102980006FF010010161082020772068C06910F401
:10299000407F204602D0FFF791FF04E000F042F8AC
:1029A000204600F040F8257720680169C943C9072F
:1029B00008D1C168C943C90704D1891E01612046F5
:1029C00000F032F820680169C943090609D4C168DA
:1029D000C943090605D46FF0800101612046FFF765
:1029E0005BFE20680169C943490609D4C168C9432F
:1029F000490605D46FF040010161204600F01EF841
:102A000020680169C94389060BD4C168C943890696
:102A100007D46FF0200101612046BDE87040FFF748
:102A20003CBE70BD7047704700680349884201D1C1
:102A3000FFF7CCBA704700000000014070477047B4
:102A400070B5026804461068D168536910F00F0F22
:102A500052D003F0010501F490762E435FD0C207F7
:102A600005D0CA0503D5E26B42F00102E2634207DA
:102A700005D5DA0703D0E26B42F00202E263820777
:102A800005D5DA0703D0E26B42F00402E2630207E5
:102A900007D501F020022A4303D0E26B42F008027E
:102AA000E263E26B002A33D0800604D5880602D5A3
:102AB000204602F0EAFC20684069E16BC0F3801018
:102AC000090700D428B3204602F0C8FC20684169F9
:102AD00049061AD5416921F040014161606BA0B1FE
:102AE0001B490165606BFEF7D5FF002810D0606BB5
:102AF000016DBDE870400847830610D58B060ED5E2
:102B00002046BDE8704002F0C0BC2046FFF797FFAA
:102B100070BD2046FFF793FF0020E06370BD030601
:102B200006D50B0604D52046BDE8704002F08CBDEA
:102B30004006F3D54806F1D5D168204621F0400182
:102B4000D160202184F8391000F024FA70BD000013
:102B5000BD53000870B5040004D094F83900002576
:102B600010B106E0012070BD84F83850204600F016
:102B700023F8242084F839002068C16821F400512A
:102B8000C160204602F0CCFC2068016921F490412C
:102B900001612068416921F02A0141612068C16812
:102BA00041F40051C160E563202084F8390084F8C5
:102BB0003A00002070BD00002DE9F04F87B00446B8
:102BC00014216846FDF7A6FBC048DFF8FC821438E4
:102BD0000221D4F800C0DFF8F4A203220723DFF8B3
:102BE000F0E28F0600250615C44542D1DAF80080D0
:102BF00048F01008CAF80080DAF800C00CF0100C99
:102C0000CDF814C0D0F800C04CF0010CC0F800C0E2
:102C1000006800F00100059050028DE8230069462D
:102C20007046CDE90323FFF7B9F8DFF8AC82A94974
:102C30004046C8F80010C0E90175C0E90356C8F85D
:102C40001450C8F81850C8F81C50C8F82050C8F8DC
:102C50002450FFF701F808B1FEF75AFAC4F834809F
:102C6000002205212520C8F83840FFF735FA252035
:102C70006BE0DFF86882DFF854B24FF04009ABF147
:102C8000040BC44566D1DBF8008048F40038CBF86B
:102C90000080DBF800C00CF4003CCDF814C0D0F884
:102CA00000C04CF0010CC0F800C0006800F001004A
:102CB00005900C208DE8230069467046CDE903237A
:102CC000FFF76CF8DFF81082854908F1600840468C
:102CD000C8F80010C0E90175C0E90356C8F81450DF
:102CE000C8F81850C8F81C50C8F82050C8F824502C
:102CF000FEF7B2FF08B1FEF70BFAC4F83480C8F84B
:102D00003840DFF8D481764908F1C00840461831D0
:102D1000C0E90356C8F81450C8F81850C8F81C5039
:102D2000C8F8205088E88202C8F82450FEF794FFC3
:102D300008B1FEF7EDF9C4F8308000220521262005
:102D4000C8F83840FFF7C8F92620FFF7B7F907B0F1
:102D5000BDE8F08FDFF88C81DFF88CE1C4455FD1EE
:102D6000DBF80080AA4648F48028CBF80080DBF826
:102D700000C00CF4802CCDF814C0D0F800C04CF08A
:102D8000040CC0F800C0006800F0040005904FF487
:102D900040608DE8230069467046CDE90323FEF7C5
:102DA000FDFF4F49DFF8448160394046C8F8001004
:102DB000C0E90175C0E90356C8F81450C8F81850A6
:102DC000C8F81C50C8F82050C8F82450FEF744FF3B
:102DD00008B1FEF79DF9454D4148C4F8348060358F
:102DE0003038C8F8384085E88102C5E903A6C5F83F
:102DF00014A0C5F818A0C5F81CA0C5F820A0284646
:102E0000C5F824A0FEF728FF08B1FEF781F9256375
:102E1000002205212720AC63FFF75EF9272094E705
:102E2000334B9C4593D1DAF8007047F02007CAF87D
:102E30000070DAF8003003F020030593036843F0D4
:102E400004030360006800F004000590C0208DE8D2
:102E500023000820CDE9032069467046FEF79EFF57
:102E6000224F1C48C037183838604FF02068C7E937
:102E70000185C7E903567D61BD61FD613D6238464C
:102E80007D62FEF7E9FE08B1FEF742F96763BC63B5
:102E9000184F1048C7E903567D61BD61FD613D6271
:102EA00060307D6287E801033846FEF7D5FE08B141
:102EB000FEF72EF92763002205214720BC63FFF7A8
:102EC0000BF9472041E70000001001404438024060
:102ED0000000024040640240DC0600200044004044
:102EE000886002400048004000080240FC070020C3
:102EF000001401401C09002037B5044690F83A0040
:102F000082B0134620283AD1039AAAB3A3B394F807
:102F10003800012833D0012084F83800A262A3854C
:102F20000025E563222084F83A00616B1548C863E8
:102F3000616B15480864616B1448C864606B056573
:102F40002168606B091DFEF7F1FE20680168416889
:102F5000009184F83850C16841F48071C1602068E4
:102F6000416941F0010141612068416941F040013E
:102F70004161002005B030BDFFE70120FAE70220E3
:102F8000F8E700001754000853540008CD53000818
:102F9000704770477047FEE7254CD4F88C0090F8D6
:102FA0002C10D1B9D4F81C1191F82C10A9B9D4F86F
:102FB000AC1191F82C1081B9D4F83C1291F82C1076
:102FC00059B994F8821041B994F8121129B994F8BA
:102FD000A21111B994F83212F9B1FDF75DFDD4F8E0
:102FE0001C01FDF759FDD4F8AC01FDF755FDD4F8EF
:102FF0003C02FDF751FD0E4801F024FE0C489030D4
:1030000001F020FE0B4801F01DFE0A48903001F04F
:1030100019FE012003F0F0FDBFE7074DE86804F05A
:10302000A1F9686904F012FA0220C4F85402F0E72A
:10303000AC0A0020CC0B00200400002070B5034631
:103040001C48D0E9011202F54872914203D3816015
:103050000278521C027090F90020174C082A18DAE6
:103060004FF0010505FA02F51D4206D0826802F50F
:103070001672914201D201220DE0806800F51670AF
:10308000814207D2002201212046FEF766FF01227D
:1030900006E00BD1002201212046FEF75EFF002250
:1030A0002046BDE870400221FEF757BF00210170A5
:1030B00070BD0000F401002000080240084B5A6077
:1030C00011B188B2FFF7BABF28B1012805D0022894
:1030D00005D1FEF781B8FDF79FBCFEF78DB87047AC
:1030E000F4010020104810B50E4901600321416031
:1030F00000214FF4C0228160C0E903124FF4A00206
:1031000042610176417681760122C276017741776C
:10311000FEF73DFB002803D0BDE81040FDF7F8BFE7
:1031200010BD000000640040AC0200200F4810B544
:103130000D4901600321416000214FF4C0228160EC
:10314000C0E903124FF4A002426101764176817614
:10315000C17601774177FEF71AFB002803D0BDE85E
:103160001040FDF7D5BF10BD00680040D40200201C
:10317000254808B5016841F400110160016801F4B7
:1031800000110091016841F4800101600068002293
:1031900000F48000009005210C20FEF79DFF0C201C
:1031A000FEF78CFF002205210E20FEF795FF0E2072
:1031B000FEF784FF002205211020FEF78DFF10206E
:1031C000FEF77CFF002205211120FEF785FF11206C
:1031D000FEF774FF002205213920FEF77DFF39201C
:1031E000FEF76CFF002205213A20FEF775FF3A201A
:1031F000FEF764FF002205214520FEF76DFFBDE8C4
:1032000008404520FEF75ABF3038024010B520482C
:10321000A0B01CAC0FC884E80F0000211CA803F06C
:10322000F7FC1C4C1A491C22A06110316846FDF7BE
:1032300058F80021684603F0FEFC1549A0601C22E6
:103240002C3107A8FDF74DF8002107A803F0F3FC87
:103250000F49E0601C2248310EA8FDF742F800211A
:103260000EA803F0E8FC0A4920611C22643115A86D
:10327000FDF737F8002115A803F0DDFC6061E06878
:1032800004F0E4F8606904F0E1F820B010BD00003B
:10329000547A00080400002070B586B014216846F6
:1032A000FDF738F82E480024016841F080010160E4
:1032B000016801F080010591016841F0040101609D
:1032C000016801F004010591016841F0010101600C
:1032D000016801F001010591016841F002010160FE
:1032E0000068204E00F002000590002241F2030128
:1032F0003046FEF732FE032000900125CDE901544F
:10330000694630460394FEF749FD18208DE83100E8
:1033100069463046FEF742FDC0208DE8310069461F
:103320001148FEF73BFDE802CDE9000469460F486D
:103330000294FEF733FD4FF440708DE8310069468A
:103340003046FEF72BFD2803CDE900050220CDE92C
:10335000020469463046FEF721FD06B070BD00004C
:1033600030380240000802400000024000040240E1
:10337000094810B5074901600021416040F6FF711E
:103380008160FEF7F5FD002803D0BDE81040FDF791
:10339000BFBE10BD003000405005002010B586B003
:1033A00000241748009401940294039404944FF06D
:1033B0008041059401605321C0E9011440F2F311EA
:1033C000C0E9031480218161FFF7B0F908B1FDF76E
:1033D0009FFE4FF48050009069460948FFF703FABA
:1033E00008B1FDF795FE049404A905480594FFF77C
:1033F00055F9002801D0FDF78BFE06B010BD000086
:103400005C05002010B586B0002417480094019494
:103410000294039404941349059401605321C0E974
:10342000011440F2E731C0E9031480218161FFF704
:103430007DF908B1FDF76CFE4FF4805000906946AD
:103440000948FFF7D0F908B1FDF762FE049404A91A
:1034500005480594FFF722F9002801D0FDF758FE32
:1034600006B010BD000400409C0500200E4810B5B9
:103470000C4901600D4941604FF480518160002189
:103480004FF48062C0E903120422C0E90521C16142
:10349000FFF760FB002803D0BDE81040FDF738BE01
:1034A00010BD000000100140DC050020A0860100D6
:1034B0000C4810B50A4901604FF4E1314160002128
:1034C00081600C22C160C0E904128161C161FFF713
:1034D00041FB002803D0BDE81040FDF719BE10BD28
:1034E000004400401C0600200D4810B50B49016047
:1034F0004FF4E131416000214FF480628160C0E906
:1035000003120C22C0E90521C161FFF723FB00284B
:1035100003D0BDE81040FDF7FBBD10BD00480040E2
:103520005C0600200D4810B50B4901604FF4E131F5
:10353000416000214FF480628160C0E903120C22D7
:10354000C0E90521C161FFF705FB002803D0BDE8F4
:103550001040FDF7DDBD10BD001401409C060020A9
:10356000FEE710B590ED1C0A90F880301824BDEEEF
:10357000C00AD0F8882004EB430310EE101A192477
:103580000912D15490ED1C0A90F88030D0F88820B0
:10359000BDEEC00A04EB430310EE101AD154D0F86C
:1035A0008800012180F8201010BD000070B504468D
:1035B0002DED0A8BB0EE408AF0EE608AD0F88C5088
:1035C000806820350646FDF738F80B4643EC1C0BA7
:1035D00002469FED83BB002E01DBA0680AE043ECAE
:1035E000102B53EC1B2B51EC100BFCF79EFEFDF740
:1035F00035F8A060A0F5EA219FED7BAB9FED7C9BA9
:10360000B1F56A2F62D8FDF718F853EC1A2BFCF7C6
:103610002DFF53EC182BFDF753F81CD8A068FDF7CD
:103620000CF853EC1A2BFCF780FE53EC182BFDF72B
:103630005FF810D86068FDF700F841EC190BA0683E
:10364000FCF7FBFF53EC182BFCF713FF41EC100BBE
:1036500053EC192BB5E0A068FCF7EFFF53EC182BE7
:10366000FDF746F814D86068FCF7E7FF41EC1A0B49
:10367000A068FCF7E2FF53EC182BFCF7FAFE53ECC2
:103680001A2BFCF752FE53EC192BFCF74EFE13E0FD
:103690006068FCF7D2FF41EC1A0BA068FCF7CDFF85
:1036A00053EC182BFCF7E5FE53EC1A2BFCF73DFE10
:1036B00053EC192BFCF7DAFEFDF732F8A06795ED15
:1036C000000AB1EE400A85ED000A81E0B0F5EA2F6C
:1036D00037DCFCF7B2FF53EC1A2BFCF726FE53EC59
:1036E000182BFCF7EDFF0FD8A068FCF7A6FF53ECF2
:1036F0001A2BFCF71AFE53EC192BFCF716FE53ECB1
:10370000182BFCF7F5FFC3D9A068FCF796FF53EC24
:103710001A2BFCF70AFE53EC182BFCF7E9FF89D3B0
:103720006068FCF78AFF41EC1A0BA068FCF785FF84
:1037300041EC190B53EC1B2B51EC180BFCF796FECC
:1037400037E0FCF77AFF53EC1A2BFCF78FFE53ECB3
:10375000182BFCF7CDFF10D8A068FCF76EFF53ECD8
:103760001A2BFCF783FE53EC192BFCF77FFE53EC6E
:10377000182BFCF7A5FF7FF676AFA068FCF75DFF7E
:1037800053EC1A2BFCF772FE53EC182BFCF798FF46
:10379000C5D36068FCF751FF41EC1A0BA068FCF739
:1037A0004CFF41EC190B53EC1B2B51EC180BFCF7A5
:1037B000BCFD53EC192BFCF759FE53EC1A2B41ECD2
:1037C000100B51EC100BFCF7B0FDFCF7A9FFA06744
:1037D00051EC1C0BFCF742FFA060BDEC0A8B70BDE6
:1037E0000000000000403D410000000000401D417D
:1037F0000000000000402D4110B5A0F50070013818
:103800000AD001280AD0022803D0032813D10A4C79
:1038100006E0094C903403E0084C01E0074C90347A
:10382000002C08D0204600F00BF804F18200BDE81F
:103830001040FDF775BC10BDAC0A0020CC0B002079
:1038400070B504462DED028B08889FED308B42BA8F
:103850006280488840BA00B22080898849BA618273
:1038600088B1A08A6168101A00B20144616010F545
:10387000805F02DA01F5005104E0B0F5805F02DDFF
:10388000A1F500516160A2826068FCF7D6FE0E4689
:1038900046EC100B9FED1F1B054653EC112B51EC12
:1038A000100BFCF75BFEFCF7D9FEE060FCF7C5FEF1
:1038B00053EC182BFCF7E0FD41EC110B46EC105BD0
:1038C00053EC112B51EC100BFCF7FAFEE06801D819
:1038D000401EE060FCF7B1FE53EC182BFCF7CCFD6A
:1038E0009FED0E1B53EC112BFCF7C6FD41EC180BA2
:1038F0006068FCF7A2FE53EC182BFCF7B7FDFCF751
:10390000ADFEA060BDEC028B70BD000000000000A9
:1039100000406D400000000000403D4100000000FC
:103920000000C04010B500F8801F074981600021E9
:10393000C180801C0121044601F067FF2046BDE8DC
:1039400010400021FDF7E1BB380000202DED048B75
:10395000114CD4F84C02FCF7A0FE41EC190BD4F842
:103960004402FCF79AFE41EC180BD4F84002FCF735
:1039700094FE41EC100BB0EE492AF0EE692AB0EE4D
:10398000481AF0EE681A00F009F8FDF7C5FA0120B0
:1039900003F032F9DDE70000AC0A00202DE9F04722
:1039A0002DED108BB0EE429AF0EE629AB0EE41AA85
:1039B000F0EE61AAB0EE40EAF0EE60EA9FEDF98B1E
:1039C0009FEDFADBFB4CFC4E9FEDFCCB9FEDFDBB6E
:1039D000FE4DA6F1200953EC1A2B51EC1A0BFCF703
:1039E0004BFD41EC1F0B53EC1E2B51EC1E0BFCF757
:1039F00043FD53EC1F2BFCF798FC41EC100B02F03D
:103A000007FC84ED020BD5F84802FCF746FEC4E93A
:103A1000000153EC1C2B51EC190BFCF751FE7DD12E
:103A200053EC1C2B51EC1E0BFCF74AFE0AD1B0EEF6
:103A30004C0AF0EE6C0A53EC102B51EC1A0BFCF70D
:103A40003FFE6BD0B0EE4C9AF0EE6C9AB0EE490AA5
:103A5000F0EE690A01F004FF53EC182B51EC100B47
:103A6000FCF70AFD53EC182BFCF706FD41EC100B9C
:103A700053EC102B94ED000B51EC100BFCF76EFD8A
:103A800053EC1B2BFCF7F8FC95F880204F4609EB14
:103A9000C202B0EE490AC2E90001F0EE690A01F083
:103AA000DFFE53EC182B51EC100BFCF7E5FC53EC4C
:103AB000182BFCF7E1FC41EC110B94ED000B53ECDF
:103AC000112B51EC100BFCF749FD53EC1B2BFCF7B1
:103AD000D3FC95F81021B0EE490A07EBC202F0EED4
:103AE000690AC2E9000101F0BBFE53EC182B51EC4E
:103AF000100BFCF7C1FC53EC182BFCF7BDFC41ECA0
:103B0000100B53EC102B94ED000B51EC100BFCF749
:103B100025FD53EC1B2BFCF7AFFC00E047E095F8CC
:103B2000A021B0EE490A07EBC202F0EE690AC2E931
:103B3000000101F095FE53EC182B51EC100BFCF733
:103B40009BFC53EC182BFCF797FC41EC100B53EC4F
:103B5000102B94ED000B51EC100BFCF7FFFC53EC19
:103B60001B2BFCF789FC95F83022904607EBC2022C
:103B7000C2E900019FED960B53EC102B94ED020B64
:103B800051EC100BFCF778FC95F8804006EBC40470
:103B9000C4E9000195F8104106EBC404C4E9000132
:103BA00095F8A04106EBC404C4E90001B5E153EC6B
:103BB0001C2B51EC1E0BFCF783FD7DD1B0EE4CFAB3
:103BC000F0EE6CFA53EC1F2B51EC1A0BFCF778FD5E
:103BD000F3D153EC1F2B51EC190BFCF771FD6BD09B
:103BE00084ED04FBB0EE4F0AF0EE6F0A01F038FEF0
:103BF00053EC182B51EC100BFCF73EFC53EC182B3C
:103C0000FCF73AFC41EC1A0BB0EE4F0AF0EE6F0AEB
:103C100001F026FE53EC182B51EC100BFCF72CFC9A
:103C200053EC1D2BFCF728FC53EC1D2BFCF724FC5C
:103C300041EC1E0BB0EE4F0AF0EE6F0A01F010FEE1
:103C400053EC182B51EC100BFCF716FC53EC182B13
:103C5000FCF712FC53EC1E2BFCF708FC53EC1A2B60
:103C6000FCF77CFC53EC1B2BFCF706FC95F8802042
:103C70004C4609EBC202B0EE4F0AC2E90001F0EE79
:103C80006F0A01F0EDFD53EC182B51EC100BFCF713
:103C9000F3FB53EC182BFCF7EFFB41EC1A0BB0EEE7
:103CA0004F0AF0EE6F0A01F0DBFD53EC182B51ECDC
:103CB000100BFCF7E1FB00E032E153EC1D2BFCF7AD
:103CC000DBFB53EC1D2BFCF7D7FB53EC1A2BFCF75B
:103CD00045FC53EC1B2BFCF7CFFB95F81021B0EE05
:103CE0004F0A04EBC202F0EE6F0AC2E9000101F0D4
:103CF000B7FD53EC182B51EC100BFCF7BDFB53EC4C
:103D0000182BFCF7B9FB41EC1E0BB0EE4F0AF0EE9E
:103D10006F0A01F0A5FD53EC182B51EC100BFCF7CA
:103D2000ABFB53EC1D2BFCF7A7FB53EC1D2BFCF757
:103D3000A3FB41EC1A0BB0EE4F0AF0EE6F0A01F054
:103D40008FFD53EC182B51EC100BFCF795FB53EC4B
:103D50001A2BFCF7EAFA53EC1E2BFCF7FFFB53EC93
:103D60001B2BFCF789FB95F8A021B0EE4F0A04EB62
:103D7000C202F0EE6F0AC2E9000101F071FD53ECDE
:103D8000182B51EC100BFCF777FB53EC182BFCF7BE
:103D900073FB41EC1E0BB0EE4F0AF0EE6F0A01F020
:103DA0005FFD19E00000000000000040000000007E
:103DB0000000E03F18020020A80D002000000000D5
:103DC000000000000000000000403D41AC0A00205F
:103DD000000000000000344053EC182B51EC100B95
:103DE000FCF74AFB53EC1D2BFCF746FB53EC1D2B59
:103DF000FCF742FB41EC1A0BB0EE4F0AF0EE6F0AF3
:103E000001F02EFD53EC182B51EC100BFCF734FB9A
:103E100053EC1A2BFCF72AFB53EC1E2BFCF79EFBF2
:103E200053EC1B2BFCF728FB95F830221FED180BE9
:103E3000904604EBC202C2E9000153EC102B51EC96
:103E4000190BFCF719FB0F4647EC100B04469FEDCE
:103E5000FE9B51EC100B53EC192BFCF70DFB53ECB4
:103E60001D2BFCF709FB9FEDFA8B53EC182BFCF78D
:103E700003FB9FEDF9AB53EC1A2BFCF7FDFA95F819
:103E8000802047EC104B06EBC202C2E9000153EC64
:103E9000192B51EC100BFCF7EFFA53EC1D2BFCF730
:103EA000EBFA53EC182BFCF7E7FA53EC1A2BFCF760
:103EB000E3FA95F8102147EC104B06EBC202C2E979
:103EC000000153EC192B51EC100BFCF7D5FA53EC15
:103ED0001D2BFCF7D1FA53EC182BFCF7CDFA53EC61
:103EE0001A2BFCF7C9FA95F8A02147EC104B06EB0A
:103EF000C202C2E9000153EC192B51EC100BFCF784
:103F0000BBFA53EC1D2BFCF7B7FA53EC182BFCF75C
:103F1000B3FA53EC1A2BFCF7AFFA06EBC8024FE3E7
:103F2000B0EE4CFAF0EE6CFA53EC1F2B51EC1E0B7A
:103F3000FCF7C6FB06D153EC1F2B51EC1A0BFCF718
:103F4000BFFB7CD053EC1F2B51EC190BFCF7B8FBDB
:103F5000F7D094ED020B53EC192B51EC100BFCF73E
:103F6000FDFA1FED6A0BC4E9040101F079FC53EC82
:103F7000182B51EC100BFCF77FFA53EC182BFCF7C5
:103F80007BFA41EC1F0B94ED000B02F0DDF894ED91
:103F9000041B51EC100B53EC112BFCF76DFA9FED49
:103FA000ACAB53EC1A2BFCF7C0F941EC1E0B94EDB3
:103FB000000B02F065F894ED041B51EC100B53EC70
:103FC000112BFCF759FA53EC1A2BFCF7AEF941EC24
:103FD000100BB0EE4E1AF0EE6E1A01F059FFB0EE73
:103FE00040EAF0EE60EA1FED8B0B01F039FC53EC78
:103FF000182B51EC100BFCF73FFA53EC1D2BFCF780
:104000003BFA53EC1E2BFCF731FA53EC1F2BFCF759
:10401000A5FA53EC1B2BFCF72FFA95F8A0214F467D
:1040200009EBC202C2E900011FED9C0B01F018FC74
:1040300053EC182B51EC100BFCF71EFA00E0C2E217
:1040400053EC182BFCF718FA41EC1F0B94ED000B06
:1040500002F07AF894ED041B51EC100B53EC112B89
:10406000FCF70AFA53EC1A2BFCF703FA41EC1E0B8F
:1040700094ED000B02F004F894ED041B51EC100BCE
:1040800053EC112BFCF7F8F953EC1A2BFCF74DF914
:1040900041EC100BB0EE4E1AF0EE6E1A01F0F8FE85
:1040A000B0EE40EAF0EE60EA1FEDBC0B01F0D8FB89
:1040B00053EC182B51EC100BFCF7DEF953EC1D2BD5
:1040C000FCF7DAF953EC1E2BFCF7D0F953EC1F2B5D
:1040D000FCF744FA53EC1B2BFCF7CEF995F81021B2
:1040E00007EBC202C2E900011FEDCC0B01F0B8FBE7
:1040F00053EC182B51EC100BFCF7BEF953EC182BBA
:10410000FCF7BAF941EC1F0B94ED000B02F01CF820
:1041100094ED041B51EC100B53EC112BFCF7ACF994
:1041200053EC1A2BFCF701F941EC1E0B94ED000B3C
:1041300001F0A6FF94ED041B51EC100B53EC112B76
:10414000FCF79AF953EC1A2BFCF790F941EC100BA1
:10415000B0EE4E1AF0EE6E1A01F09AFEB0EE40EAA2
:10416000F0EE60EA1FEDEB0B01F07AFB53EC182B3D
:1041700051EC100BFCF780F953EC1D2BFCF77CF98C
:1041800053EC1E2BFCF772F953EC1F2BFCF7E6F9EE
:1041900053EC1B2BFCF770F995F8802007EBC2025B
:1041A000C2E900011FEDFB0B01F05AFB53EC182B89
:1041B00051EC100BFCF760F953EC182BFCF75CF991
:1041C00041EC1F0B94ED000B01F0BEFF94ED041BBE
:1041D00051EC100B53EC112BFCF74EF953EC1A2B4E
:1041E000FCF747F941EC1E0B94ED000B01F048FF82
:1041F00094ED041B51EC100B53EC112BFCF73CF924
:1042000053EC1A2BFCF732F941EC100BB0EE4E1ABE
:10421000F0EE6E1A01F03CFEB0EE40EAF0EE60EA1D
:104220009FED0F0B01F01CFB53EC182B51EC100B06
:10423000FCF722F953EC1D2BFCF71EF953EC1E2B57
:10424000FCF714F910E0000039B4C876BE9FF63FC1
:104250003D0AD7A3703DCA3F000000000000244083
:10426000000000000000000053EC1F2BFCF776F963
:1042700053EC1B2BFCF700F995F8302207EBC20238
:10428000C2E9000194ED000B01F0FAFE94ED041B6D
:1042900051EC100B53EC112BFCF7EEF853EC1A2BEE
:1042A000FCF743F841EC180B94ED000B01F0E8FE2D
:1042B00094ED041B51EC100B53EC112BFCF7DCF8C4
:1042C00053EC1A2BFCF731F853EC182BFCF7D4F80D
:1042D00041EC1D0B94ED000B01F036FF94ED041B37
:1042E00051EC100B53EC112BFCF7C6F853EC1A2BC6
:1042F000FCF71BF841EC180B94ED000B01F024FFC8
:1043000094ED041B51EC100B53EC112BFCF7B4F89B
:1043100053EC1A2BFCF709F853EC182BFCF7ACF80C
:1043200053EC1D2BFCF701F841EC100B01F070FF72
:10433000B0EE408AF0EE608A9FEDFE0B51EC190B57
:1043400053EC102BFCF798F8884648EC110B074605
:1043500053EC182B51EC110BFCF78EF895F88020DC
:1043600006EBC202C2E9000194ED000B01F088FEE9
:1043700094ED041B51EC100B53EC112BFCF77CF863
:1043800053EC1A2BFBF7D1FF41EC180B94ED000B0B
:1043900001F076FE94ED041B51EC100B53EC112B45
:1043A000FCF76AF853EC1A2BFBF7BFFF53EC182B02
:1043B000FCF762F841EC190B94ED000B01F0C4FE20
:1043C00094ED041B51EC100B53EC112BFCF754F83B
:1043D00053EC1A2BFCF74DF841EC180B94ED000B45
:1043E00001F0B2FE94ED041B51EC100B53EC112BB9
:1043F000FCF742F853EC1A2BFCF73BF853EC182B64
:10440000FCF73AF853EC192BFBF78FFF41EC100B3C
:1044100001F0FEFE48EC117B53EC102B51EC110B1C
:10442000FCF72AF895F8102106EBC202C2E9000158
:1044300094ED000B01F024FE94ED041B51EC100BE5
:1044400053EC112BFCF718F89FEDBC8B53EC182B99
:10445000FBF76BFF41EC190B94ED000B01F010FE24
:1044600094ED041B51EC100B53EC112BFCF704F8EA
:1044700053EC182BFBF759FF53EC192BFBF7FCFF00
:1044800041EC1D0B94ED000B01F05EFE94ED041B5E
:1044900051EC100B53EC112BFBF7EEFF53EC1A2BE6
:1044A000FBF7E7FF41EC190B94ED000B01F04CFE1C
:1044B00094ED041B51EC100B53EC112BFBF7DCFFBC
:1044C00053EC1A2BFBF7D5FF53EC192BFBF7D4FF5A
:1044D00053EC1D2BFBF729FF41EC100B01F098FE6C
:1044E00048EC117B53EC102B51EC110BFBF7C4FF84
:1044F00095F8A02106EBC202C2E9000194ED000B81
:1045000001F0BEFD94ED041B51EC100B53EC112B8C
:10451000FBF7B2FF53EC182BFBF707FF41EC190B2D
:1045200094ED000B01F0ACFD94ED041B51EC100B6D
:1045300053EC112BFBF7A0FF53EC182BFBF7F5FE08
:1045400053EC192BFBF798FF41EC190B94ED000B82
:1045500001F0FAFD94ED041B51EC100B53EC112B00
:10456000FBF78AFF53EC1A2BFBF7DFFE41EC180B2D
:1045700094ED000B01F0E8FD94ED041B51EC100BE1
:1045800053EC112BFBF778FF53EC1A2BFBF7CDFE06
:1045900053EC182BFBF770FF53EC192BFBF7C5FE00
:1045A00041EC100B01F034FE48EC117B53EC102B66
:1045B00051EC110BFBF760FF95F8302206EBC202BD
:1045C000C2E9000117E095F8800006EBC00080ED1D
:1045D00000FB95F8100106EBC00080ED00FB95F89C
:1045E000A00106EBC00080ED00FB95F8300206EB61
:1045F000C00080ED00FB95F880004C4609EBC00040
:1046000053EC1C2B90ED000B51EC100BFCF758F801
:104610000DD295F8800053EC1B2B04EBC00797EDEF
:10462000000B51EC100BFBF780FEC7E9000195F879
:10463000100153EC1C2B04EBC00090ED000B51EC6F
:10464000100BFCF73DF80DD295F8100153EC1B2B25
:1046500004EBC00797ED000B51EC100BFBF765FE68
:10466000C7E9000195F8A00153EC1C2B04EBC00036
:1046700090ED000B51EC100BFCF722F80DD295F8E1
:10468000A00153EC1B2B04EBC00797ED000B51EC82
:10469000100BFBF74AFEC7E9000195F8300253EC16
:1046A0001C2B04EBC00090ED000B51EC100BFCF741
:1046B00007F80DD295F8300253EC1B2B04EBC00722
:1046C00097ED000B51EC100BFBF72FFEC7E9000133
:1046D00015F8800F06EBC00090ED000B51EC100BAD
:1046E000FCF71EF800EE100AE868B1EE400A80ED13
:1046F000080A95F8900006EBC00090ED000B51EC15
:10470000100BFCF70DF800EE100AD5F89C00B1EE86
:10471000400A80ED080A95F8200106EBC00090EDF4
:10472000000B51EC100BFBF7FBFFD5F82C110862C6
:1047300008E0000000000000000034403D0AD7A35C
:10474000703DCABF95F8B00106EBC00090ED000BBC
:1047500051EC100BFBF7E4FFD5F8BC110862287888
:1047600004EBC00090ED000B1148FEF71FFF95F819
:10477000900004EBC00090ED000B0D489030FEF768
:1047800015FF95F8200104EBC00090ED000B0948DF
:10479000FEF70CFF95F8B00104EBC00090ED000BA4
:1047A0000448BDEC108B9030BDE8F047FEF7FEBE2C
:1047B000AC0A0020CC0B00207047000030B4234C22
:1047C0000246C2F345136569002002F01F029D42B4
:1047D00001D1204611E0246D9C4201D11B480BE021
:1047E0001A4C783465699D4201D1204605E0246D5C
:1047F0009C4202D1154878303C30042A12D004DCA7
:10480000012A07D0032A1DD109E0092A0DD0172A51
:1048100018D113E00A6802604968416012E0096833
:10482000C1600FE0096801610CE091ED000A80EDC4
:10483000060A91ED010A80ED070A03E091ED000AF6
:1048400080ED090A30BC2C30FCF76ABCBC090020A2
:1048500010B5040036D0608D01F01F021043608552
:1048600009291AD006DC03290BD004290DD0072909
:1048700022D10EE00D2914D0162916D017291BD1EC
:1048800017E02046FCF77CFC16E02046FCF74CFCC9
:1048900012E0204600F0B0FB0EE02046FCF75AFC88
:1048A0000AE0204600F0BDFB06E0204600F0BAFA20
:1048B00002E02046FCF77AFCA08A4FF6FF7101EA7D
:1048C0004010608510BD0000C0ED051A80ED0B3A68
:1048D00080ED062AC0ED082A80EC030A9FED060A47
:1048E00080ED030A80ED040A80ED070A80ED090AD5
:1048F00080ED0A0A704700000000000090ED010AF8
:10490000D0ED1E0AB8EEC00A70EEC00AC0ED090A6A
:1049100090ED0B0AF4EEC00AF1EE10FA01DD80ED25
:10492000090AD0ED090AB1EE400AF4EEC00AF1EE30
:1049300010FA02D3B0EE600A01E080ED090ADFED63
:10494000791AB5EEC00AF1EE10FA08DDD0ED0C0AC6
:10495000B4EEE00AF1EE10FA01D2C0ED091A90EDC2
:10496000090AB5EEC00AF1EE10FA08D2D0ED0C0A31
:10497000B4EEE00AF1EE10FA01DDC0ED091AD0ED57
:104980000D0A90ED090A30EE801A80ED0D1AD0ED77
:104990000E0AB4EEE01AF1EE10FA01DDC0ED0D0AD8
:1049A00090ED0D1AF1EE600AB4EEE01AF1EE10FA95
:1049B00001D2C0ED0D0AD0ED0A0A30EE601A80ED8A
:1049C0000F1A80ED0A0AD0ED060A90ED0D2A60EE6E
:1049D000800A90ED070A40EE020A90ED080A40EEC8
:1049E000010AC0ED100A90ED110AF4EEC00AF1EED2
:1049F00010FA01DD80ED100AD0ED100AB1EE400A88
:104A0000F4EEC00AF1EE10FA01D280ED100AB0F90E
:104A10000010D0ED100A00EE101AB8EEC00A70EEC9
:104A2000C00AC0ED150A90ED170AF4EEC00AF1EEC7
:104A300010FA01DD80ED150AD0ED150AB1EE400A3D
:104A4000F4EEC00AF1EE10FA02D3B0EE600A01E013
:104A500080ED150AB5EEC00AF1EE10FA08DDD0EDD2
:104A6000180AB4EEE00AF1EE10FA01D2C0ED151A00
:104A700090ED150AB5EEC00AF1EE10FA08D2D0EDAD
:104A8000180AB4EEE00AF1EE10FA01DDC0ED151AD5
:104A9000D0ED190A90ED150A30EE801A80ED191A42
:104AA000D0ED1A0AB4EEE01AF1EE10FA01DDC0ED15
:104AB000190A90ED191AF1EE600AB4EEE01AF1EE5F
:104AC00010FA01D2C0ED190AD0ED160A30EE601AC4
:104AD00080ED1B1A80ED160AD0ED120AD0ED191ADE
:104AE00060EE800A90ED130A40EE210A90ED140A60
:104AF00040EE010AC0ED1C0A90ED1D0AF4EEC00A5A
:104B0000F1EE10FA01DD80ED1C0AD0ED1C0AB1EEC9
:104B1000400AF4EEC00AF1EE10FA01D280ED1C0A50
:104B20007047000000000000B0F90010D0ED1F0A2F
:104B300000EE101AB8EEC00A70EEC00AC0ED150AF9
:104B400090ED170AF4EEC00AF1EE10FA01DD80EDE7
:104B5000150AD0ED150AB1EE400AF4EEC00AF1EEE6
:104B600010FA02D3B0EE600A01E080ED150ADFED25
:104B7000340AB5EEC00AF1EE10FA08DD90ED181A0D
:104B8000B4EEC10AF1EE10FA01D2C0ED150A90EDB3
:104B9000150AB5EEC00AF1EE10FA08D290ED181A17
:104BA000B4EEC10AF1EE10FA01DDC0ED150AD0ED48
:104BB000190A90ED150A30EE801A80ED191AD0ED21
:104BC0001A0AB4EEE01AF1EE10FA01DDC0ED190A8E
:104BD00090ED191AF1EE600AB4EEE01AF1EE10FA57
:104BE00001D2C0ED190AD0ED160A30EE601A80ED40
:104BF0001B1A80ED160AD0ED120AD0ED191A60EEDC
:104C0000800A90ED130A40EE210A90ED140A40EE5E
:104C1000010AC0ED1C0A90ED1D0AF4EEC00AF1EE87
:104C200010FA01DD80ED1C0AD0ED1C0AB1EE400A3D
:104C3000F4EEC00AF1EE10FA01D280ED1C0A7047C2
:104C40000000000070B5054690F880003049441817
:104C5000207814283ED2081F90ED000A2846B8EEAE
:104C6000C00A85ED1F0AFFF75FFF2A482A4E8542DA
:104C700008D140213046FDF76BF9012802D1207898
:104C8000401C207023489030854208D18021304656
:104C9000FDF75EF9012802D12078401C20701D48E4
:104CA0001E4E9038854208D1B1153046FDF750F9B7
:104CB000012802D12078401C20701948854209D172
:104CC0004FF400713046FDF743F9012802D12078F6
:104CD000401C207020789FED130A142806D185ED22
:104CE0001F0A002068602078401C2070C0B2152880
:104CF00009D185ED1E0A002105F1820000F085FD35
:104D00002846FFF7FBFD2846BDE87040FEF729BCAA
:104D1000F0010020CC0B00200000024000080240FF
:104D2000AC0A0020000000002DE9F047DFF8E88021
:104D3000044608214046FDF70BF90127374E0025B0
:104D40004FF4805910B13570B56026E0B06800B9F5
:104D5000B460B068201AC82824D93078B8B91621B0
:104D60002F48FFF775FD2E48377002212C3000F0D8
:104D70004CFD2B480221683000F047FD00212848F7
:104D8000FBF7C8FE264801213C30FBF7C3FEB068A4
:104D9000201AE62801D2012200E0002249464046BE
:104DA000FDF7DBF810214046FDF7D2F818B1757019
:104DB000F560BDE8F087F06800B9F460F068201A8B
:104DC000C828F6D97078C8B9154816217830FFF789
:104DD0003FFD134877700221A43000F016FD104803
:104DE0000221E03000F011FD0D4802217830FBF780
:104DF00091FE0B480321B430FBF78CFEF068201ABB
:104E0000E62801D2012200E0002249464046BDE8E2
:104E1000F047FDF7A2B80000000802402000002083
:104E2000BC0900201CB50446806B01230022074901
:104E300000F0A4FA94F82A000221CDE90010002322
:104E40001A460821A06B00F0ABFA1CBD3000002010
:104E500010B5002842D00188C1F30A0220498A8097
:104E600042788378D20842EA4312C2F30A02CA8027
:104E70008278C378920942EA8302037942EA832264
:104E8000C2F30A020A8002794379520842EAC31245
:104E9000C2F30A024A800B7A44790122B3EB941FD1
:104EA00000D00A7544794B7AC4F30114A34200D0B0
:104EB0000A75427992090A724279C2F301124A7262
:104EC000C2884A8102898A814289CA81027B0A7426
:104ED000427B4A74827B8A74C07BC87410BD000018
:104EE000020200202DE9F0413E4E4FF485672DED82
:104EF000048B4FF4767530889FED3B8B9FED3C9A89
:104F00003C4CB84202D3C0F5856004E0A8420DD8FD
:104F1000A0F576704042FBF790FB53EC182BFBF7A3
:104F20001DFBFBF7FDFBC4F8400201E084ED909A05
:104F30007088B84202D3A0F5856003E0A8420CD87F
:104F4000A0F57670FBF779FB53EC182BFBF706FB0B
:104F5000FBF7E6FBC4F8440201E084ED919AB088C7
:104F6000B84202D3C0F5856004E0A8420DD8A0F590
:104F700076704042FBF761FB53EC182BFBF7EEFA1F
:104F8000FBF7CEFBC4F84C0201E084ED939A94ED5C
:104F9000909AB5EEC09AF1EE10FA06D194ED910A0E
:104FA000B5EEC00AF1EE10FA17D0D4F84402FBF7C0
:104FB00074FB41EC180B19EE100AFBF76EFB41EC89
:104FC000100BB0EE481AF0EE681A00F061FF51ECD9
:104FD000100BFBF7A5FBC4F84802BDEC048BBDE841
:104FE000F081000002020020000000000060834009
:104FF00000000000AC0A00201CB50446406B0123F1
:10500000002204F1080100F0B9F9002194F82A0007
:105010000B46CDE900100A460421606B00F0C0F990
:105020001CBD1CB50446406B0323002204F1200183
:1050300000F0A4F9002194F82A000B46CDE90010F5
:105040000A460821606B00F0ABF91CBD1E4D1F4CD9
:105050001F48FCF7B5FFFBF7A7FFD5F87C22D5E981
:105060009501FEF72BF8D5F8580290B1607880B121
:10507000206902F0EBF9D5F85402022802D0012889
:1050800002D004E0E06800E0606902F0DFF900208F
:1050900060706178D5F85802084310D1206902F099
:1050A00061F9D5F85402022802D0012802D004E0A8
:1050B000E06800E0606902F055F9012060700120AD
:1050C00001F09AFDC4E70000AC0A002004000020B3
:1050D000500500200A489FED090AD0F88C1081ED98
:1050E000080AD0F81C1181ED080AD0F8AC1181ED46
:1050F000080AD0F83C0280ED080A70470000000062
:10510000AC0A002010B5502080F31188BFF34F8FF8
:10511000BFF36F8F02F09EFB18B104494FF080502F
:105120000860002080F3118810BD000004ED00E04D
:1051300030B593B030216846FBF7ECF814210CA889
:10514000FBF7E8F81E480025016841F08051016036
:10515000006800F0805011901A48016841F48041C5
:1051600001600068022400F4804011900920009042
:105170004FF4803001900120CDE9050480050790AF
:1051800008AA0420A82182E813000B906846FDF7C6
:10519000DFF808B1FBF7BCFF0CA90F2081E8310054
:1051A0004FF4A0500F904FF48050109005210CA8A0
:1051B000FCF7C4FF002801D0FBF7AAFF13B030BDF5
:1051C00040380240007000400548016841F4700119
:1051D000016003494FF000608039086070470000AB
:1051E00088ED00E00148FDF76ABB00007C09002063
:1051F0000148FDF764BB00005C05002010B50748BE
:10520000FDF75DFB0648D0F87C12491CC0F87C1203
:10521000D0F87C02BDE81040FFF786BD9C05002059
:10522000AC0A0020F0B50268254D264E264FDFF867
:105230009CC0274B4FF0804EA84209D0704507D044
:10524000B04205D0B84203D0604501D0984203D1A6
:1052500022F070044A682243A8421BD0704519D03E
:10526000B04217D0B84215D0604513D0984211D043
:10527000184CA0420ED0184CA0420BD0174CA042A4
:1052800008D0174CA04205D0164CA04202D0164CB4
:10529000A04203D122F44074CA6822434C6922F030
:1052A0008002224302608A68C2620A688262A8425F
:1052B00001D0984201D10969016301214161F0BD2A
:1052C000000001400004004000080040000C0040C5
:1052D00000040140004001400044014000480140FA
:1052E00000180040001C00400020004010B58468F9
:1052F00042EA032224F47F440A432243826010BD21
:10530000826822F070020A4342F007018160704710
:1053100010B5046A036A23F001030362836923F072
:10532000F00343EA021324F00A020A438361026293
:1053300010BD10B5036A23F0100303628469036A89
:1053400024F4704444EA023223F0A00343EA01113A
:105350008261016210BD000006480749007A0128F9
:1053600005D0022802D10120C1F854027047002064
:10537000FAE7000002020020AC0A002030B5062A3D
:105380000DD8072B0BD8934209D903E08C5C851804
:10539000521C2C769A42F9DD012180F8201030BD94
:1053A00030B5DDE903450560C0E903410021C0E9EE
:1053B00001230175012180F8201030BD10B5806BEC
:1053C0000021C185C184FDF73AFB10BD70B5846B27
:1053D0002068406994F83910C0F3C01000252129D5
:1053E00004D118B1E584204600F046F820684069F1
:1053F00094F83A10C0F38010222904D118B1E58541
:10540000204600F02BF8E06B40F01000E0632046EF
:10541000FDF715FB70BD10B50146806B0968096882
:10542000C90513D40021C1850168CA6822F48072BD
:10543000CA6001684A6922F001024A6101684A694A
:1054400022F040024A61202180F83A10FDF7A0FDC9
:1054500010BD10B5806BFDF79CFD10BD0168CA68DA
:1054600022F49072CA6001684A6922F001024A611E
:10547000202180F83A1070470168CA6822F0C00203
:10548000CA60202180F83910704710B590F83A10A2
:10549000222901D0022010BD8168B1F5805F11D0B2
:1054A0000169002901681FD0496801F07F03816A02
:1054B0004A1C82620B70C18D491E0904090CC1850A
:1054C00018D02BE00269816A002A0268526805D070
:1054D000D2B20A80816A491C8162ECE7C2F30802F9
:1054E0000A80816A891CF7E74A68816A4B1C8362DB
:1054F0000A70E0E70168CA6822F02002CA60016809
:10550000CA6822F48072CA6001684A6922F0010206
:105510004A61202180F83A10FDF73AFD002010BDC5
:105520002DE9F041044600680169E26821F4405128
:1055300011430161A1682069E26901436069104378
:1055400001432068C26849F20C639A430A43C2606F
:1055500020684169A26921F4407111434161E06909
:10556000192764253226B0F5004F354A35492068A1
:105570004FF0000806D0884201D0904236D1FCF7A7
:10558000A7FE35E0884201D0904202D1FCF7A0FE90
:1055900001E0FCF78DFE61684A18A0FB070148EBAB
:1055A0000803FAF76DFE0146B0FBF5F00201B1FB0E
:1055B000F5F06FF01803584301EB800006EBC000D4
:1055C000B0FBF5F000F0F80002EB4002B1FBF5F0A3
:1055D000584301EB800006EBC000B0FBF5F000F093
:1055E0000700216810448860BDE8F081FCF760FE88
:1055F00001466068830F8200A1FB0701FAF740FEB5
:105600000146B0FBF5F06FF01802504301EB80004B
:1056100006EB0010B0FBF5F000F0F002B1FBF5F086
:1056200002EB0012B1FBF5F06FF01803584301EBE9
:10563000800006EB0010B0FBF5F000F00F00D0E7A3
:10564000001401400010014090F83910212901D0C8
:10565000022070478168B1F5805F016A0BD04A1C57
:105660000262026809785160C18C491E0904090C64
:10567000C1840ED017E009880268C1F308015160A7
:1056800001690029016A02D0491C0162ECE7891C0A
:10569000FBE70168CA6822F08002CA600068C1683E
:1056A00041F04001C16000207047000010B505487E
:1056B000FDF7C6F9BDE81040034B044A0449014810
:1056C00000F06EB8DC050020514E00086C0D002083
:1056D000DC0600200148FDF7B3B900001C060020DD
:1056E0000148FDF7ADB900005C0600200148FDF758
:1056F000A7B900009C060020FEE7000070B50A2054
:1057000001F044FA224C20600A2001F03FFA606068
:1057100020480068C16841F01001C16000250A20DE
:105720002572608102461B482168FDF7E5FB1420C5
:1057300001F02CFA183C2060142001F027FA606078
:1057400015480068C16841F01001C160142025723D
:105750006081024610482168FDF7CEFB122001F05F
:1057600015FA0C342060122001F010FA60600B482A
:105770000068C16841F01001C1601220257260818B
:105780002168BDE8704002460448FDF7B5BB000043
:10579000780D00209C0600201C060020DC0500205F
:1057A000F8B5144602681D461268D243D2062BD4BF
:1057B0000A68136823F00103136002680023166867
:1057C00052680092096862894968511ACEB2217AFA
:1057D00051B123722168FDF78FFB6089B04213D16C
:1057E000002D11D060680AE0012121726168FDF787
:1057F00083FB6089B04207D1002D05D0206801B03D
:10580000AC46BDE8F0406047F8BD0170704703B496
:1058100001984100009850EAC12018BF04204A0DA9
:1058200018BF40F0010040F2FF72B2EB515F08BFB9
:1058300040F00200012808BF052002B070470907A8
:10584000090E002804DB00F1E02080F80014704706
:1058500000F00F0000F1E02080F8141D70470000F8
:1058600010B5B94A2DED020B2DED0C8B82B00F99BE
:1058700021F000409FEDB6CB90422CDBA0F14053CD
:105880000E9AA3F17F631A430FD0B349884202DC1A
:1058900016D10E98A0B19DED0E0B02B0BDEC0C8B95
:1058A00002B0BDE8104001F0DBB80029C1BF9FED98
:1058B000AC0B02B0BDEC0C8B02B0C8BF10BD16E043
:1058C000012001F011F902B0BDEC0C8B02B0BDE873
:1058D000104001F0D9B8A44A9FEDA59B9FEDA6AB5F
:1058E00090425EDAA6499FEDA8CB814208DBB0EE7C
:1058F0004C0AF0EE6C0A02B0BDEC0C8B02B010BD8D
:105900009DED0E0B53EC102B51EC100BFAF7B4FD80
:1059100041EC180B9E480621B0EE480AF0EE680AEA
:10592000784400F089FF53EC182B51EC100BFAF778
:10593000A3FD41EC1B0B9748B0EE480AF0EE680A55
:105940000421784400F078FF53EC182B51EC100B35
:10595000FAF792FD53EC192BFAF7E7FC41EC100B28
:1059600051EC1B0B53EC102BFAF7F8FD41EC100B2C
:1059700053EC102B9DED0E0B51EC100BFAF77CFD48
:1059800053EC1A2BFAF775FD9DED0E1B53EC112B02
:10599000FAF76FFD53EC1C2BFAF76BFD41EC100B83
:1059A000A9E79FED7D8B9FED7EBB9DED0E0B002942
:1059B00053EC192B51EC100B52DAFAF7B6FC53ECFE
:1059C000182BFAF759FD41EC180B77480621B0EE79
:1059D000480AF0EE680A784400F02EFF53EC182BCA
:1059E00051EC100BFAF748FD41EC1D0B6F48B0EE7F
:1059F000480AF0EE680A0421784400F01DFF53ECD9
:105A0000182B51EC100BFAF737FD53EC192BFAF762
:105A10008CFC41EC190B51EC180B01F083FB41ECB1
:105A2000180B53EC192B51EC1D0BFAF797FD53ECA7
:105A3000182BFAF721FD53EC1A2BFAF717FD41EC5E
:105A4000100B51EC180B53EC102BFAF76EFC53ECC7
:105A50001B2BFAF711FD53EC1C2BFAF70AFD6DE036
:105A6000FAF707FD53EC182BFAF706FD41EC180B7B
:105A700001F058FB41EC1A0B00208DED00AB0090BB
:105A80009DED000B51EC1A0B53EC102BFAF74DFC6B
:105A90009DED000B41EC1C0B53EC102B51EC100B4B
:105AA000FAF7EAFC53EC182BFAF7E3FC53EC1C2B47
:105AB000FAF754FD41EC1C0B3D48B0EE480AF0EEFD
:105AC000680A0621784400F0B7FE53EC182B51EC1D
:105AD000100BFAF7D1FC41EC1D0B3648B0EE480A2A
