:020000040800F2
:10000000385100205D020008114F00082730000819
:100010007D360008850D00088D5F00080000000097
:100020000000000000000000000000009D0100082A
:100030001111000800000000F90100087D590008B6
:1000400077020008770200087702000877020008AC
:10005000770200087702000877020008770200089C
:10006000770200087702000877020008770200088C
:100070001910000877020008251000087702000810
:10008000311000083D1000087702000877020008D0
:10009000890D00087702000877020008770200083F
:1000A000770200085D5A000877020008770200080E
:1000B000695A0008755A000877020008770200089C
:1000C000770200087702000877020008770200082C
:1000D00077020008255F00084D5F0008595F00089F
:1000E000770200087702000877020008770200080C
:1000F00077020008770200087702000877020008FC
:1001000077020008770200087702000877020008EB
:1001100077020008770200087702000877020008DB
:1001200077020008491000085510000877020008FF
:1001300077020008000000000000000077020008BD
:10014000C50D000877020008770200087702000852
:10015000770200086110000877020008815F00083C
:10016000770200087702000877020008770200088B
:10017000770200087702000800000000000000007D
:100180007702000877020008DFF80CD000F0FAFBD5
:1001900000480047E5730008385100202C4B1968CF
:1001A0000868B0E8F04F80F30988BFF36F8F4FF015
:1001B000000080F3118870470000000008480068C4
:1001C000006880F308884FF0000080F3148862B65E
:1001D00061B6BFF34F8FBFF36F8F00DF00BF00BF6B
:1001E00008ED00E0DFF80C00016841F470010160E7
:1001F000704700BF88ED00E0EFF30980BFF36F8F19
:10020000134B1A681EF0100F08BF20ED108A20E96A
:10021000F04F106009B44FF0500080F31188BFF325
:100220004F8FBFF36F8F07F0DDFD4FF0000080F3BD
:10023000118809BC19680868B0E8F04F1EF0100F6B
:1002400008BFB0EC108A80F30988BFF36F8F704746
:1002500050020020EFF305807047000006488047F9
:1002600006480047FEE7FEE7FEE7FEE7FEE7FEE79B
:10027000FEE7FEE7FEE7FEE7415A000889010008B5
:100280002DE9F05F0546002092469B4688460646CB
:10029000814640241BE0284641464746224600F05E
:1002A0006AFA53465A46C01A914110D3114618466D
:1002B000224600F051FA2D1A67EB01084F462246FC
:1002C0000120002100F048FA17EB00094E41201EE2
:1002D000A4F10104DFDC484631462A464346BDE826
:1002E000F09F40EA01039B0703D009E008C9121FF1
:1002F00008C0042AFAD203E011F8013B00F8013BE0
:10030000521EF9D27047D2B201E000F8012B491E0B
:10031000FBD270470022F6E710B513460A460446A2
:100320001946FFF7F0FF204610BD2DE9FE4F80462D
:1003300081EA0300C00F0C46009021F0004123F039
:100340000045B8EB0200A94105D24046214690463F
:100350001C460B46024623F00040104347D0270DB1
:10036000C7F30A00C3F30A510290401A01904028D3
:100370006BDAC3F3130040F4801B0098924620B15F
:100380000023D2EB030A63EB0B0B01985946C0F133
:100390004002504600F0E0F906460D4650465946E8
:1003A000019A00F0F8F910EB08006141002487EA97
:1003B000115284EAE7731A4340D0009A62B3019A5B
:1003C000012A4FEA075215DC001B61EB02014FF0D6
:1003D000004202EA0752CDE90042001C41F58011BB
:1003E00032462B4600F02FFA03B0BDE8F08F4046AE
:1003F0002146F9E7001B61EB0201001C41F5801367
:1004000000185B412018A2F5001747EB030140EAF2
:10041000D570B6196D4111E06D084FEA360645EA10
:10042000C0754FEA0752001B61EB0201001C41F549
:10043000801149084FEA30000019514132462B46DD
:1004400003B0BDE8F04F00F0EFB900980122400082
:100450000023D0EB020263EBE073009821464FEAE1
:10046000E074B8EB000061EB0401E9E783F00043BE
:100470005BE781F0004158E72DE9FE4F81EA030474
:1004800004F0004421F0004100944FF0000B23F0F1
:10049000004350EA01045ED052EA03045BD0C3F388
:1004A0000A54C1F30A552C44A4F2F3340194A0FB7E
:1004B0000254C1F3130141F48011C3F3130343F455
:1004C000801301FB024400FB034E840A970A44EAAE
:1004D000815447EA8357A4FB076802958D0A05FB00
:1004E00007854FEA932C04FB0C542705029D4FEA25
:1004F000065847EA1637B5EB08056EEB070C870E72
:10050000920E47EA811742EA8312A7FB0201B6EB7B
:100510000B0164EB00042B0D43EA0C335E1844EB33
:100520001C50DA465146E7FB0201C5F313044FEABB
:100530000B3343EA14534FEA0432019C43EA0603A7
:10054000A4F10C040294009CCDE900B400F07BF906
:1005500003B0BDE8F08F00200146F9E72DE9F04D2A
:1005600081EA030404F0004B21F0004514464FF0EB
:10057000000A23F0004150EA050220D054EA0102AB
:100580001DD0C5F30A570246C5F31303C1F3130088
:10059000C1F30A5640F4801543F48013A7EB060814
:1005A000101BD64608F2FD3873EB050002D308F1A4
:1005B000010801E092185B41B8F1000F03DA002056
:1005C0000146BDE8F08D00204FF4801106468446B8
:1005D0000EE0171B73EB050705D3121B63EB050336
:1005E00006434CEA010C49084FEA300092185B417F
:1005F00050EA0107EDD152EA030012D082EA04006A
:1006000083EA0501084305D0101BAB4106D2012245
:10061000002306E000224FF0004302E06FF00102E9
:1006200053101AEB06004CEB085110EB0A0041EB9B
:100630000B01BDE8F04D00F0F7B80EB5C10F80EA30
:10064000E0700844CA07002140F233438DE80E00F1
:100650000A460B4600F0F7F803B000BD70B5C1F3D1
:100660000A5201F000450024C1F3130140F2FF33A8
:1006700041F480119A4201DA002070BD40F2334308
:100680009A42A2F2334203DC524200F074F800E0D6
:1006900090402C43F1D0404270BD00F0004230F059
:1006A00000400AD0C10D01F56071C0F3160042EAA6
:1006B0000151C208400711437047002001467047AE
:1006C00030B5041E71F1000404DB4FF000444042D9
:1006D00064EB0101141E73F1000405DB1C464FF0AE
:1006E0000043524263EB04038B4208BF824230BD99
:1006F00030B5041E71F1000404DB4FF000444042A9
:1007000064EB0101141E73F1000405DB1C464FF07D
:100710000043524263EB0403994208BF904230BD4C
:1007200001F0004330B421F0004150EA010206D04C
:100730000A0DA2F56072C1F31301002A02DC30BC7D
:1007400000207047440F44EAC104C100E01830BCE7
:1007500000EBC25000F031B8202A04DB203A00FA46
:1007600002F1002070479140C2F1200320FA03F308
:10077000194390407047202A04DB203A21FA02F006
:100780000021704721FA02F3D040C2F120029140CB
:10079000084319467047202A06DBCB17203A41FA56
:1007A00002F043EAE07306E041FA02F3D040C2F1FE
:1007B000200291400843194670470029A8BF70479E
:1007C000401C490008BF20F00100704710B4B0FA87
:1007D00080FC00FA0CF050EA010404BF10BC704722
:1007E00049B1CCF1200421FA04F411FA0CF118BF3C
:1007F000012121430843A3EB0C01CB1D4FEA00610B
:100800004FEA102042BF002010BC704700EBC350DD
:1008100010440029A4BF10BC7047401C490008BF09
:1008200020F0010010BC704710B5141E73F10004D5
:1008300008DA401C41F1000192185B411A4301D1D2
:1008400020F0010010BD2DE9F04D92469B4611B1FC
:10085000B1FA81F202E0B0FA80F220329046FFF75E
:100860007BFF04460F4640EA0A0041EA0B0153466B
:100870005A46084313D0114653EA010019D0C8F173
:1008800040025046FFF777FF05460E465046594650
:100890004246FFF761FF084305D0012004E02046EF
:1008A0003946BDE8F08D0020054346EAE0762C434A
:1008B00037430A986305E40AA0EB08000022FD0A0A
:1008C00044EA47540A3002D500200146E9E7010511
:1008D00010196941DDE9084500196941BDE8F04D8D
:1008E000A2E72DE9F04D00231A461B1A8A4103DBCB
:1008F00000200146BDE8F08DC1F30A52C1F3130197
:1009000041F480154FF0000BD10702D100186D4162
:10091000521E0027044640F2FF11384601EB620ADE
:100920003E468046024600204FF48011FFF723FF29
:10093000C2197141BB1846EB0100B4EB030C75EB17
:10094000000C04D3E41A65EB000517460E46241983
:1009500008F101006D4180463428E3DDF91946EBCA
:100960000600091BA84103D24FF0FF32134601E0F5
:10097000002213461BEB070046EB0A51BDE8F04D81
:10098000FFF752BF064C074D06E0E06840F0010358
:1009900094E8070098471034AC42F6D3FFF7F8FB11
:1009A00000860008208600080EB540F2334102910F
:1009B0000021CDE900110A460B46FFF744FF03B0C2
:1009C00000BD70B58C1810F8015B15F0070301D15C
:1009D00010F8013B2A1106D110F8012B03E010F8A2
:1009E000016B01F8016B5B1EF9D12B0705D40023C5
:1009F000521E0DD401F8013BFAE710F8013BCB1A67
:100A0000921C03E013F8015B01F8015B521EF9D55B
:100A1000A142D8D3002070BD10B5064C012211466A
:100A2000204601F0E2FA20460122BDE810400221F2
:100A300001F0DBBA000802400A49087958B10128E0
:100A40000BD002280BD0032804D1002008710649DE
:100A5000C1F854027047012002E0022000E00320A8
:100A60000871704704000020BC0A00200849C878BB
:100A700048B1012809D0022804D10020C8700549D6
:100A8000C1F854027047012000E00220C87070478E
:100A900004000020BC0A002070B50446006800284D
:100AA00014D16068002811D0606808280FD0184D54
:100AB0006169685C90B1012815D0022819D003281B
:100AC00004D16068082801D10020A06070BD04F145
:100AD0002C00BDE87040002105F0F9BA60680128DB
:100AE000F4D1032009E060680728EFD102206854A0
:100AF00070BD60680128FBD10820A0600721204656
:100B000004F052FA6069295C491C295470BD000048
:100B100022000020002280F8282042609FED0E0A6B
:100B2000026180ED070A026080ED080AC2608260FF
:100B30004B014161438501EBC103084980ED090A7E
:100B400001EB830101F12403B431C0E90D310286C8
:100B500001212C3005F0BBBA000000003800002055
:100B600010B56D4C2DED068BDFED6C8AB0EE683A5A
:100B70009FED6B8AF0EE482AB0EE482A9FED699A05
:100B8000B0EE481AF0EE480AF0EE491ADFED669A28
:100B900004F11800B0EE690A04F0C8FA03212046F7
:100BA00002F04EFF9FED61AAF0EE482AB0EE482A0F
:100BB000B0EE4A3ADFED5EAAB0EE481AF0EE480A0F
:100BC000F0EE6A1AB1EE040A04F1480004F0AEFA3D
:100BD000B0EE683ADFED572A04F1A800B0EE482ADB
:100BE000F0EE491AB0EE481AF0EE480AB0EE690A83
:100BF000903404F09BFA0221204602F021FFB0EE6F
:100C00004A3AF0EE482AB0EE482AF0EE6A1AB0EE00
:100C1000481AF0EE480AB1EE040A04F1480004F064
:100C200085FA903C04F59C70B0EE683AF0EE482AE4
:100C3000B0EE482AF0EE491AB0EE481AF0EE480A33
:100C4000B0EE690A04F5907404F070FA00212046B1
:100C500002F0F6FEB0EE4A3AF0EE482AB0EE482A2C
:100C6000F0EE6A1AB0EE481AF0EE480AB1EE040A45
:100C700004F1480004F05AFA274CB0EE683A04F543
:100C8000E470F0EE482AB0EE482AF0EE491AB0EED1
:100C9000481AF0EE480AB0EE690A04F5D87404F078
:100CA00045FA0121204602F0CBFEB0EE4A3AF0EEC2
:100CB000482AB0EE482AF0EE6A1AB0EE481AF0EE72
:100CC000480AB1EE040A04F1480004F02FFA124C6D
:100CD00019480021C4F8AC01FFF71CFF1648012198
:100CE0003C30C4F83C02FFF715FF14480221C4F859
:100CF0001C01FFF70FFF114803213C30C4F88C00A2
:100D0000FFF708FF0120C4F854020020C4F858027D
:100D1000BDEC068B10BD0000BC0A00200000FA45A7
:100D20000000000000401C46CDCC4C3F00C0DA451E
:100D300000409C450000FA44CC090020440A0020F1
:100D400010B50E4A0E4B00249078197838B101285E
:100D500009D002280DD0032800D1947010BD0A29B3
:100D6000FCD1012002E00B29F8D1022090701C7008
:100D700010BD0C29FCD10320F8E70000040000207E
:100D800000020020FEE7000010B588B00B4800F01C
:100D900048FC0B4B6A461C460021084800F0B7FB94
:100DA0000098B0F5007F05D280B2214604F0B2F879
:100DB00008B010BD214602F0ADFDF9E7BC020020ED
:100DC000200D002010B588B0074800F02AFC074B22
:100DD0006A461C460021044800F099FB2146009811
:100DE00000F0D8F808B010BDE4020020300D00205B
:100DF00010B50446406A002810D00721204600F0B4
:100E000065FA204600F016FE204600F054FE20460B
:100E100000F008F802480188491C018010BD00005C
:100E2000E801002010B504460F4A0E2000218AB0C8
:100E3000944201D1059100E00590099001200191B3
:100E40000291CDE906100391009104910890694642
:100E5000204600F0D5FA204600F002FE022120468E
:100E600000F057FA0AB010BDBC020020174F012550
:100E700007F1240A07F148090026154C07F16C0810
:100E80009037144801F0E4F800221049124800F0AD
:100E900025F820784FF0000268B141460E4800F076
:100EA0001DF8002239460C4800F018F82670012081
:100EB00006F008FBE5E75146074800F00FF800226E
:100EC0004946054800F00AF82570F0E73800002090
:100ED0000400002060050020BC02002038B5054653
:100EE0000E480C46D0F87C0291F8200001280FD162
:100EF000284600F080FB00280AD06B4604F1180257
:100F00002146284600F017FA18B12846FFF770FF6F
:100F100038BD002084F8200038BD0000BC0A002045
:100F200010B51A4804F01CF9184802F0A8FB17483D
:100F30009030044604F014F9204602F0A0FB144857
:100F4000044604F00DF9204602F099FB1048903059
:100F5000044604F005F9204602F091FB0B4C0D21EC
:100F6000D4F88C0004F020F80D21D4F81C0104F012
:100F70001BF80D21D4F8AC0104F016F8D4F83C02AB
:100F8000BDE810400D2104F00FB80000BC0A00209D
:100F9000DC0B0020202805D0212803D0222801D0F6
:100FA000302802D1087801490870704700020020FB
:100FB000164A10B5107D012803D104F009FE002067
:100FC00010751348D0F8540206281ED2DFE800F04E
:100FD00003070D111519BDE8104004F0B7BC0D480A
:100FE0004069BDE8104006F023BEBDE8104004F0A3
:100FF000ABBBBDE81040FFF7A3BEBDE81040FFF754
:1010000035BDBDE81040FFF717BD10BD020200203E
:10101000BC0A002004000020014800F095BD00003B
:101020000C080020014800F08FBD00006C08002073
:10103000014800F089BD00004C070020014800F085
:1010400083BD0000AC070020014800F07DBD00001A
:10105000CC080020014800F077BD0000EC0600201D
:10106000014800F071BD00002C0900200168182320
:10107000CAB2103AB2FBF3F2054B6FF30901032A2F
:101080009B5CC36500D9091D816508467047000057
:10109000A083000810B5014600208B698A6A4FF0D2
:1010A000C07453B1B3F5005F15D072B1012A0CD0F2
:1010B000022A0AD0032A09D104E01AB1012A06D073
:1010C000022A03D1C96AC90100D5012010BDC96A2D
:1010D000A142FAD010BD002AF7D0012AF2D0022A8C
:1010E000F3D0032AF3D010BD30B50468256825F489
:1010F00080252560046863608368402B036803D003
:1011000099600068C26030BD9A600068C16030BDFF
:101110007047000010B5194C17482DED028B9FED5C
:10112000188B2060B0EE480AF0EE680A04F0FCFF6D
:101130009FED151B51EC100B53EC112BFFF79CF995
:10114000FFF7EEFADFED130A01EE900A9FED103A79
:10115000F0EE602AB0EE602AB0EE601A9FED0E0A43
:10116000201D03F0E3FF84ED0E8B012084F8400086
:10117000BDEC028B10BD0000780D0020000E002099
:10118000000000000000000000000000000000401F
:10119000CDCC4C3F00000000CDCC4C3E4180704790
:1011A00001221103014800F020BF000000080240A6
:1011B00000218180704700001CB50446806B01232C
:1011C0000022074904F016FD94F82A000221CDE917
:1011D000001000231A460821A06B04F01DFD1CBD61
:1011E000300000201CB50446806B01230022074913
:1011F00004F000FD94F82A000221CDE9001000233C
:101200001A460821A06B04F007FD1CBD3000002029
:101210001CB50446806B01230022074904F0EAFC58
:1012200094F82A000221CDE9001000231A46082173
:10123000A06B04F0F1FC1CBD300000201CB504467E
:10124000806B01230022074904F0D4FC94F82A00A3
:101250000221CDE9001000231A460421A06B04F0FE
:10126000DBFC1CBD3000002010B5064C0022012123
:10127000204600F0BAFE20460122BDE810400221BF
:1012800000F0B3BE0008024010B50E484FF496714E
:101290000D4C4068B0FBF1F201FB1201C8294FF080
:1012A00000024FF00101204603D900F09EFE00220B
:1012B00002E000F09AFE01222046BDE81040022123
:1012C00000F093BEF40100200008024090F82020B6
:1012D000012A07D0022A05D0416A41F480214162E7
:1012E00001207047CA0704D00268936843F0800366
:1012F00093608A0704D50268936843F400439360BF
:10130000490704D50068816841F40001816000202C
:10131000704790F82020012A07D0022A05D0416AA0
:1013200041F48021416201207047006842690A430C
:10133000426100207047F0B590F820500468A4681E
:10134000012D05D0022D03D0416A41F4802153E0E4
:1013500014F0406F01D1E5004BD5C4F30164022CB9
:1013600003D9416A41F4000146E00125A5401D6012
:101370008B684FF4C0759BB1CE6833434E6843EA27
:10138000C603066805EB0417F3514FF4C2730768F0
:1013900003EB04130E69FE50097D012905D009E015
:1013A0000E88CB6843EA4653EBE70168CE5846F413
:1013B0008076CE501179D2F805304FF4C67641EAE6
:1013C0000323016806EB04168B511178D2F8012033
:1013D0004FF4C47341EA0221026803EB0413D150B5
:1013E000006805EB0411425842F00102425000200F
:1013F000F0BD416A41F4001141620120F0BD0000DE
:1014000010B590F82020012A07D0022A05D0416AA1
:1014100041F480214162012010BD3B48D0F80022F8
:1014200042F00102C0F80022D0F8002222F47C52DF
:10143000C0F80022D0F800224B6A42EA0322C0F82A
:1014400000220A7D02F01F0301229A40D0F81C32CC
:101450009343C0F81C32CB69B3B9D0F80C32934334
:10146000C0F80C328C894B6864F31F434C6900EB65
:10147000C404C4F840320C890B6864F31F434C6900
:1014800000EBC404C4F84432CB69012B16D1D0F868
:101490000C321343C0F80C320C884B6864F31F43C2
:1014A0004C6900EBC404C4F840320C89CB6864F387
:1014B0001F434C6900EBC404C4F844328B69002B11
:1014C000D0F804320ED01343C0F804320B69002B5D
:1014D000D0F8143208D01343C0F81432096A012935
:1014E00004D008E09343EFE79343F5E7D0F81C12EC
:1014F0001143C0F81C12D0F8001221F00101C0F80D
:101500000012002010BD000000640040704730B59C
:1015100090F82040012C05D0022C03D0416A41F400
:1015200080215DE00468002955D02469A40754D0C7
:101530004FF4D874056804EB01142D5915F0040517
:10154000956005682D594ED0ED08556005682C59F9
:1015500004F00204D4604FF4DA74056804EB01145B
:101560002D5905F00F05156105682D59C5F307259F
:10157000956105682C59240C54614FF4DC720468A1
:1015800002EB0112A4581C700468A458240A5C7071
:101590000468A458240C9C700468A258120EDA70D7
:1015A0004FF4DE72046802EB0112A4581C71046847
:1015B000A458240A5C710468A458240C9C71046823
:1015C000A258120EDA71006881B1016941F0200160
:1015D0000161002030BDE468A8E7416A41F40011D0
:1015E0004162012030BD6D0D1560AFE7C16841F06B
:1015F0002001C160EDE70246002092F82010012989
:1016000001D002290CD111688A68520100D501204D
:101610008A68120100D5401C8968C90000D5401CA9
:1016200070472DE9F05F0546006800244669D0F850
:1016300004908768D0F80CB0D0F810A0D0F81880CB
:10164000F10748D0F90714D001218160B80703D50C
:10165000284600F061FA0CE0780702D54FF40064E8
:1016600007E0380702D54FF4805402E0284600F026
:1016700052FAF80516D529684FF480708860B805CD
:1016800003D5284600F04AFA0CE0780502D544F468
:10169000005407E0380502D544F4804402E02846AF
:1016A00000F03BFAF80316D529684FF480308860C3
:1016B000B80303D5284600F033FA0CE0780302D5CE
:1016C00044F4004407E0380302D544F4803402E0D7
:1016D000284600F024FA300707D55FEACB6004D52E
:1016E0002968102044F40074C86070074FF00807A0
:1016F00007D55FEA0B7004D52868C760284600F05C
:10170000AAF9B00706D52868C068800702D0284625
:1017100000F0A2F9700607D55FEACA6004D529680F
:10172000102044F480640861B00607D55FEA0A70AF
:1017300004D528680761284600F08FF9F00606D521
:1017400028680069800702D0284600F087F9B003B6
:1017500008D55FEAC96005D5296810204860284689
:1017600000F07DF9F00307D55FEA097004D5286819
:101770004760284600F0D5F9300446D55FEA497045
:1017800040D5F00504D55FEAC87001D044F00104EB
:10179000B00504D55FEA887001D544F002047005F5
:1017A00004D55FEA487001D544F00404300529D51A
:1017B00018F0700F26D008F07000402815D006DC15
:1017C000102809D020280AD0302816D10AE0502845
:1017D0000ED0602811D10EE044F008040DE044F072
:1017E00010040AE044F0200407E044F0400404E060
:1017F00044F0800401E044F480742868816921F099
:1018000070018161296804204860002C05D0686A55
:10181000204368622846FFF779FEBDE8F09F70B567
:10182000040003D094F8200010B104E0012070BD42
:10183000204600F081F82068016821F00201016073
:1018400000F0D8FB0546052604E000F0D3FB401B62
:101850000A2811D8206840688007F6D420680168FB
:1018600041F00101016000F0C5FB05460BE000F00E
:10187000C1FB401B0A2806D9606A40F40030606250
:1018800084F82060D2E720684068C007EFD0207E4F
:101890000128206801683DD021F080010160607E50
:1018A00001282068016838D021F040010160A07E45
:1018B00001282068016833D021F020010160E07E1A
:1018C0000128206801682ED041F010010160207FBE
:1018D00001282068016829D021F008010160607F9B
:1018E00001282068016824D021F004010160D4E9B6
:1018F00002010843D4E90412114308436168491EF8
:1019000008432168C86100206062012084F820003B
:10191000002070BD41F08001C0E741F04001C5E703
:1019200041F02001CAE721F01001CFE741F00801A2
:10193000D4E741F00401D9E7F0B587B0044614219B
:101940006846FEF7E7FC3649364ADFF8D0E008681B
:10195000D4F800C0334B0224032509261032002797
:10196000401CF44523D10860012807D1106840F0DD
:1019700000701060106800F000700590186840F06A
:10198000010018601868694600F0010005904FF4E6
:10199000C0508DE89100CDE90356234800F046FA87
:1019A00000220521142000F0DFFB142031E0DFF8D5
:1019B0007CE0F4452FD1D2F800C04CF0806CC2F826
:1019C00000C0D2F800C001280CF0806CCDF814C023
:1019D000086007D1106840F000701060106800F0D7
:1019E00000700590186840F0020018601868694699
:1019F00000F00200059060208DE89100CDE90356CB
:101A00000B4800F013FA00220521402000F0ACFB47
:101A1000402000F09BFB07B0F0BD000000640040D8
:101A20000000002030380240000002400068004002
:101A30000004024090F820200021012A08D0022A48
:101A400006D0416A41F48021416201210846704775
:101A500000224262FAE7704770477047704770474C
:101A600070B5044690F82000012804D0606A40F464
:101A70000020606217E0022084F8200020680168DE
:101A800021F00101016000F0B5FA05460DE000F01B
:101A9000B1FA401B0A2808D9606A40F4003060623D
:101AA000052084F82000012070BD20684068C00730
:101AB000EDD1606270BD70B5044690F82000022838
:101AC00004D0606A40F48010606214E0206801680D
:101AD00041F00101016000F08DFA05460DE000F0D3
:101AE00089FA401B0A2808D9606A40F40030606215
:101AF000052084F82000012070BD20684068C007E0
:101B0000EDD02068016821F002010160012084F815
:101B10002000002070BD70477047704770477047C5
:101B20007047704790F83510022903D08021416535
:101B300001207047052180F835100068016821F008
:101B400001010160002070472DE9F84304464FF081
:101B50000009CDF8009063484FF41651A56D006858
:101B6000B0FBF1F72E6894F85C20082101FA02F02E
:101B700030420FD02068026852070BD5026822F06D
:101B80000402026094F85C008140A960606D40F03E
:101B90000100606594F85C104FF0010808FA01F04C
:101BA000304208D021684969090604D5A860606DF3
:101BB00040F00200606594F85C10042088403042D8
:101BC00008D021680968890704D5A860606D40F0D5
:101BD0000400606594F85C1010208840304218D0F2
:101BE00021680968090714D5A860206801684903BD
:101BF00004D50068000308D5A16C07E00168C90599
:101C000003D4016821F008010160216C09B120466C
:101C1000884794F85C1020208840304231D02168F9
:101C20000968C9062DD5A86094F8350005282068F4
:101C3000016806D0490347D5006800031DD4616CD4
:101C40001CE021F0160101602068416921F080014B
:101C50004161206C08B9A06C20B12068016821F0B6
:101C60000801016094F85C103F208840A86084F867
:101C7000349084F83580216D1FE0E16B09B1204676
:101C80008847606D00282BD0606DC00714D00520F8
:101C900084F835002068016821F001010160009896
:101CA000401C0090B84203D820680068C007F6D1F5
:101CB00084F8349084F83580E16C002910D001B0AC
:101CC0002046BDE8F04308470168C905D5D401683E
:101CD00021F01001016084F8349084F83580CCE75D
:101CE000BDE8F8834C0200202DE9F041044600F0E5
:101CF00081F905465CB1002684F83460022084F83E
:101D000035002068016821F0010101600DE001202B
:101D1000BDE8F08100F06EF9401B052805D92020B0
:101D20006065032084F83500F2E720680068C0078A
:101D3000F0D121680A6820480240D4E90103184321
:101D4000D4E903352B43184363691843A369184347
:101D5000E3691843236A18431043626A042A03D1D3
:101D6000D4E90B231A431043086020684069656A70
:101D700020F0070128460D43012704280CD1A06A52
:101D80000543E06A40B12046FFF784F920B14020C6
:101D9000606584F83570BAE7206845612046FFF732
:101DA00065F994F85C203F2191408160666584F874
:101DB00035700020ACE700003F8010F02DE9F041C5
:101DC0000446866D90F83400002501280DD00120CE
:101DD00084F8340094F835700020012F07D084F87F
:101DE000340002252846BDE8F0810220FBE70227E7
:101DF00084F8357060652046FFF776F994F85C103A
:101E00003F208840B0602068016841F01601016001
:101E1000206C20B12068016841F008010160206851
:101E2000016841F001010160DCE700002DE9F84F95
:101E3000DFF880B100224FF003094FF00F0A0BF1D9
:101E4000040E01250B6895402B40AB4272D14C68C3
:101E5000012C05D0022C03D0112C01D0122C10D152
:101E60008668540009FA04F7BE43CF68A740374399
:101E7000876046680C79AE43C4F300149440344341
:101E80004460C468570009FA07F58E68AC43BE4049
:101E90002643C6604C68022C01D0122C12D1D40803
:101EA00000EB840CDCF820605407E40E0AFA04F816
:101EB00026EA0806D1F8108008FA04F848EA06086D
:101EC000CCF820800468AC430D7905F00305BD40D3
:101ED000254305604C68E40065D5374C256845F41A
:101EE00080452560246822F0030504F480440094B2
:101EF000324C2E19D6F808789407250F0AFA05F403
:101F0000A7432F4CA04201D1002424E02D4CA04235
:101F100001D101241FE02C4CA04201D102241AE07F
:101F20002A4CA04201D1032415E0294CA04202D141
:101F3000042410E037E0274CA04201D105240AE038
:101F4000254CA04201D1062405E0244CA04201D139
:101F5000072400E00824AC403C43C6F80848DBF8FE
:101F600000405D464E689C43F60300D51C432C6040
:101F7000DEF8004075464E689C43B60300D51C430E
:101F80002C600C4D08352C684E689C43F60200D539
:101F90001C432C60074D0C352C684E689C43B602E0
:101FA00000D51C432C60521C102AFFF44AAFBDE838
:101FB000F88F0000003C01404438024000300140EE
:101FC000000002400004024000080240000C0240F1
:101FD000001002400014024000180240001C0240A1
:101FE0000069084000D0012070470AB18161704744
:101FF0000904FBE7014880687047000040020020A8
:1020000070B5040011D021684CF6CC4008602168FE
:1020100045F255500860D4E9000141602168A0688C
:102020008860FFF7E7FF054608E0012070BDFFF775
:10203000E1FF401B302801D9032070BD2068C06833
:102040000028F4D121684AF6AA200860002070BD5B
:1020500000684AF6AA2101600020704702488168A2
:102060000278114481607047400200200B4810B58F
:10207000016841F400710160016841F48061016010
:10208000016841F480710160032000F08DF80020A8
:1020900000F006F800F03EF8002010BD003C0240C1
:1020A00010B5014688B00022192000F05DF8192013
:1020B00000F04CF813480024016841F00101016070
:1020C000006805A900F001000690684600F018F9C4
:1020D00000F046F90C494000B0FBF1F10C480B4A06
:1020E000491E026040F2E732C0E90324C0E901144E
:1020F00000F064FB10B1012008B010BD044800F0EE
:10210000A9FBF9E74438024040420F0000000140BB
:102110008C0900200C4882B0016841F480410160C4
:10212000006800F4804000900748001F016841F0FB
:10213000805101600068002200F0805000900F2163
:10214000901E02B000F010B844380240002809DBAD
:1021500000F01F02012191404009800000F1E020C1
:10216000C0F8001170470000F0B40E4B1B68C3F3B9
:102170000223C3F10704042C00D904241D1D072DDC
:1021800001D2002300E0DB1E012606FA04F56D1ED5
:102190000D409D409E40761E164045EA0601F0BC6B
:1021A00003F0AFBF0CED00E0064A00F00701106835
:1021B0004FF6FF03184040EA01200349084310602E
:1021C000704700000CED00E00000FA052DE9F04733
:1021D0000D46040065D0DFF81491D9F80000EFB285
:1021E00000F00F00A84207D289F80070D9F800006B
:1021F00000F00F00A84254D120683D4E810712D54F
:10220000400703D5306840F4E05030602078000784
:1022100003D5306840F4604030603068A16820F039
:10222000F000084330602078C0072DD03049606846
:102230000839012812D0022813D0032811D00968C8
:10224000890700292DDA316821F00301014331604B
:10225000FFF7D0FE804641F2883A0EE00968890314
:10226000EFE709688901ECE7FFF7C4FEA0EB08017E
:10227000514502D90320BDE8F0873068616800F05D
:102280000C00B0EB810FEFD1D9F80010484601F0F7
:102290000F01A94207D90770006800F00F00A8429B
:1022A00001D00120E7E72078400705D53068E168D4
:1022B00020F4E050084330602078000706D53068ED
:1022C000216920F4604040EAC100306000F058F815
:1022D0003168084AC1F30311515CC84006490860DF
:1022E00006480068FFF7DCFE0020C4E7003C02401F
:1022F00008380240A88300084C0200204402002055
:102300000F2202600C4A136803F003034360136852
:1023100003F0F0038360136803F4E053C3601268B2
:102320004FF4E05303EAD20202610448006800F06F
:102330000F0008607047000008380240003C02406F
:102340000448054900680968044AC1F38221515CC8
:10235000C84070474C02002008380240B88300088B
:102360000448054900680968044AC1F34231515CD8
:10237000C84070474C02002008380240B88300086B
:10238000154810B5006810F00C01144813D0431024
:1023900004290FD008290ED10F4C241F216801F009
:1023A0003F022168490207D52068C0F38810A0FBCE
:1023B000030106E0184610BD2168C1F38811A1FB96
:1023C00000010023FDF75CFF2168C1F30141491CB6
:1023D0004900B0FBF1F010BD083802400024F400C1
:1023E0002DE9F84F040075D02078DFF828A3C00746
:1023F000AAF1040548D00AF104000168C1F3810183
:10240000012908D00068C0F3810002280AD1DAF857
:102410000000400206D52868800335D56068002892
:10242000E1D031E06068B0F5803F10D0B0F5A02F6A
:10243000286810D020F480302860286820F480209C
:1024400028606068A0B1FFF7D5FD06460CE028685B
:1024500040F48030F4E740F480202860F7E7FFF78D
:10246000C9FD801B642871D828688003F7D50BE06C
:10247000FFF7C0FD064604E0FFF7BCFD801B6428A3
:10248000F1D828688003F7D42078DFF88C92800791
:102490004FF0000B3DD59F48001D016811F00C0F57
:1024A00008D00068C0F3810002280AD1DAF80000E1
:1024B000400206D42868800715D5E068012809D1B4
:1024C00011E0E068B8B10121C9F80010FFF792FDF2
:1024D000064605E01AE1FFF78DFD801B0228C2D8F1
:1024E00028688007F7D52868216920F0F80040EABD
:1024F000C10028600DE0C9F800B0FFF77BFD06467B
:1025000004E0FFF777FD801B02281FD828688007AA
:10251000F7D42078000722D57E4F80486169703754
:1025200071B101210160FFF765FD064604E0FFF788
:1025300061FD801B022809D838688007F7D50EE0B6
:10254000C0F800B0FFF756FD064605E082E0FFF751
:1025500051FD801B02287DD838688007F7D4207889
:10256000400765D56B484FF000083C300068C0005C
:102570000BD468483C30016841F08051016000682C
:102580004FF0010800F080500090654F3868C0059A
:102590000FD4386840F480703860FFF72BFD064692
:1025A00004E0FFF727FD801B022853D83868C005D8
:1025B000F7D5584FA0686C3701280FD00528386828
:1025C00010D020F001003860386820F00400386036
:1025D000A068B0B1FFF70EFD06460EE0386840F087
:1025E0000100F4E740F004003860F7E7FFF702FD70
:1025F000811B41F28830814263D838688007F5D565
:102600000DE0FFF7F7FC064606E0FFF7F3FC811B41
:1026100041F28830814254D838688007F5D4B8F147
:10262000000F05D03B483C30016821F0805101602B
:10263000A069B8B33749091D0968C1F381010229AE
:1026400046D00228584606D0C9F86000FFF7D2FCF1
:10265000044639E035E04F46C9F86000FFF7CAFC90
:10266000064604E0FFF7C6FC801B022829D828682C
:102670008001F7D4D4E907010843A16A294A49082F
:1026800002EB0141626A41EA8211084394F82C107E
:1026900040EA0161CAF8001001203866FFF7AAFC81
:1026A000044605E034E0FFF7A5FC001B022808D82B
:1026B00028688001F7D52BE0FFF79CFC001B02285F
:1026C00002D90320BDE8F88F28688001F4D41FE008
:1026D0000128F7D0DAF80000E26900F480019142A5
:1026E00014D1226A00F03F0191420FD147F6C07128
:1026F000626A0140914209D1A26A00F440319142DC
:1027000004D1E16A00F07060884201D00120D9E76D
:102710000020D7E70438024000004742800E4742BD
:10272000007000400000FFFF7047704770B590F8E0
:102730003C20012A32D0012580F83C50022280F84A
:102740003D2002685368946823F070060B68334399
:102750005360134B02689A4214D0B2F1804F11D0EB
:10276000104B9A420ED0104B9A420BD00F4B9A420C
:1027700008D00F4B9A4205D00E4B9A4202D00E4B16
:102780009A4204D1496824F080031943916080F88B
:102790003D50002180F83C10084670BD022070BDFD
:1027A000000001400004004000080040000C004010
:1027B00000040140004001400018004010B5040032
:1027C00003D094F83D0010B107E0012010BD0020B7
:1027D00084F83C00204600F00DF8022084F83D000B
:1027E000211D206803F05AF9012084F83D000020E3
:1027F00010BD000008B500681449B0F1804F14D036
:10280000134A904220D1086840F00200086008682E
:10281000002200F00200009005211D20FFF7A4FC1B
:102820001D20BDE80840FFF791BC086840F001009A
:1028300008600868002200F00100009005211C20BB
:10284000FFF792FC1C20ECE708BD00004038024076
:10285000000400400168CA6842F00102CA600068D2
:10286000816801F00701062903D0016841F00101E8
:1028700001600020704770B5044690F83C000128C4
:1028800017D0012584F83C50022084F83D002068D0
:10289000826822F0770222F47F4282600868502822
:1028A00030D00DDC20284DD005DC98B310283BD16A
:1028B00048E0022070BD302844D0402834D139E0AF
:1028C000602828D0702806D0B0F5805F2CD0B0F5F5
:1028D000005F29D10AE0CB68D1E90121206803F02B
:1028E00041F92068816841F0770109E0CB68D1E9BE
:1028F0000121206803F036F92068816841F48041A5
:10290000816011E0CA684968206803F03DF95021F0
:10291000206807E016E0CA684968206803F045F9B6
:102920006021206803F028F984F83D50002084F8E5
:102930003C0070BDCA684968206803F025F9402151
:102940002068EFE7226801461046EBE7704770B554
:102950000446006801694FF00005C943890715D492
:10296000C168C943890711D4E91E0161012020779C
:10297000206880698007204602D0FFF7E7FF04E067
:1029800000F098F8204600F096F825772068016955
:10299000C943490717D4C168C943490713D46FF025
:1029A00004010161022020772068806910F4407FD3
:1029B000204602D0FFF7CAFF04E000F07BF8204673
:1029C00000F079F8257720680169C943090716D412
:1029D000C168C943090712D46FF0080101610420DE
:1029E00020772068C0698007204602D0FFF7AEFF3D
:1029F00004E000F05FF8204600F05DF825772068DD
:102A00000169C943C90617D4C168C943C90613D4AB
:102A10006FF010010161082020772068C06910F470
:102A2000407F204602D0FFF791FF04E000F042F81B
:102A3000204600F040F8257720680169C943C9079E
:102A400008D1C168C943C90704D1891E0161204664
:102A500000F032F820680169C943090609D4C16849
:102A6000C943090605D46FF0800101612046FFF7D4
:102A70005BFE20680169C943490609D4C168C9439E
:102A8000490605D46FF040010161204600F01EF8B0
:102A900020680169C94389060BD4C168C943890606
:102AA00007D46FF0200101612046BDE87040FFF7B8
:102AB0003CBE70BD7047704700680349884201D131
:102AC000FFF7CCBA70470000000001407047704724
:102AD00070B5026804461068D168536910F00F0F92
:102AE00052D003F0010501F490762E435FD0C20767
:102AF00005D0CA0503D5E26B42F00102E26342074A
:102B000005D5DA0703D0E26B42F00202E2638207E6
:102B100005D5DA0703D0E26B42F00402E263020754
:102B200007D501F020022A4303D0E26B42F00802ED
:102B3000E263E26B002A33D0800604D5880602D512
:102B4000204603F0DEF820684069E16BC0F3801096
:102B5000090700D428B3204603F0BCF82068416977
:102B600049061AD5416921F040014161606BA0B16D
:102B70001B490165606BFEF7D5FF002810D0606B24
:102B8000016DBDE870400847830610D58B060ED551
:102B90002046BDE8704003F0B4B82046FFF797FF29
:102BA00070BD2046FFF793FF0020E06370BD030671
:102BB00006D50B0604D52046BDE8704003F080B969
:102BC0004006F3D54806F1D5D168204621F04001F2
:102BD000D160202184F8391000F024FA70BD000083
:102BE000355C000870B5040004D094F83900002565
:102BF00010B106E0012070BD84F83850204600F086
:102C000023F8242084F839002068C16821F4005199
:102C1000C160204603F0C0F82068016921F49041AA
:102C200001612068416921F02A0141612068C16881
:102C300041F40051C160E563202084F8390084F834
:102C40003A00002070BD00002DE9F04F87B0044627
:102C500014216846FDF75EFBC048DFF8FC8214389B
:102C60000221D4F800C0DFF8F4A203220723DFF822
:102C7000F0E28F0600250615C44542D1DAF800803F
:102C800048F01008CAF80080DAF800C00CF0100C08
:102C9000CDF814C0D0F800C04CF0010CC0F800C052
:102CA000006800F00100059050028DE8230069469D
:102CB0007046CDE90323FFF7B9F8DFF8AC82A949E4
:102CC0004046C8F80010C0E90175C0E90356C8F8CD
:102CD0001450C8F81850C8F81C50C8F82050C8F84C
:102CE0002450FFF701F808B1FEF75AFAC4F834800F
:102CF000002205212520C8F83840FFF735FA2520A5
:102D00006BE0DFF86882DFF854B24FF04009ABF1B6
:102D1000040BC44566D1DBF8008048F40038CBF8DA
:102D20000080DBF800C00CF4003CCDF814C0D0F8F3
:102D300000C04CF0010CC0F800C0006800F00100B9
:102D400005900C208DE8230069467046CDE90323E9
:102D5000FFF76CF8DFF81082854908F160084046FB
:102D6000C8F80010C0E90175C0E90356C8F814504E
:102D7000C8F81850C8F81C50C8F82050C8F824509B
:102D8000FEF7B2FF08B1FEF70BFAC4F83480C8F8BA
:102D90003840DFF8D481764908F1C0084046183140
:102DA000C0E90356C8F81450C8F81850C8F81C50A9
:102DB000C8F8205088E88202C8F82450FEF794FF33
:102DC00008B1FEF7EDF9C4F8308000220521262075
:102DD000C8F83840FFF7C8F92620FFF7B7F907B061
:102DE000BDE8F08FDFF88C81DFF88CE1C4455FD15E
:102DF000DBF80080AA4648F48028CBF80080DBF896
:102E000000C00CF4802CCDF814C0D0F800C04CF0F9
:102E1000040CC0F800C0006800F0040005904FF4F6
:102E200040608DE8230069467046CDE90323FEF734
:102E3000FDFF4F49DFF8448160394046C8F8001073
:102E4000C0E90175C0E90356C8F81450C8F8185015
:102E5000C8F81C50C8F82050C8F82450FEF744FFAA
:102E600008B1FEF79DF9454D4148C4F834806035FE
:102E70003038C8F8384085E88102C5E903A6C5F8AE
:102E800014A0C5F818A0C5F81CA0C5F820A02846B5
:102E9000C5F824A0FEF728FF08B1FEF781F92563E5
:102EA000002205212720AC63FFF75EF9272094E775
:102EB000334B9C4593D1DAF8007047F02007CAF8ED
:102EC0000070DAF8003003F020030593036843F044
:102ED00004030360006800F004000590C0208DE842
:102EE00023000820CDE9032069467046FEF79EFFC7
:102EF000224F1C48C037183838604FF02068C7E9A7
:102F00000185C7E903567D61BD61FD613D623846BB
:102F10007D62FEF7E9FE08B1FEF742F96763BC6324
:102F2000184F1048C7E903567D61BD61FD613D62E0
:102F300060307D6287E801033846FEF7D5FE08B1B0
:102F4000FEF72EF92763002205214720BC63FFF717
:102F50000BF9472041E700000010014044380240CF
:102F60000000024040640240EC06002000440040A3
:102F70008860024000480040000802400C08002021
:102F8000001401402C09002037B5044690F83A009F
:102F900082B0134620283AD1039AAAB3A3B394F877
:102FA0003800012833D0012084F83800A262A385BC
:102FB0000025E563222084F83A00616B1548C86358
:102FC000616B15480864616B1448C864606B0565E3
:102FD0002168606B091DFEF7F1FE206801684168F9
:102FE000009184F83850C16841F48071C160206854
:102FF000416941F0010141612068416941F04001AE
:103000004161002005B030BDFFE70120FAE7022052
:10301000F8E700008F5C0008CB5C0008455C000806
:10302000704770477047FEE710B504462DED028BE0
:103030008079D02825D19FED140B03F075F89FED12
:10304000141B51EC100B53EC112BFDF715FA41EC4E
:10305000180BB4F80B0000B2FDF7EFFA9FED0E1B52
:1030600053EC112BFDF77AFA9FED0D1B53EC112B4E
:10307000FDF774FA53EC182BFDF7FEF90A4AC2E982
:103080000201BDEC028B10BD00000000000000003A
:10309000000000000000004000000000000024408C
:1030A0000000000000806640780D0020274C284872
:1030B000FEF7CEFFD4F88C0090F82C10D1B9D4F8DC
:1030C0001C1191F82C10A9B9D4F8AC1191F82C105E
:1030D00081B9D4F83C1291F82C1059B994F88210A7
:1030E00041B994F8121129B994F8A21111B994F8C0
:1030F0003212F9B1FDF7D0FCD4F81C01FDF7CCFC7D
:10310000D4F8AC01FDF7C8FCD4F83C02FDF7C4FCD0
:103110000E4802F0C9F90D48903002F0C5F90D488B
:1031200002F0C2F90B48903002F0BEF9012004F021
:10313000C9F9BCE7084DE86804F07AFD686904F055
:10314000EBFD0220C4F85402F0E70000BC0A0020A6
:1031500060050020DC0B00200400002070B5034651
:103160001C48D0E9011202F54872914203D38160F4
:103170000278521C027090F90020174C082A18DAC5
:103180004FF0010505FA02F51D4206D0826802F5EE
:103190001672914201D201220DE0806800F516708E
:1031A000814207D2002201212046FEF71EFF0122A4
:1031B00006E00BD1002201212046FEF716FF002277
:1031C0002046BDE870400221FEF70FBF00210170CC
:1031D00070BD0000F401002000080240084B5A6056
:1031E00011B188B2FFF7BABF28B1012805D0022873
:1031F00005D1FEF739B8FDF70FBCFEF745B87047AB
:10320000F4010020104810B50E490160032141600F
:1032100000214FF4C0228160C0E903124FF4A002E4
:1032200042610176417681760122C276017741774B
:10323000FEF7F5FA002803D0BDE81040FDF7B0BF57
:1032400010BD000000640040BC0200200F4810B513
:103250000D4901600321416000214FF4C0228160CB
:10326000C0E903124FF4A0024261017641768176F3
:10327000C17601774177FEF7D2FA002803D0BDE886
:103280001040FDF78DBF10BD00680040E402002033
:10329000254808B5016841F400110160016801F496
:1032A00000110091016841F4800101600068002272
:1032B00000F48000009005210C20FEF755FF0C2043
:1032C000FEF744FF002205210E20FEF74DFF0E20E1
:1032D000FEF73CFF002205211020FEF745FF1020DD
:1032E000FEF734FF002205211120FEF73DFF1120DB
:1032F000FEF72CFF002205213920FEF735FF39208B
:10330000FEF724FF002205213A20FEF72DFF3A2088
:10331000FEF71CFF002205214520FEF725FFBDE832
:1033200008404520FEF712BF3038024010B5204853
:10333000A0B01CAC0FC884E80F0000211CA804F04A
:10334000CDF81C4C1A491C22A06110316846FCF7CC
:10335000C8FF0021684604F0D4F81549A0601C227B
:103360002C3107A8FCF7BDFF002107A804F0C9F81D
:103370000F49E0601C2248310EA8FCF7B2FF002183
:103380000EA804F0BEF80A4920611C22643115A879
:10339000FCF7A7FF002115A804F0B3F86061E0680E
:1033A00004F0BAFC606904F0B7FC20B010BD000066
:1033B000208300080400002070B586B01421684600
:1033C000FCF7A8FF2E480024016841F0800101604D
:1033D000016801F080010591016841F0040101607C
:1033E000016801F004010591016841F001010160EB
:1033F000016801F001010591016841F002010160DD
:103400000068204E00F002000590002241F2030106
:103410003046FEF7EAFD032000900125CDE9015476
:10342000694630460394FEF701FD18208DE831000F
:1034300069463046FEF7FAFCC0208DE83100694647
:103440001148FEF7F3FCE802CDE9000469460F4895
:103450000294FEF7EBFC4FF440708DE831006946B2
:103460003046FEF7E3FC2803CDE900050220CDE954
:10347000020469463046FEF7D9FC06B070BD000074
:1034800030380240000802400000024000040240C0
:10349000094810B5074901600021416040F6FF71FD
:1034A0008160FEF7ADFD002803D0BDE81040FDF7B8
:1034B00077BE10BD003000406005002010B586B01A
:1034C00000241748009401940294039404944FF04C
:1034D0008041059401605321C0E9011440F2F311C9
:1034E000C0E9031480218161FFF768F908B1FDF795
:1034F00057FE4FF48050009069460948FFF7BBF92A
:1035000008B1FDF74DFE049404A905480594FFF7A2
:103510000DF9002801D0FDF743FE06B010BD0000F4
:103520006C05002010B586B0002417480094019463
:103530000294039404941349059401605321C0E953
:10354000011440F2E731C0E9031480218161FFF7E3
:1035500035F908B1FDF724FE4FF48050009069461C
:103560000948FFF788F908B1FDF71AFE049404A989
:1035700005480594FFF7DAF8002801D0FDF710FEA2
:1035800006B010BD00040040AC0500200E4810B588
:103590000C4901600D4941604FF480518160002168
:1035A0004FF48062C0E903120422C0E90521C16121
:1035B000FFF718FB002803D0BDE81040FDF7F0BD71
:1035C00010BD000000100140EC050020A0860100A5
:1035D0000C4810B50A4901604FF4E1314160002107
:1035E00081600C22C160C0E904128161C161FFF7F2
:1035F000F9FA002803D0BDE81040FDF7D1BD10BD99
:10360000004400402C0600200C4810B50A49016017
:103610004FF4E1314160002181600C22C160C0E9BA
:1036200004128161C161FFF7DDFA002803D0BDE813
:103630001040FDF7B5BD10BD004800406C060020ED
:103640000D4810B50B4901604FF4E1314160002194
:103650004FF480628160C0E903120C22C0E90521A9
:10366000C161FFF7BFFA002803D0BDE81040FDF7A5
:1036700097BD10BD00140140AC060020FEE710B558
:1036800090ED1C0A90F880301824BDEEC00AD0F8E6
:10369000882004EB430310EE101A19240912D154A8
:1036A00090ED1C0A90F88030D0F88820BDEEC00A5A
:1036B00004EB430310EE101AD154D0F88800012116
:1036C00080F8201010BD000070B504462DED0A8B67
:1036D000B0EE408AF0EE608AD0F88C5080682035D9
:1036E0000646FCF7AAFF0B4643EC1C0B02469FED77
:1036F00083BB002E01DBA0680AE043EC102B53ECE7
:103700001B2B51EC100BFCF710FEFCF7A7FFA06081
:10371000A0F5EA219FED7BAB9FED7C9BB1F56A2F75
:1037200062D8FCF78AFF53EC1A2BFCF79FFE53EC90
:10373000182BFCF7C5FF1CD8A068FCF77EFF53ECE4
:103740001A2BFCF7F2FD53EC182BFCF7D1FF10D825
:103750006068FCF772FF41EC190BA068FCF76DFF85
:1037600053EC182BFCF785FE41EC100B53EC192B96
:10377000B5E0A068FCF761FF53EC182BFCF7B8FF2D
:1037800014D86068FCF759FF41EC1A0BA068FCF7ED
:1037900054FF53EC182BFCF76CFE53EC1A2BFCF780
:1037A000C4FD53EC192BFCF7C0FD13E06068FCF777
:1037B00044FF41EC1A0BA068FCF73FFF53EC182BB9
:1037C000FCF757FE53EC1A2BFCF7AFFD53EC192B0B
:1037D000FCF74CFEFCF7A4FFA06795ED000AB1EEE4
:1037E000400A85ED000A81E0B0F5EA2F37DCFCF7EE
:1037F00024FF53EC1A2BFCF798FD53EC182BFCF725
:103800005FFF0FD8A068FCF718FF53EC1A2BFCF7EA
:103810008CFD53EC192BFCF788FD53EC182BFCF7AF
:1038200067FFC3D9A068FCF708FF53EC1A2BFCF71D
:103830007CFD53EC182BFCF75BFF89D36068FCF729
:10384000FCFE41EC1A0BA068FCF7F7FE41EC190BEB
:1038500053EC1B2B51EC180BFCF708FE37E0FCF780
:10386000ECFE53EC1A2BFCF701FE53EC182BFCF783
:103870003FFF10D8A068FCF7E0FE53EC1A2BFCF7D2
:10388000F5FD53EC192BFCF7F1FD53EC182BFCF76D
:1038900017FF7FF676AFA068FCF7CFFE53EC1A2B2C
:1038A000FCF7E4FD53EC182BFCF70AFFC5D3606866
:1038B000FCF7C3FE41EC1A0BA068FCF7BEFE41EC1E
:1038C000190B53EC1B2B51EC180BFCF72EFD53EC92
:1038D000192BFCF7CBFD53EC1A2B41EC100B51ECE0
:1038E000100BFCF722FDFCF71BFFA06751EC1C0B33
:1038F000FCF7B4FEA060BDEC0A8B70BD00000000B8
:1039000000403D410000000000401D41000000005B
:1039100000402D4110B5A0F5007001380AD00128F3
:103920000AD0022803D0032813D10A4C06E0094C20
:10393000903403E0084C01E0074C9034002C08D090
:10394000204600F00BF804F18200BDE81040FDF7BE
:103950002FBC10BDBC0A0020DC0B002070B5044653
:103960002DED028B08889FED308B42BA628048882B
:1039700040BA00B22080898849BA618288B1A08AA1
:103980006168101A00B20144616010F5805F02DACC
:1039900001F5005104E0B0F5805F02DDA1F50051B2
:1039A0006160A2826068FCF748FE0E4646EC100B90
:1039B0009FED1F1B054653EC112B51EC100BFCF730
:1039C000CDFDFCF74BFEE060FCF737FE53EC182B07
:1039D000FCF752FD41EC110B46EC105B53EC112B44
:1039E00051EC100BFCF76CFEE06801D8401EE06063
:1039F000FCF723FE53EC182BFCF73EFD9FED0E1B4E
:103A000053EC112BFCF738FD41EC180B6068FCF708
:103A100014FE53EC182BFCF729FDFCF71FFEA060E9
:103A2000BDEC028B70BD00000000000000406D4046
:103A30000000000000403D41000000000000C040C8
:103A400010B500F8801F074981600021C180801CEB
:103A50000121044602F03BFB2046BDE81040002156
:103A6000FDF79CBB380000202DED048B124C134851
:103A7000FEF7EEFAD4F84C02FCF70FFE41EC190BFE
:103A8000D4F84402FCF709FE41EC180BD4F84002CC
:103A9000FCF703FE41EC100BB0EE492AF0EE692A68
:103AA000B0EE481AF0EE681A00F00AF8FDF738FA9E
:103AB000012003F007FDDAE7BC0A002060050020C2
:103AC0002DE9F04F2DED108B85B0B0EE428AF0EE6F
:103AD000628AB0EE41EAF0EE61EAB0EE40FAF0EE52
:103AE00060FAFA4F9FEDFAAB9FEDFBCBFC4DA7F1CF
:103AF00020089FEDFCDB9FEDFD9BFE4CA7F14006EF
:103B000053EC1E2B51EC1E0BFCF7B6FC41EC1B0BCF
:103B100053EC1F2B51EC1F0BFCF7AEFC53EC1B2B93
:103B2000FCF703FC41EC100B02F0D6FF85ED020B15
:103B3000D4F84802FCF7B1FD41EC100B85ED000B09
:103B400002F002FF85ED060B95ED000B02F060FF21
:103B500085ED080B386853EC1D2B90ED020B51ECF2
:103B6000100BFCF7ADFD19D2B0EE4D0AF0EE6D0A68
:103B700002F0DAFA53EC1A2B51EC100BFCF77CFC38
:103B800053EC1A2BFCF778FCDFF86C9399ED021BD1
:103B900053EC112BFCF7C9FBC9E9020153EC1D2BB7
:103BA00051EC180BFCF78CFD03D197F8400001286D
:103BB0007DD053EC1D2B51EC180BFCF781FD03D18C
:103BC00097F84000002873D0B0EE4D0AF0EE6D0A71
:103BD00053EC102B51EC180BFCF772FD02D00120B6
:103BE00087F84000B0EE4DBAF0EE6DBA53EC1B2BE7
:103BF00051EC180BFCF764FD1AD153EC1B2B51EC64
:103C00001F0BFCF75DFD0AD1B0EE4BDAF0EE6BDA7C
:103C100053EC1D2B51EC1E0BFCF752FD08D0F86A3B
:103C2000FCF73BFD53EC182BFCF77FFB41EC180B2A
:103C300053EC1B2B51EC180BFCF742FD7ED153ECDF
:103C40001B2B51EC1F0BFCF73BFD0AD1B0EE4B0ACE
:103C5000F0EE6B0A53EC102B51EC1E0BFCF730FD11
:103C60006CD0A648FEF7F4F9B0EE4BDAF0EE6BDA62
:103C7000B0EE4D0AF0EE6D0A02F056FA53EC1A2B34
:103C800051EC100BFCF7F8FB53EC1A2BFCF7F4FB90
:103C900041EC100B53EC102B95ED000B51EC100B7D
:103CA000FCF75CFC53EC192BFCF7E6FB01E038E178
:103CB0003EE194F88020B0EE4D0A06EBC202F0EE31
:103CC0006D0AC2E9000102F02FFA53EC1A2B51ECF5
:103CD000100BFCF7D1FB53EC1A2BFCF7CDFB41EC9E
:103CE000100B53EC102B95ED000B51EC100BFCF767
:103CF00035FC53EC192BFCF7BFFB94F81021B0EE08
:103D00004D0A06EBC202F0EE6D0AC2E9000102F0B4
:103D10000BFA53EC1A2B51EC100BFCF7ADFB53ECE8
:103D20001A2BFCF7A9FB41EC100B53EC102B95ED73
:103D3000000B51EC100BFCF711FC00E0EAE153EC36
:103D4000192BFCF799FB94F8A021B0EE4D0A06EB75
:103D5000C202F0EE6D0AC2E9000102F0E5F953EC8F
:103D60001A2B51EC100BFCF787FB53EC1A2BFCF7CA
:103D700083FB41EC100B53EC102B95ED000B51EC39
:103D8000100BFCF7EBFB53EC192BFCF775FB94F8CD
:103D90003022B0EE4D0A06EBC202F0EE6D0AC2E927
:103DA000000102F0C1F953EC1A2B51EC100BFCF797
:103DB00063FB53EC1A2BFCF75FFB9FED518B53EC2D
:103DC000182BFCF759FB41EC1E0B9FED4FCB95EDEB
:103DD000020B53EC1C2B51EC100BFCF74DFB53EC7E
:103DE0001E2BFCF7BBFB94F88020474608EBC20271
:103DF000B0EE4D0AC2E90001F0EE6D0A02F094F94E
:103E000053EC1A2B51EC100BFCF736FB53EC1A2B2E
:103E1000FCF732FB53EC182BFCF72EFB95ED020B55
:103E200041EC1E0B53EC1C2B51EC100BFCF724FB4C
:103E300053EC1E2BFCF792FB94F81021B0EE4D0AC8
:103E400007EBC202F0EE6D0AC2E9000102F06CF964
:103E500053EC1A2B51EC100BFCF70EFB53EC1A2B06
:103E6000FCF70AFB53EC182BFCF706FB95ED020B55
:103E700041EC1E0B53EC1C2B51EC100BFCF7FCFA25
:103E800053EC1E2BFCF76AFB94F8A021B0EE4D0A10
:103E900007EBC202F0EE6D0AC2E9000102F044F93C
:103EA00053EC1A2B51EC100BFCF7E6FA53EC1A2BDF
:103EB000FCF7E2FA53EC182BFCF7DEFA41EC180B96
:103EC00053EC1C2B95ED020B22E00000000E0020AD
:103ED0000000000000000040000000000000E03F83
:103EE0001802002000000000000000000000000098
:103EF00000403D41BC0A0020780D002060050020F4
:103F00003D0AD7A3703DCA3F0000000000003440C6
:103F100051EC100BFCF7B0FA53EC182BFCF71EFB1E
:103F2000FEE3386890ED020B002087ED0E0B57E69C
:103F30001FED140B02F0F8F8B0EE4ABAF0EE6ABAD0
:103F400053EC1B2B51EC100BFCF796FA53EC1C2B8B
:103F5000FCF792FA41EC100B386890ED021B51EC23
:103F6000100B53EC112BFCF7C3FB47D21FED230BB7
:103F700002F0DAF853EC1B2B51EC100BFCF77CFA37
:103F8000B0EE4C1AF0EE6C1A53EC112BFCF774FAED
:103F900041EC110B1FED2D0B8DED001B02F0C4F851
:103FA00053EC1B2B51EC100BFCF766FA53EC1B2B5C
:103FB000FCF762FA9DED001B53EC112BFCF756FA4F
:103FC00097ED0E1B53EC112BFCF77AFB16D21FED6D
:103FD0003B0B02F0A9F853EC1B2B51EC100BFCF738
:103FE0004BFA53EC1B2BFCF747FA97ED0E1B53ECE7
:103FF000112BFCF73EFA41EC100B76E01FED470B5E
:1040000002F092F853EC1B2B51EC100BFCF734FA36
:104010001FED4F1B53EC112BFCF72EFA97ED0E1BE7
:1040200053EC112BFCF764FB5DD21FED520B02F039
:104030007BF853EC1B2B51EC100BFCF71DFA1FED1A
:104040005A1B53EC112BFCF717FA41EC110B8DEDB9
:10405000001B1FED5C0B02F067F853EC1B2B51ECBF
:10406000100BFCF709FA53EC1B2BFCF705FA9DED3E
:10407000001B53EC112BFCF7F9F941EC100B3868DD
:1040800090ED021B51EC100B53EC112BFCF718FBBD
:1040900029D297ED0E0B51EC100BFCF741FB00EE13
:1040A000100A8DED000A1FED710B02F03DF853EC84
:1040B0001B2B51EC100BFCF7DFF953EC1B2BFCF71F
:1040C000DBF941EC100B386890ED021B51EC100B42
:1040D00053EC112BFCF7CDF9FCF722FB00EE100A94
:1040E000DDED000A12E097ED0E0B51EC100BFCF722
:1040F00017FB0BEE100A386890ED020B51EC100B19
:10410000FCF70EFB00EE100AF0EE4B0A381D00F033
:1041100087FF67E553EC1B2B51EC1F0BFCF7D0FA24
:104120007DD1B0EE4BDAF0EE6BDA53EC1D2B51EC97
:104130001E0BFCF7C5FAF3D153EC1D2B51EC180BF9
:10414000FCF7BEFA6BD085ED04DBFE48FDF780FF7F
:10415000B0EE4D0AF0EE6D0A01F0E6FF53EC1A2BBB
:1041600051EC100BFCF788F953EC1A2BFCF784F98F
:1041700041EC1E0BB0EE4D0AF0EE6D0A01F0D4FFDB
:1041800053EC1A2B51EC100BFCF776F953EC1C2B6B
:10419000FCF772F953EC1C2BFCF76EF941EC1F0B8A
:1041A000B0EE4D0AF0EE6D0A01F0BEFF53EC1A2B93
:1041B00051EC100BFCF760F953EC1A2BFCF75CF98F
:1041C00053EC1F2BFCF752F953EC1E2BFCF7C6F9EE
:1041D00053EC192BFCF750F994F88020B0EE4D0AFF
:1041E00006EBC202F0EE6D0AC2E9000101F09CFF8D
:1041F00053EC1A2B51EC100BFCF73EF953EC1A2B35
:10420000FCF73AF941EC1E0BB0EE4D0AF0EE6D0AE8
:1042100001F08AFF53EC1A2B51EC100B00E073E114
:10422000FCF72AF953EC1C2BFCF726F953EC1C2B5A
:10423000FCF722F953EC1E2BFCF790F953EC192BE9
:10424000FCF71AF994F81021B0EE4D0A06EBC20201
:10425000F0EE6D0AC2E9000101F066FF53EC1A2B83
:1042600051EC100BFCF708F953EC1A2BFCF704F98E
:1042700041EC1F0BB0EE4D0AF0EE6D0A01F054FF59
:1042800053EC1A2B51EC100BFCF7F6F853EC1C2BEB
:10429000FCF7F2F853EC1C2BFCF7EEF841EC1E0B8C
:1042A000B0EE4D0AF0EE6D0A01F03EFF53EC1A2B12
:1042B00051EC100BFCF7E0F853EC1E2BFCF735F833
:1042C00053EC1F2BFCF74AF953EC192BFCF7D4F8ED
:1042D00094F8A021B0EE4D0A06EBC202F0EE6D0A92
:1042E000C2E9000101F020FF53EC1A2B51EC100B36
:1042F000FCF7C2F853EC1A2BFCF7BEF841EC1E0B8E
:10430000B0EE4D0AF0EE6D0A01F00EFF53EC1A2BE1
:1043100051EC100BFCF7B0F853EC1C2BFCF7ACF88D
:1043200053EC1C2BFCF7A8F841EC1C0BB0EE4D0A2B
:10433000F0EE6D0A01F0F8FE53EC1A2B51EC100B65
:10434000FCF79AF853EC1C2BFCF790F853EC1E2B5F
:10435000FCF704F953EC192BFCF78EF894F8302293
:10436000B0EE4D0A06EBC202F0EE6D0AC2E90001A2
:1043700001F0DAFE53EC1A2B51EC100BFCF77CF831
:1043800053EC1A2BFCF778F89FED6FCB53EC1C2BFA
:10439000FCF772F841EC1E0B9FED6D0B51EC180B06
:1043A00053EC102BFCF768F8894649EC100B0746D4
:1043B0009FED69FB51EC100B53EC1F2BFCF75CF8E5
:1043C00053EC1C2BFCF758F89FED658B53EC182B26
:1043D000FCF752F853EC1E2BFCF7C0F894F8802041
:1043E000454608EBC202B0EE4D0AC2E90001F0EE0C
:1043F0006D0A01F099FE53EC1A2B51EC100BFCF7EF
:104400003BF853EC1A2BFCF737F853EC1C2BFCF75A
:1044100033F849EC107B41EC1E0B53EC1F2B51EC95
:10442000100BFCF729F853EC1C2BFCF725F853EC88
:10443000182BFCF721F853EC1E2BFCF78FF894F89F
:104440001021B0EE4D0A05EBC202F0EE6D0AC2E992
:10445000000101F069FE53EC1A2B51EC100BFCF734
:104460000BF853EC1A2BFCF707F853EC1C2BFCF75A
:1044700003F849EC107B41EC1E0B53EC1F2B51EC65
:10448000100BFBF7F9FF53EC1C2BFBF7F5FF53EC7C
:10449000182BFBF7F1FF53EC1E2BFCF75FF894F899
:1044A000A021B0EE4D0A05EBC202F0EE6D0AC2E9A2
:1044B000000101F039FE53EC1A2B51EC100BFBF705
:1044C000DBFF53EC1A2BFBF7D7FF53EC1C2BFBF74E
:1044D000D3FF49EC107B41EC1A0B53EC1F2B51EC32
:1044E000100BFBF7C9FF53EC1C2BFBF7C5FF53EC7C
:1044F000182BFBF7C1FF53EC1A2BFCF72FF894F89D
:10450000302205EBC202EDE3B0EE4BDAF0EE6BDAEF
:1045100053EC1D2B51EC1F0BFCF7D2F806D153ECDA
:104520001D2B51EC1E0BFCF7CBF87DD053EC1D2B53
:1045300051EC180BFCF7C4F8F7D00248FDF788FDE2
:1045400012E00000600500203D0AD7A3703DCA3F7D
:1045500039B4C876BE9FF63F000000000000E0BFFF
:10456000000000000000344053EC1D2B51EC180BF0
:10457000FCF7A6F809D095ED020B53EC182B51EC83
:10458000100BFBF7EBFFC5E9040195ED060B53ECAF
:10459000102B95ED040B51EC100BFBF76DFF1FED8D
:1045A00016EB53EC1E2BFBF7C0FE53EC1D2BFCF758
:1045B00087F878D095ED080B53EC102B95ED040B94
:1045C00051EC100BFBF758FF53EC1E2BFBF7ADFE25
:1045D00053EC1D2BFCF774F865D09FEDFE0B01F03A
:1045E000A3FD53EC1A2B51EC100BFBF745FF53ECDA
:1045F0001A2BFBF741FF41EC110B8DED021B95EDE2
:10460000080B53EC102B95ED040B8DED000B51ECCA
:10461000100BFBF731FF1FED341B53EC112BFBF795
:1046200084FE41EC1F0B00E05FE395ED060B53ECBD
:10463000102B9DED000B51EC100BFBF71DFF1FED38
:104640003E1B53EC112BFBF770FE41EC100BB0EE50
:104650004F1AF0EE6F1A02F07FF8B0EE40FAF0EE6B
:1046600060FA9FEDDC0B01F05FFD53EC1A2B51EC6F
:10467000100BFBF701FF53EC1C2BFBF7FDFE53EC7B
:104680001F2BFBF7F3FE9DED021B53EC112BFBF7E9
:1046900065FF53EC192BFBF7EFFE94F8A02106EB16
:1046A000C202C2E9000195ED060B53EC102B95ED0B
:1046B000040B51EC100BFBF7DFFE53EC1E2BFBF74A
:1046C00034FE53EC1D2BFBF7FBFF78D095ED080B68
:1046D00053EC102B95ED040B51EC100BFBF7CCFEBB
:1046E00053EC1E2BFBF7C5FE53EC1D2BFBF7E8FF2D
:1046F00065D09FEDB80B01F017FD53EC1A2B51EC70
:10470000100BFBF7B9FE53EC1A2BFBF7B5FE41EC8F
:10471000110B8DED021B95ED080B53EC102B00E0F7
:10472000DCE295ED040B8DED000B51EC100BFBF76B
:10473000A3FE1FED7B1B53EC112BFBF79AFE95EDAF
:10474000060B41EC1F0B53EC102B9DED000B51ECB5
:10475000100BFBF791FE1FED841B53EC112BFBF7A5
:10476000E4FD41EC100BB0EE4F1AF0EE6F1A01F0C1
:10477000F3FFB0EE40FAF0EE60FA9FED960B01F019
:10478000D3FC53EC1A2B51EC100BFBF775FE53ECDA
:104790001C2BFBF771FE53EC1F2BFBF7C6FD9DEDA9
:1047A000021B53EC112BFBF7D9FE53EC192BFBF733
:1047B00063FE94F8302206EBC202C2E9000195EDD7
:1047C000060B53EC102B95ED040B51EC100BFBF783
:1047D00053FE53EC1E2BFBF749FE53EC1D2BFBF74E
:1047E0006FFF76D095ED080B53EC102B95ED040B75
:1047F00051EC100BFBF740FE53EC1E2BFBF795FD25
:1048000053EC1D2BFBF75CFF63D09FED720B01F0A7
:104810008BFC53EC1A2B51EC100BFBF72DFE53ECD9
:104820001A2BFBF729FE41EC110B8DED021B95EDC8
:10483000080B53EC102B95ED040B8DED000B51EC98
:10484000100BFBF719FE1FEDC01B53EC112BFBF7F0
:104850006CFD95ED060B41EC1F0B53EC102B9DED01
:10486000000B51EC100BFBF707FE1FEDC91B53ECBF
:10487000112BFBF7FBFD41EC100BB0EE4F1AF0EEE5
:104880006F1A01F069FFB0EE40FAF0EE60FA9FEDAA
:10489000510B01F049FC53EC1A2B51EC100BFBF7B8
:1048A000EBFD53EC1C2BFBF7E7FD53EC1F2BFBF749
:1048B000DDFD9DED021B53EC112BFBF74FFE53EC7E
:1048C000192BFBF7D9FD94F8802006EBC202C2E950
:1048D000000195ED060B53EC102B95ED040B51ECFC
:1048E000100BFBF7C9FD53EC1E2BFBF7BFFD53EC80
:1048F0001D2BFBF7E5FE7CD095ED080B53EC102B40
:1049000095ED040B51EC100BFBF7B6FD53EC1E2B91
:10491000FBF7AFFD53EC1D2BFBF7D2FE69D09FEDEB
:104920002D0B01F001FC53EC1A2B51EC100BFBF793
:10493000A3FD53EC1A2BFBF79FFD95ED080B41EC03
:104940001D0B53EC102B95ED040B8DED000B51EC72
:10495000100BFBF791FD9FED211B53EC112BFBF787
:1049600088FD95ED060B41EC1F0B53EC102B9DEDD4
:10497000000B51EC100BFBF77FFD9FED181B53EC68
:10498000112BFBF773FD41EC100BB0EE4F1AF0EE5C
:104990006F1A01F0E1FEB0EE40FAF0EE60FA9FED22
:1049A0000D0B01F0C1FB53EC1A2B51EC100BFBF774
:1049B00063FD53EC1C2BFBF75FFD53EC1F2BFBF748
:1049C000B4FC53EC1D2BFBF7C9FD53EC192BFBF783
:1049D00053FD08E000000000000000003D0AD7A3DE
:1049E000703DCA3F05E094F8102106EBC202C2E90F
:1049F000000195ED060B95ED04AB53EC102B51EC3B
:104A00001A0BFBF739FD894649EC100B074653ECAE
:104A10001E2B51EC100BFBF788FC49EC107B41EC92
:104A20001C0B53EC1E2B51EC100BFBF77EFC53ECD4
:104A30001C2BFBF721FD95ED080B41EC1C0B53ECF7
:104A4000102B51EC1A0BFBF717FD894649EC100BA4
:104A5000074653EC1E2B51EC100BFBF766FC49ECA0
:104A6000107B41EC1A0B53EC1E2B51EC100BFBF797
:104A70005CFC53EC1A2BFBF7FFFC53EC1C2BFBF7F5
:104A800054FC41EC100B02F027F8B0EE40AAF0EE17
:104A900060AA9FEDFE0B51EC180B53EC102BFBF7AB
:104AA000EBFC834653EC1A2B0191FBF7E5FC94F8E1
:104AB0008020474608EBC202C2E9000195ED060BD3
:104AC00095ED04AB53EC102B51EC1A0BFBF7D4FC17
:104AD0008A464AEC100B814653EC1E2B51EC100B0E
:104AE000FBF723FC4AEC109B41EC1C0B53EC1E2BF8
:104AF00051EC100BFBF719FC53EC1C2BFBF7BCFC27
:104B000095ED080B41EC1C0B53EC102B51EC1A0BE0
:104B1000FBF7B2FC8A464AEC100B814653EC1E2B85
:104B200051EC100BFBF7A5FC4AEC109B41EC1A0B67
:104B300053EC1E2B51EC100BFBF79BFC53EC1A2B88
:104B4000FBF79AFC53EC1C2BFBF7EFFB41EC100B33
:104B500001F0C2FFB0EE40AAF0EE60AA9FEDCD0BCF
:104B600051EC180B53EC102BFBF786FC824653ECF0
:104B70001A2B0091FBF780FC94F8102107EBC2027E
:104B8000C2E9000195ED060B95ED048B53EC102B5B
:104B900051EC180BFBF770FC81469FEDC0AB029106
:104BA00053EC1A2BFBF7C1FB41EC1C0B029953ECA5
:104BB0001A2B41EC109B51EC100BFBF7B6FB53EC9E
:104BC0001C2BFBF759FC95ED080B41EC1C0B53EC2F
:104BD000102B51EC180BFBF74FFC814653EC1E2BAE
:104BE0000291FBF746FC41EC180B029953EC1E2B8B
:104BF00041EC109B51EC100BFBF73BFC53EC182BDA
:104C0000FBF73AFC53EC1C2BFBF78FFB41EC100B32
:104C100001F062FF019953EC102B41EC11BB51ECF8
:104C2000110BFBF729FC94F8A02107EBC202C2E9A3
:104C3000000195ED060B95ED048B53EC102B51EC18
:104C4000180BFBF719FC8B464BEC100B814653EC11
:104C50001A2B51EC100BFBF768FB4BEC109B41EC53
:104C60001C0B53EC1A2B51EC100BFBF75EFB53ECB7
:104C70001C2BFBF701FC95ED080B41EC1A0B53ECD8
:104C8000102B51EC180BFBF7F7FB894649EC100B86
:104C9000054653EC1E2B51EC100BFBF746FB49EC81
:104CA000105B41EC180B53EC1E2B51EC100BFBF777
:104CB0003CFB53EC182BFBF7DFFB53EC1A2BFBF7F9
:104CC00034FB41EC100B01F007FF009953EC102B63
:104CD00041EC11AB51EC110BFBF7CEFB94F83022F9
:104CE00007EBC202C2E900012AE06E48FDF7B0F905
:104CF00094F8800006EBC00108EBC00081ED00DBFA
:104D000094F8101106EBC10282ED00DB94F8A021AB
:104D100006EBC20383ED00DB94F8303206EBC305EB
:104D200085ED00DB80ED00DB08EBC10080ED00DBF2
:104D300008EBC20080ED00DB08EBC30080ED00DB78
:104D400094F8800053EC1B2B06EBC00090ED000B99
:104D500051EC100BFBF7B4FC0DD294F8800053EC2F
:104D6000192B06EBC00595ED000B51EC100BFBF772
:104D7000DCFAC5E9000194F8100153EC1B2B06EB9B
:104D8000C00090ED000B51EC100BFBF799FC0DD21D
:104D900094F8100153EC192B06EBC00595ED000BB0
:104DA00051EC100BFBF7C1FAC5E9000194F8A00122
:104DB00053EC1B2B06EBC00090ED000B51EC100BDD
:104DC000FBF77EFC0DD294F8A00153EC192B06EBF7
:104DD000C00595ED000B51EC100BFBF7A6FAC5E9E9
:104DE000000194F8300253EC1B2B06EBC00090ED51
:104DF000000B51EC100BFBF763FC0DD294F8300262
:104E000053EC192B06EBC00595ED000B51EC100B84
:104E1000FBF78BFAC5E9000114F8800F454608EB53
:104E2000C00090ED000B51EC100BFBF779FC00EE8D
:104E3000100AE068B1EE400A80ED080A94F890008C
:104E400005EBC00090ED000B51EC100BFBF768FC7C
:104E500000EE100AD4F89C00B1EE400A80ED080A7A
:104E600094F8200105EBC00090ED000B51EC100B05
:104E7000FBF756FCD4F82C11086294F8B00105EB4E
:104E8000C00090ED000B51EC100B0DE00000000095
:104E90000000344000000000000034C03D0AD7A3E9
:104EA000703DCABF60050020FBF73AFCD4F8BC1186
:104EB0000862207806EBC00090ED000B1248FEF768
:104EC00003FC94F8900006EBC00090ED000B0E4838
:104ED0009030FEF7F9FB94F8200106EBC00090ED4E
:104EE000000B0A48FEF7F0FB94F8B00106EBC00097
:104EF00090ED000B05B00548BDEC108B9030BDE87F
:104F0000F04FFEF7E1BB0000BC0A0020DC0B0020E4
:104F10007047000030B4234C0246C2F34513656964
:104F2000002002F01F029D4201D1204611E0246DB5
:104F30009C4201D11B480BE01A4C783465699D42B4
:104F400001D1204605E0246D9C4202D115487830FD
:104F50003C30042A12D004DC012A07D0032A1DD1D8
:104F600009E0092A0DD0172A18D113E00A68026057
:104F70004968416012E00968C1600FE00968016199
:104F80000CE091ED000A80ED060A91ED010A80ED3A
:104F9000070A03E091ED000A80ED090A30BC2C30CD
:104FA000FCF706B9CC09002010B5040036D0608D9E
:104FB00001F01F021043608509291AD006DC03297D
:104FC0000BD004290DD0072922D10EE00D2914D0D1
:104FD000162916D017291BD117E02046FCF718F91F
:104FE00016E02046FCF7E8F812E0204600F040FC0E
:104FF0000EE02046FCF7F6F80AE0204600F04DFCF3
:1050000006E0204600F040FB02E02046FCF716F9DF
:10501000A08A4FF6FF7101EA4010608510BD0000C4
:1050200070EEC00AC0ED030A90ED050AF4EEC00A66
:10503000F1EE10FA01DD80ED030AD0ED030AB1EEC6
:10504000400AF4EEC00AF1EE10FA02D3B0EE600AA4
:1050500001E080ED030ADFED340AB5EEC00AF1EE9F
:1050600010FA08DD90ED061AB4EEC10AF1EE10FA5E
:1050700001D2C0ED030A90ED030AB5EEC00AF1EECD
:1050800010FA08D290ED061AB4EEC10AF1EE10FA49
:1050900001DDC0ED030AD0ED070A90ED030A30EE02
:1050A000801A80ED071AD0ED080AB4EEE01AF1EE8E
:1050B00010FA01DDC0ED070A90ED071AF1EE600A63
:1050C000B4EEE01AF1EE10FA01D2C0ED070AD0ED0D
:1050D000040A30EE601A80ED091A80ED040AD0ED62
:1050E000000AD0ED071A60EE800A90ED010A40EE4A
:1050F000210A90ED020A40EE010AC0ED0A0A90ED85
:105100000B0AF4EEC00AF1EE10FA01DD80ED0A0A96
:10511000D0ED0A0AB1EE400AF4EEC00AF1EE10FA40
:1051200001D280ED0A0A704700000000C0ED051AA8
:1051300080ED0B3A80ED062AC0ED082A80EC030AC8
:105140009FED060A80ED030A80ED040A80ED070A50
:1051500080ED090A80ED0A0A704700000000000097
:1051600090ED010AD0ED1E0AB8EEC00A70EEC00A3A
:10517000C0ED090A90ED0B0AF4EEC00AF1EE10FA48
:1051800001DD80ED090AD0ED090AB1EE400AF4EE26
:10519000C00AF1EE10FA02D3B0EE600A01E080ED31
:1051A000090ADFED791AB5EEC00AF1EE10FA08DD52
:1051B000D0ED0C0AB4EEE00AF1EE10FA01D2C0ED27
:1051C000091A90ED090AB5EEC00AF1EE10FA08D2FC
:1051D000D0ED0C0AB4EEE00AF1EE10FA01DDC0EDFC
:1051E000091AD0ED0D0A90ED090A30EE801A80ED13
:1051F0000D1AD0ED0E0AB4EEE01AF1EE10FA01DD50
:10520000C0ED0D0A90ED0D1AF1EE600AB4EEE01A51
:10521000F1EE10FA01D2C0ED0D0AD0ED0A0A30EE1F
:10522000601A80ED0F1A80ED0A0AD0ED060A90EDA3
:105230000D2A60EE800A90ED070A40EE020A90ED1A
:10524000080A40EE010AC0ED100A90ED110AF4EED2
:10525000C00AF1EE10FA01DD80ED100AD0ED100A5F
:10526000B1EE400AF4EEC00AF1EE10FA01D280ED80
:10527000100AB0F90010D0ED100A00EE101AB8EEC6
:10528000C00A70EEC00AC0ED150A90ED170AF4EEE0
:10529000C00AF1EE10FA01DD80ED150AD0ED150A15
:1052A000B1EE400AF4EEC00AF1EE10FA02D3B0EE0D
:1052B000600A01E080ED150AB5EEC00AF1EE10FAC1
:1052C00008DDD0ED180AB4EEE00AF1EE10FA01D2D2
:1052D000C0ED151A90ED150AB5EEC00AF1EE10FA00
:1052E00008D2D0ED180AB4EEE00AF1EE10FA01DDB2
:1052F000C0ED151AD0ED190A90ED150A30EE801A9E
:1053000080ED191AD0ED1A0AB4EEE01AF1EE10FA97
:1053100001DDC0ED190A90ED191AF1EE600AB4EE44
:10532000E01AF1EE10FA01D2C0ED190AD0ED160A1A
:1053300030EE601A80ED1B1A80ED160AD0ED120ACD
:10534000D0ED191A60EE800A90ED130A40EE210AA2
:1053500090ED140A40EE010AC0ED1C0A90ED1D0A02
:10536000F4EEC00AF1EE10FA01DD80ED1C0AD0ED7A
:105370001C0AB1EE400AF4EEC00AF1EE10FA01D2B6
:1053800080ED1C0A7047000000000000B0F900101A
:10539000D0ED1F0A00EE101AB8EEC00A70EEC00A77
:1053A000C0ED150A90ED170AF4EEC00AF1EE10FAFE
:1053B00001DD80ED150AD0ED150AB1EE400AF4EEDC
:1053C000C00AF1EE10FA02D3B0EE600A01E080EDFF
:1053D000150ADFED340AB5EEC00AF1EE10FA08DD69
:1053E00090ED181AB4EEC10AF1EE10FA01D2C0ED38
:1053F000150A90ED150AB5EEC00AF1EE10FA08D2C2
:1054000090ED181AB4EEC10AF1EE10FA01DDC0ED0C
:10541000150AD0ED190A90ED150A30EE801A80EDCC
:10542000191AD0ED1A0AB4EEE01AF1EE10FA01DD05
:10543000C0ED190A90ED191AF1EE600AB4EEE01A07
:10544000F1EE10FA01D2C0ED190AD0ED160A30EED5
:10545000601A80ED1B1A80ED160AD0ED120AD0ED0D
:10546000191A60EE800A90ED130A40EE210A90EDC1
:10547000140A40EE010AC0ED1C0A90ED1D0AF4EE7C
:10548000C00AF1EE10FA01DD80ED1C0AD0ED1C0A15
:10549000B1EE400AF4EEC00AF1EE10FA01D280ED4E
:1054A0001C0A70470000000070B5054690F88000A7
:1054B00030494418207814283ED2081F90ED000A85
:1054C0002846B8EEC00A85ED1F0AFFF75FFF2A489D
:1054D0002A4E854208D140213046FCF781FD012843
:1054E00002D12078401C207023489030854208D19A
:1054F00080213046FCF774FD012802D12078401C41
:1055000020701D481E4E9038854208D1B115304696
:10551000FCF766FD012802D12078401C2070194854
:10552000854209D14FF400713046FCF759FD01283E
:1055300002D12078401C207020789FED130A142897
:1055400006D185ED1F0A002068602078401C20707D
:10555000C0B2152809D185ED1E0A002105F182008F
:1055600000F0B5FD2846FFF7FBFD2846BDE870407A
:10557000FEF785B8F0010020DC0B0020000002409F
:1055800000080240BC0A0020000000002DE9F0479E
:10559000DFF8E880044608214046FCF721FD01279A
:1055A000374E00254FF4805910B13570B56026E0B4
:1055B000B06800B9B460B068201AC82824D930781F
:1055C000B8B916212F48FFF7EFFC2E48377002219B
:1055D0002C3000F07CFD2B480221683000F077FD74
:1055E00000212848FBF796FA264801213C30FBF7BA
:1055F00091FAB068201AE62801D2012200E00022C8
:1056000049464046FCF7F1FC10214046FCF7E8FC17
:1056100018B17570F560BDE8F087F06800B9F46006
:10562000F068201AC828F6D97078C8B9154816212C
:105630007830FFF7B9FC134877700221A43000F0EE
:1056400046FD10480221E03000F041FD0D480221E6
:105650007830FBF75FFA0B480321B430FBF75AFAB6
:10566000F068201AE62801D2012200E00022494613
:105670004046BDE8F047FCF7B8BC00000008024017
:1056800020000020CC0900201CB50446806B0123BB
:105690000022074900F0AEFA94F82A000221CDE971
:1056A000001000231A460821A06B00F0B5FA1CBDBB
:1056B0003000002010B5002842D00188C1F30A0252
:1056C00020498A8042788378D20842EA4312C2F3A2
:1056D0000A02CA808278C378920942EA8302037977
:1056E00042EA8322C2F30A020A800279437952080D
:1056F00042EAC312C2F30A024A800B7A44790122B9
:10570000B3EB941F00D00A7544794B7AC4F30114AB
:10571000A34200D00A75427992090A724279C2F313
:1057200001124A72C2884A8102898A814289CA81E9
:10573000027B0A74427B4A74827B8A74C07BC87481
:1057400010BD0000020200202DE9F041414E4FF44F
:1057500085672DED068B4FF4767530889FED3E8B77
:105760009FED3F9A3F4CB84202D3C0F5856004E0FC
:10577000A8420DD8A0F576704042FAF75EFF53ECD0
:10578000182BFAF7EBFEFAF7CBFFC4F8400201E062
:1057900084ED909A7088B84202D3A0F5856003E04A
:1057A000A8420CD8A0F57670FAF747FF53EC182BF7
:1057B000FAF7D4FEFAF7B4FFC4F8440201E084ED2E
:1057C000919AB0889FED28ABB84202D3C0F58560AE
:1057D00004E0A84211D8A0F576704042FAF72DFFF8
:1057E00053EC1A2BFAF748FE53EC182BFAF7B6FED7
:1057F000FAF796FFC4F84C0201E084ED939A94ED19
:10580000909AB5EEC09AF1EE10FA06D194ED910A95
:10581000B5EEC00AF1EE10FA17D0D4F84402FAF748
:105820003CFF41EC180B19EE100AFAF736FF41EC79
:10583000100BB0EE481AF0EE681A00F08DFF51EC34
:10584000100BFAF76DFFC4F84802BDEC068BBDE8FB
:10585000F081000002020020000000000060834090
:1058600000000000BC0A0020000000000000004012
:105870001CB50446406B0123002204F1080100F02E
:10588000B9F9002194F82A000B46CDE900100A4628
:105890000421606B00F0C0F91CBD1CB50446406BD0
:1058A0000323002204F1200100F0A4F9002194F860
:1058B0002A000B46CDE900100A460821606B00F073
:1058C000ABF91CBD1E4D1F4C1F48FCF7C1FBFBF77D
:1058D0006FFBD5F87C22D5E99501FDF77FFCD5F863
:1058E000580290B1607880B1206902F015FAD5F8BD
:1058F0005402022802D0012802D004E0E06800E04F
:10590000606902F009FA002060706178D5F85802E9
:10591000084310D1206902F08BF9D5F8540202280F
:1059200002D0012802D004E0E06800E0606902F0E3
:105930007FF901206070012001F0C4FDC4E7000080
:10594000BC0A002004000020600500200A489FEDEA
:10595000090AD0F88C1081ED080AD0F81C1181EDED
:10596000080AD0F8AC1181ED080AD0F83C0280EDAD
:10597000080A704700000000BC0A002010B5502043
:1059800080F31188BFF34F8FBFF36F8F02F0C8FB16
:1059900018B104494FF080500860002080F311884E
:1059A00010BD000004ED00E030B593B03021684632
:1059B000FAF7B0FC14210CA8FAF7ACFC1E4800253D
:1059C000016841F080510160006800F08050119042
:1059D0001A48016841F4804101600068022400F423
:1059E00080401190092000904FF4803001900120F8
:1059F000CDE905048005079008AA0420A82182E8C3
:105A000013000B906846FCF7EBFC08B1FBF7C8FBF2
:105A10000CA90F2081E831004FF4A0500F904FF4F3
:105A20008050109005210CA8FCF7D0FB002801D075
:105A3000FBF7B6FB13B030BD4038024000700040A9
:105A40000548016841F47001016003494FF00060AE
:105A5000803908607047000088ED00E00148FCF7DD
:105A600076BF00008C0900200148FCF770BF0000E1
:105A70006C05002010B50748FCF769FF0648D0F810
:105A80007C12491CC0F87C12D0F87C02BDE81040A2
:105A9000FFF77CBDAC050020BC0A0020F0B5026811
:105AA000254D264E264FDFF89CC0274B4FF0804EE9
:105AB000A84209D0704507D0B04205D0B84203D003
:105AC000604501D0984203D122F070044A68224315
:105AD000A8421BD0704519D0B04217D0B84215D09B
