:020000040800F2
:10000000185000205D02000845400008073800082D
:10001000693E0008A50D0008ED540008000000002E
:100020000000000000000000000000009D0100082A
:100030006B11000800000000F90100086D4B00087A
:1000400077020008770200087702000877020008AC
:10005000770200087702000877020008770200089C
:10006000770200087702000877020008770200088C
:10007000F10F00087702000801100008770200085D
:10008000111000082110000877020008770200080C
:10009000A90D00087702000877020008770200081F
:1000A00077020008754C0008770200087702000804
:1000B000854C0008954C000877020008770200087C
:1000C000770200087702000877020008770200082C
:1000D0007702000895540008BD540008CD5400086C
:1000E000770200087702000877020008770200080C
:1000F00077020008770200087702000877020008FC
:1001000077020008770200087702000877020008EB
:1001100077020008770200087702000877020008DB
:10012000770200083110000841100008770200082B
:1001300077020008000000000000000077020008BD
:10014000E90D00087702000877020008770200082E
:10015000770200085110000877020008DD540008FB
:10016000770200087702000877020008770200088B
:10017000770200087702000800000000000000007D
:100180007702000877020008DFF80CD000F0E2FBED
:10019000004800478D5D0008185000202C4B19685E
:1001A0000868B0E8F04F80F30988BFF36F8F4FF015
:1001B000000080F3118870470000000008480068C4
:1001C000006880F308884FF0000080F3148862B65E
:1001D00061B6BFF34F8FBFF36F8F00DF00BF00BF6B
:1001E00008ED00E0DFF80C00016841F470010160E7
:1001F000704700BF88ED00E0EFF30980BFF36F8F19
:10020000134B1A681EF0100F08BF20ED108A20E96A
:10021000F04F106009B44FF0500080F31188BFF325
:100220004F8FBFF36F8F06F0F1FB4FF0000080F3AC
:10023000118809BC19680868B0E8F04F1EF0100F6B
:1002400008BFB0EC108A80F30988BFF36F8F704746
:10025000BC010020EFF3058070470000064880478E
:1002600006480047FEE7FEE7FEE7FEE7FEE7FEE79B
:10027000FEE7FEE7FEE7FEE7594C000889010008AB
:100280002DE9F05F0546002092469B4688460646CB
:10029000814640241BE0284641464746224600F05E
:1002A00052FA53465A46C01A914110D31146184685
:1002B000224600F039FA2D1A67EB01084F46224614
:1002C0000120002100F030FA17EB00094E41201EFA
:1002D000A4F10104DFDC484631462A464346BDE826
:1002E000F09F40EA01039B0703D009E008C9121FF1
:1002F00008C0042AFAD203E011F8013B00F8013BE0
:10030000521EF9D27047D2B201E000F8012B491E0B
:10031000FBD270470022F6E710B513460A460446A2
:100320001946FFF7F0FF204610BD2DE9FE4F80462D
:1003300081EA0300C00F0C46009021F0004123F039
:100340000045B8EB0200A94105D24046214690463F
:100350001C460B46024623F00040104347D0270DB1
:10036000C7F30A00C3F30A510290401A01904028D3
:100370006BDAC3F3130040F4801B0098924620B15F
:100380000023D2EB030A63EB0B0B01985946C0F133
:100390004002504600F0C8F906460D465046594600
:1003A000019A00F0E0F910EB08006141002487EAAF
:1003B000115284EAE7731A4340D0009A62B3019A5B
:1003C000012A4FEA075215DC001B61EB02014FF0D6
:1003D000004202EA0752CDE90042001C41F58011BB
:1003E00032462B4600F017FA03B0BDE8F08F4046C6
:1003F0002146F9E7001B61EB0201001C41F5801367
:1004000000185B412018A2F5001747EB030140EAF2
:10041000D570B6196D4111E06D084FEA360645EA10
:10042000C0754FEA0752001B61EB0201001C41F549
:10043000801149084FEA30000019514132462B46DD
:1004400003B0BDE8F04F00F0D7B90098012240009A
:100450000023D0EB020263EBE073009821464FEAE1
:10046000E074B8EB000061EB0401E9E783F00043BE
:100470005BE781F0004158E72DE9FE4F81EA030474
:1004800004F0004421F0004100944FF0000B23F0F1
:10049000004350EA01045ED052EA03045BD0C3F388
:1004A0000A54C1F30A552C44A4F2F3340194A0FB7E
:1004B0000254C1F3130141F48011C3F3130343F455
:1004C000801301FB024400FB034E840A970A44EAAE
:1004D000815447EA8357A4FB076802958D0A05FB00
:1004E00007854FEA932C04FB0C542705029D4FEA25
:1004F000065847EA1637B5EB08056EEB070C870E72
:10050000920E47EA811742EA8312A7FB0201B6EB7B
:100510000B0164EB00042B0D43EA0C335E1844EB33
:100520001C50DA465146E7FB0201C5F313044FEABB
:100530000B3343EA14534FEA0432019C43EA0603A7
:10054000A4F10C040294009CCDE900B400F063F91E
:1005500003B0BDE8F08F00200146F9E72DE9F04D2A
:1005600081EA030404F0004B21F0004514464FF0EB
:10057000000A23F0004150EA050220D054EA0102AB
:100580001DD0C5F30A570246C5F31303C1F3130088
:10059000C1F30A5640F4801543F48013A7EB060814
:1005A000101BD64608F2FD3873EB050002D308F1A4
:1005B000010801E092185B41B8F1000F03DA002056
:1005C0000146BDE8F08D00204FF4801106468446B8
:1005D0000EE0171B73EB050705D3121B63EB050336
:1005E00006434CEA010C49084FEA300092185B417F
:1005F00050EA0107EDD152EA030012D082EA04006A
:1006000083EA0501084305D0101BAB4106D2012245
:10061000002306E000224FF0004302E06FF00102E9
:1006200053101AEB06004CEB085110EB0A0041EB9B
:100630000B01BDE8F04D00F0DFB80EB5C10F80EA48
:10064000E0700844CA07002140F233438DE80E00F1
:100650000A460B4600F0DFF803B000BD70B5C1F3E9
:100660000A5201F000450024C1F3130140F2FF33A8
:1006700041F480119A4201DA002070BD40F2334308
:100680009A42A2F2334203DC524200F05CF800E0EE
:1006900090402C43F1D0404270BD00F0004230F059
:1006A00000400AD0C10D01F56071C0F3160042EAA6
:1006B0000151C208400711437047002001467047AE
:1006C00030B5041E71F1000404DB4FF000444042D9
:1006D00064EB0101141E73F1000405DB1C464FF0AE
:1006E0000043524263EB04038B4208BF824230BD99
:1006F00001F0004330B421F0004150EA010206D07D
:100700000A0DA2F56072C1F31301002A02DC30BCAD
:1007100000207047440F44EAC104C100E01830BC17
:1007200000EBC25000F031B8202A04DB203A00FA76
:1007300002F1002070479140C2F1200320FA03F338
:10074000194390407047202A04DB203A21FA02F036
:100750000021704721FA02F3D040C2F120029140FB
:10076000084319467047202A06DBCB17203A41FA86
:1007700002F043EAE07306E041FA02F3D040C2F12E
:10078000200291400843194670470029A8BF7047CE
:10079000401C490008BF20F00100704710B4B0FAB7
:1007A00080FC00FA0CF050EA010404BF10BC704752
:1007B00049B1CCF1200421FA04F411FA0CF118BF6C
:1007C000012121430843A3EB0C01CB1D4FEA00613B
:1007D0004FEA102042BF002010BC704700EBC3500E
:1007E00010440029A4BF10BC7047401C490008BF3A
:1007F00020F0010010BC704710B5141E73F1000406
:1008000008DA401C41F1000192185B411A4301D102
:1008100020F0010010BD2DE9F04D92469B4611B12C
:10082000B1FA81F202E0B0FA80F220329046FFF78E
:100830007BFF04460F4640EA0A0041EA0B0153469B
:100840005A46084313D0114653EA010019D0C8F1A3
:1008500040025046FFF777FF05460E465046594680
:100860004246FFF761FF084305D0012004E020461F
:100870003946BDE8F08D0020054346EAE0762C437A
:1008800037430A986305E40AA0EB08000022FD0A3A
:1008900044EA47540A3002D500200146E9E7010541
:1008A00010196941DDE9084500196941BDE8F04DBD
:1008B000A2E72DE9F04D00231A461B1A8A4103DBFB
:1008C00000200146BDE8F08DC1F30A52C1F31301C7
:1008D00041F480154FF0000BD10702D100186D4193
:1008E000521E0027044640F2FF11384601EB620A0F
:1008F0003E468046024600204FF48011FFF723FF5A
:10090000C2197141BB1846EB0100B4EB030C75EB47
:10091000000C04D3E41A65EB000517460E462419B3
:1009200008F101006D4180463428E3DDF91946EBFA
:100930000600091BA84103D24FF0FF32134601E025
:10094000002213461BEB070046EB0A51BDE8F04DB1
:10095000FFF752BF064C074D06E0E06840F0010388
:1009600094E8070098471034AC42F6D3FFF710FC28
:10097000507300087073000870B58C1810F8015B94
:1009800015F0070301D110F8013B2A1106D110F828
:10099000012B03E010F8016B01F8016B5B1EF9D12C
:1009A0002B0705D40023521E0DD401F8013BFAE7B2
:1009B00010F8013BCB1A921C03E013F8015B01F81D
:1009C000015B521EF9D5A142D8D3002070BD0000B2
:1009D00010B501221146044801F0CCFC012202218D
:1009E000014801F0C7FC10BD000802400F48007824
:1009F00030B1012808D002280AD0032813D10BE017
:100A000001200A4908700EE00220084908700AE037
:100A100003200649087006E00020044908700449D4
:100A2000C1F84C0200BF00BF704700001D0000204D
:100A3000280A00200C48007820B1012806D002289E
:100A40000FD107E00120084908700AE0022006499A
:100A5000087006E00020044908700449C1F84C02FF
:100A600000BF00BF704700001C000020280A0020C3
:100A700010B50446206808B9606800B910BD606808
:100A8000082805D1002104F12C0004F0DBFDF5E776
:100A900024496069085C30B1012815D002281ED0B5
:100AA00003283AD126E0606801280CD10320A06019
:100AB0000721204603F022FB1A496069085C401CAC
:100AC000184A6169505429E06068042806D1154924
:100AD0006069085C401C134A616950541EE06068FC
:100AE000072806D10F496069085C401C0D4A6169FE
:100AF000505413E0606801280ED10820A06007213F
:100B0000204603F0FBFA0020A06006496069085CFB
:100B1000401C044A6169505400E000BF00BF00BFA0
:100B2000ACE700002900002070B504460D46002007
:100B300084F82800606020619FED130A84ED070AA5
:100B400020609FED110A84ED080AE0606561A060F5
:100B5000680160859FED0C0A84ED090A681C00EBB2
:100B6000C0000A4901EB80006063681D00EBC00013
:100B700001EB8000A06300212186012104F12C00FB
:100B800004F060FD70BD0000000000003C0000208B
:100B900070B50024694C9FED6A3ADFED6A2A9FED3B
:100BA000692ADFED671A9FED671ADFED660A9FED90
:100BB000660A04F1180003F0E3FA0021204603F06E
:100BC0001BFA9FED623ADFED5F2A9FED5E2ADFEDB3
:100BD000601A9FED5C1ADFED5B0AB1EE040A04F1C6
:100BE000480003F0CDFA90349FED563ADFED552AD8
:100BF0009FED542ADFED531A9FED521ADFED510A93
:100C00009FED500A04F1180003F0BAFA01212046C2
:100C100003F0F2F99FED4B3ADFED4A2A9FED492AA6
:100C2000DFED481A9FED471ADFED460A9FED450AB2
:100C300004F1480003F0A4FA90349FED423ADFED4E
:100C4000412A9FED402ADFED3F1A9FED3E1ADFED6E
:100C50003D0A9FED3C0A04F1180003F091FA0221CD
:100C6000204603F0C9F99FED373ADFED362A9FEDB4
:100C7000352ADFED341A9FED331ADFED320A9FED8E
:100C8000310A04F1480003F07BFA90349FED2D3ACD
:100C9000DFED2C2A9FED2B2ADFED2A1A9FED291A72
:100CA000DFED280A9FED270A04F1180003F068FA27
:100CB0000321204603F0A0F99FED223ADFED212A1F
:100CC0009FED202ADFED1F1A9FED1E1ADFED1D0A92
:100CD0009FED1C0A04F1480003F052FA00251D485C
:100CE00016490546C1F88C0000212846FFF71CFF75
:100CF00018483C3011490546C1F81C01012128461D
:100D0000FFF712FF14490D480D46C0F8AC1102213F
:100D10002846FFF709FF10483C3008490546C1F84E
:100D20003C0203212846FFF7FFFE01200349C1F8DA
:100D30004C020020C1F8500270BD0000280A0020BB
:100D400000401C46000000009A99193F00007A45B7
:100D500000409C4538090020B00900200F48007869
:100D600030B1012808D002280AD0032813D10BE0A3
:100D700001200A4908700EE00220084908700AE0C4
:100D800003200649087006E0002004490870044961
:100D9000C1F84C0200BF00BF704700001B000020DC
:100DA000280A002000BFFEE700B587B00C4800F01D
:100DB000D0FC0C4B6A460021094800F0F2FB009879
:100DC000B0F5007F05D2009988B2064903F03CF9DE
:100DD00003E00449009803F06FF807B000BD00007D
:100DE00028020020840C002010B5024800F0B1FC5D
:100DF00010BD00005002002010B50446606A88B1A2
:100E00000721204600F04EFA204600F035FF20462C
:100E100000F077FF204600F009F803480088401CE6
:100E20000149088010BD00008001002010B58AB083
:100E300004461148844204D1002005900E200990F8
:100E400002E00E20059009900120089000200090FB
:100E5000019002900390049006900120079069464B
:100E6000204600F00BFB204600F01CFF022120462C
:100E700000F043FA0AB010BD2802002000BF002095
:100E8000124908701AE01148007800EBC0001049C0
:100E900001EB800090F8200001280AD10B4800786F
:100EA00000EBC0000A4602EB80010A22094800F06C
:100EB00013F806480078401C04490870034800787D
:100EC0000928E0DB012004F0CDFFD8E7190000205D
:100ED0003C00002028020020F8B506460C461546C6
:100EE0000F48D0F8747206E00D48D0F87402C01BA9
:100EF000A84200D304E0304600F010FC0028F3D0F4
:100F000000BF6B4604F118022146304600F00AFA91
:100F100010B13046FFF770FF002084F82000F8BDC4
:100F2000280A002010B51A4803F050F9184802F0BA
:100F30009DFF1748903003F049F91548903002F0B2
:100F400095FF144803F042F9124802F08FFF114850
:100F5000903003F03BF90F48903002F087FF0C49C6
:100F6000D1F88C000D2103F0C9F80949D1F81C0112
:100F70000D2103F0C3F80649D1F8AC010D2103F0AF
:100F8000BDF80349D1F83C020D2103F0B7F810BDBC
:100F9000280A0020480B002010B51248007D0128C7
:100FA00001D103F050FF1048D0F84C02062816D2A9
:100FB000DFE800F00304090C0F1210E00B48006892
:100FC00005F002FC0BE003F09FFC08E0FFF7C6FE13
:100FD00005E0FFF72FFD02E0FFF708FD00BF00BFAF
:100FE00010BD000094010020280A002010000020FD
:100FF00010B5024800F0D6FE10BD000078070020B2
:1010000010B5024800F0CEFE10BD0000D807002049
:1010100010B5024800F0C6FE10BD0000B806002062
:1010200010B5024800F0BEFE10BD000018070020F9
:1010300010B5024800F0B6FE10BD000038080020D0
:1010400010B5024800F0AEFE10BD000058060020AA
:1010500010B5024800F0A6FE10BD00009808002060
:101060000146087810381823B0FBF3F20848805C7A
:10107000C865032A05D908686FF30900001D886553
:1010800003E008686FF309008865886D7047000009
:101090005C720008014600208A6A8B69CBB932B1C4
:1010A000012A0DD0022A03D0032A10D10EE000BF7E
:1010B000CB6A03F08073B3F1807F00D1012007E099
:1010C000CB6AB3F1C07F00D1012001E000E000BF96
:1010D00034E08B69B3F5005F1AD132B1012A07D031
:1010E000022A03D0032A11D10AE000BF01200EE03A
:1010F000CB6A03F08073B3F1807F00D1012006E05A
:10110000CB6AB3F1C07F00D1012000E000BF15E041
:1011100032B1012A05D0022A04D0032A0CD103E0FF
:1011200000BF00BF012008E0CB6A03F08073B3F179
:10113000807F00D1012000E000BF00BF704730B5C4
:101140000468246824F4802405682C6004686360C3
:101150008468402C04D10468A2600468E16003E064
:101160000468A1600468E26030BD70474180704748
:1011700010B501221103024801F0FCF810BD000077
:101180000008024000218180704700001CB5044621
:10119000012300220749A06B03F056FE94F82A00B1
:1011A0000221CDE9001000231A460821A06B03F0AC
:1011B00062FE1CBD200000201CB504460123002255
:1011C0000749A06B03F040FE94F82A000221CDE904
:1011D000001000231A460821A06B03F04CFE1CBD32
:1011E000200000201CB50446012300220749A06B03
:1011F00003F02AFE94F82A000221CDE90010002312
:101200001A460821A06B03F036FE1CBD200000200A
:101210001CB50446012300220749A06B03F014FE0D
:1012200094F82A000221CDE9001000231A46042177
:10123000A06B03F020FE1CBD2000002010B5002292
:101240000121044801F096F801220221014801F031
:1012500091F810BD0008024010B5104800684FF426
:101260009671B0FBF1F201FB1200C8280AD90022E6
:1012700001210B4801F07EF800220221084801F00C
:1012800079F809E000220121054801F073F80122F4
:101290000221034801F06EF810BD00008801002013
:1012A0000008024010B5024692F82030012B01D010
:1012B000022B1CD101F0010028B11068806840F0B9
:1012C00080001468A06001F0020028B110688068F6
:1012D00040F400401468A06001F0040028B11068D8
:1012E000806840F400001468A060002010BD506ABF
:1012F00040F4802050620120F8E710B5024692F8D1
:101300002030012B01D0022B06D110684069084320
:1013100014686061002010BD506A40F48020506263
:101320000120F8E7F0B504460D461E4694F82070FB
:1013300020688368A86800B900E000BF012F01D0D1
:10134000022F7CD103F0806030B903F0006018B93F
:1013500003F08050002873D0C3F30161022905D93E
:10136000606A40F4000060620120F0BD0120884006
:101370003060A86860B9B5F800C0E86840EA4C5C25
:10138000206800F5C07000EB0110C0F800C00FE04D
:10139000D5E901C040EACC00D5F80CC040EA0C0009
:1013A000D4F800C00CF5C07C0CEB011CCCF800009C
:1013B000D5F810C0206800F5C07000EB0110C0F82F
:1013C00004C0287D01280ED1206800F5C07000EB14
:1013D0000110406840F4807C206800F5C07000EB8C
:1013E0000110C0F804C0D079000692F806C040EAA7
:1013F0000C4092F805C040EA0C2C10794CEA000C25
:10140000206800F5C07000EB0110C0F80CC0D07867
:10141000000692F802C040EA0C4092F801C040EA8F
:101420000C2092F800C040EA0C00D4F800C00CF583
:10143000C07C0CEB011CCCF80800206801E016E031
:101440000FE000F5C07000EB0110006840F0010CE7
:10145000206800F5C07000EB0110C0F800C000204B
:1014600083E7606A40F40010606201207DE7606AF3
:1014700040F480206062012077E70000F0B5044668
:101480000A46216894F82050012D01D0022D7ED10A
:10149000424901F50071086840F0010008600868E1
:1014A00020F47C5008600868566A40EA062008600C
:1014B000107D00F01F06012000FA06F3C86998436A
:1014C000C861A1F50071D069C8B9D1F80C02984380
:1014D000C1F80C02908880B2968940EA064601F570
:1014E0001070576940F83760108880B2168940EA5A
:1014F000064601F51070576900EBC7004660D069D9
:10150000012819D1D1F80C021843C1F80C029088B7
:1015100080B2168840EA064601F51070576940F817
:101520003760908980B2168940EA064601F510704E
:10153000576900EBC7004660906928B9D1F80402EA
:101540009843C1F8040204E0D1F804021843C1F83A
:101550000402106928B9D1F814029843C1F81402A2
:1015600004E0D1F814021843C1F81402106A0128EB
:1015700004D1D1F81C021843C1F81C02D1F80002B2
:1015800020F00100C1F800020020F0BDFFE7606A12
:1015900040F4802060620120F7E700000064004012
:1015A000704770B5044694F82050012D01D0022DEB
:1015B0007DD151B92068C06800F0030080B9606A2D
:1015C00040F400106062012070BD2068006900F0E6
:1015D000030028B9606A40F4001060620120F3E75C
:1015E000206800F5D87000EB0110006800F00400DE
:1015F0009060906840B9206800F5D87000EB011049
:101600000068400D106007E0206800F5D87000EB1E
:1016100001100068C0085060206800F5D87000EB29
:101620000110006800F00200D060206800F5D8705A
:1016300000EB0110406800F00F001061206800F519
:10164000D87000EB0110406800F47F40000A906100
:10165000206800F5D87000EB01104068000C506164
:10166000206800F5D87000EB0110806818702068C1
:1016700000F5D87000EB0110806800F47F40000A8C
:101680005870206800F5D87000EB0110806800F4F5
:101690007F00000C9870206800F5D87000EB0110F6
:1016A0008068000ED870206800F5D87000E02FE048
:1016B00000EB0110C0681871206800F5D87000EBCD
:1016C0000110C06800F47F40000A5871206800F5DE
:1016D000D87000EB0110C06800F47F00000C987116
:1016E000206800F5D87000EB0110C068000ED871BA
:1016F00031B92068C06840F020002668F06005E03D
:101700002068006940F020002668306100205BE717
:10171000606A40F480206062012055E701460020A5
:1017200091F82020012A01D0022A11D10B689B6870
:1017300003F0806303B1401C0B689B6803F00063F7
:1017400003B1401C0B689B6803F0805303B1401C3D
:1017500070472DE9F05F044600252068466920683F
:10176000D0F80490206887682068D0F80CA0206822
:10177000D0F810B02068D0F8188006F001000028DA
:1017800055D007F00100C0B101202168886007F042
:10179000020018B1204600F0EAFA0EE007F004005B
:1017A00010B145F4006508E007F0080010B145F4F9
:1017B000805502E0204600F0D9FA07F48070C8B1E5
:1017C0004FF480702168886007F4007018B12046DB
:1017D00000F0CFFA0EE007F4806010B145F4005538
:1017E00008E007F4006010B145F4804502E02046AF
:1017F00000F0BEFA07F48030C8B14FF480302168A1
:10180000886007F4003018B1204600F0B4FA0EE00A
:1018100007F4802010B145F4004508E007F40020EB
:1018200010B145F4803502E0204600F0A3FA06F03E
:10183000080038B10AF0100020B145F400751020FE
:101840002168C86006F0040040B10AF0080028B121
:1018500008202168C860204600F01FFA06F0020048
:1018600038B12068C06800F0030010B1204600F0D5
:1018700015FA06F0400038B10BF0100020B145F425
:10188000806510202168086106F0200040B10BF04F
:10189000080028B1082021680861204600F0FFF9FF
:1018A00006F0100038B12068006900F0030010B1A4
:1018B000204600F0F5F906F4003040B109F01000C0
:1018C00028B1102021684860204600F0EAF906F4AB
:1018D000803040B109F0080028B108202168486034
:1018E000204600F049FA06F4004088B309F00400ED
:1018F00078B306F4807020B108F0010008B145F01B
:10190000010506F4007020B108F0020008B145F0AE
:10191000020506F4806020B108F0040008B145F02B
:10192000040506F40060A0B108F0700088B108F06A
:101930007000402817D006DC10280BD020280CD0CF
:10194000302819D10CE0502810D0602814D110E0B4
:101950001DE019E045F008050FE045F010050CE02A
:1019600045F0200509E045F0400506E045F080051A
:1019700003E045F4807500E000BF00BF2068806987
:1019800020F07000216888610420216848602DB132
:10199000606A284360622046FFF702FEBDE8F09FC0
:1019A00070B504460CB9012070BD94F8200010B940
:1019B000204600F0AFF82068006820F0020021689F
:1019C000086000F0DDFC05460DE000F0D9FC401B8E
:1019D0000A2808D9606A40F400306062052084F863
:1019E00020000120E0E72068406800F002000028A5
:1019F000EBD12068006840F001002168086000F029
:101A0000BFFC05460DE000F0BBFC401B0A2808D9CE
:101A1000606A40F400306062052084F820000120F4
:101A2000C2E72068406800F001000028EBD0207E6B
:101A3000012806D12068006840F080002168086015
:101A400005E02068006820F0800021680860607E62
:101A5000012806D12068006840F040002168086035
:101A600005E02068006820F0400021680860A07E42
:101A7000012806D12068006840F020002168086035
:101A800005E02068006820F0200021680860E07E02
:101A9000012806D12068006820F010002168086045
:101AA00005E02068006840F0100021680860207F91
:101AB000012806D12068006840F00800216808600D
:101AC00005E02068006820F0080021680860607F59
:101AD000012806D12068006840F0040021680860F1
:101AE00005E02068006820F0040021680860D4E95F
:101AF0000201084321690843616908436168491E7E
:101B000008432168C86100206062012084F8200039
:101B1000002049E710B586B00446142101A8FEF75D
:101B2000F9FB4F492068884242D14E480068401C6A
:101B30004C4908600846006801280FD100BF00200A
:101B400000904948006840F0007047490860084626
:101B5000006800F00070009000BF00BF00BF0020D0
:101B6000009041481038006840F001003E491039AB
:101B700008600846006800F00100009000BF00BF48
:101B80004FF4C050019002200290002003900320E7
:101B900004900920059001A9344800F0E3FA0022DE
:101BA0000521142000F0CCFC142000F0B9FC54E016
:101BB0002F492068884250D100BF002000902A4859
:101BC000006840F08060284908600846006800F01E
:101BD0008060009000BF00BF22480068401C21497F
:101BE00008600846006801280FD100BF002000905F
:101BF0001D48006840F000701B49086008460068F6
:101C000000F00070009000BF00BF00BF00200090F7
:101C100015481038006840F0020013491039086078
:101C20000846006800F00200009000BF00BF60207E
:101C300001900220029000200390032004900920CC
:101C4000059001A90B4800F08DFA002205214020E3
:101C500000F076FC402000F063FC06B010BD0000F0
:101C600000640040000000204038024000000240B4
:101C700000680040000402400146002091F8202046
:101C8000012A01D0022A02D100234B6204E04B6AF0
:101C900043F480234B6201207047704770477047C0
:101CA0007047704770B5044694F82000012822D18F
:101CB000022084F820002068006820F001002168DC
:101CC000086000F05DFB05460DE000F059FB401B8D
:101CD0000A2808D9606A40F400306062052084F860
:101CE0002000012070BD2068406800F0010000283D
:101CF000EBD16062F6E7606A40F400206062012088
:101D0000F0E770B5044694F82000022828D1206836
:101D1000006840F001002168086000F031FB0546D2
:101D20000DE000F02DFB401B0A2808D9606A40F442
:101D300000306062052084F82000012070BD20681A
:101D4000406800F001000028EBD02068006820F017
:101D5000020021680860012084F820000020EDE7DF
:101D6000606A40F4801060620120E7E770477047C6
:101D700070477047704770477047014691F83500CB
:101D8000022803D08020486501207047052081F893
:101D900035000868006820F001000A681060002023
:101DA000F3E70000F8B50446002000908C48006876
:101DB0004FF41651B0FBF1F7A56D2E6894F85C1046
:101DC00008208840304098B12068006800F0040086
:101DD00070B12068006820F004002168086094F861
:101DE0005C1008208840A860606D40F001006065CC
:101DF00094F85C1001208840304068B12068406948
:101E000000F0800040B194F85C1001208840A86088
:101E1000606D40F00200606594F85C10042088401A
:101E2000304068B12068006800F0020040B194F8CA
:101E30005C1004208840A860606D40F0040060657C
:101E400094F85C1010208840304078B32068006817
:101E500000F0080050B394F85C1010208840A8608F
:101E60002068006800F4802080B12068006800F4D9
:101E7000002028B9206CC8B12046216C884715E0A5
:101E8000A06C98B12046A16C88470FE020680068DC
:101E900000F4807028B92068006820F008002168EC
:101EA0000860206C10B12046216C884794F85C10C3
:101EB000202088403040002865D02068006800F06D
:101EC000100000285FD094F85C1020208840A860A3
:101ED00094F83500052828D12068006820F0160005
:101EE000216808602068406920F08000216848610E
:101EF000206C08B9A06C28B12068006820F00800A8
:101F00002168086094F85C103F208840A86000BFFA
:101F1000002084F8340000BF012084F83500206DD3
:101F200010B12046216D8847F8BD2068006800F494
:101F3000802080B12068006800F4002028B9606C1F
:101F400010B12046616C88471DE0E06BD8B1204697
:101F5000E16B884717E02068006800F4807068B97A
:101F60002068006820F010002168086000BF002091
:101F700084F8340000BF012084F83500E06B10B114
:101F80002046E16B8847606D38B3606D00F001005A
:101F9000F0B1052084F835002068006820F00100C9
:101FA0002168086000BF0098401C0090B84200D92A
:101FB00005E02068006800F001000028F3D100BFB0
:101FC00000BF002084F8340000BF012084F83500F1
:101FD000E06C10B12046E16C884700BFA4E7000028
:101FE000B80100202DE9F0410446002500F0C8F9B1
:101FF000074614B90120BDE8F081606A00B100BF56
:1020000000BF002084F8340000BF022084F83500AF
:102010002068006820F00100216808600AE000F0F4
:10202000AFF9C01B052805D920206065032084F87E
:102030003500E0E72068006800F001000028EED1DC
:102040002068056821480540D4E901010843E1689A
:1020500008432169084361690843A1690843E169AC
:102060000843216A08430543606A042803D1D4E980
:102070000B0108430543206805602068456925F089
:102080000705606A0543606A04280DD1A06A05430C
:10209000E06A48B12046FEF7FDFF28B140206065A8
:1020A000012084F83500A6E7206845612046FEF748
:1020B000D7FF064694F85C103F208840B0600020AF
:1020C0006065012084F83500002094E73F8010F01F
:1020D0002DE9F04704460D4616461F464FF000080E
:1020E000D4F8589000BF94F83400012802D102209F
:1020F000BDE8F087012084F8340000BF94F8350073
:10210000012825D1022084F83500002060653B4677
:10211000324629462046FFF712F894F85C103F201B
:102120008840C9F808002068006840F0160021685F
:102130000860206C28B12068006840F00800216821
:1021400008602068006840F001002168086006E02F
:1021500000BF002084F8340000BF4FF00208404662
:10216000C6E70000F8B502460B4600250024002013
:102170000021DCE0012606FA01F51E6806EA0504E6
:10218000AC4273D15E68012E08D05E68022E05D085
:102190005E68112E02D05E68122E13D190684F0037
:1021A0000326BE40B0434F00DE68BE40304390601F
:1021B000506801268E40B0431E79C6F300168E404B
:1021C00030435060D0684F000326BE40B0434F00FC
:1021D0009E68BE403043D0605E68022E02D05E68CA
:1021E000122E13D1CF0802F1200656F827004E0711
:1021F000F70E0F26BE40B0434F07FF0E1E69BE40CC
:102200003043CF0802F1200646F8270010684F003F
:102210000326BE40B0431E7906F003064F00BE40C1
:10222000304310605E6806F08056B6F1805F7DD165
:1022300000BF00260096404E366846F480463E4F6A
:102240003E603E46366806F48046009600BF00BFFA
:102250003A4E8F0856F827008E07370F0F26BE40DC
:10226000B043374EB24202D1002624E05EE0354E44
:10227000B24201D101261EE0334EB24201D1022604
:1022800019E0324EB24201D1032614E0304EB24280
:1022900001D104260FE02F4EB24201D105260AE0FB
:1022A0002D4EB24201D1062605E02C4EB24201D19C
:1022B000072600E008268F073F0FBE4030431F4E21
:1022C0008F0846F82700264E3068A0435E6806F463
:1022D0008036B6F5803F00D12043214E3060361D58
:1022E0003068A0435E6806F40036B6F5003F00D1C2
:1022F00020431B4E361D3060361D3068A0435E689B
:1023000006F48016B6F5801F00D12043144E08361F
:102310003060361D3068A0435E6806F40016B6F5DE
:10232000001F00D120430E4E0C363060491C10298E
:10233000FFF420AFF8BD00004438024008380140E7
:10234000000002400004024000080240000C02406D
:10235000001002400014024000180240001C02401D
:10236000003C0140024613690B400BB1012000E024
:10237000002070470AB1816101E00B04836170475E
:102380000148006870470000AC01002070B50446A9
:102390000CB9012070BD4CF6CC402168086045F2B4
:1023A000555021680860D4E9001048602168A06891
:1023B0008860FFF7E5FF054606E0FFF7E1FF401BF9
:1023C000302801D90320E5E72068C0680028F4D14F
:1023D0004AF6AA20216808600020DBE701464AF699
:1023E000AA200A68106000207047000003480068B7
:1023F000034909780844014908607047AC0100208E
:10240000B401002010B50D48006840F400700B497D
:1024100008600846006840F480600860084600686C
:1024200040F480700860032000F0C8F8002000F03D
:1024300007F800F04BF8002010BD0000003C0240FF
:1024400070B588B0044600250026002221461920D8
:1024500000F076F8192000F063F800BF002001902A
:102460001648006840F001001449086008460068FA
:1024700000F00100019000BF00BF02A903A800F016
:1024800073F900F0A9F945000D48B5FBF0F0461EC0
:102490000C480D49086040F2E7310B48C1604660C6
:1024A00000210161816000F09FFC20B9064800F026
:1024B000F5FC08B070BD0120FBE700004438024085
:1024C00040420F0000000140F808002008B500BF9E
:1024D000002000901148006840F480400F490860D7
:1024E0000846006800F48040009000BF00BF00BFB5
:1024F00000200090081F006840F08050091F08600D
:102500000846006800F08050009000BF00BF002225
:102510000F21901E00F014F808BD0000443802405E
:1025200001460846002809DB00F01F0301229A40FB
:1025300043099B0003F1E023C3F8002100BF70476B
:102540002DE9F05F80460D461646002703F094F80B
:10255000074639462A46334601F00700C0F1070A0C
:10256000BAF1040F02D94FF0040A01E0C0F1070AE2
:10257000D14600F1040ABAF1070F02D24FF0000A67
:1025800001E0A0F1030AD4464FF0010A0AFA09FA61
:10259000AAF1010A0AEA020A0AFA0CFA4FF0010B40
:1025A0000BFA0CFBABF1010B0BEA030B4AEA0B0431
:1025B0002146404603F068F8BDE8F09F00BF00F0F8
:1025C0000702064B19684FF6FF031940044B0B43F3
:1025D00043EA0221014B196000BF70470CED00E097
:1025E0000000FA0570B504460D460CB9012070BD17
:1025F0005848006800F00F00A84209D255490D70F4
:102600000846006800F00F00A84201D00120EEE764
:10261000207800F0020002281DD1207800F004008C
:10262000042805D14C48006840F4E0504A4908604D
:10263000207800F00800082805D14748006840F4D9
:102640006040454908604448006820F0F000A168F7
:10265000084341490860207800F00100A8B3606891
:10266000012807D13C4808380068C0F34040B8B999
:102670000120BCE76068022802D06068032807D107
:10268000354808380068C0F3406048B90120AEE71B
:10269000314808380068C0F3400008B90120A6E7B7
:1026A0002D48006820F00300616808432A4908604B
:1026B000FFF766FE064609E0FFF762FE801B41F267
:1026C0008831884202D9032091E707E02248006858
:1026D00000F00C006168B0EB810FEDD11D4800687F
:1026E00000F00F00A84209D91A490D700846006889
:1026F00000F00F00A84201D0012078E7207800F018
:102700000400042807D11448006820F4E050E16870
:10271000084311490860207800F00800082808D113
:102720000D48006820F46040216940EAC1000A4970
:10273000086000F061F808490968C1F30311074A0D
:10274000515CC8400649086006480068FFF778FEFB
:1027500000204CE7003C0240083802406472000848
:10276000B8010020B00100200F2202600D4A12685B
:1027700002F0030242600B4A126802F0F00282602B
:10278000084A126802F4E052C260064A126802F473
:102790006042D2080261044A126802F00F020A6025
:1027A0007047000008380240003C024001480068C1
:1027B00070470000B801002000B5FFF7F7FF04499B
:1027C0000968C1F38221034A515CC84000BD000082
:1027D000083802407472000800B5FFF7E7FF0449AB
:1027E0000968C1F34231034A515CC84000BD000092
:1027F00008380240747200082DE9F04700240025D3
:102800000026A1462548006800F00C0020B10428ED
:1028100005D008283AD105E0DFF8849039E0DFF8E8
:10282000849036E01D48001F006800F03F041B48FC
:10283000001F006800F4800078B11A481749091F8A
:102840000968C1F38811A0FB0170014622460023EC
:102850003846FDF715FD05460EE011480F49091FE2
:102860000968C1F38811A0FB0170014622460023CC
:102870003846FDF705FD05460848001F0068C0F30F
:102880000140401C4600B5FBF6F902E0DFF810906D
:1028900000BF00BF4846BDE8F0870000083802408E
:1028A0000024F40000127A00F8B504460CB90120A7
:1028B000F8BD207800F00100002874D0F9480068C5
:1028C00000F00C0004280DD0F648006800F00C0061
:1028D000082813D1F348001F006800F48000B0F509
:1028E000800F0BD1EF4808380068C0F34040002843
:1028F00059D06068002856D10120D9E700BF606830
:10290000B0F5803F08D1E7480838006840F48030CF
:10291000E449083908601EE06068B0F5A02F0DD1C9
:10292000E0480838006840F48020DE490839086033
:102930000846006840F4803008600CE0D948083848
:10294000006820F48030D7490839086008460068DC
:1029500020F48020086000BF606890B1FFF710FD90
:10296000054606E0FFF70CFD401B642801D9032053
:102970009EE7CC4808380068C0F340400028F1D0FA
:1029800011E0FFF7FDFC054606E0FFF7F9FC401BF0
:10299000642801D903208BE7C24808380068C0F3D7
:1029A00040400028F1D1207800F0020002285FD1D9
:1029B000BC48006800F00C0058B1BA48006800F04C
:1029C0000C0008281CD1B748001F006800F48000E4
:1029D000B0B9B44808380068C0F3400020B1E068DE
:1029E000012801D0012063E7AE480838006820F0D4
:1029F000F800216940EAC100AA490839086037E0B7
:102A0000E06800B30120A8490860FFF7B9FC05465B
:102A100006E0FFF7B5FC401B022801D9032047E779
:102A2000A04808380068C0F340000028F1D09D4855
:102A30000838006820F0F800216940EAC10099498F
:102A40000839086014E0002097490860FFF798FCF7
:102A5000054606E0FFF794FC401B022801D903203D
:102A600026E7904808380068C0F340000028F1D1FC
:102A7000207800F0080008282CD16069A8B1012056
:102A80008A490860FFF77CFC054606E0FFF778FC02
:102A9000401B022801D903200AE782486C300068F5
:102AA000C0F340000028F1D014E000207F49086006
:102AB000FFF766FC054606E0FFF762FC401B0228B4
:102AC00001D90320F4E677486C300068C0F3400079
:102AD0000028F1D1207800F00400042870D10027EC
:102AE00070483830006800F0805090B900BF002076
:102AF00000906C483830006840F0805069493831A7
:102B000008600846006800F08050009000BF00BFD9
:102B100001276748006800F48070B0B96448006815
:102B200040F4807062490860FFF72AFC054606E021
:102B3000FFF726FC401B022801D90320B8E65C48B9
:102B4000006800F480700028F2D000BFA06801285F
:102B500008D154486830006840F00100514968319C
:102B600008601DE0A06805280DD14E486830006857
:102B700040F004004B49683108600846006840F0A6
:102B8000010008600CE047486830006820F0010050
:102B90004449683108600846006820F00400086075
:102BA00000BFA068A8B1FFF7EBFB054609E0FFF7FF
:102BB000E7FB401B41F28831884202D9032077E6C7
:102BC00026E0384868300068C0F340000028EED0A6
:102BD00013E0FFF7D5FB054608E0FFF7D1FB401BEC
:102BE00041F28831884201D9032061E62D486830DE
:102BF0000068C0F340000028EFD1012F07D1294819
:102C00003830006820F0805026493831086000BF15
:102C1000A069002845D02348006800F00C0008286F
:102C20005DD0A069022845D100201F490866FFF742
:102C3000A7FB054606E0FFF7A3FB401B022801D9CE
:102C4000032035E6174808380068C0F340600028C4
:102C5000F1D1D4E907010843616A40EA81110122F8
:102C6000A06AC2EB500041EA00412C20005D41EA1D
:102C700000600C49091F086001200B490866FFF736
:102C80007FFB054606E0FFF77BFB401B022801D9CE
:102C900003200DE6034808380068C0F340600028B0
:102CA000F1D03FE00838024000004742800E474222
:102CB0000070004000201C490866FFF761FB0546D4
:102CC00006E0FFF75DFB401B022801D90320EFE57A
:102CD00016480068C0F340600028F2D122E0A069E5
:102CE000012800D1E4E51148001D066806F48001C2
:102CF000E069814214D106F03F01206A81420FD180
:102D000047F6C0703040616A884209D106F440310C
:102D1000A06A814204D106F07061E06A814201D06C
:102D20000120C5E50020C3E500004742003802400D
:102D30007047704730B502460B4600BF92F83C0022
:102D4000012801D1022030BD012082F83C0000BFE3
:102D5000022082F83D00106844681068816824F001
:102D600070041868044310684460184D1068A84245
:102D70001BD01068B0F1804F17D0154D1068A842D5
:102D800013D0144D1068A8420FD0134D1068A842FC
:102D90000BD0124D1068A84207D0114D1068A84200
:102DA00003D0104D1068A84205D121F08001586869
:102DB000014310688160012082F83D0000BF0020BF
:102DC00082F83C0000BF00BFBDE7000000000140EA
:102DD0000004004000080040000C004000040140D6
:102DE000004001400018004010B504460CB9012015
:102DF00010BD94F83D0028B9002084F83C0020461E
:102E000000F00CF8022084F83D00211D206801F03C
:102E100073FF012084F83D000020E9E738B504463F
:102E20002068B0F1804F18D100BF002000901948F1
:102E3000006840F00100174908600846006800F08B
:102E40000100009000BF00BF002205211C20FFF7F9
:102E500077FB1C20FFF764FB1BE00F4920688842CA
:102E600017D100BF002000900A48006840F002001F
:102E7000084908600846006800F00200009000BFA2
:102E800000BF002205211D20FFF75AFB1D20FFF780
:102E900047FB38BD40380240000400400146086846
:102EA000C06840F001000B68D8600868806800F0D6
:102EB0000702062A05D00868006840F001000B6888
:102EC0001860002070472DE9F04104460D4600BF10
:102ED00094F83C00012802D10220BDE8F0810120D5
:102EE00084F83C0000BF022084F83D00206886681A
:102EF00026F0770626F47F462068866028685028EA
:102F000033D00CDC202850D004DC00284BD0102813
:102F100051D149E0302849D040284CD139E06028CF
:102F20002DD0702807D0B0F5805F03D0B0F5005FDA
:102F300041D10DE040E0D5E902136A68206801F054
:102F400047FF2068866846F077062068866033E091
:102F5000D5E902136A68206801F03AFF20688068AA
:102F600040F480402168886026E0EA68696820684B
:102F700001F042FF5021206801F035FF1CE0EA68B3
:102F80006968206801F04BFF6021206801F02BFF89
:102F900012E0EA686968206801F02EFF402120688D
:102FA00001F021FF08E000BF00BF00BF29682068D2
:102FB00001F019FF00E000BF00BF012084F83D00D0
:102FC00000BF002084F83C0000BF00BF85E77047C9
:102FD00010B5044620680069C0F34000D8B12068ED
:102FE000C068C0F34000B0B16FF002002168086112
:102FF000012020772068806900F0030018B1204686
:10300000FFF7E5FF05E0204600F0ADF8204600F0B0
:10301000ABF80020207720680069C0F38000D8B1A9
:103020002068C068C0F38000B0B16FF00400216870
:103030000861022020772068806900F4407018B190
:103040002046FFF7C4FF05E0204600F08CF820463C
:1030500000F08AF80020207720680069C0F3C000E3
:10306000D8B12068C068C0F3C000B0B16FF00800EC
:1030700021680861042020772068C06900F00300FF
:1030800018B12046FFF7A3FF05E0204600F06BF8DB
:10309000204600F069F80020207720680069C0F31E
:1030A0000010D8B12068C068C0F30010B0B16FF054
:1030B000100021680861082020772068C06900F4AA
:1030C000407018B12046FFF782FF05E0204600F06F
:1030D0004AF8204600F048F8002020772068006970
:1030E00000F0010058B12068C06800F0010030B164
:1030F0006FF0010021680861204600F037F8206871
:103100000069C0F3C01058B12068C068C0F3C01097
:1031100030B16FF08000216808612046FFF708FE9B
:1031200020680069C0F3801058B12068C068C0F3FF
:10313000801030B16FF0400021680861204600F037
:1031400021F820680069C0F3401058B12068C068B9
:10315000C0F3401030B16FF02000216808612046B4
:10316000FFF7E7FD10BD70477047000010B504463B
:1031700003492068884201D1FFF738F910BD0000EB
:1031800000000140704770472DE9F0470446206871
:1031900005682068C668206847694FF00008C14686
:1031A00005F00F08B8F1000F0AD105F0200038B182
:1031B00006F0200020B1204601F0F1FEBDE8F087C6
:1031C000B8F1000F72D007F0010018B906F4907042
:1031D00000286BD005F0010030B106F4807018B102
:1031E000E06B40F00100E06305F0040030B107F04F
:1031F000010018B1E06B40F00200E06305F002004E
:1032000030B107F0010018B1E06B40F00400E0635A
:1032100005F0080048B106F0200010B907F00100E1
:1032200018B1E06B40F00800E063E06B70B305F0AC
:10323000200028B106F0200010B1204601F0AFFEBA
:1032400020684069C0F38019E06B00F0080010B9F5
:10325000B9F1000F23D0204601F077FE20684069C5
:1032600000F04000402816D12068406920F040005E
:1032700021684861606B50B11748616B0865606BED
:10328000FEF77BFD10B1606B016D88470CE02046B6
:10329000FFF779FF08E02046FFF775FF04E02046BE
:1032A000FFF771FF0020E06388E7FFE705F080008B
:1032B00030B106F0800018B1204602F0B7F87DE783
:1032C00005F0400030B106F0400018B1204601F092
:1032D0004CFE73E700BF71E7934E000810B504463B
:1032E0000CB9012010BDA06900B100E000BF94F846
:1032F000390028B9002084F83800204600F028F86A
:10330000242084F839002068C06820F40050216827
:10331000C860204601F096FE2068006920F49040C5
:10332000216808612068406920F02A00216848610E
:103330002068C06840F400502168C8600020E06345
:10334000202084F8390084F83A000020CAE7000001
:1033500010B586B00446142101A8FCF7DBFFE7494D
:103360002068884256D100BF00200090E4480068E1
:1033700040F01000E24908600846006800F01000C4
:10338000009000BF00BF00BF00200090DC48143850
:10339000006840F00100DA49143908600846006806
:1033A00000F00100009000BF00BF4FF4C06001902A
:1033B0000220029000200390032004900720059033
:1033C00001A9D048FEF7CEFECF48D04908604FF0A3
:1033D000006048600021CD488160C1604FF4806189
:1033E0000161002141618161C16101624162FEF7B9
:1033F000F9FD08B1FDF7BCFE00BFC44860638463FB
:1034000000BF002205212520FFF79AF82520FFF7AD
:1034100087F871E1BE492068884277D100BF00205B
:103420000090B748001F006840F40030B449091FFD
:1034300008600846006800F40030009000BF00BF3C
:1034400000BF00200090AE481438006840F0010032
:10345000AB49143908600846006800F0010000908C
:1034600000BF00BF0C2001900220029000200390BA
:10347000032004900720059001A9A248FEF772FEE0
:10348000A448A54908604FF0006048600021A248A8
:103490008160C1604FF480610161002141618161FF
:1034A000C16101624162FEF79DFD08B1FDF760FE5A
:1034B00000BF99486063846300BF964818309749FD
:1034C00008604FF00060486040219448816000210E
:1034D000C1604FF480610161002141618161C1617E
:1034E00001624162FEF77EFD08B1FDF741FE00BFBB
:1034F0008A482063846300BF002205212620FFF74D
:103500001FF82620FFF70CF8F6E0FFE78449206853
:10351000884279D100BF002000907948001F0068E0
:1035200040F480207649091F08600846006800F4CE
:103530008020009000BF00BF00BF002000907048B6
:103540001438006840F004006D49143908600846DA
:10355000006800F00400009000BF00BF4FF440601E
:103560000190022002900020039003200490072085
:10357000059001A96B48FEF7F5FD664860386A4979
:1035800008604FF000604860002167488160C160BA
:103590004FF480610161002141618161C16101627B
:1035A0004162FEF71FFD08B1FDF7E2FD00BF5E4876
:1035B0006063846300BF574830385C4908604FF04F
:1035C000006048604021594881600021C1604FF48B
:1035D00080610161002141618161C16101624162DB
:1035E000FEF700FD08B1FDF7C3FD00BF4F482063A3
:1035F000846300BF002205212720FEF7A1FF2720BA
:10360000FEF78EFF78E0FFE749492068884273D1D2
:1036100000BF002000903A48006840F02000384980
:1036200008600846006800F02000009000BF00BF5E
:1036300000BF0020009032481438006840F00400B9
:103640002F49143908600846006800F00400009013
:1036500000BF00BFC0200190022002900020039014
:10366000032004900820059001A92E48FEF77AFD5A
:10367000254818382F4908608005486000212D48EA
:103680008160C1604FF4806101610021416181610D
:10369000C16101624162FEF7A5FC08B1FDF768FD5A
:1036A00000BF24486063846300BF1748603022492C
:1036B00008604FF02060486040211F488160002171
:1036C000C1604FF480610161002141618161C1618C
:1036D00001624162FEF786FC08B1FDF749FD00BFBB
:1036E00015482063846300BF002205214720FEF7B0
:1036F00027FF4720FEF714FF06B010BD0010014061
:103700004438024000000240406402405806002055
:103710000044004088600240B806002018070020DE
:10372000004800400008024078070020D807002029
:1037300000140140380800209808002077B581B0B7
:103740000446154694F83A00202850D1029800B15A
:1037500015B9012004B070BD00BF94F838000128ED
:1037600001D10220F6E7012084F8380000BF02985A
:10377000A062A5850020E063222084F83A001D485D
:10378000616BC8631C48616B08641C48616BC8644A
:103790000020616B086502AE32682368191D2B4654
:1037A000606BFEF795FC00BF002000902068006869
:1037B000009020684068009000BF00BF00BF00205C
:1037C00084F8380000BF2068C06840F48070216829
:1037D000C8602068406940F00100216848612068A5
:1037E000406940F04000216848610020B2E70220B3
:1037F000B0E70000F74E00083D4F0008A74E000854
:1038000070477047704700BFFEE7000000BF0D48DB
:10381000D0F83C0290F82C0040B90B48006802F048
:10382000D3FF0948006803F06FF807E0074800F08D
:10383000F5FE0449D1F83C02FDF71AF9012002F027
:1038400011FBE4E7280A002008000020D80B002024
:1038500010B50446304801683048006800F54870EB
:10386000814209D32C4800682C4908602C48007814
:10387000401C40B22A490870294890F900000828E5
:1038800036DA2748017801208840204090B122484C
:1038900001682248006800F5167081420AD20122B0
:1038A00011462048FEF766FD002202211D48FEF762
:1038B00061FD2FE0184801681848006800F516708F
:1038C00081420AD2002201211648FEF753FD01224F
:1038D00002211448FEF74EFD1CE000220121114890
:1038E000FEF748FD002202210E48FEF743FD11E0DD
:1038F0000B48007808280AD1002201210948FEF768
:1039000039FD002202210748FEF734FD02E00020C5
:103910000349087010BD00008801002090010020BC
:103920008C0100200008024070B505460C46164682
:103930000B4806601CB1A0B2FFF78AFF0FE025B16B
:10394000012D05D0022D09D105E0FDF741F805E074
:10395000FDF782FC02E0FDF771FC00BF00BF70BD07
:103960008801002010B50F480F4908600320486007
:1039700000210D488160C1604FF4C02101614FF406
:10398000A001416100210176417681760121C17655
:10399000002101774177FEF703F808B1FDF7E8FB56
:1039A00010BD0000006400402802002010B50E4841
:1039B0000E4908600320486000210C488160C16006
:1039C0004FF4C02101614FF4A00141610021017653
:1039D00041768176C17601774177FDF7E1FF08B145
:1039E000FDF7C6FB10BD000000680040500200203B
:1039F00008B500BF002000902A48006840F400107D
:103A0000284908600846006800F40010009000BFD4
:103A100000BF00BF002000900846006840F480000E
:103A200008600846006800F48000009000BF00BFF6
:103A3000002205210C20FEF783FD0C20FEF770FD0F
:103A4000002205210E20FEF77BFD0E20FEF768FD0B
:103A5000002205211020FEF773FD1020FEF760FD07
:103A6000002205211120FEF76BFD1120FEF758FD05
:103A7000002205213920FEF763FD3920FEF750FDB5
:103A8000002205213A20FEF75BFD3A20FEF748FDB3
:103A9000002205214520FEF753FD4520FEF740FD9D
:103AA00008BD00003038024000B5A1B0224B0FCB5A
:103AB000CDE91F23CDE91D0100211DA802F0E3F986
:103AC0001E4908601C221C49103116A8FCF709FC8D
:103AD000002116A802F0EBF9194908601C221649CA
:103AE0002C310FA8FCF7FDFB00210FA802F0DFF935
:103AF000144908601C221049483108A8FCF7F1FB62
:103B0000002108A802F0D3F90F4908601C220A49D5
:103B1000643101A8FCF7E5FB002101A802F0C7F918
:103B20000A4908600748006802F0EEFE074800688E
:103B300002F0EAFE21B000BDDC7100081400002094
:103B400004000020080000200C00002010000020CD
:103B500000B587B0142102A8FCF7DCFB00BF0020F1
:103B600001904048006840F080003E4908600846E7
:103B7000006800F08000019000BF00BF00BF00207F
:103B800001900846006840F004000860084600689C
:103B900000F00400019000BF00BF00BF00200190B2
:103BA0000846006840F0010008600846006800F020
:103BB0000100019000BF00BF00BF00200190084637
:103BC000006840F0020008600846006800F002004B
:103BD000019000BF00BF002241F203012248FEF71E
:103BE000C9FB03200290012003900020049005905F
:103BF00002A91D48FEF7B6FA182002900020039093
:103C00000120049002A91848FEF7ACFAC0200290E7
:103C100000200390049002A91448FEF7A3FA4FF481
:103C20000060029000200390049002A91048FEF763
:103C300099FA4FF44070029000200390049002A97A
:103C40000948FEF78FFA4FF480500290012003904C
:103C5000022004900020059002A90348FEF782FA92
:103C600007B000BD303802400008024000000240AA
:103C70000004024010B5074807490860002048606A
:103C800040F6FF7104488160FEF780FB08B1FDF744
:103C90006FFA10BD00300040CC04002000B587B0A2
:103CA00000200390049005900690019002904FF040
:103CB0008040144908605320486000211148816009
:103CC00040F2F311C1600021016180218161FFF7A1
:103CD0008BF808B1FDF74CFA4FF48050039003A91C
:103CE0000848FFF7F0F808B1FDF742FA002001900C
:103CF000029001A90348FFF71DF808B1FDF738FA53
:103D000007B000BDD804002000B587B000200390A4
:103D1000049005900690019002901548154908609E
:103D20005320486000211348816040F2E731C160B0
:103D30000021016180218161FFF756F808B1FDF78C
:103D400017FA4FF48050039003A90A48FFF7BBF815
:103D500008B1FDF70DFA00200190029001A9054875
:103D6000FEF7E8FF08B1FDF703FA07B000BD000059
:103D7000000400401805002010B50C480C490860EC
:103D80000C4848604FF48051094881600021C160AF
:103D90004FF4806101610421416100218161C161B1
:103DA000FFF79CFA08B1FDF7E3F910BD00100140E0
:103DB00058050020A086010010B50B480B4908608B
:103DC0004FF4E1304860002108488160C160016122
:103DD0000C21416100218161C161FFF77FFA08B1C7
:103DE000FDF7C6F910BD0000004400409805002012
:103DF00010B50C480C4908604FF4E13048600021D0
:103E000009488160C1604FF4806101610C2141610A
:103E100000218161C161FFF761FA08B1FDF7A8F9DE
:103E200010BD000000480040D805002010B50C4827
:103E30000C4908604FF4E130486000210948816076
:103E4000C1604FF4806101610C21416100218161F9
:103E5000C161FFF743FA08B1FDF78AF910BD000010
:103E6000001401401806002000BFFEE710B590EDD9
:103E70001C0ABDEEC00A10EE101AC1F30723D0F8D9
:103E80008810183190F8802001F8123090ED1C0A4B
:103E9000BDEEC00A10EE101ACBB280308168183126
:103EA0000278012404EB42028B540121826880389D
:103EB00082F8201010BD000070B505460E460024A3
:103EC000A5F2012030B1012806D0022807D003282E
:103ED0000AD106E00B4C08E00A4C903405E00A4C8D
:103EE00003E0094C903400E000BF00BF04B970BD8E
:103EF0003146204600F00AF804F18200FDF742F94D
:103F000000BFF4E7280A0020480B002070B52DED13
:103F10000A8B04460D466878297840EA01206080C3
:103F2000E878A97840EA012000B2208068792979F0
:103F300040EA012000B26082A87920742088B0B1E4
:103F40006188A28A891A08B261680144616010F52B
:103F5000805F04DA616801F50051616006E0B0F548
:103F6000805F03DD6168A1F50051616000BF60887A
:103F7000A0826068FCF761FB41EC190B9FED180B08
:103F800053EC102BFCF7EAFA41EC180BFCF766FB3C
:103F9000E060E068FCF751FB41EC1C0B9FED120B5D
:103FA00053EC102BFCF768FA41EC1B0B9FED100B48
:103FB00053EC102BFCF760FA41EC190B6068FCF72E
:103FC0003CFB41EC1A0B53EC192BFCF74FFA41EC7C
:103FD000180BFCF743FBA060BDEC0A8B70BD000022
:103FE0000000000000403D410000000000406D4026
:103FF000000000000000C04070B504460D4684F883
:1040000080500848C4F8880000218620015301210F
:1040100004F1820001F016FB002104F18200FDF79B
:10402000A5F870BD3C00002002200549C1F84C02F3
:1040300000BFFCF777FF012001F014FFF9E7000053
:10404000280A0020704700002DE9F04107460C4681
:104050000025C7F3451607F01F0826484069B042FF
:1040600001D1244D12E02348006DB04202D1214D10
:104070003C350BE020484069B04201D11E4D05E0BF
:104080001D48006DB04201D11B4D3C35B8F1040F05
:1040900016D006DCB8F1010F0AD0B8F1030F20D119
:1040A0000BE0B8F1090F0ED0B8F1170F19D113E0DA
:1040B000206828606068686014E02068E86011E0AB
:1040C000206828610EE094ED000A85ED060A94ED63
:1040D000010A85ED070A05E094ED000A85ED090A5D
:1040E00000BF00BF00BF05F12C00FDF74BF8BDE895
:1040F000F081000038090020B009002070B50446A6
:104100000D4604B970BD608D05F01F010843608540
:10411000092D1AD006DC032D0BD0042D0DD0072D50
:1041200023D10EE00D2D14D0162D16D0172D1CD135
:1041300017E02046FDF756F818E02046FDF726F870
:1041400014E0204600F086FC10E02046FDF734F82D
:104150000CE0204600F093FC08E0204600F05EFBF7
:1041600004E02046FDF754F800E000BF00BF4FF622
:10417000FF71606901EA4010608500BFC2E700007E
:1041800080ED000AC0ED010A80ED021AC0ED051AAB
:1041900080ED0B3A80ED062AC0ED082ADFED0A3AE1
:1041A000C0ED033ADFED083AC0ED043ADFED063A20
:1041B000C0ED073ADFED043AC0ED093ADFED023A0F
:1041C000C0ED0A3A7047000000000000D0ED1E0A62
:1041D00090ED010AB8EEC00A30EEC00A80ED090A7F
:1041E00090ED090AD0ED0B0AB4EEE00AF1EE10FAF8
:1041F00003DD90ED0B0A80ED090A90ED090AD0ED80
:104200000B0AF1EE600AB4EEE00AF1EE10FA05D204
:1042100090ED0B0AB1EE400A80ED090A90ED090A13
:10422000B5EEC00AF1EE10FA0CDD90ED090AD0ED02
:104230000C0AB4EEE00AF1EE10FA03D29FED990AEF
:1042400080ED090A90ED090AB5EEC00AF1EE10FA08
:104250000CD290ED090AD0ED0C0AB4EEE00AF1EEB2
:1042600010FA03DD9FED8F0A80ED090A90ED0D0A2B
:10427000D0ED090A30EE200A80ED0D0A90ED0D0A0E
:10428000D0ED0E0AB4EEE00AF1EE10FA03DD90ED87
:104290000E0A80ED0D0A90ED0D0AD0ED0E0AF1EE3A
:1042A000600AB4EEE00AF1EE10FA05D290ED0E0AC3
:1042B000B1EE400A80ED0D0A90ED090AD0ED0A0A30
:1042C00030EE600A80ED0F0A90ED090A80ED0A0ACF
:1042D00090ED060AD0ED090A20EE200AD0ED070A7B
:1042E00090ED0D1A00EE810AD0ED080A90ED0F1A3C
:1042F00000EE810A80ED100A90ED100AD0ED110A4F
:10430000B4EEE00AF1EE10FA03DD90ED110A80ED53
:10431000100A90ED100AD0ED110AF1EE600AB4EE29
:10432000E00AF1EE10FA05D290ED110AB1EE400A62
:1043300080ED100AD0ED100AB0F9001000EE101A4E
:10434000B8EEC00A30EEC00A80ED150A90ED150AED
:10435000D0ED170AB4EEE00AF1EE10FA03DD90EDAD
:10436000170A80ED150A90ED150AD0ED170AF1EE47
:10437000600AB4EEE00AF1EE10FA05D290ED170AE9
:10438000B1EE400A80ED150A90ED150AB5EEC00AAF
:10439000F1EE10FA0CDD90ED150AD0ED180AB4EE2E
:1043A000E00AF1EE10FA03D29FED3E0A80ED150A05
:1043B00090ED150AB5EEC00AF1EE10FA0CD290EDB0
:1043C000150AD0ED180AB4EEE00AF1EE10FA03DD9A
:1043D0009FED340A80ED150A90ED190AD0ED150A0B
:1043E00030EE200A80ED190A90ED190AD0ED1A0A74
:1043F000B4EEE00AF1EE10FA03DD90ED1A0A80ED5A
:10440000190A90ED190AD0ED1A0AF1EE600AB4EE1D
:10441000E00AF1EE10FA05D290ED1A0AB1EE400A68
:1044200080ED190A90ED150AD0ED160A30EE600AFB
:1044300080ED1B0A90ED150A80ED160A90ED120A28
:10444000D0ED150A20EE200AD0ED130A90ED191ACE
:1044500000EE810AD0ED140A90ED1B1A00EE810ADD
:1044600080ED1C0A90ED1C0AD0ED1D0AB4EEE00AA6
:10447000F1EE10FA03DD90ED1D0A80ED1C0A90EDBF
:104480001C0AD0ED1D0AF1EE600AB4EEE00AF1EE6E
:1044900010FA05D290ED1D0AB1EE400A80ED1C0A1B
:1044A0007047000000000000D0ED1F0AB0F90010B6
:1044B00000EE101AB8EEC00A30EEC00A80ED150A00
:1044C00090ED150AD0ED170AB4EEE00AF1EE10FAFD
:1044D00003DD90ED170A80ED150A90ED150AD0ED79
:1044E000170AF1EE600AB4EEE00AF1EE10FA05D216
:1044F00090ED170AB1EE400A80ED150A90ED150A0D
:10450000B5EEC00AF1EE10FA0CDD90ED150AD0ED13
:10451000180AB4EEE00AF1EE10FA03D29FED3E0A5B
:1045200080ED150A90ED150AB5EEC00AF1EE10FA0D
:104530000CD290ED150AD0ED180AB4EEE00AF1EEB7
:1045400010FA03DD9FED340A80ED150A90ED190A8B
:10455000D0ED150A30EE200A80ED190A90ED190A07
:10456000D0ED1A0AB4EEE00AF1EE10FA03DD90ED98
:104570001A0A80ED190A90ED190AD0ED1A0AF1EE27
:10458000600AB4EEE00AF1EE10FA05D290ED1A0AD4
:10459000B1EE400A80ED190A90ED150AD0ED160A29
:1045A00030EE600A80ED1B0A90ED150A80ED160AC8
:1045B00090ED120AD0ED150A20EE200AD0ED130A74
:1045C00090ED191A00EE810AD0ED140A90ED1B1A35
:1045D00000EE810A80ED1C0A90ED1C0AD0ED1D0A48
:1045E000B4EEE00AF1EE10FA03DD90ED1D0A80ED65
:1045F0001C0A90ED1C0AD0ED1D0AF1EE600AB4EE23
:10460000E00AF1EE10FA05D290ED1D0AB1EE400A73
:1046100080ED1C0A704700000000000070B50546E0
:1046200095F88000274944182078962832DA2846E1
:10463000FFF73AFF2448854207D140212348FDF780
:1046400091FE10B92078401C20701F4890308542A0
:1046500007D180211D48FDF785FE10B92078401C48
:1046600020701B48854208D14FF480711948FDF72E
:1046700079FE10B92078401C207015489030854292
:1046800008D14FF400711348FDF76CFE10B9207883
:10469000401C20702078962804D100206860207883
:1046A000401C2070207897280BD19FED0B0A85EDD8
:1046B0001E0A002105F1820000F0C4FF2846FFF722
:1046C00085FD70BD82010020280A00200000024004
:1046D000480B0020000802400000000010B504460E
:1046E00008214748FDF73EFE002838D145480068BC
:1046F00008B94448046043480068201AC82839D9DA
:1047000041480078C8B916214048FFF7F7FC01205E
:104710003D49087002213D482C3000F093FF0221F2
:104720003A48683000F08EFF00213848FCF7FCF969
:10473000012136483C30FCF7F7F932480068201A6E
:10474000E62805D2012211032D48FDF713FE11E0E2
:1047500000224FF480512A48FDF70CFE0AE00020A9
:10476000294908702749086000224FF480512448E5
:10477000FDF700FE10212248FDF7F4FD88BB244818
:10478000006808B92248046021480068201AC82837
:1047900034D920480078C8B916211F48FFF7AEFC6D
:1047A00001201C49087002211B482C3000F04AFFF0
:1047B00002211948683000F045FF02211648FCF735
:1047C000B3F9032114483C30FCF7AEF910480068F7
:1047D000201AE62806D2012211030948FDF7CAFD76
:1047E0000CE006E000224FF480510548FDF7C2FDC1
:1047F00004E00020074908700549086010BD00006A
:104800000008024030000020380000203809002055
:104810003400002039000020B00900201CB50446F7
:10482000012300220749A06B00F00EFB94F82A0038
:104830000221CDE9001000231A460821A06B00F0E8
:104840001AFB1CBD2000002000B970470178427897
:1048500041EA0221C1F30A012A4A91804178C91034
:10486000827841EA4211C1F30A01264AD180817857
:104870008911C27841EA8201027941EA8221C1F3B9
:104880000A01204A118001794910427941EAC21196
:10489000C1F30A011B4A51801146497A127A41EA52
:1048A00082014279B1EB121F02D00121154A117524
:1048B000417909118908134A11724179C1F3011133
:1048C00051728179C27941EA022109B20D4A5181BE
:1048D000017A427A41EA02210AB20A498A81817A3E
:1048E000C27A41EA02210AB20649CA81027B0A74ED
:1048F000427B4A74817B034A9174C27B0149CA742A
:1049000000BFA2E79401002010B52DED068B4949A8
:104910000988A1F58060FBF790FE41EC1A0B9FED32
:10492000460B53EC102BFBF7A7FD41EC190B9FED49
:10493000440B53EC102BFBF711FE41EC180BFBF76B
:10494000D7FE4149C1F840023A494988A1F5806043
:10495000FBF773FE41EC1A0B9FED370B53EC102B5A
:10496000FBF78AFD41EC190B9FED350B53EC102B37
:10497000FBF7F4FD41EC180BFBF7BAFE3249C1F826
:1049800044022C490988A1F580614943294A52888B
:10499000A2F58062274B5B88A3F5806302FB0311BD
:1049A0000A2901DD012100E000210846FBF745FE50
:1049B00041EC190BB0EE490AF0EE690A01F0DCF89F
:1049C000B0EE408AF0EE608A9FED200B53EC102B86
:1049D00051EC180BFBF774FE28D01B4890ED910AA0
:1049E00010EE101A0846FBF758FE41EC190B16485A
:1049F00090ED900A10EE101A0846FBF74EFE41ECBF
:104A00001A0BB0EE491AF0EE691AB0EE4A0AF0EE4F
:104A10006A0A00F0B9FFB0EE408AF0EE608A51EC0D
:104A2000180BFBF765FE0849C1F84802BDEC068B80
:104A300010BD000094010020000000000000F03FC5
:104A40000000000000A08440280A002000000000B0
:104A5000000000001CB504460123002204F10801F7
:104A6000606B00F0F1F994F82A000021CDE9001004
:104A70000B460A460421606B00F0FDF91CBD1CB515
:104A800004460323002204F12001606B00F0DCF9EE
:104A900094F82A000021CDE900100B460A460821AF
:104AA000606B00F0E8F91CBD00BF2A48FDF796FCDA
:104AB000FCF772FA284BD3F87422D3F85012D3F8CB
:104AC0004C02FEF731FF2448D0F85002E0B12348F1
:104AD0000078C8B12248006801F016FF1E48D0F8DF
:104AE0004C02022804D11F48006801F00DFF08E0C5
:104AF0001948D0F84C02012803D11B48006801F086
:104B000003FF0020154908701348D0F85002E0B99F
:104B100012480078C8B91248006801F055FE0E48E6
:104B2000D0F84C02022804D10E48006801F04CFE77
:104B300008E00948D0F84C02012803D10A4800686F
:104B400001F042FE012005490870012001F08AF9B8
:104B5000ABE70000CC040020280A00201A00002047
:104B60000C000020080000201000002010B500BF3D
:104B7000502080F31188BFF34F8FBFF36F8F00BFBA
:104B800002F0BAF918B14FF080500449086000BF34
:104B9000002080F3118800BF10BD000004ED00E08C
:104BA00000B593B0302107A8FBF7B4FB142102A88D
:104BB000FBF7B0FB00BF002001902548006840F0E3
:104BC0008050234908600846006800F0805001903A
:104BD00000BF00BF00BF002001901E48006840F4E5
:104BE00080401C4908600846006800F4804001903D
:104BF00000BF00BF092007904FF4803008900120CB
:104C00000C9002200D9041050E9104210F91A821D6
:104C10001091022111910421129107A8FDF744FE81
:104C200008B1FCF7A5FA0F200290022003900020A3
:104C300004904FF4A05005904FF480500690052149
:104C400002A8FDF7CFFC08B1FCF792FA13B000BD43
:104C500040380240007000400548006840F4700091
:104C6000034908604FF000600149803908607047CF
:104C700088ED00E010B50248FEF7AAF910BD00006B
:104C8000F808002010B50248FEF7A2F910BD000098
:104C9000D804002010B51648FEF79AF91548D0F848
:104CA0007402401C1349C1F874020846D0F84C0243
:104CB000022816D1D1F88C001721FFF71FFA0D49F1
:104CC000D1F81C010921FFF719FA0A49D1F8AC0102
:104CD0001721FFF713FA0749D1F83C020921FFF722
:104CE0000DFA0449D1F87402FFF7F8FC10BD00007A
:104CF00018050020280A002010B50268294B9842A8
:104D00000ED0B0F1804F0BD0274B984208D0274BE4
:104D1000984205D0264B984202D0264B984203D1A8
:104D200022F070024B681A431E4B984220D0B0F11B
:104D3000804F1DD01C4B98421AD01C4B984217D064
:104D40001B4B984214D01B4B984211D01A4B9842DF
:104D50000ED01A4B98420BD0194B984208D0194BE1
:104D6000984205D0184B984202D0184B984203D174
:104D700022F44072CB681A4322F080034C6943EA64
:104D8000040202608B68C3620B688362054B984221
:104D900002D0084B984201D10B69036301234361A0
:104DA00010BD000000000140000400400008004069
:104DB000000C00400004014000400140004401405C
:104DC0000048014000180040001C00400020004046
:104DD00030B50C46816821F47F4142EA0325254322
:104DE0002943816030BD0A46816821F0700142F09C
:104DF000070319438160704730B50B461446026AB9
:104E0000056A25F001050562816921F0F00141EA9A
:104E1000041122F00A021A438161026230BD30B5EA
:104E20000B461446056A25F0100505628169026A81
:104E300021F4704141EA043122F0A00242EA031257
:104E40008161026230BD704770B50446062A03DCFA
:104E5000072B01DC934200DC70BD104604E00E5CC1
:104E600004F118052E54401C9842F8DD012584F801
:104E7000205000BFF0E770B5DDE9044501614260F4
:104E80008360C460056000260675012680F82060F6
:104E900070BD70B50546AC6B0020E085E08420460F
:104EA000FEF771F970BD70B506460025B46B206839
:104EB0004069C0F3C01594F83900212805D125B107
:104EC0000020E084204600F060F820684069C0F3CC
:104ED000801594F83A00222805D125B10020E085FC
:104EE000204600F032F8E06B40F01000E06320460E
:104EF000FEF749F970BD70B50546AC6B28680068CF
:104F000000F48070B0B90020E0852068C06820F40B
:104F100080702168C8602068406920F00100216825
:104F200048612068406920F04000216848612020E5
:104F300084F83A002046FEF763FC70BD70B5044665
:104F4000A56B2846FEF75DFC70BD0168C96821F4B9
:104F500090710268D1600168496921F0010102681D
:104F60005161202180F83A10704710B5044620683E
:104F7000C06820F040002168C860202084F8390013
:104F80002046FEF73FFC002010BD0168C96821F0F3
:104F9000C0010268D160202180F83910704770B5D7
:104FA000044694F83A0022284AD1A068B0F5805F00
:104FB00013D1A56A206940B920684068C0F3080091
:104FC0002880A06A801CA06219E020684068C0B2F6
:104FD0002880A06A401CA06211E0206938B92068CE
:104FE0004068C1B2A26A501CA062117007E020683C
:104FF000406800F07F01A26A501CA0621170E08D31
:10500000401E80B2E085C8B92068C06820F020004A
:105010002168C8602068C06820F480702168C8607A
:105020002068406920F0010021684861202084F850
:105030003A002046FEF7E4FB002070BD0020FCE7AC
:105040000220FAE72DE9F84F04462068006920F4B1
:105050004050E1680843216808612169A06808435D
:1050600061690843E169084300902068C06849F21B
:105070000C618843009908432168C8602068406932
:1050800020F44070A169084321684861E069B0F5E7
:10509000004F75D1E3492068884203D0E249206877
:1050A00088426FD1FDF798FB814602206168A0FB22
:1050B00001510B461920A9FB00712A463846FBF71F
:1050C000DFF86421B0FBF1F04FEA001A02206168BA
:1050D000A0FB01510B461920A9FB00712A46384656
:1050E000FBF7CEF8074602206168A0FB01510B4692
:1050F0001920A9FB00B12A465846FBF7C1F86421E4
:10510000B0FBF1F000EBC00101EB0010A7EB800059
:10511000322101EBC0006421B0FBF1F000F0F80097
:105120000AEB400A02206168A0FB01510B461920DE
:10513000A9FB00712A463846FBF7A2F80746022071
:105140006168A0FB01510B461920A9FB00B12A465A
:105150005846FBF795F86421B0FBF1F000EBC00175
:1051600001EB0010A7EB8000322101EBC0006421AD
:10517000B0FBF1F000F007005044216888604FE177
:105180006EE0FFE7FDF718FB814602206168A0FB97
:1051900001510B461920A9FB00712A463846FBF73E
:1051A0006FF86421B0FBF1F04FEA001A0220616849
:1051B000A0FB01510B461920A9FB00712A46384675
:1051C000FBF75EF8074602206168A0FB01510B4621
:1051D0001920A9FB00B12A465846FBF751F8642173
:1051E000B0FBF1F000EBC00101EB0010A7EB800079
:1051F000322101EBC0006421B0FBF1F000F0F800B7
:105200000AEB400A02206168A0FB01510B461920FD
:10521000A9FB00712A463846FBF732F80746022000
:105220006168A0FB015003461920A9FB00B12A4682
:105230005846FBF725F86421B0FBF1F000EBC00104
:1052400001EB0010A7EB8000322101EBC0006421CC
:10525000B0FBF1F000F00700504421688860DFE007
:1052600070492068884203D06F49206888426BD11A
:10527000FDF7B2FA814604206168A0FB01510B469C
:105280001920A9FB00712A463846FAF7F9FF824631
:1052900004206168A0FB01510B461920A9FB007195
:1052A0002A463846FAF7ECFF6421B0FBF1F000EB38
:1052B000C00101EB0010AAEB8000322101EB0010CD
:1052C0006421B0FBF1F000F0F00A04206168A0FB5B
:1052D000015003461920A9FB00712A463846FAF707
:1052E000CFFF6421B0FBF1F00AEB001A04206168E3
:1052F000A0FB01510B461920A9FB00712A46384634
:10530000FAF7BEFF074604206168A0FB0150034680
:105310001920A9FB00B12A465846FAF7B1FF6421CB
:10532000B0FBF1F000EBC00101EB0010A7EB800037
:10533000322101EB00106421B0FBF1F000F00F000E
:105340005044216888606BE0FDF736FA81460420FE
:105350006168A0FB015003461920A9FB00712A4691
:105360003846FAF78DFF824604206168A0FB0150A1
:1053700003461920A9FB00712A463846FAF780FF38
:105380006421B0FBF1F000EBC00101EB0010AAEBCF
:105390008000322101EB00106421B0FBF1F000F03D
:1053A000F00A04206168A0FB015003461920A9FB04
:1053B00000712A463846FAF763FF6421B0FBF1F02A
:1053C0000AEB001A04206168A0FB01700346192053
:1053D000A9FB005001463A462846FAF751FF074616
:1053E00004206168A0FB015003461920A9FB00B10D
:1053F0002A465846FAF744FF6421B0FBF1F000EB6F
:10540000C00101EB0010A7EB8000322101EB00107E
:105410006421B0FBF1F000F00F0050442168886077
:10542000BDE8F88F0010014000140140014691F8DA
:10543000390021282CD18868B0F5805F0FD10A6A25
:105440001088C0F308000B685860086918B9086A2A
:10545000801C086209E0086A401C086205E00B6ACB
:10546000581C086218780B685860C88C401E80B2BF
:10547000C88458B90868C06820F080000B68D860FC
:105480000868C06840F040000B68D8600020704792
:105490000220FCE710B50548FDF776FE044B054AEF
:1054A0000549024800F08AF810BD000058050020A8
:1054B00049480008E00C00205806002010B50248BA
:1054C000FDF762FE10BD00009805002010B50248EF
:1054D000FDF75AFE10BD0000D805002010B50248A7
:1054E000FDF752FE10BD00001806002000BFFEE7C9
:1054F00010B50A2000F080FC2A4908600A2000F05C
:105500007BFC2849486028480068C06840F01000CB
:1055100025490968C8600020224908720A2048818C
:1055200008460A2201682048FEF708F9142000F016
:1055300063FC1E490860142000F05EFC1B494860B3
:105540001B480068C06840F0100019490968C8602D
:105550000020164908721420488108461422016868
:105560001348FEF7EBF8122000F046FC11490860E2
:10557000122000F041FC0F4948600F480068C068E5
:1055800040F010000C490968C86000200949087201
:10559000122048810846122201680748FEF7CEF81B
:1055A00010BD0000F80C002018060020D40C0020CC
:1055B00098050020E00C0020580500202DE9F84354
:1055C00006460F4614461D464FF000083068006836
:1055D000C0F30010002833D03868006820F00100C4
:1055E0003968086000BF00200090306800680090B3
:1055F00030684068009000BF00BFA07A39684968F1
:10560000401A00F0FF08207A68B1002020726289F9
:1056100030462168FEF792F86089404510D17DB18F
:105620006068A8470CE001202072628930466168FA
:10563000FEF784F86089404502D10DB12068A84783
:10564000BDE8F8830170704703B4019841000098E9
:1056500050EAC12018BF04204A0D18BF40F00100D5
:1056600040F2FF72B2EB515F08BF40F00200012828
:1056700008BF052002B0704702480068C0F302204E
:10568000704700000CED00E010B5002804DB0A07AD
:10569000130E054A135406E00A07140E034A00F0DD
:1056A0000F031B1FD45410BD00E400E018ED00E010
:1056B00070B59B482DED020B2DED068B079D25F057
:1056C0000044A04218DC9748844202DC0AD10698C4
:1056D00040B19DED060BBDEC068B02B0BDE87040FD
:1056E00000F003BB002DCCBF9FED8F0B9FED900B07
:1056F000BDEC068B02B070BD8F48A04215DD8F480F
:10570000A042D8BF4FF0FF3458DD9DED060B51ECA1
:10571000100BFFF799FF042808BF00F0FDFA9DED7C
:10572000060BBDEC068B02B070BD9DED060B51EC77
:10573000100B00F01FFBCDE9060181489FED828B25
:10574000A0423CDD8248A0421FDD00249FED82ABD9
:105750009DED060B53EC1A2B51EC100BFAF7E5FDFF
:105760009DED060B41EC190B53EC1A2B51EC100B71
:10577000FAF782FE53EC182BFAF778FE53EC192B4C
:10578000FAF7ECFECDE9060149E09DED060B012498
:1057900053EC182B51EC100BFAF7C7FD9DED060BDF
:1057A00041EC190B53EC182B51EC100BFAF75EFE81
:1057B00053EC192BFAF7D2FECDE906012FE0684829
:1057C000A0421FDD02249FED689B9DED060B53EC6C
:1057D000192B51EC100BFAF74FFE53EC182BFAF77C
:1057E000A4FD9DED060B41EC180B53EC192B51EC6D
:1057F000100BFAF73BFE53EC182BFAF7AFFECDE98E
:1058000006010CE09DED060B032453EC102B9FEDDD
:10581000580B51EC100BFAF7A1FECDE906019DEDF6
:10582000060B53EC102B51EC100BFAF725FE41EC54
:10583000180B53EC182BFAF71FFE41EC190B4E48CE
:105840000621B0EE490AF0EE690A784400F0D1F979
:1058500053EC182B51EC100BFAF70EFE41EC180B21
:105860004648B0EE490AF0EE690A0521784400F096
:10587000C0F953EC192B51EC100BFAF7FDFD41EC7C
:10588000100B51EC180B53EC102B002C0EDAFAF71E
:105890004CFD9DED061B53EC112BFAF7EDFD9DED34
:1058A000061B53EC112BFAF7E4FD35E0FAF73DFD4A
:1058B0009DED061B53EC112BFAF7DEFD41EC100BAE
:1058C0002F48784400EBC40090ED001B51EC100B06
:1058D00053EC112BFAF7CAFD9DED061B53EC112B6F
:1058E000FAF7C4FD41EC100B2648784400EBC400E5
:1058F00090ED001B51EC100B53EC112BFAF7B9FD96
:1059000041EC100B002DA2BFBDEC068B02B070BDA8
:1059100051EC100B81F0004141EC100B01E700004D
:10592000000010440000F07F182D4454FB21F93F83
:10593000182D4454FB21F9BF0000DC3F0000203E3D
:105940000000F33F00000000000000000000F03FF6
:105950000000E63F000000000000000000000040E2
:105960000080034000000000000000000000F83F3D
:10597000000000000000F0BF9A1A0000501A00005A
:10598000DA1900009219000070B56B4E2DED040B72
:105990002DED028B82B0DDF81CC0DDE905235C42F1
:1059A0002CF000411C4341EAD474049D22F00040D5
:1059B000B44205D86C422C4340EAD474B4420BD9AB
:1059C0009DED061B9DED040B02B0BDEC028B04B0F7
:1059D000BDE8704000F093B9ACF14054A4F17F648D
:1059E0001C430BD0022404EAAC7444EAD27405438D
:1059F0009FED538B9FED542B07D015E09DED040BCD
:105A000051EC100B00F0AEF942E0002C11BF012C5C
:105A10009DED040B02B0BDEC028B04BF04B070BD61
:105A2000022C38D0032C3BD00B439FED491B9FED3C
:105A30004A0B0AD0B14218D1B04209D121F08041BD
:105A400020F08040079105900FE0002A15DA10E061
:105A5000434B7B44002C08BF93ED000B0DD0012C71
:105A600010D0022C17D0032C1AD0B0421DD1002A1E
:105A700003DAB0EE410AF0EE610A02B0BDEC028B2F
:105A800004B070BD93ED000B51EC100B81F00041A0
:105A900041EC100BF1E7B0EE480AF0EE680AECE7D3
:105AA000B0EE420AF0EE620AE7E7401A00153C2821
:105AB000C8BF8DED000B19DCBCF1000FBEBF10F1AB
:105AC0003C0F9FED290B8DED000B0FDB9DED060BC1
:105AD00053EC102B9DED040B51EC100BFAF73EFD2F
