:020000040800F2
:10000000285100205D020008954E000817300008B6
:100010006D360008850D0008115F00080000000023
:100020000000000000000000000000009D0100082A
:100030001111000800000000F90100080159000832
:1000400077020008770200087702000877020008AC
:10005000770200087702000877020008770200089C
:10006000770200087702000877020008770200088C
:100070001910000877020008251000087702000810
:10008000311000083D1000087702000877020008D0
:10009000890D00087702000877020008770200083F
:1000A00077020008E159000877020008770200088B
:1000B000ED590008F9590008770200087702000896
:1000C000770200087702000877020008770200082C
:1000D00077020008A95E0008D15E0008DD5E000816
:1000E000770200087702000877020008770200080C
:1000F00077020008770200087702000877020008FC
:1001000077020008770200087702000877020008EB
:1001100077020008770200087702000877020008DB
:1001200077020008491000085510000877020008FF
:1001300077020008000000000000000077020008BD
:10014000C50D000877020008770200087702000852
:10015000770200086110000877020008055F0008B8
:10016000770200087702000877020008770200088B
:10017000770200087702000800000000000000007D
:100180007702000877020008DFF80CD000F0FAFBD5
:100190000048004765730008285100202C4B19685F
:1001A0000868B0E8F04F80F30988BFF36F8F4FF015
:1001B000000080F3118870470000000008480068C4
:1001C000006880F308884FF0000080F3148862B65E
:1001D00061B6BFF34F8FBFF36F8F00DF00BF00BF6B
:1001E00008ED00E0DFF80C00016841F470010160E7
:1001F000704700BF88ED00E0EFF30980BFF36F8F19
:10020000134B1A681EF0100F08BF20ED108A20E96A
:10021000F04F106009B44FF0500080F31188BFF325
:100220004F8FBFF36F8F07F09DFD4FF0000080F3FD
:10023000118809BC19680868B0E8F04F1EF0100F6B
:1002400008BFB0EC108A80F30988BFF36F8F704746
:1002500050020020EFF305807047000006488047F9
:1002600006480047FEE7FEE7FEE7FEE7FEE7FEE79B
:10027000FEE7FEE7FEE7FEE7C55900088901000832
:100280002DE9F05F0546002092469B4688460646CB
:10029000814640241BE0284641464746224600F05E
:1002A0006AFA53465A46C01A914110D3114618466D
:1002B000224600F051FA2D1A67EB01084F462246FC
:1002C0000120002100F048FA17EB00094E41201EE2
:1002D000A4F10104DFDC484631462A464346BDE826
:1002E000F09F40EA01039B0703D009E008C9121FF1
:1002F00008C0042AFAD203E011F8013B00F8013BE0
:10030000521EF9D27047D2B201E000F8012B491E0B
:10031000FBD270470022F6E710B513460A460446A2
:100320001946FFF7F0FF204610BD2DE9FE4F80462D
:1003300081EA0300C00F0C46009021F0004123F039
:100340000045B8EB0200A94105D24046214690463F
:100350001C460B46024623F00040104347D0270DB1
:10036000C7F30A00C3F30A510290401A01904028D3
:100370006BDAC3F3130040F4801B0098924620B15F
:100380000023D2EB030A63EB0B0B01985946C0F133
:100390004002504600F0E0F906460D4650465946E8
:1003A000019A00F0F8F910EB08006141002487EA97
:1003B000115284EAE7731A4340D0009A62B3019A5B
:1003C000012A4FEA075215DC001B61EB02014FF0D6
:1003D000004202EA0752CDE90042001C41F58011BB
:1003E00032462B4600F02FFA03B0BDE8F08F4046AE
:1003F0002146F9E7001B61EB0201001C41F5801367
:1004000000185B412018A2F5001747EB030140EAF2
:10041000D570B6196D4111E06D084FEA360645EA10
:10042000C0754FEA0752001B61EB0201001C41F549
:10043000801149084FEA30000019514132462B46DD
:1004400003B0BDE8F04F00F0EFB900980122400082
:100450000023D0EB020263EBE073009821464FEAE1
:10046000E074B8EB000061EB0401E9E783F00043BE
:100470005BE781F0004158E72DE9FE4F81EA030474
:1004800004F0004421F0004100944FF0000B23F0F1
:10049000004350EA01045ED052EA03045BD0C3F388
:1004A0000A54C1F30A552C44A4F2F3340194A0FB7E
:1004B0000254C1F3130141F48011C3F3130343F455
:1004C000801301FB024400FB034E840A970A44EAAE
:1004D000815447EA8357A4FB076802958D0A05FB00
:1004E00007854FEA932C04FB0C542705029D4FEA25
:1004F000065847EA1637B5EB08056EEB070C870E72
:10050000920E47EA811742EA8312A7FB0201B6EB7B
:100510000B0164EB00042B0D43EA0C335E1844EB33
:100520001C50DA465146E7FB0201C5F313044FEABB
:100530000B3343EA14534FEA0432019C43EA0603A7
:10054000A4F10C040294009CCDE900B400F07BF906
:1005500003B0BDE8F08F00200146F9E72DE9F04D2A
:1005600081EA030404F0004B21F0004514464FF0EB
:10057000000A23F0004150EA050220D054EA0102AB
:100580001DD0C5F30A570246C5F31303C1F3130088
:10059000C1F30A5640F4801543F48013A7EB060814
:1005A000101BD64608F2FD3873EB050002D308F1A4
:1005B000010801E092185B41B8F1000F03DA002056
:1005C0000146BDE8F08D00204FF4801106468446B8
:1005D0000EE0171B73EB050705D3121B63EB050336
:1005E00006434CEA010C49084FEA300092185B417F
:1005F00050EA0107EDD152EA030012D082EA04006A
:1006000083EA0501084305D0101BAB4106D2012245
:10061000002306E000224FF0004302E06FF00102E9
:1006200053101AEB06004CEB085110EB0A0041EB9B
:100630000B01BDE8F04D00F0F7B80EB5C10F80EA30
:10064000E0700844CA07002140F233438DE80E00F1
:100650000A460B4600F0F7F803B000BD70B5C1F3D1
:100660000A5201F000450024C1F3130140F2FF33A8
:1006700041F480119A4201DA002070BD40F2334308
:100680009A42A2F2334203DC524200F074F800E0D6
:1006900090402C43F1D0404270BD00F0004230F059
:1006A00000400AD0C10D01F56071C0F3160042EAA6
:1006B0000151C208400711437047002001467047AE
:1006C00030B5041E71F1000404DB4FF000444042D9
:1006D00064EB0101141E73F1000405DB1C464FF0AE
:1006E0000043524263EB04038B4208BF824230BD99
:1006F00030B5041E71F1000404DB4FF000444042A9
:1007000064EB0101141E73F1000405DB1C464FF07D
:100710000043524263EB0403994208BF904230BD4C
:1007200001F0004330B421F0004150EA010206D04C
:100730000A0DA2F56072C1F31301002A02DC30BC7D
:1007400000207047440F44EAC104C100E01830BCE7
:1007500000EBC25000F031B8202A04DB203A00FA46
:1007600002F1002070479140C2F1200320FA03F308
:10077000194390407047202A04DB203A21FA02F006
:100780000021704721FA02F3D040C2F120029140CB
:10079000084319467047202A06DBCB17203A41FA56
:1007A00002F043EAE07306E041FA02F3D040C2F1FE
:1007B000200291400843194670470029A8BF70479E
:1007C000401C490008BF20F00100704710B4B0FA87
:1007D00080FC00FA0CF050EA010404BF10BC704722
:1007E00049B1CCF1200421FA04F411FA0CF118BF3C
:1007F000012121430843A3EB0C01CB1D4FEA00610B
:100800004FEA102042BF002010BC704700EBC350DD
:1008100010440029A4BF10BC7047401C490008BF09
:1008200020F0010010BC704710B5141E73F10004D5
:1008300008DA401C41F1000192185B411A4301D1D2
:1008400020F0010010BD2DE9F04D92469B4611B1FC
:10085000B1FA81F202E0B0FA80F220329046FFF75E
:100860007BFF04460F4640EA0A0041EA0B0153466B
:100870005A46084313D0114653EA010019D0C8F173
:1008800040025046FFF777FF05460E465046594650
:100890004246FFF761FF084305D0012004E02046EF
:1008A0003946BDE8F08D0020054346EAE0762C434A
:1008B00037430A986305E40AA0EB08000022FD0A0A
:1008C00044EA47540A3002D500200146E9E7010511
:1008D00010196941DDE9084500196941BDE8F04D8D
:1008E000A2E72DE9F04D00231A461B1A8A4103DBCB
:1008F00000200146BDE8F08DC1F30A52C1F3130197
:1009000041F480154FF0000BD10702D100186D4162
:10091000521E0027044640F2FF11384601EB620ADE
:100920003E468046024600204FF48011FFF723FF29
:10093000C2197141BB1846EB0100B4EB030C75EB17
:10094000000C04D3E41A65EB000517460E46241983
:1009500008F101006D4180463428E3DDF91946EBCA
:100960000600091BA84103D24FF0FF32134601E0F5
:10097000002213461BEB070046EB0A51BDE8F04D81
:10098000FFF752BF064C074D06E0E06840F0010358
:1009900094E8070098471034AC42F6D3FFF7F8FB11
:1009A00080850008A08500080EB540F23341029111
:1009B0000021CDE900110A460B46FFF744FF03B0C2
:1009C00000BD70B58C1810F8015B15F0070301D15C
:1009D00010F8013B2A1106D110F8012B03E010F8A2
:1009E000016B01F8016B5B1EF9D12B0705D40023C5
:1009F000521E0DD401F8013BFAE710F8013BCB1A67
:100A0000921C03E013F8015B01F8015B521EF9D55B
:100A1000A142D8D3002070BD10B5064C012211466A
:100A2000204601F0DAFA20460122BDE810400221FA
:100A300001F0D3BA000802400A49087958B10128E8
:100A40000BD002280BD0032804D1002008710649DE
:100A5000C1F854027047012002E0022000E00320A8
:100A60000871704704000020BC0A00200849C878BB
:100A700048B1012809D0022804D10020C8700549D6
:100A8000C1F854027047012000E00220C87070478E
:100A900004000020BC0A002070B50446006800284D
:100AA00014D16068002811D0606808280FD0184D54
:100AB0006169685C90B1012815D0022819D003281B
:100AC00004D16068082801D10020A06070BD04F145
:100AD0002C00BDE87040002105F0BBBA6068012819
:100AE000F4D1032009E060680728EFD102206854A0
:100AF00070BD60680128FBD10820A0600721204656
:100B000004F014FA6069295C491C295470BD000086
:100B100022000020002280F8282042609FED0E0A6B
:100B2000026180ED070A026080ED080AC2608260FF
:100B30004B014161438501EBC103084980ED090A7E
:100B400001EB830101F12403B431C0E90D310286C8
:100B500001212C3005F07DBA000000003800002093
:100B600010B56D4C2DED068BDFED6C8AB0EE683A5A
:100B70009FED6B8AF0EE482AB0EE482A9FED699A05
:100B8000B0EE481AF0EE480AF0EE491ADFED669A28
:100B900004F11800B0EE690A04F08AFA0321204635
:100BA00002F046FF9FED61AAF0EE482AB0EE482A17
:100BB000B0EE4A3ADFED5EAAB0EE481AF0EE480A0F
:100BC000F0EE6A1AB1EE040A04F1480004F070FA7B
:100BD000B0EE683ADFED572A04F1A800B0EE482ADB
:100BE000F0EE491AB0EE481AF0EE480AB0EE690A83
:100BF000903404F05DFA0221204602F019FFB0EEB5
:100C00004A3AF0EE482AB0EE482AF0EE6A1AB0EE00
:100C1000481AF0EE480AB1EE040A04F1480004F064
:100C200047FA903C04F59C70B0EE683AF0EE482A22
:100C3000B0EE482AF0EE491AB0EE481AF0EE480A33
:100C4000B0EE690A04F5907404F032FA00212046EF
:100C500002F0EEFEB0EE4A3AF0EE482AB0EE482A34
:100C6000F0EE6A1AB0EE481AF0EE480AB1EE040A45
:100C700004F1480004F01CFA274CB0EE683A04F581
:100C8000E470F0EE482AB0EE482AF0EE491AB0EED1
:100C9000481AF0EE480AB0EE690A04F5D87404F078
:100CA00007FA0121204602F0C3FEB0EE4A3AF0EE08
:100CB000482AB0EE482AF0EE6A1AB0EE481AF0EE72
:100CC000480AB1EE040A04F1480004F0F1F9124CAC
:100CD00019480021C4F8AC01FFF71CFF1648012198
:100CE0003C30C4F83C02FFF715FF14480221C4F859
:100CF0001C01FFF70FFF114803213C30C4F88C00A2
:100D0000FFF708FF0120C4F854020020C4F858027D
:100D1000BDEC068B10BD0000BC0A00200000FA45A7
:100D20000000000000401C46CDCC4C3F00C0DA451E
:100D300000409C450000FA44CC090020440A0020F1
:100D400010B50E4A0E4B00249078197838B101285E
:100D500009D002280DD0032800D1947010BD0A29B3
:100D6000FCD1012002E00B29F8D1022090701C7008
:100D700010BD0C29FCD10320F8E70000040000207E
:100D800000020020FEE7000010B588B00B4800F01C
:100D900040FC0B4B6A461C460021084800F0AFFBA4
:100DA0000098B0F5007F05D280B2214604F074F8B7
:100DB00008B010BD214602F0A5FDF9E7BC020020F5
:100DC000200D002010B588B0074800F022FC074B2A
:100DD0006A461C460021044800F091FB2146009819
:100DE00000F0D8F808B010BDE4020020300D00205B
:100DF00010B50446406A002810D00721204600F0B4
:100E00005DFA204600F00EFE204600F04CFE204623
:100E100000F008F802480188491C018010BD00005C
:100E2000E801002010B504460F4A0E2000218AB0C8
:100E3000944201D1059100E00590099001200191B3
:100E40000291CDE906100391009104910890694642
:100E5000204600F0CDFA204600F0FAFD022120469F
:100E600000F04FFA0AB010BDBC020020174F012558
:100E700007F1240A07F148090026154C07F16C0810
:100E80009037144801F0DCF800221049124800F0B5
:100E900025F820784FF0000268B141460E4800F076
:100EA0001DF8002239460C4800F018F82670012081
:100EB00006F0C8FAE5E75146074800F00FF80022AF
:100EC0004946054800F00AF82570F0E73800002090
:100ED0000400002060050020BC02002038B5054653
:100EE0000E480C46D0F87C0291F8200001280FD162
:100EF000284600F078FB00280AD06B4604F118025F
:100F00002146284600F00FFA18B12846FFF770FF77
:100F100038BD002084F8200038BD0000BC0A002045
:100F200010B51A4804F0DEF8184802F0A0FB174884
:100F30009030044604F0D6F8204602F098FB14489E
:100F4000044604F0CFF8204602F091FB10489030A0
:100F5000044604F0C7F8204602F089FB0B4C0D2133
:100F6000D4F88C0003F0E2FF0D21D4F81C0103F04B
:100F7000DDFF0D21D4F8AC0103F0D8FFD4F83C021A
:100F8000BDE810400D2103F0D1BF0000BC0A0020D5
:100F9000DC0B0020202805D0212803D0222801D0F6
:100FA000302802D1087801490870704700020020FB
:100FB000164A10B5107D012803D104F0CBFD0020A6
:100FC00010751348D0F8540206281ED2DFE800F04E
:100FD00003070D111519BDE8104004F079BC0D4848
:100FE0004069BDE8104006F0E3BDBDE8104004F0E4
:100FF0006DBBBDE81040FFF7A3BEBDE81040FFF792
:1010000035BDBDE81040FFF717BD10BD020200203E
:10101000BC0A002004000020014800F08DBD000043
:101020000C080020014800F087BD00006C0800207B
:10103000014800F081BD00004C070020014800F08D
:101040007BBD0000AC070020014800F075BD00002A
:10105000CC080020014800F06FBD0000EC06002025
:10106000014800F069BD00002C0900200168182328
:10107000CAB2103AB2FBF3F2054B6FF30901032A2F
:101080009B5CC36500D9091D816508467047000057
:101090002083000810B5014600208B698A6A4FF052
:1010A000C07453B1B3F5005F15D072B1012A0CD0F2
:1010B000022A0AD0032A09D104E01AB1012A06D073
:1010C000022A03D1C96AC90100D5012010BDC96A2D
:1010D000A142FAD010BD002AF7D0012AF2D0022A8C
:1010E000F3D0032AF3D010BD30B50468256825F489
:1010F00080252560046863608368402B036803D003
:1011000099600068C26030BD9A600068C16030BDFF
:101110007047000010B5154C13489FED150B20606B
:1011200004F0C2FF9FED141B51EC100B53EC112B7C
:10113000FFF7A2F9FFF7F4FADFED120A01EE900AC9
:101140009FED0F3AF0EE602AB0EE602AB0EE601A22
:101150009FED0D0A201D03F0ABFF0020A0860120AB
:1011600084F8360010BD0000780D0020000E00202D
:10117000000000000000000000000000000000402F
:10118000CDCC4C3F00000000CDCCCC3D4180704721
:1011900001221103014800F020BF000000080240B6
:1011A00000218180704700001CB50446806B01233C
:1011B0000022074904F0E0FC94F82A000221CDE95E
:1011C000001000231A460821A06B04F0E7FC1CBDA8
:1011D000300000201CB50446806B01230022074923
:1011E00004F0CAFC94F82A000221CDE90010002383
:1011F0001A460821A06B04F0D1FC1CBD3000002071
:101200001CB50446806B01230022074904F0B4FC9E
:1012100094F82A000221CDE9001000231A46082183
:10122000A06B04F0BBFC1CBD300000201CB50446C4
:10123000806B01230022074904F09EFC94F82A00E9
:101240000221CDE9001000231A460421A06B04F00E
:10125000A5FC1CBD3000002010B5064C0022012169
:10126000204600F0BAFE20460122BDE810400221CF
:1012700000F0B3BE0008024010B50E484FF496715E
:101280000D4C4068B0FBF1F201FB1201C8294FF090
:1012900000024FF00101204603D900F09EFE00221B
:1012A00002E000F09AFE01222046BDE81040022133
:1012B00000F093BEF40100200008024090F82020C6
:1012C000012A07D0022A05D0416A41F480214162F7
:1012D00001207047CA0704D00268936843F0800376
:1012E00093608A0704D50268936843F400439360CF
:1012F000490704D50068816841F40001816000203D
:10130000704790F82020012A07D0022A05D0416AB0
:1013100041F48021416201207047006842690A431C
:10132000426100207047F0B590F820500468A4682E
:10133000012D05D0022D03D0416A41F4802153E0F4
:1013400014F0406F01D1E5004BD5C4F30164022CC9
:1013500003D9416A41F4000146E00125A5401D6022
:101360008B684FF4C0759BB1CE6833434E6843EA37
:10137000C603066805EB0417F3514FF4C273076800
:1013800003EB04130E69FE50097D012905D009E025
:101390000E88CB6843EA4653EBE70168CE5846F423
:1013A0008076CE501179D2F805304FF4C67641EAF6
:1013B0000323016806EB04168B511178D2F8012043
:1013C0004FF4C47341EA0221026803EB0413D150C5
:1013D000006805EB0411425842F00102425000201F
:1013E000F0BD416A41F4001141620120F0BD0000EE
:1013F00010B590F82020012A07D0022A05D0416AB2
:1014000041F480214162012010BD3B48D0F8002208
:1014100042F00102C0F80022D0F8002222F47C52EF
:10142000C0F80022D0F800224B6A42EA0322C0F83A
:1014300000220A7D02F01F0301229A40D0F81C32DC
:101440009343C0F81C32CB69B3B9D0F80C32934344
:10145000C0F80C328C894B6864F31F434C6900EB75
:10146000C404C4F840320C890B6864F31F434C6910
:1014700000EBC404C4F84432CB69012B16D1D0F878
:101480000C321343C0F80C320C884B6864F31F43D2
:101490004C6900EBC404C4F840320C89CB6864F397
:1014A0001F434C6900EBC404C4F844328B69002B21
:1014B000D0F804320ED01343C0F804320B69002B6D
:1014C000D0F8143208D01343C0F81432096A012945
:1014D00004D008E09343EFE79343F5E7D0F81C12FC
:1014E0001143C0F81C12D0F8001221F00101C0F81D
:1014F0000012002010BD000000640040704730B5AD
:1015000090F82040012C05D0022C03D0416A41F410
:1015100080215DE00468002955D02469A40754D0D7
:101520004FF4D874056804EB01142D5915F0040527
:10153000956005682D594ED0ED08556005682C5909
:1015400004F00204D4604FF4DA74056804EB01146B
:101550002D5905F00F05156105682D59C5F30725AF
:10156000956105682C59240C54614FF4DC720468B1
:1015700002EB0112A4581C700468A458240A5C7081
:101580000468A458240C9C700468A258120EDA70E7
:101590004FF4DE72046802EB0112A4581C71046857
:1015A000A458240A5C710468A458240C9C71046833
:1015B000A258120EDA71006881B1016941F0200170
:1015C0000161002030BDE468A8E7416A41F40011E0
:1015D0004162012030BD6D0D1560AFE7C16841F07B
:1015E0002001C160EDE70246002092F82010012999
:1015F00001D002290CD111688A68520100D501205E
:101600008A68120100D5401C8968C90000D5401CB9
:1016100070472DE9F05F0546006800244669D0F860
:1016200004908768D0F80CB0D0F810A0D0F81880DB
:10163000F10748D0F90714D001218160B80703D51C
:10164000284600F061FA0CE0780702D54FF40064F8
:1016500007E0380702D54FF4805402E0284600F036
:1016600052FAF80516D529684FF480708860B805DD
:1016700003D5284600F04AFA0CE0780502D544F478
:10168000005407E0380502D544F4804402E02846BF
:1016900000F03BFAF80316D529684FF480308860D3
:1016A000B80303D5284600F033FA0CE0780302D5DE
:1016B00044F4004407E0380302D544F4803402E0E7
:1016C000284600F024FA300707D55FEACB6004D53E
:1016D0002968102044F40074C86070074FF00807B0
:1016E00007D55FEA0B7004D52868C760284600F06C
:1016F000AAF9B00706D52868C068800702D0284636
:1017000000F0A2F9700607D55FEACA6004D529681F
:10171000102044F480640861B00607D55FEA0A70BF
:1017200004D528680761284600F08FF9F00606D531
:1017300028680069800702D0284600F087F9B003C6
:1017400008D55FEAC96005D5296810204860284699
:1017500000F07DF9F00307D55FEA097004D5286829
:101760004760284600F0D5F9300446D55FEA497055
:1017700040D5F00504D55FEAC87001D044F00104FB
:10178000B00504D55FEA887001D544F00204700505
:1017900004D55FEA487001D544F00404300529D52A
:1017A00018F0700F26D008F07000402815D006DC25
:1017B000102809D020280AD0302816D10AE0502855
:1017C0000ED0602811D10EE044F008040DE044F082
:1017D00010040AE044F0200407E044F0400404E070
:1017E00044F0800401E044F480742868816921F0A9
:1017F00070018161296804204860002C05D0686A66
:10180000204368622846FFF779FEBDE8F09F70B577
:10181000040003D094F8200010B104E0012070BD52
:10182000204600F081F82068016821F00201016083
:1018300000F0D8FB0546052604E000F0D3FB401B72
:101840000A2811D8206840688007F6D4206801680B
:1018500041F00101016000F0C5FB05460BE000F01E
:10186000C1FB401B0A2806D9606A40F40030606260
:1018700084F82060D2E720684068C007EFD0207E5F
:101880000128206801683DD021F080010160607E60
:1018900001282068016838D021F040010160A07E55
:1018A00001282068016833D021F020010160E07E2A
:1018B0000128206801682ED041F010010160207FCE
:1018C00001282068016829D021F008010160607FAB
:1018D00001282068016824D021F004010160D4E9C6
:1018E00002010843D4E90412114308436168491E08
:1018F00008432168C86100206062012084F820004C
:10190000002070BD41F08001C0E741F04001C5E713
:1019100041F02001CAE721F01001CFE741F00801B2
:10192000D4E741F00401D9E7F0B587B004461421AB
:101930006846FEF7EFFC3649364ADFF8D0E0086823
:10194000D4F800C0334B02240325092610320027A7
:10195000401CF44523D10860012807D1106840F0ED
:1019600000701060106800F000700590186840F07A
:10197000010018601868694600F0010005904FF4F6
:10198000C0508DE89100CDE90356234800F046FA97
:1019900000220521142000F0DFFB142031E0DFF8E5
:1019A0007CE0F4452FD1D2F800C04CF0806CC2F836
:1019B00000C0D2F800C001280CF0806CCDF814C033
:1019C000086007D1106840F000701060106800F0E7
:1019D00000700590186840F00200186018686946A9
:1019E00000F00200059060208DE89100CDE90356DB
:1019F0000B4800F013FA00220521402000F0ACFB58
:101A0000402000F09BFB07B0F0BD000000640040E8
:101A10000000002030380240000002400068004012
:101A20000004024090F820200021012A08D0022A58
:101A300006D0416A41F48021416201210846704785
:101A400000224262FAE7704770477047704770475C
:101A500070B5044690F82000012804D0606A40F474
:101A60000020606217E0022084F8200020680168EE
:101A700021F00101016000F0B5FA05460DE000F02B
:101A8000B1FA401B0A2808D9606A40F4003060624D
:101A9000052084F82000012070BD20684068C00740
:101AA000EDD1606270BD70B5044690F82000022848
:101AB00004D0606A40F48010606214E0206801681D
:101AC00041F00101016000F08DFA05460DE000F0E3
:101AD00089FA401B0A2808D9606A40F40030606225
:101AE000052084F82000012070BD20684068C007F0
:101AF000EDD02068016821F002010160012084F826
:101B00002000002070BD70477047704770477047D5
:101B10007047704790F83510022903D08021416545
:101B200001207047052180F835100068016821F018
:101B300001010160002070472DE9F84304464FF091
:101B40000009CDF8009063484FF41651A56D006868
:101B5000B0FBF1F72E6894F85C20082101FA02F03E
:101B600030420FD02068026852070BD5026822F07D
:101B70000402026094F85C008140A960606D40F04E
:101B80000100606594F85C104FF0010808FA01F05C
:101B9000304208D021684969090604D5A860606D03
:101BA00040F00200606594F85C10042088403042E8
:101BB00008D021680968890704D5A860606D40F0E5
:101BC0000400606594F85C1010208840304218D002
:101BD00021680968090714D5A860206801684903CD
:101BE00004D50068000308D5A16C07E00168C905A9
:101BF00003D4016821F008010160216C09B120467D
:101C0000884794F85C1020208840304231D0216809
:101C10000968C9062DD5A86094F835000528206804
:101C2000016806D0490347D5006800031DD4616CE4
:101C30001CE021F0160101602068416921F080015B
:101C40004161206C08B9A06C20B12068016821F0C6
:101C50000801016094F85C103F208840A86084F877
:101C6000349084F83580216D1FE0E16B09B1204686
:101C70008847606D00282BD0606DC00714D0052008
:101C800084F835002068016821F0010101600098A6
:101C9000401C0090B84203D820680068C007F6D105
:101CA00084F8349084F83580E16C002910D001B0BC
:101CB0002046BDE8F04308470168C905D5D401684E
:101CC00021F01001016084F8349084F83580CCE76D
:101CD000BDE8F8834C0200202DE9F041044600F0F5
:101CE00081F905465CB1002684F83460022084F84E
:101CF00035002068016821F0010101600DE001203C
:101D0000BDE8F08100F06EF9401B052805D92020C0
:101D10006065032084F83500F2E720680068C0079A
:101D2000F0D121680A6820480240D4E90103184331
:101D3000D4E903352B43184363691843A369184357
:101D4000E3691843236A18431043626A042A03D1E3
:101D5000D4E90B231A431043086020684069656A80
:101D600020F0070128460D43012704280CD1A06A62
:101D70000543E06A40B12046FFF78CF920B14020CE
:101D8000606584F83570BAE7206845612046FFF742
:101D90006DF994F85C203F2191408160666584F87C
:101DA00035700020ACE700003F8010F02DE9F041D5
:101DB0000446866D90F83400002501280DD00120DE
:101DC00084F8340094F835700020012F07D084F88F
:101DD000340002252846BDE8F0810220FBE70227F7
:101DE00084F8357060652046FFF77EF994F85C1042
:101DF0003F208840B0602068016841F01601016012
:101E0000206C20B12068016841F008010160206861
:101E1000016841F001010160DCE700002DE9F84FA5
:101E2000DFF880B100224FF003094FF00F0A0BF1E9
:101E3000040E01250B6895402B40AB4272D14C68D3
:101E4000012C05D0022C03D0112C01D0122C10D162
:101E50008668540009FA04F7BE43CF68A7403743A9
:101E6000876046680C79AE43C4F300149440344351
:101E70004460C468570009FA07F58E68AC43BE4059
:101E80002643C6604C68022C01D0122C12D1D40813
:101E900000EB840CDCF820605407E40E0AFA04F826
:101EA00026EA0806D1F8108008FA04F848EA06087D
:101EB000CCF820800468AC430D7905F00305BD40E3
:101EC000254305604C68E40065D5374C256845F42A
:101ED00080452560246822F0030504F480440094C2
:101EE000324C2E19D6F808789407250F0AFA05F413
:101EF000A7432F4CA04201D1002424E02D4CA04246
:101F000001D101241FE02C4CA04201D102241AE08F
:101F10002A4CA04201D1032415E0294CA04202D151
:101F2000042410E037E0274CA04201D105240AE048
:101F3000254CA04201D1062405E0244CA04201D149
:101F4000072400E00824AC403C43C6F80848DBF80E
:101F500000405D464E689C43F60300D51C432C6050
:101F6000DEF8004075464E689C43B60300D51C431E
:101F70002C600C4D08352C684E689C43F60200D549
:101F80001C432C60074D0C352C684E689C43B602F0
:101F900000D51C432C60521C102AFFF44AAFBDE848
:101FA000F88F0000003C01404438024000300140FE
:101FB000000002400004024000080240000C024001
:101FC000001002400014024000180240001C0240B1
:101FD0000069084000D0012070470AB18161704754
:101FE0000904FBE7014880687047000040020020B8
:101FF00070B5040011D021684CF6CC40086021680F
:1020000045F255500860D4E9000141602168A0689C
:102010008860FFF7E7FF054608E0012070BDFFF785
:10202000E1FF401B302801D9032070BD2068C06843
:102030000028F4D121684AF6AA200860002070BD6B
:1020400000684AF6AA2101600020704702488168B2
:102050000278114481607047400200200B4810B59F
:10206000016841F400710160016841F48061016020
:10207000016841F480710160032000F08DF80020B8
:1020800000F006F800F03EF8002010BD003C0240D1
:1020900010B5014688B00022192000F05DF8192023
:1020A00000F04CF813480024016841F00101016080
:1020B000006805A900F001000690684600F018F9D4
:1020C00000F046F90C494000B0FBF1F10C480B4A16
:1020D000491E026040F2E732C0E90324C0E901145E
:1020E00000F064FB10B1012008B010BD044800F0FE
:1020F000A9FBF9E74438024040420F0000000140CC
:102100008C0900200C4882B0016841F480410160D4
:10211000006800F4804000900748001F016841F00B
:10212000805101600068002200F0805000900F2173
:10213000901E02B000F010B844380240002809DBBD
:1021400000F01F02012191404009800000F1E020D1
:10215000C0F8001170470000F0B40E4B1B68C3F3C9
:102160000223C3F10704042C00D904241D1D072DEC
:1021700001D2002300E0DB1E012606FA04F56D1EE5
:102180000D409D409E40761E164045EA0601F0BC7B
:1021900003F079BF0CED00E0064A00F0070110687B
:1021A0004FF6FF03184040EA01200349084310603E
:1021B000704700000CED00E00000FA052DE9F04743
:1021C0000D46040065D0DFF81491D9F80000EFB295
:1021D00000F00F00A84207D289F80070D9F800007B
:1021E00000F00F00A84254D120683D4E810712D55F
:1021F000400703D5306840F4E05030602078000795
:1022000003D5306840F4604030603068A16820F049
:10221000F000084330602078C0072DD03049606856
:102220000839012812D0022813D0032811D00968D8
:10223000890700292DDA316821F00301014331605B
:10224000FFF7D0FE804641F2883A0EE00968890324
:10225000EFE709688901ECE7FFF7C4FEA0EB08018E
:10226000514502D90320BDE8F0873068616800F06D
:102270000C00B0EB810FEFD1D9F80010484601F007
:102280000F01A94207D90770006800F00F00A842AB
:1022900001D00120E7E72078400705D53068E168E4
:1022A00020F4E050084330602078000706D53068FD
:1022B000216920F4604040EAC100306000F058F825
:1022C0003168084AC1F30311515CC84006490860EF
:1022D00006480068FFF7DCFE0020C4E7003C02402F
:1022E00008380240288300084C02002044020020E5
:1022F0000F2202600C4A136803F003034360136863
:1023000003F0F0038360136803F4E053C3601268C2
:102310004FF4E05303EAD20202610448006800F07F
:102320000F0008607047000008380240003C02407F
:102330000448054900680968044AC1F38221515CD8
:10234000C84070474C02002008380240388300081B
:102350000448054900680968044AC1F34231515CE8
:10236000C84070474C0200200838024038830008FB
:10237000154810B5006810F00C01144813D0431034
:1023800004290FD008290ED10F4C241F216801F019
:102390003F022168490207D52068C0F38810A0FBDE
:1023A000030106E0184610BD2168C1F38811A1FBA6
:1023B00000010023FDF764FF2168C1F30141491CBE
:1023C0004900B0FBF1F010BD083802400024F400D1
:1023D0002DE9F84F040075D02078DFF828A3C00756
:1023E000AAF1040548D00AF104000168C1F3810193
:1023F000012908D00068C0F3810002280AD1DAF868
:102400000000400206D52868800335D560680028A2
:10241000E1D031E06068B0F5803F10D0B0F5A02F7A
:10242000286810D020F480302860286820F48020AC
:1024300028606068A0B1FFF7D5FD06460CE028686B
:1024400040F48030F4E740F480202860F7E7FFF79D
:10245000C9FD801B642871D828688003F7D50BE07C
:10246000FFF7C0FD064604E0FFF7BCFD801B6428B3
:10247000F1D828688003F7D42078DFF88C928007A1
:102480004FF0000B3DD59F48001D016811F00C0F67
:1024900008D00068C0F3810002280AD1DAF80000F1
:1024A000400206D42868800715D5E068012809D1C4
:1024B00011E0E068B8B10121C9F80010FFF792FD02
:1024C000064605E01AE1FFF78DFD801B0228C2D801
:1024D00028688007F7D52868216920F0F80040EACD
:1024E000C10028600DE0C9F800B0FFF77BFD06468B
:1024F00004E0FFF777FD801B02281FD828688007BB
:10250000F7D42078000722D57E4F80486169703764
:1025100071B101210160FFF765FD064604E0FFF798
:1025200061FD801B022809D838688007F7D50EE0C6
:10253000C0F800B0FFF756FD064605E082E0FFF761
:1025400051FD801B02287DD838688007F7D4207899
:10255000400765D56B484FF000083C300068C0006C
:102560000BD468483C30016841F08051016000683C
:102570004FF0010800F080500090654F3868C005AA
:102580000FD4386840F480703860FFF72BFD0646A2
:1025900004E0FFF727FD801B022853D83868C005E8
:1025A000F7D5584FA0686C3701280FD00528386838
:1025B00010D020F001003860386820F00400386046
:1025C000A068B0B1FFF70EFD06460EE0386840F097
:1025D0000100F4E740F004003860F7E7FFF702FD80
:1025E000811B41F28830814263D838688007F5D575
:1025F0000DE0FFF7F7FC064606E0FFF7F3FC811B52
:1026000041F28830814254D838688007F5D4B8F157
:10261000000F05D03B483C30016821F0805101603B
:10262000A069B8B33749091D0968C1F381010229BE
:1026300046D00228584606D0C9F86000FFF7D2FC01
:10264000044639E035E04F46C9F86000FFF7CAFCA0
:10265000064604E0FFF7C6FC801B022829D828683C
:102660008001F7D4D4E907010843A16A294A49083F
:1026700002EB0141626A41EA8211084394F82C108E
:1026800040EA0161CAF8001001203866FFF7AAFC91
:10269000044605E034E0FFF7A5FC001B022808D83B
:1026A00028688001F7D52BE0FFF79CFC001B02286F
:1026B00002D90320BDE8F88F28688001F4D41FE018
:1026C0000128F7D0DAF80000E26900F480019142B5
:1026D00014D1226A00F03F0191420FD147F6C07138
:1026E000626A0140914209D1A26A00F440319142EC
:1026F00004D1E16A00F07060884201D00120D9E77E
:102700000020D7E70438024000004742800E4742CD
:10271000007000400000FFFF7047704770B590F8F0
:102720003C20012A32D0012580F83C50022280F85A
:102730003D2002685368946823F070060B683343A9
:102740005360134B02689A4214D0B2F1804F11D0FB
:10275000104B9A420ED0104B9A420BD00F4B9A421C
:1027600008D00F4B9A4205D00E4B9A4202D00E4B26
:102770009A4204D1496824F080031943916080F89B
:102780003D50002180F83C10084670BD022070BD0D
:10279000000001400004004000080040000C004020
:1027A00000040140004001400018004010B5040042
:1027B00003D094F83D0010B107E0012010BD0020C7
:1027C00084F83C00204600F00DF8022084F83D001B
:1027D000211D206803F024F9012084F83D00002029
:1027E00010BD000008B500681449B0F1804F14D046
:1027F000134A904220D1086840F00200086008683F
:10280000002200F00200009005211D20FFF7A4FC2B
:102810001D20BDE80840FFF791BC086840F00100AA
:1028200008600868002200F00100009005211C20CB
:10283000FFF792FC1C20ECE708BD00004038024086
:10284000000400400168CA6842F00102CA600068E2
:10285000816801F00701062903D0016841F00101F8
:1028600001600020704770B5044690F83C000128D4
:1028700017D0012584F83C50022084F83D002068E0
:10288000826822F0770222F47F4282600868502832
:1028900030D00DDC20284DD005DC98B310283BD17A
:1028A00048E0022070BD302844D0402834D139E0BF
:1028B000602828D0702806D0B0F5805F2CD0B0F505
:1028C000005F29D10AE0CB68D1E90121206803F03B
:1028D0000BF92068816841F0770109E0CB68D1E904
:1028E0000121206803F000F92068816841F48041EB
:1028F000816011E0CA684968206803F007F9502137
:10290000206807E016E0CA684968206803F00FF9FC
:102910006021206803F0F2F884F83D50002084F82C
:102920003C0070BDCA684968206803F0EFF8402198
:102930002068EFE7226801461046EBE7704770B564
:102940000446006801694FF00005C943890715D4A2
:10295000C168C943890711D4E91E016101202077AC
:10296000206880698007204602D0FFF7E7FF04E077
:1029700000F098F8204600F096F825772068016965
:10298000C943490717D4C168C943490713D46FF035
:1029900004010161022020772068806910F4407FE3
:1029A000204602D0FFF7CAFF04E000F07BF8204683
:1029B00000F079F8257720680169C943090716D422
:1029C000C168C943090712D46FF0080101610420EE
:1029D00020772068C0698007204602D0FFF7AEFF4D
:1029E00004E000F05FF8204600F05DF825772068ED
:1029F0000169C943C90617D4C168C943C90613D4BC
:102A00006FF010010161082020772068C06910F480
:102A1000407F204602D0FFF791FF04E000F042F82B
:102A2000204600F040F8257720680169C943C907AE
:102A300008D1C168C943C90704D1891E0161204674
:102A400000F032F820680169C943090609D4C16859
:102A5000C943090605D46FF0800101612046FFF7E4
:102A60005BFE20680169C943490609D4C168C943AE
:102A7000490605D46FF040010161204600F01EF8C0
:102A800020680169C94389060BD4C168C943890616
:102A900007D46FF0200101612046BDE87040FFF7C8
:102AA0003CBE70BD7047704700680349884201D141
:102AB000FFF7CCBA70470000000001407047704734
:102AC00070B5026804461068D168536910F00F0FA2
:102AD00052D003F0010501F490762E435FD0C20777
:102AE00005D0CA0503D5E26B42F00102E26342075A
:102AF00005D5DA0703D0E26B42F00202E2638207F7
:102B000005D5DA0703D0E26B42F00402E263020764
:102B100007D501F020022A4303D0E26B42F00802FD
:102B2000E263E26B002A33D0800604D5880602D522
:102B3000204603F0A8F820684069E16BC0F38010DC
:102B4000090700D428B3204603F086F820684169BD
:102B500049061AD5416921F040014161606BA0B17D
:102B60001B490165606BFEF7D5FF002810D0606B34
:102B7000016DBDE870400847830610D58B060ED561
:102B80002046BDE8704003F07EB82046FFF797FF6F
:102B900070BD2046FFF793FF0020E06370BD030681
:102BA00006D50B0604D52046BDE8704003F04AB9AF
:102BB0004006F3D54806F1D5D168204621F0400102
:102BC000D160202184F8391000F024FA70BD000093
:102BD000B95B000870B5040004D094F839000025F2
:102BE00010B106E0012070BD84F83850204600F096
:102BF00023F8242084F839002068C16821F40051AA
:102C0000C160204603F08AF82068016921F49041F0
:102C100001612068416921F02A0141612068C16891
:102C200041F40051C160E563202084F8390084F844
:102C30003A00002070BD00002DE9F04F87B0044637
:102C400014216846FDF766FBC048DFF8FC821438A3
:102C50000221D4F800C0DFF8F4A203220723DFF832
:102C6000F0E28F0600250615C44542D1DAF800804F
:102C700048F01008CAF80080DAF800C00CF0100C18
:102C8000CDF814C0D0F800C04CF0010CC0F800C062
:102C9000006800F00100059050028DE823006946AD
:102CA0007046CDE90323FFF7B9F8DFF8AC82A949F4
:102CB0004046C8F80010C0E90175C0E90356C8F8DD
:102CC0001450C8F81850C8F81C50C8F82050C8F85C
:102CD0002450FFF701F808B1FEF75AFAC4F834801F
:102CE000002205212520C8F83840FFF735FA2520B5
:102CF0006BE0DFF86882DFF854B24FF04009ABF1C7
:102D0000040BC44566D1DBF8008048F40038CBF8EA
:102D10000080DBF800C00CF4003CCDF814C0D0F803
:102D200000C04CF0010CC0F800C0006800F00100C9
:102D300005900C208DE8230069467046CDE90323F9
:102D4000FFF76CF8DFF81082854908F1600840460B
:102D5000C8F80010C0E90175C0E90356C8F814505E
:102D6000C8F81850C8F81C50C8F82050C8F82450AB
:102D7000FEF7B2FF08B1FEF70BFAC4F83480C8F8CA
:102D80003840DFF8D481764908F1C0084046183150
:102D9000C0E90356C8F81450C8F81850C8F81C50B9
:102DA000C8F8205088E88202C8F82450FEF794FF43
:102DB00008B1FEF7EDF9C4F8308000220521262085
:102DC000C8F83840FFF7C8F92620FFF7B7F907B071
:102DD000BDE8F08FDFF88C81DFF88CE1C4455FD16E
:102DE000DBF80080AA4648F48028CBF80080DBF8A6
:102DF00000C00CF4802CCDF814C0D0F800C04CF00A
:102E0000040CC0F800C0006800F0040005904FF406
:102E100040608DE8230069467046CDE90323FEF744
:102E2000FDFF4F49DFF8448160394046C8F8001083
:102E3000C0E90175C0E90356C8F81450C8F8185025
:102E4000C8F81C50C8F82050C8F82450FEF744FFBA
:102E500008B1FEF79DF9454D4148C4F8348060350E
:102E60003038C8F8384085E88102C5E903A6C5F8BE
:102E700014A0C5F818A0C5F81CA0C5F820A02846C5
:102E8000C5F824A0FEF728FF08B1FEF781F92563F5
:102E9000002205212720AC63FFF75EF9272094E785
:102EA000334B9C4593D1DAF8007047F02007CAF8FD
:102EB0000070DAF8003003F020030593036843F054
:102EC00004030360006800F004000590C0208DE852
:102ED00023000820CDE9032069467046FEF79EFFD7
:102EE000224F1C48C037183838604FF02068C7E9B7
:102EF0000185C7E903567D61BD61FD613D623846CC
:102F00007D62FEF7E9FE08B1FEF742F96763BC6334
:102F1000184F1048C7E903567D61BD61FD613D62F0
:102F200060307D6287E801033846FEF7D5FE08B1C0
:102F3000FEF72EF92763002205214720BC63FFF727
:102F40000BF9472041E700000010014044380240DF
:102F50000000024040640240EC06002000440040B3
:102F60008860024000480040000802400C08002031
:102F7000001401402C09002037B5044690F83A00AF
:102F800082B0134620283AD1039AAAB3A3B394F887
:102F90003800012833D0012084F83800A262A385CC
:102FA0000025E563222084F83A00616B1548C86368
:102FB000616B15480864616B1448C864606B0565F3
:102FC0002168606B091DFEF7F1FE20680168416809
:102FD000009184F83850C16841F48071C160206864
:102FE000416941F0010141612068416941F04001BE
:102FF0004161002005B030BDFFE70120FAE7022063
:10300000F8E70000135C00084F5C0008C95B00088B
:10301000704770477047FEE710B504462DED028BF0
:103020008079D02825D19FED140B03F03DF89FED5A
:10303000141B51EC100B53EC112BFDF71DFA41EC56
:10304000180BB4F80B0000B2FDF7F7FA9FED0E1B5A
:1030500053EC112BFDF782FA9FED0D1B53EC112B56
:10306000FDF77CFA53EC182BFDF706FA0A4AC2E981
:103070000201BDEC028B10BD00000000000000004A
:10308000000000000000004000000000000024409C
:103090000000000000806640780D0020274C284882
:1030A000FEF7CEFFD4F88C0090F82C10D1B9D4F8EC
:1030B0001C1191F82C10A9B9D4F8AC1191F82C106E
:1030C00081B9D4F83C1291F82C1059B994F88210B7
:1030D00041B994F8121129B994F8A21111B994F8D0
:1030E0003212F9B1FDF7D8FCD4F81C01FDF7D4FC7D
:1030F000D4F8AC01FDF7D0FCD4F83C02FDF7CCFCD1
:103100000E4802F093F90D48903002F08FF90D4807
:1031100002F08CF90B48903002F088F9012004F09D
:1031200091F9BCE7084DE86804F042FD686904F0D5
:10313000B3FD0220C4F85402F0E70000BC0A0020EE
:1031400060050020DC0B00200400002070B5034661
:103150001C48D0E9011202F54872914203D3816004
:103160000278521C027090F90020174C082A18DAD5
:103170004FF0010505FA02F51D4206D0826802F5FE
:103180001672914201D201220DE0806800F516709E
:10319000814207D2002201212046FEF71EFF0122B4
:1031A00006E00BD1002201212046FEF716FF002287
:1031B0002046BDE870400221FEF70FBF00210170DC
:1031C00070BD0000F401002000080240084B5A6066
:1031D00011B188B2FFF7BABF28B1012805D0022883
:1031E00005D1FEF739B8FDF717BCFEF745B87047B3
:1031F000F4010020104810B50E4901600321416020
:1032000000214FF4C0228160C0E903124FF4A002F4
:1032100042610176417681760122C276017741775B
:10322000FEF7F5FA002803D0BDE81040FDF7B0BF67
:1032300010BD000000640040BC0200200F4810B523
:103240000D4901600321416000214FF4C0228160DB
:10325000C0E903124FF4A002426101764176817603
:10326000C17601774177FEF7D2FA002803D0BDE896
:103270001040FDF78DBF10BD00680040E402002043
:10328000254808B5016841F400110160016801F4A6
:1032900000110091016841F4800101600068002282
:1032A00000F48000009005210C20FEF755FF0C2053
:1032B000FEF744FF002205210E20FEF74DFF0E20F1
:1032C000FEF73CFF002205211020FEF745FF1020ED
:1032D000FEF734FF002205211120FEF73DFF1120EB
:1032E000FEF72CFF002205213920FEF735FF39209B
:1032F000FEF724FF002205213A20FEF72DFF3A2099
:10330000FEF71CFF002205214520FEF725FFBDE842
:1033100008404520FEF712BF3038024010B5204863
:10332000A0B01CAC0FC884E80F0000211CA804F05A
:1033300095F81C4C1A491C22A06110316846FCF714
:10334000D0FF0021684604F09CF81549A0601C22BB
:103350002C3107A8FCF7C5FF002107A804F091F85D
:103360000F49E0601C2248310EA8FCF7BAFF00218B
:103370000EA804F086F80A4920611C22643115A8C1
:10338000FCF7AFFF002115A804F07BF86061E0684E
:1033900004F082FC606904F07FFC20B010BD0000E6
:1033A000A08200080400002070B586B01421684691
:1033B000FCF7B0FF2E480024016841F08001016055
:1033C000016801F080010591016841F0040101608C
:1033D000016801F004010591016841F001010160FB
:1033E000016801F001010591016841F002010160ED
:1033F0000068204E00F002000590002241F2030117
:103400003046FEF7EAFD032000900125CDE9015486
:10341000694630460394FEF701FD18208DE831001F
:1034200069463046FEF7FAFCC0208DE83100694657
:103430001148FEF7F3FCE802CDE9000469460F48A5
:103440000294FEF7EBFC4FF440708DE831006946C2
:103450003046FEF7E3FC2803CDE900050220CDE964
:10346000020469463046FEF7D9FC06B070BD000084
:1034700030380240000802400000024000040240D0
:10348000094810B5074901600021416040F6FF710D
:103490008160FEF7ADFD002803D0BDE81040FDF7C8
:1034A00077BE10BD003000406005002010B586B02A
:1034B00000241748009401940294039404944FF05C
:1034C0008041059401605321C0E9011440F2F311D9
:1034D000C0E9031480218161FFF768F908B1FDF7A5
:1034E00057FE4FF48050009069460948FFF7BBF93A
:1034F00008B1FDF74DFE049404A905480594FFF7B3
:103500000DF9002801D0FDF743FE06B010BD000004
:103510006C05002010B586B0002417480094019473
:103520000294039404941349059401605321C0E963
:10353000011440F2E731C0E9031480218161FFF7F3
:1035400035F908B1FDF724FE4FF48050009069462C
:103550000948FFF788F908B1FDF71AFE049404A999
:1035600005480594FFF7DAF8002801D0FDF710FEB2
:1035700006B010BD00040040AC0500200E4810B598
:103580000C4901600D4941604FF480518160002178
:103590004FF48062C0E903120422C0E90521C16131
:1035A000FFF718FB002803D0BDE81040FDF7F0BD81
:1035B00010BD000000100140EC050020A0860100B5
:1035C0000C4810B50A4901604FF4E1314160002117
:1035D00081600C22C160C0E904128161C161FFF702
:1035E000F9FA002803D0BDE81040FDF7D1BD10BDA9
:1035F000004400402C0600200C4810B50A49016028
:103600004FF4E1314160002181600C22C160C0E9CA
:1036100004128161C161FFF7DDFA002803D0BDE823
:103620001040FDF7B5BD10BD004800406C060020FD
:103630000D4810B50B4901604FF4E13141600021A4
:103640004FF480628160C0E903120C22C0E90521B9
:10365000C161FFF7BFFA002803D0BDE81040FDF7B5
:1036600097BD10BD00140140AC060020FEE710B568
:1036700090ED1C0A90F880301824BDEEC00AD0F8F6
:10368000882004EB430310EE101A19240912D154B8
:1036900090ED1C0A90F88030D0F88820BDEEC00A6A
:1036A00004EB430310EE101AD154D0F88800012126
:1036B00080F8201010BD000070B504462DED0A8B77
:1036C000B0EE408AF0EE608AD0F88C5080682035E9
:1036D0000646FCF7B2FF0B4643EC1C0B02469FED7F
:1036E00083BB002E01DBA0680AE043EC102B53ECF7
:1036F0001B2B51EC100BFCF718FEFCF7AFFFA06082
:10370000A0F5EA219FED7BAB9FED7C9BB1F56A2F85
:1037100062D8FCF792FF53EC1A2BFCF7A7FE53EC90
:10372000182BFCF7CDFF1CD8A068FCF786FF53ECE4
:103730001A2BFCF7FAFD53EC182BFCF7D9FF10D825
:103740006068FCF77AFF41EC190BA068FCF775FF85
:1037500053EC182BFCF78DFE41EC100B53EC192B9E
:10376000B5E0A068FCF769FF53EC182BFCF7C0FF2D
:1037700014D86068FCF761FF41EC1A0BA068FCF7F5
:103780005CFF53EC182BFCF774FE53EC1A2BFCF780
:10379000CCFD53EC192BFCF7C8FD13E06068FCF777
:1037A0004CFF41EC1A0BA068FCF747FF53EC182BB9
:1037B000FCF75FFE53EC1A2BFCF7B7FD53EC192B0B
:1037C000FCF754FEFCF7ACFFA06795ED000AB1EEE4
:1037D000400A85ED000A81E0B0F5EA2F37DCFCF7FE
:1037E0002CFF53EC1A2BFCF7A0FD53EC182BFCF725
:1037F00067FF0FD8A068FCF720FF53EC1A2BFCF7EB
:1038000094FD53EC192BFCF790FD53EC182BFCF7AF
:103810006FFFC3D9A068FCF710FF53EC1A2BFCF71D
:1038200084FD53EC182BFCF763FF89D36068FCF729
:1038300004FF41EC1A0BA068FCF7FFFE41EC190BEA
:1038400053EC1B2B51EC180BFCF710FE37E0FCF788
:10385000F4FE53EC1A2BFCF709FE53EC182BFCF783
:1038600047FF10D8A068FCF7E8FE53EC1A2BFCF7D2
:10387000FDFD53EC192BFCF7F9FD53EC182BFCF76D
:103880001FFF7FF676AFA068FCF7D7FE53EC1A2B2C
:10389000FCF7ECFD53EC182BFCF712FFC5D3606866
:1038A000FCF7CBFE41EC1A0BA068FCF7C6FE41EC1E
:1038B000190B53EC1B2B51EC180BFCF736FD53EC9A
:1038C000192BFCF7D3FD53EC1A2B41EC100B51ECE8
:1038D000100BFCF72AFDFCF723FFA06751EC1C0B33
:1038E000FCF7BCFEA060BDEC0A8B70BD00000000C0
:1038F00000403D410000000000401D41000000006C
:1039000000402D4110B5A0F5007001380AD0012803
:103910000AD0022803D0032813D10A4C06E0094C30
:10392000903403E0084C01E0074C9034002C08D0A0
:10393000204600F00BF804F18200BDE81040FDF7CE
:103940002FBC10BDBC0A0020DC0B002070B5044663
:103950002DED028B08889FED308B42BA628048883B
:1039600040BA00B22080898849BA618288B1A08AB1
:103970006168101A00B20144616010F5805F02DADC
:1039800001F5005104E0B0F5805F02DDA1F50051C2
:103990006160A2826068FCF750FE0E4646EC100B98
:1039A0009FED1F1B054653EC112B51EC100BFCF740
:1039B000D5FDFCF753FEE060FCF73FFE53EC182BFF
:1039C000FCF75AFD41EC110B46EC105B53EC112B4C
:1039D00051EC100BFCF774FEE06801D8401EE0606B
:1039E000FCF72BFE53EC182BFCF746FD9FED0E1B4E
:1039F00053EC112BFCF740FD41EC180B6068FCF711
:103A00001CFE53EC182BFCF731FDFCF727FEA060E1
:103A1000BDEC028B70BD00000000000000406D4056
:103A20000000000000403D41000000000000C040D8
:103A300010B500F8801F074981600021C180801CFB
:103A40000121044602F005FB2046BDE8104000219C
:103A5000FDF79CBB380000202DED048B124C134861
:103A6000FEF7EEFAD4F84C02FCF717FE41EC190B06
:103A7000D4F84402FCF711FE41EC180BD4F84002D4
:103A8000FCF70BFE41EC100BB0EE492AF0EE692A70
:103A9000B0EE481AF0EE681A00F00AF8FDF740FAA6
:103AA000012003F0CFFCDAE7BC0A0020600500200B
:103AB0002DE9F04F2DED108B85B0B0EE428AF0EE7F
:103AC000628AB0EE41EAF0EE61EAB0EE40FAF0EE62
:103AD00060FAFA4F9FEDFAAB9FEDFBCBFC4DA7F1DF
:103AE00020089FEDFCDB9FEDFD9BFE4CA7F14006FF
:103AF00053EC1E2B51EC1E0BFCF7BEFC41EC1B0BD8
:103B000053EC1F2B51EC1F0BFCF7B6FC53EC1B2B9B
:103B1000FCF70BFC41EC100B02F09EFF85ED020B55
:103B2000D4F84802FCF7B9FD41EC100B85ED000B11
:103B300002F0CAFE85ED060B95ED000B02F028FFA2
:103B400085ED080B386853EC1D2B90ED020B51EC02
:103B5000100BFCF7B5FD19D2B0EE4D0AF0EE6D0A70
:103B600002F0A2FA53EC1A2B51EC100BFCF784FC78
:103B700053EC1A2BFCF780FCDFF86C9399ED021BD9
:103B800053EC112BFCF7D1FBC9E9020153EC1D2BBF
:103B900051EC180BFCF794FD03D197F8360001287F
:103BA0007ED053EC1D2B51EC180BFCF789FD03D193
:103BB00097F83600002874D0B0EE4D0AF0EE6D0A8A
:103BC00053EC102B51EC180BFCF77AFD02D00120BE
:103BD00087F83600B0EE4DBAF0EE6DBA53EC1B2B01
:103BE00051EC180BFCF76CFD7DD153EC1B2B51EC09
:103BF0001F0BFCF765FD0AD1B0EE4B0AF0EE6B0A25
:103C000053EC102B51EC1E0BFCF75AFD6BD0B0EEB1
:103C10004BDAF0EE6BDAB0EE4D0AF0EE6D0A02F020
:103C200043FA53EC1A2B51EC100BFCF725FC53EC28
:103C30001A2BFCF721FC41EC100B53EC102B95EDEB
:103C4000000B51EC100BFCF789FC53EC192BFCF723
:103C500013FC94F88020B0EE4D0A06EBC202F0EEA1
:103C60006D0AC2E9000102F01FFA53EC1A2B51EC65
:103C7000100BFCF701FC53EC1A2BFCF7FDFB41EC9D
:103C8000100B53EC102B95ED000B51EC100BFCF7C7
:103C900065FC53EC192BFCF7EFFB94F8102101E0C5
:103CA000EEE0F7E006EBC202B0EE4D0AC2E9000119
:103CB000F0EE6D0A02F0F8F953EC1A2B51EC100BF0
:103CC000FCF7DAFB53EC1A2BFCF7D6FB41EC100B9C
:103CD00053EC102B95ED000B51EC100BFCF73EFC58
:103CE00053EC192B00E0F7E1FCF7C6FB94F8A02198
:103CF000B0EE4D0A06EBC202F0EE6D0AC2E9000119
:103D000002F0D2F953EC1A2B51EC100BFCF7B4FB78
:103D100053EC1A2BFCF7B0FB41EC100B53EC102BBF
:103D200095ED000B51EC100BFCF718FC53EC192B24
:103D3000FCF7A2FB94F83022B0EE4D0A06EBC2026B
:103D4000F0EE6D0AC2E9000102F0AEF953EC1A2B55
:103D500051EC100BFCF790FB53EC1A2BFCF78CFB8F
:103D60009FED628B53EC182BFCF786FB41EC1E0B8E
:103D70009FED60CB95ED020B53EC1C2B51EC100B1F
:103D8000FCF77AFB53EC1E2BFCF7E8FB94F8802041
:103D9000474608EBC202B0EE4D0AC2E90001F0EE60
:103DA0006D0A02F081F953EC1A2B51EC100BFCF761
:103DB00063FB53EC1A2BFCF75FFB53EC182BFCF75F
:103DC0005BFB95ED020B41EC1E0B53EC1C2B51ECF5
:103DD000100BFCF751FB53EC1E2BFCF7BFFB94F8C8
:103DE0001021B0EE4D0A07EBC202F0EE6D0AC2E9F7
:103DF000000102F059F953EC1A2B51EC100BFCF7AF
:103E00003BFB53EC1A2BFCF737FB53EC182BFCF75E
:103E100033FB95ED020B41EC1E0B53EC1C2B51ECCC
:103E2000100BFCF729FB53EC1E2BFCF797FB94F8C7
:103E3000A021B0EE4D0A07EBC202F0EE6D0AC2E916
:103E4000000102F031F953EC1A2B51EC100BFCF786
:103E500013FB53EC1A2BFCF70FFB53EC182BFCF75E
:103E60000BFB95ED020B41EC180B53EC1C2B51ECAA
:103E7000100BFCF701FB53EC182BFCF76FFBFCE37A
:103E8000386890ED020B51EC100BFCF7E7FBB8869D
:103E900000209DE69FED0F0B02F006F953EC1A2B64
:103EA00051EC100BFCF7E8FA53EC1C2BFCF7E4FA8E
:103EB00041EC100B386890ED021B1FE0000E002053
:103EC0000000000000000040000000000000E03F93
:103ED00018020020000000000000000000000000A8
:103EE00000403D41BC0A0020780D00203D0AD7A3C8
:103EF000703DCA3F000000000000344053EC112B1D
:103F000051EC100BFCF7F4FB64D21FED0E0B02F02A
:103F1000CBF8B0EE4ABAF0EE6ABA53EC1B2B51EC78
:103F2000100BFCF7A9FAB0EE4C1AF0EE6C1A53EC39
:103F3000112BFCF7A1FA41EC110B1FED1A0B8DEDC3
:103F4000001B02F0B1F853EC1B2B51EC100BFCF7EB
:103F500093FA53EC1B2BFCF78FFA9DED001B53ECEF
:103F6000112BFCF783FA41EC110B8DED001BB7F917
:103F70003400FCF762FB9DED001B53EC112BFCF7AA
:103F8000B7FB27D21FED2D0B02F08EF853EC1B2B45
:103F900051EC100BFCF770FA53EC1B2BFCF76CFA8E
:103FA00041EC1B0BB7F93400FCF747FB53EC1B2B20
:103FB000FCF75CFAFCF7B4FB0BEE100A386890EDE6
:103FC000020B51EC100BFCF7ABFB00EE100AF0EE0D
:103FD0004B0A7DE01FED410B02F066F81FED481B18
:103FE00051EC100B53EC112BFCF746FA1FED4A1B5A
:103FF00053EC112BFCF740FA41EC1B0BB7F93400E2
:10400000FCF71BFB53EC1B2BFCF75AFB51D21FEDAB
:104010004F0B02F049F81FED56BB51EC100B53EC5F
:104020001B2BFCF729FA1FED581B53EC112BFCF747
:1040300023FA41EC110B8DED001B1FED5A0B02F022
:1040400033F853EC1B2B51EC100BFCF715FA53EC27
:104050001B2BFCF711FA9DED001B53EC112BFCF709
:1040600005FA41EC100B386890ED021B51EC100B77
:1040700053EC112BFCF724FB1BD21FED6A0B02F053
:1040800013F853EC1B2B51EC100BFCF7F5F953EC28
:104090001B2BFCF7F1F941EC100B386890ED021B7B
:1040A00051EC100B53EC112BFCF7E3F941EC100B26
:1040B00002E0386890ED020B51EC100BFCF730FB7E
:1040C00000EE100AB7F9340000EE900AF8EEE00AAC
:1040D000381D00F067FF7DE553EC1B2B51EC1F0BE7
:1040E000FCF7EEFA7ED1B0EE4BDAF0EE6BDA53EC81
:1040F0001D2B51EC1E0BFCF7E3FAF3D153EC1D2BF7
:1041000051EC180BFCF7DCFA6CD085ED04DBB0EE5B
:104110004D0AF0EE6D0A01F0C7FF53EC1A2B51EC7B
:10412000100BFCF7A9F953EC1A2BFCF7A5F941EC9D
:104130001E0BB0EE4D0AF0EE6D0A01F0B5FF53EC28
:104140001A2B51EC100BFCF797F953EC1C2BFCF7D6
:1041500093F953EC1C2BFCF78FF941EC1F0BB0EEDD
:104160004D0AF0EE6D0A01F09FFF53EC1A2B51EC53
:10417000100BFCF781F953EC1A2BFCF77DF953EC8B
:104180001F2BFCF773F953EC1E2BFCF7E7F953ECEC
:10419000192BFCF771F994F88020B0EE4D0A06EB6C
:1041A000C202F0EE6D0AC2E9000101F07DFF53EC9E
:1041B0001A2B51EC100BFCF75FF953EC1A2BFCF7A0
:1041C0005BF941EC1E0BB0EE4D0AF0EE6D0A01F00A
:1041D0006BFF53EC1A2B51EC100BFCF74DF953EC21
:1041E0001C2B00E06FE1FCF747F953EC1C2BFCF7AC
:1041F00043F953EC1E2BFCF7B1F953EC192BFCF7E8
:104200003BF994F81021B0EE4D0A06EBC202F0EE35
:104210006D0AC2E9000101F047FF53EC1A2B51EC83
:10422000100BFCF729F953EC1A2BFCF725F941EC9C
:104230001F0BB0EE4D0AF0EE6D0A01F035FF53ECA6
:104240001A2B51EC100BFCF717F953EC1C2BFCF755
:1042500013F953EC1C2BFCF70FF941EC1E0BB0EEDD
:104260004D0AF0EE6D0A01F01FFF53EC1A2B51ECD2
:10427000100BFCF701F953EC1E2BFCF756F853EC2E
:104280001F2BFCF76BF953EC192BFCF7F5F894F89E
:10429000A021B0EE4D0A06EBC202F0EE6D0AC2E9B3
:1042A000000101F001FF53EC1A2B51EC100BFCF74D
:1042B000E3F853EC1A2BFCF7DFF841EC1E0BB0EEE1
:1042C0004D0AF0EE6D0A01F0EFFE53EC1A2B51ECA3
:1042D000100BFCF7D1F853EC1C2BFCF7CDF853EC8A
:1042E0001C2BFCF7C9F841EC1C0BB0EE4D0AF0EEAC
:1042F0006D0A01F0D9FE53EC1A2B51EC100BFCF7B0
:10430000BBF853EC1C2BFCF7B1F853EC1E2BFCF75D
:1043100025F953EC192BFCF7AFF894F83022B0EEE6
:104320004D0A06EBC202F0EE6D0AC2E9000101F08F
:10433000BBFE53EC1A2B51EC100BFCF79DF853EC21
:104340001A2BFCF799F89FEDFECB53EC1C2BFCF7D6
:1043500093F841EC1E0B9FEDFC0B51EC180B53EC4A
:10436000102BFCF789F8894649EC100B07469FEDA6
:10437000F8FB51EC100B53EC1F2BFCF77DF853ECC2
:104380001C2BFCF779F89FEDF48B53EC182BFCF702
:1043900073F853EC1E2BFCF7E1F894F880204546A7
:1043A00008EBC202B0EE4D0AC2E90001F0EE6D0A60
:1043B00001F07AFE53EC1A2B51EC100BFCF75CF871
:1043C00053EC1A2BFCF758F853EC1C2BFCF754F861
:1043D00049EC107B41EC1E0B53EC1F2B51EC100BE6
:1043E000FCF74AF853EC1C2BFCF746F853EC182B5F
:1043F000FCF742F853EC1E2BFCF7B0F894F81021B0
:10440000B0EE4D0A05EBC202F0EE6D0AC2E9000102
:1044100001F04AFE53EC1A2B51EC100BFCF72CF870
:1044200053EC1A2BFCF728F853EC1C2BFCF724F860
:1044300049EC107B41EC1E0B53EC1F2B51EC100B85
:10444000FCF71AF853EC1C2BFCF716F853EC182B5E
:10445000FCF712F853EC1E2BFCF780F894F8A0211F
:10446000B0EE4D0A05EBC202F0EE6D0AC2E90001A2
:1044700001F01AFE53EC1A2B51EC100BFBF7FCFF6A
:1044800053EC1A2BFBF7F8FF53EC1C2BFBF7F4FF54
:1044900049EC107B41EC1A0B53EC1F2B51EC100B29
:1044A000FBF7EAFF53EC1C2BFBF7E6FF53EC182B52
:1044B000FBF7E2FF53EC1A2BFCF750F894F830228C
:1044C00005EBC202DAE3B0EE4BDAF0EE6BDA53EC56
:1044D0001D2B51EC1F0BFCF7F3F806D153EC1D2BF1
:1044E00051EC1E0BFCF7ECF87ED053EC1D2B51EC7D
:1044F000180BFCF7E5F8F7D053EC1D2B51EC180B1B
:10450000FCF7DEF809D095ED020B53EC182B51ECBB
:10451000100BFCF723F8C5E9040195ED060B53ECED
:10452000102B95ED040B51EC100BFBF7A5FF9FED45
:1045300084EB53EC1E2BFBF7F8FE53EC1D2BFCF722
:10454000BFF878D095ED080B53EC102B95ED040BCC
:1045500051EC100BFBF790FF53EC1E2BFBF7E5FE25
:1045600053EC1D2BFCF7ACF865D09FED7D0B01F0F3
:104570009BFD53EC1A2B51EC100BFBF77DFF53EC1A
:104580001A2BFBF779FF41EC110B8DED021B95ED1A
:10459000080B53EC102B95ED040B8DED000B51EC3B
:1045A000100BFBF769FF9FED661B53EC112BFBF71C
:1045B000BCFE95ED060B41EC1F0B53EC102B9DED53
:1045C000000B51EC100BFBF757FF9FED5D1B53ECFD
:1045D000112BFBF7AAFE41EC100BB0EE4F1AF0EED8
:1045E0006F1A02F079F800E04BE3B0EE40FAF0EE1B
:1045F00060FA9FED5B0B01F057FD53EC1A2B51EC69
:10460000100BFBF739FF53EC1C2BFBF735FF53EC7A
:104610001F2BFBF72BFF9DED021B53EC112BFBF720
:104620009DFF53EC192BFBF727FF94F8A02106EB15
:10463000C202C2E9000195ED060B53EC102B95ED7B
:10464000040B51EC100BFBF717FF53EC1E2BFBF781
:104650006CFE53EC1D2BFCF733F86FD095ED080B77
:1046600053EC102B95ED040B51EC100BFBF704FFF2
:1046700053EC1E2BFBF7FDFE00E0FBE253EC1D2B81
:10468000FCF71EF87AD09FED360B01F00DFD53ECD0
:104690001A2B51EC100BFBF7EFFE53EC1A2BFBF728
:1046A000EBFE41EC110B8DED021B95ED080B53EC6D
:1046B000102B95ED040B8DED000B51EC100BFBF75F
:1046C000DBFE9FED1F1B53EC112BFBF7D2FE95ED8C
:1046D000060B41EC1F0B53EC102B9DED000B51EC26
:1046E000100BFBF7C9FE9FED161B53EC112BFBF7CC
:1046F0001CFE41EC100BB0EE4F1AF0EE6F1A01F0F9
:10470000EBFFB0EE40FAF0EE60FA9FED150B01F012
:10471000CBFC53EC1A2B51EC100BFBF7ADFE53EC1A
:104720001C2BFBF7A9FE53EC1F2BFBF7FEFD9DEDA9
:10473000021B53EC112BFBF711FF15E01EE00000EC
:104740003D0AD7A3703DCA3F39B4C876BE9FF63F35
:10475000000000000000E0BF000000000000344046
:10476000000000000000000053EC192BFBF784FE52
:1047700094F8302206EBC202C2E9000195ED060B67
:1047800053EC102B95ED040B51EC100BFBF774FE62
:1047900053EC1E2BFBF76AFE53EC1D2BFBF790FF2F
:1047A00076D095ED080B53EC102B95ED040B51ECE6
:1047B000100BFBF761FE53EC1E2BFBF7B6FD53EC21
:1047C0001D2BFBF77DFF63D01FED1B0B01F06CFC75
:1047D00053EC1A2B51EC100BFBF74EFE53EC1A2B3B
:1047E000FBF74AFE41EC110B8DED021B95ED080B1A
:1047F00053EC102B95ED040B8DED000B51EC100BD1
:10480000FBF73AFE1FED321B53EC112BFBF78DFD2E
:1048100095ED060B41EC1F0B53EC102B9DED000B9F
:1048200051EC100BFBF728FE1FED3B1B53EC112B3B
:10483000FBF71CFE41EC100BB0EE4F1AF0EE6F1AB6
:1048400001F04AFFB0EE40FAF0EE60FA1FED3C0BCB
:1048500001F02AFC53EC1A2B51EC100BFBF70CFE69
:1048600053EC1C2BFBF708FE53EC1F2BFBF7FEFD54
:104870009DED021B53EC112BFBF770FE53EC192B33
:10488000FBF7FAFD94F8802006EBC202C2E90001B2
:1048900095ED060B53EC102B95ED040B51EC100B22
:1048A000FBF7EAFD53EC1E2BFBF7E0FD53EC1D2B51
:1048B000FBF706FF72D095ED080B53EC102B95ED2E
:1048C000040B51EC100BFBF7D7FD53EC1E2BFBF741
:1048D000D0FD53EC1D2BFBF7F3FE5FD01FED600BFB
:1048E00001F0E2FB53EC1A2B51EC100BFBF7C4FD6B
:1048F00053EC1A2BFBF7C0FD95ED080B41EC1D0B9B
:1049000053EC102B95ED040B8DED000B51EC100BBF
:10491000FBF7B2FD1FED761B53EC112BFBF7A9FD46
:1049200095ED060B41EC1F0B53EC102B9DED000B8E
:1049300051EC100BFBF7A0FD1FED7F1B53EC112B6F
:10494000FBF794FD41EC100BB0EE4F1AF0EE6F1A2E
:1049500001F0C2FEB0EE40FAF0EE60FA1FED800BFF
:1049600001F0A2FB53EC1A2B51EC100BFBF784FD6A
:1049700053EC1C2BFBF780FD53EC1F2BFBF7D5FCF6
:1049800053EC1D2BFBF7EAFD53EC192BFBF774FDE1
:1049900094F8102106EBC202C2E9000195ED060B66
:1049A00095ED04AB53EC102B51EC1A0BFBF764FDA7
:1049B000894649EC100B074653EC1E2B51EC100BAB
:1049C000FBF7B3FC49EC107B41EC1C0B53EC1E2BAA
:1049D00051EC100BFBF7A9FC53EC1C2BFBF74CFD27
:1049E00095ED080B41EC1C0B53EC102B51EC1A0B02
:1049F000FBF742FD894649EC100B074653EC1E2B92
:104A000051EC100BFBF791FC49EC107B41EC1A0BBD
:104A100053EC1E2B51EC100BFBF787FC53EC1A2BBD
:104A2000FBF72AFD53EC1C2BFBF77FFC41EC100B32
:104A300002F012F8B0EE40AAF0EE60AA1FEDBA0B39
:104A400051EC180B53EC102BFBF716FD8B464BEC7F
:104A5000110B814653EC1A2B51EC110BFBF70CFD9B
:104A600094F88020474608EBC202C2E9000195EDA8
:104A7000060B95ED04AB53EC102B51EC1A0BFBF726
:104A8000FBFC824653EC1E2B0091FBF74EFC41ECE5
:104A90001C0B009953EC1E2B41EC10AB51EC100B8E
:104AA000FBF743FC53EC1C2BFBF7E6FC95ED080BE6
:104AB00041EC1C0B53EC102B51EC1A0BFBF7DCFCFC
:104AC000824653EC1E2B0091FBF7D3FC41EC1A0BF2
:104AD000009953EC1E2B41EC10AB51EC100BFBF783
:104AE000C8FC53EC1A2BFBF7C7FC53EC1C2BFBF751
:104AF0001CFC41EC100B01F0AFFFB0EE40AAF0EE51
:104B000060AA9FEDDE0B51EC180B53EC102BFBF75A
:104B1000B3FC53EC1A2BFBF7AFFC94F8102107EB16
:104B2000C202C2E9000195ED060B95ED048B53EC32
:104B3000102B51EC180BFBF79FFC82469FEDD1AB7D
:104B4000009153EC1A2BFBF7F0FB41EC1C0B009986
:104B500053EC1A2B41EC10AB51EC100BFBF7E5FBBF
:104B600053EC1C2BFBF788FC95ED080B41EC1C0B60
:104B700053EC102B51EC180BFBF77EFC824653ECE8
:104B80001E2B0091FBF775FC41EC180B009953ECC0
:104B90001E2B41EC10AB51EC100BFBF76AFC53ECF5
:104BA000182BFBF769FC53EC1C2BFBF7BEFB41EC0D
:104BB000100B01F051FF4BEC119B53EC102B51ECFF
:104BC000110BFBF759FC94F8A02107EBC202C2E9D4
:104BD000000195ED060B95ED048B53EC102B51EC79
:104BE000180BFBF749FC824653EC1A2B0091FBF79C
:104BF0009CFB41EC1C0B009953EC1A2B41EC10ABC5
:104C000051EC100BFBF791FB53EC1C2BFBF734FC26
:104C100095ED080B41EC1A0B53EC102B51EC180BD3
:104C2000FBF72AFC8A464AEC100B054653EC1E2B78
:104C300051EC100BFBF779FB4AEC105B41EC180BC5
:104C400053EC1E2B51EC100BFBF76FFB53EC182BA6
:104C5000FBF712FC53EC1A2BFBF767FB41EC100B34
:104C600001F0FAFE4BEC119B53EC102B51EC110BA5
:104C7000FBF702FC94F8302207EBC202C2E9000104
:104C800027E094F8803006EBC30008EBC30380ED07
:104C900000DB94F8101106EBC10008EBC10180EDB8
:104CA00000DB94F8A00106EBC00208EBC00082ED27
:104CB00000DB94F8302206EBC20585ED00DB83EDC6
:104CC00000DB81ED00DB80ED00DB08EBC20080ED56
:104CD00000DB94F8800053EC1B2B06EBC00090ED3A
:104CE000000B51EC100BFBF7EBFC0DD294F880009D
:104CF00053EC192B06EBC00595ED000B51EC100B96
:104D0000FBF713FBC5E9000194F8100153EC1B2BD2
:104D100006EBC00090ED000B51EC100BFBF7D0FC44
:104D20000DD294F8100153EC192B06EBC00595ED4C
:104D3000000B51EC100BFBF7F8FAC5E9000194F8F1
:104D4000A00153EC1B2B06EBC00090ED000B51ECC7
:104D5000100BFBF7B5FC0DD294F8A00153EC192B06
:104D600006EBC00595ED000B51EC100BFBF7DDFADF
:104D7000C5E9000194F8300253EC1B2B06EBC00090
:104D800090ED000B51EC100BFBF79AFC0DD294F850
:104D9000300253EC192B06EBC00595ED000B51ECDE
:104DA000100BFBF7C2FAC5E9000114F8800F454665
:104DB00008EBC00090ED000B51EC100BFBF7B0FCC2
:104DC00000EE100AE068B1EE400A80ED080A94F89F
:104DD000900005EBC00090ED000B51EC100BFBF7C1
:104DE0009FFC00EE100AD4F89C00B1EE400A80ED62
:104DF000080A94F8200105EBC00090ED000B51EC7F
:104E0000100BFBF78DFCD4F82C11086294F8B0015C
:104E100005EBC00090ED000B51EC100BFBF780FC94
:104E2000D4F8BC110862207806EBC00090ED000BAE
:104E30001648FEF741FC94F8900006EBC00090ED98
:104E4000000B12489030FEF737FC94F8200106EB77
:104E5000C00090ED000B0E48FEF72EFC94F8B00158
:104E600006EBC00090ED000B05B00948BDEC108BBF
:104E70009030BDE8F04FFEF71FBC000000000000BE
:104E8000000034C03D0AD7A3703DCABFBC0A002051
:104E9000DC0B00207047000030B4234C0246C2F304
:104EA00045136569002002F01F029D4201D1204692
:104EB00011E0246D9C4201D11B480BE01A4C783460
:104EC00065699D4201D1204605E0246D9C4202D1D6
:104ED000154878303C30042A12D004DC012A07D06F
:104EE000032A1DD109E0092A0DD0172A18D113E091
:104EF0000A6802604968416012E00968C1600FE019
:104F0000096801610CE091ED000A80ED060A91ED5F
:104F1000010A80ED070A03E091ED000A80ED090A1D
:104F200030BC2C30FCF73CB9CC09002010B5040093
:104F300036D0608D01F01F021043608509291AD018
:104F400006DC03290BD004290DD0072922D10EE05D
:104F50000D2914D0162916D017291BD117E0204689
:104F6000FCF74EF916E02046FCF71EF912E0204649
:104F700000F040FC0EE02046FCF72CF90AE0204649
:104F800000F04DFC06E0204600F040FB02E0204629
:104F9000FCF74CF9A08A4FF6FF7101EA40106085DA
:104FA00010BD000070EEC00AC0ED030A90ED050AC6
:104FB000F4EEC00AF1EE10FA01DD80ED030AD0ED47
:104FC000030AB1EE400AF4EEC00AF1EE10FA02D381
:104FD000B0EE600A01E080ED030ADFED340AB5EEC1
:104FE000C00AF1EE10FA08DD90ED061AB4EEC10A1F
:104FF000F1EE10FA01D2C0ED030A90ED030AB5EE0E
:10500000C00AF1EE10FA08D290ED061AB4EEC10A09
:10501000F1EE10FA01DDC0ED030AD0ED070A90EDC4
:10502000030A30EE801A80ED071AD0ED080AB4EEBC
:10503000E01AF1EE10FA01DDC0ED070A90ED071A53
:10504000F1EE600AB4EEE01AF1EE10FA01D2C0ED12
:10505000070AD0ED040A30EE601A80ED091A80EDDF
:10506000040AD0ED000AD0ED071A60EE800A90ED38
:10507000010A40EE210A90ED020A40EE010AC0ED5D
:105080000A0A90ED0B0AF4EEC00AF1EE10FA01DD07
:1050900080ED0A0AD0ED0A0AB1EE400AF4EEC00A29
:1050A000F1EE10FA01D280ED0A0A7047000000000C
:1050B000C0ED051A80ED0B3A80ED062AC0ED082AF6
:1050C00080EC030A9FED060A80ED030A80ED040AD6
:1050D00080ED070A80ED090A80ED0A0A704700009A
:1050E0000000000090ED010AD0ED1E0AB8EEC00AE3
:1050F00070EEC00AC0ED090A90ED0B0AF4EEC00A8A
:10510000F1EE10FA01DD80ED090AD0ED090AB1EEE9
:10511000400AF4EEC00AF1EE10FA02D3B0EE600AD3
:1051200001E080ED090ADFED791AB5EEC00AF1EE73
:1051300010FA08DDD0ED0C0AB4EEE00AF1EE10FA38
:1051400001D2C0ED091A90ED090AB5EEC00AF1EEE0
:1051500010FA08D2D0ED0C0AB4EEE00AF1EE10FA23
:1051600001DDC0ED091AD0ED0D0A90ED090A30EE0F
:10517000801A80ED0D1AD0ED0E0AB4EEE01AF1EEB1
:1051800010FA01DDC0ED0D0A90ED0D1AF1EE600A86
:10519000B4EEE01AF1EE10FA01D2C0ED0D0AD0ED36
:1051A0000A0A30EE601A80ED0F1A80ED0A0AD0ED7F
:1051B000060A90ED0D2A60EE800A90ED070A40EE97
:1051C000020A90ED080A40EE010AC0ED100A90EDC7
:1051D000110AF4EEC00AF1EE10FA01DD80ED100ABA
:1051E000D0ED100AB1EE400AF4EEC00AF1EE10FA6A
:1051F00001D280ED100AB0F90010D0ED100A00EED7
:10520000101AB8EEC00A70EEC00AC0ED150A90ED93
:10521000170AF4EEC00AF1EE10FA01DD80ED150A6E
:10522000D0ED150AB1EE400AF4EEC00AF1EE10FA24
:1052300002D3B0EE600A01E080ED150AB5EEC00AB7
:10524000F1EE10FA08DDD0ED180AB4EEE00AF1EE46
:1052500010FA01D2C0ED151A90ED150AB5EEC00A8C
:10526000F1EE10FA08D2D0ED180AB4EEE00AF1EE31
:1052700010FA01DDC0ED151AD0ED190A90ED150AEE
:1052800030EE801A80ED191AD0ED1A0AB4EEE01A49
:10529000F1EE10FA01DDC0ED190A90ED191AF1EEE8
:1052A000600AB4EEE01AF1EE10FA01D2C0ED190A6C
:1052B000D0ED160A30EE601A80ED1B1A80ED160A4A
:1052C000D0ED120AD0ED191A60EE800A90ED130AA3
:1052D00040EE210A90ED140A40EE010AC0ED1C0ACE
:1052E00090ED1D0AF4EEC00AF1EE10FA01DD80ED3A
:1052F0001C0AD0ED1C0AB1EE400AF4EEC00AF1EE31
:1053000010FA01D280ED1C0A704700000000000076
:10531000B0F90010D0ED1F0A00EE101AB8EEC00A66
:1053200070EEC00AC0ED150A90ED170AF4EEC00A3F
:10533000F1EE10FA01DD80ED150AD0ED150AB1EE9F
:10534000400AF4EEC00AF1EE10FA02D3B0EE600AA1
:1053500001E080ED150ADFED340AB5EEC00AF1EE8A
:1053600010FA08DD90ED181AB4EEC10AF1EE10FA49
:1053700001D2C0ED150A90ED150AB5EEC00AF1EEA6
:1053800010FA08D290ED181AB4EEC10AF1EE10FA34
:1053900001DDC0ED150AD0ED190A90ED150A30EEC9
:1053A000801A80ED191AD0ED1A0AB4EEE01AF1EE67
:1053B00010FA01DDC0ED190A90ED191AF1EE600A3C
:1053C000B4EEE01AF1EE10FA01D2C0ED190AD0EDF8
:1053D000160A30EE601A80ED1B1A80ED160AD0ED29
:1053E000120AD0ED191A60EE800A90ED130A40EE11
:1053F000210A90ED140A40EE010AC0ED1C0A90ED5E
:105400001D0AF4EEC00AF1EE10FA01DD80ED1C0A6F
:10541000D0ED1C0AB1EE400AF4EEC00AF1EE10FA2B
:1054200001D280ED1C0A70470000000070B50546EF
:1054300090F8800030494418207814283ED2081F84
:1054400090ED000A2846B8EEC00A85ED1F0AFFF766
:105450005FFF2A482A4E854208D140213046FCF79A
:10546000B7FD012802D12078401C207023489030DD
:10547000854208D180213046FCF7AAFD012802D1DF
:105480002078401C20701D481E4E9038854208D15F
:10549000B1153046FCF79CFD012802D12078401C54
:1054A00020701948854209D14FF400713046FCF74D
:1054B0008FFD012802D12078401C207020789FEDBC
:1054C000130A142806D185ED1F0A00206860207891
:1054D000401C2070C0B2152809D185ED1E0A00219C
:1054E00005F1820000F0B5FD2846FFF7FBFD2846D8
:1054F000BDE87040FEF7BBB8F0010020DC0B0020D7
:105500000000024000080240BC0A00200000000029
:105510002DE9F047DFF8E880044608214046FCF713
:1055200057FD0127374E00254FF4805910B13570D3
:10553000B56026E0B06800B9B460B068201AC82829
:1055400024D93078B8B916212F48FFF7EFFC2E4840
:10555000377002212C3000F07CFD2B48022168308E
:1055600000F077FD00212848FBF7D4FA26480121F6
:105570003C30FBF7CFFAB068201AE62801D20122AE
:1055800000E0002249464046FCF727FD1021404636
:10559000FCF71EFD18B17570F560BDE8F087F06886
:1055A00000B9F460F068201AC828F6D97078C8B934
:1055B000154816217830FFF7B9FC1348777002219F
:1055C000A43000F046FD10480221E03000F041FD1B
:1055D0000D4802217830FBF79DFA0B480321B430C7
:1055E000FBF798FAF068201AE62801D2012200E0C1
:1055F000002249464046BDE8F047FCF7EEBC0000FB
:105600000008024020000020CC0900201CB5044600
:10561000806B01230022074900F0AEFA94F82A00BB
:105620000221CDE9001000231A460821A06B00F0EA
:10563000B5FA1CBD3000002010B5002842D001880A
:10564000C1F30A0220498A8042788378D20842EA6C
:105650004312C2F30A02CA808278C378920942EAEE
:105660008302037942EA8322C2F30A020A800279A2
:105670004379520842EAC312C2F30A024A800B7A03
:1056800044790122B3EB941F00D00A7544794B7A18
:10569000C4F30114A34200D00A75427992090A7238
:1056A0004279C2F301124A72C2884A8102898A8110
:1056B0004289CA81027B0A74427B4A74827B8A7463
:1056C000C07BC87410BD0000020200202DE9F0412B
:1056D000414E4FF485672DED068B4FF4767530887B
:1056E0009FED3E8B9FED3F9A3F4CB84202D3C0F5F1
:1056F000856004E0A8420DD8A0F576704042FAF724
:105700009CFF53EC182BFAF729FFFBF709F8C4F8B4
:10571000400201E084ED909A7088B84202D3A0F56F
:10572000856003E0A8420CD8A0F57670FAF785FFF3
:1057300053EC182BFAF712FFFAF7F2FFC4F8440201
:1057400001E084ED919AB0889FED28ABB84202D376
:10575000C0F5856004E0A84211D8A0F576704042FB
:10576000FAF76BFF53EC1A2BFAF786FE53EC182B63
:10577000FAF7F4FEFAF7D4FFC4F84C0201E084ED26
:10578000939A94ED909AB5EEC09AF1EE10FA06D184
:1057900094ED910AB5EEC00AF1EE10FA17D0D4F8E4
:1057A0004402FAF77AFF41EC180B19EE100AFAF7E7
:1057B00074FF41EC100BB0EE481AF0EE681A00F0DE
:1057C0008BFF51EC100BFAF7ABFFC4F84802BDECAD
:1057D000068BBDE8F08100000202002000000000FE
:1057E0000060834000000000BC0A002000000000B0
:1057F000000000401CB50446406B0123002204F168
:10580000080100F0B9F9002194F82A000B46CDE90F
:1058100000100A460421606B00F0C0F91CBD1CB5E5
:105820000446406B0323002204F1200100F0A4F998
:10583000002194F82A000B46CDE900100A46082101
:10584000606B00F0ABF91CBD1E4D1F4C1F48FCF7F0
:10585000F7FBFBF7ADFBD5F87C22D5E99501FDF709
:10586000B5FCD5F8580290B1607880B1206902F09B
:1058700013FAD5F85402022802D0012802D004E01D
:10588000E06800E0606902F007FA0020607061786B
:10589000D5F85802084310D1206902F089F9D5F8EB
:1058A0005402022802D0012802D004E0E06800E09F
:1058B000606902F07DF901206070012001F0C2FDF5
:1058C000C4E70000BC0A002004000020600500209E
:1058D0000A489FED090AD0F88C1081ED080AD0F82B
:1058E0001C1181ED080AD0F8AC1181ED080AD0F83E
:1058F0003C0280ED080A704700000000BC0A00204E
:1059000010B5502080F31188BFF34F8FBFF36F8F16
:1059100002F0C6FB18B104494FF080500860002027
:1059200080F3118810BD000004ED00E030B593B0A5
:1059300030216846FAF7EEFC14210CA8FAF7EAFCCD
:105940001E480025016841F080510160006800F0A8
:10595000805011901A48016841F48041016000684C
:10596000022400F480401190092000904FF4803010
:1059700001900120CDE905048005079008AA0420C4
:10598000A82182E813000B906846FCF721FD08B1BE
:10599000FBF7FEFB0CA90F2081E831004FF4A0506B
:1059A0000F904FF48050109005210CA8FCF706FCD6
:1059B000002801D0FBF7ECFB13B030BD40380240AB
:1059C000007000400548016841F47001016003491E
:1059D0004FF00060803908607047000088ED00E0FB
:1059E0000148FCF7ACBF00008C0900200148FCF71F
:1059F000A6BF00006C05002010B50748FCF79FFF0C
:105A00000648D0F87C12491CC0F87C12D0F87C0201
:105A1000BDE81040FFF77CBDAC050020BC0A0020AB
:105A2000F0B50268254D264E264FDFF89CC0274B67
:105A30004FF0804EA84209D0704507D0B04205D043
:105A4000B84203D0604501D0984203D122F07004DF
:105A50004A682243A8421BD0704519D0B04217D0E3
:105A6000B84215D0604513D0984211D0184CA042CE
:105A70000ED0184CA0420BD0174CA04208D0174CA7
:105A8000A04205D0164CA04202D0164CA04203D131
:105A900022F44074CA6822434C6922F080022243F7
:105AA00002608A68C2620A688262A84201D0984293
:105AB00001D10969016301214161F0BD000001408C
:105AC0000004004000080040000C004000040140B9
:105AD00000400140004401400048014000180040DF
