:020000040800F2
:10000000D04F00205D020008394400086733000823
:10001000293A0008AD0C00087554000800000000E3
:100020000000000000000000000000009D0100082A
:10003000630F000800000000F9010008454B0008AC
:1000400077020008770200087702000877020008AC
:10005000770200087702000877020008770200089C
:10006000770200087702000877020008770200088C
:10007000E90D000877020008F90D00087702000872
:10008000090E0008190E0008770200087702000820
:10009000B10C000877020008770200087702000818
:1000A000770200084D4C000877020008770200082C
:1000B0005D4C00086D4C00087702000877020008CC
:1000C000770200087702000877020008770200082C
:1000D00077020008355400084554000855540008BC
:1000E000770200087702000877020008770200080C
:1000F00077020008770200087702000877020008FC
:1001000077020008770200087702000877020008EB
:1001100077020008770200087702000877020008DB
:1001200077020008290E0008390E0008770200083F
:1001300077020008000000000000000077020008BD
:10014000C10C000877020008770200087702000857
:1001500077020008490E000877020008655400087D
:10016000770200087702000877020008770200088B
:10017000770200087702000800000000000000007D
:100180007702000877020008DFF80CD000F0FAFBD5
:1001900000480047AD5A0008D04F00202C4B19688A
:1001A0000868B0E8F04F80F30988BFF36F8F4FF015
:1001B000000080F3118870470000000008480068C4
:1001C000006880F308884FF0000080F3148862B65E
:1001D00061B6BFF34F8FBFF36F8F00DF00BF00BF6B
:1001E00008ED00E0DFF80C00016841F470010160E7
:1001F000704700BF88ED00E0EFF30980BFF36F8F19
:10020000134B1A681EF0100F08BF20ED108A20E96A
:10021000F04F106009B44FF0500080F31188BFF325
:100220004F8FBFF36F8F06F091FA4FF0000080F30D
:10023000118809BC19680868B0E8F04F1EF0100F6B
:1002400008BFB0EC108A80F30988BFF36F8F704746
:1002500050000020EFF305807047000006488047FB
:1002600006480047FEE7FEE7FEE7FEE7FEE7FEE79B
:10027000FEE7FEE7FEE7FEE7314C000889010008D3
:100280002DE9F05F0546002092469B4688460646CB
:10029000814640241BE0284641464746224600F05E
:1002A00020F853465A46C01A914110D311461846B9
:1002B000224600F061FA2D1A67EB01084F462246EC
:1002C0000120002100F058FA17EB00094E41201ED2
:1002D000A4F10104DFDC484631462A464346BDE826
:1002E000F09F202A04DB203A21FA02F00021704717
:1002F00021FA02F3D040C2F120029140084319468E
:10030000704740EA01039B0703D009E008C9121FA8
:1003100008C0042AFAD203E011F8013B00F8013BBF
:10032000521EF9D27047D2B201E000F8012B491EEB
:10033000FBD270470022F6E710B513460A46044682
:100340001946FFF7F0FF204610BD2DE9FE4F80460D
:1003500081EA0300C00F0C46009021F0004123F019
:100360000045B8EB0200A94105D24046214690461F
:100370001C460B46024623F00040104347D0270D91
:10038000C7F30A00C3F30A510290401A01904028B3
:100390006BDAC3F3130040F4801B0098924620B13F
:1003A0000023D2EB030A63EB0B0B01985946C0F113
:1003B0004002504600F0E0F906460D4650465946C8
:1003C000019A00F0E8F910EB08006141002487EA87
:1003D000115284EAE7731A4340D0009A62B3019A3B
:1003E000012A4FEA075215DC001B61EB02014FF0B6
:1003F000004202EA0752CDE90042001C41F580119B
:1004000032462B4600F01FFA03B0BDE8F08F40469D
:100410002146F9E7001B61EB0201001C41F5801346
:1004200000185B412018A2F5001747EB030140EAD2
:10043000D570B6196D4111E06D084FEA360645EAF0
:10044000C0754FEA0752001B61EB0201001C41F529
:10045000801149084FEA30000019514132462B46BD
:1004600003B0BDE8F04F00F0DFB900980122400072
:100470000023D0EB020263EBE073009821464FEAC1
:10048000E074B8EB000061EB0401E9E783F000439E
:100490005BE781F0004158E72DE9FE4F81EA030454
:1004A00004F0004421F0004100944FF0000B23F0D1
:1004B000004350EA01045ED052EA03045BD0C3F368
:1004C0000A54C1F30A552C44A4F2F3340194A0FB5E
:1004D0000254C1F3130141F48011C3F3130343F435
:1004E000801301FB024400FB034E840A970A44EA8E
:1004F000815447EA8357A4FB076802958D0A05FBE0
:1005000007854FEA932C04FB0C542705029D4FEA04
:10051000065847EA1637B5EB08056EEB070C870E51
:10052000920E47EA811742EA8312A7FB0201B6EB5B
:100530000B0164EB00042B0D43EA0C335E1844EB13
:100540001C50DA465146E7FB0201C5F313044FEA9B
:100550000B3343EA14534FEA0432019C43EA060387
:10056000A4F10C040294009CCDE900B400F06BF9F6
:1005700003B0BDE8F08F00200146F9E72DE9F04D0A
:1005800081EA030404F0004B21F0004514464FF0CB
:10059000000A23F0004150EA050220D054EA01028B
:1005A0001DD0C5F30A570246C5F31303C1F3130068
:1005B000C1F30A5640F4801543F48013A7EB0608F4
:1005C000101BD64608F2FD3873EB050002D308F184
:1005D000010801E092185B41B8F1000F03DA002036
:1005E0000146BDE8F08D00204FF480110646844698
:1005F0000EE0171B73EB050705D3121B63EB050316
:1006000006434CEA010C49084FEA300092185B415E
:1006100050EA0107EDD152EA030012D082EA040049
:1006200083EA0501084305D0101BAB4106D2012225
:10063000002306E000224FF0004302E06FF00102C9
:1006400053101AEB06004CEB085110EB0A0041EB7B
:100650000B01BDE8F04D00F0E7B80EB5C10F80EA20
:10066000E0700844CA07002140F233438DE80E00D1
:100670000A460B4600F0E7F803B000BD70B5C1F3C1
:100680000A5201F000450024C1F3130140F2FF3388
:1006900041F480119A4201DA002070BD40F23343E8
:1006A0009A42A2F2334203DC5242FFF71AFE00E004
:1006B00090402C43F1D0404270BD00F0004230F039
:1006C00000400AD0C10D01F56071C0F3160042EA86
:1006D0000151C2084007114370470020014670478E
:1006E00030B5041E71F1000404DB4FF000444042B9
:1006F00064EB0101141E73F1000405DB1C464FF08E
:100700000043524263EB04038B4208BF824230BD78
:1007100030B5041E71F1000404DB4FF00044404288
:1007200064EB0101141E73F1000405DB1C464FF05D
:100730000043524263EB0403994208BF904230BD2C
:1007400001F0004330B421F0004150EA010206D02C
:100750000A0DA2F56072C1F31301002A02DC30BC5D
:1007600000207047440F44EAC104C100E01830BCC7
:1007700000EBC25000F021B8202A04DB203A00FA36
:1007800002F1002070479140C2F1200320FA03F3E8
:10079000194390407047202A06DBCB17203A41FAD4
:1007A00002F043EAE07306E041FA02F3D040C2F1FE
:1007B000200291400843194670470029A8BF70479E
:1007C000401C490008BF20F00100704710B4B0FA87
:1007D00080FC00FA0CF050EA010404BF10BC704722
:1007E00049B1CCF1200421FA04F411FA0CF118BF3C
:1007F000012121430843A3EB0C01CB1D4FEA00610B
:100800004FEA102042BF002010BC704700EBC350DD
:1008100010440029A4BF10BC7047401C490008BF09
:1008200020F0010010BC704710B5141E73F10004D5
:1008300008DA401C41F1000192185B411A4301D1D2
:1008400020F0010010BD2DE9F04D92469B4611B1FC
:10085000B1FA81F202E0B0FA80F220329046FFF75E
:100860008BFF04460F4640EA0A0041EA0B0153465B
:100870005A46084313D0114653EA010019D0C8F173
:1008800040025046FFF72DFD05460E46504659469C
:100890004246FFF771FF084305D0012004E02046DF
:1008A0003946BDE8F08D0020054346EAE0762C434A
:1008B00037430A986305E40AA0EB08000022FD0A0A
:1008C00044EA47540A3002D500200146E9E7010511
:1008D00010196941DDE9084500196941BDE8F04D8D
:1008E000A2E72DE9F04D00231A461B1A8A4103DBCB
:1008F00000200146BDE8F08DC1F30A52C1F3130197
:1009000041F480154FF0000BD10702D100186D4162
:10091000521E0027044640F2FF11384601EB620ADE
:100920003E468046024600204FF48011FFF7D9FC76
:10093000C2197141BB1846EB0100B4EB030C75EB17
:10094000000C04D3E41A65EB000517460E46241983
:1009500008F101006D4180463428E3DDF91946EBCA
:100960000600091BA84103D24FF0FF32134601E0F5
:10097000002213461BEB070046EB0A51BDE8F04D81
:10098000FFF752BF064C074D06E0E06840F0010358
:1009900094E8070098471034AC42F6D3FFF7F8FB11
:1009A000C06D0008E06D000810B501221146044832
:1009B00001F090FA01220221014801F08BFA10BDEA
:1009C0000008024010B50446206808B9606800B904
:1009D00010BD28496069085C052847D2DFE800F0AF
:1009E00003141F2A3D00606801280CD10320A06079
:1009F0000721204603F021FD1E496069085C401C68
:100A00001C4A6169505432E06068042806D11949D3
:100A10006069085C401C174A6169505427E06068AF
:100A2000072806D113496069085C401C114A6169B6
:100A300050541CE0606801280ED10820A0600721F6
:100A4000204603F0FAFC0020A0600A496069085CB7
:100A5000401C084A6169505409E06068082804D1C4
:100A6000002104F12C0004F06DFD00E000BF00BF88
:100A700000BFADE71600002070B504460D4600200B
:100A800084F82800606020619FED130A84ED070A56
:100A900020609FED110A84ED080AE0606561A060A6
:100AA000680160859FED0C0A84ED090A681C00EB63
:100AB000C0000A4901EB80006063681D00EBC000C4
:100AC00001EB8000A06300212186012104F12C00AC
:100AD00004F038FD70BD000000000000BC080020DC
:100AE00070B50024694C9FED6A3ADFED6A2A9FEDEC
:100AF000692ADFED671A9FED671ADFED660A9FED41
:100B0000660A04F1180003F0DDFC0021204603F022
:100B10003FFB9FED623ADFED5F2A9FED5E2ADFED3E
:100B2000601A9FED5C1ADFED5B0AB1EE040A04F176
:100B3000480003F0C7FC90349FED563ADFED552A8C
:100B40009FED542ADFED531A9FED521ADFED510A43
:100B50009FED500A04F1180003F0B4FC0121204677
:100B600003F016FB9FED4B3ADFED4A2A9FED492A31
:100B7000DFED481A9FED471ADFED460A9FED450A63
:100B800004F1480003F09EFC90349FED423ADFED03
:100B9000412A9FED402ADFED3F1A9FED3E1ADFED1F
:100BA0003D0A9FED3C0A04F1180003F08BFC022182
:100BB000204603F0EDFA9FED373ADFED362A9FED40
:100BC000352ADFED341A9FED331ADFED320A9FED3F
:100BD000310A04F1480003F075FC90349FED2D3A82
:100BE000DFED2C2A9FED2B2ADFED2A1A9FED291A23
:100BF000DFED280A9FED270A04F1180003F062FCDC
:100C00000321204603F0C4FA9FED223ADFED212AAA
:100C10009FED202ADFED1F1A9FED1E1ADFED1D0A42
:100C20009FED1C0A04F1480003F04CFC00251D4810
:100C300016490546C1F88C0000212846FFF71CFF25
:100C400018483C3011490546C1F81C0101212846CD
:100C5000FFF712FF14490D480D46C0F8AC110221F0
:100C60002846FFF709FF10483C3008490546C1F8FF
:100C70003C0203212846FFF7FFFE01200349C1F88B
:100C80004C020020C1F8500270BD0000000A002094
:100C900000401C46000000009A99193F00007A4568
:100CA00000409C45CC0700204408002000BFFEE720
:100CB00010B5024800F042FB10BD0000BC0000204F
:100CC00010B5024800F03AFB10BD0000E40000201F
:100CD00010B58AB004461148844204D10020059022
:100CE0000E20099002E00E20059009900120089046
:100CF0000020009001900290039004900690012043
:100D000007906946204600F06BFA204600F0AFFDE0
:100D10000221204600F0A4F90AB010BDBC0000205A
:100D2000002400BF002411E004EBC4000A4901EBD9
:100D3000800090F8200038B104EBC4000A4602EBB2
:100D40008001064800F00CF8601CC4B2092CEBDBF3
:100D5000012004F017FFE5E7BC080020BC000020DC
:100D600038B505460C4600BF284600F0CCFA0028EE
:100D7000FAD06B4604F118022146284600F085F9A6
:100D800008B100F0F1F8002084F8200038BD000020
:100D900010B5134803F0BCFB1148903003F0B8FBCA
:100DA000104803F0B5FB0F48903003F0B1FB0C493D
:100DB000D1F88C000D2103F040FB0949D1F81C014A
:100DC0000D2103F03AFB0649D1F8AC010D2103F0E7
:100DD00034FB0349D1F83C020D2103F02EFB10BD7A
:100DE000000A0020200B002010B5024800F08AFD08
:100DF00010BD00000C06002010B5024800F082FD76
:100E000010BD00006C06002010B5024800F07AFD0D
:100E100010BD00004C05002010B5024800F072FD26
:100E200010BD0000AC05002010B5024800F06AFDBE
:100E300010BD0000CC06002010B5024800F062FD95
:100E400010BD0000EC04002010B5024800F05AFD6F
:100E500010BD00002C070020014608781038182328
:100E6000B0FBF3F20848805CC865032A05D908681E
:100E70006FF30900001D886503E008686FF309003F
:100E80008865886D704700001C6D000801460020D1
:100E90008A6A8B69CBB932B1012A0DD0022A03D0FC
:100EA000032A10D10EE000BFCB6A03F08073B3F1C8
:100EB000807F00D1012007E0CB6AB3F1C07F00D171
:100EC000012001E000E000BF34E08B69B3F5005F72
:100ED0001AD132B1012A07D0022A03D0032A11D134
:100EE0000AE000BF01200EE0CB6A03F08073B3F18B
:100EF000807F00D1012006E0CB6AB3F1C07F00D132
:100F0000012000E000BF15E032B1012A05D0022A1D
:100F100004D0032A0CD103E000BF00BF012008E089
:100F2000CB6A03F08073B3F1807F00D1012000E031
:100F300000BF00BF704730B50468246824F48024E3
:100F400005682C60046863608468402C04D10468E0
:100F5000A2600468E16003E00468A1600468E260E4
:100F600030BD704741807047704770471CB50446DC
:100F700001200021CDE900100A460B46A06B03F0CA
:100F800024FF94F82A000121CDE9001000231A461D
:100F90001946A06B03F03EFF1CBD1CB504460120A2
:100FA0000021CDE90010A1680A460023A06B03F0E0
:100FB0000CFF94F82A000021CDE900100B460A46E8
:100FC0000421A06B03F026FF1CBD1CB504460120C4
:100FD0000021CDE900100A460B46A06B03F0F5FE98
:100FE00094F82A000121CDE9001000231A46194681
:100FF000A06B03F00FFF1CBD10B5002201210448B7
:1010000000F068FF01220221014800F063FF10BDDB
:101010000008024010B5104800684FF4FA71B0FBA8
:10102000F1F201FB1200B0F5C87F0AD900220121BC
:101030000A4800F04FFF00220221084800F04AFF52
:1010400009E000220121054800F044FF01220221AD
:10105000024800F03FFF10BD2000002000080240C1
:1010600010B5024692F82030012B01D0022B06D198
:1010700010684069084314686061002010BD506A20
:1010800040F4802050620120F8E7F0B504460D4698
:101090001E4694F8207020688368A86800B900E0B4
:1010A00000BF012F01D0022F7CD103F0806030B946
:1010B00003F0006018B903F08050002873D0C3F328
:1010C0000161022905D9606A40F4000060620120D4
:1010D000F0BD012088403060A86860B9B5F800C054
:1010E000E86840EA4C5C206800F5C07000EB011035
:1010F000C0F800C00FE0D5E901C040EACC00D5F847
:101100000CC040EA0C00D4F800C00CF5C07C0CEB1D
:10111000011CCCF80000D5F810C0206800F5C070A4
:1011200000EB0110C0F804C0287D01280ED1206812
:1011300000F5C07000EB0110406840F4807C20682E
:1011400000F5C07000EB0110C0F804C0D0790006B3
:1011500092F806C040EA0C4092F805C040EA0C2C18
:1011600010794CEA000C206800F5C07000EB01100B
:10117000C0F80CC0D078000692F802C040EA0C40DB
:1011800092F801C040EA0C2092F800C040EA0C003E
:10119000D4F800C00CF5C07C0CEB011CCCF80800A6
:1011A000206801E016E00FE000F5C07000EB0110D0
:1011B000006840F0010C206800F5C07000EB0110E1
:1011C000C0F800C0002083E7606A40F4001060624D
:1011D00001207DE7606A40F480206062012077E7AB
:1011E000F0B504460A46216894F82050012D01D03C
:1011F000022D7ED1424901F50071086840F00100DE
:101200000860086820F47C5008600868566A40EA64
:1012100006200860107D00F01F06012000FA06F38A
:10122000C8699843C861A1F50071D069C8B9D1F8FF
:101230000C029843C1F80C02908880B2968940EA6B
:10124000064601F51070576940F83760108880B283
:10125000168940EA064601F51070576900EBC70091
:101260004660D069012819D1D1F80C021843C1F8A1
:101270000C02908880B2168840EA064601F510708C
:10128000576940F83760908980B2168940EA06466F
:1012900001F51070576900EBC7004660906928B9E6
:1012A000D1F804029843C1F8040204E0D1F8040222
:1012B0001843C1F80402106928B9D1F81402984300
:1012C000C1F8140204E0D1F814021843C1F8140262
:1012D000106A012804D1D1F81C021843C1F81C027D
:1012E000D1F8000220F00100C1F800020020F0BD9A
:1012F000FFE7606A40F4802060620120F7E70000A9
:101300000064004070470146002091F82020012A27
:1013100001D0022A11D10B689B6803F0806303B1EE
:10132000401C0B689B6803F0006303B1401C0B6812
:101330009B6803F0805303B1401C70472DE9F05FB8
:1013400004460025206846692068D0F8049020688B
:1013500087682068D0F80CA02068D0F810B020680A
:10136000D0F8188006F00100002855D007F00100E1
:10137000C0B101202168886007F0020018B1204642
:1013800000F0A5FA0EE007F0040010B145F4006586
:1013900008E007F0080010B145F4805502E020464F
:1013A00000F094FA07F48070C8B14FF4807021689F
:1013B000886007F4007018B1204600F08AFA0EE049
:1013C00007F4806010B145F4005508E007F40060B0
:1013D00010B145F4804502E0204600F079FA07F4A8
:1013E0008030C8B14FF480302168886007F4003045
:1013F00018B1204600F06FFA0EE007F4802010B11B
:1014000045F4004508E007F4002010B145F48035AC
:1014100002E0204600F05EFA06F0080038B10AF05B
:10142000100020B145F4007510202168C86006F056
:10143000040040B10AF0080028B108202168C86003
:10144000204600F00FFA06F0020038B12068C068AC
:1014500000F0030010B1204600F005FA06F040004D
:1014600038B10BF0100020B145F4806510202168E0
:10147000086106F0200040B10BF0080028B10820F8
:1014800021680861204600F0EFF906F0100038B13D
:101490002068006900F0030010B1204600F0E5F973
:1014A00006F4003040B109F0100028B11020216886
:1014B0004860204600F0DAF906F4803040B109F0C7
:1014C000080028B1082021684860204600F004FA8E
:1014D00006F4004088B309F0040078B306F4807085
:1014E00020B108F0010008B145F0010506F40070D4
:1014F00020B108F0020008B145F0020506F4806052
:1015000020B108F0040008B145F0040506F40060BD
:10151000A0B108F0700088B108F07000402817D022
:1015200006DC10280BD020280CD0302819D10CE074
:10153000502810D0602814D110E01DE019E045F0CB
:1015400008050FE045F010050CE045F0200509E026
:1015500045F0400506E045F0800503E045F4807560
:1015600000E000BF00BF2068806920F070002168A3
:1015700088610420216848602DB1606A2843606258
:101580002046FFF7BFFEBDE8F09F70B504460CB9DA
:10159000012070BD94F8200010B9204600F0B0F88A
:1015A0002068006820F002002168086000F098FCC4
:1015B00005460DE000F094FC401B0A2808D9606A3B
:1015C00040F400306062052084F820000120E0E74C
:1015D0002068406800F002000028EBD12068006815
:1015E00040F001002168086000F07AFC05460DE03B
:1015F00000F076FC401B0A2808D9606A40F40030ED
:101600006062052084F820000120C2E7206840685D
:1016100000F001000028EBD0207E012806D12068D0
:10162000006840F080002168086005E020680068DC
:1016300020F0800021680860607E012806D12068C3
:10164000006840F040002168086005E020680068FC
:1016500020F0400021680860A07E012806D12068A3
:10166000006840F020002168086005E020680068FC
:1016700020F0200021680860E07E012806D1206863
:10168000006820F010002168086005E0206800680C
:1016900040F0100021680860207F012806D12068F2
:1016A000006840F008002168086005E020680068D4
:1016B00020F0080021680860607F012806D12068BA
:1016C000006840F004002168086005E020680068B8
:1016D00020F0040021680860D4E902010843216970
:1016E0000843616908436168491E08432168C8616D
:1016F00000206062012084F82000002049E70000FB
:1017000010B586B00446142101A8FEF713FE4F4918
:101710002068884242D14E480068401C4C4908600D
:101720000846006801280FD100BF002000904948FA
:10173000006840F00070474908600846006800F003
:101740000070009000BF00BF00BF00200090414823
:101750001038006840F001003E4910390860084622
:10176000006800F00100009000BF00BF4FF4C050BF
:101770000190022002900020039003200490092091
:10178000059001A9344800F09DFA0022052114209B
:1017900000F086FC142000F073FC54E02F49206810
:1017A000884250D100BF002000902A48006840F0D5
:1017B0008060284908600846006800F0806000905A
:1017C00000BF00BF22480068401C2149086008464D
:1017D000006801280FD100BF002000901D4800685C
:1017E00040F000701B4908600846006800F0007077
:1017F000009000BF00BF00BF0020009015481038C7
:10180000006840F00200134910390860084600687B
:1018100000F00200009000BF00BF60200190022095
:10182000029000200390032004900920059001A954
:101830000B4800F047FA00220521402000F030FC60
:10184000402000F01DFC06B010BD00000064004008
:1018500000000020403802400000024000680040C4
:10186000000402407047704770477047704770B57A
:10187000044694F82000012822D1022084F8200098
:101880002068006820F001002168086000F028FB53
:1018900005460DE000F024FB401B0A2808D9606AC9
:1018A00040F400306062052084F82000012070BD03
:1018B0002068406800F001000028EBD16062F6E784
:1018C000606A40F4002060620120F0E770477047D2
:1018D00070477047704770477047014691F8350070
:1018E000022803D08020486501207047052081F838
:1018F00035000868006820F001000A6810600020C8
:10190000F3E70000F8B50446002000908C4800681A
:101910004FF41651B0FBF1F7A56D2E6894F85C10EA
:1019200008208840304098B12068006800F004002A
:1019300070B12068006820F004002168086094F805
:101940005C1008208840A860606D40F00100606570
:1019500094F85C1001208840304068B120684069EC
:1019600000F0800040B194F85C1001208840A8602D
:10197000606D40F00200606594F85C1004208840BF
:10198000304068B12068006800F0020040B194F86F
:101990005C1004208840A860606D40F00400606521
:1019A00094F85C1010208840304078B320680068BC
:1019B00000F0080050B394F85C1010208840A86034
:1019C0002068006800F4802080B12068006800F47E
:1019D000002028B9206CC8B12046216C884715E04A
:1019E000A06C98B12046A16C88470FE02068006881
:1019F00000F4807028B92068006820F00800216891
:101A00000860206C10B12046216C884794F85C1067
:101A1000202088403040002865D02068006800F011
:101A2000100000285FD094F85C1020208840A86047
:101A300094F83500052828D12068006820F01600A9
:101A4000216808602068406920F0800021684861B2
:101A5000206C08B9A06C28B12068006820F008004C
:101A60002168086094F85C103F208840A86000BF9F
:101A7000002084F8340000BF012084F83500206D78
:101A800010B12046216D8847F8BD2068006800F439
:101A9000802080B12068006800F4002028B9606CC4
:101AA00010B12046616C88471DE0E06BD8B120463C
:101AB000E16B884717E02068006800F4807068B91F
:101AC0002068006820F010002168086000BF002036
:101AD00084F8340000BF012084F83500E06B10B1B9
:101AE0002046E16B8847606D38B3606D00F00100FF
:101AF000F0B1052084F835002068006820F001006E
:101B00002168086000BF0098401C0090B84200D9CE
:101B100005E02068006800F001000028F3D100BF54
:101B200000BF002084F8340000BF012084F8350095
:101B3000E06C10B12046E16C884700BFA4E70000CC
:101B40004C0000202DE9F0410446002500F0C8F9C2
:101B5000074614B90120BDE8F081606A00B100BFFA
:101B600000BF002084F8340000BF022084F8350054
:101B70002068006820F00100216808600AE000F099
:101B8000AFF9C01B052805D920206065032084F823
:101B90003500E0E72068006800F001000028EED181
:101BA0002068056821480540D4E901010843E1683F
:101BB00008432169084361690843A1690843E16951
:101BC0000843216A08430543606A042803D1D4E925
:101BD0000B0108430543206805602068456925F02E
:101BE0000705606A0543606A04280DD1A06A0543B1
:101BF000E06A48B12046FFF749F928B14020606506
:101C0000012084F83500A6E7206845612046FFF7EB
:101C100023F9064694F85C103F208840B06000200D
:101C20006065012084F83500002094E73F8010F0C3
:101C30002DE9F04704460D4616461F464FF00008B2
:101C4000D4F8589000BF94F83400012802D1022043
:101C5000BDE8F087012084F8340000BF94F8350017
:101C6000012825D1022084F83500002060653B461C
:101C7000324629462046FFF75EF994F85C103F2073
:101C80008840C9F808002068006840F01600216804
:101C90000860206C28B12068006840F008002168C6
:101CA00008602068006840F001002168086006E0D4
:101CB00000BF002084F8340000BF4FF00208404607
:101CC000C6E70000F8B502460B46002500240020B8
:101CD0000021DCE0012606FA01F51E6806EA05048B
:101CE000AC4273D15E68012E08D05E68022E05D02A
:101CF0005E68112E02D05E68122E13D190684F00DC
:101D00000326BE40B0434F00DE68BE4030439060C3
:101D1000506801268E40B0431E79C6F300168E40EF
:101D200030435060D0684F000326BE40B0434F00A0
:101D30009E68BE403043D0605E68022E02D05E686E
:101D4000122E13D1CF0802F1200656F827004E07B5
:101D5000F70E0F26BE40B0434F07FF0E1E69BE4070
:101D60003043CF0802F1200646F8270010684F00E4
:101D70000326BE40B0431E7906F003064F00BE4066
:101D8000304310605E6806F08056B6F1805F7DD10A
:101D900000BF00260096404E366846F480463E4F0F
:101DA0003E603E46366806F48046009600BF00BF9F
:101DB0003A4E8F0856F827008E07370F0F26BE4081
:101DC000B043374EB24202D1002624E05EE0354EE9
:101DD000B24201D101261EE0334EB24201D10226A9
:101DE00019E0324EB24201D1032614E0304EB24225
:101DF00001D104260FE02F4EB24201D105260AE0A0
:101E00002D4EB24201D1062605E02C4EB24201D140
:101E1000072600E008268F073F0FBE4030431F4EC5
:101E20008F0846F82700264E3068A0435E6806F407
:101E30008036B6F5803F00D12043214E3060361DFC
:101E40003068A0435E6806F40036B6F5003F00D166
:101E500020431B4E361D3060361D3068A0435E683F
:101E600006F48016B6F5801F00D12043144E0836C4
:101E70003060361D3068A0435E6806F40016B6F583
:101E8000001F00D120430E4E0C363060491C102933
:101E9000FFF420AFF8BD000044380240083801408C
:101EA000000002400004024000080240000C024012
:101EB000001002400014024000180240001C0240C2
:101EC000003C0140024613690B400BB1012000E0C9
:101ED000002070470AB1816101E00B048361704703
:101EE00001480068704700004000002070B50446BB
:101EF0000CB9012070BD4CF6CC402168086045F259
:101F0000555021680860D4E9001048602168A06835
:101F10008860FFF7E5FF054606E0FFF7E1FF401B9D
:101F2000302801D90320E5E72068C0680028F4D1F3
:101F30004AF6AA20216808600020DBE701464AF63D
:101F4000AA200A681060002070470000034800685B
:101F5000034909780844014908607047400000209F
:101F60004800002010B50D48006840F400700B498F
:101F700008600846006840F4806008600846006811
:101F800040F480700860032000F0C8F8002000F0E2
:101F900007F800F04BF8002010BD0000003C0240A4
:101FA00070B588B00446002500260022214619207D
:101FB00000F076F8192000F063F800BF00200190CF
:101FC0001648006840F0010014490860084600689F
:101FD00000F00100019000BF00BF02A903A800F0BB
:101FE00073F900F0A9F945000D48B5FBF0F0461E65
:101FF0000C480D49086040F2E7310B48C16046606B
:1020000000210161816000F09FFC20B9064800F0CA
:10201000F5FC08B070BD0120FBE700004438024029
:1020200040420F00000001408C07002008B500BFAF
:10203000002000901148006840F480400F4908607B
:102040000846006800F48040009000BF00BF00BF59
:1020500000200090081F006840F08050091F0860B1
:102060000846006800F08050009000BF00BF0022CA
:102070000F21901E00F014F808BD00004438024003
:1020800001460846002809DB00F01F0301229A40A0
:1020900043099B0003F1E023C3F8002100BF704710
:1020A0002DE9F05F80460D461646002703F04CFAF6
:1020B000074639462A46334601F00700C0F1070AB1
:1020C000BAF1040F02D94FF0040A01E0C0F1070A87
:1020D000D14600F1040ABAF1070F02D24FF0000A0C
:1020E00001E0A0F1030AD4464FF0010A0AFA09FA06
:1020F000AAF1010A0AEA020A0AFA0CFA4FF0010BE5
:102100000BFA0CFBABF1010B0BEA030B4AEA0B04D5
:102110002146404603F020FABDE8F09F00BF00F0E2
:102120000702064B19684FF6FF031940044B0B4397
:1021300043EA0221014B196000BF70470CED00E03B
:102140000000FA0570B504460D460CB9012070BDBB
:102150005848006800F00F00A84209D255490D7098
:102160000846006800F00F00A84201D00120EEE709
:10217000207800F0020002281DD1207800F0040031
:10218000042805D14C48006840F4E0504A490860F2
:10219000207800F00800082805D14748006840F47E
:1021A0006040454908604448006820F0F000A1689C
:1021B000084341490860207800F00100A8B3606836
:1021C000012807D13C4808380068C0F34040B8B93E
:1021D0000120BCE76068022802D06068032807D1AC
:1021E000354808380068C0F3406048B90120AEE7C0
:1021F000314808380068C0F3400008B90120A6E75C
:102200002D48006820F00300616808432A490860EF
:10221000FFF766FE064609E0FFF762FE801B41F20B
:102220008831884202D9032091E707E022480068FC
:1022300000F00C006168B0EB810FEDD11D48006823
:1022400000F00F00A84209D91A490D70084600682D
:1022500000F00F00A84201D0012078E7207800F0BC
:102260000400042807D11448006820F4E050E16815
:10227000084311490860207800F00800082808D1B8
:102280000D48006820F46040216940EAC1000A4915
:10229000086000F061F808490968C1F30311074AB2
:1022A000515CC8400649086006480068FFF778FEA0
:1022B00000204CE7003C024008380240246D000832
:1022C0004C000020440000200F2202600D4A1268DA
:1022D00002F0030242600B4A126802F0F0028260D0
:1022E000084A126802F4E052C260064A126802F418
:1022F0006042D2080261044A126802F00F020A60CA
:102300007047000008380240003C02400148006865
:10231000704700004C00002000B5FFF7F7FF0449AC
:102320000968C1F38221034A515CC84000BD000026
:1023300008380240346D000800B5FFF7E7FF044994
:102340000968C1F34231034A515CC84000BD000036
:1023500008380240346D00082DE9F04700240025BC
:102360000026A1462548006800F00C0020B1042892
:1023700005D008283AD105E0DFF8849039E0DFF88D
:10238000849036E01D48001F006800F03F041B48A1
:10239000001F006800F4800078B11A481749091F2F
:1023A0000968C1F38811A0FB017001462246002391
:1023B0003846FDF765FF05460EE011480F49091F35
:1023C0000968C1F38811A0FB017001462246002371
:1023D0003846FDF755FF05460848001F0068C0F362
:1023E0000140401C4600B5FBF6F902E0DFF8109012
:1023F00000BF00BF4846BDE8F08700000838024033
:102400000024F40000127A00F8B504460CB901204B
:10241000F8BD207800F00100002874D0F948006869
:1024200000F00C0004280DD0F648006800F00C0005
:10243000082813D1F348001F006800F48000B0F5AD
:10244000800F0BD1EF4808380068C0F340400028E7
:1024500059D06068002856D10120D9E700BF6068D4
:10246000B0F5803F08D1E7480838006840F4803074
:10247000E449083908601EE06068B0F5A02F0DD16E
:10248000E0480838006840F48020DE4908390860D8
:102490000846006840F4803008600CE0D9480838ED
:1024A000006820F48030D749083908600846006881
:1024B00020F48020086000BF606890B1FFF710FD35
:1024C000054606E0FFF70CFD401B642801D90320F8
:1024D0009EE7CC4808380068C0F340400028F1D09F
:1024E00011E0FFF7FDFC054606E0FFF7F9FC401B95
:1024F000642801D903208BE7C24808380068C0F37C
:1025000040400028F1D1207800F0020002285FD17D
:10251000BC48006800F00C0058B1BA48006800F0F0
:102520000C0008281CD1B748001F006800F4800088
:10253000B0B9B44808380068C0F3400020B1E06882
:10254000012801D0012063E7AE480838006820F078
:10255000F800216940EAC100AA490839086037E05B
:10256000E06800B30120A8490860FFF7B9FC054600
:1025700006E0FFF7B5FC401B022801D9032047E71E
:10258000A04808380068C0F340000028F1D09D48FA
:102590000838006820F0F800216940EAC100994934
:1025A0000839086014E0002097490860FFF798FC9C
:1025B000054606E0FFF794FC401B022801D90320E2
:1025C00026E7904808380068C0F340000028F1D1A1
:1025D000207800F0080008282CD16069A8B10120FB
:1025E0008A490860FFF77CFC054606E0FFF778FCA7
:1025F000401B022801D903200AE782486C3000689A
:10260000C0F340000028F1D014E000207F490860AA
:10261000FFF766FC054606E0FFF762FC401B022858
:1026200001D90320F4E677486C300068C0F340001D
:102630000028F1D1207800F00400042870D1002790
:1026400070483830006800F0805090B900BF00201A
:1026500000906C483830006840F08050694938314B
:1026600008600846006800F08050009000BF00BF7E
:1026700001276748006800F48070B0B964480068BA
:1026800040F4807062490860FFF72AFC054606E0C6
:10269000FFF726FC401B022801D90320B8E65C485E
:1026A000006800F480700028F2D000BFA068012804
:1026B00008D154486830006840F001005149683141
:1026C00008601DE0A06805280DD14E4868300068FC
:1026D00040F004004B49683108600846006840F04B
:1026E000010008600CE047486830006820F00100F5
:1026F0004449683108600846006820F0040008601A
:1027000000BFA068A8B1FFF7EBFB054609E0FFF7A3
:10271000E7FB401B41F28831884202D9032077E66B
:1027200026E0384868300068C0F340000028EED04A
:1027300013E0FFF7D5FB054608E0FFF7D1FB401B90
:1027400041F28831884201D9032061E62D48683082
:102750000068C0F340000028EFD1012F07D12948BD
:102760003830006820F0805026493831086000BFBA
:10277000A069002845D02348006800F00C00082814
:102780005DD0A069022845D100201F490866FFF7E7
:10279000A7FB054606E0FFF7A3FB401B022801D973
:1027A000032035E6174808380068C0F34060002869
:1027B000F1D1D4E907010843616A40EA811101229D
:1027C000A06AC2EB500041EA00412C20005D41EAC2
:1027D00000600C49091F086001200B490866FFF7DB
:1027E0007FFB054606E0FFF77BFB401B022801D973
:1027F00003200DE6034808380068C0F34060002855
:10280000F1D03FE00838024000004742800E4742C6
:102810000070004000201C490866FFF761FB054678
:1028200006E0FFF75DFB401B022801D90320EFE51E
:1028300016480068C0F340600028F2D122E0A06989
:10284000012800D1E4E51148001D066806F4800166
:10285000E069814214D106F03F01206A81420FD124
:1028600047F6C0703040616A884209D106F44031B1
:10287000A06A814204D106F07061E06A814201D011
:102880000120C5E50020C3E50000474200380240B2
:102890007047704730B502460B4600BF92F83C00C7
:1028A000012801D1022030BD012082F83C0000BF88
:1028B000022082F83D00106844681068816824F0A6
:1028C00070041868044310684460184D1068A842EA
:1028D0001BD01068B0F1804F17D0154D1068A8427A
:1028E00013D0144D1068A8420FD0134D1068A842A1
:1028F0000BD0124D1068A84207D0114D1068A842A5
:1029000003D0104D1068A84205D121F0800158680D
:10291000014310688160012082F83D0000BF002063
:1029200082F83C0000BF00BFBDE70000000001408E
:102930000004004000080040000C0040000401407A
:10294000004001400018004010B504460CB90120B9
:1029500010BD94F83D0028B9002084F83C002046C2
:1029600000F00CF8022084F83D00211D206802F0E0
:1029700085F9012084F83D000020E9E738B50446D8
:102980002068B0F1804F18D100BF00200090194896
:10299000006840F00100174908600846006800F030
:1029A0000100009000BF00BF002205211C20FFF79E
:1029B00077FB1C20FFF764FB1BE00F49206888426F
:1029C00017D100BF002000900A48006840F00200C4
:1029D000084908600846006800F00200009000BF47
:1029E00000BF002205211D20FFF75AFB1D20FFF725
:1029F00047FB38BD403802400004004001460868EB
:102A0000C06840F001000B68D8600868806800F07A
:102A10000702062A05D00868006840F001000B682C
:102A20001860002070472DE9F04104460D4600BFB4
:102A300094F83C00012802D10220BDE8F081012079
:102A400084F83C0000BF022084F83D0020688668BE
:102A500026F0770626F47F4620688660286850288E
:102A600033D00CDC202850D004DC00284BD01028B8
:102A700051D149E0302849D040284CD139E0602874
:102A80002DD0702807D0B0F5805F03D0B0F5005F7F
:102A900041D10DE040E0D5E902136A68206802F0F8
:102AA00059F92068866846F077062068866033E02A
:102AB000D5E902136A68206802F04CF92068806842
:102AC00040F480402168886026E0EA6869682068F0
:102AD00002F054F95021206802F047F91CE0EA683E
:102AE0006968206802F05DF96021206802F03DF914
:102AF00012E0EA686968206802F040F94021206825
:102B000002F033F908E000BF00BF00BF2968206869
:102B100002F02BF900E000BF00BF012084F83D0067
:102B200000BF002084F83C0000BF00BF85E770476D
:102B300010B5044620680069C0F34000D8B1206891
:102B4000C068C0F34000B0B16FF0020021680861B6
:102B5000012020772068806900F0030018B120462A
:102B6000FFF7E5FF05E0204600F0ADF8204600F055
:102B7000ABF80020207720680069C0F38000D8B14E
:102B80002068C068C0F38000B0B16FF00400216815
:102B90000861022020772068806900F4407018B135
:102BA0002046FFF7C4FF05E0204600F08CF82046E1
:102BB00000F08AF80020207720680069C0F3C00088
:102BC000D8B12068C068C0F3C000B0B16FF0080091
:102BD00021680861042020772068C06900F00300A4
:102BE00018B12046FFF7A3FF05E0204600F06BF880
:102BF000204600F069F80020207720680069C0F3C3
:102C00000010D8B12068C068C0F30010B0B16FF0F8
:102C1000100021680861082020772068C06900F44E
:102C2000407018B12046FFF782FF05E0204600F013
:102C30004AF8204600F048F8002020772068006914
:102C400000F0010058B12068C06800F0010030B108
:102C50006FF0010021680861204600F037F8206815
:102C60000069C0F3C01058B12068C068C0F3C0103C
:102C700030B16FF08000216808612046FFF708FE40
:102C800020680069C0F3801058B12068C068C0F3A4
:102C9000801030B16FF0400021680861204600F0DC
:102CA00021F820680069C0F3401058B12068C0685E
:102CB000C0F3401030B16FF0200021680861204659
:102CC000FFF7E7FD10BD70477047000010B50446E0
:102CD00003492068884201D1FFF738F910BD000090
:102CE00000000140704770472DE9F0470446206816
:102CF00005682068C668206847694FF00008C1462B
:102D000005F00F08B8F1000F0AD105F0200038B126
:102D100006F0200020B1204602F010F9BDE8F0874F
:102D2000B8F1000F72D007F0010018B906F49070E6
:102D300000286BD005F0010030B106F4807018B1A6
:102D4000E06B40F00100E06305F0040030B107F0F3
:102D5000010018B1E06B40F00200E06305F00200F2
:102D600030B107F0010018B1E06B40F00400E063FF
:102D700005F0080048B106F0200010B907F0010086
:102D800018B1E06B40F00800E063E06B70B305F051
:102D9000200028B106F0200010B1204602F0CEF845
:102DA00020684069C0F38019E06B00F0080010B99A
:102DB000B9F1000F23D0204602F096F82068406950
:102DC00000F04000402816D12068406920F0400003
:102DD00021684861606B50B11748616B0865606B92
:102DE000FEF77BFD10B1606B016D88470CE020465B
:102DF000FFF779FF08E02046FFF775FF04E0204663
:102E0000FFF771FF0020E06388E7FFE705F080002F
:102E100030B106F0800018B1204602F0D7FA7DE705
:102E200005F0400030B106F0400018B1204602F035
:102E30006BF873E700BF71E7314E000810B5044628
:102E40000CB9012010BDA06900B100E000BF94F8EA
:102E5000390028B9002084F83800204600F028F80E
:102E6000242084F839002068C06820F400502168CC
:102E7000C860204602F0B6F82068006920F490404F
:102E8000216808612068406920F02A0021684861B3
:102E90002068C06840F400502168C8600020E063EA
:102EA000202084F8390084F83A000020CAE70000A6
:102EB00010B586B00446142101A8FDF73BFAE74996
:102EC0002068884256D100BF00200090E448006886
:102ED00040F01000E24908600846006800F0100069
:102EE000009000BF00BF00BF00200090DC481438F5
:102EF000006840F00100DA491439086008460068AB
:102F000000F00100009000BF00BF4FF4C0600190CE
:102F100002200290002003900320049007200590D7
:102F200001A9D048FEF7CEFECF48D04908604FF047
:102F3000006048600021CD488160C1604FF480612D
:102F40000161002141618161C16101624162FEF75D
:102F5000F9FD08B1FEF708F800BFC4486063846358
:102F600000BF002205212520FFF79AF82520FFF752
:102F700087F871E1BE492068884277D100BF002000
:102F80000090B748001F006840F40030B449091FA2
:102F900008600846006800F40030009000BF00BFE1
:102FA00000BF00200090AE481438006840F00100D7
:102FB000AB49143908600846006800F00100009031
:102FC00000BF00BF0C20019002200290002003905F
:102FD000032004900720059001A9A248FEF772FE85
:102FE000A448A54908604FF0006048600021A2484D
:102FF0008160C1604FF480610161002141618161A4
:10300000C16101624162FEF79DFD08B1FDF7ACFFB1
:1030100000BF99486063846300BF964818309749A1
:1030200008604FF0006048604021944881600021B2
:10303000C1604FF480610161002141618161C16122
:1030400001624162FEF77EFD08B1FDF78DFF00BF12
:103050008A482063846300BF002205212620FFF7F1
:103060001FF82620FFF70CF8F6E0FFE784492068F8
:10307000884279D100BF002000907948001F006885
:1030800040F480207649091F08600846006800F473
:103090008020009000BF00BF00BF0020009070485B
:1030A0001438006840F004006D491439086008467F
:1030B000006800F00400009000BF00BF4FF44060C3
:1030C000019002200290002003900320049007202A
:1030D000059001A96B48FEF7F5FD664860386A491E
:1030E00008604FF000604860002167488160C1605F
:1030F0004FF480610161002141618161C161016220
:103100004162FEF71FFD08B1FDF72EFF00BF5E48CC
:103110006063846300BF574830385C4908604FF0F3
:10312000006048604021594881600021C1604FF42F
:1031300080610161002141618161C161016241627F
:10314000FEF700FD08B1FDF70FFF00BF4F482063F9
:10315000846300BF002205212720FEF7A1FF27205E
:10316000FEF78EFF78E0FFE749492068884273D177
:1031700000BF002000903A48006840F02000384925
:1031800008600846006800F02000009000BF00BF03
:1031900000BF0020009032481438006840F004005E
:1031A0002F49143908600846006800F004000090B8
:1031B00000BF00BFC02001900220029000200390B9
:1031C000032004900820059001A92E48FEF77AFDFF
:1031D000254818382F4908608005486000212D488F
:1031E0008160C1604FF480610161002141618161B2
:1031F000C16101624162FEF7A5FC08B1FDF7B4FEB2
:1032000000BF24486063846300BF174860302249D0
:1032100008604FF02060486040211F488160002115
:10322000C1604FF480610161002141618161C16130
:1032300001624162FEF786FC08B1FDF795FE00BF12
:1032400015482063846300BF002205214720FEF754
:1032500027FF4720FEF714FF06B010BD0010014005
:10326000443802400000024040640240EC04002068
:1032700000440040886002404C050020AC0500205E
:1032800000480040000802400C0600206C060020A8
:1032900000140140CC0600202C07002077B581B037
:1032A0000446154694F83A00202850D1029800B1FF
:1032B00015B9012004B070BD00BF94F83800012892
:1032C00001D10220F6E7012084F8380000BF0298FF
:1032D000A062A5850020E063222084F83A001D4802
:1032E000616BC8631C48616B08641C48616BC864EF
:1032F0000020616B086502AE32682368191D2B46F9
:10330000606BFEF795FC00BF00200090206800680D
:10331000009020684068009000BF00BF00BF002000
:1033200084F8380000BF2068C06840F480702168CD
:10333000C8602068406940F0010021684861206849
:10334000406940F04000216848610020B2E7022057
:10335000B0E70000954E0008DB4E0008454E00081F
:1033600070477047704700BFFEE7000000BF2B4862
:10337000D0F88C0090F82C0050BB284890F88200C0
:1033800030BB2648D0F81C0190F82C0000BB234825
:1033900090F81201E0B92148D0F8AC0190F82C0067
:1033A000B0B91E4890F8A20190B91C48D0F83C0270
:1033B00090F82C0060B9194890F8320240B91848CA
:1033C000006803F0A1F81748006803F03DF921E018
:1033D000124801F0C5FA1149D1F88C00FDF7F2FA54
:1033E0000E48903001F0BCFA0C49D1F81C01FDF7F1
:1033F000E9FA0D4801F0B4FA0849D1F8AC01FDF73B
:10340000E1FA0948903001F0ABFA0449D1F83C02E6
:10341000FDF7D8FA012002F0B5FBA8E7000A00206A
:103420000800002010000020200B002010B50446EA
:10343000012211033148FEF74DFD31480168314842
:10344000006800F54870814209D32D4800682D4975
:1034500008602D480078401C40B22B4908702A486B
:1034600090F90000092836DA2748017801208840C1
:10347000204090B1224801682248006800F516708B
:1034800081420AD2012211461C48FEF723FD002288
:1034900002211A48FEF71EFD2FE01948016819485D
:1034A000006800F5167081420AD2002201211348FB
:1034B000FEF710FD012202211048FEF70BFD1CE073
:1034C000002201210D48FEF705FD002202210B48D4
:1034D000FEF700FD11E00C48007809280AD100220F
:1034E00001210648FEF7F6FC002202210348FEF700
:1034F000F1FC02E000200449087010BD0008024001
:1035000020000020280000202400002070B505467F
:103510000C4616460C4806601CB1A0B2FFF786FFA9
:1035200010E0012D04D0032D05D0052D09D105E0B3
:10353000FDF73AFA05E0FDF76DFD02E0FDF75CFDF1
:1035400000BF00BF70BD00002000002010B50E4875
:103550000E4908600320486000210C488160C1606A
:103560004FF4C02101614FF4A001416100210176B7
:1035700041768176C17601774177FEF706F808B18A
:10358000FDF7F2FC10BD000000640040BC0000200C
:1035900010B50E480E4908600320486000210C4811
:1035A0008160C1604FF4C02101614FF4A00141610D
:1035B0000021017641768176C17601774177FDF76A
:1035C000E4FF08B1FDF7D0FC10BD0000006800402A
:1035D000E400002008B500BF002000902A480068E1
:1035E00040F40010284908600846006800F4001004
:1035F000009000BF00BF00BF002000900846006898
:1036000040F4800008600846006800F480000090E4
:1036100000BF00BF002205210C20FEF741FD0C2059
:10362000FEF72EFD002205210E20FEF739FD0E20AB
:10363000FEF726FD002205211020FEF731FD1020A7
:10364000FEF71EFD002205211120FEF729FD1120A5
:10365000FEF716FD002205213920FEF721FD392055
:10366000FEF70EFD002205213A20FEF719FD3A2053
:10367000FEF706FD002205214520FEF711FD45203D
:10368000FEF7FEFC08BD00003038024000B59DB0DA
:103690001C221A4916A8FCF734FE002116A802F0D5
:1036A00082FA174908601C2214491C310FA8FCF744
:1036B00028FE00210FA802F076FA124908601C22A9
:1036C0000E49383108A8FCF71CFE002108A802F0BA
:1036D0006AFA0D4908601C220849543101A8FCF718
:1036E00010FE002101A802F05EFA084908600548B2
:1036F000006802F0A9FF1DB000BD0000AC6C00081E
:1037000004000020080000200C0000201000002011
:1037100000B587B0142102A8FCF70CFE00BF002002
:1037200001904048006840F080003E49086008462B
:10373000006800F08000019000BF00BF00BF0020C3
:1037400001900846006840F00400086008460068E0
:1037500000F00400019000BF00BF00BF00200190F6
:103760000846006840F0010008600846006800F064
:103770000100019000BF00BF00BF0020019008467B
:10378000006840F0020008600846006800F002008F
:10379000019000BF00BF002241F203012248FEF762
:1037A00099FB0320029001200390002004900590D3
:1037B00002A91D48FEF786FA182002900020039007
:1037C0000120049002A91848FEF77CFAC02002905C
:1037D00000200390049002A91448FEF773FA4FF4F6
:1037E0000060029000200390049002A91048FEF7A8
:1037F00069FA4FF44070029000200390049002A9EF
:103800000948FEF75FFA4FF48050029001200390C0
:10381000022004900020059002A90348FEF752FA06
:1038200007B000BD303802400008024000000240EE
:103830000004024010B507480749086000204860AE
:1038400040F6FF7104488160FEF750FB08B1FDF7B8
:103850008BFB10BD003000406003002000B587B036
:1038600000200390049005900690019002904FF084
:10387000804014490860532048600021114881604D
:1038800040F2F311C1600021016180218161FFF7E5
:103890005BF808B1FDF768FB4FF48050039003A973
:1038A0000848FFF7C0F808B1FDF75EFB0020019063
:1038B000029001A90348FEF7EDFF08B1FDF754FBA4
:1038C00007B000BD6C03002000B587B00020039056
:1038D00004900590069001900290154815490860E3
:1038E0005320486000211348816040F2E731C160F5
:1038F0000021016180218161FFF726F808B1FDF701
:1039000033FB4FF48050039003A90A48FFF78BF86C
:1039100008B1FDF729FB00200190029001A905489C
:10392000FEF7B8FF08B1FDF71FFB07B000BD0000B0
:1039300000040040AC03002010B50C480C4908609E
:103940000C4848604FF48051094881600021C160F3
:103950004FF4806101610421416100218161C161F5
:10396000FFF76CFA08B1FDF7FFFA10BD0010014037
:10397000EC030020A086010010B50B480B4908603D
:103980004FF4E1304860002108488160C160016166
:103990000C21416100218161C161FFF74FFA08B13B
:1039A000FDF7E2FA10BD0000004400402C040020A6
:1039B00010B50C480C4908604FF4E1304860002114
:1039C00009488160C1604FF4806101610C2141614F
:1039D00000218161C161FFF731FA08B1FDF7C4FA36
:1039E00010BD0000004800406C04002010B50C48D9
:1039F0000C4908604FF4E1304860002109488160BB
:103A0000C1604FF4806101610C214161002181613D
:103A1000C161FFF713FA08B1FDF7A6FA10BD000067
:103A200000140140AC04002000BFFEE701B52DEDFD
:103A3000020B90B012980F901298D0F88C002030A2
:103A40000E900F9880680B90002801DB0B9801E026
:103A50000B9840420A90FCF700FECDE90C010F984C
:103A6000806800281ADA0F9880680790FCF7F5FD47
:103A70009FEDFE0B53EC102BCDE908019DED080BDB
:103A800051EC100BFCF761FCCDE90A019DED0A0B2E
:103A900051EC100BFCF7F2FD0F9988600F988068CD
:103AA0000990FCF7DAFD9FEDF30B53EC102BCDE9F9
:103AB0000A019DED0A0B51EC100BFCF729FE7CD29C
:103AC0000F9880680990FCF7C8FD9FEDEC0B53EC54
:103AD000102BCDE90A019DED0A0B51EC100BFCF700
:103AE000FFFDECD20F9880680790FCF7B6FD9FEDC4
:103AF000E10B53EC102BCDE908019DED080B51ECC7
:103B0000100BFCF7C3FCCDE90A019DED100B53EC43
:103B1000102B9DED0A0B51EC100BFCF7E1FD4DD283
:103B20000F9840680790FCF798FD9FEDD20B53EC7F
:103B3000102BCDE908019DED080B51EC100BFCF7A3
:103B400004FCCDE90A019DED100B53EC102B9DED0B
:103B50000A0B51EC100BFCF7DBFD2FD20F984068DD
:103B60000590FCF77AFDCDE908010F988068039075
:103B7000FCF773FDCDE904019DED100B53EC102B08
:103B80009DED040B51EC100BFCF783FCCDE9060115
:103B90009DED080B53EC102B9DED060B51EC100B1B
:103BA000FCF7D3FBCDE90A019DED0A0B51EC100B9C
:103BB000FCF7C6FD0F998867E8E299E00F988068E6
:103BC0000990FCF74AFDCDE90A019DED100B53EC7D
:103BD000102B9DED0A0B51EC100BFCF799FD43D215
:103BE0000F9840680390FCF738FDCDE906010F9867
:103BF00080680190FCF731FDCDE902019DED100BCD
:103C000053EC102B9DED020B51EC100BFCF741FC1B
:103C1000CDE904019DED060B53EC102B9DED040B3B
:103C200051EC100BFCF791FB9FED960B53EC102B16
:103C3000CDE908019DED080B51EC100BFCF785FB5D
:103C4000CDE90A019DED0A0B51EC100BFCF778FD54
:103C50000F9988670E9890ED000AFFEE000A20EE9B
:103C6000200A80ED000A91E20F9840680390FCF76B
:103C7000F4FCCDE906010F9880680190FCF7EDFC9B
:103C8000CDE902019DED100B53EC102B9DED020BC5
:103C900051EC100BFCF7FDFBCDE904019DED060B8B
:103CA00053EC102B9DED040B51EC100BFCF74DFB6E
:103CB0009FED740B53EC102BCDE908019DED080B23
:103CC00051EC100BFCF7E2FBCDE90A019DED0A0B6C
:103CD00051EC100BFCF734FD0F9988670E9890EDAE
:103CE000000AFFEE000A20EE200A80ED000A4DE2F5
:103CF0000F9880680990FCF7B0FC9FED5E0B53ECC9
:103D0000102BCDE90A019DED0A0B51EC100BFCF7CD
:103D1000E7FC7CD20F9880680790FCF79EFC9FED33
:103D2000550B53EC102BCDE908019DED080B51EC20
:103D3000100BFCF70AFBCDE90A019DED100B53ECCB
:103D4000102B9DED0A0B51EC100BFCF7C9FC70D247
:103D50000F9880680590FCF780FC9FED460B53ECB4
:103D6000102BCDE906019DED060B51EC100BFCF775
:103D7000ECFA9FED440B53EC102BCDE908019DEDBF
:103D8000080B51EC100BFCF7E0FACDE90A019DEDB0
:103D9000100B53EC102B9DED0A0B51EC100BFCF7A4
:103DA000B7FC46D20F9840680390FCF756FCCDE96B
:103DB00006010F9880680190FCF74FFCCDE90201E5
:103DC0009DED100B53EC102B9DED020B51EC100BE5
:103DD000FCF75FFBCDE904019DED060B53EC102BC6
:103DE0009DED040B51EC100BFCF7AFFA9FED250B8A
:103DF00053EC102BCDE908019DED080B51EC100B95
:103E0000FCF744FBCDE90A019DED0A0B00E0AAE0B6
:103E100051EC100BFCF794FC0F9988670E9890ED0D
:103E2000000AFFEE000A20EE200A80ED000AADE154
:103E3000FFE70F9880680790FCF70FFC9FED0D0BD4
:103E400053EC102BCDE908019DED080B51EC100B44
:103E5000FCF77BFACDE90A019DED100B53EC102B1A
:103E60009DED0A0B51EC100B10E00000000000006B
:103E700000403D410000000000401D4100000000E6
:103E800000F035410000000000402D41FCF740FCEF
:103E90002ED20F9840680590FCF7DFFBCDE90801B2
:103EA0000F9880680390FCF7D8FBCDE904019DEDE5
:103EB000100B53EC102B9DED040B51EC100BFCF789
:103EC000E8FACDE906019DED080B53EC102B9DEDB2
:103ED000060B51EC100BFCF738FACDE90A019DED09
:103EE0000A0B51EC100BFCF72BFC0F9988674DE186
:103EF0000F9840680590FCF7B0FBCDE908010F98DA
:103F000080680190FCF7A9FB1FED280B53EC102BE8
:103F1000CDE904019DED100B51EC100BFCF7B6FA46
:103F2000CDE902019DED040B53EC102B9DED020B2E
:103F300051EC100BFCF7AAFACDE906019DED080B38
:103F400053EC102B9DED060B51EC100BFCF7FDF91B
:103F5000CDE90A019DED0A0B51EC100BFCF7F0FBCB
:103F60000F99886712E10F9880680790FCF775FB3E
:103F70001FED400B53EC102BCDE908019DED080B14
:103F800051EC100BFCF782FACDE90A019DED100B04
:103F900053EC102B9DED0A0B51EC100BFCF7B8FB0A
:103FA0006DD20F9880680590FCF757FB1FED4F0B03
:103FB00053EC102BCDE906019DED060B51EC100BD7
:103FC000FCF764FA1FED510B53EC102BCDE90801FF
:103FD0009DED080B51EC100BFCF758FACDE90A01E6
:103FE0009DED100B53EC102B9DED0A0B51EC100BBB
:103FF000FCF776FB43D20F9840680390FCF72DFB4B
:10400000CDE906010F9880680190FCF726FBCDE909
:1040100002019DED100B53EC102B9DED020B51ECAA
:10402000100BFCF736FACDE904019DED060B53ECBD
:10403000102B9DED040B51EC100BFCF786F91FEDD6
:104040006F0B53EC102BCDE908019DED080B51ECE3
:10405000100BFCF77AF9CDE90A019DED0A0B51EC42
:10406000100BFCF76DFB0F9988670E9890ED000A16
:10407000FFEE000A20EE200A80ED000A86E00F988D
:1040800080680790FCF7E9FA1FED860B53EC102BC4
:10409000CDE908019DED080B51EC100BFCF7F6F98A
:1040A000CDE90A019DED100B53EC102B9DED0A0B91
:1040B00051EC100BFCF714FB2ED20F9840680590C2
:1040C000FCF7CBFACDE908010F9880680390FCF764
:1040D000C4FACDE904019DED100B53EC102B9DEDBE
:1040E000040B51EC100BFCF7D4F9CDE906019DED62
:1040F000080B53EC102B9DED060B51EC100BFCF74D
:1041000024F9CDE90A019DED0A0B51EC100BFCF7E7
:1041100017FB0F99886739E00F9840680590FCF706
:104120009CFACDE908010F9880680190FCF795FA98
:10413000CDE904019DED100B53EC102B1FEDB50BD9
:1041400051EC100BFCF701F9CDE902019DED040BD8
:1041500053EC102B9DED020B51EC100BFCF796F974
:10416000CDE906019DED080B53EC102B9DED060BE0
:1041700051EC100BFCF7E9F8CDE90A019DED0A0BB3
:1041800051EC100BFCF7DCFA0F99886713B000BDF7
:1041900070B504460D4684F880500848C4F888007D
:1041A000002186200153012104F1820001F0CAF9A7
:1041B000002104F18200FCF7D5FE70BDBC08002090
:1041C00002200649C1F84C0200BF00F009F8FCF7D4
:1041D000DFFD012001F0D6FCF7E70000000A002017
:1041E00010B52DED108B864890ED900A20EE000A58
:1041F000D0ED910A90ED911A00EE810A10EE101A9E
:104200000846FCF75AFA41EC190BB0EE490AF0EEF9
:10421000690A01F061FBB0EE408AF0EE608A9FED22
:10422000790B53EC102B51EC180BFCF735F9774A4E
:1042300003C2734890ED920AB5EEC00AF1EE10FA8F
:104240003ADB9FED730B01F09BF9B0EE40DAF0EE34
:1042500060DA9FED710B53EC102B51EC1D0BFCF74A
:104260001BF941EC1C0B9FED6C0B53EC102BFCF776
:1042700013F941EC1A0B624890ED920A10EE101AF5
:104280000846FCF71AFA41EC1B0B53EC1A2BFCF70F
:1042900075F941EC190B9FED620B53EC102BFCF7F9
:1042A000FBF841EC180B9FED600B53EC102BFCF767
:1042B000F3F85F4A03C259E09FED550B01F060F936
:1042C000B0EE40DAF0EE60DA9FED530B53EC102BBA
:1042D00051EC1D0BFCF7E0F841EC1C0B9FED4E0B75
:1042E00053EC102BFCF7D8F841EC1A0B9FED480B60
:1042F00001F046F9B0EE40FAF0EE60FA9FED460BA1
:1043000053EC102B51EC1F0BFCF7C6F841EC1E0BC5
:104310009FED410B53EC102BFCF7BEF841EC1C0B4E
:10432000374890ED920A10EE101A0846FCF7C5F9CE
:1043300041EC1D0B53EC1C2BFCF707F841EC1B0B5D
:1043400053EC1A2BFCF71AF941EC190B9FED340BC7
:1043500053EC102BFCF7A0F841EC180B9FED320B3F
:1043600053EC102BFCF798F8314A03C2274890ED24
:10437000000B51EC100BFCF7E3F92149D1F88C103C
:104380000862224890ED000B51EC100BFCF7D8F9B5
:104390001B49D1F81C1108621C4890ED000B51EC30
:1043A000100BFCF7CDF91649D1F8AC11086217488B
:1043B00090ED000B51EC100BFCF7C2F91049D1F84D
:1043C0003C1208621A4890ED000B0D48FFF72EFBD7
:1043D000174890ED000B0A489030FFF727FB144870
:1043E00090ED000B1348FFF721FB114890ED000BF7
:1043F00010489030FFF71AFBBDEC108B10BD000089
:10440000000A0020000000000000244038000020C6
:10441000000000000000000000000000000000405C
:10442000000000000000C0400000000000406D409F
:1044300030000020200B0020704770B504460D4668
:1044400004B970BD608D05F01F0108436085092D1A
:104450001AD006DC032D0BD0042D0DD0072D23D14F
:104460000EE00A2D14D00D2D16D0162D1CD117E0FC
:104470002046FCF7AAFD18E02046FCF777FD14E083
:10448000204600F0CEFA10E02046FCF786FD0CE056
:104490002046FCF76AFD08E0204600F0DAFA04E066
:1044A000204600F0BDFA00E000BF00BF0120616BB4
:1044B00081F820004FF6FF71606901EA40106085C5
:1044C00000BFBEE780ED000AC0ED010A80ED021AD0
:1044D000C0ED051A80ED0B3A80ED062AC0ED082AE2
:1044E000DFED0A3AC0ED033ADFED083AC0ED043AD9
:1044F000DFED063AC0ED073ADFED043AC0ED093AC8
:10450000DFED023AC0ED0A3A7047000000000000FB
:10451000D0ED1E0A90ED010AB8EEC00A30EEC00AD6
:1045200080ED090A90ED090AD0ED0B0AB4EEE00A1D
:10453000F1EE10FA03DD90ED0B0A80ED090A90ED23
:10454000090AD0ED0B0AF1EE600AB4EEE00AF1EED2
:1045500010FA05D290ED0B0AB1EE400A80ED090A7F
:1045600090ED090AB5EEC00AF1EE10FA0CDD90EDFF
:10457000090AD0ED0C0AB4EEE00AF1EE10FA03D20B
:104580009FED990A80ED090A90ED090AB5EEC00A7F
:10459000F1EE10FA0CD290ED090AD0ED0C0AB4EE4F
:1045A000E00AF1EE10FA03DD9FED8F0A80ED090AB3
:1045B00090ED0D0AD0ED090A30EE200A80ED0D0ACB
:1045C00090ED0D0AD0ED0E0AB4EEE00AF1EE10FA0D
:1045D00003DD90ED0E0A80ED0D0A90ED0D0AD0ED91
:1045E0000E0AF1EE600AB4EEE00AF1EE10FA05D21E
:1045F00090ED0E0AB1EE400A80ED0D0A90ED090A29
:10460000D0ED0A0A30EE600A80ED0F0A90ED090A3B
:1046100080ED0A0A90ED060AD0ED090A20EE200A84
:10462000D0ED070A90ED0D1A00EE810AD0ED080AD0
:1046300090ED0F1A00EE810A80ED100A90ED100A3D
:10464000D0ED110AB4EEE00AF1EE10FA03DD90EDC0
:10465000110A80ED100A90ED100AD0ED110AF1EE6A
:10466000600AB4EEE00AF1EE10FA05D290ED110AFC
:10467000B1EE400A80ED100AD0ED100AB0F900103A
:1046800000EE101AB8EEC00A30EEC00A80ED150A2E
:1046900090ED150AD0ED170AB4EEE00AF1EE10FA2B
:1046A00003DD90ED170A80ED150A90ED150AD0EDA7
:1046B000170AF1EE600AB4EEE00AF1EE10FA05D244
:1046C00090ED170AB1EE400A80ED150A90ED150A3B
:1046D000B5EEC00AF1EE10FA0CDD90ED150AD0ED42
:1046E000180AB4EEE00AF1EE10FA03D29FED3E0A8A
:1046F00080ED150A90ED150AB5EEC00AF1EE10FA3C
:104700000CD290ED150AD0ED180AB4EEE00AF1EEE5
:1047100010FA03DD9FED340A80ED150A90ED190AB9
:10472000D0ED150A30EE200A80ED190A90ED190A35
:10473000D0ED1A0AB4EEE00AF1EE10FA03DD90EDC6
:104740001A0A80ED190A90ED190AD0ED1A0AF1EE55
:10475000600AB4EEE00AF1EE10FA05D290ED1A0A02
:10476000B1EE400A80ED190A90ED150AD0ED160A57
:1047700030EE600A80ED1B0A90ED150A80ED160AF6
:1047800090ED120AD0ED150A20EE200AD0ED130AA2
:1047900090ED191A00EE810AD0ED140A90ED1B1A63
:1047A00000EE810A80ED1C0A90ED1C0AD0ED1D0A76
:1047B000B4EEE00AF1EE10FA03DD90ED1D0A80ED93
:1047C0001C0A90ED1C0AD0ED1D0AF1EE600AB4EE51
:1047D000E00AF1EE10FA05D290ED1D0AB1EE400AA2
:1047E00080ED1C0A7047000000000000D0ED1F0A99
:1047F000B0F9001000EE101AB8EEC00A30EEC00A90
:1048000080ED150A90ED150AD0ED170AB4EEE00A16
:10481000F1EE10FA03DD90ED170A80ED150A90ED28
:10482000150AD0ED170AF1EE600AB4EEE00AF1EED7
:1048300010FA05D290ED170AB1EE400A80ED150A84
:1048400090ED150AB5EEC00AF1EE10FA0CDD90ED10
:10485000150AD0ED180AB4EEE00AF1EE10FA03D210
:104860009FED3E0A80ED150A90ED150AB5EEC00ADF
:10487000F1EE10FA0CD290ED150AD0ED180AB4EE54
:10488000E00AF1EE10FA03DD9FED340A80ED150A1F
:1048900090ED190AD0ED150A30EE200A80ED190AC4
:1048A00090ED190AD0ED1A0AB4EEE00AF1EE10FA12
:1048B00003DD90ED1A0A80ED190A90ED190AD0ED8A
:1048C0001A0AF1EE600AB4EEE00AF1EE10FA05D22F
:1048D00090ED1A0AB1EE400A80ED190A90ED150A22
:1048E000D0ED160A30EE600A80ED1B0A90ED150A35
:1048F00080ED160A90ED120AD0ED150A20EE200A7E
:10490000D0ED130A90ED191A00EE810AD0ED140AC9
:1049100090ED1B1A00EE810A80ED1C0A90ED1C0A36
:10492000D0ED1D0AB4EEE00AF1EE10FA03DD90EDD1
:104930001D0A80ED1C0A90ED1C0AD0ED1D0AF1EE57
:10494000600AB4EEE00AF1EE10FA05D290ED1D0A0D
:10495000B1EE400A80ED1C0A704700000000000024
:1049600070B5054695F880002749441820789628A8
:1049700032DA2846FFF73AFF2448854207D1402122
:104980002348FDF79FFA10B92078401C20701F487B
:104990009030854207D180211D48FDF793FA10B968
:1049A0002078401C20701B48854208D14FF480714C
:1049B0001948FDF787FA10B92078401C2070154877
:1049C0009030854208D14FF400711348FDF77AFA10
:1049D00010B92078401C20702078962804D100203F
:1049E00068602078401C2070207897280BD19FEDBC
:1049F0000B0A85ED1E0A002105F1820000F0A2FDE0
:104A00002846FFF785FD70BD1A000020000A00202F
:104A100000000240200B00200008024000000000BF
:104A200070471CB5044601200021CDE90010A168A3
:104A30000A460023A06B00F0C8F994F82A00002170
:104A4000CDE900100B460A460421A06B00F0E2F904
:104A50001CBD7CB5044603200021CDE90010D4E93B
:104A600008532A46606B00F0B0F994F82A00002140
:104A7000CDE900100B460A460421A06B00F0CAF9EC
:104A80007CBD000000BF2948FDF758FA284BD3F839
:104A90007422D3F85012D3F84C02FEF737FD2448A5
:104AA000D0F85002E0B123480078C8B1224800682D
:104AB00001F0CAFD1E48D0F84C02022804D11F485C
:104AC000006801F0C1FD08E01948D0F84C02012847
:104AD00003D11B48006801F0B7FD0020154908709C
:104AE0001348D0F85002E0B912480078C8B912480B
:104AF000006801F009FD0E48D0F84C02022804D1EC
:104B00000E48006801F000FD08E00948D0F84C02AA
:104B1000012803D10A48006801F0F6FC012005498C
:104B20000870012001F02EF8ADE7000060030020BE
:104B3000000A0020140000200C00002008000020C3
:104B40001000002010B500BF502080F31188BFF383
:104B50004F8FBFF36F8F00BF01F082FF18B14FF08E
:104B600080500449086000BF002080F3118800BF16
:104B700010BD000004ED00E000B593B0302107A89F
:104B8000FBF7D8FB142102A8FBF7D4FB00BF0020E1
:104B900001902548006840F080502349086008468D
:104BA000006800F08050019000BF00BF00BF0020EF
:104BB00001901E48006840F480401C490860084687
:104BC000006800F48040019000BF00BF09200790FA
:104BD0004FF48030089001200C9002200D90410588
:104BE0000E9104210F91A82110910221119104210D
:104BF000129107A8FDF708FC08B1FCF7B5F90F20E2
:104C0000029002200390002004904FF4A0500590E1
:104C10004FF480500690052102A8FDF793FA08B1E1
:104C2000FCF7A2F913B000BD40380240007000400C
:104C30000548006840F47000034908604FF00060C8
:104C4000014980390860704788ED00E010B50248DE
:104C5000FDF76EFF10BD00008C07002010B5024864
:104C6000FDF766FF10BD00006C03002010B5024880
:104C7000FDF75EFF10BD0000AC03002010B5026818
:104C8000294B98420ED0B0F1804F0BD0274B984261
:104C900008D0274B984205D0264B984202D0264B8D
:104CA000984203D122F070024B681A431E4B98427F
:104CB00020D0B0F1804F1DD01C4B98421AD01C4B15
:104CC000984217D01B4B984214D01B4B984211D0DE
:104CD0001A4B98420ED01A4B98420BD0194B98425F
:104CE00008D0194B984205D0184B984202D0184B67
:104CF000984203D122F44072CB681A4322F0800319
:104D00004C6943EA040202608B68C3620B688362E9
:104D1000054B984202D0084B984201D10B690363BE
:104D20000123436110BD0000000001400004004069
:104D300000080040000C0040000401400040014019
:104D4000004401400048014000180040001C0040A1
:104D50000020004030B50C46816821F47F4142EAD2
:104D6000032525432943816030BD0A46816821F02F
:104D7000700142F0070319438160704730B50B465C
:104D80001446026A056A25F001050562816921F071
:104D9000F00141EA041122F00A021A438161026221
:104DA00030BD30B50B461446056A25F01005056286
:104DB0008169026A21F4704141EA043122F0A002C3
:104DC00042EA03128161026230BD2DE9F05F0546BF
:104DD00017469846DDE90A69062E04DCB9F1070F8B
:104DE00001DCB14501DCBDE8F09F34460BE0A200D8
:104DF000BA46C34650465946FBF773FAC1B205F1AD
:104E000018000155641C4C45F1DD012085F8200097
:104E100000BFE8E770B5DDE90445016142608360E9
:104E2000C460056000260675012680F8206070BD0C
:104E300070B50546AC6B0020E085E0842046FDF7A8
:104E400052FF70BD70B506460025B46B20684069FE
:104E5000C0F3C01594F83900212805D125B10020F0
:104E6000E084204600F060F820684069C0F38015B7
:104E700094F83A00222805D125B10020E08520468B
:104E800000F032F8E06B40F01000E0632046FDF7E0
:104E90002AFF70BD70B50546AC6B2868006800F449
:104EA0008070B0B90020E0852068C06820F4807070
:104EB0002168C8602068406920F0010021684861CD
:104EC0002068406920F0400021684861202084F873
:104ED0003A002046FEF744FA70BD70B50446A56B53
:104EE0002846FEF73EFA70BD0168C96821F490714A
:104EF0000268D1600168496921F0010102685161CD
:104F0000202180F83A10704710B504462068C06828
:104F100020F040002168C860202084F83900204635
:104F2000FEF720FA002010BD0168C96821F0C00119
:104F30000268D160202180F83910704770B50446AE
:104F400094F83A0022284AD1A068B0F5805F13D1C6
:104F5000A56A206940B920684068C0F3080028802D
:104F6000A06A801CA06219E020684068C0B2288056
:104F7000A06A401CA06211E0206938B9206840682E
:104F8000C1B2A26A501CA062117007E0206840689C
:104F900000F07F01A26A501CA0621170E08D401EDB
:104FA00080B2E085C8B92068C06820F02000216880
:104FB000C8602068C06820F480702168C8602068DC
:104FC000406920F0010021684861202084F83A00FF
:104FD0002046FEF7C5F9002070BD0020FCE7022046
:104FE000FAE700002DE9F84F04462068006920F434
:104FF0004050E1680843216808612169A0680843BE
:1050000061690843E169084300902068C06849F27B
:105010000C618843009908432168C8602068406992
:1050200020F44070A169084321684861E069B0F547
:10503000004F75D1E3492068884203D0E2492068D7
:1050400088426FD1FDF778F9814602206168A0FBA4
:1050500001510B461920A9FB00712A463846FBF77F
:105060000FF96421B0FBF1F04FEA001A02206168E9
:10507000A0FB01510B461920A9FB00712A463846B6
:10508000FBF7FEF8074602206168A0FB01510B46C2
:105090001920A9FB00B12A465846FBF7F1F8642114
:1050A000B0FBF1F000EBC00101EB0010A7EB8000BA
:1050B000322101EBC0006421B0FBF1F000F0F800F8
:1050C0000AEB400A02206168A0FB01510B4619203F
:1050D000A9FB00712A463846FBF7D2F807460220A2
:1050E0006168A0FB01510B461920A9FB00B12A46BB
:1050F0005846FBF7C5F86421B0FBF1F000EBC001A6
:1051000001EB0010A7EB8000322101EBC00064210D
:10511000B0FBF1F000F007005044216888604FE1D7
:105120006EE0FFE7FDF7F8F8814602206168A0FB1A
:1051300001510B461920A9FB00712A463846FBF79E
:105140009FF86421B0FBF1F04FEA001A0220616879
:10515000A0FB01510B461920A9FB00712A463846D5
:10516000FBF78EF8074602206168A0FB01510B4651
:105170001920A9FB00B12A465846FBF781F86421A3
:10518000B0FBF1F000EBC00101EB0010A7EB8000D9
:10519000322101EBC0006421B0FBF1F000F0F80017
:1051A0000AEB400A02206168A0FB01510B4619205E
:1051B000A9FB00712A463846FBF762F80746022031
:1051C0006168A0FB015003461920A9FB00B12A46E3
:1051D0005846FBF755F86421B0FBF1F000EBC00135
:1051E00001EB0010A7EB8000322101EBC00064212D
:1051F000B0FBF1F000F00700504421688860DFE068
:1052000070492068884203D06F49206888426BD17A
:10521000FDF792F8814604206168A0FB01510B461E
:105220001920A9FB00712A463846FBF729F8824667
:1052300004206168A0FB01510B461920A9FB0071F5
:105240002A463846FBF71CF86421B0FBF1F000EB6E
:10525000C00101EB0010AAEB8000322101EB00102D
:105260006421B0FBF1F000F0F00A04206168A0FBBB
:10527000015003461920A9FB00712A463846FAF767
:10528000FFFF6421B0FBF1F00AEB001A0420616813
:10529000A0FB01510B461920A9FB00712A46384694
:1052A000FAF7EEFF074604206168A0FB01500346B1
:1052B0001920A9FB00B12A465846FAF7E1FF6421FC
:1052C000B0FBF1F000EBC00101EB0010A7EB800098
:1052D000322101EB00106421B0FBF1F000F00F006F
:1052E0005044216888606BE0FDF716F88146042081
:1052F0006168A0FB015003461920A9FB00712A46F2
:105300003846FAF7BDFF824604206168A0FB0150D1
:1053100003461920A9FB00712A463846FAF7B0FF68
:105320006421B0FBF1F000EBC00101EB0010AAEB2F
:105330008000322101EB00106421B0FBF1F000F09D
:10534000F00A04206168A0FB015003461920A9FB64
:1053500000712A463846FAF793FF6421B0FBF1F05A
:105360000AEB001A04206168A0FB017003461920B3
:10537000A9FB005001463A462846FAF781FF074646
:1053800004206168A0FB015003461920A9FB00B16D
:105390002A465846FAF774FF6421B0FBF1F000EB9F
:1053A000C00101EB0010A7EB8000322101EB0010DF
:1053B0006421B0FBF1F000F00F00504421688860D8
:1053C000BDE8F88F0010014000140140014691F83B
:1053D000390021282CD18868B0F5805F0FD10A6A86
:1053E0001088C0F308000B685860086918B9086A8B
:1053F000801C086209E0086A401C086205E00B6A2C
:10540000581C086218780B685860C88C401E80B21F
:10541000C88458B90868C06820F080000B68D8605C
:105420000868C06840F040000B68D86000207047F2
:105430000220FCE710B50248FDF756FC10BD000045
:10544000EC03002010B50248FDF74EFC10BD000033
:105450002C04002010B50248FDF746FC10BD0000EA
:105460006C04002010B50248FDF73EFC10BD0000A2
:10547000AC04002000BFFEE710B50A2000F04CFB92
:105480002A4908600A2000F047FB2849486028485C
:105490000068C06840F0100025490968C860002015
:1054A000224908720A20488108460A2201682048D9
:1054B000FDF7F4FE142000F02FFB1E4908601420B5
:1054C00000F02AFB1B4948601B480068C06840F098
:1054D000100019490968C860002016490872142094
:1054E00048810846142201681348FDF7D7FE1220B0
:1054F00000F012FB11490860122000F00DFB0F496B
:1055000048600F480068C06840F010000C49096806
:10551000C8600020094908721220488108461222FA
:1055200001680748FDF7BAFE10BD0000D00C00204E
:10553000AC040020AC0C00202C040020B80C00208F
:10554000EC0300200170704702480068C0F302209D
:10555000704700000CED00E010B5002804DB0A07DE
:10556000130E054A135406E00A07140E034A00F00E
:105570000F031B1FD45410BD00E400E018ED00E041
:1055800010B5B94A2DED020B2DED0C8B82B00F99A1
:1055900021F000409FEDB6CB90422CDBA0F14053B0
:1055A0000E9AA3F17F631A430FD0B349884202DCFD
:1055B00016D10E98A0B19DED0E0B02B0BDEC0C8B78
:1055C00002B0BDE8104000F040BA0029C1BF9FED15
:1055D000AC0B02B0BDEC0C8B02B0C8BF10BD16E026
:1055E000012000F05DFA02B0BDEC0C8B02B0BDE80A
:1055F000104000F035BAA44A9FEDA59B9FEDA6ABE5
:1056000090425EDAA6499FEDA8CB814208DBB0EE5E
:105610004C0AF0EE6C0A02B0BDEC0C8B02B010BD6F
:105620009DED0E0B53EC102B51EC100BFAF734FFE1
:1056300041EC180B9E480621B0EE480AF0EE680ACD
:10564000784400F086F953EC182B51EC100BFAF764
:1056500023FF41EC1B0B9748B0EE480AF0EE680AB6
:105660000421784400F075F953EC182B51EC100B21
:10567000FAF712FF53EC192BFAF767FE41EC100B07
:1056800051EC1B0B53EC102BFAF778FF41EC100B8D
:1056900053EC102B9DED0E0B51EC100BFAF7FCFEAA
:1056A00053EC1A2BFAF7F5FE9DED0E1B53EC112B64
:1056B000FAF7EFFE53EC1C2BFAF7EBFE41EC100B64
:1056C000A9E79FED7D8B9FED7EBB9DED0E0B002925
:1056D00053EC192B51EC100B52DAFAF736FE53EC5F
:1056E000182BFAF7D9FE41EC180B77480621B0EEDB
:1056F000480AF0EE680A784400F02BF953EC182BB6
:1057000051EC100BFAF7C8FE41EC1D0B6F48B0EEE0
:10571000480AF0EE680A0421784400F01AF953ECC4
:10572000182B51EC100BFAF7B7FE53EC192BFAF7C4
:105730000CFE41EC190B51EC180B00F083FD41EC11
:10574000180B53EC192B51EC1D0BFAF717FF53EC08
:10575000182BFAF7A1FE53EC1A2BFAF797FE41EC3F
:10576000100B51EC180B53EC102BFAF7EEFD53EC29
:105770001B2BFAF791FE53EC1C2BFAF78AFE6DE017
:10578000FAF787FE53EC182BFAF786FE41EC180B5C
:1057900000F058FD41EC1A0B00208DED00AB00909D
:1057A0009DED000B51EC1A0B53EC102BFAF7CDFDCD
:1057B0009DED000B41EC1C0B53EC102B51EC100B2E
:1057C000FAF76AFE53EC182BFAF763FE53EC1C2B26
:1057D000FAF7D4FE41EC1C0B3D48B0EE480AF0EE5F
:1057E000680A0621784400F0B4F853EC182B51EC09
:1057F000100BFAF751FE41EC1D0B3648B0EE480A8B
:10580000F0EE680A0421784400F0A3F853EC182B5A
:1058100051EC100BFAF740FE53EC192BFAF795FDFB
:1058200041EC100B51EC1D0B53EC102BFAF7A6FEBC
:1058300053EC1A2BFAF730FE53EC1C2BFAF785FDCC
:1058400041EC100B53EC102B9DED000B51EC100BA9
:10585000FAF77BFD53EC1B2BFAF71EFE41EC100B05
:10586000D9E60000000000000000F03F000000004A
:10587000182D4454FB2109400000F07F0000000077
:1058800000000000000000000000E03F00000000F9
:10589000000000000000F03F075C143326A6913C96
:1058A0000000603C00000000182D4454FB21F93F2B
:1058B000FC1600000A170000000000000000E03F96
:1058C00000000000000000404616000054160000D2
:1058D000581500006615000000B52DED048BB0EEE4
:1058E000409AF0EE609A83B051EC190BFAF7F9FF89
:1058F00041EC180B18EE100A18EE901A8DED008B83
:10590000002818BF0120084320F00040C0F17F604C
:1059100000F1E040C00F14D019EE101A19EE900AF1
:105920008DED009B002918BF0121084320F00040A5
:10593000C0F17F6000F1E040C00F04BF012000F023
:10594000AFF8B0EE480A03B0F0EE680ABDEC048B85
:1059500000BD70B504462DED028B4D1E00EBC50059
:10596000B0EE408AF0EE608A90ED000B35F0060054
:1059700017D053EC182B51EC100BFAF78DFD41ECBE
:10598000100B6D1E04EBC50090ED001B51EC100BCD
:1059900053EC112BFAF7D9FC41EC100B35F0060053
:1059A000E7D1022D36D0042D1CD0062D1CBFBDEC36
:1059B000028B70BD53EC182B51EC100BFAF76CFDF9
:1059C00094ED0A1B53EC112BFAF7BFFC53EC182B88
:1059D000FAF762FD94ED081B53EC112BFAF7B5FCB6
:1059E00041EC100B53EC182B51EC100BFAF754FD53
:1059F00094ED061B53EC112BFAF7A7FC53EC182B74
:105A0000FAF74AFD94ED040B53EC102BFAF79DFCCA
:105A100041EC100B53EC182B51EC100BFAF73CFD3A
:105A200094ED021B53EC112BFAF78FFC53EC182B5F
:105A3000FAF732FD94ED001B53EC112BFAF785FCBD
:105A4000BDEC028B41EC100B70BD10B553EC102B6C
:105A500051EC100BFAF779FC41EC100B10BD000073
:105A60009FED050B10B553EC102B51EC100BFAF712
:105A700085FD41EC100B10BD00000000000000008F
:105A800002E008C8121F08C1002AFAD17047704707
:105A9000002001E001C1121F002AFBD17047000065
:105AA0000149086070470000B8000020FCF75AFA6E
:105AB000FFF762F8FDF72CFEFDF78CFDFDF746FDC4
:105AC000FDF766FDFDF7CAFEFDF736FFFDF754FF53
:105AD000FDF76EFFFDF78AFFFDF7F6FEFDF7AAFE64
